:0400000057EF01F0C5
:100018007780D8CF04F0E8CF05F0E0CF06F0D9CF4D
:1000280007F0DACF08F09EAA54D0959C838C010E75
:1000380001013B6F900E3A6F000E706E000E6F6EEE
:100048006D690001F581B40E0101386F050E396F35
:100058009598838827D09EAA22D08398838838C110
:10006800D9FF39C1DAFFAECFDFFF70BE06D0090E67
:100078006F5C010E7058D8B004D06F4A702A384BA4
:10008800392BB8C5E8FF180AD8A404D01F0E3B6F57
:10009800400E03D0010E3B6F900E3A6F03D03A0723
:1000A800D8A03B073A513B11D8A4D5D78398ABA227
:1000B80010D0AB98AB88AECF3AF13B6BAECF3AF1EC
:1000C8003B6BAECF3AF13B6B000EE8CFB4F50001C5
:1000D800F5839EA0B4D09E903C0ECF6EB40ECE6E2B
:1000E800010E01016C6F74B102D0000E6C6F000E2E
:1000F800706E010E6F6E0ED01A0E6F24D96E010E3F
:100108007020DA6EDF50D8A403D0000E01016C6FA6
:100118006F4A702A0001EE51016E026A6F50015C4D
:100128000250800A036E7050800A0358D8B0E4D792
:1001380001016C05D8A41AD0040001017491000EC5
:10014800706E010E6F6E70BE06D070500FE10F0E0C
:100158006F5CD8B00BD01A0E6F24D96E010E7020C8
:10016800DA6E000EDF6E6F4A702AEDD7F50E0101C8
:10017800295D010E2A59D8A002D0819E01D0818E16
:1001880066516711D8B405D0320E665F000E675B02
:1001980006D064C166F165C167F10001F58D320EC4
:1001A80001015627000E5723320E6827000E6923D7
:1001B8007550D8B455BF04D0CE0E5427FF0E552322
:1001C800320E5227000E5323320E2927000E2A23FF
:1001D800E80E295D030E2A59D8A031D00001F3A9F1
:1001E80012D0F22B3B0EF2650ED0000EF26FF12BFF
:1001F8003B0EF16508D0000EF16FF02B630EF06531
:1002080002D0000EF06F000E01012A6F000E296F58
:100218002B2B7450D8A474063B0E2B6510D0000EFF
:100228002B6F2C2B624B632B3B0E2C6508D0000EDA
:100238002C6F2D2B170E2D6502D0000E2D6FF2B2EC
:10024800F292F2A424D00D0EE82EFED700F0000E94
:10025800D76EE10ED66EF29401013E4B3F2B5C51F6
:100268005D11D8B409D05C07D8A05D07000E3F6FB8
:10027800000E3E6F818C01D0819C6A516B11D8B4FD
:1002880005D06A07D8A06B07818A01D0819A08C077
:10029800DAFF07C0D9FF06C0E0FF05C0E8FF04C0C9
:1002A800D8FF7790100055EF3DF0640E096E000EF0
:1002B8000A6E000E0B6E000E0C6E8CEC4AF0D388A2
:1002C800D38AD38CD390D3929B8CEF0E926E010E6F
:1002D800936EF00E946EE30E956E9668D59AD59649
:1002E800D582D582D584F194F28AF290F2989E90C4
:1002F8009F900B0ECF6EBA0ECE6ECD92CD88CD8A62
:10030800CD8CCD869D80CD80F28CF28E000E166E3F
:10031800C20E176E010E186E000E196EBCEC47F077
:10032800A2EC50F0A00E0001966F860E976F010E9A
:10033800986F000E996F5BEC43F0F40E096E010E96
:100348000A6E000E0B6E000E0C6E8CEC4AF0000E5E
:100358000101596F000E586F819E000E5D6F000EEF
:100368005C6F819C000E6B6F000E6A6F819A000EA5
:100378000E6EFA0E0D6ED4EC4CF00DC0E6F00EC009
:10038800E7F0320E0001E619E711D8A402D0090EF1
:100398000DD0500EE619E711D8A402D00C0E06D0E5
:1003A800510EE619E711D8A402D0080EE96FF497A8
:1003B80099EC4CF0000E0A6E210E096E2AEC4DF0F5
:1003C8000001E86FE851D8B407D0000E306E000E77
:1003D8002F6E24EC50F00AD0070E336E940E326E56
:1003E800440E346EFE0E356E1FEC4FF02C0E096E67
:1003F800010E0A6E000E0B6E000E0C6E8CEC4AF0AD
:100408001D0E386EFB0E396EF0EC39F02C0E096EAD
:10041800010E0A6E000E0B6E000E0C6E8CEC4AF08C
:100428002B0E386EFE0E396EF0EC39F0000E0E6EA3
:10043800220E0D6ED4EC4CF00DC0CFF30EC0D0F3ED
:100448000301CF290DE1D029D8A40AD0000E416EAE
:10045800220E406E000E436E000E426E0CEC4FF002
:10046800000E0A6E340E096E2AEC4DF0FF0AD8A46D
:100478007FD0B70E386EFB0E396EF0EC39F07B0E7C
:10048800386EFD0E396EF0EC39F00A0E486E000E2B
:100498007DEC39F04BEC4BF09BEC49F05CEC48F010
:1004A800000E756E000E0001EF6F7AEC50F0000E32
:1004B8003B6E100E3A6E000E3C6EC0EC48F0000E1B
:1004C800416E090E406E000E436E0A0E426E0CEC31
:1004D8004FF0000E416E0B0E406E400E426EE20E63
:1004E800436E010E446E000E456E5FEC4EF0000E3A
:1004F80006EC0DF0000E3B6E110E3A6E000E3C6ECF
:10050800C0EC48F0000E3B6E120E3A6E000E3C6EC8
:10051800C0EC48F0D2EC3AF0000E1F6E000E206ED0
:10052800000E216E000E226E000E246E000E236E49
:10053800000EA3EC4EF0020E1F6E000E206E000E91
:10054800216E000E226E000E236E000E246E000E29
:10055800256E000E266E000EB0EC4DF0000E416EBA
:10056800FA0E406E000E436E320E426E0CEC4FF0E7
:1005780017EC40F0010E06EC0DF0000E0E6E0B0E9F
:100588000D6E7BEC4CF00DC032F10EC033F10FC094
:1005980034F110C035F182EC46F04B0E386EFB0E8C
:1005A800396EF0EC39F07BEC40F0E3EC4DF0F90EED
:1005B800386EFD0E396EF0EC39F0020E1B6E000E2F
:1005C8001C6E000E1D6E000E1E6E000E99EC41F0A2
:1005D8001BC0E0F01CC0E1F01DC0E2F01EC0E3F05B
:1005E800D40E386EFC0E396EF0EC39F0000E0301B3
:1005F800D36F0E0ED36501D008D004000301D35188
:100608009DEC2BF00301D32BF4D7000ED46F070E0B
:10061800D46501D009D00400D4C338F0396AF1ECAC
:1006280033F00301D42BF3D7000E0E6E0B0E0D6EB4
:100638007BEC4CF00DC032F10EC033F10FC034F139
:1006480010C035F182EC46F0C0EC0FF07BEC40F0C6
:10065800E3EC4DF005EC44F0C4EC46F0000E00016C
:10066800F96F000EF86F000E0101FD6F000EFC6FB0
:10067800000E736F000E576F000E566F000E716FED
:10068800000E4D6F000E4C6F000E4B6F000E4A6F40
:10069800000E726E000E716E000E4F6F000E4E6FE0
:1006A800000E726F000E5CEC4CF0000E01012A6F18
:1006B800000E296F000E2B6F000E0001F26FF3C0C1
:1006C8006FF1000E746EDCEC40F0000E336E400EDD
:1006D800326E000E356E000E346E14EC50F00001D0
:1006E800F49F7690769276947696000E336E010E8D
:1006F800326E000E356E000E346E14EC50F00001B0
:10070800F5931E0E386EFC0E396EF0EC39F00EECD7
:100718004DF05AEC1FF098EC23F00001E851D8B4E2
:1007280007D0000E306E0F0E2F6E24EC50F00AD05A
:10073800070E336E940E326E7A0E346EFC0E356EE2
:100748001FEC4FF00001E869000E3B6E210E3A6E77
:10075800E8C03CF0C0EC48F0000E01013F6F000E0D
:100768003E6F010174810001F487E90E0101565DB5
:10077800030E5759D8A019D0000E576F000E566FA8
:100788004EEC3FF02AC0F8F02BC0F9F00101FC5103
:100798000001F81906E10101FD510001F919D8B469
:1007A80004D0F8C0FCF1F9C0FDF10001F487050E92
:1007B80001012B6109D0190E0001F819F911D8B4FB
:1007C80003D0000E5CEC4CF00001F3B902EC43F0EE
:1007D80005EC44F0C4EC46F00001F49780EC2EF0F0
:1007E800C9EC27F0C0EC0FF06DEC30F0510E0001B1
:1007F800E619E711D8B4B1EC43F05EEC33F0CCEC79
:100808002DF013EC2DF0000E356E640E346E8EEC68
:100818004FF034043510D8B4B3EC3FF00001F5A321
:1008280044D0000E01016B6FC80E6A6F3ED0420EB5
:10083800B7EC50F0000E336E160E326E000E356EA9
:10084800000E346E14EC50F0020E0101726F3DD0B0
:10085800000E356E060E346E8EEC4FF0F00E341826
:100868003510D8A40DD0000E47EC49F0000E000159
:10087800F06F000EF16F000E0101726F02EC43F091
:10088800000E356E060E346E8EEC4FF0FA0E3418EC
:100898003510D8A41AD0000E0101726F3A0E306ECE
:1008A800980E2F6EFCEC4DF010D001017251000132
:1008B800DC6FDD6BDD51000AD8A407D0DC51010ADA
:1008C800D8B4B5D7030AD8B4C3D70001F487B2ECBB
:1008D8004FF00001F4AF26EC4BF0F497F48726EFC5
:1008E80009F0000E0301D66F090ED66501D033D08A
:1008F800070ED625346E356A000E35228EEC4FF081
:1009080034043510D8A424D0070E0301D625326E3E
:10091800336A000E3322000E356E000E346E14EC6E
:1009280050F0D6C3ECF0050E0001EC6109D0130EAF
:10093800EB6F000E306E1B0E2F6E24EC50F008D0BB
:10094800150EEB6F000E306E1C0E2F6E24EC50F05F
:100958000301D62BC9D7A6EC21F061EF09F0000EF0
:10096800356E010E346E8EEC4FF034043510D8A479
:1009780061EF09F0000E336E010E326E000E356E17
:10098800000E346E14EC50F090EC38F061EF09F082
:1009980001017351D8A405D0010E5CEC4CF00101A3
:1009A800732B000E356E980E346E8EEC4FF03404B7
:1009B8003510D8A40DD0000E336E980E326E000E8E
:1009C800356E000E346E14EC50F0010E5CEC4CF0F9
:1009D800000E356EAE0E346E8EEC4FF034043510CA
:1009E800D8A461EF09F0000E336EAE0E326E000E21
:1009F800356E000E346E14EC50F015EC4AF061EFD1
:100A080009F0000EED6F070EED6501D02FD0200E16
:100A1800ED25346E356A000E35228EEC4FF0340425
:100A28003510D8A420D0200E0001ED25326E336A8F
:100A3800000E3322000E356E000E346E14EC50F0AA
:100A4800EBC02FF0306A24EC50F0750E176E010ED3
:100A5800186E0001ED511CEC3CF0010E386E0001DF
:100A6800EC5184EC3EF00001ED2BCDD7000E356E35
:100A7800110E346E8EEC4FF034043510D8A40FD01C
:100A8800000E336E110E326E000E356E000E346E8F
:100A980014EC50F0EBC02FF0306A24EC50F0000E4C
:100AA800356E120E346E8EEC4FF034043510D8A427
:100AB80061EF09F0000E336E120E326E000E356EC5
:100AC800000E346E14EC50F0000E01017B6F7C0EAA
:100AD8000D6E010E0E6E790E0F6EFC0E106E71EC1F
:100AE80049F0000E01017A6F000E796F000E786FE1
:100AF800000E776F000E766F000E756F000E386E61
:100B08000001EC5184EC3EF0EBC02FF0306A24EC8D
:100B180050F0D3D3000E0301D56F38D0D5511E0D38
:100B2800F3CFDCF0F4CFDDF0170E0001DC25346ED6
:100B3800100EDD21356E8EEC4FF034043510D8A43C
:100B480023D00301D5511E0DF3CFDCF0F4CFDDF037
:100B5800170E0001DC25326E100EDD21336E000EFB
:100B6800356E000E346E14EC50F00301D551ACEC28
:100B780022F0000E306E230E2F6E24EC50F070EC35
:100B880050F037EC12F008D00301D52B0001E951E1
:100B98000301D55DD8A0C2D7000E356E300E346E75
:100BA8008EEC4FF034043510D8A40CD0000E336E00
:100BB800300E326E000E356E000E346E14EC50F0AE
:100BC800D2EC3AF0DCEC40F0000E356EAF0E346E2D
:100BD8008EEC4FF034043510D8A46FD3000E336E6A
:100BE800AF0E326E000E356E000E346E14EC50F0FF
:100BF800B5EC4BF062D3100E010132190001DC6F25
:100C08002F0E010133190001DD6FBA0E01013419ED
:100C18000001DE6FE40E010135190001DF6FDC1DF4
:100C28000301CB6F0001DD1D0301CC6F0001DE1D48
:100C38000301CD6F0001DF1D0301CE6FCBC316F09A
:100C4800CCC317F0CDC318F0CEC319F0580E1A6EE6
:100C5800030E1B6E000E1D6E100E1C6E17EC38F086
:100C6800060E336E7C0E326E580E346E030E356EE1
:100C78001FEC4FF0F40E096E010E0A6E000E0B6E9B
:100C8800000E0C6E1CEC49F0010E356E820E346EAF
:100C98008EEC4FF034043510D8A40FD3010E336E08
:100CA800820E326E000E356E000E346E14EC50F06B
:100CB800BFEC17F002D3F487F4BFF3A70CD0F3A16D
:100CC8000AD0470EB7EC50F0000E306E0F0E2F6EA4
:100CD80024EC50F0F2D2030EF76F100EF66FF7BF48
:100CE80006D01D0EF65D030EF759D8B07ED2F65128
:100CF800F00FEA6FF6C034F0F7C035F08EEC4FF025
:100D08000E0E34183510D8A490D10001EF51D8B484
:100D18007DD1320EE619E711D8A403D0EAC0E4F079
:100D28000BD0500EE619E711D8A408D065EC4AF0AC
:100D38000001DC6FDC51E46FE56B05D0510EE6195C
:100D4800E711D8B4F3D7E5BF06D0E55103E1080EA3
:100D5800E45DD8B020D1100EEA25326E336A030E56
:100D68003322010EEA25346E356A000E352214EC62
:100D780050F0E4C015F0E5C016F0000E186E0A0E2B
:100D8800176E45EC4FF0FD0E1524326E060E162038
:100D9800336E010EE4C0DCF0E5C0DDF0DCC0DDF050
:100DA8000001DC6BDC11346EDD51356E14EC50F053
:100DB800E4C015F0E5C016F0000E186E0A0E176EA6
:100DC80045EC4FF0FB0E1524326E060E1620336EDE
:100DD8000001EA51020D000EF324D96E010EF42031
:100DE800DA6EDECF34F0DDCF35F014EC50F0910E32
:100DF8000001E425D96E020EE521DA6EE4C0DFFFBA
:100E0800A00EE425D96E020EE521DA6EEA29DF6E1E
:100E1800AF0EEA25D96EDA6A020EDA22EA29DF6E07
:100E2800EA51020D000EF324D96E010EF420DA6E99
:100E3800D890E435E16EE535E26EBE0EE126020E8D
:100E4800E222DECFE6FFDDCFE5FF370EDC6F020ED4
:100E5800DD6F1E0EDC27000EDD23D890E435D96E39
:100E6800E535DA6ED890D936DA36DC51D926DD5137
:100E7800DA22000EDE6E000EDE6E800EDE6E3F0E93
:100E8800DD6E020EEA6508D0010EEA250301D16F76
:100E9800D26B000ED22304D0EAC0D1F30301D26B87
:100EA800D1C3DCF0D2C3DDF0D8900001DC37DD37E8
:100EB800DC0EDE6F020EDF6FDC51DE27DD51DF2333
:100EC800D890E435D96EE535DA6E370ED926020E9C
:100ED800DA22DEC0DEFFDFC0DDFF370EDC6F020E78
:100EE800DD6F1E0EDC27000EDD23D890E435D96EA9
:100EF800E535DA6ED890D936DA36DC51D926DD51A7
:100F0800DA22000EDE6E000EDE6E800EDE6E3F0E02
:100F1800DD6EEA51D8A41CD0370EDC6F020EDD6FEF
:100F28001E0EDC27000EDD23D890E435D96EE5359A
:100F3800DA6ED890D936DA36DC51D926DD51DA2284
:100F4800550EDE6EC10EDE6EE80EDE6E3E0EDD6EF6
:100F5800EA05D8A41CD0370EDC6F020EDD6F1E0E1A
:100F6800DC27000EDD23D890E435D96EE535DA6E3E
:100F7800D890D936DA36DC51D926DD51DA22CD0EB1
:100F8800DE6ECC0EDE6E4C0EDE6E3D0EDD6E020E9B
:100F980006EC0DF026D1E4C015F0E5C016F0000E01
:100FA800186E0A0E176E45EC4FF0FD0E1524326EC2
:100FB800060E1620336E0001E451DD6FDC6B000E67
:100FC800DC11346E0A0EDD11356E14EC50F0E4C0FD
:100FD80015F0E5C016F0000E186E0A0E176E45ECF7
:100FE8004FF0FB0E1524326E060E1620336EFF0EE0
:100FF800356E346814EC50F0F6C032F0F7C033F0B8
:10100800FF0E356E346814EC50F0EBD0C3EC4FF0A3
:10101800F6C032F0F7C033F0FF0E356E346814ECCA
:1010280050F0510EB7EC50F0DCD0F6C034F0F7C0F9
:1010380035F08EEC4FF0355004E10F0E345CD8A03B
:10104800D0D0F6C034F0F7C035F08EEC4FF0355004
:1010580003E11F0E345CD8B0C4D00001EF51D8B4FE
:101068008DD0A00E096E020E0A6EEA290B6E6AEC8C
:101078004FF00301D76FA00E0001EA25D96EDA6A96
:10108800020EDA22DF50DC6FDC050301CA6FF6C0FE
:1010980032F0F7C033F0FF0E356E346814EC50F0C0
:1010A8000301D7510A0DF3CFDCF0F4CFDDF0FD0ECC
:1010B8000001DC25326E060EDD21336E0A0E356E18
:1010C800000E346E14EC50F00301D7510A0DF3CF23
:1010D800DCF0F4CFDDF0FB0E0001DC25326E060EED
:1010E800DD21336EFF0E356E346814EC50F00301C9
:1010F800D751020D370EF324D96E020EF420DA6EA2
:10110800000EDE6E000EDD6E910ED725D96EDA6AFE
:10111800020EDA220A0EDF6EA00ED725D96EDA6A21
:10112800020EDA22FF0EDF6EAF0E0001EA25D96E3D
:10113800DA6A020EDA22FF0EDF6E0301D751020DC2
:10114800BE0EF324D96E020EF420DA6EFF0EDE6EA8
:10115800FF0EDD6ED751040D550EF324D96E020E25
:10116800F420DA6E000EDE6E000EDE6E000EDE6E0D
:10117800000EDD6E020E06EC0DF033D0C3EC4FF01E
:10118800510EB7EC50F0320E0001E619E711D8A461
:1011980011D0F6C032F0F7C033F0A00EEA25D96EB0
:1011A800DA6A020EDA22DF50DC6FDC51346E356AFF
:1011B80014EC50F0500E0001E619E711D8A411D034
:1011C800F6C032F0F7C033F0AF0EEA25D96EDA6A0E
:1011D800020EDA22DF50DC6FDC51346E356A14EC13
:1011E80050F00001F64BF72B7AD5F49766D058ECFF
:1011F80050F0000E0001ED6F070EED6501D05DD0D7
:10120800200EED25346E356A000E35228EEC4FF037
:1012180034043510D8A410D0200E0001ED25326E0C
:10122800336A000E3322000E356E000E346E14EC55
:1012380050F0E4EC44F041D00001ED2BDDD74AEC4E
:1012480014F03BD0F8C0DCF0F9C0DDF0DD51000A45
:10125800D8A433D0DC51130AD8B475EF04F0060AC9
:10126800D8B475EF04F0020AD8B4B3EF04F00E0A4C
:10127800D8B4CCEF04F0020AD8B405EF05F0070A99
:10128800D8B405EF05F0010AD8B444D4020AD8B49A
:10129800B2D43C0AD8B40FD50C0AD8B4A8D71E0AC1
:1012A800D8B4CDD7B50AD8B475EF04F0010AD8B4CC
:1012B80031D4020AD8B4B3EF04F016EC36F0B5EF27
:1012C80003F0C4C6ACF0C5C6BAF0C6C6B9F0C7C606
:1012D800B8F0C8C6B7F025D3C5C650F026EEC4F09E
:1012E800DF50516E50503A6E51C03BF0C6C63CF0CC
:1012F800C0EC48F0030E7CEC4DF094EC50F0BCECE4
:1013080050F01200C5C650F026EEC4F0DF50516E02
:101318005050096E51C00AF02AEC4DF00001AE6F32
:10132800010E7CEC4DF00001AE5192EC4BF0120036
:10133800C5C650F05050C4C651F051C052F0536A5F
:1013480052C053F0526A52100001AA6F5350AB6F4B
:10135800C7C650F05050C6C651F051C052F0536A3B
:1013680052C053F0526A5210A86F5350A96FAAC0C6
:1013780040F0ABC041F0A8C042F0A9C043F00CEC6B
:101388004FF0030E7CEC4DF0B8D7C5C650F026EEF2
:10139800C4F0DF50516E50500D6E51C00EF0D4ECB9
:1013A8004CF00DC0B4F00EC0B5F0020E7CEC4DF060
:1013B800B4C028F0B5C029F0B0EC50F01200C5C692
:1013C80050F026EEC4F0DF50516E5050406E51C0C0
:1013D80041F0C60E426E060E436E1BEC4CF0030E37
:1013E8007CEC4DF094EC50F01200C5C650F026EE9F
:1013F800C4F0DF50516E50500D6E51C00EF0580EB3
:101408000F6E030E106E61EC4DF04A0E7CEC4DF041
:10141800580E286E030E296EFEEC45F01200B7C078
:101428001FF0B8C020F0B9C021F0BAC022F0C9C678
:1014380023F026EEC4F0DF50A0EC4FF0030E7CEC56
:101448004DF0D0D7B7C01BF0B8C01CF0B9C01DF024
:10145800BAC01EF026EEC4F0DF507CEC4FF000015D
:10146800AE6F010E7CEC4DF00001AE5192EC4BF0EA
:101478001200B7C01FF0B8C020F0B9C021F0BAC040
:1014880022F0CAC650F05050C9C651F051C052F0AF
:10149800536A52C053F0526A5210236E5350246E4E
:1014A80026EEC4F0DF50A3EC4EF0030E7CEC4DF0BA
:1014B80099D7B7C01BF0B8C01CF0B9C01DF0BAC0AE
:1014C8001EF026EEC4F0DF5096EC4DF01BC0B4F0D1
:1014D8001CC0B5F0020E7CEC4DF06AD7B7C01BF00B
:1014E800B8C01CF0B9C01DF0BAC01EF026EEC4F09A
:1014F800DF5099EC41F01BC0B0F01CC0B1F01DC02A
:10150800B2F01EC0B3F0040E7CEC4DF00001B351F4
:1015180092EC4BF00001B25192EC4BF00001B1514A
:1015280092EC4BF00001B05192EC4BF01200C9C69E
:10153800ADF00001AD517CEC4DF0B7C028F0B8C05B
:1015480029F0B9C02AF0BAC02BF0ADC02CF00E0EAD
:101558002D6E030E2E6E0001AC5165EC25F01200C5
:10156800B7C00DF0B8C00EF0B9C00FF0BAC010F097
:10157800C9C611F0CA0E126E060E136E26EEC4F01E
:10158800DF501AEC2AF0030E7CEC4DF02BD7B7C0D5
:101598000DF0B8C00EF0B9C00FF0BAC010F0C90E07
:1015A800116E060E126E26EEC4F0DF5090EC35F088
:1015B800030E7CEC4DF016D7B7C010F0B8C011F090
:1015C800B9C012F0BAC013F0580E146E030E156E9F
:1015D80026EEC4F0DF5090EC28F0580E096E030E8A
:1015E8000A6ED7EC4BF009507CEC4DF011D7C6C60B
:1015F80050F026EEC5F0DF50516E5050286E51C0A5
:1016080029F026EEC4F0DF50EDEC49F0030E7CEC37
:101618004DF0E8D6020E7CEC4DF00001F05192EC52
:101628004BF00001F15192EC4BF01200800E2A6E43
:101638008A0E2B6E56EC29F0090E7CEC4DF026EE46
:10164800C4F0DF50D8A406D0800E286E296AFEECBC
:1016580045F012008A0E286E296AFEEC45F0120049
:10166800000E0001B66F070EB66501D00ED0C40E8D
:10167800B625D96EDA6A060EDA22B651940FE16EF3
:10168800E26ADFCFE7FFB62BEED7000E9C6F000EA5
:10169800B66F070EB66501D00ED0CC0EB625D96E42
:1016A800DA6A060EDA22B6519E0FE16EE26ADFCFE1
:1016B800E7FFB62BEED7000EA66F940E2A6E9E0E8D
:1016C8002B6EA0EC31F01200C5C650F026EEC4F027
:1016D800DF50516E5050326E51C033F0C7C653F0D0
:1016E8005350556E546A26EEC6F0DF50566E576A50
:1016F80054505610346E55505710356ED4EC4FF088
:10170800030E7CEC4DF06ED6838AC5C650F0C4C675
:1017180051F05150536E526A50505224346E000E9C
:101728005320356EB9EC4EF034C0B4F035C0B5F086
:10173800839A838A580E096E030E0A6ED7EC4BF013
:1017480009507CEC4DF0B4C028F0B5C029F0B0ECDD
:1017580050F0839A1200C5C650F026EEC4F0DF5050
:10176800516E50502F6E51C030F0FCEC4DF0030E0E
:101778007CEC4DF037D6C5C650F026EEC4F0DF50ED
:10178800516E50502F6E51C030F024EC50F0030EC3
:101798007CEC4DF027D626EEC4F0DF50B7EC50F0C5
:1017A800030E7CEC4DF01ED6000E0E6E090E0D6E6B
:1017B800D4EC4CF00DC0B4F00EC0B5F0020E7CECC9
:1017C8004DF0F6D50601C451040F9DEC2BF0030E25
:1017D8007CEC4DF007D6010E7CEC4DF00001EE518B
:1017E80092EC4BF012000A0E486E000E7DEC39F0B8
:1017F800000E0001AF6F0E0EAF6501D006D0AF51DD
:101808009DEC2BF00001AF2BF6D7030E7CEC4DF0CE
:10181800E9D582EC24F0030E7CEC4DF0E3D5C5C687
:1018280050F026EEC4F0DF50516E5050326E51C069
:1018380033F0C60E346E060E356E1FEC4FF0030EF5
:101848007CEC4DF0CFD5C5C650F026EEC4F0DF5085
:10185800516E5050346E51C035F0580E366E030E2E
:10186800376E3EEC50F0580E096E030E0A6ED7EC38
:101878004BF009507CEC4DF0CBD5000E1B6E000EE2
:101888001C6E000E1D6E000E1E6E000E96EC4DF0C6
:101898001BC0B4F01CC0B5F00001B44BB52B020E50
:1018A8007CEC4DF085D526EEC5F0DF50D8B402D0DB
:1018B800768033D0769031D026EEC5F0DF50D8B49C
:1018C80002D076822AD0769228D026EEC5F0DF5054
:1018D800D8B402D0768421D076941FD026EEC5F0F5
:1018E800DF50D8B402D0768618D0769616D026EE79
:1018F800C4F0DF50506E516A5150000AD8A40DD080
:101908005050020AD8B4CFD7010AD8B4D5D7070A9D
:10191800D8B4DBD7010AD8B4E1D7030E7CEC4DF07C
:1019280061D526EEC2F0DF50506E516A5150000A60
:10193800D8A412005050080AD8B4CED4010AD8B49A
:10194800E1D4030AD8B4F4D4010AD8B41ED5070ADE
:10195800D8B435D5010AD8B448D51C0AD8B45FD54F
:10196800030AD8B46FD5010AD8B483D5070AD8B406
:10197800A0D5010AD8B40BD6030AD8B41DD6010ADB
:10198800D8B4EED50F0AD8B4D2D5010AD8B42FD618
:10199800390AD8B499D6010AD8B4B6D6030AD8B445
:1019A8003ED7010AD8B44FD7070AD8B4D4D6010A0B
:1019B800D8B4E1D6030AD8B4EED6010AD8B40BD706
:1019C8000F0AD8B4F1D6050AD8B424D6030AD8B475
:1019D8002DD6010AD8B444D66D0AD8B4F3D6010A74
:1019E800D8B401D7070AD8B414D7010AD8B476D521
:1019F800030AD8B412000F0AD8B43FD7030AD8A4F0
:101A0800120075D74C6E59EC2CF0A4D2000E546E0F
:101A18005450020DBE0EF324D96E020EF420DA6E75
:101A2800FF0EDE6EFF0EDD6E910E5424D96EDA6A5B
:101A3800020EDA220A0EDF6EA00E5424D96EDA6A7C
:101A4800020EDA22FF0EDF6EAF0E5424D96EDA6A68
:101A5800020EDA22FF0EDF6E5450020D370EF32409
:101A6800D96E020EF420DA6E000EDE6E000EDD6E08
:101A78005450040D550EF324D96E020EF420DA6E7C
:101A8800000EDE6E000EDE6E000EDE6E000EDD6EE7
:101A9800130E54243A6E3B6A000E3B22AF0E5424B8
:101AA800D96EDA6A020EDA22DF503C6EC0EC48F0DA
:101AB800EA0E54243A6E3B6A000E3B22A00E5424D0
:101AC800D96EDA6A020EDA22DF503C6EC0EC48F0BA
:101AD800240E54243A6E3B6A000E3B22910E542485
:101AE800D96EDA6A020EDA22DF503C6EC0EC48F09A
:101AF800100E5424326E336A030E3322FF0E356EF5
:101B0800346814EC50F054500A0DF3CF46F0F4CF7B
:101B180047F0FD0E4624326E060E4720336E0A0E3D
:101B2800356E000E346E14EC50F054500A0DF3CF9D
:101B380046F0F4CF47F0FB0E4624326E060E4720DF
:101B4800336EFF0E356E346814EC50F0542A0C0EC8
:101B580054645ED71200000E0E6E130E0D6EAF0E9B
:101B68000F6E020E106E0F0E116E47EC4EF0000E47
:101B78000E6EEA0E0D6EA00E0F6E020E106E0F0E98
:101B8800116E47EC4EF0000E0E6E240E0D6E910E87
:101B98000F6E020E106E0F0E116E47EC4EF0000E17
:101BA800546EAF0E5424D96EDA6A020EDA22DF5070
:101BB8004F6E4F28D8B40CD0100E5424326E336AAE
:101BC800030E33224FC034F0356A14EC50F00BD0BA
:101BD800100E5424326E336A030E3322FF0E356E14
:101BE800346814EC50F0542A0C0E5464DAD7000E02
:101BF800546E910E5424D96EDA6A020EDA22080E57
:101C0800DF6017D0A00E5424D96EDA6A020EDA22E9
:101C1800DF50466E476AD89046364736FE0E462451
:101C2800D96E000E4720DA6EDECF51F0DDCF52F0CC
:101C380002D05168526854500A0DF3CF46F0F4CFE1
:101C480047F0FB0E4624326E060E4720336E51C015
:101C580034F052C035F014EC50F05450020DBE0E62
:101C6800F324D96E020EF420DA6E51C0DEFF52C0A2
:101C7800DDFF542A0C0E5464BCD7000E546E910E2E
:101C88005424D96EDA6A020EDA22DF50506E080E3A
:101C980050601AD054500A0DF3CF46F0F4CF47F0F5
:101CA800FD0E4624326E060E4720336E010E50C0DC
:101CB80048F0496A48C049F0486A4810346E4950AB
:101CC800356E14EC50F012D054500A0DF3CF46F094
:101CD800F4CF47F0FD0E4624326E060E4720336ED1
:101CE8000A0E356E000E346E14EC50F0542A0C0EA9
:101CF8005464C5D7000E536E910E5324D96EDA6A18
:101D0800020EDA220A0EDE18D8B4CBD0FF0E466EC9
:101D1800FF0E476E910E5324D96EDA6A020EDA224C
:101D2800DF50486E496AA00E4824D96E020E492039
:101D3800DA6EDF504A6E4B6A46504A2647504B22AD
:101D48004BBE1BD04B5004E1030E4A5CD8A015D003
:101D5800910E5324D96EDA6A020EDA22DF50466EEB
:101D6800476AA00E4624D96E020E4720DA6EDF506D
:101D7800486E48504D6E4E6A17D0910E5324D96E56
:101D8800DA6A020EDA22DF50466E476AA00E46244F
:101D9800D96E020E4720DA6EDF50486EFF0E4824D7
:101DA8004D6E4E6AFF0E4E224DC046F04EC047F0B3
:101DB800D89046364736DC0E486E020E496E4650BD
:101DC800482647504922910E5324D96EDA6A020EEA
:101DD800DA22DF504A6E4A50020D370EF324D96ECC
:101DE800020EF420DA6E48C0DEFF49C0DDFF910E16
:101DF8005324D96EDA6A020EDA22DF50466E465054
:101E0800040D550EF324D96E020EF420DA6E000E7E
:101E1800DE6E000EDE6E800EDE6E3F0EDD6E910E03
:101E28005324D96EDA6A020EDA22DF50D8A418D009
:101E3800910E5324D96EDA6A020EDA22DF50466E0A
:101E48004650040D550EF324D96E020EF420DA6EB6
:101E5800550EDE6EC10EDE6EE80EDE6E3E0EDD6ED7
:101E6800910E5324D96EDA6A020EDA22DE04D8A45F
:101E780018D0910E5324D96EDA6A020EDA22DF5096
:101E8800466E4650040D550EF324D96E020EF4200A
:101E9800DA6ECD0EDE6ECC0EDE6E4C0EDE6E3D0EB4
:101EA800DD6E532A070E536427D71200000E546EB6
:101EB800100E5424346E356A030E35228EEC4FF022
:101EC800AF0E5424D96EDA6A020EDA2234C0DFFF6C
:101ED80054500A0DF3CF46F0F4CF47F0FD0E4624D8
:101EE800346E060E4720356E8EEC4FF035C034F058
:101EF800356A910E5424D96EDA6A020EDA2234C099
:101F0800DFFF542A0D0E5464D3D7000E416E130E12
:101F1800406EAF0E426E020E436E0F0E446ECAEC58
:101F28004DF0000E416EEA0E406EA00E426E020E9B
:101F3800436E0F0E446ECAEC4DF0000E416E240E37
:101F4800406E910E426E020E436E0F0E446ECAEC46
:101F58004DF012004C50466E476A4750000AD8A40C
:101F680012004650000AD8B451D5010AD8B4F3D5A6
:101F7800030AD8A412009AD7200E096E000E0A6E22
:101F8800000E0B6E000E0C6E00EC4BF0000E000104
:101F9800A76F5CD0A7C096F0D89096339629A36F08
:101FA800A751010BA66FA6C09AF01A0E2A6E010E51
:101FB8002B6E9A0E2C6E2D6AA35133EC26F0A75186
:101FC800020DDC0EF324D96E020EF420DA6E2AC05C
:101FD800DEFF2BC0DDFFA751020DDC0EF324D96E06
:101FE800020EF420DA6EDE2820E1DE28D8A41DD007
:101FF800000EA725D96EDA6A030EDA220A0EDF6010
:102008001CD0000EA725D96EDA6A030EDA22DF2A61
:10201800A751020DDC0EF324D96E020EF420DA6EFD
:10202800000EDE6E000EDD6E08D0000EA725D96EFC
:10203800DA6A030EDA22000EDF6E1A0EA325D96EB5
:10204800DA6A010EDA22010EDF6EA72BEE51020DBD
:10205800A751966F976BF350965D9751800A986FCA
:10206800F450800A9859D8A095D7510EE619E7116F
:10207800D8A404D0E8C2E6F2E9C2E7F2320E096E4B
:10208800000E0A6E000E0B6E000E0C6E00EC4BF08C
:102098000001F487000EA76FD5D1A751020DDC0E01
:1020A800F324D96E020EF420DA6E010EDBBEC8D11D
:1020B800000E336E990E326EA751020DDC0EF3241A
:1020C800D96E020EF420DA6EDECF34F0DDCF35F0B3
:1020D80014EC50F00001A751020DDC0EF324D96E68
:1020E800020EF420DA6EDECF4AF1DDCF4BF1A8D133
:1020F800A751020DDC0EF324D96E020EF420DA6E1D
:10210800010EDBBEA1D0010EDB5004E10A0EDE5C3D
:10211800D8A09AD0A751020DDC0EF324D96E020E76
:10212800F420DA6E010EDBBE06D0D10EDE5C070E9F
:10213800DE58D8B089D0000E336E970E326EA75194
:10214800020DDC0EF324D96E020EF420DA6EDECF17
:1021580034F0DDCF35F014EC50F0660E4C6E660EA0
:102168004D6E160E4E6E400E4F6E0001A751020DB9
:10217800DC0EF324D96E020EF420DA6EDECF09F0FD
:10218800DDCF0AF0000E0ABEFF0E0B6E0C6E010EBC
:1021980030EC2FF009C044F00AC045F00BC046F0FF
:1021A8000CC047F0000E406E000E416EFA0E426EF3
:1021B800440E436E6FEC4BF040C048F041C049F00C
:1021C80042C04AF043C04BF0FAEC1AF048C09DF008
:1021D80049C09EF04AC09FF04BC0A0F09DC044F09B
:1021E8009EC045F09FC046F0A0C047F00001A7512F
:1021F800020DDC0EF324D96E020EF420DA6EDECF67
:1022080009F0DDCF0AF0000E0ABEFF0E0B6E0C6E51
:10221800010E30EC2FF009C040F00AC041F00BC0AD
:1022280042F00CC043F06FEC4BF040C069F041C085
:102238006AF042C06BF043C06CF03BEC41F069C0FF
:102248004CF16AC04DF1FCD0000E3B6E110E3A6E97
:10225800F0C03CF0C0EC48F0000E3B6E120E3A6E37
:10226800F1C03CF0C0EC48F0000E0001E86F000E31
:102278003B6E210E3A6EE8C03CF0C0EC48F0FF001F
:10228800DFD0000E336E960E326EA751020DDC0EB3
:10229800F324D96E020EF420DA6EDECF34F0DDCFEF
:1022A80035F014EC50F00001A751020DDC0EF324B8
:1022B800D96E020EF420DA6EDECF71F0DDCF72F047
:1022C800BFD0510EE619E711D8A431D0060EA719D0
:1022D800D8A42DD0000E336E8C0E326EA751020D8D
:1022E800DC0EF324D96E020EF420DA6EDECF34F061
:1022F800DDCF35F014EC50F00001A751020DDC0ED3
:10230800F324D96E020EF420DA6EDE2803E1DE280B
:10231800D8B496D0A751020DDC0EF324D96E020E64
:10232800F420DA6EDECF4EF1DDCF4FF189D0A75120
:10233800FC0FA66FA6510C0DF3CF96F0F4CF97F0D3
:10234800E60E9625A16F000E9721A26F900EA62586
:10235800A46FA56B010EA523010EA125326E000EF8
:10236800A221336EA651966F976BD8909637973700
:10237800E40E9625D96E020E9721DA6EDECF34F080
:10238800DDCF35F014EC50F00001A651966F976B35
:10239800D89096379737E40E9625D96E020E972176
:1023A800DA6E010EDBAE11D0700EDE5CFE0EDE586A
:1023B800D8B00BD0A4C032F0A5C033F0000E356EF3
:1023C800010E346E14EC50F03BD0A651966F976B0B
:1023D800D89096379737E40E9625D96E020E972136
:1023E800DA6EDE280EE1DE28D8A40BD0A4C032F0C5
:1023F800A5C033F0000E356E000E346E14EC50F0AC
:102408001FD0A4C032F0A5C033F0000E356E030E05
:10241800346E14EC50F014D0A751966F976B975107
:10242800000AD8A44ED79651000AD8B436D6010A65
:10243800D8B45ED6030AD8B424D7010AD8A441D7A1
:102448000001A72BEE51020DA751966F976BF35021
:10245800965D9751800A986FF450800A9859D8A0D1
:10246800DBD7F4971200500E0001E619E711D8A443
:1024780008D0000EC26F800EC36F0D0EC46F440EDD
:102488000CD0320EE619E711D8A408D0000EC26F9E
:10249800800EC36FA00EC46F430EC56F000E306E62
:1024A800230E2F6E24EC50F0B3EC4AF02CC2D2F07D
:1024B8002DC2D3F02EC2D4F02FC2D5F0000E0001E9
:1024C800CD6F000ECE6F000ECF6F000ED06F030ED3
:1024D80000019B6F080E9A6F770EE82EFED79A2F91
:1024E800FCD79B2FFAD7000E0001D16F2ED0030E18
:1024F800D119D8B428D0D1C09AF0D8909A339A2953
:10250800C66FD151010BC76FC7C0C8F0D5C0C9F09D
:10251800D4C0CAF0D3C0CBF0D2C0CCF0140E2A6E0F
:10252800050E2B6EC80E2C6E2D6AC65133EC26F0A4
:10253800D151020DF3509E0FD96EDA6A2AC0DEFF20
:102548002BC0DDFF04000001D12BEE51020DD1514B
:102558009A6F9B6BF3509A5D9B51800A9C6FF45065
:10256800800A9C59D8A0C3D7030E00019B6F080EA0
:102578009A6F770EE82EFED79A2FFCD79B2FFAD7A3
:10258800000E0001D66FB5D0550E4C6EC10E4D6EC3
:10259800E80E4E6E3E0E4F6ED651020DF3509E0F52
:1025A800D96EDA6ADECF09F0DDCF0AF0000E0ABE76
:1025B800FF0E0B6E0C6E010E30EC2FF009C048F0C8
:1025C8000AC049F00BC04AF00CC04BF0FAEC1AF004
:1025D80048C069F049C06AF04AC06BF04BC06CF063
:1025E8003BEC41F069C096F06AC097F00001D65103
:1025F8008FEC48F07ED0CD0E4C6ECC0E4D6E4C0E4E
:102608004E6E3D0E4F6ED651020DF3509E0FD96E91
:10261800DA6ADECF09F0DDCF0AF0000E0ABEFF0E3F
:102628000B6E0C6E010E30EC2FF009C048F00AC09A
:1026380049F00BC04AF00CC04BF0FAEC1AF048C055
:1026480069F049C06AF04AC06BF04BC06CF03BECD3
:1026580041F069C096F06AC097F00001D6518FEC3E
:1026680048F047D0000E4C6E000E4D6E800E4E6E38
:102678003F0E4F6ED651020DF3509E0FD96EDA6A97
:10268800DECF09F0DDCF0AF0000E0ABEFF0E0B6E9A
:102698000C6E010E30EC2FF009C048F00AC049F06A
:1026A8000BC04AF00CC04BF0FAEC1AF048C069F0C5
:1026B80049C06AF04AC06BF04BC06CF03BEC41F08B
:1026C80069C096F06AC097F00001D6518FEC48F0C7
:1026D80010D0D62BD6059A6F9B6B9B51000AD8A4B5
:1026E800C1D79A51000AD8B44FD7010AD8B483D7B2
:1026F800B9D70001EE51020DD6519A6F9B6BF3507A
:102708009A5D9B51800A9C6FF450800A9C59D8A00E
:10271800E0D7000E1B6E000E1C6E000E1D6E400EE4
:102728001E6E02012C51305D096E2D5131590A6E11
:102738002E5132590B6E2F5133590C6E000E30EC5E
:102748002FF009C017F00AC018F00BC019F00CC020
:102758001AF016EC1EF017C0BEF018C0BFF019C072
:10276800C0F01AC0C1F0CDC030F0CEC031F0CFC03B
:1027780032F0D0C033F0C2C01BF0C3C01CF0C4C0DC
:102788001DF0C5C01EF0BEC017F0BFC018F0C0C015
:1027980019F0C1C01AF016EC1EF017C034F018C0BA
:1027A80035F019C036F01AC037F090EC1CF030C084
:1027B800CDF031C0CEF032C0CFF033C0D0F0CDC0B4
:1027C80061F0CEC062F0CFC063F0D0C064F061ECBD
:1027D80019F061C069F062C06AF063C06BF064C050
:1027E8006CF03BEC41F069C0BAF06AC0BBF06BC05A
:1027F800BCF06CC0BDF0D8900001BA359A6FBB35FB
:102808009B6FBC359C6FBD359D6F02012C5100013B
:102818009A25D26F02012D5100019B21D36F02012D
:102828002E5100019C21D46F02012F5100019D21DE
:10283800D56F959C838C4EEC3FF0230E2A182B10F5
:10284800D8B410D0839C959E838E060E00019A6F93
:10285800300EE82EFED79A2FFCD700F0839E70EC3E
:1028680050F01200839C020130510001D25D020138
:1028780031510001D359020132510001D4590201EA
:1028880033510001D559D8B0120021D6010E356E4A
:10289800860E346E8EEC4FF034043510D8A487D0F1
:1028A800000E0101766F000E756F000E786F000E36
:1028B800776F000E7A6F000E796F000E7B6F7C0EBB
:1028C8000D6E010E0E6E790E0F6EFC0E106E71EC11
:1028D80049F0750E446E010E456E0001ED514EEC47
:1028E80042F0EDC038F0396AF1EC33F0010E336E86
:1028F8009A0E326E000E356E000E346E14EC50F0E7
:10290800010E336E9B0E326E000E356E000E346E65
:1029180014EC50F0010E336E9C0E326E000E356EC4
:10292800000E346E14EC50F0010E336E9D0E326EB4
:10293800000E356E000E346E14EC50F0010E336E3E
:102948009E0E326E7A0E346EFC0E356E1FEC4FF012
:1029580058EC50F0010E336E860E326E000E356E56
:10296800000E346E14EC50F0600EB7EC50F0B3EC7F
:102978004AF0070E336E760E326E450E346EFD0E3B
:10298800356E1FEC4FF0DC0E096E050E0A6E000E58
:102998000B6E000E0C6E00EC4BF0070E336E760ECD
:1029A800326E7A0E346EFC0E356E1FEC4FF0010E4F
:1029B800356E870E346E8EEC4FF034043510D8A483
:1029C80068D0010E356E9A0E346E8EEC4FF034C01E
:1029D80075F135C076F1010E356E9B0E346E8EECB6
:1029E8004FF034C077F135C078F1010E356E9C0E8A
:1029F800346E8EEC4FF034C079F135C07AF1010EA7
:102A0800356E9D0E346E8EEC4FF0345001017B6FA5
:102A1800010E356E9E0E346E7C0E366E010E376ECC
:102A28003EEC50F0750E446E010E456E0001ED51FE
:102A38004EEC42F058EC50F0010E336E870E326EB9
:102A4800000E356E000E346E14EC50F0500EB7ECDC
:102A580050F0B3EC4AF0070E336E760E326EF10E7C
:102A6800346EFC0E356E1FEC4FF0DC0E096E050E51
:102A78000A6E000E0B6E000E0C6E00EC4BF0070E8B
:102A8800336E760E326E7A0E346EFC0E356E1FEC97
:102A98004FF0010E356E880E346E8EEC4FF0340414
:102AA8003510D8A49CD0070E336E760E326EB70E52
:102AB800346EFC0E356E1FEC4FF0750E176E010E5E
:102AC800186E0001ED511CEC3CF0070E336E760ECB
:102AD800326E7B0E346EFC0E356E1FEC4FF0000E1E
:102AE800526E20D052C055F075C156F076C157F0DD
:102AF80077C158F079C159F07BC15AF05B0E0D6E61
:102B08000E6A7C0E0F6E010E106E71EC49F0000E0D
:102B1800656E010E646E550E446E456A525009EC9E
:102B280039F0522AFC0E4B6EFF0E4C6E0001EE512E
:102B38004D6E4E6AD8904D364E364B504D264C5001
:102B48004E2252504F6E506A4D504F5C5050800A82
:102B5800516E4E50800A5158D8A0C4D7070E336E14
:102B6800760E326EE90E346EFA0E356E1FEC4FF0AB
:102B780082EC24F0070E336E760E326E3E0E346E03
:102B8800FC0E356E1FEC4FF0000E536E53509DEC4B
:102B98002BF0532A0E0E5364F9D7000E546E54507E
:102BA80036EC32F0542A090E5464F9D7010E336E0C
:102BB800880E326E000E356E000E346E14EC50F036
:102BC800600EB7EC50F0B3EC4AF0070E336E760E99
:102BD800326E7A0E346EFC0E356E1FEC4FF0010E1D
:102BE800356E890E346E8EEC4FF034043510D8A44F
:102BF8001200010E336E890E326E000E356E000E15
:102C0800346E14EC50F0000E306E2F0E2F6E24EC44
:102C180050F01200000E0101F76FD80E386EFE0E4C
:102C2800396EF0EC39F0920E0D6E010E0E6E00C585
:102C38000FF001C510F071EC49F0C40E0D6E010ED5
:102C48000E6EE40E0F6EFF0E106E71EC49F0C40E9E
:102C5800176E010E186E920E196E010E1A6E32EC76
:102C68004FF0C40E176E010E186EEA0E196EFF0EA5
:102C78001A6E32EC4FF0000E286E000E296E000E10
:102C88002A6E000E2B6EAB0E2D6ECD0E2C6E000E26
:102C9800EFEC3CF00009D8A412D0C40E176E010E58
:102CA800186EDD0E196EFF0E1A6E32EC4FF0010130
:102CB800F72BC40E386E010E396EF0EC39F0010EA8
:102CC8000101F96FFAD0000E0101F86FC40E0D6E04
:102CD800010E0E6E7A0E0F6EFC0E106E71EC49F03E
:102CE800920E0D6E010E0E6E7A0E0F6EFC0E106EA9
:102CF80071EC49F0F9C118F0196A920E1A6E010EBA
:102D08001B6E000E1D6E0A0E1C6E1CEC37F00A0EB0
:102D18000101F9610AD0C40E176E010E186EEE0E8D
:102D2800196EFF0E1A6E32EC4FF0C40E176E010EBC
:102D3800186E920E196E010E1A6E32EC4FF0C40E18
:102D4800176E010E186EE60E196EFF0E1A6E32EC33
:102D58004FF0030E2A6E000E2B6E0E0E2C6E030E15
:102D68002D6E0101F95133EC26F02A500101F66F5E
:102D7800920E0D6E010E0E6EF6511E0D000EF3240E
:102D8800D96E050EF420DA6EDECF0FF0DDCF10F02D
:102D980071EC49F0C40E176E010E186E920E196E82
:102DA800010E1A6E32EC4FF0C40E176E010E186E3B
:102DB800F00E196EFF0E1A6E32EC4FF0920E0D6E79
:102DC800010E0E6E7A0E0F6EFC0E106E71EC49F04D
:102DD800F8C118F0196A920E1A6E010E1B6E000ED9
:102DE8001D6E0A0E1C6E1CEC37F0C40E176E010E19
:102DF800186E920E196E010E1A6E32EC4FF0C40E58
:102E0800176E010E186ECD0E196EFF0E1A6E32EC8B
:102E18004FF0510E0001E619E711D8B425D0020E83
:102E28000101F919D8A403D0F805D8B440D0F8C1E5
:102E38003AF0000E3B6E000E3C6E000E3D6E000E2A
:102E48003E6EAB0E406ECD0E3F6EF951CAEC32F0BD
:102E58000009D8A42CD0C40E386E010E396EF0ECDF
:102E680039F00101F72B23D0020E0101F919D8A47A
:102E780003D0F805D8B41BD0040EF919D8A403D090
:102E8800F805D8B414D0F8C13AF0000E3B6E000E25
:102E98003C6E000E3D6E000E3E6EAB0E406ECD0ECB
:102EA8003F6EF951CAEC32F00009D8B4D4D7010109
:102EB800F82B010EF8650AD7F92BF9510001EE5DE0
:102EC800D8B001D7940E386EFB0E396EF0EC39F09D
:102ED8000101F751D8B432D0C40E0D6E010E0E6E3A
:102EE8005C0E0F6EFE0E106E71EC49F0F7C118F013
:102EF800196A920E1A6E010E1B6E000E1D6E0A0ED6
:102F08001C6E1CEC37F0C40E176E010E186E920E74
:102F1800196E010E1A6E32EC4FF0C40E176E010EC8
:102F2800186EF70E196EFD0E1A6E32EC4FF0C40EC5
:102F3800386E010E396EF0EC39F006D00D0E386E91
:102F4800FD0E396EF0EC39F0120E386EFE0E396E49
:102F5800F0EC39F0710E386EFB0E396EF0EC39F08A
:102F6800A00E096E0F0E0A6E000E0B6E000E0C6E90
:102F78008CEC4AF01200010E356E7E0E346EF8ECC1
:102F88004EF034C069F035C06AF036C06BF037C017
:102F98006CF03BEC41F0010E356E800E346EF8ECAF
:102FA8004EF034C069F035C06AF036C06BF037C0F7
:102FB8006CF03BEC41F0010E2B6E7C0E2A6EB20ECB
:102FC8002C6E2D6A040E2E6E9BEC37F0B4C096F072
:102FD8000001976B986B996B98C099F097C098F01F
:102FE80096C097F0966BB3C09AF09B6B9C6B9D6BE9
:102FF8009BC09DF09AC09CF09B6B9A6BB2C09EF0F0
:103008009F6BA06BA16B9EC0A1F0A06B9F6B9E6B8A
:103018009A519E25A26F9B519F21A36F9C51A0217D
:10302800A46F9D51A121A56F9651A225A66F975116
:10303800A321A76F9851A421A86F9951A521A96F21
:10304800B551A6250101326F000E0001A72101012B
:10305800336F000E0001A8210101346F000E00013A
:10306800A9210101356F010E2B6E7E0E2A6EB20E5C
:103078002C6E2D6A040E2E6E9BEC37F0B4C096F0C1
:103088000001976B986B996B98C099F097C098F06E
:1030980096C097F0966BB3C09AF09B6B9C6B9D6B38
:1030A8009BC09DF09AC09CF09B6B9A6BB2C09EF03F
:1030B8009F6BA06BA16B9EC0A1F0A06B9F6B9E6BDA
:1030C8009A519E25A26F9B519F21A36F9C51A021CD
:1030D800A46F9D51A121A56F9651A225A66F975166
:1030E800A321A76F9851A421A86F9951A521A96F71
:1030F800B551A625AE6F000EA721AF6F000EA8210F
:10310800B06F000EA921B16F010E2B6E800E2A6ED2
:10311800B20E2C6E2D6A040E2E6E9BEC37F0B4C0E6
:1031280096F00001976B986B996B98C099F097C0CF
:1031380098F096C097F0966BB3C09AF09B6B9C6B17
:103148009D6B9BC09DF09AC09CF09B6B9A6BB2C024
:103158009EF09F6BA06BA16B9EC0A1F0A06B9F6BB4
:103168009E6B9A519E25A26F9B519F21A36F9C51E4
:10317800A021A46F9D51A121A56F9651A225A66FEC
:103188009751A321A76F9851A421A86F9951A52100
:10319800A96FB551A625AA6F000EA721AB6F000E27
:1031A800A821AC6F000EA921AD6F01013251331176
:1031B80034113511D8B40DD00001AE51AF11B01192
:1031C800B111D8B406D0AA51AB11AC11AD11D8A425
:1031D80004D0230EB7EC50F01200000E0E6E0B0E4A
:1031E8000D6E7BEC4CF0010132510D1862E1335148
:1031F8000E185FE134510F185CE135511018D8A44E
:1032080058D00001AA51AE1950E1AB51AF194DE1A8
:10321800AC51B0194AE1AD51B119D8A446D0000E4D
:10322800416E0B0E406EAEC042F0AFC043F0B0C06E
:1032380044F0B1C045F05FEC4EF0AEC032F1AFC023
:1032480033F1B0C034F1B1C035F17AEC50F0010E71
:10325800336E7C0E326E000E346E000E356E000E2C
:10326800366E000E376EDAEC4AF0010E336E7E0EC3
:10327800326E000E346E000E356E000E366E000E85
:10328800376EDAEC4AF0010E336E800E326E000EA5
:10329800346E000E356E000E366E000E376EDAECA8
:1032A8004AF0220EB7EC50F01200210EB7EC50F0A5
:1032B8001200200EB7EC50F012002EC18AF02FC178
:1032C8008BF030C18CF031C18DF061C08AF062C0E2
:1032D8008BF063C08CF064C08DF08AC065F08BC041
:1032E80066F08CC067F08DC068F0180E05D0D890D5
:1032F8006832673266326532E82EF9D765500001C8
:10330800846F856B85BF0FD0855104E1960E845D6F
:10331800D8A009D061C061F062C062F063C063F0F8
:1033280064C064F012008AC065F08BC066F08CC07F
:1033380067F08DC068F0200E05D0D89068326732EB
:1033480066326532E82EF9D76550D8B412D061C01C
:1033580009F062C00AF063C00BF064C00CF076ECB0
:103368004EF009C061F00AC062F00BC063F00CC0F7
:1033780064F0000185BF06D085511FE17E0E845D93
:10338800D8B01BD08AC048F08BC049F08CC04AF036
:103398008DC04BF0000E4C6E000E4D6E000E4E6E42
:1033A800000E4F6EFAEC1AF048C061F049C062F0A6
:1033B8004AC063F04BC064F01200000E346E000E79
:1033C800356E000E366E4B0E376E61C030F062C03F
:1033D80031F063C032F064C033F090EC1CF030C0C0
:1033E80086F031C087F032C088F033C089F0000E13
:1033F800346E000E356E000E366ECB0E376E86C0FC
:1034080030F087C031F088C032F089C033F090ECDA
:103418001CF030C080F031C081F032C082F033C07F
:1034280083F080C040F081C041F082C042F083C088
:1034380043F061C044F062C045F063C046F064C028
:1034480047F06FEC4BF040C08EF041C08FF042C0A7
:1034580090F043C091F0000E096E000E0A6E000E47
:103468000B6E3F0E0C6E8EC00DF08FC00EF090C02C
:103478000FF091C010F087EC3CF0D8B02DD061C0AF
:1034880034F062C035F063C036F064C037F08EC0E7
:1034980030F08FC031F090C032F091C033F090EC32
:1034A8001CF030C086F031C087F032C088F033C0DD
:1034B80089F086C030F087C031F088C032F089C00A
:1034C80033F0000E346E000E356E800E366EBF0E71
:1034D800376E90EC1CF053D0000E096E000E0A6E89
:1034E800000E0B6EBF0E0C6E8EC00DF08FC00EF06E
:1034F80090C00FF091C010F087EC3CF0D8A02DD010
:1035080061C034F062C035F063C036F064C037F093
:103518008EC030F08FC031F090C032F091C033F0DF
:1035280090EC1CF030C086F031C087F032C088F0D3
:1035380033C089F086C030F087C031F088C032F0DF
:1035480089C033F0000E346E000E356E800E366E74
:103558003F0E376E90EC1CF012D08EC030F08FC04A
:1035680031F090C032F091C033F061C034F062C0E5
:1035780035F063C036F064C037F090EC1CF030C012
:103588008EF031C08FF032C090F033C091F08AC015
:1035980065F08BC066F08CC067F08DC068F0200EB7
:1035A80005D0D8906832673266326532E82EF9D78E
:1035B8006550D8B412D08EC009F08FC00AF090C000
:1035C8000BF091C00CF076EC4EF009C08EF00AC0FA
:1035D8008FF00BC090F00CC091F08EC061F08FC0DE
:1035E80062F090C063F091C064F012004B50800B01
:1035F800546E4B504B24566E4ABE56805650D8B423
:103608000DD05628D8A408D0000E486E000E496E7A
:10361800000E4A6E000E4B6E4A8E08D0000E486EA1
:10362800000E496E000E4A6E000E4B6E4F50800B16
:10363800541A4F504F24556E4EBE55805550D8B42D
:103648000DD05528D8A408D0000E4C6E000E4D6E33
:10365800000E4E6E000E4F6E4E8E08D0000E4C6E51
:10366800000E4D6E000E4E6E000E4F6E5550D8B4C3
:1036780003D05650D8A409D0000E486E000E496EEB
:10368800000E4A6E000E4B6E12004E504802F3CFE9
:103698005FF0F4CF60F05F50576E586A596A5A6A03
:1036A80060505B6E5C6A5D6A5E6A4D504902F3CF9A
:1036B8005FF0F4CF60F05F505726000E5822592271
:1036C8005A2260505B26000E5C225D225E224C501E
:1036D8004A02F3CF5FF0F4CF60F05F505726000E38
:1036E800582259225A2260505B26000E5C225D2225
:1036F8005E2259C05AF058C059F057C058F0576A5E
:103708004C504902F3CF5FF0F4CF60F05F5057267A
:1037180060505822000E5922000E5A224D5048027D
:10372800F3CF5FF0F4CF60F05F5057266050582217
:10373800000E5922000E5A2259C05AF058C059F0AA
:1037480057C058F0576A4C504802F3CF5FF0F4CF97
:1037580060F05F50572660505822000E5922000E24
:103768005A224E504902F3CF5FF0F4CF60F05F5019
:103778005B2660505C22000E5D22000E5E224D50DA
:103788004A02F3CF5FF0F4CF60F05F505B266050E1
:103798005C22000E5D22000E5E224E504A02F3CFDC
:1037A8005FF0F4CF60F05F50506E6050516E526A17
:1037B800536A52C053F051C052F050C051F0506A91
:1037C80050505B2651505C2252505D2253505E226D
:1037D8005A505B26000E5C225D225E2259C05AF0C8
:1037E80058C059F057C058F0576A555056C050F055
:1037F800516A5026000E5122820E50245F6EFF0E31
:103808005120606E0FD0D8905B365C365D365E36E0
:103818005ABE5B80D8905736583659365A365F06A6
:10382800D8A060065DAEEFD7000E556E5AAE17D021
:10383800FF0E5714506EFF0E5814516EFF0E591498
:10384800526E7F0E5A14536E50505110521053102E
:10385800D8B403D0010E556E02D05BB0FBD75550DB
:10386800D8B41FD0010E5B26000E5C225D225E22BA
:103878005EA017D05BC050F05CC051F05DC052F044
:103888005EC053F05334533252325132503250C02A
:103898005BF051C05CF052C05DF053C05EF05F4A0F
:1038A800602A60BE0DD0605003E15F28D8A008D020
:1038B800000E5B6E000E5C6E800E5D6E7F0E20D07B
:1038C80060BE05D060500EE15F04D8B00BD0000E8A
:1038D8005B6E000E5C6E000E5D6E000E5E6E000E7E
:1038E800546E0FD05FC056F0FF0E5B16FF0E5C16CD
:1038F8007F0E5D16000E5E1656B05D8ED89056305F
:103908005E6E54505E125BC048F05CC049F05DC00A
:103918004AF05EC04BF012003350800B3C6E3350BF
:1039280033243E6E32BE3E803E50D8B40DD03E2881
:10393800D8A408D0000E306E000E316E000E326E24
:10394800000E336E328E06D0000E306E000E316ED1
:10395800000E326E000E336E3750800B3D6E3C50B9
:103968003D18D8A43C8C375037243D6E36BE3D8078
:103978003D50D8B40DD03D28D8A408D0000E346EE0
:10398800000E356E000E366E000E376E368E06D07F
:10399800000E346E000E356E000E366E000E376E59
:1039A8003E503D5CD8B022D03CAC02D0800E3C1AD0
:1039B8003EC03FF03DC03EF03FC03DF030C03FF05C
:1039C80034C030F03FC034F031C03FF035C031F082
:1039D8003FC035F032C03FF036C032F03FC036F05D
:1039E80033C03FF037C033F03FC037F0000E3F6EB2
:1039F8003E503DC038F0396A385E000E395A39BE3B
:103A08002CD0395004E11A0E385CD8A026D030509A
:103A1800311032103310D8B402D0010E01D0000E8C
:103A28003F6E000E306E000E316E000E326E000ECC
:103A3800336E3DC03EF015D03FA005D0D8903F3042
:103A480001093F6E02D0D8903F3230B03F8E3334F8
:103A580033323232313230323E2A3D503E5CD8A0C9
:103A6800EBD73CBC28D03E50D8A409D0000E306E0D
:103A7800000E316E000E326E000E336E120034509E
:103A8800302635503122365032223750332233A077
:103A980071D03FA005D0D8903F3001093F6E02D0C9
:103AA800D8903F3230B03F8E3334333232323132F5
:103AB80030323E2A5FD03450305C35503158365061
:103AC80032583350800A386E3750800A3858D8B088
:103AD80025D03050345C386E31503558396E3250FC
:103AE80036583A6E335037583B6EFF0E3824306ED6
:103AF800FF0E3920316EFF0E3A20326EFF0E3B204A
:103B0800336E800E3C1A3F6C3F50D8A40FD0010E84
:103B18003026000E31223222332208D03450305E53
:103B28003550315A3650325A3750335A3050311096
:103B380032103310D8A41CD03F50D8A419D0000E8E
:103B4800306E000E316E000E326E000E336E1200B3
:103B5800D89030363136323633363FBE30803FA0CB
:103B680002D0D88001D0D8903F363E50D8A43E0627
:103B780032AEEED7000E3D6E3FAE0BD03FC038F0F0
:103B88007F0E3816D8B403D0010E3D6E02D030B087
:103B9800FBD73D50D8B420D0010E3026000E31227C
:103BA8003222332233A018D030C038F031C039F077
:103BB80032C03AF033C03BF03B343B323A32393210
:103BC800383238C030F039C031F03AC032F03BC03A
:103BD80033F03E28D8A43E2A3E28D8B403D03E501D
:103BE800D8A40DD0000E306E000E316E000E326E6D
:103BF800000E336E3E50D8A402D0000E3C6E3EA09C
:103C080002D0328E01D0329ED8903E30336E3CBE08
:103C1800338E30C030F031C031F032C032F033C0B2
:103C280033F012001A50800B276E1A501A242E6E89
:103C380019BE2E802E50D8B40DD02E28D8A408D066
:103C4800000E176E000E186E000E196E000E1A6E1A
:103C5800198E06D0000E176E000E186E000E196E23
:103C6800000E1A6E1E50800B271A1E501E242F6E2F
:103C78001DBE2F802F50D8B40DD02F28D8A408D01F
:103C8800000E1B6E000E1C6E000E1D6E000E1E6ECA
:103C98001D8E06D0000E1B6E000E1C6E000E1D6ED3
:103CA800000E1E6E1B501C101D101E10D8A417D01D
:103CB800000E176E000E186E000E196E000E1A6EAA
:103CC800800E19127F0E1A1227501A1217C017F0F9
:103CD80018C018F019C019F01AC01AF012002E50A6
:103CE800D8A409D0000E176E000E186E000E196EBB
:103CF800000E1A6E12002F502EC01FF0206A1F5E91
:103D0800000E205A7F0E1F24286E000E2020296ED8
:103D180017C023F018C024F019C025F01AC026F0E7
:103D2800000E176E000E186E000E196E000E1A6E39
:103D3800000E2A6E000E2B6E000E2C6E000E2D6EDD
:103D4800000E2F6E28D02F50D8B411D0D89023361B
:103D5800243625362636D8901736183619361A36A8
:103D68002DBE1780D8902A362B362C362D361B5070
:103D7800235C1C5024581D5025581E502658D8A086
:103D880009D02D8C1B50235E1C50245A1D50255AD7
:103D98001E50265A2F2A190E2F64D5D723502410C7
:103DA80025102610D8B411D02A800FD0D8901736F5
:103DB800183619361A362DBE1780D8902A362B3663
:103DC8002C362D362806D8A0290619AEEFD7000EB6
:103DD8002F6E2DAE17D0FF0E2A141F6EFF0E2B1458
:103DE800206EFF0E2C14216E7F0E2D14226E1F5094
:103DF800201021102210D8B403D0010E2F6E02D04B
:103E080017B0FBD72F50D8B41FD0010E1726000EBD
:103E1800182219221A221AA017D017C01FF018C08A
:103E280020F019C021F01AC022F0223422322132A7
:103E380020321F321FC017F020C018F021C019F01F
:103E480022C01AF0284A292A29BE10D0295003E195
:103E58002828D8A00BD0000E296E2868000E176EEF
:103E6800000E186E000E196E000E1A6E29BE05D0CF
:103E7800295011E12804D8B00ED0000E296E000E8A
:103E8800286E000E176E000E186E000E196E000ECA
:103E98001A6E000E276E28C02EF02EA002D0198EA2
:103EA80001D0199ED8902E301A6E0ED72C0E096E9E
:103EB800010E0A6E000E0B6E000E0C6E8CEC4AF0B2
:103EC800070E356EC60E346E0E0E366E030E376E46
:103ED8003EEC50F0580E0D6E030E0E6EB40E0F6EC3
:103EE800FE0E106E71EC49F0580E176E030E186E28
:103EF8000E0E196E030E1A6E32EC4FF0580E386E15
:103F0800030E396EF0EC39F0F40E096E010E0A6EEC
:103F1800000E0B6E000E0C6E8CEC4AF0030E2A6E2F
:103F2800000E2B6E0E0E2C6E030E2D6E3D5033ECD4
:103F380026F0000EEE6F580E0D6E030E0E6E7A0E02
:103F48000F6EFC0E106E71EC49F0580E176E030ED2
:103F5800186EC60E196EFE0E1A6E32EC4FF0580E21
:103F6800176E030E186E0B0E196EFF0E1A6E32ECDA
:103F78004FF0580E386E030E396EF0EC39F0010E22
:103F88003D6E640E096E000E0A6E000E0B6E000E7A
:103F98000C6E8CEC4AF0030E2A6E000E2B6E0E0E81
:103FA8002C6E030E2D6E3D5033EC26F02AC03BF0EC
:103FB8002BC03CF03B2803E13C28D8B465D03BC07B
:103FC8003AF0EE2B580E0D6E030E0E6E7A0E0F6E33
:103FD800FC0E106E71EC49F03DC018F0196A580ECD
:103FE8001A6E030E1B6E000E1D6E0A0E1C6E1CEC64
:103FF80037F0580E176E030E186EE60E196EFF0E88
:104008001A6E32EC4FF0580E176E030E186E3A50B7
:104018001E0D000EF324D96E050EF420DA6EDECFE5
:1040280019F0DDCF1AF032EC4FF0580E176E030E70
:10403800186E790E196EFC0E1A6E32EC4FF00E0ED9
:104048000D6E030E0E6E790E0F6EFC0E106E71EC77
:1040580049F0410E2A6E000E2B6E0E0E2C6E030ECA
:104068002D6E3D5033EC26F0580E176E030E186E69
:104078000E0E196E030E1A6E32EC4FF0580E386E93
:10408800030E396EF0EC39F03D2A0E0E3D6479D7F7
:10409800940E386EFB0E396EF0EC39F0EE51D8A460
:1040A80007D0AE0E386EFD0E396EF0EC39F01DD02B
:1040B800EEC018F0196A580E1A6E030E1B6E000E29
:1040C8001D6E0A0E1C6E1CEC37F0580E176E030E90
:1040D800186EE00E196EFD0E1A6E32EC4FF0580E87
:1040E800386E030E396EF0EC39F0710E386EFB0E37
:1040F800396EF0EC39F0880E096E130E0A6E000E58
:104108000B6E000E0C6E8CEC4AF01200416E4150A2
:104118003A6E3B6AFF0E3C6EFF0E3D6E0001E951A0
:104128003E6E3F6A3C503E263D503F223A503E5C30
:104138003F50800A406E3B50800A4058D8B024D087
:10414800000E356E020E346E8EEC4FF034043510CE
:10415800D8A426D04EEC3FF02A502B10D8B420D04B
:10416800030E306EE80E2F6EFCEC4DF0000E336E31
:10417800020E326E000E356E000E346E14EC50F0E6
:10418800440EB7EC50F012004EEC3FF02A502B10C2
:10419800D8B406D0000E356E020E346E8EEC4FF099
:1041A8004150360DF3CF3AF0F4CF3BF0100E3A26DB
:1041B800000E3B223AC042F03BC043F0000E43BE23
:1041C800FF0E446E456E42C01FF043C020F044C04D
:1041D80021F045C022F001C223F002C224F0000EF3
:1041E800A3EC4EF0020E42240D6E000E43200E6E1C
:1041F800000E44200F6E000E4520106E0D0E116E3D
:10420800020E126E000E90EC35F00C0E42240D6E6C
:10421800000E43200E6E000E44200F6E000E452047
:10422800106E030E116E020E126E000E90EC35F039
:10423800160E42240D6E000E43200E6E000E442012
:104248000F6E000E4520106E210E116E020E126EBA
:10425800000E90EC35F0200E42240D6E000E432027
:104268000E6E000E44200F6E000E4520106E170EC5
:10427800116E020E126E000E90EC35F02A0E4224DA
:104288001F6E000E4320206E000E4420216E000E8B
:104298004520226E2BC223F0000EA0EC4FF02B0E0F
:1042A80042241F6E000E4320206E000E4420216E13
:1042B800000E4520226E2CC223F02DC224F02EC2FF
:1042C80025F02FC226F0000EB0EC4DF02F0E422440
:1042D8001F6E000E4320206E000E4420216E000E3B
:1042E8004520226E30C223F031C224F032C225F0BC
:1042F80033C226F0000EB0EC4DF0330E42241F6E90
:10430800000E4320206E000E4420216E000E452032
:10431800226E34C223F035C224F0000EA3EC4EF016
:10432800350E42241F6E000E4320206E000E4420DE
:10433800216E000E4520226E36C223F0000EA0EC3E
:104348004FF01200000E5F6E000E356EA80E346E30
:104358008EEC4FF034043510D8A41FD0000E336E05
:10436800A80E326E000E356E000E346E14EC50F04E
:104378000001EF51D8B40CD0000E606E60509DEC77
:104388002BF0602A0E0E6064F9D7B3EC4AF005D022
:10439800510EB7EC50F0C3EC4FF0000E356EA70E7F
:1043A800346E8EEC4FF034043510D8A42DD0000EA6
:1043B800336EA70E326E000E356E000E346E14EC9E
:1043C80050F00001EF51D8B41AD0C70E366EFD0E6A
:1043D800376E070E396ED00E386E000E3A6E010E2B
:1043E8003B6E50EC44F0000E616E615007EC35F006
:1043F800612A090E6164F9D7010E5F6E05D0510E6E
:10440800B7EC50F0C3EC4FF0000E356EA60E346ECC
:104418008EEC4FF034043510D8B403D05F50D8B4C4
:104428003DD0000E336EA60E326E000E356E000EB5
:10443800346E14EC50F00001EF51D8B42AD0A00E1D
:10444800366EFE0E376E070E396ED00E386E000EC1
:104458003A6E010E3B6E50EC44F082EC24F0910E63
:10446800366EFF0E376E070E396ED00E386E010E9F
:104478003A6E000E3B6E50EC44F0B3EC4AF0320E4C
:104488000001E619E711D8A409D0500EB7EC50F096
:1044980005D0510EB7EC50F0C3EC4FF0000E356E5E
:1044A800A90E346E8EEC4FF034043510D8A41200E7
:1044B800000E336EA90E326E000E356E000E346E8D
:1044C80014EC50F00001EF51D8B43CD09C0E366E7D
:1044D800FF0E376E070E396ED00E386E000E3A6E2C
:1044E800010E3B6E50EC44F0130E0001F819F9115F
:1044F800D8A402D0000E5E6E150EF819F911D8A4D2
:1045080002D0050E5E6E050E486E5E507DEC39F0E9
:10451800000E626E62509DEC2BF0622A0E0E6264F1
:10452800F9D7B3EC4AF0BB0E366EFF0E376E070EA6
:10453800396ED00E386E010E3A6E000E3B6E50EC9E
:1045480044F01200510EB7EC50F0C3EC4FF01200DB
:10455800436E43503C6E3D6AFF0E3E6EFF0E3F6E4B
:104568000001E951406E416A3E5040263F504122C9
:104578003C50405C4150800A426E3D50800A42588F
:10458800D8A012004350360DF3CF3CF0F4CF3DF0E5
:10459800100E3C26000E3D223CC044F03DC045F0C4
:1045A800000E45BEFF0E466E476E44C01BF045C068
:1045B8001CF046C01DF047C01EF0000E96EC4DF0F2
:1045C8001BC001F21CC002F2020E4424106E000E41
:1045D8004520116E000E4620126E000E4720136E05
:1045E8000D0E146E020E156E000E90EC28F00C0ED7
:1045F8004424106E000E4520116E000E4620126EE7
:10460800000E4720136E030E146E020E156E000E78
:1046180090EC28F0160E4424106E000E4520116E02
:10462800000E4620126E000E4720136E210E146EE7
:10463800020E156E000E90EC28F0200E4424106E29
:10464800000E4520116E000E4620126E000E472007
:10465800136E170E146E020E156E000E90EC28F0F5
:104668002A0E44241B6E000E45201C6E000E4620A8
:104678001D6E000E47201E6E000E7CEC4FF00201EE
:104688002B6F2B0E44241B6E000E45201C6E000E53
:1046980046201D6E000E47201E6E000E99EC41F05C
:1046A8001BC02CF21CC02DF21DC02EF21EC02FF212
:1046B8002F0E44241B6E000E45201C6E000E462053
:1046C8001D6E000E47201E6E000E99EC41F01BC0B7
:1046D80030F21CC031F21DC032F21EC033F2330E6C
:1046E80044241B6E000E45201C6E000E46201D6ED5
:1046F800000E47201E6E000E96EC4DF01BC034F2E3
:104708001CC035F2350E44241B6E000E45201C6E6D
:10471800000E46201D6E000E47201E6E000E7CEC1B
:104728004FF00201366F1200000E336E020E326E29
:10473800000E356E000E346E14EC50F0000E336E21
:10474800030E326E000E356E000E346E14EC50F00F
:10475800000E336E040E326E000E356E000E346E8F
:1047680014EC50F0000E336E050E326E000E356EEE
:10477800000E346E14EC50F00001F399000E0A6E2E
:10478800100E096E2AEC4DF00001F36FF351D8B406
:104798001200FB0E386EFE0E396EF0EC39F08A0E00
:1047A800386EFE0E396EF0EC39F0000E47EC49F029
:1047B8000001F3A116D0F391B10E386EFF0E396ED9
:1047C800F0EC39F0000E336E020E326E000E356ECC
:1047D800010E346E14EC50F0000E0101516F000E02
:1047E800506F510E0001E619E711D8B4F3AF16D097
:1047F800F39FA70E386EFF0E396EF0EC39F0000EFD
:10480800336E130E326E000E356E010E346E14ECDC
:1048180050F0000E01018B6F140E04D0000E010140
:104828008B6F000E8A6F0001F3A516D0F395280E42
:10483800386EFF0E396EF0EC39F0000E336E030E51
:10484800326E000E356E010E346E14EC50F0000E10
:104858000101916F140E04D0000E0101916F000E3A
:10486800906F0001F3A717D0F397F389EA0E386E1B
:10487800FE0E396EF0EC39F0000E336E040E326E17
:10488800000E356E010E346E14EC50F0000E01016E
:104898008F6F140E04D0000E01018F6F000E8E6F03
:1048A8000001F3A316D0F3931A0E386EFF0E396E7B
:1048B800F0EC39F0000E336E050E326E000E356ED8
:1048C800010E346E14EC50F0000E01018D6F140EC1
:1048D80004D0000E01018D6F000E8C6FAC0E096EB6
:1048E8000D0E0A6E000E0B6E000E0C6E8CEC4AF06C
:1048F800000E01013F6F000E3E6F1200040E3F6E66
:104908003FC03AF0D8903A323A28406E3F50010BF7
:10491800416E3F50120DF350EC0F3E6E010E3E24D7
:104928000D6E0E6A000E0E22D4EC4CF00DC03CF059
:104938000EC03DF04150070DF3CF42F03DC043F0AB
:104948003CC044F00A0E2A6E030E2B6E420E2C6EEB
:104958002D6A405033EC26F0070E3B6E170E3A6E68
:104968006A0EE82EFED73A2EFCD73B2EFAD700D097
:104978004150070DF350020F426E030E3E24096E9C
:104988000A6A000E0A222AEC4DF0436E080E2A6EBF
:10499800020E2B6E420E2C6E2D6A405033EC26F020
:1049A800070E3B6E170E3A6E6A0EE82EFED73A2EA9
:1049B800FCD73B2EFAD700D04150070DF350030F18
:1049C800426E040E3E24096E0A6A000E0A222AEC80
:1049D8004DF0436E080E2A6E020E2B6E420E2C6EA0
:1049E8002D6A405033EC26F0070E3B6E170E3A6ED8
:1049F8006A0EE82EFED73A2EFCD73B2EFAD700D007
:104A08004150070DF350040F426E050E3E24096E07
:104A18000A6A000E0A222AEC4DF0436E080E2A6E2E
:104A2800020E2B6E420E2C6E2D6A405033EC26F08F
:104A3800070E3B6E170E3A6E6A0EE82EFED73A2E18
:104A4800FCD73B2EFAD700D0100E3E240D6E0E6A0E
:104A5800000E0E22D4EC4CF00DC03CF00EC03DF020
:104A68004150070DF350050F426E3DC043F03CC066
:104A780044F00A0E2A6E030E2B6E420E2C6E2D6A1F
:104A8800405033EC26F0070E3B6E170E3A6E6A0E56
:104A9800E82EFED73A2EFCD73B2EFAD700D0410499
:104AA800D8A40AD0010E2A6E000E2B6E420E2C6E70
:104AB8002D6A405033EC26F03F2A0E0E3F6420D773
:104AC8001200316E000E326E000E01016B6F050E82
:104AD8006A6F2B5005E1020E2A5CD8B0120001D093
:104AE80012002B5003E12A04D8A002D0080E01D0EE
:104AF800000E326E31C033F0D8903336A00E331228
:104B08003380325033124BEC50F033C02FF0FE0E8E
:104B18002F162F500B6E0C6A8CEC50F029C00BF03E
:104B28000C6A8CEC50F028C00BF00C6A8CEC50F03E
:104B38009BEC50F033C00BF00C6A8CEC50F0000E7C
:104B4800306E79D02B507BE1020E2A5CD8B077D03A
:104B580028C02FF0010E2F267F0E2F16D8A451D073
:104B6800000E0C6E000E0B6EF0EC48F00B502DC0D2
:104B7800D9FF2EC0DAFFDF6EA9EC50F02DC0D9FFA7
:104B88002EC0DAFFDF5092EC4BF0340E2F6EF20E8F
:104B9800E82EFED72F2EFCD7010E2826000E29223C
:104BA8002A222B222B5003E12A04D8A002D0080E77
:104BB80001D0000E326E31C033F0D8903336A00EDB
:104BC80033123380325033124BEC50F033C02FF095
:104BD800FE0E2F162F500B6E0C6A8CEC50F029C06D
:104BE8000BF00C6A8CEC50F028C00BF00C6A8CECC3
:104BF80050F09BEC50F033C00BF00C6A8CEC50F08A
:104C080019D0000E0C6E010E0B6EF0EC48F00B5034
:104C18002DC0D9FF2EC0DAFFDF6E2DC0D9FF2EC000
:104C2800DAFFDF5092EC4BF0010E2826000E292205
:104C38002A222B22302A2C50305CD8A083D7000E91
:104C48000C6E000E0B6EF0EC48F0A9EC50F0070E5D
:104C58002F6EC00EE82EFED72F2EFCD71200326E14
:104C680033683468000E356E0F0E2A18D8B410D089
:104C78000D0E2A18D8B40CD0180E2A18D8B408D09B
:104C8800160E2A18D8B404D0410E2A18D8A40AD06F
:104C9800010E356E20EE05F02C50D9262D50DA2263
:104CA800DF50386EAA0E296EBB0E286EB0EC50F09D
:104CB800000E92EC4BF0325092EC4BF02A5092ECF2
:104CC8004BF02B5092EC4BF0000E396E0AD0395055
:104CD8002C24D96E000E2D20DA6EDF5092EC4BF0AA
:104CE800392A2B50395CD8A0F2D7D50EE82EFED73A
:104CF80000F00001F591000E376E000E366EE40EDE
:104D080000D000D0E82EFCD700D000D00001F5A1DB
:104D18003BD0150E2E6EC60EE82EFED72E2EFCD7D3
:104D280000D03550D8B405D025EEB9F038C0DFFF33
:104D380003D0020EE8CFB9F5000E396E0FD0BA0EC7
:104D48003924D96EDA6A050EDA2239502C24E16E3C
:104D5800000E2D20E26EDFCFE7FF392A25EEB9F0ED
:104D6800DE50395CD8A0EBD7BBC52EF02E50BAC5A3
:104D78002FF02FC030F0316A30C031F0306A301077
:104D8800336E3150346E0AD0364A372A37BEB7D719
:104D9800900E365C010E3758D8A0B1D70001F5B196
:104DA80025D0020EE8CFB9F5FF0EE8CFBAF5FF0E11
:104DB800E8CFBBF5336834683550D8B417D025EE42
:104DC800B9F038C0DFFF000E396E09D0BA0E3924A9
:104DD800D96EDA6A050EDA22FF0EDF6E392A3950EB
:104DE80038BE04D0FF0A3824D8B0F0D70001F591B6
:104DF80033C02AF034C02BF012002C6E000E2D6E3A
:104E08002D50110D000EF324156E040EF420166EAD
:104E18002D5062EC3AF02D2A090E2D64F1D7000EC0
:104E2800326EA00E286E020E296E2C50A00DF3CF04
:104E38002AF0F4CF2BF03250100DF3502A26F450FC
:104E48002B2228502A2629502B222AC02EF02BC08C
:104E58002FF0000E2FBEFF0E306E316E2EC01FF0E9
:104E68002FC020F030C021F031C022F03250110D97
:104E7800010EF324D96E040EF420DA6EDECF23F08F
:104E8800DDCF24F0000EA3EC4EF0020E2E241F6E90
:104E9800000E2F20206E000E3020216E000E3120D3
:104EA800226E3250110D030EF324D96E040EF42035
:104EB800DA6EDF50236E000EA0EC4FF0030E2E24A6
:104EC8001F6E000E2F20206E000E3020216E000E67
:104ED8003120226E3250110D040EF324D96E040EC7
:104EE800F420DA6EDF50236E000EA0EC4FF0040EB3
:104EF8002E241F6E000E2F20206E000E3020216EF3
:104F0800000E3120226E3250110D050EF324D96E99
:104F1800040EF420DA6EDF50236E000EA0EC4FF082
:104F2800050E2E240D6E000E2F200E6E000E302062
:104F38000F6E000E3120106E3250110D060EF32444
:104F4800116E040EF420126E000E90EC35F00F0E68
:104F58002E241F6E000E2F20206E000E3020216E92
:104F6800000E3120226E3250110D0F0EF324D96E2F
:104F7800040EF420DA6EDF50236E000EA0EC4FF022
:104F8800322A090E32644DD71200000E2B6EB30E72
:104F98002A6E860E2C6E010E2D6E040E2E6E9BEC64
:104FA80037F088C140F0416A426A436A42C043F020
:104FB80041C042F040C041F0406A87C144F0456AB0
:104FC800466A476A45C047F044C046F0456A446AA5
:104FD80086C148F0496A4A6A4B6A48C04BF04A6A37
:104FE800496A486A445048244C6E455049204D6EE1
:104FF80046504A204E6E47504B204F6E40504C242E
:10500800506E41504D20516E42504E20526E4350CA
:105018004F20536E010189515024546E000E5120C7
:10502800556E000E5220566E000E5320576E545087
:10503800551056105710D8B41200325154186BE15D
:105048003351551868E13451561865E135515718F0
:10505800D8A41200000E336EB30E326E000E346EFA
:10506800000E356E000E366E000E376EDAEC4AF022
:10507800000E356EB20E346E8EEC4FF034043510DF
:10508800D8A41DD0000E756E000E0001EF6F01014F
:1050980054695569000E336EB20E326E000E356ECD
:1050A800000E346E14EC50F0000E336E9A0E326E11
:1050B800000E356E000E346E14EC50F028D0000E41
:1050C800356EB20E346E8EEC4FF034503510D8A4D5
:1050D8001ED0010E756E010E0001EF6F000E01016A
:1050E800556F0A0E546F000E336EB20E326E000EFC
:1050F800356E010E346E14EC50F0000E336E9A0EBD
:10510800326E000E356E010E346E14EC50F07AECEF
:1051180050F0B3EC4AF01200186E000E196E1350DE
:1051280005E1020E125CD8B0120001D01200135033
:1051380003E11204D8A002D0080E01D0000E196EA7
:1051480018C01AF0D8901A36A00E1A121A801950E0
:105158001A124BEC50F01AC016F0FE0E1616165026
:105168000B6E0C6A8CEC50F011C00BF00C6A8CECD6
:1051780050F010C00BF00C6A8CEC50F09BEC50F027
:105188001AC00BF00C6A8CEC50F0000E176E13501E
:1051980079E1020E125CD8B075D010C016F0010E7D
:1051A80016267F0E1616D8A44CD0000E0C6E000ED4
:1051B8000B6EF0EC48F00B5014C0D9FF15C0DAFFA5
:1051C800DF6EA9EC50F0340E166EF20EE82EFED704
:1051D800162EFCD7010E1026000E112212221322C1
:1051E800144A152A135003E11204D8A002D0080E5D
:1051F80001D0000E196E18C01AF0D8901A36A00EF9
:105208001A121A8019501A124BEC50F01AC016F0E4
:10521800FE0E161616500B6E0C6A8CEC50F011C070
:105228000BF00C6A8CEC50F010C00BF00C6A8CEC94
:1052380050F09BEC50F01AC00BF00C6A8CEC50F05C
:105248001BD0000E0C6E010E0B6EF0EC48F00B50EC
:1052580014C0D9FF15C0DAFFDF6E14C0D9FF15C01E
:10526800DAFFDF50D8B40ED0144A152A010E1026E2
:10527800000E112212221322172A1704166E3F0E4F
:10528800166485D7000E0C6E000E0B6EF0EC48F01D
:10529800A9EC50F0070E166EC00EE82EFED7162E9B
:1052A800FCD712005A0E296EA50E286EB0EC50F0ED
:1052B800030E92EC4BF0810E92EC4BF0200E92EC28
:1052C8004BF0070E92EC4BF09C0E2C6ED70EE82E8E
:1052D800FED72C2EFCD700F03CEC4CF00009D8B4DB
:1052E80016D0000E4A6E4A50060F2C6E2D6AB40E68
:1052F8002C24D96E050E2D20DA6E4A502E0FE16E41
:10530800E26ADFCFE7FF4A2A090E4A64ECD7380E73
:10531800096E2E502EEC4EF03B0E096E2F502EECDF
:105328004EF03E0E096E30502EEC4EF02AC00DF0B5
:105338000E6A7A0E0F6EFC0E106E71EC49F02AC0E0
:1053480017F0186A3E0E196E1A6A32EC4FF02AC02E
:1053580017F0186AFD0E196EFF0E1A6E32EC4FF038
:105368002AC017F0186A3B0E196E1A6A32EC4FF011
:105378002AC017F0186AFD0E196EFF0E1A6E32EC6D
:105388004FF02AC017F0186A380E196E1A6A32ECF4
:105398004FF0410E096E32502EEC4EF0440E096E5D
:1053A80033502EEC4EF0470E096E34502EEC4EF072
:1053B8002BC00DF00E6A7A0E0F6EFC0E106E71EC9B
:1053C80049F02BC017F0186A410E196E1A6A32ECB0
:1053D8004FF02BC017F0186AF30E196EFF0E1A6EF5
:1053E80032EC4FF02BC017F0186A440E196E1A6A87
:1053F80032EC4FF02BC017F0186AF30E196EFF0E3F
:105408001A6E32EC4FF02BC017F0186A470E196E5F
:105418001A6A32EC4FF0010E096E000E0A6E000E89
:105428000B6E000E0C6E00EC4BF012001C6E000EA2
:1054380001016B6F050E6A6F105005E1020E0F5CDB
:10544800D8B0120001D01200105003E10F04D8A008
:1054580002D0080E01D0000E1D6E1CC01EF0D890A0
:105468001E36A00E1E121D501E124BEC50F01EC010
:105478000BF00C6A8CEC50F00EC00BF00C6A8CEC44
:1054880050F00DC00BF00C6A8CEC50F0000E1B6E47
:1054980063D0105005E1020E0F5CD8B0120001D0A5
:1054A80012000DC014F0010E14267F0E1416D8A495
:1054B8003FD012C0D9FF13C0DAFFDF50146E14506A
:1054C8000B6E0C6A8CEC50F0A9EC50F0340E146E94
:1054D800F20EE82EFED7142EFCD7010E0D26000E74
:1054E8000E220F221022124A132A105003E10F0431
:1054F800D8A002D0080E01D0000E1D6E1CC01EF0F0
:10550800D8901E36A00E1E121D501E124BEC50F0E5
:105518001EC00BF00C6A8CEC50F00EC00BF00C6A3D
:105528008CEC50F00DC00BF00C6A8CEC50F013D0E2
:1055380012C0D9FF13C0DAFFDF50146E14500B6E7F
:105548000C6A8CEC50F0124A132A010E0D26000E3C
:105558000E220F2210221B2AFF0E146EFF0E156E4C
:105568001150166E176A14501626155017221B5024
:10557800186E196A1650185C1950800A1A6E17505E
:10558800800A1A58D8A085D712C0D9FF13C0DAFFED
:10559800DF50146E14500B6E0C6A8CEC50F0A9ECB2
:1055A80050F0340E146EF20EE82EFED7142EFCD7EF
:1055B8001200186E000E196E000E01016B6F050EB9
:1055C8006A6F135005E1020E125CD8B0120001D0C8
:1055D8001200135003E11204D8A002D0080E01D023
:1055E800000E196E18C01AF0D8901A36A00E1A12AA
:1055F8001A8019501A124BEC50F01AC016F0FE0E11
:10560800161616500B6E0C6A8CEC50F011C00BF08D
:105618000C6A8CEC50F010C00BF00C6A8CEC50F05B
:105628009BEC50F01AC00BF00C6A8CEC50F0000E9A
:10563800176E6BD013506DE1020E125CD8B069D0B2
:1056480010C016F0010E16267F0E1616D8A44AD0E2
:105658001550D96EDA6A000E0C6E000E0B6EF0EC67
:1056680048F00B50DF6EA9EC50F0340E166EF20EB7
:10567800E82EFED7162EFCD7010E1026000E11229A
:1056880012221322152A135003E11204D8A002D0C3
:10569800080E01D0000E196E18C01AF0D8901A36EC
:1056A800A00E1A121A8019501A124BEC50F01AC098
:1056B80016F0FE0E161616500B6E0C6A8CEC50F097
:1056C80011C00BF00C6A8CEC50F010C00BF00C6A97
:1056D8008CEC50F09BEC50F01AC00BF00C6A8CEC80
:1056E80050F012D01550D96EDA6A000E0C6E010E09
:1056F8000B6EF0EC48F00B50DF6E152A010E1026E9
:10570800000E112212221322172A1450175CD8A057
:1057180091D7000E0C6E000E0B6EF0EC48F0A9EC61
:1057280050F0070E166EC00EE82EFED7162EFCD7C8
:105738001200406E4050010B3C6E3CC03AF04050A5
:105748000C0DF3CF38F0F4CF39F0E60E38243D6E67
:10575800000E39203E6E030E40641200040E405EB7
:105768004050120DF350340F3F6E4050010B3C6E09
:105778003CC03AF040500C0DF3CF38F0F4CF39F07C
:10578800E60E38243D6E000E39203E6E3DC032F0E4
:105798003EC033F03FC009F00A6A2AEC4DF0386E7B
:1057A800010E3824346E356A000E352214EC50F0A0
:1057B800020E3D24326E000E3E20336E010E3F2451
:1057C8000D6E0E6A000E0E22D4EC4CF00DC034F0B3
:1057D8000EC035F014EC50F0030E3D24326E000E6E
:1057E8003E20336E030E3F24096E0A6A000E0A2219
:1057F8002AEC4DF0386E3850346E356A14EC50F09F
:10580800040E3D24326E000E3E20336E040E3F24FB
:10581800096E0A6A000E0A222AEC4DF0386E3850DA
:10582800346E356A14EC50F0050E3D24326E000ECD
:105838003E20336E050E3F24096E0A6A000E0A22C6
:105848002AEC4DF0386E3850346E356A14EC50F04E
:10585800060E3F240D6E0E6A000E0E22580E0F6EB5
:10586800030E106E61EC4DF0060E3D24326E000EF4
:105878003E20336E580E346E030E356E1FEC4FF01B
:105888000B0E3D24326E000E3E20336E100E3F2468
:105898000D6E0E6A000E0E22D4EC4CF00DC034F0E2
:1058A8000EC035F014EC50F01200000E0E6EFA0E19
:1058B8000D6ED4EC4CF00DC0E6F00EC0E7F0000E13
:1058C800336ED60E326EE6C034F0E7C035F014EC15
:1058D80050F0320E0001E619E711D8A42AD0F80ECC
:1058E8000101016F000E006F050E036FA00E026F1D
:1058F800000E056F1F0E046F000E076F000E066F77
:10590800D50E096F400E086FF80E0B6F1F0E0A6F49
:10591800FB0E0D6FE00E0C6F0E690F6910691169AF
:10592800126913691469156916691769186919697B
:105938001200500EE619E711D8A436D0000E010166
:10594800016F000E006F390E036FE70E026F6B0ECA
:10595800056F6D0E046F780E076F000E066F9A0EB6
:10596800096F230E086FF80E0B6F000E0A6FFB0EFF
:105978000D6FE00E0C6FFB0E0F6FF70E0E6FD50E4E
:10598800116F400E106F030E136FE00E126F050EAD
:10599800156FA00E146F000E176F1F0E166FF80EFE
:1059A800196F1F0E186F1200510EE619E711D8A4CF
:1059B8001AD0FB0E0101016FF70E006F050E036F81
:1059C800A00E026F000E056F1F0E046FF80E076F12
:1059D800000E066F000E096F000E086F0A690B694A
:1059E8000C690D6999D701010069016902690369A8
:1059F8000469056906690769086909690A690B691B
:105A08000C690D690E690F691069116912691369CA
:105A18001469156916691769186919691200000E61
:105A2800356E050E346E8EEC4FF034043510D8A464
:105A38004ED00001F3B34BD0000E396E050E386E10
:105A4800010E3A6E1FEC3EF00009D8A404D0460EB1
:105A5800B7EC50F0120001014451715C7250800A99
:105A68000001B16F01014551800A0001B159D8B058
:105A780024D0010142514C5D4D51800A0001B16FA3
:105A880001014351800A0001B159D8B016D0000E67
:105A9800A96F050EA86F8C0EAA6F010EAB6FDA0EF8
:105AA800AC6FFB0EAD6F7CEC34F00009D8B412007B
:105AB800F383010EF3EC47F01200F393000EF3ECBE
:105AC80047F0000E01018D6F000E8C6F1200000E62
:105AD800356E050E346E8EEC4FF034503510D8A468
:105AE80018D00001F3A315D0000E396E050E386EDC
