:040000004EEF01F0CE
:100018007780D8CF04F0E8CF05F0E0CF06F0D9CF4D
:1000280007F0DACF08F09EAA54D0959C838C010E75
:100038000101806F900E7F6F000E706E000E6F6E64
:10004800A9690001F581B40E01017D6F050E7E6F6F
:100058009598838827D09EAA22D0839883887DC1CB
:10006800D9FF7EC1DAFFAECFDFFF70BE06D0090E22
:100078006F5C010E7058D8B004D06F4A702A7D4B5F
:100088007E2BB8C5E8FF180AD8A404D01F0E806FCD
:10009800400E03D0010E806F900E7F6F03D07F0754
:1000A800D8A080077F518011D8A4D5D78398ABA258
:1000B80010D0AB98AB88AECF7FF1806BAECF7FF11D
:1000C800806BAECF7FF1806B000EE8CFB4F50001F6
:1000D800F5839EA0B1D09E903C0ECF6EB40ECE6E2E
:1000E800010E716E0001F2B102D0000E716E000EA9
:1000F800706E010E6F6E0DD0510E6F24D96E010E09
:100108007020DA6EDF50D8A402D0000E716E6F4AEC
:10011800702A7450016E026A6F50015C0250800AA6
:10012800036E7050800A0358D8B0E6D77104D8A47B
:100138001AD004000001F291000E706E010E6F6E6D
:1001480070BE06D070500FE10F0E6F5CD8B00BD0A8
:10015800510E6F24D96E010E7020DA6E000EDF6E1C
:100168006F4A702AEDD7F50E01016E5D010E6F59C9
:10017800D8A002D0819E01D0818EA351A411D8B4F9
:1001880005D0320EA35F000EA45B06D0E7C0A3F132
:10019800E8C0A4F10001F58D320E01019527000E8B
:1001A8009623320EA527000EA6237550D8B494BF07
:1001B80004D0CE0E9327FF0E9423320E9127000E03
:1001C8009223320E6E27000E6F23E80E6E5D030E2B
:1001D8006F59D8A031D00001F3A912D0F12B3B0EF2
:1001E800F1650ED0000EF16FF02B3B0EF06508D0D4
:1001F800000EF06FEF2B630EEF6502D0000EEF6F6D
:10020800000E01016F6F000E6E6F702B7350D8A433
:1002180073063B0E706510D0000E706F712BA14BEA
:10022800A22B3B0E716508D0000E716F722B170E52
:10023800726502D0000E726FF2B2F292F2A41ED072
:100248000D0EE82EFED700F0000ED76EE10ED66E2A
:10025800F29401019B519C11D8B405D09B07D8A0FA
:100268009C07818C01D0819CA751A811D8B405D0D6
:10027800A707D8A0A807818A01D0819A08C0DAFF09
:1002880007C0D9FF06C0E0FF05C0E8FF04C0D8FFDB
:10029800779010002FEF3AF0640E096E000E0A6E88
:1002A800000E0B6E000E0C6EB0EC46F0D388D38AAD
:1002B800D38CD390D3929B8CEF0E926E010E936EDB
:1002C800F00E946EE30E956E9668D59AD596D58203
:1002D800D582D584F194F28AF290F2989E909F90FC
:1002E8000B0ECF6EBA0ECE6ECD92CD88CD8ACD8C48
:1002F800CD869D80CD80F28CF28E000E166EC20ED9
:10030800176E010E186E000E196EE0EC43F08EECBD
:100318004CF0A00E0001966F860E976F010E986F35
:10032800000E996FC9EC3FF0F40E096E010E0A6ECB
:10033800000E0B6E000E0C6EB0EC46F0000E0101C4
:10034800986F000E976F819E000E9C6F000E9B6F3A
:10035800819C000EA86F000EA76F819A000E0E6E8A
:10036800FA0E0D6EB3EC48F00DC0E1F00EC0E2F0ED
:10037800320E0001E119E211D8A402D0090E0DD005
:10038800500EE119E211D8A402D00C0E06D0510E7D
:10039800E119E211D8A402D0080EE96FF49778ECBD
:1003A80048F0000E186E000E176E03EC4CF02C0E81
:1003B800096E010E0A6E000E0B6E000E0C6EB0EC8C
:1003C80046F0D50E206EFB0E216E89EC38F02C0E0F
:1003D800096E010E0A6E000E0B6E000E0C6EB0EC6C
:1003E80046F06F0E206EFE0E216E89EC38F0000E7E
:1003F8000E6E220E0D6EB3EC48F00DC0F0F10EC07B
:10040800F1F10101F0290DE1F129D8A40AD0000E7B
:10041800296E220E286E000E2B6E000E2A6EEBEC53
:100428004AF0000E0A6E340E096E09EC49F0FF0A14
:10043800D8A47FD0290E206EFC0E216E89EC38F0EE
:10044800F10E206EFD0E216E89EC38F00A0E306E2A
:10045800000E5CEC36F06FEC47F0BFEC45F080EC3A
:1004680044F0000E756E000E0001EE6F66EC4CF065
:10047800000E236E100E226E000E246EE4EC44F083
:10048800000E296E090E286E000E2B6E0A0E2A6EBB
:10049800EBEC4AF0000E296E0B0E286E400E2A6E09
:1004A800E20E2B6E010E2C6E000E2D6E3EEC4AF005
:1004B800000ECBEC0CF0000E236E110E226E000E17
:1004C800246EE4EC44F0000E236E120E226E000E31
:1004D800246EE4EC44F03FEC37F0000E1F6E000E83
:1004E800206E000E216E000E226E000E246E000E8D
:1004F800236E000E82EC4AF0020E1F6E000E206E74
:10050800000E216E000E226E000E236E000E246E69
:10051800000E256E000E266E000E8FEC49F0000EC0
:10052800296EFA0E286E000E2B6E320E2A6EEBEC38
:100538004AF028EC3CF0010ECBEC0CF0000E0E6EED
:100548000B0E0D6E5AEC48F00DC077F10EC078F125
:100558000FC079F110C07AF1A6EC42F0030E206EBC
:10056800FC0E216E89EC38F08CEC3CF0C2EC49F0C2
:10057800560E206EFE0E216E89EC38F0020E1B6EB0
:10058800000E1C6E000E1D6E000E1E6E000E07EC97
:100598003EF01BC0DBF01CC0DCF01DC0DDF01EC04F
:1005A800DEF0660E206EFD0E216E89EC38F0000E2E
:1005B8000101F46F0E0EF46501D008D004000101AA
:1005C800F45131EC29F00101F42BF4D7000EF56F4A
:1005D800070EF56501D009D00400F5C121F0226AA3
:1005E800D3EC30F00101F52BF3D7000E0E6E0B0E95
:1005F8000D6E5AEC48F00DC077F10EC078F10FC0BF
:1006080079F110C07AF1A6EC42F098EC11F08CEC7C
:100618003CF0C2EC49F073EC40F029EC43F0000EDA
:100628000001F96F000EF86F000E0101FC6F000E5B
:10063800FB6F000EAF6F000E966F000E956F000EE9
:10064800AD6F000E8C6F000E8B6F000E8A6F000E60
:10065800896F000E0001E66F000EE56F000E0101C4
:100668008E6F000E8D6F000EAE6F000E3BEC48F0E3
:10067800000E01016F6F000E6E6F000E706F000E9E
:100688000001F16FF3C0ABF1000E736EEDEC3CF0BE
:10069800000E1C6E400E1B6E000E1E6E000E1D6EB0
:1006A800F3EC4BF00001F49F769076927694769670
:1006B800000E1C6E010E1B6E000E1E6E000E1D6ECF
:1006C800F3EC4BF00001F593B00E206EFC0E216E9A
:1006D80089EC38F0EDEC48F0FFEC1CF031EC21F03F
:1006E800C40E096E090E0A6E000E0B6E000E0C6E1B
:1006F800B0EC46F0000E186E0F0E176E03EC4CF0BF
:100708000001F281F487E90E0101955D030E965907
:10071800D8A019D0000E966F000E956FC3EC3BF071
:1007280012C0F8F013C0F9F00101FB510001F819EB
:1007380006E10101FC510001F919D8B404D0F8C050
:10074800FBF1F9C0FCF10001F487050E01017061AD
:1007580009D0190E0001F819F911D8B403D0000E08
:100768003BEC48F00001F3B970EC3FF073EC40F05B
:1007780029EC43F00001F497A7EC2AF05DEC25F092
:1007880098EC11F0E3EC2DF0510E0001E119E211A3
:10079800D8B41FEC40F040EC30F057EC2BF005ECEF
:1007A8002CF0000E1D6E640E1C6E6DEC4BF01C04DC
:1007B8001D10D8B4AAEC3DF00001F5A344D0000EFA
:1007C8000101A86FC80EA76F3ED0420EA3EC4CF0F3
:1007D800000E1C6E160E1B6E000E1E6E000E1D6E99
:1007E800F3EC4BF0020E0101AE6F3DD0000E1D6E12
:1007F800060E1C6E6DEC4BF0F00E1C181D10D8A4E4
:100808000DD0000E6BEC45F0000E0001EF6F000EEE
:10081800F06F000E0101AE6F70EC3FF0000E1D6E20
:10082800060E1C6E6DEC4BF0FA0E1C181D10D8A4A9
:100838001AD0000E0101AE6F3A0E186E980E176EA0
:10084800DBEC49F010D00101AE510001D76FD86B35
:10085800D851000AD8A407D0D751010AD8B4B5D7BF
:10086800030AD8B4C3D70001F48791EC4BF0000118
:10087800F4AF4AEC47F0F497F487ECEF08F0000E79
:100888000101F76F090EF76501D033D0070EF72580
:100898001C6E1D6A000E1D226DEC4BF01C041D1011
:1008A800D8A424D0070E0101F7251B6E1C6A000E80
:1008B8001C22000E1E6E000E1D6EF3EC4BF0F7C1ED
:1008C800ECF0050E0001EC6109D0130EEB6F000E81
:1008D800186E1B0E176E03EC4CF008D0150EEB6F5C
:1008E800000E186E1C0E176E03EC4CF00101F72B6E
:1008F800C9D73FEC1FF027EF09F0000E1D6E010E5F
:100908001C6E6DEC4BF01C041D10D8A427EF09F0E9
:10091800000E1C6E010E1B6E000E1E6E000E1D6E6C
:10092800F3EC4BF06FEC35F027EF09F00101AF5114
:10093800D8A405D0010E3BEC48F00101AF2B000E06
:100948001D6E980E1C6E6DEC4BF01C041D10D8A487
:100958000DD0000E1C6E980E1B6E000E1E6E000E43
:100968001D6EF3EC4BF0010E3BEC48F0000E1D6ED3
:10097800AE0E1C6E6DEC4BF01C041D10D8A427EFB6
:1009880009F0000E1C6EAE0E1B6E000E1E6E000EE1
:100998001D6EF3EC4BF039EC46F027EF09F0000E32
:1009A800ED6F070EED6501D02FD0200EED251C6EE2
:1009B8001D6A000E1D226DEC4BF01C041D10D8A4FE
:1009C80020D0200E0001ED251B6E1C6A000E1C2293
:1009D800000E1E6E000E1D6EF3EC4BF0EBC017F010
:1009E800186A03EC4CF0CE0E176E010E186E00015B
:1009F800ED51F6EC38F0010E216E0001EC51F9ECE6
:100A08003AF00001ED2BCDD7000E1D6E110E1C6EB5
:100A18006DEC4BF01C041D10D8A40FD0000E1C6EFA
:100A2800110E1B6E000E1E6E000E1D6EF3EC4BF0C9
:100A3800EBC017F0186A03EC4CF0000E1D6E120E96
:100A48001C6E6DEC4BF01C041D10D8A4FCD3000EDA
:100A58001C6E120E1B6E000E1E6E000E1D6EF3EC49
:100A68004BF0000E0101D46FD50E0D6E010E0E6E07
:100A78000B0E0F6EFD0E106E95EC45F0000E010189
:100A8800D36F000ED26F000ED16F000ED06F000E24
:100A9800CF6F000ECE6F000E216E0001EC51F9EC05
:100AA8003AF0EBC017F0186A03EC4CF0CCD3000E08
:100AB8000101F66F38D0F6511E0DF3CFD7F0F4CF01
:100AC800D8F0170E0001D7251C6E100ED8211D6E08
:100AD8006DEC4BF01C041D10D8A423D00101F65175
:100AE8001E0DF3CFD7F0F4CFD8F0170E0001D7259D
:100AF8001B6E100ED8211C6E000E1E6E000E1D6E91
:100B0800F3EC4BF00101F65145EC20F0000E186EA5
:100B1800230E176E03EC4CF05CEC4CF085EC0FF0F8
:100B280008D00101F62B0001E9510101F65DD8A0BA
:100B3800C2D7000E1D6E300E1C6E6DEC4BF01C04FF
:100B48001D10D8A40CD0000E1C6E300E1B6E000EAB
:100B58001E6E000E1D6EF3EC4BF03FEC37F0EDEC23
:100B68003CF0000E1D6EAF0E1C6E6DEC4BF01C04BD
:100B78001D10D8A468D3000E1C6EAF0E1B6E000E9D
:100B88001E6E000E1D6EF3EC4BF0B6EC47F05BD317
:100B9800100E010177190001D76F2F0E0101781986
:100BA8000001D86FBA0E010179190001D96FE40E5E
:100BB80001017A190001DA6FD71D0101EC6F0001FC
:100BC800D81D0101ED6F0001D91D0101EE6F000173
:100BD800DA1D0101EF6FECC116F0EDC117F0EEC19F
:100BE80018F0EFC119F0A50E1A6E020E1B6E000E5A
:100BF8001D6E100E1C6EF6EC34F0060E1B6E7C0E8D
:100C08001A6EA50E1C6E020E1D6EFEEC4AF0F40E56
:100C1800096E010E0A6E000E0B6E000E0C6E40EC93
:100C280045F0010E1D6E820E1C6E6DEC4BF01C041F
:100C38001D10D8A408D3010E1C6E820E1B6E000E68
:100C48001E6E000E1D6EF3EC4BF064EC15F0FBD23B
:100C5800F487F4BFF3A70CD0F3A10AD0470EA3EC96
:100C68004CF0000E186E0F0E176E03EC4CF0EBD222
:100C7800030EF76F100EF66FF7BF06D01D0EF65D68
:100C8800030EF759D8B077D2F651F00FEA6FF6C0D5
:100C98001CF0F7C01DF06DEC4BF00E0E1C181D106B
:100CA800D8A489D10001EE51D8B476D1320EE11919
:100CB800E211D8A403D0EAC0DFF0E06B500EE119CE
:100CC800E211D8A406D089EC46F0D76FD751DF6F70
:100CD800E06BE0BF06D0E05103E1080EDF5DD8B05D
:100CE80020D1100EEA251B6E1C6A030E1C22010E71
:100CF800EA251D6E1E6A000E1E22F3EC4BF0DFC0C3
:100D080015F0E0C016F0000E186E0A0E176E24ECEF
:100D18004BF0FD0E15241B6E060E16201C6E010EE0
:100D2800DFC0D7F0E0C0D8F0D7C0D8F00001D76B4B
:100D3800D7111D6ED8511E6EF3EC4BF0DFC015F0C5
:100D4800E0C016F0000E186E0A0E176E24EC4BF079
:100D5800FB0E15241B6E060E16201C6E0001EA51B0
:100D6800020D370EF324D96E010EF420DA6EDECFB1
:100D78001DF0DDCF1EF0F3EC4BF05A0E0001DF251D
:100D8800D96E020EE021DA6EDFC0DFFF690EDF25C3
:100D9800D96E020EE021DA6EEA29DF6E780EEA25B6
:100DA800D96EDA6A020EDA22EA29DF6EEA51020DFA
:100DB800370EF324D96E010EF420DA6ED890DF35A1
:100DC800E16EE035E26E870EE126020EE222DECF0A
:100DD800E6FFDDCFE5FF000ED76F020ED86F1E0EBF
:100DE800D727000ED823D890DF35D96EE035DA6ED4
:100DF800D890D936DA36D751D926D851DA22000E0A
:100E0800DE6E000EDE6E800EDE6E3F0EDD6E020EB2
:100E1800EA6508D0010EEA250101F26FF36B000EB6
:100E2800F32304D0EAC0F2F10101F36BF2C1D7F069
:100E3800F3C1D8F0D8900001D737D837B00ED96FA2
:100E4800010EDA6FD751D927D851DA23D890DF3578
:100E5800D96EE035DA6E000ED926020EDA22D9C034
:100E6800DEFFDAC0DDFF000ED76F020ED86F1E0E50
:100E7800D727000ED823D890DF35D96EE035DA6E43
:100E8800D890D936DA36D751D926D851DA22000E79
:100E9800DE6E000EDE6E800EDE6E3F0EDD6EEA51F7
:100EA800D8A41CD0000ED76F020ED86F1E0ED727FD
:100EB800000ED823D890DF35D96EE035DA6ED89099
:100EC800D936DA36D751D926D851DA22550EDE6E00
:100ED800C10EDE6EE80EDE6E3E0EDD6EEA05D8A4AB
:100EE8001CD0000ED76F020ED86F1E0ED727000E2B
:100EF800D823D890DF35D96EE035DA6ED890D93658
:100F0800DA36D751D926D851DA22CD0EDE6ECC0E7C
:100F1800DE6E4C0EDE6E3D0EDD6E020ECBEC0CF07E
:100F280026D1DFC015F0E0C016F0000E186E0A0ECC
:100F3800176E24EC4BF0FD0E15241B6E060E1620C2
:100F48001C6E0001DF51D86FD76B000ED7111D6ED4
:100F58000A0ED8111E6EF3EC4BF0DFC015F0E0C09E
:100F680016F0000E186E0A0E176E24EC4BF0FB0EEE
:100F780015241B6E060E16201C6EFF0E1E6E1D68B5
:100F8800F3EC4BF0F6C01BF0F7C01CF0FF0E1E6E22
:100F98001D68F3EC4BF0EBD0A2EC4BF0F6C01BF065
:100FA800F7C01CF0FF0E1E6E1D68F3EC4BF0510EDF
:100FB800A3EC4CF0DCD0F6C01CF0F7C01DF06DECD3
:100FC8004BF01D5004E10F0E1C5CD8A0D0D0F6C029
:100FD8001CF0F7C01DF06DEC4BF01D5003E11F0E27
:100FE8001C5CD8B0C4D00001EE51D8B48DD0690EC5
:100FF800096E020E0A6EEA290B6E49EC4BF00101EC
:10100800F86F690E0001EA25D96EDA6A020EDA2253
:10101800DF50D76FD7050101EB6FF6C01BF0F7C0A3
:101028001CF0FF0E1E6E1D68F3EC4BF00101F85129
:101038000A0DF3CFD7F0F4CFD8F0FD0E0001D72575
:101048001B6E060ED8211C6E0A0E1E6E000E1D6E3B
:10105800F3EC4BF00101F8510A0DF3CFD7F0F4CFC0
:10106800D8F0FB0E0001D7251B6E060ED8211C6E8A
:10107800FF0E1E6E1D68F3EC4BF00101F851020DD6
:10108800000EF324D96E020EF420DA6E000EDE6E26
:10109800000EDD6E5A0EF825D96EDA6A020EDA22D3
:1010A8000A0EDF6E690EF825D96EDA6A020EDA22A8
:1010B800FF0EDF6E780E0001EA25D96EDA6A020E9D
:1010C800DA22FF0EDF6E0101F851020D870EF324BC
:1010D800D96E020EF420DA6EFF0EDE6EFF0EDD6EA4
:1010E800F851040D1E0EF324D96E020EF420DA6EA8
:1010F800000EDE6E000EDE6E000EDE6E000EDD6E81
:10110800020ECBEC0CF033D0A2EC4BF0510EA3EC5A
:101118004CF0320E0001E119E211D8A411D0F6C04A
:101128001BF0F7C01CF0690EEA25D96EDA6A020EC8
:10113800DA22DF50D76FD7511D6E1E6AF3EC4BF0E1
:10114800500E0001E119E211D8A411D0F6C01BF02D
:10115800F7C01CF0780EEA25D96EDA6A020EDA2298
:10116800DF50D76FD7511D6E1E6AF3EC4BF00001AC
:10117800F64BF72B81D5F49766D044EC4CF0000E73
:101188000001ED6F070EED6501D05DD0200EED2555
:101198001C6E1D6A000E1D226DEC4BF01C041D1008
:1011A800D8A410D0200E0001ED251B6E1C6A000E7D
:1011B8001C22000E1E6E000E1D6EF3EC4BF008ECA8
:1011C80041F041D00001ED2BDDD7A1EC13F03BD06D
:1011D800F8C0D7F0F9C0D8F0D851000AD8A433D055
:1011E800D751130AD8B443EF04F0060AD8B443EF32
:1011F80004F0020AD8B481EF04F00E0AD8B49AEFCA
:1012080004F0020AD8B4D3EF04F0070AD8B4D3EF35
:1012180004F0010AD8B44BD4020AD8B4B9D43C0AB1
:10122800D8B416D50C0AD8B4A8D71E0AD8B4CDD7C6
:10123800B50AD8B443EF04F0010AD8B438D4020A86
:10124800D8B481EF04F0F5EC32F084EF03F0C4C6B3
:10125800ACF0C5C6BAF0C6C6B9F0C7C6B8F0C8C6BD
:10126800B7F024D3C5C63CF026EEC4F0DF503D6E7F
:101278003C50226E3DC023F0C6C624F0E4EC44F096
:10128800030E5BEC49F080EC4CF0A8EC4CF012003B
:10129800C5C63CF026EEC4F0DF503D6E3C50096EEA
:1012A8003DC00AF009EC49F00001AE6F010E5BEC9D
:1012B80049F00001AE5137EC4CF01200C5C63CF0C5
:1012C8003C50C4C63DF03DC03EF03F6A3EC03FF0D2
:1012D8003E6A3E100001AA6F3F50AB6FC7C63CF094
:1012E8003C50C6C63DF03DC03EF03F6A3EC03FF0B0
:1012F8003E6A3E10A86F3F50A96FAAC028F0ABC045
:1013080029F0A8C02AF0A9C02BF0EBEC4AF0030E94
:101318005BEC49F0B8D7C5C63CF026EEC4F0DF5008
:101328003D6E3C500D6E3DC00EF0B3EC48F00DC064
:10133800B4F00EC0B5F0020E5BEC49F0B4C00AF090
:10134800B5C00BF09CEC4CF01200C5C63CF026EE84
:10135800C4F0DF503D6E3C50286E3DC029F0C60EEB
:101368002A6E060E2B6EFAEC47F0030E5BEC49F082
:1013780080EC4CF01200C5C63CF026EEC4F0DF50FD
:101388003D6E3C500D6E3DC00EF0A50E0F6E020E68
:10139800106E40EC49F04A0E5BEC49F0A50E0A6E5F
:1013A800020E0B6E22EC42F01200B7C01FF0B8C05C
:1013B80020F0B9C021F0BAC022F0C9C623F026EE49
:1013C800C4F0DF507FEC4BF0030E5BEC49F0D0D754
:1013D800B7C01BF0B8C01CF0B9C01DF0BAC01EF0F1
:1013E80026EEC4F0DF505BEC4BF00001AE6F010E4F
:1013F8005BEC49F00001AE5137EC4CF01200B7C07D
:101408001FF0B8C020F0B9C021F0BAC022F0CAC697
:101418003CF03C50C9C63DF03DC03EF03F6A3EC07E
:101428003FF03E6A3E10236E3F50246E26EEC4F015
:10143800DF5082EC4AF0030E5BEC49F099D7B7C055
:101448001BF0B8C01CF0B9C01DF0BAC01EF026EEE3
:10145800C4F0DF5075EC49F01BC0B4F01CC0B5F007
:10146800020E5BEC49F06AD7B7C01BF0B8C01CF09D
:10147800B9C01DF0BAC01EF026EEC4F0DF5007EC6C
:101488003EF01BC0B0F01CC0B1F01DC0B2F01EC0D1
:10149800B3F0040E5BEC49F00001B35137EC4CF0AB
:1014A8000001B25137EC4CF00001B15137EC4CF06F
:1014B8000001B05137EC4CF01200C9C6ADF0000184
:1014C800AD515BEC49F0B7C010F0B8C011F0B9C02D
:1014D80012F0BAC013F0ADC014F0000E156E030E72
:1014E800166E0001AC51F9EC22F01200B7C00DF0F5
:1014F800B8C00EF0B9C00FF0BAC010F0C9C611F0EC
:10150800CA0E126E060E136E26EEC4F0DF50AEEC55
:1015180027F0030E5BEC49F02BD7B7C00DF0B8C02D
:101528000EF0B9C00FF0BAC010F0C90E116E060E59
:10153800126E26EEC4F0DF506FEC32F0030E5BEC57
:1015480049F016D7B7C010F0B8C011F0B9C012F002
:10155800BAC013F0A50E146E020E156E26EEC4F076
:10156800DF5024EC26F0A50E096E020E0A6ED8ECA8
:1015780047F009505BEC49F011D7C6C63CF026EE9F
:10158800C5F0DF503D6E3C50286E3DC029F026EE78
:10159800C4F0DF5011EC46F0030E5BEC49F0E8D6DE
:1015A800020E5BEC49F00001EF5137EC4CF0000102
:1015B800F05137EC4CF01200800E1B6E8A0E1C6E38
:1015C800EAEC26F0090E5BEC49F026EEC4F0DF5099
:1015D800D8A406D0800E0A6E0B6A22EC42F01200E4
:1015E8008A0E0A6E0B6A22EC42F01200000E00010D
:1015F800B66F070EB66501D00ED0C40EB625D96EEB
:10160800DA6A060EDA22B651940FE16EE26ADFCF8B
:10161800E7FFB62BEED7000E9C6F000EB66F070ED5
:10162800B66501D00ED0CC0EB625D96EDA6A060E94
:10163800DA22B6519E0FE16EE26ADFCFE7FFB62BE2
:10164800EED7000EA66F940E0C6E9E0E0D6E16EC65
:101658002FF01200C5C63CF026EEC4F0DF503D6EF8
:101668003C501A6E3DC01BF0C7C63FF03F50416E5C
:10167800406A26EEC6F0DF50426E436A4050421080
:101688001C6E415043101D6EB3EC4BF0030E5BEC27
:1016980049F06ED6838AC5C63CF0C4C63DF03D50BD
:1016A8003F6E3E6A3C503E241C6E000E3F201D6E6D
:1016B80098EC4AF01CC0B4F01DC0B5F0839A838A38
:1016C800A50E096E020E0A6ED8EC47F009505BECC5
:1016D80049F0B4C00AF0B5C00BF09CEC4CF0839A0A
:1016E8001200C5C63CF026EEC4F0DF503D6E3C50FB
:1016F800176E3DC018F0DBEC49F0030E5BEC49F0C7
:1017080037D6C5C63CF026EEC4F0DF503D6E3C50DF
:10171800176E3DC018F003EC4CF0030E5BEC49F07B
:1017280027D626EEC4F0DF50A3EC4CF0030E5BEC9A
:1017380049F01ED6000E0E6E090E0D6EB3EC48F081
:101748000DC0B4F00EC0B5F0020E5BEC49F0F6D552
:101758000601C451040F31EC29F0030E5BEC49F08B
:1017680007D6010E5BEC49F0745037EC4CF01200D0
:101778000A0E306E000E5CEC36F0000E0001AF6F02
:101788000E0EAF6501D006D0AF5131EC29F0000143
:10179800AF2BF6D7030E5BEC49F0EAD516EC22F036
:1017A800030E5BEC49F0E4D5C5C63CF026EEC4F068
:1017B800DF503D6E3C501A6E3DC01BF0C60E1C6ECD
:1017C800060E1D6EFEEC4AF0030E5BEC49F0D0D518
:1017D800C5C63CF026EEC4F0DF503D6E3C501C6E92
:1017E8003DC01DF0A50E1E6E020E1F6E1DEC4CF0C6
:1017F800A50E096E020E0A6ED8EC47F009505BEC94
:1018080049F0CCD5000E1B6E000E1C6E000E1D6E2E
:10181800000E1E6E000E75EC49F01BC0B4F01CC023
:10182800B5F00001B44BB52B020E5BEC49F086D540
:1018380026EEC5F0DF50D8B402D0768033D076904B
:1018480031D026EEC5F0DF50D8B402D076822AD047
:10185800769228D026EEC5F0DF50D8B402D0768430
:1018680021D076941FD026EEC5F0DF50D8B402D030
:10187800768618D0769616D026EEC4F0DF503C6EE9
:101888003D6A3D50000AD8A40DD03C50020AD8B495
:10189800CFD7010AD8B4D5D7070AD8B4DBD7010AFD
:1018A800D8B4E1D7030E5BEC49F062D526EEC2F05E
:1018B800DF503C6E3D6A3D50000AD8A412003C50EF
:1018C800080AD8B4CFD4010AD8B4E2D4030AD8B4E9
:1018D800F5D4010AD8B41FD5070AD8B436D5010AF9
:1018E800D8B449D51C0AD8B460D5030AD8B470D581
:1018F800010AD8B484D5070AD8B4A1D5010AD8B446
:101908000CD6030AD8B41ED6010AD8B4EFD50F0AEC
:10191800D8B4D3D5010AD8B430D6390AD8B49AD6AF
:10192800010AD8B4B7D6030AD8B43ED7010AD8B446
:101938004FD7070AD8B4D5D6010AD8B4E2D6030AD5
:10194800D8B4EFD6010AD8B40CD70F0AD8B4F2D657
:10195800050AD8B425D6030AD8B42ED6010AD8B4B5
:1019680045D66D0AD8B4F4D6010AD8B401D7070A07
:10197800D8B414D7010AD8B477D5030AD8B412005A
:101988000F0AD8B43FD7030AD8A4120075D7346E0B
:10199800EDEC29F0A4D2000E3C6E3C50020D870EEF
:1019A800F324D96E020EF420DA6EFF0EDE6EFF0EFF
:1019B800DD6E5A0E3C24D96EDA6A020EDA220A0E5D
:1019C800DF6E690E3C24D96EDA6A020EDA22FF0E47
:1019D800DF6E780E3C24D96EDA6A020EDA22FF0E28
:1019E800DF6E3C50020D000EF324D96E020EF42077
:1019F800DA6E000EDE6E000EDD6E3C50040D1E0E1B
:101A0800F324D96E020EF420DA6E000EDE6E000E9C
:101A1800DE6E000EDE6E000EDD6E130E3C24226EAE
:101A2800236A000E2322780E3C24D96EDA6A020E4D
:101A3800DA22DF50246EE4EC44F0EA0E3C24226EF5
:101A4800236A000E2322690E3C24D96EDA6A020E3C
:101A5800DA22DF50246EE4EC44F0240E3C24226E9B
:101A6800236A000E23225A0E3C24D96EDA6A020E2B
:101A7800DA22DF50246EE4EC44F0100E3C241B6E96
:101A88001C6A030E1C22FF0E1E6E1D68F3EC4BF041
:101A98003C500A0DF3CF2EF0F4CF2FF0FD0E2E247C
:101AA8001B6E060E2F201C6E0A0E1E6E000E1D6E7B
:101AB800F3EC4BF03C500A0DF3CF2EF0F4CF2FF09F
:101AC800FB0E2E241B6E060E2F201C6EFF0E1E6EA4
:101AD8001D68F3EC4BF03C2A0C0E3C645ED71200F8
:101AE800000E0E6E130E0D6E780E0F6E020E106E37
:101AF8000F0E116E26EC4AF0000E0E6EEA0E0D6EF9
:101B0800690E0F6E020E106E0F0E116E26EC4AF063
:101B1800000E0E6E240E0D6E5A0E0F6E020E106E13
:101B28000F0E116E26EC4AF0000E3C6E780E3C2427
:101B3800D96EDA6A020EDA22DF50376E3728D8B447
:101B48000CD0100E3C241B6E1C6A030E1C2237C0DE
:101B58001DF01E6AF3EC4BF00BD0100E3C241B6EEC
:101B68001C6A030E1C22FF0E1E6E1D68F3EC4BF060
:101B78003C2A0C0E3C64DAD7000E3C6E5A0E3C240C
:101B8800D96EDA6A020EDA22080EDF6017D0690E03
:101B98003C24D96EDA6A020EDA22DF502E6E2F6AE2
:101BA800D8902E362F36350E2E24D96E010E2F20C2
:101BB800DA6EDECF39F0DDCF3AF002D039683A6814
:101BC8003C500A0DF3CF2EF0F4CF2FF0FB0E2E244D
:101BD8001B6E060E2F201C6E39C01DF03AC01EF079
:101BE800F3EC4BF03C50020D870EF324D96E020E35
:101BF800F420DA6E39C0DEFF3AC0DDFF3C2A0C0E55
:101C08003C64BCD7000E3C6E5A0E3C24D96EDA6A8E
:101C1800020EDA22DF50386E080E38601AD03C50B7
:101C28000A0DF3CF2EF0F4CF2FF0FD0E2E241B6EED
:101C3800060E2F201C6E010E38C030F0316A30C0FD
:101C480031F0306A30101D6E31501E6EF3EC4BF0DF
:101C580012D03C500A0DF3CF2EF0F4CF2FF0FD0E2A
:101C68002E241B6E060E2F201C6E0A0E1E6E000EF2
:101C78001D6EF3EC4BF03C2A0C0E3C64C5D7000EED
:101C88003B6E5A0E3B24D96EDA6A020EDA220A0E2D
:101C9800DE18D8B4CBD0FF0E2E6EFF0E2F6E5A0E64
:101CA8003B24D96EDA6A020EDA22DF50306E316ACE
:101CB800690E3024D96E020E3120DA6EDF50326E92
:101CC800336A2E5032262F50332233BE1BD0335066
:101CD80004E1030E325CD8A015D05A0E3B24D96E0D
:101CE800DA6A020EDA22DF502E6E2F6A690E2E246F
:101CF800D96E020E2F20DA6EDF50306E3050356EFE
:101D0800366A17D05A0E3B24D96EDA6A020EDA22E6
:101D1800DF502E6E2F6A690E2E24D96E020E2F20E8
:101D2800DA6EDF50306EFF0E3024356E366AFF0EE5
:101D3800362235C02EF036C02FF0D8902E362F36EA
:101D4800B00E306E010E316E2E5030262F503122DB
:101D58005A0E3B24D96EDA6A020EDA22DF50326E4E
:101D68003250020D000EF324D96E020EF420DA6E02
:101D780030C0DEFF31C0DDFF5A0E3B24D96EDA6A6F
:101D8800020EDA22DF502E6E2E50040D1E0EF324A2
:101D9800D96E020EF420DA6E000EDE6E000EDE6ED4
:101DA800800EDE6E3F0EDD6E5A0E3B24D96EDA6A67
:101DB800020EDA22DF50D8A418D05A0E3B24D96E6E
:101DC800DA6A020EDA22DF502E6E2E50040D1E0E35
:101DD800F324D96E020EF420DA6E550EDE6EC10EB3
:101DE800DE6EE80EDE6E3E0EDD6E5A0E3B24D96EB8
:101DF800DA6A020EDA22DE04D8A418D05A0E3B247E
:101E0800D96EDA6A020EDA22DF502E6E2E50040DD9
:101E18001E0EF324D96E020EF420DA6ECD0EDE6E9D
:101E2800CC0EDE6E4C0EDE6E3D0EDD6E3B2A070ECE
:101E38003B6427D71200000E3C6E100E3C241C6E2B
:101E48001D6A030E1D226DEC4BF0780E3C24D96EF2
:101E5800DA6A020EDA221CC0DFFF3C500A0DF3CF0B
:101E68002EF0F4CF2FF0FD0E2E241C6E060E2F2020
:101E78001D6E6DEC4BF01DC01CF01D6A5A0E3C2403
:101E8800D96EDA6A020EDA221CC0DFFF3C2A0D0E78
:101E98003C64D3D7000E296E130E286E780E2A6E76
:101EA800020E2B6E0F0E2C6EA9EC49F0000E296E57
:101EB800EA0E286E690E2A6E020E2B6E0F0E2C6E1D
:101EC800A9EC49F0000E296E240E286E5A0E2A6ECF
:101ED800020E2B6E0F0E2C6EA9EC49F01200345036
:101EE8002E6E2F6A2F50000AD8A412002E50000A16
:101EF800D8B451D5010AD8B4F3D5030AD8A412002E
:101F08009AD7500E0001E119E211D8A408D0000EAA
:101F1800C26F800EC36F0D0EC46F440E0CD0320E0C
:101F2800E119E211D8A408D0000EC26F800EC36F69
:101F3800A00EC46F430EC56F000E186E230E176EE9
:101F480003EC4CF0D7EC46F02CC1D2F02DC1D3F005
:101F58002EC1D4F02FC1D5F0000E0001CD6F000EB8
:101F6800CE6F000ECF6F000ED06F030E00019B6F77
:101F7800080E9A6F770EE82EFED79A2FFCD79B2F64
:101F8800FAD7000E0001D16F2ED0030ED119D8B4A4
:101F980028D0D1C09AF0D8909A339A29C66FD151D7
:101FA800010BC76FC7C0C8F0D5C0C9F0D4C0CAF00C
:101FB800D3C0CBF0D2C0CCF0140E0C6E050E0D6E53
:101FC800C80E0E6E0F6AC651C7EC23F0D151020D30
:101FD800F3509E0FD96EDA6A0CC0DEFF0DC0DDFF2C
:101FE80004000001D12B7450020DD1519A6F9B6BE4
:101FF800F3509A5D9B51800A9C6FF450800A9C595B
:10200800D8A0C3D7030E00019B6F080E9A6F770EF6
:10201800E82EFED79A2FFCD79B2FFAD7000E000187
:10202800D66FB6D0550E1B6EC10E1C6EE80E1D6E17
:102038003E0E1E6ED651020DF3509E0FD96EDA6A0F
:10204800DECF09F0DDCF0AF0000E0ABEFF0E0B6EE0
:102058000C6E010EA6EC2CF009C017F00AC018F09F
:102068000BC019F00CC01AF09FEC18F017C069F0FB
:1020780018C06AF019C06BF01AC06CF04CEC3DF057
:1020880069C096F06AC097F00001D629B3EC44F015
:102098007DD0CD0E1B6ECC0E1C6E4C0E1D6E3D0EF3
:1020A8001E6ED651020DF3509E0FD96EDA6ADECF3E
:1020B80009F0DDCF0AF0000E0ABEFF0E0B6E0C6EA3
:1020C800010EA6EC2CF009C017F00AC018F00BC0DE
:1020D80019F00CC01AF09FEC18F017C069F018C07E
:1020E8006AF019C06BF01AC06CF04CEC3DF069C096
:1020F80096F06AC097F00001D629B3EC44F046D0B8
:10210800000E1B6E000E1C6E800E1D6E3F0E1E6EA6
:10211800D651020DF3509E0FD96EDA6ADECF09F060
:10212800DDCF0AF0000E0ABEFF0E0B6E0C6E010E1C
:10213800A6EC2CF009C017F00AC018F00BC019F073
:102148000CC01AF09FEC18F017C069F018C06AF0BC
:1021580019C06BF01AC06CF04CEC3DF069C096F0F9
:102168006AC097F00001D629B3EC44F00FD0D651DD
:102178009A6F9B6B9B51000AD8A4C2D79A51000A48
:10218800D8B450D7010AD8B484D7BAD70001D62B0F
:102198007450020DD6519A6F9B6BF3509A5D9B5108
:1021A800800A9C6FF450800A9C59D8A0E0D7000E92
:1021B800346E000E356E000E366E400E376E01011D
:1021C8002C51305D096E2D5131590A6E2E513259FC
:1021D8000B6E2F5133590C6E000EA6EC2CF009C073
:1021E80030F00AC031F00BC032F00CC033F0BBEC59
:1021F8001BF030C0BEF031C0BFF032C0C0F033C0F9
:10220800C1F0CDC049F0CEC04AF0CFC04BF0D0C02D
:102218004CF0C2C034F0C3C035F0C4C036F0C5C0FD
:1022280037F0BEC030F0BFC031F0C0C032F0C1C01E
:1022380033F0BBEC1BF030C04DF031C04EF032C073
:102248004FF033C050F035EC1AF049C0CDF04AC019
:10225800CEF04BC0CFF04CC0D0F0CDC061F0CEC0B6
:1022680062F0CFC063F0D0C064F006EC17F061C034
:1022780069F062C06AF063C06BF064C06CF04CEC4B
:102288003DF069C0BAF06AC0BBF06BC0BCF06CC06E
:10229800BDF0D8900001BA359A6FBB359B6FBC353D
:1022A8009C6FBD359D6F01012C5100019A25D26F9D
:1022B80001012D5100019B21D36F01012E51000115
:1022C8009C21D46F01012F5100019D21D56F959C50
:1022D800838CC3EC3BF0230E12181310D8B410D023
:1022E800839C959E838E060E00019A6F300EE82E11
:1022F800FED79A2FFCD700F0839E5CEC4CF01200BE
:10230800839C010130510001D25D0101315100016E
:10231800D359010132510001D4590101335100014F
:10232800D559D8B0120021D6200E096E000E0A6EBB
:10233800000E0B6E000E0C6E24EC47F0000E3C6E87
:102348005CD03CC02CF0D8902C322C28386E3C50F5
:10235800010B3B6E3BC030F01A0E0C6E010E0D6E79
:10236800300E0E6E0F6A3850C7EC23F03C50020D49
:10237800B00EF324D96E010EF420DA6E0CC0DEFF25
:102388000DC0DDFF3C50020DB00EF324D96E010ED6
:10239800F420DA6EDE2820E1DE28D8A41DD0600EF5
:1023A8003C24D96EDA6A010EDA220A0EDF601CD0EC
:1023B800600E3C24D96EDA6A010EDA22DF2A3C501C
:1023C800020DB00EF324D96E010EF420DA6E000E61
:1023D800DE6E000EDD6E08D0600E3C24D96EDA6A1F
:1023E800010EDA22000EDF6E510E3824D96EDA6A39
:1023F800010EDA22010EDF6E3C2A7450020D3C50A9
:102408002C6E2D6AF3502C5C2D50800A2E6EF450E1
:10241800800A2E58D8A095D7320E096E000E0A6E83
:10242800000E0B6E000E0C6E24EC47F00001F487D2
:10243800000E3C6E70D1000E1C6E990E1B6E3C5047
:10244800020DB00EF324D96E010EF420DA6EDECF41
:102458001DF0DDCF1EF0F3EC4BF03C50020DB00E3A
:10246800F324D96E010EF420DA6EDECF89F1DDCFC8
:102478008AF150D1000E1C6E970E1B6E3C50020D57
:10248800B00EF324D96E010EF420DA6EDECF1DF003
:10249800DDCF1EF0F3EC4BF03C50020DB00EF324F0
:1024A800D96E010EF420DA6EDECF8BF1DDCF8CF120
:1024B80031D13C50020DB00EF324D96E010EF42038
:1024C800DA6E010EDBBE2BD0010EDB5004E10A0EE2
:1024D800DE5CD8A024D00101B251B311D8B41FD00A
:1024E800000E1C6E960E1B6E3C50020DB00EF324AF
:1024F800D96E010EF420DA6EDECF1DF0DDCF1EF0AE
:10250800F3EC4BF03C50020DB00EF324D96E010EE3
:10251800F420DA6EDECFE5F0DDCFE6F0FBD0F29CFA
:10252800AB9EAB98AB94AB92AC9AAECF33F0AECF38
:1025380033F0AECF33F0000EE8CFB4F5948C948E20
:10254800000E0E6E220E0D6EB3EC48F00DC036F084
:102558000EC037F0364A372A000E296E220E286E32
:1025680036C02AF037C02BF0EBEC4AF0FA0E096EB1
:10257800000E0A6E000E0B6E000E0C6EB0EC46F0EC
:10258800F28C000E166EC20E176E010E186E000E3B
:10259800196EE0EC43F0BED0510E0001E119E211D2
:1025A800D8A430D0060E3C18D8A42CD0000E1C6E2F
:1025B8008C0E1B6E3C50020DB00EF324D96E010E2A
:1025C800F420DA6EDECF1DF0DDCF1EF0F3EC4BF019
:1025D8003C50020DB00EF324D96E010EF420DA6ED1
:1025E800DE2803E1DE28D8B495D03C50020DB00EA9
:1025F800F324D96E010EF420DA6EDECF8DF1DDCF33
:102608008EF188D03C50FC0F3B6E3B500C0DF3CF45
:102618002CF0F4CF2DF0E60E2C24346E000E2D2075
:10262800356E900E3B24396E3A6A010E3A22010E3D
:1026380034241B6E000E35201C6E3B502C6E2D6A08
:10264800D8902C362D36B80E2C24D96E010E2D209C
:10265800DA6EDECF1DF0DDCF1EF0F3EC4BF03B5011
:102668002C6E2D6AD8902C362D36B80E2C24D96EA7
:10267800010E2D20DA6E010EDBAE11D0700EDE5C7D
:10268800FE0EDE58D8B00BD039C01BF03AC01CF093
:10269800000E1E6E010E1D6EF3EC4BF03BD03B504E
:1026A8002C6E2D6AD8902C362D36B80E2C24D96E67
:1026B800010E2D20DA6EDE280EE1DE28D8A40BD01C
:1026C80039C01BF03AC01CF0000E1E6E000E1D6EC5
:1026D800F3EC4BF01FD039C01BF03AC01CF0000ED1
:1026E8001E6E030E1D6EF3EC4BF014D03C502C6E96
:1026F8002D6A2D50000AD8A44FD72C50000AD8B400
:102708009AD6010AD8B4B6D6030AD8B4D2D6010AE2
:10271800D8A442D73C2A7450020D3C502C6E2D6A26
:10272800F3502C5C2D50800A2E6EF450800A2E58DF
:10273800D8A0DCD70001F4971200010E1D6E860E9A
:102748001C6E6DEC4BF01C041D10D8A487D0000E35
:102758000101CF6F000ECE6F000ED16F000ED06F4B
:10276800000ED36F000ED26F000ED46FD50E0D6E13
:10277800010E0E6E0B0E0F6EFD0E106E95EC45F0F1
:10278800CE0E2C6E010E2D6E0001ED51BCEC3EF00C
:10279800EDC021F0226AD3EC30F0010E1C6E9A0EC7
:1027A8001B6E000E1E6E000E1D6EF3EC4BF0010E3C
:1027B8001C6E9B0E1B6E000E1E6E000E1D6EF3EC43
:1027C8004BF0010E1C6E9C0E1B6E000E1E6E000E52
:1027D8001D6EF3EC4BF0010E1C6E9D0E1B6E000E71
:1027E8001E6E000E1D6EF3EC4BF0010E1B6E9E0E5E
:1027F8001A6E0C0E1C6EFD0E1D6EFEEC4AF044ECBB
:102808004CF0010E1C6E860E1B6E000E1E6E000E26
:102818001D6EF3EC4BF0600EA3EC4CF0D7EC46F0D9
:10282800070E1B6E760E1A6EBB0E1C6EFD0E1D6E0D
:10283800FEEC4AF0DC0E096E050E0A6E000E0B6EF9
:10284800000E0C6E24EC47F0070E1B6E760E1A6E07
:102858000C0E1C6EFD0E1D6EFEEC4AF0010E1D6E78
:10286800870E1C6E6DEC4BF01C041D10D8A468D0AC
:10287800010E1D6E9A0E1C6E6DEC4BF01CC0CEF155
:102888001DC0CFF1010E1D6E9B0E1C6E6DEC4BF042
:102898001CC0D0F11DC0D1F1010E1D6E9C0E1C6E26
:1028A8006DEC4BF01CC0D2F11DC0D3F1010E1D6EB2
:1028B8009D0E1C6E6DEC4BF01C500101D46F010E87
:1028C8001D6E9E0E1C6ED50E1E6E010E1F6E1DEC2B
:1028D8004CF0CE0E2C6E010E2D6E0001ED51BCECAD
:1028E8003EF044EC4CF0010E1C6E870E1B6E000E81
:1028F8001E6E000E1D6EF3EC4BF0500EA3EC4CF068
:10290800D7EC46F0070E1B6E760E1A6E830E1C6E01
:10291800FD0E1D6EFEEC4AF0DC0E096E050E0A6E09
:10292800000E0B6E000E0C6E24EC47F0070E1B6EAB
:10293800760E1A6E0C0E1C6EFD0E1D6EFEEC4AF025
:10294800010E1D6E880E1C6E6DEC4BF01C041D10E4
:10295800D8A49BD0070E1B6E760E1A6E490E1C6EFD
:10296800FD0E1D6EFEEC4AF0CE0E176E010E186EAF
:102978000001ED51F6EC38F0070E1B6E760E1A6E5C
:102988000D0E1C6EFD0E1D6EFEEC4AF0000E3A6E2A
:1029980020D03AC03DF0CEC13EF0CFC13FF0D0C10B
:1029A80040F0D2C141F0D4C142F0430E0D6E0E6A20
:1029B800D50E0F6E010E106E95EC45F0000E4D6EA3
:1029C800010E4C6E3D0E2C6E2D6A3A50E8EC35F037
:1029D8003A2AFC0E336EFF0E346E7450356E366A2A
:1029E800D8903536363633503526345036223A505C
:1029F800376E386A3550375C3850800A396E365031
:102A0800800A3958D8A0C5D7070E1B6E760E1A6EE5
:102A1800A10E1C6EFB0E1D6EFEEC4AF016EC22F0A9
:102A2800070E1B6E760E1A6ED00E1C6EFC0E1D6EF7
:102A3800FEEC4AF0000E3B6E3B5031EC29F03B2A8D
:102A48000E0E3B64F9D7000E3C6E3C50ACEC2FF0F8
:102A58003C2A090E3C64F9D7010E1C6E880E1B6EC9
:102A6800000E1E6E000E1D6EF3EC4BF0600EA3EC14
:102A78004CF0D7EC46F0070E1B6E760E1A6E0C0E55
:102A88001C6EFD0E1D6EFEEC4AF0010E1D6E890EC9
:102A98001C6E6DEC4BF01C041D10D8A41200010E26
:102AA8001C6E890E1B6E000E1E6E000E1D6EF3EC62
:102AB8004BF0000E186E2F0E176E03EC4CF0120040
:102AC800010E1D6E7E0E1C6ED7EC4AF01CC069F01C
:102AD8001DC06AF01EC06BF01FC06CF04CEC3DF0DE
:102AE800010E1D6E800E1C6ED7EC4AF01CC069F0FA
:102AF8001DC06AF01EC06BF01FC06CF04CEC3DF0BE
:102B0800010E136E7C0E126EB20E146E156A040E50
:102B1800166E7AEC34F0B4C096F00001976B986B9F
:102B2800996B98C099F097C098F096C097F0966BFB
:102B3800B3C09AF09B6B9C6B9D6B9BC09DF09AC039
:102B48009CF09B6B9A6BB2C09EF09F6BA06BA16BC5
:102B58009EC0A1F0A06B9F6B9E6B9A519E25A26FA1
:102B68009B519F21A36F9C51A021A46F9D51A1212E
:102B7800A56F9651A225A66F9751A321A76F9851CB
:102B8800A421A86F9951A521A96FB551A6250101C6
:102B9800776F000E0001A7210101786F000E000178
:102BA800A8210101796F000E0001A92101017A6FA6
:102BB800010E136E7E0E126EB20E146E156A040E9E
:102BC800166E7AEC34F0B4C096F00001976B986BEF
:102BD800996B98C099F097C098F096C097F0966B4B
:102BE800B3C09AF09B6B9C6B9D6B9BC09DF09AC089
:102BF8009CF09B6B9A6BB2C09EF09F6BA06BA16B15
:102C08009EC0A1F0A06B9F6B9E6B9A519E25A26FF0
:102C18009B519F21A36F9C51A021A46F9D51A1217D
:102C2800A56F9651A225A66F9751A321A76F98511A
:102C3800A421A86F9951A521A96FB551A625AE6FFA
:102C4800000EA721AF6F000EA821B06F000EA921BA
:102C5800B16F010E136E800E126EB20E146E156AED
:102C6800040E166E7AEC34F0B4C096F00001976B3F
:102C7800986B996B98C099F097C098F096C097F0A8
:102C8800966BB3C09AF09B6B9C6B9D6B9BC09DF041
:102C98009AC09CF09B6B9A6BB2C09EF09F6BA06B26
:102CA800A16B9EC0A1F0A06B9F6B9E6B9A519E2555
:102CB800A26F9B519F21A36F9C51A021A46F9D518E
:102CC800A121A56F9651A225A66F9751A321A76FA1
:102CD8009851A421A86F9951A521A96FB551A6258E
:102CE800AA6F000EA721AB6F000EA821AC6F000ED3
:102CF800A921AD6F01017751781179117A11D8B4F2
:102D08000DD00001AE51AF11B011B111D8B406D039
:102D1800AA51AB11AC11AD11D8A404D0230EA3EC69
:102D28004CF01200000E0E6E0B0E0D6E5AEC48F0B1
:102D3800010177510D1862E178510E185FE1795160
:102D48000F185CE17A511018D8A458D00001AA5184
:102D5800AE1950E1AB51AF194DE1AC51B0194AE190
:102D6800AD51B119D8A446D0000E296E0B0E286EAD
:102D7800AEC02AF0AFC02BF0B0C02CF0B1C02DF01F
:102D88003EEC4AF0AEC077F1AFC078F1B0C079F14F
:102D9800B1C07AF166EC4CF0010E1B6E7C0E1A6E17
:102DA800000E1C6E000E1D6E000E1E6E000E1F6EB5
:102DB800FEEC46F0010E1B6E7E0E1A6E000E1C6EA7
:102DC800000E1D6E000E1E6E000E1F6EFEEC46F00D
:102DD800010E1B6E800E1A6E000E1C6E000E1D6E0C
:102DE800000E1E6E000E1F6EFEEC46F0220EA3ECC7
:102DF8004CF01200210EA3EC4CF01200200EA3ECB4
:102E08004CF0120073C18AF074C18BF075C18CF05C
:102E180076C18DF061C08AF062C08BF063C08CF01F
:102E280064C08DF08AC065F08BC066F08CC067F016
:102E38008DC068F0180E05D0D890683267326632B7
:102E48006532E82EF9D765500001846F856B85BF20
:102E58000FD0855104E1960E845DD8A009D061C0D9
:102E680061F062C062F063C063F064C064F0120095
:102E78008AC065F08BC066F08CC067F08DC068F0C2
:102E8800200E05D0D8906832673266326532E82E57
:102E9800F9D76550D8B412D061C009F062C00AF001
:102EA80063C00BF064C00CF055EC4AF009C061F047
:102EB8000AC062F00BC063F00CC064F0000185BF6B
:102EC80006D085511FE17E0E845DD8B01BD08AC024
:102ED80017F08BC018F08CC019F08DC01AF0000ED6
:102EE8001B6E000E1C6E000E1D6E000E1E6E9FECFB
:102EF80018F017C061F018C062F019C063F01AC06A
:102F080064F01200000E4D6E000E4E6E000E4F6EF5
:102F18004B0E506E61C049F062C04AF063C04BF07E
:102F280064C04CF035EC1AF049C086F04AC087F00E
:102F38004BC088F04CC089F0000E4D6E000E4E6EEE
:102F4800000E4F6ECB0E506E86C049F087C04AF017
:102F580088C04BF089C04CF035EC1AF049C080F0BD
:102F68004AC081F04BC082F04CC083F080C059F059
:102F780081C05AF082C05BF083C05CF061C05DF034
:102F880062C05EF063C05FF064C060F093EC47F02D
:102F980059C08EF05AC08FF05BC090F05CC091F0C1
:102FA800000E096E000E0A6E000E0B6E3F0E0C6EC0
:102FB8008EC00DF08FC00EF090C00FF091C010F0D1
:102FC80061EC39F0D8B02DD061C04DF062C04EF040
:102FD80063C04FF064C050F08EC049F08FC04AF013
:102FE80090C04BF091C04CF035EC1AF049C086F017
:102FF8004AC087F04BC088F04CC089F086C049F0C1
:1030080087C04AF088C04BF089C04CF0000E4D6E66
:10301800000E4E6E800E4F6EBF0E506E35EC1AF0DD
:1030280053D0000E096E000E0A6E000E0B6EBF0E16
:103038000C6E8EC00DF08FC00EF090C00FF091C0D6
:1030480010F061EC39F0D8A02DD061C04DF062C00D
:103058004EF063C04FF064C050F08EC049F08FC08E
:103068004AF090C04BF091C04CF035EC1AF049C0D2
:1030780086F04AC087F04BC088F04CC089F086C003
:1030880049F087C04AF088C04BF089C04CF0000E68
:103098004D6E000E4E6E800E4F6E3F0E506E35EC2C
:1030A8001AF012D08EC049F08FC04AF090C04BF091
:1030B80091C04CF061C04DF062C04EF063C04FF05B
:1030C80064C050F035EC1AF049C08EF04AC08FF059
:1030D8004BC090F04CC091F08AC065F08BC066F090
:1030E8008CC067F08DC068F0200E05D0D89068328B
:1030F800673266326532E82EF9D76550D8B412D0F7
:103108008EC009F08FC00AF090C00BF091C00CF08F
:1031180055EC4AF009C08EF00AC08FF00BC090F051
:103128000CC091F08EC061F08FC062F090C063F067
:1031380091C064F012001A50800B236E1A501A24A2
:10314800256E19BE25802550D8B40DD02528D8A4C1
:1031580008D0000E176E000E186E000E196E000EC5
:103168001A6E198E08D0000E176E000E186E000E1B
:10317800196E000E1A6E1E50800B231A1E501E2444
:10318800246E1DBE24802450D8B40DD02428D8A481
:1031980008D0000E1B6E000E1C6E000E1D6E000E79
:1031A8001E6E1D8E08D0000E1B6E000E1C6E000ECB
:1031B8001D6E000E1E6E2450D8B403D02550D8A41E
:1031C80009D0000E176E000E186E000E196E000E54
:1031D8001A6E12001D501702F3CF2EF0F4CF2FF005
:1031E8002E50266E276A286A296A2F502A6E2B6A63
:1031F8002C6A2D6A1C501802F3CF2EF0F4CF2FF052
:103208002E502626000E2722282229222F502A2631
:10321800000E2B222C222D221B501902F3CF2EF048
:10322800F4CF2FF02E502626000E272228222922FE
:103238002F502A26000E2B222C222D2228C029F0BE
:1032480027C028F026C027F0266A1B501802F3CFA3
:103258002EF0F4CF2FF02E5026262F502722000EC6
:103268002822000E29221C501702F3CF2EF0F4CF8B
:103278002FF02E5026262F502722000E2822000E2F
:10328800292228C029F027C028F026C027F0266A5E
:103298001B501702F3CF2EF0F4CF2FF02E50262616
:1032A8002F502722000E2822000E29221D50180216
:1032B800F3CF2EF0F4CF2FF02E502A262F502B22AA
:1032C800000E2C22000E2D221C501902F3CF2EF0D6
:1032D800F4CF2FF02E502A262F502B22000E2C220E
:1032E800000E2D221D501902F3CF2EF0F4CF2FF02F
:1032F8002E501F6E2F50206E216A226A21C022F0A4
:1033080020C021F01FC020F01F6A1F502A2620501D
:103318002B2221502C2222502D2229502A26000E01
:103328002B222C222D2228C029F027C028F026C0C5
:1033380027F0266A245025C01FF0206A1F26000E99
:103348002022820E1F242E6EFF0E20202F6E0FD0FB
:10335800D8902A362B362C362D3629BE2A80D8907E
:1033680026362736283629362E06D8A02F062CAE24
:10337800EFD7000E246E29AE17D0FF0E26141F6E4D
:10338800FF0E2714206EFF0E2814216E7F0E2914BD
:10339800226E1F50201021102210D8B403D0010E25
:1033A800246E02D02AB0FBD72450D8B41FD0010E07
:1033B8002A26000E2B222C222D222DA017D02AC01F
:1033C8001FF02BC020F02CC021F02DC022F0223499
:1033D8002232213220321F321FC02AF020C02BF0A7
:1033E80021C02CF022C02DF02E4A2F2A2FBE0DD03E
:1033F8002F5003E12E28D8A008D0000E2A6E000E08
:103408002B6E800E2C6E7F0E20D02FBE05D02F5035
:103418000EE12E04D8B00BD0000E2A6E000E2B6ED3
:10342800000E2C6E000E2D6E000E236E0FD02EC0D7
:1034380025F0FF0E2A16FF0E2B167F0E2C16000EF7
:103448002D1625B02C8ED89025302D6E23502D1298
:103458002AC017F02BC018F02CC019F02DC01AF094
:1034680012004C50800B556E4C504C24576E4BBE7E
:1034780057805750D8B40DD05728D8A408D0000E7C
:10348800496E000E4A6E000E4B6E000E4C6E4B8E4F
:1034980006D0000E496E000E4A6E000E4B6E000EEE
:1034A8004C6E5050800B566E55505618D8A4558CFB
:1034B80050505024566E4FBE56805650D8B40DD03A
:1034C8005628D8A408D0000E4D6E000E4E6E000E81
:1034D8004F6E000E506E4F8E06D0000E4D6E000ED1
:1034E8004E6E000E4F6E000E506E5750565CD8B0A0
:1034F80022D055AC02D0800E551A57C058F056C08D
:1035080057F058C056F049C058F04DC049F058C05F
:103518004DF04AC058F04EC04AF058C04EF04BC06B
:1035280058F04FC04BF058C04FF04CC058F050C046
:103538004CF058C050F0000E586E575056C051F01D
:10354800526A515E000E525A52BE2CD0525004E1BB
:103558001A0E515CD8A026D049504A104B104C1076
:10356800D8B402D0010E01D0000E586E000E496E7C
:10357800000E4A6E000E4B6E000E4C6E56C057F091
:1035880015D058A005D0D89058300109586E02D0EF
:10359800D890583249B0588E4C344C324B324A325B
:1035A8004932572A5650575CD8A0EBD755BC28D07B
:1035B8005750D8A409D0000E496E000E4A6E000E6E
:1035C8004B6E000E4C6E12004D5049264E504A224A
:1035D8004F504B2250504C224CA071D058A005D0CF
:1035E800D89058300109586E02D0D890583249B056
:1035F800588E4C344C324B324A324932572A5FD0BB
:103608004D50495C4E504A584F504B584C50800AC8
:10361800516E5050800A5158D8B025D049504D5C51
:10362800516E4A504E58526E4B504F58536E4C5034
:103638005058546EFF0E5124496EFF0E52204A6EA8
:10364800FF0E53204B6EFF0E54204C6E800E551A01
:10365800586C5850D8A40FD0010E4926000E4A22A3
:103668004B224C2208D04D50495E4E504A5A4F507A
:103678004B5A50504C5A49504A104B104C10D8A431
:103688001CD05850D8A419D0000E496E000E4A6EAE
:10369800000E4B6E000E4C6E1200D89049364A361A
:1036A8004B364C3658BE498058A002D0D88001D03D
:1036B800D89058365750D8A457064BAEEED7000EC0
:1036C800566E58AE0BD058C051F07F0E5116D8B474
:1036D80003D0010E566E02D049B0FBD75650D8B46D
:1036E80020D0010E4926000E4A224B224C224CA023
:1036F80018D049C051F04AC052F04BC053F04CC0EA
:1037080054F05434543253325232513251C049F089
:1037180052C04AF053C04BF054C04CF05728D8A4BC
:10372800572A5728D8B403D05750D8A40DD0000E24
:10373800496E000E4A6E000E4B6E000E4C6E5750CE
:10374800D8A402D0000E556E57A002D04B8E01D0DF
:103758004B9ED89057304C6E55BE4C8E49C049F0A0
:103768004AC04AF04BC04BF04CC04CF012003350EA
:10377800800B406E33503324476E32BE478047502B
:10378800D8B40DD04728D8A408D0000E306E000E4B
:10379800316E000E326E000E336E328E06D0000E81
:1037A800306E000E316E000E326E000E336E3750E2
:1037B800800B401A37503724486E36BE4880485030
:1037C800D8B40DD04828D8A408D0000E346E000E06
:1037D800356E000E366E000E376E368E06D0000E31
:1037E800346E000E356E000E366E000E376E345095
:1037F800351036103710D8A417D0000E306E000ED2
:10380800316E000E326E000E336E800E32127F0E55
:1038180033124050331230C030F031C031F032C072
:1038280032F033C033F012004750D8A409D0000E4C
:10383800306E000E316E000E326E000E336E1200C6
:10384800485047C038F0396A385E000E395A7F0E42
:103858003824416E000E3920426E30C03CF031C031
:103868003DF032C03EF033C03FF0000E306E000E27
:10387800316E000E326E000E336E000E436E000E77
:10388800446E000E456E000E466E000E486E28D03F
:103898004850D8B411D0D8903C363D363E363F36E5
:1038A800D890303631363236333646BE3080D890EE
:1038B800433644364536463634503C5C35503D58E0
:1038C80036503E5837503F58D8A009D0468C34500F
:1038D8003C5E35503D5A36503E5A37503F5A482A7A
:1038E800190E4864D5D73C503D103E103F10D8B44F
:1038F80011D043800FD0D890303631363236333637
:1039080046BE3080D8904336443645364636410662
:10391800D8A0420632AEEFD7000E486E46AE17D09A
:10392800FF0E4314386EFF0E4414396EFF0E451413
:103938003A6E7F0E46143B6E385039103A103B10E1
:10394800D8B403D0010E486E02D030B0FBD748502F
:10395800D8B41FD0010E3026000E31223222332275
:1039680033A017D030C038F031C039F032C03AF047
:1039780033C03BF03B343B323A323932383238C00C
:1039880030F039C031F03AC032F03BC033F0414A30
:10399800422A42BE10D0425003E14128D8A00BD0A1
:1039A800000E426E4168000E306E000E316E000E41
:1039B800326E000E336E42BE05D0425011E1410412
:1039C800D8B00ED0000E426E000E416E000E306E62
:1039D800000E316E000E326E000E336E000E406E19
:1039E80041C047F047A002D0328E01D0329ED89015
:1039F8004730336E0ED72C0E096E010E0A6E000E7C
:103A08000B6E000E0C6EB0EC46F0070E1D6EC60E67
:103A18001C6E000E1E6E030E1F6E1DEC4CF0A50EE4
:103A28000D6E020E0E6EE10E0F6EFE0E106E95EC10
:103A380045F0A50E176E020E186E000E196E030ED5
:103A48001A6E11EC4BF0A50E206E020E216E89EC59
:103A580038F0F40E096E010E0A6E000E0B6E000EA1
:103A68000C6EB0EC46F0030E0C6E000E0D6E000EE0
:103A78000E6E030E0F6E00018351C7EC23F0000E8B
:103A8800746EA50E0D6E020E0E6E0C0E0F6EFD0EF0
:103A9800106E95EC45F0A50E176E020E186EF30E1B
:103AA800196EFE0E1A6E11EC4BF0A50E176E020E73
:103AB800186EDE0E196EFF0E1A6E11EC4BF0A50E85
:103AC800206E020E216E89EC38F0010E836F640EB1
:103AD800096E000E0A6E000E0B6E000E0C6EB0EC36
:103AE80046F0030E0C6E000E0D6E000E0E6E030EE9
:103AF8000F6E00018351C7EC23F00CC081F00DC09C
:103B080082F0812903E18229D8B467D081C080F08E
:103B1800742AA50E0D6E020E0E6E0C0E0F6EFD0EA3
:103B2800106E95EC45F083C018F0196AA50E1A6E50
:103B3800020E1B6E000E1D6E0A0E1C6EFBEC33F09F
:103B4800A50E176E020E186EF30E196EFF0E1A6E82
:103B580011EC4BF0A50E176E020E186E0001805185
:103B68001E0D000EF324D96E050EF420DA6EDECF9A
:103B780019F0DDCF1AF011EC4BF0A50E176E020EFE
:103B8800186E0B0E196EFD0E1A6E11EC4BF0000E2E
:103B98000D6E030E0E6E0B0E0F6EFD0E106E95EC75
:103BA80045F0410E0C6E000E0D6E000E0E6E030EEB
:103BB8000F6E00018351C7EC23F0A50E176E020E9D
:103BC800186E000E196E030E1A6E11EC4BF0A50E4E
:103BD800206E020E216E89EC38F0832B0E0E836561
:103BE80076D7900E206EFC0E216E89EC38F074505A
:103BF800D8A407D00B0E206EFE0E216E89EC38F08B
:103C0800120074C018F0196AA50E1A6E020E1B6E07
:103C1800000E1D6E0A0E1C6EFBEC33F0A50E176E1F
:103C2800020E186E3D0E196EFE0E1A6E11EC4BF058
:103C3800A50E206E020E216E89EC38F01200336E4C
:103C480033502C6E2D6AFF0E2E6EFF0E2F6E000164
:103C5800E951306E316A2E5030262F5031222C50C7
:103C6800305C3150800A326E2D50800A3258D8B0FC
:103C780024D0000E1D6E020E1C6E6DEC4BF01C0461
:103C88001D10D8A426D0C3EC3BF012501310D8B4A2
:103C980020D0030E186EE80E176EDBEC49F0000E0C
:103CA8001C6E020E1B6E000E1E6E000E1D6EF3ECD7
:103CB8004BF0440EA3EC4CF01200C3EC3BF0125056
:103CC8001310D8B406D0000E1D6E020E1C6E6DECDB
:103CD8004BF03350360DF3CF2CF0F4CF2DF0100EFF
:103CE8002C26000E2D222CC034F02DC035F0000EED
:103CF80035BEFF0E366E376E34C01FF035C020F06B
:103D080036C021F037C022F001C123F002C124F0EF
:103D1800000E82EC4AF0020E34240D6E000E35209F
:103D28000E6E000E36200F6E000E3720106E0D0E30
:103D3800116E010E126E000E6FEC32F00C0E342470
:103D48000D6E000E35200E6E000E36200F6E000E22
:103D58003720106E030E116E010E126E000E6FECFE
:103D680032F0160E34240D6E000E35200E6E000E45
:103D780036200F6E000E3720106E210E116E010EC8
:103D8800126E000E6FEC32F0200E34240D6E000E11
:103D980035200E6E000E36200F6E000E3720106E86
:103DA800170E116E010E126E000E6FEC32F02A0E15
:103DB80034241F6E000E3520206E000E3620216E32
:103DC800000E3720226E2BC123F0000E7FEC4BF043
:103DD8002B0E34241F6E000E3520206E000E362068
:103DE800216E000E3720226E2CC123F02DC124F045
:103DF8002EC125F02FC126F0000E8FEC49F02F0EB2
:103E080034241F6E000E3520206E000E3620216EE1
:103E1800000E3720226E30C123F031C124F032C1A8
:103E280025F033C126F0000E8FEC49F0330E342410
:103E38001F6E000E3520206E000E3620216E000EFB
:103E48003720226E34C123F035C124F0000E82ECF5
:103E58004AF0350E34241F6E000E3520206E000EF9
:103E68003620216E000E3720226E36C123F0000E58
:103E78007FEC4BF01200000E476E000E1D6EA80E70
:103E88001C6E6DEC4BF01C041D10D8A41FD0000E46
:103E98001C6EA80E1B6E000E1E6E000E1D6EF3EC3F
:103EA8004BF00001EE51D8B40CD0000E486E4850CB
:103EB80031EC29F0482A0E0E4864F9D7D7EC46F0C1
:103EC80005D0510EA3EC4CF0A2EC4BF0000E1D6E89
:103ED800A70E1C6E6DEC4BF01C041D10D8A42DD041
:103EE800000E1C6EA70E1B6E000E1E6E000E1D6EC1
:103EF800F3EC4BF00001EE51D8B41AD0240E1E6E2C
:103F0800FE0E1F6E070E216ED00E206E000E226E62
:103F1800010E236EBEEC40F0000E496E49505EEC77
:103F280031F0492A090E4964F9D7010E476E05D0C8
:103F3800510EA3EC4CF0A2EC4BF0000E1D6EA60E39
:103F48001C6E6DEC4BF01C041D10D8B403D0475008
:103F5800D8B43DD0000E1C6EA60E1B6E000E1E6E51
:103F6800000E1D6EF3EC4BF00001EE51D8B42AD0D0
:103F7800CD0E1E6EFE0E1F6E070E216ED00E206E29
:103F8800000E226E010E236EBEEC40F016EC22F0FD
:103F9800A00E1E6EFF0E1F6E070E216ED00E206E35
:103FA800010E226E000E236EBEEC40F0D7EC46F0F8
:103FB800320E0001E119E211D8A409D0500EA3EC89
:103FC8004CF005D0510EA3EC4CF0A2EC4BF0000ED7
:103FD8001D6EA90E1C6E6DEC4BF01C041D10D8A4B0
:103FE8001200000E1C6EA90E1B6E000E1E6E000E37
:103FF8001D6EF3EC4BF00001EE51D8B43CD0C10E6D
:104008001E6EFF0E1F6E070E216ED00E206E000E64
:10401800226E010E236EBEEC40F0130E0001F8195B
:10402800F911D8A402D0000E466E150EF819F91130
:10403800D8A402D0050E466E050E306E46505CECD4
:1040480036F0000E4A6E4A5031EC29F04A2A0E0E1C
:104058004A64F9D7D7EC46F0CC0E1E6EFF0E1F6EE1
:10406800070E216ED00E206E010E226E000E236EFA
:10407800BEEC40F01200510EA3EC4CF0A2EC4BF059
:104088001200436E43503C6E3D6AFF0E3E6EFF0EBB
:104098003F6E0001E951406E416A3E5040263F5054
:1040A80041223C50405C4150800A426E3D50800A9B
:1040B8004258D8A012004350360DF3CF3CF0F4CF4D
:1040C8003DF0100E3C26000E3D223CC044F03DC0A1
:1040D80045F0000E45BEFF0E466E476E44C01BF00D
:1040E80045C01CF046C01DF047C01EF0000E75EC20
:1040F80049F01BC001F11CC002F1020E4424106EED
:10410800000E4520116E000E4620126E000E47204C
:10411800136E0D0E146E010E156E000E24EC26F0B3
:104128000C0E4424106E000E4520116E000E462021
:10413800126E000E4720136E030E146E010E156EDC
:10414800000E24EC26F0160E4424106E000E4520B6
:10415800116E000E4620126E000E4720136E210EBF
:10416800146E010E156E000E24EC26F0200E442469
:10417800106E000E4520116E000E4620126E000EC5
:104188004720136E170E146E010E156E000E24ECE8
:1041980026F02A0E44241B6E000E45201C6E000ECD
:1041A80046201D6E000E47201E6E000E5BEC4BF085
:1041B80001012B6F2B0E44241B6E000E45201C6E34
:1041C800000E46201D6E000E47201E6E000E07ECE6
:1041D8003EF01BC02CF11CC02DF11DC02EF11EC0DD
:1041E8002FF12F0E44241B6E000E45201C6E000E6E
:1041F80046201D6E000E47201E6E000E07EC3EF096
:104208001BC030F11CC031F11DC032F11EC033F1AA
:10421800330E44241B6E000E45201C6E000E4620F3
:104228001D6E000E47201E6E000E75EC49F01BC077
:1042380034F11CC035F1350E44241B6E000E4520A8
:104248001C6E000E46201D6E000E47201E6E000ECE
:104258005BEC4BF00101366F1200000E1C6E020E73
:104268001B6E000E1E6E000E1D6EF3EC4BF0000E62
:104278001C6E030E1B6E000E1E6E000E1D6EF3EC00
:104288004BF0000E1C6E040E1B6E000E1E6E000E10
:104298001D6EF3EC4BF0000E1C6E050E1B6E000E2F
:1042A8001E6E000E1D6EF3EC4BF00001F399000E2C
:1042B8000A6E100E096E09EC49F00001F36FF35114
:1042C800D8B41200170E206EFF0E216E89EC38F05C
:1042D800B70E206EFE0E216E89EC38F0000E6BECE6
:1042E80045F00001F3A116D0F391B60E206EFF0E33
:1042F800216E89EC38F0000E1C6E020E1B6E000E4B
:104308001E6E010E1D6EF3EC4BF0000E0101906F56
:10431800000E8F6F510E0001E119E211D8B4F3AF0E
:1043280016D0F39FAB0E206EFF0E216E89EC38F08D
:10433800000E1C6E130E1B6E000E1E6E010E1D6EFF
:10434800F3EC4BF0000E0101E46F1E0E04D0000EDA
:104358000101E46F000EE36F0001F3A516D0F39599
:10436800360E206EFF0E216E89EC38F0000E1C6EA2
:10437800030E1B6E000E1E6E010E1D6EF3EC4BF04D
:10438800000E0101EA6F1E0E04D0000E0101EA6F53
:10439800000EE96F0001F3A717D0F397F389050E14
:1043A800206EFF0E216E89EC38F0000E1C6E040E94
:1043B8001B6E000E1E6E010E1D6EF3EC4BF0000E10
:1043C8000101E86F1E0E04D0000E0101E86F000E17
:1043D800E76F0001F3A316D0F393270E206EFF0EAC
:1043E800216E89EC38F0000E1C6E050E1B6E000E57
:1043F8001E6E010E1D6EF3EC4BF0000E0101E66F10
:104408001E0E04D0000E0101E66F000EE56FAC0E23
:10441800096E0D0E0A6E000E0B6E000E0C6EB0ECDF
:1044280046F01200040E216E21C01CF0D8901C32F8
:104438001C28226E2150010B236E2150120DF350BF
:10444800EC0F206E010E20240D6E0E6A000E0E2257
:10445800B3EC48F00DC01EF00EC01FF02350070D3E
:10446800F3CF24F01FC025F01EC026F00A0E0C6EF4
:10447800030E0D6E240E0E6E0F6A2250C7EC23F049
:10448800070E1D6E170E1C6E6A0EE82EFED71C2E28
:10449800FCD71D2EFAD700D02350070DF350020F7A
:1044A800246E030E2024096E0A6A000E0A2209EC03
:1044B80049F0256E080E0C6E020E0D6E240E0E6E5F
:1044C8000F6A2250C7EC23F0070E1D6E170E1C6EE4
:1044D8006A0EE82EFED71C2EFCD71D2EFAD700D068
:1044E8002350070DF350030F246E040E2024096E89
:1044F8000A6A000E0A2209EC49F0256E080E0C6EB5
:10450800020E0D6E240E0E6E0F6A2250C7EC23F0B9
:10451800070E1D6E170E1C6E6A0EE82EFED71C2E97
:10452800FCD71D2EFAD700D02350070DF350040FE7
:10453800246E050E2024096E0A6A000E0A2209EC70
:1045480049F0256E080E0C6E020E0D6E240E0E6ECE
:104558000F6A2250C7EC23F0070E1D6E170E1C6E53
:104568006A0EE82EFED71C2EFCD71D2EFAD700D0D7
:10457800100E20240D6E0E6A000E0E22B3EC48F0C9
:104588000DC01EF00EC01FF02350070DF350050F8D
:10459800246E1FC025F01EC026F00A0E0C6E030EF6
:1045A8000D6E240E0E6E0F6A2250C7EC23F0070E14
:1045B8001D6E170E1C6E6A0EE82EFED71C2EFCD739
:1045C8001D2EFAD700D02304D8A40AD0010E0C6EF1
:1045D800000E0D6E240E0E6E0F6A2250C7EC23F0EB
:1045E800212A0E0E216420D71200196E000E1A6EB1
:1045F800000E0101A86F050EA76F135005E1020E0A
:10460800125CD8B0120001D01200135003E112045A
:10461800D8A002D0080E01D0000E1A6E19C01BF0E7
:10462800D8901B36A00E1B121B801A501B122AECA6
:104638004CF01BC017F0FE0E171617500B6E0C6AC5
:1046480078EC4CF011C00BF00C6A78EC4CF010C010
:104658000BF00C6A78EC4CF087EC4CF01BC00BF0BC
:104668000C6A78EC4CF0000E186E79D013507BE190
:10467800020E125CD8B077D010C017F0010E1726C2
:104688007F0E1716D8A451D0000E0C6E000E0B6EBC
:1046980014EC45F00B5015C0D9FF16C0DAFFDF6ED9
:1046A80095EC4CF015C0D9FF16C0DAFFDF5037EC97
:1046B8004CF0340E176EF20EE82EFED7172EFCD7EC
:1046C800010E1026000E112212221322135003E1AC
:1046D8001204D8A002D0080E01D0000E1A6E19C01C
:1046E8001BF0D8901B36A00E1B121B801A501B12F1
:1046F8002AEC4CF01BC017F0FE0E171617500B6E65
:104708000C6A78EC4CF011C00BF00C6A78EC4CF0A9
:1047180010C00BF00C6A78EC4CF087EC4CF01BC026
:104728000BF00C6A78EC4CF019D0000E0C6E010EF0
:104738000B6E14EC45F00B5015C0D9FF16C0DAFF0C
:10474800DF6E15C0D9FF16C0DAFFDF5037EC4CF02A
:10475800010E1026000E112212221322182A1450BC
:10476800185CD8A083D7000E0C6E000E0B6E14ECEC
:1047780045F095EC4CF0070E176EC00EE82EFED7EC
:10478800172EFCD71200146E15681668000E176EE7
:104798000F0E0C18D8B410D00D0E0C18D8B40CD0BD
:1047A800180E0C18D8B408D0160E0C18D8B404D0AB
:1047B800410E0C18D8A40AD0010E176E20EE05F091
:1047C8000E50D9260F50DA22DF501A6EAA0E0B6E41
:1047D800BB0E0A6E9CEC4CF0000E37EC4CF01450FB
:1047E80037EC4CF00C5037EC4CF00D5037EC4CF0EB
:1047F800000E1B6E0AD01B500E24D96E000E0F201F
:10480800DA6EDF5037EC4CF01B2A0D501B5CD8A039
:10481800F2D7D50EE82EFED700F00001F591000E74
:10482800196E000E186EE40E00D000D0E82EFCD7EA
:1048380000D000D00001F5A13BD0150E106EC60EB9
:10484800E82EFED7102EFCD700D01750D8B405D0CC
:1048580025EEB9F01AC0DFFF03D0020EE8CFB9F594
:10486800000E1B6E0FD0BA0E1B24D96EDA6A050E25
:10487800DA221B500E24E16E000E0F20E26EDFCF0D
:10488800E7FF1B2A25EEB9F0DE501B5CD8A0EBD75A
:10489800BBC510F01050BAC511F011C012F0136A60
:1048A80012C013F0126A1210156E1350166E0AD049
:1048B800184A192A19BEB7D7900E185C010E195854
:1048C800D8A0B1D70001F5B125D0020EE8CFB9F5CF
:1048D800FF0EE8CFBAF5FF0EE8CFBBF515681668EE
:1048E8001750D8B417D025EEB9F01AC0DFFF000E64
:1048F8001B6E09D0BA0E1B24D96EDA6A050EDA22AD
:10490800FF0EDF6E1B2A1B501ABE04D0FF0A1A24A2
:10491800D8B0F0D70001F59115C00CF016C00DF015
:1049280012002C6E000E2D6E2D50110D000EF3246A
:10493800156E040EF420166E2D50CFEC36F02D2A8D
:10494800090E2D64F1D7000E326EA00E286E020EED
:10495800296E2C50A00DF3CF2AF0F4CF2BF0325053
:10496800100DF3502A26F4502B2228502A262950BD
:104978002B222AC02EF02BC02FF0000E2FBEFF0EC8
:10498800306E316E2EC01FF02FC020F030C021F0E5
:1049980031C022F03250110D010EF324D96E040EED
:1049A800F420DA6EDECF23F0DDCF24F0000E82ECA7
:1049B8004AF0020E2E241F6E000E2F20206E000ECD
:1049C8003020216E000E3120226E3250110D030E60
:1049D800F324D96E040EF420DA6EDF50236E000E35
:1049E8007FEC4BF0030E2E241F6E000E2F20206E3E
:1049F800000E3020216E000E3120226E3250110D33
:104A0800040EF324D96E040EF420DA6EDF50236E00
:104A1800000E7FEC4BF0040E2E241F6E000E2F208C
:104A2800206E000E3020216E000E3120226E325092
:104A3800110D050EF324D96E040EF420DA6EDF5042
:104A4800236E000E7FEC4BF0050E2E240D6E000E2B
:104A58002F200E6E000E30200F6E000E3120106ECB
:104A68003250110D060EF324116E040EF420126E4E
:104A7800000E6FEC32F00F0E2E241F6E000E2F204A
:104A8800206E000E3020216E000E3120226E325032
:104A9800110D0F0EF324D96E040EF420DA6EDF50D8
:104AA800236E000E7FEC4BF0322A090E32644DD78C
:104AB8001200000E136EB30E126EDF0E146E010E8E
:104AC800156E040E166E7AEC34F0E1C128F0296AEE
:104AD8002A6A2B6A2AC02BF029C02AF028C029F09C
:104AE800286AE0C12CF02D6A2E6A2F6A2DC02FF09B
:104AF8002CC02EF02D6A2C6ADFC130F0316A326A80
:104B0800336A30C033F0326A316A306A2C5030244C
:104B1800346E2D503120356E2E503220366E2F5087
:104B28003320376E28503424386E29503520396E9A
:104B38002A5036203A6E2B5037203B6E0101E25145
:104B480038243C6E000E39203D6E000E3A203E6E31
:104B5800000E3B203F6E3C503D103E103F10D8B435
:104B6800120077513C186BE178513D1868E1795192
:104B78003E1865E17A513F18D8A41200000E1B6E4A
:104B8800B30E1A6E000E1C6E000E1D6E000E1E6E09
:104B9800000E1F6EFEEC46F0000E1D6EB20E1C6E6F
:104BA8006DEC4BF01C041D10D8A41DD0000E756EC2
:104BB800000E0001EE6F010193699469000E1C6EEE
:104BC800B20E1B6E000E1E6E000E1D6EF3EC4BF047
:104BD800000E1C6E9A0E1B6E000E1E6E000E1D6ED1
:104BE800F3EC4BF028D0000E1D6EB20E1C6E6DEC6F
:104BF8004BF01C501D10D8A41ED0010E756E010E6E
:104C08000001EE6F000E0101946F0A0E936F000E03
:104C18001C6EB20E1B6E000E1E6E010E1D6EF3ECA6
:104C28004BF0000E1C6E9A0E1B6E000E1E6E010ECF
:104C38001D6EF3EC4BF066EC4CF0D7EC46F012002E
:104C4800186E000E196E135005E1020E125CD8B0F2
:104C5800120001D01200135003E11204D8A002D0B0
:104C6800080E01D0000E196E18C01AF0D8901A3626
:104C7800A00E1A121A8019501A122AEC4CF01AC0F7
:104C880016F0FE0E161616500B6E0C6A78EC4CF0E9
:104C980011C00BF00C6A78EC4CF010C00BF00C6AE9
:104CA80078EC4CF087EC4CF01AC00BF00C6A78ECFE
:104CB8004CF0000E176E135079E1020E125CD8B05A
:104CC80075D010C016F0010E16267F0E1616D8A441
:104CD8004CD0000E0C6E000E0B6E14EC45F00B5011
:104CE80014C0D9FF15C0DAFFDF6E95EC4CF0340E16
:104CF800166EF20EE82EFED7162EFCD7010E1026E1
:104D0800000E112212221322144A152A135003E10D
:104D18001204D8A002D0080E01D0000E196E18C0D7
:104D28001AF0D8901A36A00E1A121A8019501A12B0
:104D38002AEC4CF01AC016F0FE0E161616500B6E22
:104D48000C6A78EC4CF011C00BF00C6A78EC4CF063
:104D580010C00BF00C6A78EC4CF087EC4CF01AC0E1
:104D68000BF00C6A78EC4CF01BD0000E0C6E010EA8
:104D78000B6E14EC45F00B5014C0D9FF15C0DAFFC8
:104D8800DF6E14C0D9FF15C0DAFFDF50D8B40ED0DB
:104D9800144A152A010E1026000E1122122213227F
:104DA800172A1704166E3F0E166485D7000E0C6E70
:104DB800000E0B6E14EC45F095EC4CF0070E166ED9
:104DC800C00EE82EFED7162EFCD712005A0E0B6E18
:104DD800A50E0A6E9CEC4CF0030E37EC4CF0810EDD
:104DE80037EC4CF0200E37EC4CF0070E37EC4CF05B
:104DF8009C0E1D6ED70EE82EFED71D2EFCD700F098
:104E08001BEC48F00009D8B416D0000E3B6E3B509E
:104E1800060F1D6E1E6AB40E1D24D96E050E1E20C7
:104E2800DA6E3B501F0FE16EE26ADFCFE7FF3B2AE5
:104E3800090E3B64ECD7290E096E1F500DEC4AF0A1
:104E48002C0E096E20500DEC4AF02F0E096E2150E1
:104E58000DEC4AF01BC00DF00E6A0C0E0F6EFD0E25
:104E6800106E95EC45F01BC017F0186A2F0E196EDE
:104E78001A6A11EC4BF01BC017F0186AFA0E196E7B
:104E8800FF0E1A6E11EC4BF01BC017F0186A2C0EAF
:104E9800196E1A6A11EC4BF01BC017F0186AFA0E5B
:104EA800196EFF0E1A6E11EC4BF01BC017F0186A42
:104EB800290E196E1A6A11EC4BF0320E096E235046
:104EC8000DEC4AF0350E096E24500DEC4AF0380E00
:104ED800096E25500DEC4AF01CC00DF00E6A0C0E40
:104EE8000F6EFD0E106E95EC45F01CC017F0186A99
:104EF800320E196E1A6A11EC4BF01CC017F0186AC2
:104F0800FC0E196EFF0E1A6E11EC4BF01CC017F058
:104F1800186A350E196E1A6A11EC4BF01CC017F09E
:104F2800186AFC0E196EFF0E1A6E11EC4BF01CC0BD
:104F380017F0186A380E196E1A6A11EC4BF0010E48
:104F4800096E000E0A6E000E0B6E000E0C6E24EC3D
:104F580047F012001C6E000E0101A86F050EA76F26
:104F6800105005E1020E0F5CD8B0120001D01200FB
:104F7800105003E10F04D8A002D0080E01D0000E93
:104F88001D6E1CC01EF0D8901E36A00E1E121D509D
:104F98001E122AEC4CF01EC00BF00C6A78EC4CF098
:104FA8000EC00BF00C6A78EC4CF00DC00BF00C6ADC
:104FB80078EC4CF0000E1B6E63D0105005E1020E29
:104FC8000F5CD8B0120001D012000DC014F0010E11
:104FD80014267F0E1416D8A43FD012C0D9FF13C0D0
:104FE800DAFFDF50146E14500B6E0C6A78EC4CF03C
:104FF80095EC4CF0340E146EF20EE82EFED7142EFB
:10500800FCD7010E0D26000E0E220F221022124A86
:10501800132A105003E10F04D8A002D0080E01D0C3
:10502800000E1D6E1CC01EF0D8901E36A00E1E125B
:105038001D501E122AEC4CF01EC00BF00C6A78ECC6
:105048004CF00EC00BF00C6A78EC4CF00DC00BF075
:105058000C6A78EC4CF013D012C0D9FF13C0DAFFF9
:10506800DF50146E14500B6E0C6A78EC4CF0124A38
:10507800132A010E0D26000E0E220F2210221B2AC3
:10508800FF0E146EFF0E156E1150166E176A14502F
:105098001626155017221B50186E196A1650185CE0
:1050A8001950800A1A6E1750800A1A58D8A085D746
:1050B80012C0D9FF13C0DAFFDF50146E14500B6E04
:1050C8000C6A78EC4CF095EC4CF0340E146EF20E41
:1050D800E82EFED7142EFCD71200186E000E196E9B
:1050E800000E0101A86F050EA76F135005E1020E0F
:1050F800125CD8B0120001D01200135003E1120460
:10510800D8A002D0080E01D0000E196E18C01AF0EF
:10511800D8901A36A00E1A121A8019501A122AECB0
:105128004CF01AC016F0FE0E161616500B6E0C6ACE
:1051380078EC4CF011C00BF00C6A78EC4CF010C015
:105148000BF00C6A78EC4CF087EC4CF01AC00BF0C2
:105158000C6A78EC4CF0000E176E6BD013506DE1B2
:10516800020E125CD8B069D010C016F0010E1626D7
:105178007F0E1616D8A44AD01550D96EDA6A000EDA
:105188000C6E000E0B6E14EC45F00B50DF6E95ECB8
:105198004CF0340E166EF20EE82EFED7162EFCD703
:1051A800010E1026000E112212221322152A135066
:1051B80003E11204D8A002D0080E01D0000E196E27
:1051C80018C01AF0D8901A36A00E1A121A80195060
:1051D8001A122AEC4CF01AC016F0FE0E16161650CB
:1051E8000B6E0C6A78EC4CF011C00BF00C6A78EC82
:1051F8004CF010C00BF00C6A78EC4CF087EC4CF0DB
:105208001AC00BF00C6A78EC4CF012D01550D96E1D
:10521800DA6A000E0C6E010E0B6E14EC45F00B50A2
:10522800DF6E152A010E1026000E112212221322FB
:10523800172A1450175CD8A091D7000E0C6E000ED8
:105248000B6E14EC45F095EC4CF0070E166EC00E84
:10525800E82EFED7162EFCD71200296E2950010B16
:10526800256E25C023F029500C0DF3CF21F0F4CF83
:1052780022F0E60E2124266E000E2220276E030E51
:1052880029641200040E295E2950120DF350340FC0
:10529800286E2950010B256E25C023F029500C0DCE
:1052A800F3CF21F0F4CF22F0E60E2124266E000E73
:1052B8002220276E26C01BF027C01CF028C009F04A
:1052C8000A6A09EC49F0216E010E21241D6E1E6A3E
:1052D800000E1E22F3EC4BF0020E26241B6E000E6D
:1052E80027201C6E010E28240D6E0E6A000E0E2259
:1052F800B3EC48F00DC01DF00EC01EF0F3EC4BF0FF
:10530800030E26241B6E000E27201C6E030E282475
:10531800096E0A6A000E0A2209EC49F0216E215032
:105328001D6E1E6AF3EC4BF0040E26241B6E000E55
:1053380027201C6E040E2824096E0A6A000E0A2211
:1053480009EC49F0216E21501D6E1E6AF3EC4BF0FA
:10535800050E26241B6E000E27201C6E050E282421
:10536800096E0A6A000E0A2209EC49F0216E2150E2
:105378001D6E1E6AF3EC4BF0060E28240D6E0E6AA5
:10538800000E0E22A50E0F6E020E106E40EC49F0B4
:10539800060E26241A6E000E27201B6EA50E1C6E04
:1053A800020E1D6EFEEC4AF00B0E26241B6E000E3C
:1053B80027201C6E100E28240D6E0E6A000E0E2279
:1053C800B3EC48F00DC01DF00EC01EF0F3EC4BF02E
:1053D8001200000E0E6EFA0E0D6EB3EC48F00DC002
:1053E800E1F00EC0E2F0000E1C6ED60E1B6EE1C09E
:1053F8001DF0E2C01EF0F3EC4BF0320E0001E11993
:10540800E211D8A42AD0F80E0101386F000E376FC8
:10541800070E3A6FE00E396F000E3C6F1F0E3B6FA0
:10542800000E3E6F000E3D6FD50E406F400E3F6F71
:10543800F80E426F1F0E416FFB0E446FE00E436F74
:10544800456946694769486949694A694B694C69C8
:105458004D694E694F6950691200500EE119E21109
:10546800D8A436D0000E0101386F000E376F390E00
:105478003A6FE70E396F6B0E3C6F6D0E3B6F780E0F
:105488003E6F000E3D6F9A0E406F230E3F6FF80E71
:10549800426F000E416FFB0E446FE00E436FFB0E30
:1054A800466FF70E456FD50E486F400E476F030ED7
:1054B8004A6FE00E496F070E4C6FE00E4B6F000EFF
:1054C8004E6F1F0E4D6FF80E506F1F0E4F6F12006C
:1054D800510EE119E211D8A41AD0F80E0101386F63
:1054E800000E376F070E3A6FE00E396F000E3C6FF3
:1054F8001F0E3B6F000E3E6F000E3D6FF80E406FA3
:10550800000E3F6F416942694369446999D70101B7
:105518003769386939693A693B693C693D693E6967
:105528003F69406941694269436944694569466917
:105538004769486949694A694B694C694D694E69C7
:105548004F6950691200000E136E9B0E126EDF0E2B
:10555800146E010E156E040E166E7AEC34F0E1C16D
:1055680024F0256A266A276A26C027F025C026F077
:1055780024C025F0246AE0C128F0296A2A6A2B6A27
:1055880029C02BF028C02AF0296A286ADFC12CF02C
:105598002D6A2E6A2F6A2CC02FF02E6A2D6A2C6A6B
:1055A80028502C24306E29502D20316E2A502E2060
:1055B800326E2B502F20336E24503024346E2550F9
:1055C8003120356E26503220366E27503320376E04
:1055D8000101E2513424386E000E3520396E000E78
:1055E80036203A6E000E37203B6E385039103A108C
:1055F8003B10D8B434D07751381831E17851391884
:105608002EE179513A182BE17A513B18D8A427D0CA
:10561800750E946F300E936F010E0001EE6F000E41
:105628001C6E9A0E1B6E000E1E6E010E1D6EF3ECA4
:105638004BF0000E1C6E9B0E1B6E000E1E6E000EB5
:105648001D6EF3EC4BF0000E1C6E9C0E1B6E000ED4
:105658001E6E000E1D6EF3EC4BF0D7EC46F0000109
:10566800EE05D8A412D0010194AF0FD0000E0001AE
:10567800EE6F000E1C6E9A0E1B6E000E1E6E000E54
:105688001D6EF3EC4BF0A2EC4BF06FEC4CF05A0AA9
:10569800D8A41200750E0101946F300E936F000E9E
:1056A80050EC4CF01200000E1D6E040E1C6E6DECDA
:1056B8004BF01C041D10D8A43DD00001F3B73AD01C
:1056C800000E226E040E216E000E236EC9EC39F016
:1056D8000009D8A404D0460EA3EC4CF01200000137
:1056E800E351E55DE651800A466EE451800A46586A
:1056F800D8B01AD0000E3E6E040E3D6EE70E3F6E17
:10570800010E406E9F0E416EFD0E426EE7EC31F0C9
:105718000009D8B412000001F387010EC3EC4BF066
:10572800010E6BEC45F01200000EC3EC4BF025ECBB
:1057380049F01200000E1D6E040E1C6E6DEC4BF04D
:105748001C501D10D8A42AD00001F3A727D0000EA2
:10575800226E040E216E010E236EC9EC39F0000989
:10576800D8A404D0460EA3EC4CF012000001F39725
:10577800000EC3EC4BF0000E0101E86F000EE76F5E
:10578800000E1C6E060E1B6E000E1E6E000E1D6EA9
:10579800F3EC4BF0010E0101AE6F1200000E1D6E0E
:1057A800040E1C6E6DEC4BF01C041D10D8A416D012
:1057B8000001F3A713D0E351E55DE651800A466E78
:1057C800E451800A4658D8B005D0F489010EC3ECDC
:1057D8004BF01200000EC3EC4BF0A9D7000E1D6E63
:1057E800040E1C6E6DEC4BF01C501D10D8A412005A
:1057F8000001F3B71200000E0101E86F000EE76F19
:105808001200000E226E050E216E010E236EC9ECE9
:1058180039F00009D8A404D0460EA3EC4CF01200CD
:10582800000E1D6E050E1C6E6DEC4BF01C041D1059
:10583800D8A43CD00001F3B339D00101855100014F
:10584800E55DE651800A466E01018651800A465898
:10585800D8B021D083518B5D8C51800A466E84511B
:10586800800A4658D8B017D0000E3E6E050E3D6E21
:10587800E50E3F6E010E406E4C0E416EFC0E426E00
:10588800E7EC31F00009D8B412000001F383010EEF
:1058980017EC44F012000001F393000E17EC44F0EB
:1058A800000E0101E66F000EE56F1200000E1D6E7E
:1058B800050E1C6E6DEC4BF01C501D10D8A408D0C2
:1058C8000001F3A305D0F393000E17EC44F0120087
:1058D800000E1D6E050E1C6E6DEC4BF01C041D10A9
:1058E800D8A422D00001F3A31FD0010185510001E3
:1058F800E55DE651800A466E01018651800A4658E8
:10590800D8B00ED083518B5D8C51800A466E84517D
:10591800800A4658D8B004D0010E17EC44F01200A3
:10592800000E17EC44F01200000E1D6E050E1C6EE2
:105938006DEC4BF01C501D10D8A412000001F3B3FD
:105948001200AED7116E1150D8A40CAE1AD009C0EF
:105958000DF00AC00EF00BC00FF00CC010F00D1EB9
:105968000E1E0F1E101E0D2A000E0E220F221022D0
:105978000DC013F00EC014F00FC015F010C016F0D3
:1059880008D009C013F00AC014F00BC015F00CC001
:1059980016F009500A100B100C10D8A409D0000EEC
:1059A800096E000E0A6E000E0B6E000E0C6E1200D1
:1059B800960E126E06D0122AD8901632153214326C
:1059C8001332000E13140D6E000E14140E6E000E1A
:1059D80015140F6EFE0E1614106E0D500E100F10CB
:1059E8001010D8B40DD0E7D7122A010E1326000ED6
:1059F800142215221622D890163215321432133278
:105A0800000E13140D6E000E14140E6E000E1514F5
:105A18000F6EFF0E1614106E0D500E100F10101092
:105A2800D8B407D0E1D71206D890133614361536F5
:105A3800163615BE03D0020E1260F5D712A0159EB9
:105A4800D890123212C00DF00E6A0F6A106A0DC09B
:105A580010F00F6A0E6A0D6A0D5013120E501412D0
:105A68000F501512105016121150D8A40CAE01D0B8
:105A7800168E13C009F014C00AF015C00BF016C03A
:105A88000CF012006CEC4AF00101006F000E1B6E66
:105A9800000E1C6E000E1D6E000E1E6E000E75ECC4
:105AA80049F01BC061F01CC062F0614A622A100E06
:105AB800615C270E6258D8A004D0000E626E000EFA
:105AC800616E000E1F6E000E206E000E216E000E1D
:105AD800226E61C023F062C024F0000E82EC4AF00E
:105AE800570E1B6E4D0E1C6EEAEC26F0000E0101DF
