:040000004EEF01F0CE
:100018007780D8CF04F0E8CF05F0E0CF06F0D9CF4D
:1000280007F0DACF08F09EAA54D0959C838C010E75
:100038000101806F900E7F6F000E706E000E6F6E64
:10004800AB690001F581AA0E01017D6F040E7E6F78
:100058009598838827D09EAA22D0839883887DC1CB
:10006800D9FF7EC1DAFFAECFDFFF70BE06D0090E22
:100078006F5C010E7058D8B004D06F4A702A7D4B5F
:100088007E2BAEC4E8FF180AD8A404D01F0E806FD8
:10009800400E03D0010E806F900E7F6F03D07F0754
:1000A800D8A080077F518011D8A4D5D78398ABA258
:1000B80010D0AB98AB88AECF7FF1806BAECF7FF11D
:1000C800806BAECF7FF1806B000EE8CFAAF4000101
:1000D800F5839EA0B1D09E903C0ECF6EB40ECE6E2E
:1000E800010E716E0001F2B102D0000E716E000EA9
:1000F800706E010E6F6E0DD0510E6F24D96E010E09
:100108007020DA6EDF50D8A402D0000E716E6F4AEC
:10011800702A7450016E026A6F50015C0250800AA6
:10012800036E7050800A0358D8B0E6D77104D8A47B
:100138001AD004000001F291000E706E010E6F6E6D
:1001480070BE06D070500FE10F0E6F5CD8B00BD0A8
:10015800510E6F24D96E010E7020DA6E000EDF6E1C
:100168006F4A702AEDD7F50E01016E5D010E6F59C9
:10017800D8A002D0819E01D0818EA551A611D8B4F5
:1001880005D0320EA55F000EA65B06D0E7C0A5F12C
:10019800E8C0A6F10001F58D320E01019727000E87
:1001A8009823320EA727000EA8237550D8B496BFFF
:1001B80004D0CE0E9527FF0E9623320E9327000EFD
:1001C8009423320E6E27000E6F23E80E6E5D030E29
:1001D8006F59D8A031D00001F3A912D0F12B3B0EF2
:1001E800F1650ED0000EF16FF02B3B0EF06508D0D4
:1001F800000EF06FEF2B630EEF6502D0000EEF6F6D
:10020800000E01016F6F000E6E6F702B7350D8A433
:1002180073063B0E706510D0000E706F712BA34BE8
:10022800A42B3B0E716508D0000E716F722B170E50
:10023800726502D0000E726FF2B2F292F2A41ED072
:100248000D0EE82EFED700F0000ED76EE10ED66E2A
:10025800F29401019D519E11D8B405D09D07D8A0F4
:100268009E07818C01D0819CA951AA11D8B405D0D0
:10027800A907D8A0AA07818A01D0819A08C0DAFF05
:1002880007C0D9FF06C0E0FF05C0E8FF04C0D8FFDB
:1002980077901000F2EF3EF0640E096E000E0A6EC1
:1002A800000E0B6E000E0C6ED8EC45F0D388D38A86
:1002B800D38CD390D3929B8CEF0E926E010E936EDB
:1002C800F00E946EE30E956E9668D59AD596D58203
:1002D800D582D584F194F28AF290F2989E909F90FC
:1002E8000B0ECF6EBA0ECE6ECD92CD88CD8ACD8C48
:1002F800CD869D80CD80F28CF28E000E166EC20ED9
:10030800176E010E186E000E196E08EC43F0A2EC81
:100318004BF0A00E0001966F860E976F010E986F36
:10032800000E996F9CEC3EF0F40E096E010E0A6EF9
:10033800000E0B6E000E0C6ED8EC45F0000E01019D
:100348009A6F000E996F819E000E9E6F000E9D6F32
:10035800819C000EAA6F000EA96F819A000E0E6E86
:10036800FA0E0D6EDBEC47F00DC0E1F00EC0E2F0C6
:10037800320E0001E119E211D8A402D0090E0DD005
:10038800500EE119E211D8A402D00C0E06D0510E7D
:10039800E119E211D8A402D0080EE96F000E0E6E22
:1003A800220E0D6EDBEC47F00DC0F6F20EC0F7F230
:1003B8000201F62917E1F729D8A414D0000E296EF6
:1003C800220E286E000E2B6E000E2A6EF7EC49F0F6
:1003D800000E296EE80E286E000E2B6E000E2A6E97
:1003E800F7EC49F00201F64BF72B000E296E220EAE
:1003F800286EF6C22AF0F7C22BF0F7EC49F000019C
:10040800F499000E0A6E340E096E15EC48F0FF0AD6
:10041800D8A480D0340E206EFC0E216E78EC38F013
:10042800370E206EFE0E216E78EC38F00A0E306E14
:10043800000E4BEC36F097EC46F0E7EC44F0A8ECF5
:1004480043F0000E756E000E0001EE6F72EC4BF07B
:10045800000E236E100E226E000E246E0CEC44F07B
:10046800000E296E090E286E000E2B6E0A0E2A6EDB
:10047800F7EC49F0000E296E0B0E286E400E2A6E1E
:10048800E20E2B6E010E2C6E000E2D6E4AEC49F01A
:10049800000EB4EC0CF0000E236E110E226E000E4E
:1004A800246E0CEC44F0000E236E120E226E000E29
:1004B800246E0CEC44F02EEC37F0000E1F6E000E8C
:1004C800206E000E216E000E226E000E246E000EAD
:1004D800236E000E8EEC49F0020E1F6E000E206E89
:1004E800000E216E000E226E000E236E000E246E8A
:1004F800000E256E000E266E000E9BEC48F0000ED6
:10050800296EFA0E286E000E2B6E320E2A6EF7EC4C
:1005180049F006D0690E206EFD0E216E78EC38F099
:10052800B2EC3BF0010EB4EC0CF0000E0E6E0B0EAC
:100538000D6E82EC47F00DC077F10EC078F10FC058
:1005480079F110C07AF1CEEC41F016EC3CF0CEEC2B
:1005580048F0020E1B6E000E1C6E000E1D6E000E83
:100568001E6E000E34EC3DF01BC0DBF01CC0DCF04E
:100578001DC0DDF01EC0DEF0E80E096E030E0A6E27
:10058800000E0B6E000E0C6ED8EC45F08EEC1BF0D6
:10059800C40E096E090E0A6E000E0B6E000E0C6E6C
:1005A800D8EC45F0000E0201F86F0E0EF86501D088
:1005B80008D004000201F85138EC29F00201F82BA8
:1005C800F4D7000EF96F070EF96501D009D00400C1
:1005D800F9C221F0226A4AEC31F00201F92BF3D773
:1005E800000E0E6E0B0E0D6E82EC47F00DC077F10B
:1005F8000EC078F10FC079F110C07AF1CEEC41F05D
:1006080081EC11F016EC3CF0CEEC48F09BEC3FF09E
:1006180010EC42F0000E0001F96F000EF86F000EAA
:100628000101FD6F000EFC6F000EB26F000E986F97
:10063800000E976F000EB06F000E8C6F000E8B6F60
:10064800000E8A6F000E896F000E0001E66F000E23
:10065800E56F000E0101906F000E8F6F000E8E6F18
:10066800000E8D6F000EB16F000E63EC47F0000EA8
:1006780001016F6F000E6E6F000E706F000E0001AB
:10068800F16FF3C0ADF1000E736E77EC3CF038EC0F
:1006980021F0000E186E0F0E176E0FEC4BF0000EC7
:1006A8001C6E400E1B6E000E1E6E000E1D6EFFECC3
:1006B8004AF00001F49F7690769276947696000E32
:1006C800186E0F0E176E0FEC4BF0000E1C6E010E1D
:1006D8001B6E000E1E6E000E1D6EFFEC4AF0959A02
:1006E800839A0001F5930001F281F487E90E010174
:1006F800975D030E9859D8A019D0000E986F000E78
:10070800976F4DEC3BF012C0F8F013C0F9F00101FF
:10071800FC510001F81906E10101FD510001F91928
:10072800D8B404D0F8C0FCF1F9C0FDF10001F49789
:10073800F487050E0101706109D0190E0001F8193E
:10074800F911D8B403D0000E63EC47F00001F3B9F7
:1007580043EC3EF09BEC3FF010EC42F00001F497C4
:10076800F4EC29F064EC25F081EC11F0CBEC2DF0E1
:10077800510E0001E119E211D8B447EC3FF028EC22
:1007880030F0A4EC2AF052EC2BF00001F5A344D091
:10079800000E0101AA6FC80EA96F3ED0420EB7EC39
:1007A8004BF0000E1C6E160E1B6E000E1E6E000E19
:1007B8001D6EFFEC4AF0020E0101B16F3DD0000E34
:1007C8001D6E060E1C6E79EC4AF0F00E1C181D10FA
:1007D800D8A40DD0000E93EC44F0000E0001EF6F8A
:1007E800000EF06F000E0101B16F43EC3EF0000EF9
:1007F8001D6E060E1C6E79EC4AF0FA0E1C181D10C0
:10080800D8A41AD0000E0101B16F3A0E186E980ED6
:10081800176EE7EC48F010D00101B1510001D76F15
:10082800D86BD851000AD8A407D0D751010AD8B438
:10083800B5D7030AD8B4C3D70001F4879DEC4AF0B2
:100848000001F4AF72EC46F0F497F487D5EF08F0A6
:10085800000E0201FB6F090EFB6501D033D0070EB5
:10086800FB251C6E1D6A000E1D2279EC4AF01C0443
:100878001D10D8A424D0070E0201FB251B6E1C6A8C
:10088800000E1C22000E1E6E000E1D6EFFEC4AF0BC
:10089800FBC2ECF0050E0001EC6109D0130EEB6F02
:1008A800000E186E1B0E176E0FEC4BF008D0150ECD
:1008B800EB6F000E186E1C0E176E0FEC4BF002015A
:1008C800FB2BC9D746EC1FF010EF09F0000E1D6E88
:1008D800010E1C6E79EC4AF01C041D10D8A410EF10
:1008E80009F0000E1C6E010E1B6E000E1E6E000E2F
:1008F8001D6EFFEC4AF05EEC35F010EF09F00101D7
:10090800B251D8A405D0010E63EC47F00101B22B17
:10091800000E1D6E980E1C6E79EC4AF01C041D101A
:10092800D8A40DD0000E1C6E980E1B6E000E1E6E05
:10093800000E1D6EFFEC4AF0010E63EC47F0000E4E
:100948001D6EAE0E1C6E79EC4AF01C041D10D8A466
:1009580010EF09F0000E1C6EAE0E1B6E000E1E6E20
:10096800000E1D6EFFEC4AF061EC45F010EF09F047
:10097800000EED6F070EED6501D02FD0200EED258E
:100988001C6E1D6A000E1D2279EC4AF01C041D1015
:10099800D8A420D0200E0001ED251B6E1C6A000E85
:1009A8001C22000E1E6E000E1D6EFFEC4AF0EBC0FE
:1009B80017F0186A0FEC4BF0D10E176E010E186E77
:1009C8000001ED51E5EC38F0010E216E0001EC510B
:1009D80083EC3AF00001ED2BCDD7000E1D6E110E01
:1009E8001C6E79EC4AF01C041D10D8A40FD0000E20
:1009F8001C6E110E1B6E000E1E6E000E1D6EFFEC9F
:100A08004AF0EBC017F0186A0FEC4BF0000E1D6EA1
:100A1800120E1C6E79EC4AF01C041D10D8A4FCD3ED
:100A2800000E1C6E120E1B6E000E1E6E000E1D6E4A
:100A3800FFEC4AF0000E0101D76FD80E0D6E010EC3
:100A48000E6E360E0F6EFD0E106EBDEC44F0000EED
:100A58000101D66F000ED56F000ED46F000ED36F54
:100A6800000ED26F000ED16F000E216E0001EC5106
:100A780083EC3AF0EBC017F0186A0FEC4BF0CCD3CC
:100A8800000E0201FA6F38D0FA511E0DF3CFD7F0DD
:100A9800F4CFD8F0170E0001D7251C6E100ED82100
:100AA8001D6E79EC4AF01C041D10D8A423D0020155
:100AB800FA511E0DF3CFD7F0F4CFD8F0170E00017E
:100AC800D7251B6E100ED8211C6E000E1E6E000E50
:100AD8001D6EFFEC4AF00201FA514CEC20F0000EBA
:100AE800186E230E176E0FEC4BF068EC4BF06EECA3
:100AF8000FF008D00201FA2B0001E9510201FA5D5A
:100B0800D8A0C2D7000E1D6E300E1C6E79EC4AF0CC
:100B18001C041D10D8A40CD0000E1C6E300E1B6EC9
:100B2800000E1E6E000E1D6EFFEC4AF02EEC37F024
:100B380077EC3CF0000E1D6EAF0E1C6E79EC4AF09F
:100B48001C041D10D8A468D3000E1C6EAF0E1B6EBB
:100B5800000E1E6E000E1D6EFFEC4AF0DEEC46F035
:100B68005BD3100E010177190001D76F2F0E010119
:100B780078190001D86FBA0E010179190001D96FEF
:100B8800E40E01017A190001DA6FD71D0201F06F36
:100B98000001D81D0201F16F0001D91D0201F26F99
:100BA8000001DA1D0201F36FF0C216F0F1C217F06E
:100BB800F2C218F0F3C219F0A50E1A6E020E1B6EDF
:100BC800000E1D6E100E1C6EE5EC34F0060E1B6E4A
:100BD8007C0E1A6EA50E1C6E020E1D6E0AEC4AF0F3
:100BE800F40E096E010E0A6E000E0B6E000E0C6EEE
:100BF80068EC44F0010E1D6E820E1C6E79EC4AF012
:100C08001C041D10D8A408D3010E1C6E820E1B6E86
:100C1800000E1E6E000E1D6EFFEC4AF037EC15F04C
:100C2800FBD2F487F4BFF3A70CD0F3A10AD0470E88
:100C3800B7EC4BF0000E186E0F0E176E0FEC4BF062
:100C4800EBD2030EF76F100EF66FF7BF06D01D0E2E
:100C5800F65D030EF759D8B077D2F651F00FEA6F68
:100C6800F6C01CF0F7C01DF079EC4AF00E0E1C1807
:100C78001D10D8A489D10001EE51D8B476D1320E16
:100C8800E119E211D8A403D0EAC0DFF0E06B500EFE
:100C9800E119E211D8A406D0B1EC45F0D76FD751CD
:100CA800DF6FE06BE0BF06D0E05103E1080EDF5DC7
:100CB800D8B020D1100EEA251B6E1C6A030E1C2228
:100CC800010EEA251D6E1E6A000E1E22FFEC4AF078
:100CD800DFC015F0E0C016F0000E186E0A0E176E91
:100CE80030EC4AF0FD0E15241B6E060E16201C6E05
:100CF800010EDFC0D7F0E0C0D8F0D7C0D8F00001AF
:100D0800D76BD7111D6ED8511E6EFFEC4AF0DFC0AD
:100D180015F0E0C016F0000E186E0A0E176E30ECD3
:100D28004AF0FB0E15241B6E060E16201C6E0001E1
:100D3800EA51020D370EF324D96E010EF420DA6E53
:100D4800DECF1DF0DDCF1EF0FFEC4AF05A0E000199
:100D5800DF25D96E020EE021DA6EDFC0DFFF690EF3
:100D6800DF25D96E020EE021DA6EEA29DF6E780EF1
:100D7800EA25D96EDA6A020EDA22EA29DF6EEA512A
:100D8800020D370EF324D96E010EF420DA6ED890D6
:100D9800DF35E16EE035E26E870EE126020EE222D3
:100DA800DECFE6FFDDCFE5FF000ED76F020ED86F6E
:100DB8001E0ED727000ED823D890DF35D96EE03520
:100DC800DA6ED890D936DA36D751D926D851DA2200
:100DD800000EDE6E000EDE6E800EDE6E3F0EDD6EE5
:100DE800020EEA6508D0010EEA250201F46FF56BE0
:100DF800000EF52304D0EAC0F4F20201F56BF4C248
:100E0800D7F0F5C2D8F0D8900001D737D837B30E4D
:100E1800D96F010EDA6FD751D927D851DA23D89074
:100E2800DF35D96EE035DA6E000ED926020EDA22E9
:100E3800D9C0DEFFDAC0DDFF000ED76F020ED86F13
:100E48001E0ED727000ED823D890DF35D96EE0358F
:100E5800DA6ED890D936DA36D751D926D851DA226F
:100E6800000EDE6E000EDE6E800EDE6E3F0EDD6E54
:100E7800EA51D8A41CD0000ED76F020ED86F1E0EF0
:100E8800D727000ED823D890DF35D96EE035DA6E33
:100E9800D890D936DA36D751D926D851DA22550E14
:100EA800DE6EC10EDE6EE80EDE6E3E0EDD6EEA050B
:100EB800D8A41CD0000ED76F020ED86F1E0ED727ED
:100EC800000ED823D890DF35D96EE035DA6ED89089
:100ED800D936DA36D751D926D851DA22CD0EDE6E78
:100EE800CC0EDE6E4C0EDE6E3D0EDD6E020EB4ECE8
:100EF8000CF026D1DFC015F0E0C016F0000E186E19
:100F08000A0E176E30EC4AF0FD0E15241B6E060E05
:100F180016201C6E0001DF51D86FD76B000ED71159
:100F28001D6E0A0ED8111E6EFFEC4AF0DFC015F0D8
:100F3800E0C016F0000E186E0A0E176E30EC4AF07C
:100F4800FB0E15241B6E060E16201C6EFF0E1E6E61
:100F58001D68FFEC4AF0F6C01BF0F7C01CF0FF0E4E
:100F68001E6E1D68FFEC4AF0EBD0AEEC4AF0F6C0FE
:100F78001BF0F7C01CF0FF0E1E6E1D68FFEC4AF058
:100F8800510EB7EC4BF0DCD0F6C01CF0F7C01DF0EA
:100F980079EC4AF01D5004E10F0E1C5CD8A0D0D0AB
:100FA800F6C01CF0F7C01DF079EC4AF01D5003E1C3
:100FB8001F0E1C5CD8B0C4D00001EE51D8B48DD03F
:100FC800690E096E020E0A6EEA290B6E55EC4AF09C
:100FD8000201FC6F690E0001EA25D96EDA6A020E79
:100FE800DA22DF50D76FD7050201EF6FF6C01BF08A
:100FF800F7C01CF0FF0E1E6E1D68FFEC4AF00201E0
:10100800FC510A0DF3CFD7F0F4CFD8F0FD0E000154
:10101800D7251B6E060ED8211C6E0A0E1E6E000EFA
:101028001D6EFFEC4AF00201FC510A0DF3CFD7F018
:10103800F4CFD8F0FB0E0001D7251B6E060ED82181
:101048001C6EFF0E1E6E1D68FFEC4AF00201FC517B
:10105800020D000EF324D96E020EF420DA6E000E93
:10106800DE6E000EDD6E5A0EFC25D96EDA6A020EAF
:10107800DA220A0EDF6E690EFC25D96EDA6A020ED4
:10108800DA22FF0EDF6E780E0001EA25D96EDA6AE1
:10109800020EDA22FF0EDF6E0201FC51020D870EEE
:1010A800F324D96E020EF420DA6EFF0EDE6EFF0E08
:1010B800DD6EFC51040D1E0EF324D96E020EF420D1
:1010C800DA6E000EDE6E000EDE6E000EDE6E000EB4
:1010D800DD6E020EB4EC0CF033D0AEEC4AF0510EDB
:1010E800B7EC4BF0320E0001E119E211D8A411D08F
:1010F800F6C01BF0F7C01CF0690EEA25D96EDA6A53
:10110800020EDA22DF50D76FD7511D6E1E6AFFEC30
:101118004AF0500E0001E119E211D8A411D0F6C02E
:101128001BF0F7C01CF0780EEA25D96EDA6A020EB9
:10113800DA22DF50D76FD7511D6E1E6AFFEC4AF0D6
:101148000001F64BF72B81D5F49766D050EC4BF0A5
:10115800000E0001ED6F070EED6501D05DD0200E89
:10116800ED251C6E1D6A000E1D2279EC4AF01C0448
:101178001D10D8A410D0200E0001ED251B6E1C6A8E
:10118800000E1C22000E1E6E000E1D6EFFEC4AF0B3
:1011980030EC40F041D00001ED2BDDD774EC13F0BA
:1011A8003BD0F8C0D7F0F9C0D8F0D851000AD8A47D
:1011B80033D0D751130AD8B42CEF04F0060AD8B4A8
:1011C8002CEF04F0020AD8B46AEF04F00E0AD8B47F
:1011D80083EF04F0020AD8B4BCEF04F0070AD8B4CD
:1011E800BCEF04F0010AD8B44BD4020AD8B4B9D47D
:1011F8003C0AD8B416D50C0AD8B4A8D71E0AD8B455
:10120800CDD7B50AD8B42CEF04F0010AD8B438D435
:10121800020AD8B46AEF04F0E4EC32F077EF03F096
:10122800BAC5ACF0BBC5BAF0BCC5B9F0BDC5B8F01D
:10123800BEC5B7F024D3BBC53CF025EEBAF0DF50ED
:101248003D6E3C50226E3DC023F0BCC524F00CEC32
:1012580044F0030E67EC48F094EC4BF0BCEC4BF018
:101268001200BBC53CF025EEBAF0DF503D6E3C5095
:10127800096E3DC00AF015EC48F00001AE6F010E92
:1012880067EC48F00001AE5143EC4BF01200BBC5CF
:101298003CF03C50BAC53DF03DC03EF03F6A3EC010
:1012A8003FF03E6A3E100001AA6F3F50AB6FBDC5CC
:1012B8003CF03C50BCC53DF03DC03EF03F6A3EC0EE
:1012C8003FF03E6A3E10A86F3F50A96FAAC028F0B1
:1012D800ABC029F0A8C02AF0A9C02BF0F7EC49F060
:1012E800030E67EC48F0B8D7BBC53CF025EEBAF062
:1012F800DF503D6E3C500D6E3DC00EF0DBEC47F00C
:101308000DC0B4F00EC0B5F0020E67EC48F0B4C0E2
:101318000AF0B5C00BF0B0EC4BF01200BBC53CF0C6
:1013280025EEBAF0DF503D6E3C50286E3DC029F0E6
:10133800BC0E2A6E050E2B6E22EC47F0030E67ECEE
:1013480048F094EC4BF01200BBC53CF025EEBAF027
:10135800DF503D6E3C500D6E3DC00EF0A50E0F6E79
:10136800020E106E4CEC48F04A0E67EC48F0A50EE1
:101378000A6E020E0B6E4AEC41F01200B7C01FF065
:10138800B8C020F0B9C021F0BAC022F0BFC523F020
:1013980025EEBAF0DF508BEC4AF0030E67EC48F00C
:1013A800D0D7B7C01BF0B8C01CF0B9C01DF0BAC088
:1013B8001EF025EEBAF0DF5067EC4AF00001AE6F80
:1013C800010E67EC48F00001AE5143EC4BF01200FF
:1013D800B7C01FF0B8C020F0B9C021F0BAC022F0E1
:1013E800C0C53CF03C50BFC53DF03DC03EF03F6A33
:1013F8003EC03FF03E6A3E10236E3F50246E25EEFD
:10140800BAF0DF508EEC49F0030E67EC48F099D73C
:10141800B7C01BF0B8C01CF0B9C01DF0BAC01EF0B0
:1014280025EEBAF0DF5081EC48F01BC0B4F01CC0C8
:10143800B5F0020E67EC48F06AD7B7C01BF0B8C029
:101448001CF0B9C01DF0BAC01EF025EEBAF0DF508E
:1014580034EC3DF01BC0B0F01CC0B1F01DC0B2F0C0
:101468001EC0B3F0040E67EC48F00001B35143EC22
:101478004BF00001B25143EC4BF00001B15143EC89
:101488004BF00001B05143EC4BF01200BFC5ADF07A
:101498000001AD5167EC48F0B7C010F0B8C011F0CA
:1014A800B9C012F0BAC013F0ADC014F0000E156E3A
:1014B800030E166E0001AC5100EC23F01200B7C009
:1014C8000DF0B8C00EF0B9C00FF0BAC010F0BFC52B
:1014D80011F0C00E126E050E136E25EEBAF0DF5035
:1014E800B5EC27F0030E67EC48F02BD7B7C00DF02A
:1014F800B8C00EF0B9C00FF0BAC010F0BF0E116E30
:10150800050E126E25EEBAF0DF505EEC32F0030ED7
:1015180067EC48F016D7B7C010F0B8C011F0B9C0E2
:1015280012F0BAC013F0A50E146E020E156E25EE59
:10153800BAF0DF502BEC26F0A50E096E020E0A6EEB
:1015480000EC47F0095067EC48F011D7BCC53CF0F7
:1015580025EEBBF0DF503D6E3C50286E3DC029F0B3
:1015680025EEBAF0DF5039EC45F0030E67EC48F091
:10157800E8D6020E67EC48F00001EF5143EC4BF05F
:101588000001F05143EC4BF01200800E1B6E8A0EE6
:101598001C6EF1EC26F0090E67EC48F025EEBAF067
:1015A800DF50D8A406D0800E0A6E0B6A4AEC41F0D0
:1015B80012008A0E0A6E0B6A4AEC41F01200000E05
:1015C8000001B66F070EB66501D00ED0BA0EB6256B
:1015D800D96EDA6A050EDA22B651940FE16EE26A24
:1015E800DFCFE7FFB62BEED7000E9C6F000EB66F6D
:1015F800070EB66501D00ED0C20EB625D96EDA6ACE
:10160800050EDA22B6519E0FE16EE26ADFCFE7FFE0
:10161800B62BEED7000EA66F940E0C6E9E0E0D6EB6
:10162800FEEC2EF01200BBC53CF025EEBAF0DF5000
:101638003D6E3C501A6E3DC01BF0BDC53FF03F509B
:10164800416E406A25EEBCF0DF50426E436A40505E
:1016580042101C6E415043101D6EBFEC4AF0030E41
:1016680067EC48F06ED6838ABBC53CF0BAC53DF03E
:101678003D503F6E3E6A3C503E241C6E000E3F209B
:101688001D6EA4EC49F01CC0B4F01DC0B5F0839ADF
:10169800838AA50E096E020E0A6E00EC47F0095007
:1016A80067EC48F0B4C00AF0B5C00BF0B0EC4BF0F2
:1016B800839A1200BBC53CF025EEBAF0DF503D6EB0
:1016C8003C50176E3DC018F0E7EC48F0030E67EC8D
:1016D80048F037D6BBC53CF025EEBAF0DF503D6E7A
:1016E8003C50176E3DC018F00FEC4BF0030E67EC42
:1016F80048F027D625EEBAF0DF50B7EC4BF0030ED2
:1017080067EC48F01ED6000E0E6E090E0D6EDBEC6F
:1017180047F00DC0B4F00EC0B5F0020E67EC48F00B
:10172800F6D50501BA51040F38EC29F0030E67EC21
:1017380048F007D6010E67EC48F0745043EC4BF0C4
:1017480012000A0E306E000E4BEC36F0000E00014F
:10175800AF6F0E0EAF6501D006D0AF5138EC29F04F
:101768000001AF2BF6D7030E67EC48F0EAD51DEC65
:1017780022F0030E67EC48F0E4D5BBC53CF025EE3B
:10178800BAF0DF503D6E3C501A6E3DC01BF0BC0EE7
:101798001C6E050E1D6E0AEC4AF0030E67EC48F04D
:1017A800D0D5BBC53CF025EEBAF0DF503D6E3C50BD
:1017B8001C6E3DC01DF0A50E1E6E020E1F6E29EC9C
:1017C8004BF0A50E096E020E0A6E00EC47F00950A8
:1017D80067EC48F0CCD5000E1B6E000E1C6E000E98
:1017E8001D6E000E1E6E000E81EC48F01BC0B4F09A
:1017F8001CC0B5F00001B44BB52B020E67EC48F0E5
:1018080086D525EEBBF0DF50D8B402D0768033D031
:10181800769031D025EEBBF0DF50D8B402D0768276
:101828002AD0769228D025EEBBF0DF50D8B402D06B
:10183800768421D076941FD025EEBBF0DF50D8B443
:1018480002D0768618D0769616D025EEBAF0DF50FC
:101858003C6E3D6A3D50000AD8A40DD03C50020AA7
:10186800D8B4CFD7010AD8B4D5D7070AD8B4DBD7AC
:10187800010AD8B4E1D7030E67EC48F062D525EE2B
:10188800B8F0DF503C6E3D6A3D50000AD8A4120003
:101898003C50080AD8B4CFD4010AD8B4E2D4030A19
:1018A800D8B4F5D4010AD8B41FD5070AD8B436D5A8
:1018B800010AD8B449D51C0AD8B460D5030AD8B4EB
:1018C80070D5010AD8B484D5070AD8B4A1D5010ABD
:1018D800D8B40CD6030AD8B41ED6010AD8B4EFD5AA
:1018E8000F0AD8B4D3D5010AD8B430D6390AD8B437
:1018F8009AD6010AD8B4B7D6030AD8B43ED7010A93
:10190800D8B44FD7070AD8B4D5D6010AD8B4E2D686
:10191800030AD8B4EFD6010AD8B40CD70F0AD8B442
:10192800F2D6050AD8B425D6030AD8B42ED6010AA9
:10193800D8B445D66D0AD8B4F4D6010AD8B401D7BC
:10194800070AD8B414D7010AD8B477D5030AD8B48B
:1019580012000F0AD8B43FD7030AD8A4120075D7CB
:10196800346E30EC2DF0A4D2000E3C6E3C50020DCB
:10197800870EF324D96E020EF420DA6EFF0EDE6EA7
:10198800FF0EDD6E5A0E3C24D96EDA6A020EDA2298
:101998000A0EDF6E690E3C24D96EDA6A020EDA226C
:1019A800FF0EDF6E780E3C24D96EDA6A020EDA2258
:1019B800FF0EDF6E3C50020D000EF324D96E020EAE
:1019C800F420DA6E000EDE6E000EDD6E3C50040D63
:1019D8001E0EF324D96E020EF420DA6E000EDE6EAF
:1019E800000EDE6E000EDE6E000EDD6E130E3C2461
:1019F800226E236A000E2322780E3C24D96EDA6AFE
:101A0800020EDA22DF50246E0CEC44F0EA0E3C247D
:101A1800226E236A000E2322690E3C24D96EDA6AEC
:101A2800020EDA22DF50246E0CEC44F0240E3C2423
:101A3800226E236A000E23225A0E3C24D96EDA6ADB
:101A4800020EDA22DF50246E0CEC44F0100E3C2417
:101A58001B6E1C6A030E1C22FF0E1E6E1D68FFEC17
:101A68004AF03C500A0DF3CF2EF0F4CF2FF0FD0EC4
:101A78002E241B6E060E2F201C6E0A0E1E6E000EE4
:101A88001D6EFFEC4AF03C500A0DF3CF2EF0F4CF58
:101A98002FF0FB0E2E241B6E060E2F201C6EFF0E41
:101AA8001E6E1D68FFEC4AF03C2A0C0E3C645ED7A3
:101AB8001200000E0E6E130E0D6E780E0F6E020ED3
:101AC800106E0F0E116E32EC49F0000E0E6EEA0E1B
:101AD8000D6E690E0F6E020E106E0F0E116E32EC47
:101AE80049F0000E0E6E240E0D6E5A0E0F6E020E89
:101AF800106E0F0E116E32EC49F0000E3C6E780E2F
:101B08003C24D96EDA6A020EDA22DF50376E3728A3
:101B1800D8B40CD0100E3C241B6E1C6A030E1C2279
:101B280037C01DF01E6AFFEC4AF00BD0100E3C24A3
:101B38001B6E1C6A030E1C22FF0E1E6E1D68FFEC36
:101B48004AF03C2A0C0E3C64DAD7000E3C6E5A0E62
:101B58003C24D96EDA6A020EDA22080EDF6017D04A
:101B6800690E3C24D96EDA6A020EDA22DF502E6E34
:101B78002F6AD8902E362F36350E2E24D96E010EA8
:101B88002F20DA6EDECF39F0DDCF3AF002D0396897
:101B98003A683C500A0DF3CF2EF0F4CF2FF0FB0E2D
:101BA8002E241B6E060E2F201C6E39C01DF03AC065
:101BB8001EF0FFEC4AF03C50020D870EF324D96E5C
:101BC800020EF420DA6E39C0DEFF3AC0DDFF3C2A8F
:101BD8000C0E3C64BCD7000E3C6E5A0E3C24D96EE9
:101BE800DA6A020EDA22DF50386E080E38601AD030
:101BF8003C500A0DF3CF2EF0F4CF2FF0FD0E2E241B
:101C08001B6E060E2F201C6E010E38C030F0316A94
:101C180030C031F0306A30101D6E31501E6EFFEC4E
:101C28004AF012D03C500A0DF3CF2EF0F4CF2FF02B
:101C3800FD0E2E241B6E060E2F201C6E0A0E1E6E25
:101C4800000E1D6EFFEC4AF03C2A0C0E3C64C5D712
:101C5800000E3B6E5A0E3B24D96EDA6A020EDA2267
:101C68000A0EDE18D8B4CBD0FF0E2E6EFF0E2F6EE4
:101C78005A0E3B24D96EDA6A020EDA22DF50306E31
:101C8800316A690E3024D96E020E3120DA6EDF50C7
:101C9800326E336A2E5032262F50332233BE1BD079
:101CA800335004E1030E325CD8A015D05A0E3B2401
:101CB800D96EDA6A020EDA22DF502E6E2F6A690EAA
:101CC8002E24D96E020E2F20DA6EDF50306E30507F
:101CD800356E366A17D05A0E3B24D96EDA6A020E70
:101CE800DA22DF502E6E2F6A690E2E24D96E020E6C
:101CF8002F20DA6EDF50306EFF0E3024356E366AD4
:101D0800FF0E362235C02EF036C02FF0D8902E3672
:101D18002F36B30E306E010E316E2E5030262F50F6
:101D280031225A0E3B24D96EDA6A020EDA22DF50CB
:101D3800326E3250020D000EF324D96E020EF420DA
:101D4800DA6E30C0DEFF31C0DDFF5A0E3B24D96E9B
:101D5800DA6A020EDA22DF502E6E2E50040D1E0EA5
:101D6800F324D96E020EF420DA6E000EDE6E000E39
:101D7800DE6E800EDE6E3F0EDD6E5A0E3B24D96E8F
:101D8800DA6A020EDA22DF50D8A418D05A0E3B24A1
:101D9800D96EDA6A020EDA22DF502E6E2E50040D4A
:101DA8001E0EF324D96E020EF420DA6E550EDE6E86
:101DB800C10EDE6EE80EDE6E3E0EDD6E5A0E3B2460
:101DC800D96EDA6A020EDA22DE04D8A418D05A0EC6
:101DD8003B24D96EDA6A020EDA22DF502E6E2E50BC
:101DE800040D1E0EF324D96E020EF420DA6ECD0E09
:101DF800DE6ECC0EDE6E4C0EDE6E3D0EDD6E3B2AC8
:101E0800070E3B6427D71200000E3C6E100E3C24D0
:101E18001C6E1D6A030E1D2279EC4AF0780E3C24D4
:101E2800D96EDA6A020EDA221CC0DFFF3C500A0DB6
:101E3800F3CF2EF0F4CF2FF0FD0E2E241C6E060EDD
:101E48002F201D6E79EC4AF01DC01CF01D6A5A0E39
:101E58003C24D96EDA6A020EDA221CC0DFFF3C2A63
:101E68000D0E3C64D3D7000E296E130E286E780E23
:101E78002A6E020E2B6E0F0E2C6EB5EC48F0000E7B
:101E8800296EEA0E286E690E2A6E020E2B6E0F0E50
:101E98002C6EB5EC48F0000E296E240E286E5A0EF2
:101EA8002A6E020E2B6E0F0E2C6EB5EC48F0120047
:101EB80034502E6E2F6A2F50000AD8A412002E50CC
:101EC800000AD8B451D5010AD8B4F3D5030AD8A466
:101ED80012009AD7500E0001E119E211D8A408D0D7
:101EE800000EC26F800EC36F0D0EC46F440E0CD06F
:101EF800320EE119E211D8A408D0000EC26F800E8C
:101F0800C36FA00EC46F430EC56F000E186E230E6C
:101F1800176E0FEC4BF0FFEC45F02CC1D2F02DC141
:101F2800D3F02EC1D4F02FC1D5F0000E0001CD6F33
:101F3800000ECE6F000ECF6F000ED06F030E0001A3
:101F48009B6F080E9A6F770EE82EFED79A2FFCD754
:101F58009B2FFAD7000E0001D16F2ED0030ED11996
:101F6800D8B428D0D1C09AF0D8909A339A29C66F9D
:101F7800D151010BC76FC7C0C8F0D5C0C9F0D4C0D4
:101F8800CAF0D3C0CBF0D2C0CCF0140E0C6E050E44
:101F98000D6EC80E0E6E0F6AC651CEEC23F0D151ED
:101FA800020DF3509E0FD96EDA6A0CC0DEFF0DC029
:101FB800DDFF04000001D12B7450020DD1519A6F3E
:101FC8009B6BF3509A5D9B51800A9C6FF450800A7A
:101FD8009C59D8A0C3D7030E00019B6F080E9A6FB7
:101FE800770EE82EFED79A2FFCD79B2FFAD7000E34
:101FF8000001D66FB6D0550E1B6EC10E1C6EE80ED2
:102008001D6E3E0E1E6ED651020DF3509E0FD96EF8
:10201800DA6ADECF09F0DDCF0AF0000E0ABEFF0E45
:102028000B6E0C6E010EF3EC2BF009C017F00AC012
:1020380018F00BC019F00CC01AF072EC18F017C0A9
:1020480069F018C06AF019C06BF01AC06CF0D6ECD1
:102058003CF069C096F06AC097F00001D629DBEC25
:1020680043F07DD0CD0E1B6ECC0E1C6E4C0E1D6E3B
:102078003D0E1E6ED651020DF3509E0FD96EDA6AD0
:10208800DECF09F0DDCF0AF0000E0ABEFF0E0B6EA0
:102098000C6E010EF3EC2BF009C017F00AC018F013
:1020A8000BC019F00CC01AF072EC18F017C069F0E8
:1020B80018C06AF019C06BF01AC06CF0D6EC3CF08E
:1020C80069C096F06AC097F00001D629DBEC43F0AE
:1020D80046D0000E1B6E000E1C6E800E1D6E3F0E4D
:1020E8001E6ED651020DF3509E0FD96EDA6ADECFFE
:1020F80009F0DDCF0AF0000E0ABEFF0E0B6E0C6E63
:10210800010EF3EC2BF009C017F00AC018F00BC051
:1021180019F00CC01AF072EC18F017C069F018C06A
:102128006AF019C06BF01AC06CF0D6EC3CF069C0CC
:1021380096F06AC097F00001D629DBEC43F00FD087
:10214800D6519A6F9B6B9B51000AD8A4C2D79A515B
:10215800000AD8B450D7010AD8B484D7BAD7000136
:10216800D62B7450020DD6519A6F9B6BF3509A5D23
:102178009B51800A9C6FF450800A9C59D8A0E0D7E4
:10218800000E346E000E356E000E366E400E376E41
:1021980001012C51305D096E2D5131590A6E2E51B5
:1021A80032590B6E2F5133590C6E000EF3EC2BF095
:1021B80009C030F00AC031F00BC032F00CC033F067
:1021C800E6EC1CF030C0BEF031C0BFF032C0C0F049
:1021D80033C0C1F0CDC049F0CEC04AF0CFC04BF0FB
:1021E800D0C04CF0C2C034F0C3C035F0C4C036F023
:1021F800C5C037F0BEC030F0BFC031F0C0C032F04B
:10220800C1C033F0E6EC1CF030C04DF031C04EF0E8
:1022180032C04FF033C050F008EC1AF049C0CDF08E
:102228004AC0CEF04BC0CFF04CC0D0F0CDC061F06A
:10223800CEC062F0CFC063F0D0C064F0D9EC16F025
:1022480061C069F062C06AF063C06BF064C06CF092
:10225800D6EC3CF069C0BAF06AC0BBF06BC0BCF009
:102268006CC0BDF0D8900001BA359A6FBB359B6F32
:10227800BC359C6FBD359D6F01012C5100019A251D
:10228800D26F01012D5100019B21D36F01012E5105
:1022980000019C21D46F01012F5100019D21D56FB0
:1022A800959C838C4DEC3BF0230E12181310D8B478
:1022B80010D0839C959E838E060E00019A6F300E77
:1022C800E82EFED79A2FFCD700F0839E68EC4BF0DF
:1022D8001200839C010130510001D25D010131518E
:1022E8000001D359010132510001D4590101335180
:1022F8000001D559D8B0120021D6200E096E000E63
:102308000A6E000E0B6E000E0C6E4CEC46F0000EC2
:102318002F6E5CD02FC021F0D890213221282B6E4F
:102328002F50010B2E6E2EC025F01A0E0C6E010ECA
:102338000D6E250E0E6E0F6A2B50CEEC23F02F502B
:10234800020DB30EF324D96E010EF420DA6E0CC020
:10235800DEFF0DC0DDFF2F50020DB30EF324D96E42
:10236800010EF420DA6EDE2820E1DE28D8A41DD084
:10237800600E2F24D96EDA6A010EDA220A0EDF60A7
:102388001CD0600E2F24D96EDA6A010EDA22DF2AF9
:102398002F50020DB30EF324D96E010EF420DA6E1D
:1023A800000EDE6E000EDD6E08D0600E2F24D96E92
:1023B800DA6A010EDA22000EDF6E510E2B24D96E76
:1023C800DA6A010EDA22010EDF6E2F2A7450020D2E
:1023D8002F50216E226AF350215C2250800A236E0E
:1023E800F450800A2358D8A095D7320E096E000EF3
:1023F8000A6E000E0B6E000E0C6E4CEC46F00001DF
:10240800F487000E2F6E5AD1000E1C6E990E1B6EAB
:102418002F50020DB30EF324D96E010EF420DA6E9C
:10242800DECF1DF0DDCF1EF0FFEC4AF02F50020D7D
:10243800B30EF324D96E010EF420DA6EDECF89F1E3
:10244800DDCF8AF13AD1000E1C6E970E1B6E2F500D
:10245800020DB30EF324D96E010EF420DA6EDECF2E
:102468001DF0DDCF1EF0FFEC4AF02F50020DB30E29
:10247800F324D96E010EF420DA6EDECF8BF1DDCFB6
:102488008CF11BD12F50020DB30EF324D96E010E1F
:10249800F420DA6E010EDBBE2BD0010EDB5004E116
:1024A8000A0EDE5CD8A024D00101B551B611D8B40B
:1024B8001FD0000E1C6E960E1B6E2F50020DB30E11
:1024C800F324D96E010EF420DA6EDECF1DF0DDCFD5
:1024D8001EF0FFEC4AF02F50020DB30EF324D96E14
:1024E800010EF420DA6EDECFE5F0DDCFE6F0E5D0C0
:1024F800F29CAB9EAB98AB94AB92AC9AAECF28F063
:10250800AECF28F0AECF28F0000EE8CFAAF4948C16
:10251800948EFA0E096E000E0A6E000E0B6E000EF7
:102528000C6ED8EC45F0F28C000E166EC20E176ECB
:10253800010E186E000E196E08EC43F0BED0510E55
:102548000001E119E211D8A430D0060E2F18D8A442
:102558002CD0000E1C6E8C0E1B6E2F50020DB30E6D
:10256800F324D96E010EF420DA6EDECF1DF0DDCF34
:102578001EF0FFEC4AF02F50020DB30EF324D96E73
:10258800010EF420DA6EDE2803E1DE28D8B495D0F7
:102598002F50020DB30EF324D96E010EF420DA6E1B
:1025A800DECF8FF1DDCF90F188D02F50FC0F2E6E4B
:1025B8002E500C0DF3CF21F0F4CF22F0E60E21249B
:1025C800296E000E22202A6E900E2E242C6E2D6A63
:1025D800010E2D22010E29241B6E000E2A201C6ECE
:1025E8002E50216E226AD89021362236BB0E212425
:1025F800D96E010E2220DA6EDECF1DF0DDCF1EF07F
:10260800FFEC4AF02E50216E226AD89021362236ED
:10261800BB0E2124D96E010E2220DA6E010EDBAE2C
:1026280011D0700EDE5CFE0EDE58D8B00BD02CC078
:102638001BF02DC01CF0000E1E6E010E1D6EFFEC6F
:102648004AF03BD02E50216E226AD890213622368D
:10265800BB0E2124D96E010E2220DA6EDE280EE18F
:10266800DE28D8A40BD02CC01BF02DC01CF0000E07
:102678001E6E000E1D6EFFEC4AF01FD02CC01BF022
:102688002DC01CF0000E1E6E030E1D6EFFEC4AF0EE
:1026980014D02F50216E226A2250000AD8A44FD796
:1026A8002150000AD8B4B0D6010AD8B4CCD6030A4F
:1026B800D8B4E8D6010AD8A442D72F2A7450020DFC
:1026C8002F50216E226AF350215C2250800A236E1B
:1026D800F450800A2358D8A0DCD70001F4971200E0
:1026E800010E1D6E860E1C6E79EC4AF01C041D103E
:1026F800D8A487D0000E0101D26F000ED16F000E52
:10270800D46F000ED36F000ED66F000ED56F000E7B
:10271800D76FD80E0D6E010E0E6E360E0F6EFD0EB3
:10272800106EBDEC44F0D10E2C6E010E2D6E000122
:10273800ED518FEC3DF0EDC021F0226A4AEC31F00A
:10274800010E1C6E9A0E1B6E000E1E6E000E1D6E84
:10275800FFEC4AF0010E1C6E9B0E1B6E000E1E6EE7
:10276800000E1D6EFFEC4AF0010E1C6E9C0E1B6ED7
:10277800000E1E6E000E1D6EFFEC4AF0010E1C6E60
:102788009D0E1B6E000E1E6E000E1D6EFFEC4AF0B5
:10279800010E1B6E9E0E1A6E370E1C6EFD0E1D6E00
:1027A8000AEC4AF050EC4BF0010E1C6E860E1B6EC4
:1027B800000E1E6E000E1D6EFFEC4AF0600EB7ECA8
:1027C8004BF0FFEC45F0070E1B6E760E1A6E010EED
:1027D8001C6EFE0E1D6E0AEC4AF0DC0E096E050E2C
:1027E8000A6E000E0B6E000E0C6E4CEC46F0070ED7
:1027F8001B6E760E1A6E370E1C6EFD0E1D6E0AECE1
:102808004AF0010E1D6E870E1C6E79EC4AF01C040E
:102818001D10D8A468D0010E1D6E9A0E1C6E79EC9E
:102828004AF01CC0D1F11DC0D2F1010E1D6E9B0EE5
:102838001C6E79EC4AF01CC0D3F11DC0D4F1010E16
:102848001D6E9C0E1C6E79EC4AF01CC0D5F11DC0A3
:10285800D6F1010E1D6E9D0E1C6E79EC4AF01C50CF
:102868000101D76F010E1D6E9E0E1C6ED80E1E6ED6
:10287800010E1F6E29EC4BF0D10E2C6E010E2D6E41
:102888000001ED518FEC3DF050EC4BF0010E1C6E49
:10289800870E1B6E000E1E6E000E1D6EFFEC4AF0BA
:1028A800500EB7EC4BF0FFEC45F0070E1B6E760EA2
:1028B8001A6E910E1C6EFD0E1D6E0AEC4AF0DC0EAF
:1028C800096E050E0A6E000E0B6E000E0C6E4CECB7
:1028D80046F0070E1B6E760E1A6E370E1C6EFD0E36
:1028E8001D6E0AEC4AF0010E1D6E880E1C6E79EC06
:1028F8004AF01C041D10D8A49BD0070E1B6E760E40
:102908001A6E740E1C6EFD0E1D6E0AEC4AF0D10E86
:10291800176E010E186E0001ED51E5EC38F0070E48
:102928001B6E760E1A6E380E1C6EFD0E1D6E0AECAE
:102938004AF0000E3A6E20D03AC03DF0D1C13EF0C8
:10294800D2C13FF0D3C140F0D5C141F0D7C142F068
:10295800430E0D6E0E6AD80E0F6E010E106EBDEC92
:1029680044F0000E4D6E010E4C6E3D0E2C6E2D6A1D
:102978003A50D7EC35F03A2AFC0E336EFF0E346E1F
:102988007450356E366AD89035363636335035261B
:10299800345036223A50376E386A3550375C3850E2
:1029A800800A396E3650800A3958D8A0C5D7070E24
:1029B8001B6E760E1A6E850E1C6EFB0E1D6E0AECD3
:1029C8004AF01DEC22F0070E1B6E760E1A6EDC0E16
:1029D8001C6EFC0E1D6E0AEC4AF0000E3B6E3B505E
:1029E80038EC29F03B2A0E0E3B64F9D7000E3C6EFA
:1029F8003C5094EC2FF03C2A090E3C64F9D7010EA8
:102A08001C6E880E1B6E000E1E6E000E1D6EFFECF7
:102A18004AF0600EB7EC4BF0FFEC45F0070E1B6E6A
:102A2800760E1A6E370E1C6EFD0E1D6E0AEC4AF0FD
:102A3800010E1D6E890E1C6E79EC4AF01C041D10E7
:102A4800D8A41200010E1C6E890E1B6E000E1E6E9D
:102A5800000E1D6EFFEC4AF0000E186E2F0E176E5A
:102A68000FEC4BF01200010E1D6E7E0E1C6EE3EC97
:102A780049F01CC069F01DC06AF01EC06BF01FC091
:102A88006CF0D6EC3CF0010E1D6E800E1C6EE3EC73
:102A980049F01CC069F01DC06AF01EC06BF01FC071
:102AA8006CF0D6EC3CF0010E136E7C0E126EB20E7A
:102AB800146E156A040E166E69EC34F0B4C096F004
:102AC8000001976B986B996B98C099F097C098F034
:102AD80096C097F0966BB3C09AF09B6B9C6B9D6BFE
:102AE8009BC09DF09AC09CF09B6B9A6BB2C09EF005
:102AF8009F6BA06BA16B9EC0A1F0A06B9F6B9E6BA0
:102B08009A519E25A26F9B519F21A36F9C51A02192
:102B1800A46F9D51A121A56F9651A225A66F97512B
:102B2800A321A76F9851A421A86F9951A521A96F36
:102B3800B551A6250101776F000E0001A7210101FB
:102B4800786F000E0001A8210101796F000E0001C5
:102B5800A92101017A6F010E136E7E0E126EB20E5C
:102B6800146E156A040E166E69EC34F0B4C096F053
:102B78000001976B986B996B98C099F097C098F083
:102B880096C097F0966BB3C09AF09B6B9C6B9D6B4D
:102B98009BC09DF09AC09CF09B6B9A6BB2C09EF054
:102BA8009F6BA06BA16B9EC0A1F0A06B9F6B9E6BEF
:102BB8009A519E25A26F9B519F21A36F9C51A021E2
:102BC800A46F9D51A121A56F9651A225A66F97517B
:102BD800A321A76F9851A421A86F9951A521A96F86
:102BE800B551A625AE6F000EA721AF6F000EA82124
:102BF800B06F000EA921B16F010E136E800E126E18
:102C0800B20E146E156A040E166E69EC34F0B4C078
:102C180096F00001976B986B996B98C099F097C0E4
:102C280098F096C097F0966BB3C09AF09B6B9C6B2C
:102C38009D6B9BC09DF09AC09CF09B6B9A6BB2C039
:102C48009EF09F6BA06BA16B9EC0A1F0A06B9F6BC9
:102C58009E6B9A519E25A26F9B519F21A36F9C51F9
:102C6800A021A46F9D51A121A56F9651A225A66F01
:102C78009751A321A76F9851A421A86F9951A52115
:102C8800A96FB551A625AA6F000EA721AB6F000E3C
:102C9800A821AC6F000EA921AD6F01017751781101
:102CA80079117A11D8B40DD00001AE51AF11B0111D
:102CB800B111D8B406D0AA51AB11AC11AD11D8A43A
:102CC80004D0230EB7EC4BF01200000E0E6E0B0E64
:102CD8000D6E82EC47F0010177510D1862E17851D1
:102CE8000E185FE179510F185CE17A511018D8A4D9
:102CF80058D00001AA51AE1950E1AB51AF194DE1BE
:102D0800AC51B0194AE1AD51B119D8A446D0000E62
:102D1800296E0B0E286EAEC02AF0AFC02BF0B0C0E3
:102D28002CF0B1C02DF04AEC49F0AEC077F1AFC03D
:102D380078F1B0C079F1B1C07AF172EC4BF0010EC4
:102D48001B6E7C0E1A6E000E1C6E000E1D6E000EA1
:102D58001E6E000E1F6E26EC46F0010E1B6E7E0ED8
:102D68001A6E000E1C6E000E1D6E000E1E6E000EFA
:102D78001F6E26EC46F0010E1B6E800E1A6E000EBA
:102D88001C6E000E1D6E000E1E6E000E1F6E26ECD1
:102D980046F0220EB7EC4BF01200210EB7EC4BF0C8
:102DA8001200200EB7EC4BF0120073C18AF074C108
:102DB8008BF075C18CF076C18DF061C08AF062C06D
:102DC8008BF063C08CF064C08DF08AC065F08BC056
:102DD80066F08CC067F08DC068F0180E05D0D890EA
:102DE8006832673266326532E82EF9D765500001DD
:102DF800846F856B85BF0FD0855104E1960E845D85
:102E0800D8A009D061C061F062C062F063C063F00D
:102E180064C064F012008AC065F08BC066F08CC094
:102E280067F08DC068F0200E05D0D8906832673200
:102E380066326532E82EF9D76550D8B412D061C031
:102E480009F062C00AF063C00BF064C00CF061ECDA
:102E580049F009C061F00AC062F00BC063F00CC011
:102E680064F0000185BF06D085511FE17E0E845DA8
:102E7800D8B01BD08AC017F08BC018F08CC019F0DE
:102E88008DC01AF0000E1B6E000E1C6E000E1D6E1B
:102E9800000E1E6E72EC18F017C061F018C062F0D8
:102EA80019C063F01AC064F01200000E4D6E000ED7
:102EB8004E6E000E4F6E4B0E506E61C049F062C0F0
:102EC8004AF063C04BF064C04CF008EC1AF049C0FB
:102ED80086F04AC087F04BC088F04CC089F0000EDD
:102EE8004D6E000E4E6E000E4F6ECB0E506E86C0AD
:102EF80049F087C04AF088C04BF089C04CF008EC14
:102F08001AF049C080F04AC081F04BC082F04CC032
:102F180083F080C059F081C05AF082C05BF083C052
:102F28005CF061C05DF062C05EF063C05FF064C0D9
:102F380060F0BBEC46F059C08EF05AC08FF05BC011
:102F480090F05CC091F0000E096E000E0A6E000E43
:102F58000B6E3F0E0C6E8EC00DF08FC00EF090C041
:102F68000FF091C010F050EC39F0D8B02DD061C0FE
:102F78004DF062C04EF063C04FF064C050F08EC098
:102F880049F08FC04AF090C04BF091C04CF008EC6B
:102F98001AF049C086F04AC087F04BC088F04CC090
:102FA80089F086C049F087C04AF088C04BF089C0D4
:102FB8004CF0000E4D6E000E4E6E800E4F6EBF0E22
:102FC800506E08EC1AF053D0000E096E000E0A6E0F
:102FD800000E0B6EBF0E0C6E8EC00DF08FC00EF083
:102FE80090C00FF091C010F050EC39F0D8A02DD05F
:102FF80061C04DF062C04EF063C04FF064C050F045
:103008008EC049F08FC04AF090C04BF091C04CF090
:1030180008EC1AF049C086F04AC087F04BC088F027
:103028004CC089F086C049F087C04AF088C04BF090
:1030380089C04CF0000E4D6E000E4E6E800E4F6E25
:103048003F0E506E08EC1AF012D08EC049F08FC0B7
:103058004AF090C04BF091C04CF061C04DF062C096
:103068004EF063C04FF064C050F008EC1AF049C04D
:103078008EF04AC08FF04BC090F04CC091F08AC0DF
:1030880065F08BC066F08CC067F08DC068F0200ECC
:1030980005D0D8906832673266326532E82EF9D7A3
:1030A8006550D8B412D08EC009F08FC00AF090C015
:1030B8000BF091C00CF061EC49F009C08EF00AC029
:1030C8008FF00BC090F00CC091F08EC061F08FC0F3
:1030D80062F090C063F091C064F012001A50800B47
:1030E800236E1A501A24256E19BE25802550D8B48F
:1030F8000DD02528D8A408D0000E176E000E186E23
:10310800000E196E000E1A6E198E08D0000E176E7A
:10311800000E186E000E196E000E1A6E1E50800BEF
:10312800231A1E501E24246E1DBE24802450D8B499
:103138000DD02428D8A408D0000E1B6E000E1C6EDB
:10314800000E1D6E000E1E6E1D8E08D0000E1B6E2A
:10315800000E1C6E000E1D6E000E1E6E2450D8B49C
:1031680003D02550D8A409D0000E176E000E186E93
:10317800000E196E000E1A6E12001D501702F3CFC2
:103188002EF0F4CF2FF02E50266E276A286A296A6F
:103198002F502A6E2B6A2C6A2D6A1C501802F3CF06
:1031A8002EF0F4CF2FF02E502626000E27222822AC
:1031B80029222F502A26000E2B222C222D221B508A
:1031C8001902F3CF2EF0F4CF2FF02E502626000E42
:1031D8002722282229222F502A26000E2B222C2291
:1031E8002D2228C029F027C028F026C027F0266AFB
:1031F8001B501802F3CF2EF0F4CF2FF02E502626B6
:103208002F502722000E2822000E29221C501702B8
:10321800F3CF2EF0F4CF2FF02E5026262F50272252
:10322800000E2822000E292228C029F027C028F0E5
:1032380026C027F0266A1B501702F3CF2EF0F4CFD2
:103248002FF02E5026262F502722000E2822000E5F
:1032580029221D501802F3CF2EF0F4CF2FF02E5054
:103268002A262F502B22000E2C22000E2D221C5015
:103278001902F3CF2EF0F4CF2FF02E502A262F501C
:103288002B22000E2C22000E2D221D501902F3CFE6
:103298002EF0F4CF2FF02E501F6E2F50206E216A83
:1032A800226A21C022F020C021F01FC020F01F6A2E
:1032B8001F502A2620502B2221502C2222502D220A
:1032C80029502A26000E2B222C222D2228C029F034
:1032D80027C028F026C027F0266A245025C01FF0F2
:1032E800206A1F26000E2022820E1F242E6EFF0E3B
:1032F80020202F6E0FD0D8902A362B362C362D361C
:1033080029BE2A80D89026362736283629362E0612
:10331800D8A02F062CAEEFD7000E246E29AE17D0FA
:10332800FF0E26141F6EFF0E2714206EFF0E2814A2
:10333800216E7F0E2914226E1F502010211022109A
:10334800D8B403D0010E246E02D02AB0FBD7245083
:10335800D8B41FD0010E2A26000E2B222C222D2293
:103368002DA017D02AC01FF02BC020F02CC021F0B0
:103378002DC022F022342232213220321F321FC0C7
:103388002AF020C02BF021C02CF022C02DF02E4AAC
:103398002F2A2FBE0DD02F5003E12E28D8A008D0F9
:1033A800000E2A6E000E2B6E800E2C6E7F0E20D023
:1033B8002FBE05D02F500EE12E04D8B00BD0000E32
:1033C8002A6E000E2B6E000E2C6E000E2D6E000E57
:1033D800236E0FD02EC025F0FF0E2A16FF0E2B16D7
:1033E8007F0E2C16000E2D1625B02C8ED890253069
:1033F8002D6E23502D122AC017F02BC018F02CC0A8
:1034080019F02DC01AF012004C50800B556E4C501C
:103418004C24576E4BBE57805750D8B40DD0572800
:10342800D8A408D0000E496E000E4A6E000E4B6EEE
:10343800000E4C6E4B8E06D0000E496E000E4A6E82
:10344800000E4B6E000E4C6E5050800B566E555051
:103458005618D8A4558C50505024566E4FBE5680DE
:103468005650D8B40DD05628D8A408D0000E4D6EAA
:10347800000E4E6E000E4F6E000E506E4F8E06D030
:10348800000E4D6E000E4E6E000E4F6E000E506E0A
:103498005750565CD8B022D055AC02D0800E551A81
:1034A80057C058F056C057F058C056F049C058F0A9
:1034B8004DC049F058C04DF04AC058F04EC04AF0CF
:1034C80058C04EF04BC058F04FC04BF058C04FF0AA
:1034D8004CC058F050C04CF058C050F0000E586E18
:1034E800575056C051F0526A515E000E525A52BEA1
:1034F8002CD0525004E11A0E515CD8A026D0495065
:103508004A104B104C10D8B402D0010E01D0000E56
:10351800586E000E496E000E4A6E000E4B6E000E7D
:103528004C6E56C057F015D058A005D0D8905830DA
:103538000109586E02D0D890583249B0588E4C3490
:103548004C324B324A324932572A5650575CD8A02F
:10355800EBD755BC28D05750D8A409D0000E496ED7
:10356800000E4A6E000E4B6E000E4C6E12004D504F
:1035780049264E504A224F504B2250504C224CA0C4
:1035880071D058A005D0D89058300109586E02D093
:10359800D890583249B0588E4C344C324B324A325B
:1035A8004932572A5FD04D50495C4E504A584F50C7
:1035B8004B584C50800A516E5050800A5158D8B020
:1035C80025D049504D5C516E4A504E58526E4B5062
:1035D8004F58536E4C505058546EFF0E5124496E3C
:1035E800FF0E52204A6EFF0E53204B6EFF0E5420E2
:1035F8004C6E800E551A586C5850D8A40FD0010E36
:103608004926000E4A224B224C2208D04D50495ED2
:103618004E504A5A4F504B5A50504C5A49504A10E3
:103628004B104C10D8A41CD05850D8A419D0000E58
:10363800496E000E4A6E000E4B6E000E4C6E120064
:10364800D89049364A364B364C3658BE498058A031
:1036580002D0D88001D0D89058365750D8A45706F1
:103668004BAEEED7000E566E58AE0BD058C051F088
:103678007F0E5116D8B403D0010E566E02D049B051
:10368800FBD75650D8B420D0010E4926000E4A2246
:103698004B224C224CA018D049C051F04AC052F0DD
:1036A8004BC053F04CC054F054345432533252325D
:1036B800513251C049F052C04AF053C04BF054C087
:1036C8004CF05728D8A4572A5728D8B403D05750B5
:1036D800D8A40DD0000E496E000E4A6E000E4B6E37
:1036E800000E4C6E5750D8A402D0000E556E57A04D
:1036F80002D04B8E01D04B9ED89057304C6E55BEA1
:103708004C8E49C049F04AC04AF04BC04BF04CC0FF
:103718004CF012000001F497000E186E000E176EA0
:103728000FEC4BF0A0EC47F02C0E096E010E0A6E60
:10373800000E0B6E000E0C6ED8EC45F0B90E206E24
:10374800FB0E216E78EC38F02C0E096E010E0A6E15
:10375800000E0B6E000E0C6ED8EC45F09C0E206E21
:10376800FE0E216E78EC38F0B80E096E0B0E0A6E5C
:10377800000E0B6E000E0C6ED8EC45F0BC0E206EE1
:10378800FC0E216E78EC38F02C0E096E010E0A6ED4
:10379800000E0B6E000E0C6ED8EC45F0070E1D6E79
:1037A800C60E1C6E000E1E6E030E1F6E29EC4BF02B
:1037B800A50E0D6E020E0E6E0B0E0F6EFF0E106E26
:1037C800BDEC44F0A50E176E020E186E000E196EB1
:1037D800030E1A6E1DEC4AF0A50E206E020E216E25
:1037E80078EC38F02C0E096E010E0A6E000E0B6E86
:1037F800000E0C6ED8EC45F0030E0C6E000E0D6E2C
:10380800000E0E6E030E0F6E00018151CEEC23F0F8
:10381800000E746EA50E0D6E020E0E6E370E0F6E34
:10382800FD0E106EBDEC44F0A50E176E020E186E5C
:103838001D0E196EFF0E1A6E1DEC4AF0A50E176EBE
:10384800020E186ED90E196EFF0E1A6E1DEC4AF094
:10385800A50E206E020E216E78EC38F0010E816FF5
:10386800640E096E000E0A6E000E0B6E000E0C6ED2
:10387800D8EC45F0030E0C6E000E0D6E000E0E6EA9
:10388800030E0F6E00018151CEEC23F00CC082F0C4
:103898000DC083F083C080F0822903E18329D8B466
:1038A80065D0742AA50E0D6E020E0E6E370E0F6EC1
:1038B800FD0E106EBDEC44F081C018F0196AA50E1B
:1038C8001A6E020E1B6E000E1D6E0A0E1C6EEAECBE
:1038D80033F0A50E176E020E186EF50E196EFF0E58
:1038E8001A6E1DEC4AF0A50E176E020E186E000136
:1038F8008051020DEE0EF324D96E010EF420DA6E1B
:10390800DECF19F0DDCF1AF01DEC4AF0A50E176EC8
:10391800020E186E360E196EFD0E1A6E1DEC4AF068
:10392800000E0D6E030E0E6E360E0F6EFD0E106E2F
:10393800BDEC44F0410E0C6E000E0D6E000E0E6EC6
:10394800030E0F6E00018151CEEC23F0A50E176E09
:10395800020E186E000E196E030E1A6E1DEC4AF058
:10396800A50E206E020E216E78EC38F0812B0E0E1B
:10397800816576D77450D8A407D0510E206EFE0EFC
:10398800216E78EC38F0120074C018F0196AA50E90
:103998001A6E020E1B6E000E1D6E0A0E1C6EEAECED
:1039A80033F0A50E176E020E186E830E196EFE0EFA
:1039B8001A6E1DEC4AF0A50E206E020E216E78ECF0
:1039C80038F012003350800B406E33503324476E6A
:1039D80032BE47804750D8B40DD04728D8A408D065
:1039E800000E306E000E316E000E326E000E336E19
:1039F800328E06D0000E306E000E316E000E326E22
:103A0800000E336E3750800B401A37503724486EFB
:103A180036BE48804850D8B40DD04828D8A408D01D
:103A2800000E346E000E356E000E366E000E376EC8
:103A3800368E06D0000E346E000E356E000E366ED1
:103A4800000E376E3450351036103710D8A417D002
:103A5800000E306E000E316E000E326E000E336EA8
:103A6800800E32127F0E33124050331230C030F0C5
:103A780031C031F032C032F033C033F01200475059
:103A8800D8A409D0000E306E000E316E000E326ED2
:103A9800000E336E1200485047C038F0396A385E5D
:103AA800000E395A7F0E3824416E000E3920426EBE
:103AB80030C03CF031C03DF032C03EF033C03FF082
:103AC800000E306E000E316E000E326E000E336E38
:103AD800000E436E000E446E000E456E000E466EDC
:103AE800000E486E28D04850D8B411D0D8903C3633
:103AF8003D363E363F36D89030363136323633365C
:103B080046BE3080D8904336443645364636345023
:103B18003C5C35503D5836503E5837503F58D8A039
:103B280009D0468C34503C5E35503D5A36503E5A8A
:103B380037503F5A482A190E4864D5D73C503D1093
:103B48003E103F10D8B411D043800FD0D8903036F3
:103B580031363236333646BE3080D8904336443616
:103B6800453646364106D8A0420632AEEFD7000E9B
:103B7800486E46AE17D0FF0E4314386EFF0E44143D
:103B8800396EFF0E45143A6E7F0E46143B6E385060
:103B980039103A103B10D8B403D0010E486E02D049
:103BA80030B0FBD74850D8B41FD0010E3026000ED5
:103BB80031223222332233A017D030C038F031C03E
:103BC80039F032C03AF033C03BF03B343B323A3242
:103BD8003932383238C030F039C031F03AC032F0BA
:103BE8003BC033F0414A422A42BE10D0425003E162
:103BF8004128D8A00BD0000E426E4168000E306EEE
:103C0800000E316E000E326E000E336E42BE05D0CD
:103C1800425011E14104D8B00ED0000E426E000EA1
:103C2800416E000E306E000E316E000E326E000EC8
:103C3800336E000E406E41C047F047A002D0328E6E
:103C480001D0329ED8904730336E0ED7336E335042
:103C58002C6E2D6AFF0E2E6EFF0E2F6E0001E9519D
:103C6800306E316A2E5030262F5031222C50305C65
:103C78003150800A326E2D50800A3258D8B024D084
:103C8800000E1D6E020E1C6E79EC4AF01C041D100D
:103C9800D8A426D04DEC3BF012501310D8B420D045
:103CA800030E186EE80E176EE7EC48F0000E1C6E57
:103CB800020E1B6E000E1E6E000E1D6EFFEC4AF00B
:103CC800440EB7EC4BF012004DEC3BF012501310C1
:103CD800D8B406D0000E1D6E020E1C6E79EC4AF0A8
:103CE8003350360DF3CF2CF0F4CF2DF0100E2C26D8
:103CF800000E2D222CC034F02DC035F0000E35BE3C
:103D0800FF0E366E376E34C01FF035C020F036C057
:103D180021F037C022F001C123F002C124F0000EC7
:103D28008EEC49F0020E34240D6E000E35200E6E16
:103D3800000E36200F6E000E3720106E0D0E116E1D
:103D4800010E126E000E5EEC32F00C0E34240D6E75
:103D5800000E35200E6E000E36200F6E000E372036
:103D6800106E030E116E010E126E000E5EEC32F034
:103D7800160E34240D6E000E35200E6E000E362001
:103D88000F6E000E3720106E210E116E010E126E8E
:103D9800000E5EEC32F0200E34240D6E000E35203D
:103DA8000E6E000E36200F6E000E3720106E170EA6
:103DB800116E010E126E000E5EEC32F02A0E3424E3
:103DC8001F6E000E3520206E000E3620216E000E6C
:103DD8003720226E2BC123F0000E8BEC4AF02B0EFD
:103DE80034241F6E000E3520206E000E3620216E02
:103DF800000E3720226E2CC123F02DC124F02EC1D5
:103E080025F02FC126F0000E9BEC48F02F0E34242D
:103E18001F6E000E3520206E000E3620216E000E1B
:103E28003720226E30C123F031C124F032C125F091
:103E380033C126F0000E9BEC48F0330E34241F6E7D
:103E4800000E3520206E000E3620216E000E372021
:103E5800226E34C123F035C124F0000E8EEC49F0F7
:103E6800350E34241F6E000E3520206E000E3620CD
:103E7800216E000E3720226E36C123F0000E8BEC27
:103E88004AF01200000E476E000E1D6EA80E1C6E42
:103E980079EC4AF01C041D10D8A41FD0000E1C6E2B
:103EA800A80E1B6E000E1E6E000E1D6EFFEC4AF073
:103EB8000001EE51D8B40CD0000E486E485038ECD2
:103EC80029F0482A0E0E4864F9D7FFEC45F005D0D2
:103ED800510EB7EC4BF0AEEC4AF0000E1D6EA70E7B
:103EE8001C6E79EC4AF01C041D10D8A42DD0000ECD
:103EF8001C6EA70E1B6E000E1E6E000E1D6EFFECD4
:103F08004AF00001EE51D8B41AD06A0E1E6EFE0EA9
:103F18001F6E070E216ED00E206E000E226E010E4F
:103F2800236EE6EC3FF0000E496E4950D5EC31F0B7
:103F3800492A090E4964F9D7010E476E05D0510E7A
:103F4800B7EC4BF0AEEC4AF0000E1D6EA60E1C6EE0
:103F580079EC4AF01C041D10D8B403D04750D8B4EB
:103F68003DD0000E1C6EA60E1B6E000E1E6E000EBF
:103F78001D6EFFEC4AF00001EE51D8B42AD0E40ED1
:103F88001E6EFE0E1F6E070E216ED00E206E000EE6
:103F9800226E010E236EE6EC3FF01DEC22F0A70E18
:103FA8001E6EFF0E1F6E070E216ED00E206E010EC4
:103FB800226E000E236EE6EC3FF0FFEC45F0320E69
:103FC8000001E119E211D8A409D0500EB7EC4BF06A
:103FD80005D0510EB7EC4BF0AEEC4AF0000E1D6E5A
:103FE800A90E1C6E79EC4AF01C041D10D8A412000E
:103FF800000E1C6EA90E1B6E000E1E6E000E1D6EAE
:10400800FFEC4AF00001EE51D8B43CD0B20E1E6E5F
:10401800FF0E1F6E070E216ED00E206E000E226E50
:10402800010E236EE6EC3FF0130E0001F819F911AA
:10403800D8A402D0000E466E150EF819F911D8A4AE
:1040480002D0050E466E050E306E46504BEC36F02B
:10405800000E4A6E4A5038EC29F04A2A0E0E4A647D
:10406800F9D7FFEC45F0C70E1E6EFF0E1F6E070E48
:10407800216ED00E206E010E226E000E236EE6EC2D
:104088003FF01200510EB7EC4BF0AEEC4AF01200C4
:10409800436E43503C6E3D6AFF0E3E6EFF0E3F6E10
:1040A8000001E951406E416A3E5040263F5041228E
:1040B8003C50405C4150800A426E3D50800A425854
:1040C800D8A012004350360DF3CF3CF0F4CF3DF0AA
:1040D800100E3C26000E3D223CC044F03DC045F089
:1040E800000E45BEFF0E466E476E44C01BF045C02D
:1040F8001CF046C01DF047C01EF0000E81EC48F0D1
:104108001BC001F11CC002F1020E4424106E000E07
:104118004520116E000E4620126E000E4720136EC9
:104128000D0E146E010E156E000E2BEC26F00C0E03
:104138004424106E000E4520116E000E4620126EAB
:10414800000E4720136E030E146E010E156E000E3E
:104158002BEC26F0160E4424106E000E4520116E2E
:10416800000E4620126E000E4720136E210E146EAC
:10417800010E156E000E2BEC26F0200E4424106E56
:10418800000E4520116E000E4620126E000E4720CC
:10419800136E170E146E010E156E000E2BEC26F022
:1041A8002A0E44241B6E000E45201C6E000E46206D
:1041B8001D6E000E47201E6E000E67EC4AF00101CE
:1041C8002B6F2B0E44241B6E000E45201C6E000E18
:1041D80046201D6E000E47201E6E000E34EC3DF08A
:1041E8001BC02CF11CC02DF11DC02EF11EC02FF1DB
:1041F8002F0E44241B6E000E45201C6E000E462018
:104208001D6E000E47201E6E000E34EC3DF01BC0E4
:1042180030F11CC031F11DC032F11EC033F1330E34
:1042280044241B6E000E45201C6E000E46201D6E99
:10423800000E47201E6E000E81EC48F01BC034F1C2
:104248001CC035F1350E44241B6E000E45201C6E33
:10425800000E46201D6E000E47201E6E000E67ECF5
:104268004AF00101366F1200000E1C6E020E1B6E22
:10427800000E1E6E000E1D6EFFEC4AF0000E1C6E46
:10428800030E1B6E000E1E6E000E1D6EFFEC4AF034
:10429800000E1C6E040E1B6E000E1E6E000E1D6EB0
:1042A800FFEC4AF0000E1C6E050E1B6E000E1E6E13
:1042B800000E1D6EFFEC4AF00001F399000E0A6E25
:1042C800100E096E15EC48F00001F36FF351D8B4E5
:1042D80012009B0E206EFC0E216E78EC38F00E0E4C
:1042E800206EFC0E216E78EC38F0000E93EC44F052
:1042F8000001F3A116D0F391B50E206EFE0E216ECB
:1043080078EC38F0000E1C6E020E1B6E000E1E6E4E
:10431800010E1D6EFFEC4AF0000E0101926F000EB7
:10432800916F510E0001E119E211D8B4F3AF16D024
:10433800F39FE70E206EFB0E216E78EC38F0000E2E
:104348001C6E130E1B6E000E1E6E010E1D6EFFEC12
:104358004AF0000E0101E76F500E04D0000E010173
:10436800E76F000EE66F0001F3A516D0F395C90EAE
:10437800206EFD0E216E78EC38F0000E1C6E030ED8
:104388001B6E000E1E6E010E1D6EFFEC4AF0000E35
:104398000101ED6F500E04D0000E0101ED6F000E0B
:1043A800EC6F0001F3A717D0F397F389FB0E206E8B
:1043B800FC0E216E78EC38F0000E1C6E040E1B6E9D
:1043C800000E1E6E010E1D6EFFEC4AF0000E01017C
:1043D800EB6F500E04D0000E0101EB6F000EEA6F78
:1043E8000001F3A316D0F393E50E206EFD0E216EA7
:1043F80078EC38F0000E1C6E050E1B6E000E1E6E5B
:10440800010E1D6EFFEC4AF0000E0101E96F500E1F
:1044180004D0000E0101E96F000EE86FAC0E096EC2
:104428000D0E0A6E000E0B6E000E0C6ED8EC45F0E9
:104438001200040E216E21C01CF0D8901C321C28DA
:10444800226E2150010B236E2150120DF350EC0FF8
:10445800206E010E20240D6E0E6A000E0E22DBEC7B
:1044680047F00DC01EF00EC01FF02350070DF3CF0C
:1044780024F01FC025F01EC026F00A0E0C6E030E95
:104488000D6E240E0E6E0F6A2250CEEC23F0070E2E
:104498001D6E170E1C6E6A0EE82EFED71C2EFCD75A
:1044A8001D2EFAD700D02350070DF350020F246EAB
:1044B800030E2024096E0A6A000E0A2215EC48F041
:1044C800256E080E0C6E020E0D6E240E0E6E0F6A0F
:1044D8002250CEEC23F0070E1D6E170E1C6E6A0ECE
:1044E800E82EFED71C2EFCD71D2EFAD700D023505D
:1044F800070DF350030F246E040E2024096E0A6A78
:10450800000E0A2215EC48F0256E080E0C6E020EFD
:104518000D6E240E0E6E0F6A2250CEEC23F0070E9D
:104528001D6E170E1C6E6A0EE82EFED71C2EFCD7C9
:104538001D2EFAD700D02350070DF350040F246E18
:10454800050E2024096E0A6A000E0A2215EC48F0AE
:10455800256E080E0C6E020E0D6E240E0E6E0F6A7E
:104568002250CEEC23F0070E1D6E170E1C6E6A0E3D
:10457800E82EFED71C2EFCD71D2EFAD700D0100E21
:1045880020240D6E0E6A000E0E22DBEC47F00DC0E3
:104598001EF00EC01FF02350070DF350050F246EB8
:1045A8001FC025F01EC026F00A0E0C6E030E0D6EFD
:1045B800240E0E6E0F6A2250CEEC23F0070E1D6EED
:1045C800170E1C6E6A0EE82EFED71C2EFCD71D2E69
:1045D800FAD700D02304D8A40AD0010E0C6E000E1E
:1045E8000D6E240E0E6E0F6A2250CEEC23F0212A97
:1045F8000E0E216420D71200196E000E1A6E000EDE
:104608000101AA6F050EA96F135005E1020E125C95
:10461800D8B0120001D01200135003E11204D8A040
:1046280002D0080E01D0000E1A6E19C01BF0D890E7
:104638001B36A00E1B121B801A501B1236EC4BF0B7
:104648001BC017F0FE0E171617500B6E0C6A8CEC79
:104658004BF011C00BF00C6A8CEC4BF010C00BF057
:104668000C6A8CEC4BF09BEC4BF01BC00BF00C6A0B
:104678008CEC4BF0000E186E79D013507BE1020ED3
:10468800125CD8B077D010C017F0010E17267F0E35
:104698001716D8A451D0000E0C6E000E0B6E3CEC11
:1046A80044F00B5015C0D9FF16C0DAFFDF6EA9EC35
:1046B8004BF015C0D9FF16C0DAFFDF5043EC4BF0C2
:1046C800340E176EF20EE82EFED7172EFCD7010E09
:1046D8001026000E112212221322135003E1120495
:1046E800D8A002D0080E01D0000E1A6E19C01BF017
:1046F800D8901B36A00E1B121B801A501B1236ECCA
:104708004BF01BC017F0FE0E171617500B6E0C6AF5
:104718008CEC4BF011C00BF00C6A8CEC4BF010C019
:104728000BF00C6A8CEC4BF09BEC4BF01BC00BF0C5
:104738000C6A8CEC4BF019D0000E0C6E010E0B6E4F
:104748003CEC44F00B5015C0D9FF16C0DAFFDF6E01
:1047580015C0D9FF16C0DAFFDF5043EC4BF0010E4D
:104768001026000E112212221322182A1450185C47
:10477800D8A083D7000E0C6E000E0B6E3CEC44F0F4
:10478800A9EC4BF0070E176EC00EE82EFED7172EB9
:10479800FCD71200146E15681668000E176E0F0EFF
:1047A8000C18D8B410D00D0E0C18D8B40CD0180EA4
:1047B8000C18D8B408D0160E0C18D8B404D0410E72
:1047C8000C18D8A40AD0010E176E20EE05F00E5072
:1047D800D9260F50DA22DF501A6EAA0E0B6EBB0EC6
:1047E8000A6EB0EC4BF0000E43EC4BF0145043EC67
:1047F8004BF00C5043EC4BF00D5043EC4BF0000EDB
:104808001B6E0AD01B500E24D96E000E0F20DA6ED4
:10481800DF5043EC4BF01B2A0D501B5CD8A0F2D79D
:10482800D50EE82EFED700F00001F591000E196EA6
:10483800000E186EE40E00D000D0E82EFCD700D091
:1048480000D00001F5A13BD0150E106EC60EE82E63
:10485800FED7102EFCD700D01750D8B405D024EEC0
:10486800AFF01AC0DFFF03D0020EE8CFAFF4000E9E
:104878001B6E0FD0B00E1B24D96EDA6A040EDA2232
:104888001B500E24E16E000E0F20E26EDFCFE7FF13
:104898001B2A24EEAFF0DE501B5CD8A0EBD7B1C4C6
:1048A80010F01050B0C411F011C012F0136A12C009
:1048B80013F0126A1210156E1350166E0AD0184AA9
:1048C800192A19BEB7D7900E185C010E1958D8A02E
:1048D800B1D70001F5B125D0020EE8CFAFF4FF0E35
:1048E800E8CFB0F4FF0EE8CFB1F41568166817509A
:1048F800D8B417D024EEAFF01AC0DFFF000E1B6E3D
:1049080009D0B00E1B24D96EDA6A040EDA22FF0E23
:10491800DF6E1B2A1B501ABE04D0FF0A1A24D8B017
:10492800F0D70001F59115C00CF016C00DF012007B
:104938002C6E000E2D6E2D50110D000EF324156EE9
:10494800040EF420166E2D50BEEC36F02D2A090EFA
:104958002D64F1D7000E326EA00E286E020E296E5D
:104968002C50A00DF3CF2AF0F4CF2BF03250100DBD
:10497800F3502A26F4502B2228502A2629502B227D
:104988002AC02EF02BC02FF0000E2FBEFF0E306E67
:10499800316E2EC01FF02FC020F030C021F031C082
:1049A80022F03250110D010EF324D96E040EF420BA
:1049B800DA6EDECF23F0DDCF24F0000E8EEC49F066
:1049C800020E2E241F6E000E2F20206E000E3020A7
:1049D800216E000E3120226E3250110D030EF32489
:1049E800D96E040EF420DA6EDF50236E000E8BECC5
:1049F8004AF0030E2E241F6E000E2F20206E000E8C
:104A08003020216E000E3120226E3250110D040E1E
:104A1800F324D96E040EF420DA6EDF50236E000EF4
:104A28008BEC4AF0040E2E241F6E000E2F20206EF1
:104A3800000E3020216E000E3120226E3250110DF2
:104A4800050EF324D96E040EF420DA6EDF50236EBF
:104A5800000E8BEC4AF0050E2E240D6E000E2F2052
:104A68000E6E000E30200F6E000E3120106E325088
:104A7800110D060EF324116E040EF420126E000EB2
:104A88005EEC32F00F0E2E241F6E000E2F20206ECB
:104A9800000E3020216E000E3120226E3250110D92
:104AA8000F0EF324D96E040EF420DA6EDF50236E55
:104AB800000E8BEC4AF0322A090E32644DD71200F0
:104AC800000E136EB30E126EE20E146E010E156E0A
:104AD800040E166E69EC34F0E4C128F0296A2A6ADB
:104AE8002B6A2AC02BF029C02AF028C029F0286A8E
:104AF800E3C12CF02D6A2E6A2F6A2DC02FF02CC02E
:104B08002EF02D6A2C6AE2C130F0316A326A336ABB
:104B180030C033F0326A316A306A2C503024346E37
:104B28002D503120356E2E503220366E2F503320C6
:104B3800376E28503424386E29503520396E2A5063
:104B480036203A6E2B5037203B6E0101E551382450
:104B58003C6E000E39203D6E000E3A203E6E000E6F
:104B68003B203F6E3C503D103E103F10D8B4120021
:104B780077513C186BE178513D1868E179513E183E
:104B880065E17A513F18D8A41200000E1B6EB30ECF
:104B98001A6E000E1C6E000E1D6E000E1E6E000EAC
:104BA8001F6E26EC46F0000E1D6EB20E1C6E79ECE0
:104BB8004AF01C041D10D8A41DD0000E756E000EFE
:104BC8000001EE6F010195699669000E1C6EB20E28
:104BD8001B6E000E1E6E000E1D6EFFEC4AF0000EDE
:104BE8001C6E9A0E1B6E000E1E6E000E1D6EFFECE4
:104BF8004AF028D0000E1D6EB20E1C6E79EC4AF0F9
:104C08001C501D10D8A41ED0010E756E010E000197
:104C1800EE6F000E0101966F0A0E956F000E1C6E66
:104C2800B20E1B6E000E1E6E010E1D6EFFEC4AF0DA
:104C3800000E1C6E9A0E1B6E000E1E6E010E1D6E6F
:104C4800FFEC4AF072EC4BF0FFEC45F01200186EE6
:104C5800000E196E135005E1020E125CD8B0120056
:104C680001D01200135003E11204D8A002D0080E9C
:104C780001D0000E196E18C01AF0D8901A36A00E7E
:104C88001A121A8019501A1236EC4BF01AC016F084
:104C9800FE0E161616500B6E0C6A8CEC4BF011C0FB
:104CA8000BF00C6A8CEC4BF010C00BF00C6A8CEC1F
:104CB8004BF09BEC4BF01AC00BF00C6A8CEC4BF0F1
:104CC800000E176E135079E1020E125CD8B075D041
:104CD80010C016F0010E16267F0E1616D8A44CD05A
:104CE800000E0C6E000E0B6E3CEC44F00B5014C022
:104CF800D9FF15C0DAFFDF6EA9EC4BF0340E166E43
:104D0800F20EE82EFED7162EFCD7010E1026000E46
:104D1800112212221322144A152A135003E11204F5
:104D2800D8A002D0080E01D0000E196E18C01AF0D3
:104D3800D8901A36A00E1A121A8019501A1236EC88
:104D48004BF01AC016F0FE0E161616500B6E0C6AB3
:104D58008CEC4BF011C00BF00C6A8CEC4BF010C0D3
:104D68000BF00C6A8CEC4BF09BEC4BF01AC00BF080
:104D78000C6A8CEC4BF01BD0000E0C6E010E0B6E07
:104D88003CEC44F00B5014C0D9FF15C0DAFFDF6EBD
:104D980014C0D9FF15C0DAFFDF50D8B40ED0144ABA
:104DA800152A010E1026000E112212221322172A8C
:104DB8001704166E3F0E166485D7000E0C6E000E93
:104DC8000B6E3CEC44F0A9EC4BF0070E166EC00ECF
:104DD800E82EFED7162EFCD712005A0E0B6EA50E23
:104DE8000A6EB0EC4BF0030E43EC4BF0810E43EC33
:104DF8004BF0200E43EC4BF0070E43EC4BF09C0EAF
:104E08001D6ED70EE82EFED71D2EFCD700F043EC02
:104E180047F00009D8B416D0000E3B6E3B50060F81
:104E28001D6E1E6AAA0E1D24D96E040E1E20DA6E8F
:104E38003B501F0FE16EE26ADFCFE7FF3B2A090E06
:104E48003B64ECD7290E096E1F5019EC49F02C0E63
:104E5800096E205019EC49F02F0E096E215019ECFB
:104E680049F01BC00DF00E6A370E0F6EFD0E106E66
:104E7800BDEC44F01BC017F0186A2F0E196E1A6AA1
:104E88001DEC4AF01BC017F0186AFC0E196EFF0ED5
:104E98001A6E1DEC4AF01BC017F0186A2C0E196E1A
:104EA8001A6A1DEC4AF01BC017F0186AFC0E196E3E
:104EB800FF0E1A6E1DEC4AF01BC017F0186A290E77
:104EC800196E1A6A1DEC4AF0320E096E235019EC5D
:104ED80049F0350E096E245019EC49F0380E096E68
:104EE800255019EC49F01CC00DF00E6A370E0F6EF4
:104EF800FD0E106EBDEC44F01CC017F0186A320E9F
:104F0800196E1A6A1DEC4AF01CC017F0186A090ECF
:104F1800196EFF0E1A6E1DEC4AF01CC017F0186AC5
:104F2800350E196E1A6A1DEC4AF01CC017F0186A83
:104F3800090E196EFF0E1A6E1DEC4AF01CC017F010
:104F4800186A380E196E1A6A1DEC4AF0010E096EBD
:104F5800000E0A6E000E0B6E000E0C6E4CEC46F046
:104F680012001C6E000E0101AA6F050EA96F1050E9
:104F780005E1020E0F5CD8B0120001D012001050EB
:104F880003E10F04D8A002D0080E01D0000E1D6E58
:104F98001CC01EF0D8901E36A00E1E121D501E12E8
:104FA80036EC4BF01EC00BF00C6A8CEC4BF00EC0CC
:104FB8000BF00C6A8CEC4BF00DC00BF00C6A8CEC0F
:104FC8004BF0000E1B6E63D0105005E1020E0F5C13
:104FD800D8B0120001D012000DC014F0010E142632
:104FE8007F0E1416D8A43FD012C0D9FF13C0DAFF21
:104FF800DF50146E14500B6E0C6A8CEC4BF0A9EC5D
:105008004BF0340E146EF20EE82EFED7142EFCD799
:10501800010E0D26000E0E220F221022124A132A0C
:10502800105003E10F04D8A002D0080E01D0000EE2
:105038001D6E1CC01EF0D8901E36A00E1E121D50EC
:105048001E1236EC4BF01EC00BF00C6A8CEC4BF0C9
:105058000EC00BF00C6A8CEC4BF00DC00BF00C6A18
:105068008CEC4BF013D012C0D9FF13C0DAFFDF501D
:10507800146E14500B6E0C6A8CEC4BF0124A132A07
:10508800010E0D26000E0E220F2210221B2AFF0EE3
:10509800146EFF0E156E1150166E176A14501626F0
:1050A800155017221B50186E196A1650185C1950A3
:1050B800800A1A6E1750800A1A58D8A085D712C0CD
:1050C800D9FF13C0DAFFDF50146E14500B6E0C6A50
:1050D8008CEC4BF0A9EC4BF0340E146EF20EE82E6B
:1050E800FED7142EFCD71200186E000E196E000E93
:1050F8000101AA6F050EA96F135005E1020E125C9B
:10510800D8B0120001D01200135003E11204D8A045
:1051180002D0080E01D0000E196E18C01AF0D890EF
:105128001A36A00E1A121A8019501A1236EC4BF0C1
:105138001AC016F0FE0E161616500B6E0C6A8CEC82
:105148004BF011C00BF00C6A8CEC4BF010C00BF05C
:105158000C6A8CEC4BF09BEC4BF01AC00BF00C6A11
:105168008CEC4BF0000E176E6BD013506DE1020EF5
:10517800125CD8B069D010C016F0010E16267F0E4A
:105188001616D8A44AD01550D96EDA6A000E0C6EDD
:10519800000E0B6E3CEC44F00B50DF6EA9EC4BF0AC
:1051A800340E166EF20EE82EFED7162EFCD7010E20
:1051B8001026000E112212221322152A135003E181
:1051C8001204D8A002D0080E01D0000E196E18C023
:1051D8001AF0D8901A36A00E1A121A8019501A12FC
:1051E80036EC4BF01AC016F0FE0E161616500B6E63
:1051F8000C6A8CEC4BF011C00BF00C6A8CEC4BF089
:1052080010C00BF00C6A8CEC4BF09BEC4BF01AC006
:105218000BF00C6A8CEC4BF012D01550D96EDA6A90
:10522800000E0C6E010E0B6E3CEC44F00B50DF6E62
:10523800152A010E1026000E112212221322172AF7
:105248001450175CD8A091D7000E0C6E000E0B6E90
:105258003CEC44F0A9EC4BF0070E166EC00EE82E9D
:10526800FED7162EFCD71200296E2950010B256E89
:1052780025C023F029500C0DF3CF21F0F4CF22F0F4
:10528800E60E2124266E000E2220276E030E2964C6
:105298001200040E295E2950120DF350340F286EA7
:1052A8002950010B256E25C023F029500C0DF3CF92
:1052B80021F0F4CF22F0E60E2124266E000E2220E3
:1052C800276E26C01BF027C01CF028C009F00A6A08
:1052D80015EC48F0216E010E21241D6E1E6A000E89
:1052E8001E22FFEC4AF0020E26241B6E000E272019
:1052F8001C6E010E28240D6E0E6A000E0E22DBECC9
:1053080047F00DC01DF00EC01EF0FFEC4AF0030E72
:1053180026241B6E000E27201C6E030E2824096EFF
:105328000A6A000E0A2215EC48F0216E21501D6E03
:105338001E6AFFEC4AF0040E26241B6E000E27207E
:105348001C6E040E2824096E0A6A000E0A2215EC47
:1053580048F0216E21501D6E1E6AFFEC4AF0050EC2
:1053680026241B6E000E27201C6E050E2824096EAD
:105378000A6A000E0A2215EC48F0216E21501D6EB3
:105388001E6AFFEC4AF0060E28240D6E0E6A000E07
:105398000E22A50E0F6E020E106E4CEC48F0060E93
:1053A80026241A6E000E27201B6EA50E1C6E020EF8
:1053B8001D6E0AEC4AF00B0E26241B6E000E2720E9
:1053C8001C6E100E28240D6E0E6A000E0E22DBECE9
:1053D80047F00DC01DF00EC01EF0FFEC4AF01200A1
:1053E800000E136E9B0E126EE20E146E010E156EF9
:1053F800040E166E69EC34F0E4C124F0256A266ABE
:10540800276A26C027F025C026F024C025F0246A84
:10541800E3C128F0296A2A6A2B6A29C02BF028C020
:105428002AF0296A286AE2C12CF02D6A2E6A2F6AAE
:105438002CC02FF02E6A2D6A2C6A28502C24306E2E
:1054480029502D20316E2A502E20326E2B502F20BD
:10545800336E24503024346E25503120356E26505A
:105468003220366E27503320376E0101E55134243F
:10547800386E000E3520396E000E36203A6E000E5A
:1054880037203B6E385039103A103B10D8B434D01E
:105498007751381831E1785139182EE179513A1895
:1054A8002BE17A513B18D8A427D0750E966F300E91
:1054B800956F010E0001EE6F000E1C6E9A0E1B6EAA
:1054C800000E1E6E010E1D6EFFEC4AF0000E1C6EE3
:1054D8009B0E1B6E000E1E6E000E1D6EFFEC4AF03A
:1054E800000E1C6E9C0E1B6E000E1E6E000E1D6EB6
:1054F800FFEC4AF0FFEC45F00001EE05D8A412D00D
:10550800010196AF0FD0000E0001EE6F000E1C6E69
:105518009A0E1B6E000E1E6E000E1D6EFFEC4AF0FA
:10552800AEEC4AF07BEC4BF05A0AD8A41200750E88
:105538000101966F300E956F000E5CEC4BF0120077
:10554800000E1D6E040E1C6E79EC4AF01C041D1032
:10555800D8A43DD00001F3B73AD0000E226E040E55
:10556800216E000E236EB8EC39F00009D8A404D0DF
:10557800460EB7EC4BF012000001E351E55DE65131
:10558800800A346EE451800A3458D8B01AD0000E1C
:105598002C6E040E2B6EEA0E2D6E010E2E6EAD0EC5
:1055A8002F6EFD0E306EBBEC30F00009D8B412003F
:1055B8000001F387010ECFEC4AF0010E93EC44F0A2
:1055C8001200000ECFEC4AF031EC48F01200000E49
:1055D8001D6E040E1C6E79EC4AF01C501D10D8A4E8
:1055E8002AD00001F3A727D0000E226E040E216EE8
:1055F800010E236EB8EC39F00009D8A404D0460E89
:10560800B7EC4BF012000001F397000ECFEC4AF014
:10561800000E0101EB6F000EEA6F000E1C6E060E05
:105628001B6E000E1E6E000E1D6EFFEC4AF0010E82
:105638000101B16F1200000E1D6E040E1C6E79EC94
:105648004AF01C041D10D8A416D00001F3A713D0EB
:10565800E351E55DE651800A346EE451800A34581E
:10566800D8B005D0F489010ECFEC4AF01200000E34
:10567800CFEC4AF0A9D7000E1D6E040E1C6E79EC13
:105688004AF01C501D10D8A412000001F3B71200F4
:10569800000E0101EB6F000EEA6F1200000E226E81
:1056A800050E216E010E236EB8EC39F00009D8A45E
:1056B80004D0460EB7EC4BF01200000E1D6E050E1E
:1056C8001C6E79EC4AF01C041D10D8A43CD00001D3
:1056D800F3B339D0010185510001E55DE651800A37
:1056E800346E01018651800A3458D8B021D08351D4
:1056F8008B5D8C51800A346E8451800A3458D8B03E
:1057080017D0000E2C6E050E2B6EE80E2D6E010EB6
:105718002E6E570E2F6EFC0E306EBBEC30F000096B
:10572800D8B412000001F383010E3FEC43F01200DD
:105738000001F393000E3FEC43F0000E0101E96F06
:10574800000EE86F1200000E1D6E050E1C6E79EC3F
:105758004AF01C501D10D8A408D00001F3A305D0AE
:10576800F393000E3FEC43F01200000E1D6E050E81
:105778001C6E79EC4AF01C041D10D8A422D000013C
:10578800F3A31FD0010185510001E55DE651800AB0
:10579800346E01018651800A3458D8B00ED0835136
:1057A8008B5D8C51800A346E8451800A3458D8B08D
:1057B80004D0010E3FEC43F01200000E3FEC43F022
:1057C8001200000E1D6E050E1C6E79EC4AF01C507E
:1057D8001D10D8A412000001F3B31200AED7116E49
:1057E8001150D8A40CAE1AD009C00DF00AC00EF0A2
:1057F8000BC00FF00CC010F00D1E0E1E0F1E101E59
:105808000D2A000E0E220F2210220DC013F00EC01A
:1058180014F00FC015F010C016F008D009C013F02E
:105828000AC014F00BC015F00CC016F009500A108D
:105838000B100C10D8A409D0000E096E000E0A6EC9
:10584800000E0B6E000E0C6E1200960E126E06D035
:10585800122AD8901632153214321332000E13144D
:105868000D6E000E14140E6E000E15140F6EFE0E43
:105878001614106E0D500E100F101010D8B40DD055
:10588800E7D7122A010E1326000E1422152216221B
:10589800D8901632153214321332000E13140D6ECE
:1058A800000E14140E6E000E15140F6EFF0E161453
:1058B800106E0D500E100F101010D8B407D0E1D78D
:1058C8001206D890133614361536163615BE03D080
:1058D800020E1260F5D712A0159ED890123212C08F
:1058E8000DF00E6A0F6A106A0DC010F00F6A0E6A8A
:1058F8000D6A0D5013120E5014120F50151210503D
:1059080016121150D8A40CAE01D0168E13C009F08F
:1059180014C00AF015C00BF016C00CF0120078EC99
:1059280049F00101006F000E1B6E000E1C6E000E88
:105938001D6E000E1E6E000E81EC48F01BC061F05B
:105948001CC062F0614A622A100E615C270E625820
:10595800D8A004D0000E626E000E616E000E1F6E9D
:10596800000E206E000E216E000E226E61C023F024
:1059780062C024F0000E8EEC49F0570E1B6E4D0EDF
:105988001C6EF1EC26F0000E0101A46F000EA36F4F
:10599800020E1B6E000E1C6E000E1D6E000E1E6E9B
:1059A800000E34EC3DF01BC0DBF01CC0DCF01DC069
:1059B800DDF01EC0DEF061C001F162C002F1030E2D
:1059C8000D6E010E0E6E570E0F6E106ABDEC44F090
:1059D8000D0E0D6E010E0E6E4D0E0F6E106ABDECA3
:1059E80044F0170E0D6E010E0E6E370E0F6EFD0E83
:1059F800106EBDEC44F0210E0D6E010E0E6E370ECA
:105A08000F6EFD0E106EBDEC44F0000E0E6E090E0A
:105A18000D6EDBEC47F00D5001012B6FDBC02CF154
:105A2800DCC02DF1DDC02EF1DEC02FF1000E306F8D
:105A3800000E316F000E326F000E336F000E356F9F
:105A4800000E346F369736953693368100512AEC1E
:105A58001EF077EC3CF01200000E0E6EFA0E0D6E82
:105A6800DBEC47F00DC0E1F00EC0E2F0000E1C6E5A
:105A7800D60E1B6EE1C01DF0E2C01EF0FFEC4AF02E
:105A8800320E0001E119E211D8A42AD0F80E010162
:105A9800386F000E376F070E3A6FE00E396F000E41
:105AA8003C6F1F0E3B6F000E3E6F000E3D6FD50E14
:105AB800406F400E3F6FF80E426F1F0E416FFB0E96
:105AC800446FE00E436F456946694769486949690B
:105AD8004A694B694C694D694E694F6950691200B2
:105AE800500EE119E211D8A436D0000E0101386F2A
