:020000040000FA
:040000004CEF01F0D0
:100018007780D8CF04F0E8CF05F0E0CF06F0D9CF4D
:1000280007F0DACF08F09EAA51D0959C838C010E78
:1000380001015A6F900E596F000E706E000E6F6EB0
:1000480075697680F40E576F030E586F95988388FC
:1000580027D09EAA22D08398838857C1D9FF58C138
:10006800DAFFAECFDFFF70BE06D0090E6F5C010E5F
:100078007058D8B004D06F4A702A574B582BF8C321
:10008800E8FF180AD8A404D01F0E5A6F400E03D0F8
:10009800010E5A6F900E596F03D05907D8A05A070E
:1000A80059515A11D8A4D5D78398ABA20FD0AB9881
:1000B800AB88AECF59F15A6BAECF59F15A6BAECF70
:1000C80059F15A6B000EE8CFF4F376829EA0B2D0B5
:1000D8009E903C0ECF6EB40ECE6E010E716E000176
:1000E800F0B102D0000E716E000E706E010E6F6ED0
:1000F8000DD0000E6F24D96E020E7020DA6EDF501C
:10010800D8A402D0000E716E6F4A702A7450016E26
:10011800026A6F50015C0250800A036E7050800AB8
:100128000358D8B0E6D77104D8A41AD00400000147
:10013800F091000E706E010E6F6E70BE06D070509A
:100148000FE10F0E6F5CD8B00BD0000E6F24D96E84
:10015800020E7020DA6E000EDF6E6F4A702AEDD73D
:10016800F50E0001C45D010EC559D8A002D0819ECC
:1001780001D0818E01016F517011D8B405D0320EB3
:100188006F5F000E705B05D0E3C06FF1E4C070F1E3
:10019800768C320E6327000E6423320E7127000E10
:1001A80072237550D8A407D00001E0BF04D0CE0E4A
:1001B800DF27FF0EE023320E01016127000E6223C4
:1001C800320E0001C427000EC523E80EC45D030EDD
:1001D800C559D8A02FD0F2A912D0EF2B3B0EEF654E
:1001E8000ED0000EEF6FEE2B3B0EEE6508D0000E22
:1001F800EE6FED2B630EED6502D0000EED6F000E75
:10020800C56F000EC46FC62B7350D8A473063B0E7F
:10021800C66510D0000EC66FC72BE14BE22B3B0E14
:10022800C76508D0000EC76FC82B170EC86502D067
:10023800000EC86FF2B2F292F2A41ED00D0EE82E94
:10024800FED700F0000ED76EE10ED66EF2940101D3
:1002580069516A11D8B405D06907D8A06A07818C9A
:1002680001D0819C73517411D8B405D07307D8A0FC
:100278007407818A01D0819A08C0DAFF07C0D9FFC4
:1002880006C0E0FF05C0E8FF04C0D8FF7790100063
:1002980035EF39F0640E096E000E0A6E000E0B6E13
:1002A800000E0C6EF0EC42F0D388D38AD38C9B8C72
:1002B800EF0E926E010E936EF00E946EE30E956E35
:1002C8009668D59AD596D582D582D584F194F28A46
:1002D800F290F2989E909F900B0ECF6EBA0ECE6E53
:1002E800CD92CD88CD8ACD8CCD869D80CD80F28C67
:1002F800F28E000E0101666F000E656F819E000E82
:100308006A6F000E696F819C000E746F000E736F28
:10031800819A000E166EC20E176E010E186E000E30
:10032800196ECDEC3EF082EC48F0A00E166E860EEB
:10033800176E010E186E000E196E28EC41F0F40EBF
:10034800096E010E0A6E000E0B6E000E0C6EF0ECBC
:1003580042F0000E0E6E220E0D6E0FEC45F00DC031
:10036800E3F20EC0E4F20201E32917E1E429D8A47C
:1003780014D0000E296E220E286E000E2B6E000E71
:100388002A6E0EEC47F0000E296EE80E286E000E5D
:100398002B6E000E2A6E0EEC47F00201E34BE42BA5
:1003A800000E296E220E286EE3C22AF0E4C22BF05A
:1003B8000EEC47F00001F1992C0E096E010E0A6E41
:1003C800000E0B6E000E0C6EF0EC42F0B50E206EB7
:1003D800FC0E216EA8EC37F02C0E096E010E0A6E89
:1003E800000E0B6E000E0C6EF0EC42F0280E206E24
:1003F800FE0E216EA8EC37F02C0E096E010E0A6E67
:10040800000E0B6E000E0C6EF0EC42F0E30E206E48
:10041800FC0E216EA8EC37F02C0E096E010E0A6E48
:10042800000E0B6E000E0C6EF0EC42F0070E1D6E07
:10043800C60E1C6EAA0E1E6E030E1F6E12EC48F03E
:10044800790E0D6E010E0E6EE00E0F6EFE0E106E22
:10045800ACEC41F0790E176E010E186EAA0E196EEB
:10046800030E1A6E34EC47F0790E206E010E216EE1
:10047800A8EC37F02C0E096E010E0A6E000E0B6EFA
:10048800000E0C6EF0EC42F065EC1FF0000E0A6EE8
:10049800340E096E2CEC45F0FF0AD8A479D0030E6F
:1004A800206EFD0E216EA8EC37F00A0E316E000E9C
:1004B80009EC33F0AFEC43F0FFEC41F068EC40F0AE
:1004C800000E756E000E0001EB6F68EC48F0000E30
:1004D800236E100E226E000E246E9BEC40F0000E70
:1004E800296E090E286E000E2B6E0A0E2A6E0EEC6F
:1004F80047F0000E296E0B0E286E400E2A6EE20E93
:100508002B6E010E2C6E000E2D6E78EC46F0000E50
:10051800FDEC0BF0000E236E110E226E000E246E01
:100528009BEC40F0000E236E120E226E000E246E1D
:100538009BEC40F05CEC34F0000E1F6E000E206E59
:10054800000E216E000E226E000E246E000E236E29
:10055800000EA5EC46F0020E1F6E000E206E000E77
:10056800216E000E226E000E236E000E246E000E09
:10057800256E000E266E000EB2EC45F0000E296EB8
:10058800FA0E286E000E2B6E320E2A6E0EEC47F015
:1005980094EC39F0010EFDEC0BF0000E0E6E0B0E14
:1005A8000D6EB7EC44F00DC0CDF00EC0CEF00FC00C
:1005B800CFF010C0D0F00DEC3FF0D4EC38F0E5EC03
:1005C80045F0020E1C6E000E1D6E000E1E6E000E13
:1005D8001F6E000EAFEC3AF01CC0C9F01DC0CAF087
:1005E8001EC0CBF01FC0CCF0000E0E6EFA0E0D6EC2
:1005F8000FEC45F00DC0D3F00EC0D4F0500E000142
:10060800D319D411D8A402D00C0E06D0320ED319A7
:10061800D411D8A402D0090EE56FA50E206EFE0EE7
:10062800216EA8EC37F0000E0201E56F0E0EE565AD
:1006380001D008D004000201E551FFEC28F00201C6
:10064800E52BF4D7000EE66F070EE66501D009D05A
:100658000400E6C222F0236A99EC2EF00201E62B90
:10066800F3D7000E0E6E0B0E0D6EB7EC44F00DC0F6
:10067800CDF00EC0CEF00FC0CFF010C0D0F00DEC12
:100688003FF0D9EC18F0D4EC38F0E5EC45F018EC74
:100698003CF0C5EC3DF0000E0001F66F000EF56F62
:1006A800000E0101F96F000EF86F000E0001EC6FEB
:1006B800000E0101646F000E636F000E786F000E6C
:1006C8000001DC6F000EDB6F000E0101606F000E91
:1006D8005F6F000E0001DE6F000EDD6F000E5BEC39
:1006E80044F0000E0001C56F000EC46F000EC66F07
:1006F800000EEF6FF2C0E6F0000E736EF3EC39F007
:100708002FEC21F0000E186E0F0E176E05EC48F056
:10071800959A839A0001F081F187E90E0101635DE2
:10072800030E6459D8A019D0000E646F000E636FD1
:1007380044EC37F012C0F5F013C0F6F00101F8519F
:100748000001F51906E10101F9510001F619D8B4C3
:1007580004D0F5C0F8F1F6C0F9F10001F197F1877E
:10076800050EC66108D0190EF519F611D8B403D0D4
:10077800000E5BEC44F00001F2B90AEC3BF018EC17
:100788003CF0C5EC3DF00001F197BBEC29F032ECF0
:1007980025F0ADEC30F07FEC27F077EC36F0C4ECC8
:1007A8003FF08BEC3FF00001F187E651F219D8B425
:1007B8000AD0000E236E100E226EF2C024F09BECBD
:1007C80040F0F2C0E6F00001F1AF8AEC43F0F19797
:1007D800D9EC18F070EC1CF00001F18785EF08F0F7
:1007E800000E0201E86F090EE86501D033D0070E4C
:1007F800E8251C6E1D6A000E1D2290EC47F01C04B3
:100808001D10D8A424D0070E0201E8251B6E1C6A0F
:10081800000E1C22000E1E6E000E1D6EF5EC47F039
:10082800E8C2E9F0050E0001E96109D0130EE86F8E
:10083800000E186E1B0E176E05EC48F008D0150E4A
:10084800E86F000E186E1C0E176E05EC48F00201DA
:10085800E82BC9D76AEC1BF0B5EF08F0000E1D6E47
:10086800010E1C6E90EC47F01C041D10D8A4B5EFC7
:1008780008F0000E1C6E010E1B6E000E1E6E000EA0
:100888001D6EF5EC47F01CEC32F0B5EF08F0EC51BA
:10089800D8A405D0010E5BEC44F00001EC2B000E4F
:1008A8001D6E980E1C6E90EC47F01C041D10D8A409
:1008B8000DD0000E1C6E980E1B6E000E1E6E000EE4
:1008C8001D6EF5EC47F0010E5BEC44F0000E1D6E5A
:1008D800AE0E1C6E90EC47F01C041D10D8A4B5EFAA
:1008E80008F0000E1C6EAE0E1B6E000E1E6E000E83
:1008F8001D6EF5EC47F079EC42F0B5EF08F0000E0C
:10090800EA6F070EEA6501D02FD0200EEA251C6E8B
:100918001D6A000E1D2290EC47F01C041D10D8A47F
:1009280020D0200E0001EA251B6E1C6A000E1C2236
:10093800000E1E6E000E1D6EF5EC47F0E8C017F0B5
:10094800186A05EC48F0E10E176E010E186E0001EA
:10095800EA51A4EC35F0010E226E0001E951DFECFA
:1009680036F00001EA2BCDD7000E1D6E110E1C6E5D
:1009780090EC47F01C041D10D8A40FD0000E1C6E7C
:10098800110E1B6E000E1E6E000E1D6EF5EC47F06C
:10099800E8C017F0186A05EC48F0000E1D6E120E3C
:1009A8001C6E90EC47F01C041D10D8A4DAD3000E7E
:1009B8001C6E120E1B6E000E1E6E000E1D6EF5ECE8
:1009C80047F0000E0101E76FE80E0D6E010E0E6E86
:1009D8005E0E0F6EFD0E106EACEC41F0000E0101C4
:1009E800E66F000EE56F000EE46F000EE36F000E79
:1009F800E26F000EE16F000E226E0001E951DFEC9C
:100A080036F0E8C017F0186A05EC48F0AAD3000ED3
:100A18000201E76F38D0E7511E0DF3CFC0F0F4CFD5
:100A2800C1F0170E0001C0251C6E100EC1211D6EED
:100A380090EC47F01C041D10D8A423D00201E75104
:100A48001E0DF3CFC0F0F4CFC1F0170E0001C02582
:100A58001B6E100EC1211C6E000E1E6E000E1D6E48
:100A6800F5EC47F00201E75172EC1EF0000E186E2B
:100A7800230E176E05EC48F05EEC48F0B7EC0EF06C
:100A880008D00201E72B0001E5510201E75DD8A07B
:100A9800C2D7000E1D6E300E1C6E90EC47F01C0481
:100AA8001D10D8A40CD0000E1C6E300E1B6E000E4C
:100AB8001E6E000E1D6EF5EC47F05CEC34F0F3ECA6
:100AC80039F0000E1D6EAF0E1C6E90EC47F01C0442
:100AD8001D10D8A446D3000E1C6EAF0E1B6E000E60
:100AE8001E6E000E1D6EF5EC47F0F6EC43F039D3A0
:100AF800100ECD19C06F2F0ECE19C16FBA0ECF19B7
:100B0800C26FE40ED019C36FC01D0201DD6F000172
:100B1800C11D0201DE6F0001C21D0201DF6F00016D
:100B2800C31D0201E06FDDC216F0DEC217F0DFC29E
:100B380018F0E0C219F0790E1A6E010E1B6E000E45
:100B48001D6E100E1C6EA3EC31F0060E1B6E7C0E93
:100B58001A6E790E1C6E010E1D6E21EC47F0F40E14
:100B6800096E010E0A6E000E0B6E000E0C6E81EC03
:100B780041F0010E1D6E820E1C6E90EC47F01C04B5
:100B88001D10D8A4EED2010E1C6E820E1B6E000E34
:100B98001E6E000E1D6EF5EC47F08EEC12F0E1D2E1
:100BA800F187030EF46F100EF36FF4BF06D01D0E1D
:100BB800F35D030EF459D8B077D2F351F00FE76F15
:100BC800F3C01CF0F4C01DF090EC47F00E0E1C189A
:100BD8001D10D8A489D10001EB51D8B476D1320EBA
:100BE800D319D411D8A403D0E7C0D1F0D26B500EDA
:100BF800D319D411D8A406D0C9EC42F0C06FC051A3
:100C0800D16FD26BD2BF06D0D25103E1080ED15DAD
:100C1800D8B020D1100EE7251B6E1C6A030E1C22CB
:100C2800010EE7251D6E1E6A000E1E22F5EC47F028
:100C3800D1C015F0D2C016F0000E186E0A0E176E4D
:100C480047EC47F0FD0E15241B6E060E16201C6E91
:100C5800010ED1C0C0F0D2C0C1F0C0C0C1F00001C7
:100C6800C06BC0111D6EC1511E6EF5EC47F0D1C0AE
:100C780015F0D2C016F0000E186E0A0E176E47EC6B
:100C880047F0FB0E15241B6E060E16201C6E000185
:100C9800E751020D370EF324D96E010EF420DA6EF7
:100CA800DECF1DF0DDCF1EF0F5EC47F0690E000138
:100CB800D125D96E020ED221DA6ED1C0DFFF780EAF
:100CC800D125D96E020ED221DA6EE729DF6E870EA2
:100CD800E725D96EDA6A020EDA22E729DF6EE751D4
:100CE800020D370EF324D96E010EF420DA6ED89077
:100CF800D135E16ED235E26E960EE126020EE22281
:100D0800DECFE6FFDDCFE5FF0F0EC06F020EC16F2D
:100D18001E0EC027000EC123D890D135D96ED2350A
:100D2800DA6ED890D936DA36C051D926C151DA22CE
:100D3800000EDE6E000EDE6E800EDE6E3F0EDD6E85
:100D4800020EE76508D0010EE7250201E16FE26BAC
:100D5800000EE22304D0E7C0E1F20201E26BE1C237
:100D6800C0F0E2C2C1F0D8900001C037C137C30E4D
:100D7800C26F010EC36FC051C227C151C323D8909F
:100D8800D135D96ED235DA6E0F0ED926020EDA2297
:100D9800C2C0DEFFC3C0DDFF0F0EC06F020EC16F01
:100DA8001E0EC027000EC123D890D135D96ED2357A
:100DB800DA6ED890D936DA36C051D926C151DA223E
:100DC800000EDE6E000EDE6E800EDE6E3F0EDD6EF5
:100DD800E751D8A41CD00F0EC06F020EC16F1E0EB3
:100DE800C027000EC123D890D135D96ED235DA6E1E
:100DF800D890D936DA36C051D926C151DA22550EE3
:100E0800DE6EC10EDE6EE80EDE6E3E0EDD6EE705AE
:100E1800D8A41CD00F0EC06F020EC16F1E0EC027C3
:100E2800000EC123D890D135D96ED235DA6ED8905C
:100E3800D936DA36C051D926C151DA22CD0EDE6E46
:100E4800CC0EDE6E4C0EDE6E3D0EDD6E020EFDEC3F
:100E58000BF026D1D1C015F0D2C016F0000E186ED6
:100E68000A0E176E47EC47F0FD0E15241B6E060E92
:100E780016201C6E0001D151C16FC06B000EC0114D
:100E88001D6E0A0EC1111E6EF5EC47F0D1C015F0AB
:100E9800D2C016F0000E186E0A0E176E47EC47F017
:100EA800FB0E15241B6E060E16201C6EFF0E1E6E02
:100EB8001D68F5EC47F0F3C01BF0F4C01CF0FF0E02
:100EC8001E6E1D68F5EC47F0EBD0B4EC47F0F3C0AC
:100ED8001BF0F4C01CF0FF0E1E6E1D68F5EC47F009
:100EE800520EAAEC48F0DCD0F3C01CF0F4C01DF0A0
:100EF80090EC47F01D5004E10F0E1C5CD8A0D0D038
:100F0800F3C01CF0F4C01DF090EC47F01D5003E155
:100F18001F0E1C5CD8B0C4D00001EB51D8B48DD0E2
:100F2800780E096E020E0A6EE7290B6E5AEC47F02E
:100F38000201E96F780E0001E725D96EDA6A020E20
:100F4800DA22DF50C06FC0050201DC6FF3C01BF06E
:100F5800F4C01CF0FF0E1E6E1D68F5EC47F0020190
:100F6800E9510A0DF3CFC0F0F4CFC1F0FD0E000136
:100F7800C0251B6E060EC1211C6E0A0E1E6E000EC9
:100F88001D6EF5EC47F00201E9510A0DF3CFC0F0F0
:100F9800F4CFC1F0FB0E0001C0251B6E060EC12167
:100FA8001C6EFF0E1E6E1D68F5EC47F00201E9513C
:100FB800020D0F0EF324D96E020EF420DA6E000E25
:100FC800DE6E000EDD6E690EE925D96EDA6A020E54
:100FD800DA220A0EDF6E780EE925D96EDA6A020E79
:100FE800DA22FF0EDF6E870E0001E725D96EDA6A76
:100FF800020EDA22FF0EDF6E0201E951020D960E93
:10100800F324D96E020EF420DA6EFF0EDE6EFF0EA8
:10101800DD6EE951040D2D0EF324D96E020EF42075
:10102800DA6E000EDE6E000EDE6E000EDE6E000E54
:10103800DD6E020EFDEC0BF033D0B4EC47F0520E2F
:10104800AAEC48F0320E0001D319D411D8A411D05B
:10105800F3C01BF0F4C01CF0780EE725D96EDA6AED
:10106800020EDA22DF50C06FC0511D6E1E6AF5EC09
:1010780047F0500E0001D319D411D8A411D0F3C0F1
:101088001BF0F4C01CF0870EE725D96EDA6A020E51
:10109800DA22DF50C06FC0511D6E1E6AF5EC47F0B2
:1010A8000001F34BF42B81D5F1975BD046EC48F067
:1010B800000E0001EA6F070EEA6501D052D0200E3B
:1010C800EA251C6E1D6A000E1D2290EC47F01C04D8
:1010D8001D10D8A410D0200E0001EA251B6E1C6A32
:1010E800000E1C22000E1E6E000E1D6EF5EC47F061
:1010F800ADEC3CF036D00001EA2BDDD7CBEC10F09C
:1011080030D0F5C0C0F0F6C0C1F0C151000AD8A473
:1011180028D0C051130AD8B4F4EF03F0060AD8B4A3
:10112800F4EF03F0020AD8B432EF04F00E0AD8B490
:101138004BEF04F0020AD8B483EF04F0070AD8B4DE
:1011480083EF04F0010AD8B462D4020AD8B4D0D428
:101158003C0AD8B425D50C0AD8B4A8D71E0AD8B4E6
:10116800CDD77CEC33F08EEF03F004C5ACF005C5A9
:10117800BAF006C5B9F007C5B8F008C5B7F0D0D2BF
:1011880005C53DF025EE04F0DF503E6E3D50226E61
:101198003EC023F006C524F09BEC40F0030E7EEC25
:1011A80045F089EC48F0AFEC48F0120005C53DF079
:1011B80025EE04F0DF503E6E3D50096E3EC00AF049
:1011C8002CEC45F00001AE6F010E7EEC45F00001FD
:1011D800AE5139EC48F0120005C53DF03D5004C54C
:1011E8003EF03EC03FF0406A3FC040F03F6A3F10CB
:1011F8000001AA6F4050AB6F07C53DF03D5006C5D2
:101208003EF03EC03FF0406A3FC040F03F6A3F10AA
:10121800A86F4050A96FAAC028F0ABC029F0A8C099
:101228002AF0A9C02BF00EEC47F0030E7EEC45F037
:10123800B8D705C53DF025EE04F0DF503E6E3D50B1
:101248000D6E3EC00EF00FEC45F00DC0B4F00EC0B0
:10125800B5F0020E7EEC45F0B4C00AF0B5C00BF054
:101268009EEC48F0120005C53DF025EE04F0DF5075
:101278003E6E3D50286E3EC029F0060E2A6E050EC1
:101288002B6E3AEC44F0030E7EEC45F089EC48F006
:10129800120005C53DF025EE04F0DF503E6E3D50CE
:1012A8000D6E3EC00EF0790E0F6E010E106E63ECDF
:1012B80045F04A0E7EEC45F0790E0A6E010E0B6E73
:1012C8004AEC3EF01200B7C01FF0B8C020F0B9C019
:1012D80021F0BAC022F009C523F025EE04F0DF5052
:1012E800A2EC47F0030E7EEC45F0D0D7B7C01CF057
:1012F800B8C01DF0B9C01EF0BAC01FF025EE04F04A
:10130800DF507EEC47F00001AE6F010E7EEC45F039
:101318000001AE5139EC48F01200B7C01FF0B8C058
:1013280020F0B9C021F0BAC022F00AC53DF03D5006
:1013380009C53EF03EC03FF0406A3FC040F03F6AFA
:101348003F10236E4050246E25EE04F0DF50A5ECCC
:1013580046F0030E7EEC45F099D7B7C01CF0B8C034
:101368001DF0B9C01EF0BAC01FF025EE04F0DF5022
:1013780098EC45F01CC0B4F01DC0B5F0020E7EEC30
:1013880045F06AD7B7C01CF0B8C01DF0B9C01EF050
:10139800BAC01FF025EE04F0DF50AFEC3AF01CC0E5
:1013A800B0F01DC0B1F01EC0B2F01FC0B3F0040E03
:1013B8007EEC45F00001B35139EC48F00001B25120
:1013C80039EC48F00001B15139EC48F00001B05156
:1013D80039EC48F0120009C5ADF00001AD517EECC2
:1013E80045F0B7C010F0B8C011F0B9C012F0BAC0DB
:1013F80013F0ADC014F0AA0E156E030E166E0001A0
:10140800AC510CEC22F01200B7C00DF0B8C00EF0D1
:10141800B9C00FF0BAC010F009C511F00A0E126E6B
:10142800050E136E25EE04F0DF50BCEC26F0030E1B
:101438007EEC45F02BD7B7C00DF0B8C00EF0B9C0A0
:101448000FF0BAC010F0090E116E050E126E25EEDF
:1014580004F0DF5024EC2FF0030E7EEC45F016D795
:10146800B7C010F0B8C011F0B9C012F0BAC013F08C
:10147800790E146E010E156E25EE04F0DF506CEC3B
:1014880024F0790E096E010E0A6E18EC44F009502A
:101498007EEC45F011D706C53DF025EE05F0DF508E
:1014A8003E6E3D50286E3EC029F025EE04F0DF5018
:1014B80051EC42F0030E7EEC45F0E8D6020E7EECCD
:1014C80045F00001ED5139EC48F00001EE5139ECDE
:1014D80048F01200800E1B6E8A0E1C6EF8EC25F088
:1014E800090E7EEC45F025EE04F0DF50D8A406D0B6
:1014F800800E0A6E0B6A4AEC3EF012008A0E0A6EE3
:101508000B6A4AEC3EF01200000E0001B66F070E9F
:10151800B66501D00ED0040EB625D96EDA6A050E6E
:10152800DA22B651940FE16EE26ADFCFE7FFB62BFD
:10153800EED7000E9C6F000EB66F070EB66501D091
:101548000ED00C0EB625D96EDA6A050EDA22B6511F
:101558009E0FE16EE26ADFCFE7FFB62BEED7000EF3
:10156800A66F940E0C6E9E0E0D6EE0EC2CF0120021
:1015780005C53DF025EE04F0DF503E6E3D501A6E75
:101588003EC01BF007C540F04050426E416A25EE50
:1015980006F0DF50436E446A415043101C6E4250BF
:1015A80044101D6EC5EC47F0030E7EEC45F06ED678
:1015B800838A05C53DF004C53EF03E50406E3F6A43
:1015C8003D503F241C6E000E40201D6EBBEC46F0C3
:1015D8001CC0B4F01DC0B5F0839A838A790E096ED9
:1015E800010E0A6E18EC44F009507EEC45F0B4C0C8
:1015F8000AF0B5C00BF09EEC48F0839A120005C5BE
:101608003DF025EE04F0DF503E6E3D50176E3EC0B3
:1016180018F0FEEC45F0030E7EEC45F037D605C514
:101628003DF025EE04F0DF503E6E3D50176E3EC093
:1016380018F005EC48F0030E7EEC45F027D625EEB1
:1016480004F0DF50AAEC48F0030E7EEC45F01ED6FD
:10165800000E0E6E090E0D6E0FEC45F00DC0B4F0C5
:101668000EC0B5F0020E7EEC45F0F6D5050104512A
:10167800040FFFEC28F0030E7EEC45F007D6010EB0
:101688007EEC45F0745039EC48F012000A0E316EC9
:10169800000E09EC33F0000E0001AF6F0E0EAF65BF
:1016A80001D006D0AF51FFEC28F00001AF2BF6D7E0
:1016B800030E7EEC45F0EAD54CEC20F0030E7EECF0
:1016C80045F0E4D505C53DF025EE04F0DF503E6E4B
:1016D8003D501A6E3EC01BF0060E1C6E050E1D6EA8
:1016E80021EC47F0030E7EEC45F0D0D505C53DF062
:1016F80025EE04F0DF503E6E3D501C6E3EC01DF0DE
:10170800790E1E6E010E1F6E12EC48F0790E096EEE
:10171800010E0A6E18EC44F009507EEC45F0CCD569
:1017280025EE02F0DF503D6E3E6A3E50000AD8A416
:1017380012003D50080AD8B423D5010AD8B436D5CA
:10174800030AD8B449D5010AD8B473D5070AD8B45E
:101758008AD5010AD8B49DD51C0AD8B4B4D5030AD1
:10176800D8B4C4D5010AD8B4D8D5070AD8B4F5D5A1
:10177800010AD8B460D6030AD8B472D6010AD8B41C
:1017880043D60F0AD8B427D6010AD8B484D6390A62
:10179800D8B4EED6010AD8B40BD7030AD8B492D776
:1017A800010AD8B4A3D7070AD8B429D7010AD8B4EC
:1017B80036D7030AD8B443D7010AD8B460D70F0A7A
:1017C800D8B446D7050AD8B479D6030AD8B482D68D
:1017D800010AD8B499D66D0AD8B448D7010AD8B442
:1017E80055D7070AD8B468D7010AD8B4CBD5030AA5
:1017F8001200346E76EC2DF0A4D2000E3C6E3C50F4
:10180800020D960EF324D96E020EF420DA6EFF0E46
:10181800DE6EFF0EDD6E690E3C24D96EDA6A020EAA
:10182800DA220A0EDF6E780E3C24D96EDA6A020ECE
:10183800DA22FF0EDF6E870E3C24D96EDA6A020EBA
:10184800DA22FF0EDF6E3C50020D0F0EF324D96E24
:10185800020EF420DA6E000EDE6E000EDD6E3C50D5
:10186800040D2D0EF324D96E020EF420DA6E000E4C
:10187800DE6E000EDE6E000EDE6E000EDD6E130EE6
:101888003C24226E236A000E2322870E3C24D96E44
:10189800DA6A020EDA22DF50246E9BEC40F0EA0E80
:1018A8003C24226E236A000E2322780E3C24D96E33
:1018B800DA6A020EDA22DF50246E9BEC40F0240E26
:1018C8003C24226E236A000E2322690E3C24D96E22
:1018D800DA6A020EDA22DF50246E9BEC40F0100E1A
:1018E8003C241B6E1C6A030E1C22FF0E1E6E1D6814
:1018F800F5EC47F03C500A0DF3CF2EF0F4CF2FF063
:10190800FD0E2E241B6E060E2F201C6E0A0E1E6E58
:10191800000E1D6EF5EC47F03C500A0DF3CF2EF08B
:10192800F4CF2FF0FB0E2E241B6E060E2F201C6EFC
:10193800FF0E1E6E1D68F5EC47F03C2A0C0E3C6449
:101948005ED71200000E0E6E130E0D6E870E0F6E10
:10195800020E106E0F0E116E49EC46F0000E0E6E60
:10196800EA0E0D6E780E0F6E020E106E0F0E116ECF
:1019780049EC46F0000E0E6E240E0D6E690E0F6EC9
:10198800020E106E0F0E116E49EC46F0000E3C6E02
:10199800870E3C24D96EDA6A020EDA22DF50376EDF
:1019A8003728D8B40CD0100E3C241B6E1C6A030ECA
:1019B8001C2237C01DF01E6AF5EC47F00BD0100E44
:1019C8003C241B6E1C6A030E1C22FF0E1E6E1D6833
:1019D800F5EC47F03C2A0C0E3C64DAD7000E3C6E5E
:1019E800690E3C24D96EDA6A020EDA22080EDF602C
:1019F80017D0780E3C24D96EDA6A020EDA22DF504C
:101A08002E6E2F6AD8902E362F36350E2E24D96E8C
:101A1800010E2F20DA6EDECF39F0DDCF3AF002D09A
:101A280039683A683C500A0DF3CF2EF0F4CF2FF006
:101A3800FB0E2E241B6E060E2F201C6E39C01DF0C7
:101A48003AC01EF0F5EC47F03C50020D960EF32418
:101A5800D96E020EF420DA6E39C0DEFF3AC0DDFF1F
:101A68003C2A0C0E3C64BCD7000E3C6E690E3C242C
:101A7800D96EDA6A020EDA22DF50386E080E386044
:101A88001AD03C500A0DF3CF2EF0F4CF2FF0FD0EF4
:101A98002E241B6E060E2F201C6E010E38C030F04F
:101AA800316A30C031F0306A30101D6E31501E6E10
:101AB800F5EC47F012D03C500A0DF3CF2EF0F4CFDE
:101AC8002FF0FD0E2E241B6E060E2F201C6E0A0E04
:101AD8001E6E000E1D6EF5EC47F03C2A0C0E3C64A1
:101AE800C5D7000E3B6E690E3B24D96EDA6A020E2A
:101AF800DA220A0EDE18D8B4CBD0FF0E2E6EFF0EF7
:101B08002F6E690E3B24D96EDA6A020EDA22DF5094
:101B1800306E316A780E3024D96E020E3120DA6EBA
:101B2800DF50326E336A2E5032262F50332233BEA6
:101B38001BD0335004E1030E325CD8A015D0690ED7
:101B48003B24D96EDA6A020EDA22DF502E6E2F6A33
:101B5800780E2E24D96E020E2F20DA6EDF50306EEA
:101B68003050356E366A17D0690E3B24D96EDA6A62
:101B7800020EDA22DF502E6E2F6A780E2E24D96ECE
:101B8800020E2F20DA6EDF50306EFF0E3024356ED5
:101B9800366AFF0E362235C02EF036C02FF0D890A8
:101BA8002E362F36C30E306E010E316E2E50302673
:101BB8002F503122690E3B24D96EDA6A020EDA22DE
:101BC800DF50326E3250020D0F0EF324D96E020E22
:101BD800F420DA6E30C0DEFF31C0DDFF690E3B2431
:101BE800D96EDA6A020EDA22DF502E6E2E50040DFC
:101BF8002D0EF324D96E020EF420DA6E000EDE6E7E
:101C0800000EDE6E800EDE6E3F0EDD6E690E3B242A
:101C1800D96EDA6A020EDA22DF50D8A418D0690E1B
:101C28003B24D96EDA6A020EDA22DF502E6E2E506D
:101C3800040D2D0EF324D96E020EF420DA6E550E23
:101C4800DE6EC10EDE6EE80EDE6E3E0EDD6E690ED5
:101C58003B24D96EDA6A020EDA22DE04D8A418D040
:101C6800690E3B24D96EDA6A020EDA22DF502E6E34
:101C78002E50040D2D0EF324D96E020EF420DA6EC8
:101C8800CD0EDE6ECC0EDE6E4C0EDE6E3D0EDD6EC3
:101C98003B2A070E3B6427D71200000E3C6E100E3D
:101CA8003C241C6E1D6A030E1D2290EC47F0870E23
:101CB8003C24D96EDA6A020EDA221CC0DFFF3C50DF
:101CC8000A0DF3CF2EF0F4CF2FF0FD0E2E241C6E4C
:101CD800060E2F201D6E90EC47F01DC01CF01D6AEB
:101CE800690E3C24D96EDA6A020EDA221CC0DFFFC4
:101CF8003C2A0D0E3C64D3D7000E296E130E286EB5
:101D0800870E2A6E020E2B6E0F0E2C6ECCEC45F051
:101D1800000E296EEA0E286E780E2A6E020E2B6EC1
:101D28000F0E2C6ECCEC45F0000E296E240E286E9A
:101D3800690E2A6E020E2B6E0F0E2C6ECCEC45F03F
:101D4800120034502E6E2F6A2F50000AD8A41200A9
:101D58002E50000AD8B451D5010AD8B4F3D5030AD5
:101D6800D8A412009AD7500E0001D319D411D8A4C0
:101D780008D0000EAB6F800EAC6F0D0EAD6F440E29
:101D88000CD0320ED319D411D8A408D0000EAB6FE2
:101D9800800EAC6FA00EAD6F430EAE6F000E186EC6
:101DA800230E176E05EC48F017EC43F02CC1BBF07E
:101DB8002DC1BCF02EC1BDF02FC1BEF0000E000138
:101DC800B66F000EB76F000EB86F000EB96F030E36
:101DD8000001836F080E826F770EE82EFED7822FE0
:101DE800FCD7832FFAD7000E0001BA6F2FD0030E4D
:101DF800BA19D8B429D0BAC082F0D89082338229CF
:101E0800AF6FBA51010BB06FB0C0B1F0BEC0B2F045
:101E1800BDC0B3F0BCC0B4F0BBC0B5F0140E0C6EBE
:101E2800050E0D6EB10E0E6E0F6AAF51DAEC22F090
:101E38000001BA51020DF350860FD96EDA6A0CC050
:101E4800DEFF0DC0DDFF04000001BA2B7450020D47
:101E5800BA51826F836BF350825D8351800A846F1D
:101E6800F450800A8459D8A0C2D7030E0001836FAA
:101E7800080E826F770EE82EFED7822FFCD7832FAD
:101E8800FAD7000E0001BF6FB6D0550E1B6EC10EFB
:101E98001C6EE80E1D6E3E0E1E6EBF51020DF350F5
:101EA800860FD96EDA6ADECF09F0DDCF0AF0000EB0
:101EB8000ABEFF0E0B6E0C6E010E0BEC2BF009C068
:101EC80017F00AC018F00BC019F00CC01AF0BDECDE
:101ED80015F017C062F018C063F019C064F01AC09A
:101EE80065F052EC3AF062C06CF063C06DF000012E
:101EF800BF29CBEC40F07DD0CD0E1B6ECC0E1C6EF6
:101F08004C0E1D6E3D0E1E6EBF51020DF350860F16
:101F1800D96EDA6ADECF09F0DDCF0AF0000E0ABE0C
:101F2800FF0E0B6E0C6E010E0BEC2BF009C017F0B8
:101F38000AC018F00BC019F00CC01AF0BDEC15F06F
:101F480017C062F018C063F019C064F01AC065F0D9
:101F580052EC3AF062C06CF063C06DF00001BF292A
:101F6800CBEC40F046D0000E1B6E000E1C6E800EAF
:101F78001D6E3F0E1E6EBF51020DF350860FD96EB7
:101F8800DA6ADECF09F0DDCF0AF0000E0ABEFF0ED6
:101F98000B6E0C6E010E0BEC2BF009C017F00AC08B
:101FA80018F00BC019F00CC01AF0BDEC15F017C0F2
:101FB80062F018C063F019C064F01AC065F052EC02
:101FC8003AF062C06CF063C06DF00001BF29CBEC41
:101FD80040F00FD0BF51826F836B8351000AD8A4A1
:101FE800C2D78251000AD8B450D7010AD8B484D7CE
:101FF800BAD70001BF2B7450020DBF51826F836B9B
:10200800F350825D8351800A846FF450800A8459AA
:10201800D8A0E0D7000E1B6E000E1C6E000E1D6EC1
:10202800400E1E6E01012C51305D096E2D51315943
:102038000A6E2E5132590B6E2F5133590C6E000E09
:102048000BEC2BF009C017F00AC018F00BC019F000
:102058000CC01AF026EC1AF017C0A7F018C0A8F0A8
:1020680019C0A9F01AC0AAF0B6C030F0B7C031F054
:10207800B8C032F0B9C033F0ABC01BF0ACC01CF034
:10208800ADC01DF0AEC01EF0A7C017F0A8C018F074
:10209800A9C019F0AAC01AF026EC1AF017C034F03B
:1020A80018C035F019C036F01AC037F053EC17F0E5
:1020B80030C0B6F031C0B7F032C0B8F033C0B9F0B4
:1020C800B6C048F0B7C049F0B8C04AF0B9C04BF044
:1020D80026EC14F048C062F049C063F04AC064F0CE
:1020E8004BC065F052EC3AF062C0A3F063C0A4F0B4
:1020F80064C0A5F065C0A6F0D8900001A335826F32
:10210800A435836FA535846FA635856F01012C51E1
:1021180000018225BB6F01012D5100018321BC6F95
:1021280001012E5100018421BD6F01012F510001D1
:102138008521BE6F959C838C44EC37F0230E1218D2
:102148001310D8B410D0839C959E838E060E000180
:10215800826F300EE82EFED7822FFCD700F0839EC8
:102168005EEC48F01200839C010130510001BB5D18
:10217800010131510001BC59010132510001BD5921
:10218800010133510001BE59D8B0120020D6010E0A
:102198001D6E860E1C6E90EC47F01C041D10D8A412
:1021A80087D0000E0101E26F000EE16F000EE46FB0
:1021B800000EE36F000EE66F000EE56F000EE76F8E
:1021C800E80E0D6E010E0E6E5E0E0F6EFD0E106E99
:1021D800ACEC41F0E10E2C6E010E2D6E0001EA51BF
:1021E80064EC3BF0EAC022F0236A99EC2EF0010E71
:1021F8001C6E9A0E1B6E000E1E6E000E1D6EF5EC08
:1022080047F0010E1C6E9B0E1B6E000E1E6E000E1C
:102218001D6EF5EC47F0010E1C6E9C0E1B6E000E39
:102228001E6E000E1D6EF5EC47F0010E1C6E9D0E25
:102238001B6E000E1E6E000E1D6EF5EC47F0010EB3
:102248001B6E9E0E1A6E5F0E1C6EFD0E1D6E21EC2F
:1022580047F046EC48F0010E1C6E860E1B6E000E11
:102268001E6E000E1D6EF5EC47F0600EAAEC48F0ED
:1022780017EC43F0070E1B6E760E1A6EF20E1C6EEC
:10228800FD0E1D6E21EC47F0DC0E096E050E0A6E80
:10229800000E0B6E000E0C6E64EC43F0070E1B6E06
:1022A800760E1A6E5F0E1C6EFD0E1D6E21EC47F049
:1022B800010E1D6E870E1C6E90EC47F01C041D105D
:1022C800D8A468D0010E1D6E9A0E1C6E90EC47F0D3
:1022D8001CC0E1F11DC0E2F1010E1D6E9B0E1C6ECB
:1022E80090EC47F01CC0E3F11DC0E4F1010E1D6E37
:1022F8009C0E1C6E90EC47F01CC0E5F11DC0E6F189
:10230800010E1D6E9D0E1C6E90EC47F01C500101D5
:10231800E76F010E1D6E9E0E1C6EE80E1E6E010EFE
:102328001F6E12EC48F0E10E2C6E010E2D6E0001AE
:10233800EA5164EC3BF046EC48F0010E1C6E870E47
:102348001B6E000E1E6E000E1D6EF5EC47F0500E53
:10235800AAEC48F017EC43F0070E1B6E760E1A6EC7
:10236800D60E1C6EFD0E1D6E21EC47F0DC0E096EBC
:10237800050E0A6E000E0B6E000E0C6E64EC43F038
:10238800070E1B6E760E1A6E5F0E1C6EFD0E1D6E0E
:1023980021EC47F0010E1D6E880E1C6E90EC47F084
:1023A8001C041D10D8A49BD0070E1B6E760E1A6E47
:1023B8009C0E1C6EFD0E1D6E21EC47F0E10E176E93
:1023C800010E186E0001EA51A4EC35F0070E1B6EE1
:1023D800760E1A6E7E0E1C6EFD0E1D6E21EC47F0F9
:1023E800000E3A6E20D03AC03DF0E1C13EF0E2C1A5
:1023F8003FF0E3C140F0E5C141F0E7C142F0430ED0
:102408000D6E0E6AE80E0F6E010E106EACEC41F008
:10241800000E4D6E010E4C6E3D0E2C6E2D6A3A501C
:1024280095EC32F03A2AFC0E336EFF0E346E74507F
:10243800356E366AD89035363636335035263450B0
:1024480036223A50376E386A3550375C3850800A31
:10245800396E3650800A3958D8A0C5D7070E1B6E7A
:10246800760E1A6E810E1C6EFC0E1D6E21EC47F066
:102478004CEC20F0070E1B6E760E1A6E230E1C6EA7
:10248800FD0E1D6E21EC47F0000E3B6E3B50FFEC3D
:1024980028F03B2A0E0E3B64F9D7000E3C6E3C50E8
:1024A80068EC2AF03C2A090E3C64F9D7010E1C6E30
:1024B800880E1B6E000E1E6E000E1D6EF5EC47F0AA
:1024C800600EAAEC48F017EC43F0070E1B6E760E70
:1024D8001A6E5F0E1C6EFD0E1D6E21EC47F0010E8C
:1024E8001D6E890E1C6E90EC47F01C041D10D8A4BC
:1024F8001200010E1C6E890E1B6E000E1E6E000E61
:102508001D6EF5EC47F0000E186E2F0E176E05ECD9
:1025180048F01200010E1D6E7E0E1C6EFAEC46F09D
:102528001CC062F01DC063F01EC064F01FC065F0DF
:1025380052EC3AF0010E1D6E800E1C6EFAEC46F05D
:102548001CC062F01DC063F01EC064F01FC065F0BF
:1025580052EC3AF0010E136E7C0E126E9C0E146E45
:10256800156A040E166E28EC31F09EC080F000014A
:10257800816B826B836B82C083F081C082F080C0E4
:1025880081F0806B9DC084F0856B866B876B85C0FE
:1025980087F084C086F0856B846B9CC088F0896B5B
:1025A8008A6B8B6B88C08BF08A6B896B886B8451C4
:1025B80088258C6F855189218D6F86518A218E6F70
:1025C80087518B218F6F80518C25906F81518D2180
:1025D800916F82518E21926F83518F21936F9F51FA
:1025E8009025CD6F000E9121CE6F000E9221CF6FF6
:1025F800000E9321D06F010E136E7E0E126E9C0E8C
:10260800146E156A040E166E28EC31F09EC080F028
:102618000001816B826B836B82C083F081C082F082
:1026280080C081F0806B9DC084F0856B866B876B62
:1026380085C087F084C086F0856B846B9CC088F069
:10264800896B8A6B8B6B88C08BF08A6B896B886B04
:10265800845188258C6F855189218D6F86518A21F7
:102668008E6F87518B218F6F80518C25906F815190
:102678008D21916F82518E21926F83518F21936F9B
:102688009F519025986F000E9121996F000E92210D
:102698009A6F000E93219B6F010E136E800E126EBF
:1026A8009C0E146E156A040E166E28EC31F09EC04E
:1026B80080F00001816B826B836B82C083F081C0E4
:1026C80082F080C081F0806B9DC084F0856B866B42
:1026D800876B85C087F084C086F0856B846B9CC04F
:1026E80088F0896B8A6B8B6B88C08BF08A6B896BDF
:1026F800886B845188258C6F855189218D6F86510F
:102708008A218E6F87518B218F6F80518C25906F16
:1027180081518D21916F82518E21926F83518F212A
:10272800936F9F519025946F000E9121956F000E25
:102738009221966F000E9321976FCD51CE11CF1134
:10274800D011D8B40CD0985199119A119B11D8B4C2
:1027580006D09451951196119711D8A404D0230E40
:10276800AAEC48F01200000E0E6E0B0E0D6EB7ECC0
:1027780044F00001CD510D1861E1CE510E185EE113
:10278800CF510F185BE1D0511018D8A457D09451ED
:10279800981950E1955199194DE196519A194AE1C4
:1027A80097519B19D8A446D0000E296E0B0E286E9F
:1027B80098C02AF099C02BF09AC02CF09BC02DF03D
:1027C80078EC46F098C0CDF099C0CEF09AC0CFF022
:1027D8009BC0D0F068EC48F0010E1B6E7C0E1A6EA0
:1027E800000E1C6E000E1D6E000E1E6E000E1F6E7B
:1027F8003EEC43F0010E1B6E7E0E1A6E000E1C6E30
:10280800000E1D6E000E1E6E000E1F6E3EEC43F095
:10281800010E1B6E800E1A6E000E1C6E000E1D6ED1
:10282800000E1E6E000E1F6E3EEC43F0220EAAEC48
:1028380048F01200210EAAEC48F01200200EAAEC73
:1028480048F0120051C15AF052C15BF053C15CF01C
:1028580054C15DF048C05AF049C05BF04AC05CF012
:102868004BC05DF05AC04CF05BC04DF05CC04EF000
:102878005DC04FF0180E05D0D8904F324E324D3211
:102888004C32E82EF9D74C50546E556A55BE0FD0CD
:10289800555004E1960E545CD8A009D048C048F0C1
:1028A80049C049F04AC04AF04BC04BF012005AC028
:1028B8004CF05BC04DF05CC04EF05DC04FF0200E98
:1028C80005D0D8904F324E324D324C32E82EF9D7DF
:1028D8004C50D8B412D048C009F049C00AF04AC0D8
:1028E8000BF04BC00CF061EC46F009C048F00AC090
:1028F80049F00BC04AF00CC04BF055BE06D05550FD
:102908001FE17E0E545CD8B01BD05AC017F05BC0D4
:1029180018F05CC019F05DC01AF0000E1B6E000EB6
:102928001C6E000E1D6E000E1E6EBDEC15F017C05D
:1029380048F018C049F019C04AF01AC04BF012000C
:10294800000E346E000E356E000E366E4B0E376E6E
:1029580048C030F049C031F04AC032F04BC033F0C3
:1029680053EC17F030C056F031C057F032C058F071
:1029780033C059F0000E346E000E356E000E366E00
:10298800CB0E376E56C030F057C031F058C032F019
:1029980059C033F053EC17F030C050F031C051F04B
:1029A80032C052F033C053F050C040F051C041F033
:1029B80052C042F053C043F048C044F049C045F00B
:1029C8004AC046F04BC047F0D3EC43F040C05EF03D
:1029D80041C05FF042C060F043C061F0000E096E74
:1029E800000E0A6E000E0B6E3F0E0C6E5EC00DF0F0
:1029F8005FC00EF060C00FF061C010F00FEC36F051
:102A0800D8B02DD048C034F049C035F04AC036F0AF
:102A18004BC037F05EC030F05FC031F060C032F0BC
:102A280061C033F053EC17F030C056F031C057F0A6
:102A380032C058F033C059F056C030F057C031F0AA
:102A480058C032F059C033F0000E346E000E356EA7
:102A5800800E366EBF0E376E53EC17F053D0000E53
:102A6800096E000E0A6E000E0B6EBF0E0C6E5EC075
:102A78000DF05FC00EF060C00FF061C010F00FECF9
:102A880036F0D8A02DD048C034F049C035F04AC03F
:102A980036F04BC037F05EC030F05FC031F060C038
:102AA80032F061C033F053EC17F030C056F031C04B
:102AB80057F032C058F033C059F056C030F057C004
:102AC80031F058C032F059C033F0000E346E000EA9
:102AD800356E800E366E3F0E376E53EC17F012D0FF
:102AE8005EC030F05FC031F060C032F061C033F0DA
:102AF80048C034F049C035F04AC036F04BC037F012
:102B080053EC17F030C05EF031C05FF032C060F0B7
:102B180033C061F05AC04CF05BC04DF05CC04EF061
:102B28005DC04FF0200E05D0D8904F324E324D3256
:102B38004C32E82EF9D74C50D8B412D05EC009F008
:102B48005FC00AF060C00BF061C00CF061EC46F0A9
:102B580009C05EF00AC05FF00BC060F00CC061F005
:102B68005EC048F05FC049F060C04AF061C04BF0F9
:102B780012001A50800B236E1A501A24256E19BEA3
:102B880025802550D8B40DD02528D8A408D0000E0B
:102B9800176E000E186E000E196E000E1A6E198E42
:102BA80008D0000E176E000E186E000E196E000E7B
:102BB8001A6E1E50800B231A1E501E24246E1DBE32
:102BC80024802450D8B40DD02428D8A408D0000ECE
:102BD8001B6E000E1C6E000E1D6E000E1E6E1D8EEE
:102BE80008D0000E1B6E000E1C6E000E1D6E000E2F
:102BF8001E6E2450D8B403D02550D8A409D0000E96
:102C0800176E000E186E000E196E000E1A6E120066
:102C18001D501702F3CF2EF0F4CF2FF02E50266E52
:102C2800276A286A296A2F502A6E2B6A2C6A2D6A0D
:102C38001C501802F3CF2EF0F4CF2FF02E5026267A
:102C4800000E2722282229222F502A26000E2B2266
:102C58002C222D221B501902F3CF2EF0F4CF2FF087
:102C68002E502626000E2722282229222F502A26D7
:102C7800000E2B222C222D2228C029F027C028F054
:102C880026C027F0266A1B501802F3CF2EF0F4CF87
:102C98002FF02E5026262F502722000E2822000E15
:102CA80029221C501702F3CF2EF0F4CF2FF02E500C
:102CB80026262F502722000E2822000E292228C05F
:102CC80029F027C028F026C027F0266A1B501702D3
:102CD800F3CF2EF0F4CF2FF02E5026262F50272298
:102CE800000E2822000E29221D501802F3CF2EF0C4
:102CF800F4CF2FF02E502A262F502B22000E2C22F4
:102D0800000E2D221C501902F3CF2EF0F4CF2FF015
:102D18002E502A262F502B22000E2C22000E2D2258
:102D28001D501902F3CF2EF0F4CF2FF02E501F6E46
:102D38002F50206E216A226A21C022F020C021F083
:102D48001FC020F01F6A1F502A2620502B22215016
:102D58002C2222502D2229502A26000E2B222C22EA
:102D68002D2228C029F027C028F026C027F0266A7F
:102D7800245025C01FF0206A1F26000E2022820E34
:102D88001F242E6EFF0E20202F6E0FD0D8902A36CB
:102D98002B362C362D3629BE2A80D8902636273653
:102DA800283629362E06D8A02F062CAEEFD7000ECF
:102DB800246E29AE17D0FF0E26141F6EFF0E27149F
:102DC800206EFF0E2814216E7F0E2914226E1F50CC
:102DD800201021102210D8B403D0010E246E02D086
:102DE8002AB0FBD72450D8B41FD0010E2A26000ED3
:102DF8002B222C222D222DA017D02AC01FF02BC049
:102E080020F02CC021F02DC022F0223422322132B1
:102E180020321F321FC02AF020C02BF021C02CF016
:102E280022C02DF02E4A2F2A2FBE0DD02F5003E19D
:102E38002E28D8A008D0000E2A6E000E2B6E800E09
:102E48002C6E7F0E20D02FBE05D02F500EE12E0401
:102E5800D8B00BD0000E2A6E000E2B6E000E2C6E12
:102E6800000E2D6E000E236E0FD02EC025F0FF0E23
:102E78002A16FF0E2B167F0E2C16000E2D1625B0C7
:102E88002C8ED89025302D6E23502D122AC017F085
:102E98002BC018F02CC019F02DC01AF012003350B6
:102EA800800B3C6E335033243E6E32BE3E803E5023
:102EB800D8B40DD03E28D8A408D0000E306E000E2D
:102EC800316E000E326E000E336E328E06D0000E5A
:102ED800306E000E316E000E326E000E336E3750BB
:102EE800800B3D6E3C503D18D8A43C8C375037249D
:102EF8003D6E36BE3D803D50D8B40DD03D28D8A497
:102F080008D0000E346E000E356E000E366E000EC0
:102F1800376E368E06D0000E346E000E356E000EFB
:102F2800366E000E376E3E503D5CD8B022D03CACB9
:102F380002D0800E3C1A3EC03FF03DC03EF03FC07C
:102F48003DF030C03FF034C030F03FC034F031C005
:102F58003FF035C031F03FC035F032C03FF036C0E9
:102F680032F03FC036F033C03FF037C033F03FC0D7
:102F780037F0000E3F6E3E503DC038F0396A385E7B
:102F8800000E395A39BE2CD0395004E11A0E385C7B
:102F9800D8A026D03050311032103310D8B402D017
:102FA800010E01D0000E3F6E000E306E000E316E25
:102FB800000E326E000E336E3DC03EF015D03FA0BD
:102FC80005D0D8903F3001093F6E02D0D8903F32EB
:102FD80030B03F8E333433323232313230323E2ADF
:102FE8003D503E5CD8A0EBD73CBC28D03E50D8A47E
:102FF80009D0000E306E000E316E000E326E000EDB
:10300800336E120034503026355031223650322279
:103018003750332233A071D03FA005D0D8903F302D
:1030280001093F6E02D0D8903F3230B03F8E333422
:1030380033323232313230323E2A5FD03450305C53
:1030480035503158365032583350800A386E375020
:10305800800A3858D8B025D03050345C386E31509A
:103068003558396E325036583A6E335037583B6EB1
:10307800FF0E3824306EFF0E3920316EFF0E3A20D5
:10308800326EFF0E3B20336E800E3C1A3F6C3F5071
:10309800D8A40FD0010E3026000E3122322233225E
:1030A80008D03450305E3550315A3650325A375085
:1030B800335A3050311032103310D8A41CD03F503E
:1030C800D8A419D0000E306E000E316E000E326E8C
:1030D800000E336E1200D890303631363236333621
:1030E8003FBE30803FA002D0D88001D0D8903F3674
:1030F8003E50D8A43E0632AEEED7000E3D6E3FAE2F
:103108000BD03FC038F07F0E3816D8B403D0010E6C
:103118003D6E02D030B0FBD73D50D8B420D0010E60
:103128003026000E31223222332233A018D030C08C
:1031380038F031C039F032C03AF033C03BF03B349C
:103148003B323A323932383238C030F039C031F097
:103158003AC032F03BC033F03E28D8A43E2A3E287D
:10316800D8B403D03E50D8A40DD0000E306E000E57
:10317800316E000E326E000E336E3E50D8A402D06F
:10318800000E3C6E3EA002D0328E01D0329ED89006
:103198003E30336E3CBE338E30C030F031C031F03B
:1031A80032C032F033C033F01200200E096E000E28
:1031B8000A6E000E0B6E000E0C6E64EC43F0000EEF
:1031C8002F6E2AD02FC022F0D890223222282B6EC0
:1031D8002F50010B2E6E2EC026F01A0E0C6E010E0B
:1031E8000D6E260E0E6E0F6A2B50DAEC22F02F5061
:1031F800020DC30EF324D96E010EF420DA6E0CC052
:10320800DEFF0DC0DDFF000E2B24D96EDA6A020E38
:10321800DA22010EDF6E2F2A7450020D2F50226E13
:10322800236AF350225C2350800A246EF450800AEB
:103238002458D8A0C7D7320E096E000E0A6E000EA9
:103248000B6E000E0C6E64EC43F00001F187000E6B
:103258002F6EE6D0000E1C6E990E1B6E2F50020DBD
:10326800C30EF324D96E010EF420DA6EDECF1DF002
:10327800DDCF1EF0F5EC47F02F50020DC30EF324FE
:10328800D96E010EF420DA6EDECF5FF1DDCF60F18A
:10329800C6D0000E1C6E970E1B6E2F50020DC30E6B
:1032A800F324D96E010EF420DA6EDECF1DF0DDCFE7
:1032B8001EF0F5EC47F02F50020DC30EF324D96E23
:1032C800010EF420DA6EDECFDBF0DDCFDCF0A7D024
:1032D800000E1C6E960E1B6E2F50020DC30EF324AB
:1032E800D96E010EF420DA6EDECF1DF0DDCF1EF0B0
:1032F800F5EC47F02F50020DC30EF324D96E010EE2
:10330800F420DA6EDECFDDF0DDCFDEF088D02F508E
:10331800FC0F2E6E2E500C0DF3CF22F0F4CF23F0BD
:10332800E60E2224296E000E23202A6E900E2E24EB
:103338002C6E2D6A010E2D22010E29241B6E000E03
:103348002A201C6E2E50226E236AD89022362336ED
:10335800CB0E2224D96E010E2320DA6EDECF1DF0AB
:10336800DDCF1EF0F5EC47F02E50226E236AD89080
:1033780022362336CB0E2224D96E010E2320DA6E94
:10338800010EDBAE11D0700EDE5CFE0EDE58D8B03A
:103398000BD02CC01BF02DC01CF0000E1E6E010EB1
:1033A8001D6EF5EC47F03BD02E50226E236AD89064
:1033B80022362336CB0E2224D96E010E2320DA6E54
:1033C800DE280EE1DE28D8A40BD02CC01BF02DC0BF
:1033D8001CF0000E1E6E000E1D6EF5EC47F01FD09F
:1033E8002CC01BF02DC01CF0000E1E6E030E1D6EAF
:1033F800F5EC47F014D02F50226E236A2350000AB0
:10340800D8A485D72250000AD8B424D7010AD8B442
:1034180040D7030AD8B45CD7010AD8A478D72F2A92
:103428007450020D2F50226E236AF350225C2350F1
:10343800800A246EF450800A2458D8A0DCD70001F2
:10344800F19712001A50800B276E1A501A242E6E0C
:1034580019BE2E802E50D8B40DD02E28D8A408D04E
:10346800000E176E000E186E000E196E000E1A6E02
:10347800198E06D0000E176E000E186E000E196E0B
:10348800000E1A6E1E50800B271A1E501E242F6E17
:103498001DBE2F802F50D8B40DD02F28D8A408D007
:1034A800000E1B6E000E1C6E000E1D6E000E1E6EB2
:1034B8001D8E06D0000E1B6E000E1C6E000E1D6EBB
:1034C800000E1E6E1B501C101D101E10D8A417D005
:1034D800000E176E000E186E000E196E000E1A6E92
:1034E800800E19127F0E1A1227501A1217C017F0E1
:1034F80018C018F019C019F01AC01AF012002E508E
:10350800D8A409D0000E176E000E186E000E196EA2
:10351800000E1A6E12002F502EC01FF0206A1F5E78
:10352800000E205A7F0E1F24286E000E2020296EC0
:1035380017C023F018C024F019C025F01AC026F0CF
:10354800000E176E000E186E000E196E000E1A6E21
:10355800000E2A6E000E2B6E000E2C6E000E2D6EC5
:10356800000E2F6E28D02F50D8B411D0D890233603
:10357800243625362636D8901736183619361A3690
:103588002DBE1780D8902A362B362C362D361B5058
:10359800235C1C5024581D5025581E502658D8A06E
:1035A80009D02D8C1B50235E1C50245A1D50255ABF
:1035B8001E50265A2F2A190E2F64D5D723502410AF
:1035C80025102610D8B411D02A800FD0D8901736DD
:1035D800183619361A362DBE1780D8902A362B364B
:1035E8002C362D362806D8A0290619AEEFD7000E9E
:1035F8002F6E2DAE17D0FF0E2A141F6EFF0E2B1440
:10360800206EFF0E2C14216E7F0E2D14226E1F507B
:10361800201021102210D8B403D0010E2F6E02D032
:1036280017B0FBD72F50D8B41FD0010E1726000EA5
:10363800182219221A221AA017D017C01FF018C072
:1036480020F019C021F01AC022F02234223221328F
:1036580020321F321FC017F020C018F021C019F007
:1036680022C01AF0284A292A29BE10D0295003E17D
:103678002828D8A00BD0000E296E2868000E176ED7
:10368800000E186E000E196E000E1A6E29BE05D0B7
:10369800295011E12804D8B00ED0000E296E000E72
:1036A800286E000E176E000E186E000E196E000EB2
:1036B8001A6E000E276E28C02EF02EA002D0198E8A
:1036C80001D0199ED8902E301A6E0ED7000E1D6E9E
:1036D800A80E1C6E90EC47F01C041D10D8A41FD037
:1036E800000E1C6EA80E1B6E000E1E6E000E1D6EC8
:1036F800F5EC47F00001EB51D8B40CD0000E476E42
:103708004750FFEC28F0472A0E0E4764F9D717EC0C
:1037180043F005D0520EAAEC48F0B4EC47F0000E86
:103728001D6EA70E1C6E90EC47F01C041D10D8A44B
:103738003BD0000E1C6EA70E1B6E000E1E6E000EF8
:103748001D6EF5EC47F00001EB51D8B428D05C0EA3
:103758001E6EFE0E1F6E070E216ED00E206E000E1E
:10376800226E010E236E63EC3CF0000E486E48504A
:1037780009EC2EF0482A090E4864F9D79D0E1E6EF2
:10378800FF0E1F6E070E216ED00E206E010E226EE8
:10379800000E236E63EC3CF017EC43F005D0520E9C
:1037A800AAEC48F0B4EC47F0000E1D6EA60E1C6E95
:1037B80090EC47F01C041D10D8A434D0000E1C6EE9
:1037C800A60E1B6E000E1E6E000E1D6EF5EC47F069
:1037D8000001EB51D8B421D0B90E1E6EFE0E1F6E3B
:1037E800070E216ED00E206E000E226E010E236E83
:1037F80063EC3CF04CEC20F09D0E1E6EFF0E1F6E2D
:10380800070E216ED00E206E010E226E000E236E62
:1038180063EC3CF017EC43F005D0520EAAEC48F0EC
:10382800B4EC47F0000E1D6EA90E1C6E90EC47F02C
:103838001C041D10D8A41200000E1C6EA90E1B6ECD
:10384800000E1E6E000E1D6EF5EC47F00001EB51E8
:10385800D8B43CD0A80E1E6EFF0E1F6E070E216E48
:10386800D00E206E000E226E010E236E63EC3CF02B
:10387800130E0001F519F611D8A402D0000E466EF9
:10388800150EF519F611D8A402D0050E466E050ED0
:10389800316E465009EC33F0000E496E4950FFEC8A
:1038A80028F0492A0E0E4964F9D717EC43F0C70EE1
:1038B8001E6EFF0E1F6E070E216ED00E206E010EBB
:1038C800226E000E236E63EC3CF01200520EAAEC3E
:1038D80048F0B4EC47F0120099EC44F00D0E206E5D
:1038E800FE0E216EA8EC37F0040E206EFF0E216E3E
:1038F800A8EC37F0000E1D6EAA0E1C6E90EC47F077
:103908001C041D10D8A41200000E1C6EAA0E1B6EFB
:10391800000E1E6E000E1D6EF5EC47F0000E186EC0
:10392800000E176E05EC48F0000E0E6E220E0D6E9E
:103938000FEC45F00DC084F00EC085F084C018F07F
:1039480085C019F0AA0E1A6E030E1B6E000E1D6EAE
:103958000A0E1C6E2EEC30F0790E0D6E010E0E6EF6
:10396800920E0F6EFF0E106EACEC41F0790E176ED2
:10397800010E186EAA0E196E030E1A6E34EC47F07B
:10398800790E206E010E216EA8EC37F0010E836FC0
:1039980065D0790E0D6E010E0E6EE90E0F6EFF0EDC
:1039A800106EACEC41F083C018F0196AAA0E1A6EBA
:1039B800030E1B6E000E1D6E0A0E1C6E2EEC30F0F0
:1039C800790E176E010E186EAA0E196E030E1A6E76
:1039D80034EC47F0AA0E0D6E030E0E6E990E0F6EA4
:1039E800FF0E106EACEC41F0790E176E010E186EDA
:1039F800AA0E196E030E1A6E34EC47F0100E000171
:103A0800806F0B0E0C6E010E0D6E800E0E6E0F6A1F
:103A18008351DAEC22F00CC084F00DC085F084C02C
:103A280018F085C019F0AA0E1A6E030E1B6E000E50
:103A38001D6E0A0E1C6E2EEC30F0790E176E010EFC
:103A4800186EAA0E196E030E1A6E34EC47F0790E32
:103A5800206E010E216EA8EC37F0832B8351745C25
:103A6800D8B097D7CD0E206EFE0E216EA8EC37F099
:103A7800000E0E6EE80E0D6E0FEC45F00DC084F0D2
:103A88000EC085F084C018F085C019F0790E1A6E42
:103A9800010E1B6E000E1D6E0A0E1C6E2EEC30F011
:103AA800790E176E010E186EB30E196EFF0E1A6E90
:103AB80034EC47F0790E206E010E216EA8EC37F039
:103AC800980E096E3A0E0A6E000E0B6E000E0C6E02
:103AD800F0EC42F0000E186E0F0E176E05EC48F071
:103AE8001200336E33502C6E2D6AFF0E2E6EFF0EB1
:103AF8002F6E0001E551306E316A2E5030262F505E
:103B080031222C50305C3150800A326E2D50800AA0
:103B18003258D8B011D0040E186ED20E176EFEECC3
:103B280045F0000E1C6E020E1B6E000E1E6E000E7F
:103B38001D6EF5EC47F012003350360DF3CF2CF024
:103B4800F4CF2DF0100E2C26000E2D222CC034F0B0
:103B58002DC035F0000E35BEFF0E366E376E34C000
:103B68001FF035C020F036C021F037C022F001C167
:103B780023F002C124F0000EA5EC46F0020E342416
:103B88000D6E000E35200E6E000E36200F6E000EE4
:103B98003720106E0D0E116E010E126E000E24EC01
:103BA8002FF00C0E34240D6E000E35200E6E000E14
:103BB80036200F6E000E3720106E030E116E010EA8
:103BC800126E000E24EC2FF0160E34240D6E000E2B
:103BD80035200E6E000E36200F6E000E3720106E48
:103BE800210E116E010E126E000E24EC2FF0200E25
:103BF80034240D6E000E35200E6E000E36200F6E2A
:103C0800000E3720106E170E116E010E126E000E88
:103C180024EC2FF02A0E34241F6E000E3520206E5F
:103C2800000E3620216E000E3720226E2BC123F0A5
:103C3800000EA2EC47F02B0E34241F6E000E352028
:103C4800206E000E3620216E000E3720226E2CC109
:103C580023F02DC124F02EC125F02FC126F0000E2F
:103C6800B2EC45F02F0E34241F6E000E3520206E66
:103C7800000E3620216E000E3720226E30C123F050
:103C880031C124F032C125F033C126F0000EB2EC68
:103C980045F0330E34241F6E000E3520206E000EC2
:103CA8003620216E000E3720226E34C123F035C134
:103CB80024F0000EA5EC46F0350E34241F6E000EDD
:103CC8003520206E000E3620216E000E3720226E21
:103CD80036C123F0000EA2EC47F01200446E4450A7
:103CE8003D6E3E6AFF0E3F6EFF0E406E0001E551CD
:103CF800416E426A3F504126405042223D50415C4D
:103D08004250800A436E3E50800A4358D8B007D0CC
:103D1800030E186EE80E176EFEEC45F012004450C4
:103D2800360DF3CF3DF0F4CF3EF0100E3D26000ED9
:103D38003E223DC045F03EC046F0000E46BEFF0E96
:103D4800476E486E45C01CF046C01DF047C01EF0C7
:103D580048C01FF0000E98EC45F01CC001F11DC0D2
:103D680002F1020E4524106E000E4620116E000E60
:103D78004720126E000E4820136E0D0E146E010EB1
:103D8800156E000E6CEC24F00C0E4524106E000E1F
:103D98004620116E000E4720126E000E4820136E4A
:103DA800030E146E010E156E000E6CEC24F0160E48
:103DB8004524106E000E4620116E000E4720126E2C
:103DC800000E4820136E210E146E010E156E000EA3
:103DD8006CEC24F0200E4524106E000E4620116E67
:103DE800000E4720126E000E4820136E170E146E38
:103DF800010E156E000E6CEC24F02A0E45241C6E84
:103E0800000E46201D6E000E47201E6E000E482034
:103E18001F6E000E7EEC47F001012B6F2B0E452420
:103E28001C6E000E46201D6E000E47201E6E000EF2
:103E380048201F6E000EAFEC3AF01CC02CF11DC0DC
:103E48002DF11EC02EF11FC02FF12F0E45241C6E20
:103E5800000E46201D6E000E47201E6E000E4820E4
:103E68001F6E000EAFEC3AF01CC030F11DC031F1EE
:103E78001EC032F11FC033F1330E45241C6E000EF4
:103E880046201D6E000E47201E6E000E48201F6E35
:103E9800000E98EC45F01CC034F11DC035F1350E0C
:103EA80045241C6E000E46201D6E000E47201E6E17
:103EB800000E48201F6E000E7EEC47F00101366FA1
:103EC8001200030E0C6E000E0D6EAA0E0E6E030E7F
:103ED8000F6E00018351DAEC22F0000E746E790E39
:103EE8000D6E010E0E6E5F0E0F6EFD0E106EACECB9
:103EF80041F0790E176E010E186EF20E196EFE0E55
:103F08001A6E34EC47F0790E176E010E186ED90E42
:103F1800196EFF0E1A6E34EC47F0790E206E010E02
:103F2800216EA8EC37F0010E836F640E096E000E47
:103F38000A6E000E0B6E000E0C6EF0EC42F0030ED3
:103F48000C6E000E0D6EAA0E0E6E030E0F6E0001A3
:103F58008351DAEC22F00CC081F00DC082F082C0EF
:103F680080F00001812903E18229D8B465D0742A40
:103F7800790E0D6E010E0E6E5F0E0F6EFD0E106E39
:103F8800ACEC41F083C018F0196A790E1A6E010E74
:103F98001B6E000E1D6E0A0E1C6E2EEC30F0790E94
:103FA800176E010E186EF50E196EFF0E1A6E34ECB0
:103FB80047F0790E176E010E186E00018051020D40
:103FC800EA0EF324D96E020EF420DA6EDECF19F071
:103FD800DDCF1AF034EC47F0790E176E010E186E2B
:103FE8005E0E196EFD0E1A6E34EC47F0AA0E0D6EB9
:103FF800030E0E6E5E0E0F6EFD0E106EACEC41F0F1
:10400800410E0C6E000E0D6EAA0E0E6E030E0F6E94
:1040180000018351DAEC22F0790E176E010E186E4A
:10402800AA0E196E030E1A6E34EC47F0790E206E44
:10403800010E216EA8EC37F0832B0E0E836575D721
:104048007450D8A407D0430E206EFE0E216EA8EC43
:1040580037F0120074C018F0196A790E1A6E010E42
:104068001B6E000E1D6E0A0E1C6E2EEC30F0790EC3
:10407800176E010E186E750E196EFE0E1A6E34EC60
:1040880047F0790E206E010E216EA8EC37F0120071
:10409800040E216E21C01CF0D8901C321C28226E00
:1040A8002150010B236E2150120DF350EC0F206E9E
:1040B800010E20240D6E0E6A000E0E220FEC45F044
:1040C8000DC01EF00EC01FF02350070DF3CF24F0D3
:1040D8001FC025F01EC026F00A0E0C6E030E0D6ED2
:1040E800240E0E6E0F6A2250DAEC22F0070E1D6EB7
:1040F800170E1C6E6A0EE82EFED71C2EFCD71D2E3E
:10410800FAD700D02350070DF350020F246E030E88
:104118002024096E0A6A000E0A222CEC45F0256E4E
:10412800080E0C6E020E0D6E240E0E6E0F6A2250D3
:10413800DAEC22F0070E1D6E170E1C6E6A0EE82EC2
:10414800FED71C2EFCD71D2EFAD700D02350070D02
:10415800F350030F246E040E2024096E0A6A000E21
:104168000A222CEC45F0256E080E0C6E020E0D6E20
:10417800240E0E6E0F6A2250DAEC22F0070E1D6E26
:10418800170E1C6E6A0EE82EFED71C2EFCD71D2EAD
:10419800FAD700D02350070DF350040F246E050EF4
:1041A8002024096E0A6A000E0A222CEC45F0256EBE
:1041B800080E0C6E020E0D6E240E0E6E0F6A225043
:1041C800DAEC22F0070E1D6E170E1C6E6A0EE82E32
:1041D800FED71C2EFCD71D2EFAD700D0100E202497
:1041E8000D6E0E6A000E0E220FEC45F00DC01EF08B
:1041F8000EC01FF02350070DF350050F246E1FC08B
:1042080025F01EC026F00A0E0C6E030E0D6E240E4D
:104218000E6E0F6A2250DAEC22F0070E1D6E170E92
:104228001C6E6A0EE82EFED71C2EFCD71D2EFAD760
:1042380000D02304D8A40AD0010E0C6E000E0D6E17
:10424800240E0E6E0F6A2250DAEC22F0212A0E0E8E
:10425800216420D71200000E1C6E020E1B6E000E89
:104268001E6E000E1D6EF5EC47F0000E1C6E030E60
:104278001B6E000E1E6E000E1D6EF5EC47F0000E54
:104288001C6E040E1B6E000E1E6E000E1D6EF5ECED
:1042980047F0000E1C6E050E1B6E000E1E6E000E03
:1042A8001D6EF5EC47F0000E1C6E130E1B6E000E13
:1042B8001E6E000E1D6EF5EC47F00001F299000E1F
:1042C8000A6E100E096E2CEC45F00001F26FF251E7
:1042D800D8B49BD0600E206EFD0E216EA8EC37F08E
:1042E800B90E206EFD0E216EA8EC37F0000ED6EC4C
:1042F80041F0F2A113D0F291BD0E206EFF0E216E97
:10430800A8EC37F0000E1C6E020E1B6E000E1E6E1F
:10431800010E1D6EF5EC47F0ADEC30F00001F2A592
:104328001DD0F295270E206EFF0E216EA8EC37F0F7
:10433800000E1C6E030E1B6E000E1E6E010E1D6E0F
:10434800F5EC47F0C4EC3FF0100E096E270E0A6E2C
:10435800000E0B6E000E0C6EF0EC42F00001F2A79E
:1043680014D0F297F289160E206EFF0E216EA8EC7B
:1043780037F0000E1C6E040E1B6E000E1E6E010E32
:104388001D6EF5EC47F07FEC27F00001F2AD17D079
:10439800F29D000E1C6E130E1B6E000E1E6E010E9B
:1043A8001D6EF5EC47F08BEC3FF0100E096E270EF2
:1043B8000A6E000E0B6E000E0C6EF0EC42F000015F
:1043C800F2A31DD0F293360E206EFF0E216EA8ECDC
:1043D80037F0000E1C6E050E1B6E000E1E6E010ED1
:1043E8001D6EF5EC47F077EC36F0100E096E270ECF
:1043F8000A6E000E0B6E000E0C6EF0EC42F0000E12
:10440800186E0F0E176E05EC48F0F2C0E6F01200B9
:104418001A6E000E1B6E000E0101746F050E736F8D
:10442800135005E1020E125CD8B0120001D0120040
:10443800135003E11204D8A002D0080E01D0000ED8
:104448001B6E1AC01CF0D8901C36A00E1C121C80C3
:104458001B501C122CEC48F01CC017F0FE0E17164F
:1044680017500B6E0C6A7AEC48F011C00BF00C6A0E
:104478007AEC48F010C00BF00C6A7AEC48F090EC3B
:1044880048F01CC00BF00C6A7AEC48F0000E196E6C
:1044980079D013507BE1020E125CD8B077D010C0EF
:1044A80017F0010E17267F0E1716D8A451D0000E4C
:1044B8000C6E000E0B6E55EC41F00B5015C0D9FF79
:1044C80016C0DAFFDF6E97EC48F015C0D9FF16C0AA
:1044D800DAFFDF5039EC48F0340E176EF20EE82E92
:1044E800FED7172EFCD7010E1026000E112212221D
:1044F8001322135003E11204D8A002D0080E01D0F1
:10450800000E1B6E1AC01CF0D8901C36A00E1C1290
:104518001C801B501C122CEC48F01CC017F0FE0E1F
:10452800171617500B6E0C6A7AEC48F011C00BF096
:104538000C6A7AEC48F010C00BF00C6A7AEC48F080
:1045480090EC48F01CC00BF00C6A7AEC48F019D0DB
:10455800000E0C6E010E0B6E55EC41F00B5015C0A1
:10456800D9FF16C0DAFFDF6E15C0D9FF16C0DAFF13
:10457800DF5039EC48F0010E1026000E11221222ED
:104588001322192A1450195CD8A083D7000E0C6E78
:10459800000E0B6E55EC41F097EC48F0070E176EC5
:1045A800C00EE82EFED7172EFCD71200146E156821
:1045B8001668000E176E0F0E0C18D8B410D00D0E1A
:1045C8000C18D8B40CD0180E0C18D8B408D0160E85
:1045D8000C18D8B404D0410E0C18D8A40AD0010E77
:1045E800176E20EE05F00E50D9260F50DA22DF5054
:1045F8001A6EAA0E0B6EBB0E0A6E9EEC48F0000EE9
:1046080039EC48F0145039EC48F00C5039EC48F0CB
:104618000D5039EC48F0000E1B6E0AD01B500E24CA
:10462800D96E000E0F20DA6EDF5039EC48F01B2AE5
:104638000D501B5CD8A0F2D7D50EE82EFED700F09F
:104648007690000E196E000E186EE40E00D000D0A1
:10465800E82EFCD700D000D076A03BD0150E106E07
:10466800C60EE82EFED7102EFCD700D01750D8B4AF
:1046780005D023EEF9F01AC0DFFF03D0020EE8CF11
:10468800F9F3000E1B6E0FD0FA0E1B24D96EDA6AEE
:10469800030EDA221B500E24E16E000E0F20E26E8C
:1046A800DFCFE7FF1B2A23EEF9F0DE501B5CD8A012
:1046B800EBD7FBC310F01050FAC311F011C012F081
:1046C800136A12C013F0126A1210156E1350166E88
:1046D8000AD0184A192A19BEB8D7900E185C010ECC
:1046E8001958D8A0B2D776B025D0020EE8CFF9F382
:1046F800FF0EE8CFFAF3FF0EE8CFFBF31568166854
:104708001750D8B417D023EEF9F01AC0DFFF000E07
:104718001B6E09D0FA0E1B24D96EDA6A030EDA2250
:10472800FF0EDF6E1B2A1B501ABE04D0FF0A1A2484
:10473800D8B0F0D7769015C00CF016C00DF0120066
:104748002C6E000E2D6E2D50110D000EF324156EDB
:10475800030EF420166E2D50ECEC33F02D2A090EC2
:104768002D64F1D7000E326EA00E286E020E296E4F
:104778002C50A00DF3CF2AF0F4CF2BF03250100DAF
:10478800F3502A26F4502B2228502A2629502B226F
:104798002AC02EF02BC02FF0000E2FBEFF0E306E59
:1047A800316E2EC01FF02FC020F030C021F031C074
:1047B80022F03250110D010EF324D96E030EF420AD
:1047C800DA6EDECF23F0DDCF24F0000EA5EC46F044
:1047D800020E2E241F6E000E2F20206E000E302099
:1047E800216E000E3120226E3250110D030EF3247B
:1047F800D96E030EF420DA6EDF50236E000EA2ECA1
:1048080047F0030E2E241F6E000E2F20206E000E80
:104818003020216E000E3120226E3250110D040E10
:10482800F324D96E030EF420DA6EDF50236E000EE7
:10483800A2EC47F0040E2E241F6E000E2F20206ECF
:10484800000E3020216E000E3120226E3250110DE4
:10485800050EF324D96E030EF420DA6EDF50236EB2
:10486800000EA2EC47F0050E2E240D6E000E2F2030
:104878000E6E000E30200F6E000E3120106E32507A
:10488800110D060EF324116E030EF420126E000EA5
:1048980024EC2FF00F0E2E241F6E000E2F20206EFA
:1048A800000E3020216E000E3120226E3250110D84
:1048B8000F0EF324D96E030EF420DA6EDF50236E48
:1048C800000EA2EC47F0322A090E32644DD71200CE
:1048D800186E000E196E135005E1020E125CD8B066
:1048E800120001D01200135003E11204D8A002D024
:1048F800080E01D0000E196E18C01AF0D8901A369A
:10490800A00E1A121A8019501A122CEC48F01AC06C
:1049180016F0FE0E161616500B6E0C6A7AEC48F05E
:1049280011C00BF00C6A7AEC48F010C00BF00C6A5E
:104938007AEC48F090EC48F01AC00BF00C6A7AEC6C
:1049480048F0000E176E135079E1020E125CD8B0D1
:1049580075D010C016F0010E16267F0E1616D8A4B4
:104968004CD0000E0C6E000E0B6E55EC41F00B5047
:1049780014C0D9FF15C0DAFFDF6E97EC48F0340E8B
:10498800166EF20EE82EFED7162EFCD7010E102654
:10499800000E112212221322144A152A135003E181
:1049A8001204D8A002D0080E01D0000E196E18C04B
:1049B8001AF0D8901A36A00E1A121A8019501A1224
:1049C8002CEC48F01AC016F0FE0E161616500B6E98
:1049D8000C6A7AEC48F011C00BF00C6A7AEC48F0DB
:1049E80010C00BF00C6A7AEC48F090EC48F01AC052
:1049F8000BF00C6A7AEC48F01BD0000E0C6E010E1E
:104A08000B6E55EC41F00B5014C0D9FF15C0DAFFFE
:104A1800DF6E14C0D9FF15C0DAFFDF50D8B40ED04E
:104A2800144A152A010E1026000E112212221322F2
:104A3800172A1704166E3F0E166485D7000E0C6EE3
:104A4800000E0B6E55EC41F097EC48F0070E166E11
:104A5800C00EE82EFED7162EFCD71200000E136EDD
:104A6800B30E126EF20E146E010E156E040E166E53
:104A780028EC31F0F4C128F0296A2A6A2B6A2AC086
:104A88002BF029C02AF028C029F0286AF3C12CF09D
:104A98002D6A2E6A2F6A2DC02FF02CC02EF02D6A99
:104AA8002C6AF2C130F0316A326A336A30C033F0AE
:104AB800326A316A306A2C503024346E2D503120DD
:104AC800356E2E503220366E2F503320376E2850D8
:104AD8003424386E29503520396E2A5036203A6EE3
:104AE8002B5037203B6E0101F55138243C6E000EE7
:104AF80039203D6E000E3A203E6E000E3B203F6E80
:104B08003C503D103E103F10D8B412000001CD516A
:104B18003C1869E1CE513D1866E1CF513E1863E17A
:104B2800D0513F18D8A41200000E1B6EB30E1A6E97
:104B3800000E1C6E000E1D6E000E1E6E000E1F6E07
:104B48003EEC43F0000E1D6EB20E1C6E90EC47F06A
:104B58001C041D10D8A41CD0000E756E000E000198
:104B6800EB6FDF69E069000E1C6EB20E1B6E000E63
:104B78001E6E000E1D6EF5EC47F0000E1C6E9A0EB0
:104B88001B6E000E1E6E000E1D6EF5EC47F027D052
:104B9800000E1D6EB20E1C6E90EC47F01C501D10DE
:104BA800D8A41DD0010E756E010E0001EB6F000E2A
:104BB800E06F0A0EDF6F000E1C6EB20E1B6E000E49
:104BC8001E6E010E1D6EF5EC47F0000E1C6E9A0E5F
:104BD8001B6E000E1E6E010E1D6EF5EC47F068ECA4
:104BE80048F017EC43F012005A0E0B6EA50E0A6E31
:104BF8009EEC48F0030E39EC48F0810E39EC48F091
:104C0800200E39EC48F0070E39EC48F09C0E1D6E6A
:104C1800D70EE82EFED71D2EFCD700F07AEC44F014
:104C28000009D8B416D0000E3B6E3B50060F1D6E1F
:104C38001E6AF40E1D24D96E030E1E20DA6E3B5038
:104C48001F0FE16EE26ADFCFE7FF3B2A090E3B64E4
:104C5800ECD7290E096E1F5030EC46F02C0E096E69
:104C6800205030EC46F02F0E096E215030EC46F003
:104C78001BC00DF00E6A5F0E0F6EFD0E106EACECD1
:104C880041F01BC017F0186A2F0E196E1A6A34EC1F
:104C980047F01BC017F0186AFC0E196EFF0E1A6E4B
:104CA80034EC47F01BC017F0186A2C0E196E1A6AFC
:104CB80034EC47F01BC017F0186AFC0E196EFF0E93
:104CC8001A6E34EC47F01BC017F0186A290E196EDB
:104CD8001A6A34EC47F0320E096E235030EC46F075
:104CE800350E096E245030EC46F0380E096E25500A
:104CF80030EC46F01CC00DF00E6A5F0E0F6EFD0E14
:104D0800106EACEC41F01CC017F0186A320E196E28
:104D18001A6A34EC47F01CC017F0186ADE0E196ED8
:104D2800FE0E1A6E34EC47F01CC017F0186A350EE8
:104D3800196E1A6A34EC47F01CC017F0186ADE0EB8
:104D4800196EFE0E1A6E34EC47F01CC017F0186A84
:104D5800380E196E1A6A34EC47F0010E096E000E0F
:104D68000A6E000E0B6E000E0C6E64EC43F012001F
:104D78001C6E000E0101746F050E736F105005E173
:104D8800020E0F5CD8B0120001D01200105003E1DF
:104D98000F04D8A002D0080E01D0000E1D6E1CC052
:104DA8001EF0D8901E36A00E1E121D501E122CEC9E
:104DB80048F01EC00BF00C6A7AEC48F00EC00BF0FD
:104DC8000C6A7AEC48F00DC00BF00C6A7AEC48F0EB
:104DD800000E1B6E63D0105005E1020E0F5CD8B0B8
:104DE800120001D012000DC014F0010E14267F0E1F
:104DF8001416D8A43FD012C0D9FF13C0DAFFDF5071
:104E0800146E14500B6E0C6A7AEC48F097EC48F06C
:104E1800340E146EF20EE82EFED7142EFCD7010EB7
:104E28000D26000E0E220F221022124A132A1050AD
:104E380003E10F04D8A002D0080E01D0000E1D6EA9
:104E48001CC01EF0D8901E36A00E1E121D501E1239
:104E58002CEC48F01EC00BF00C6A7AEC48F00EC03F
:104E68000BF00C6A7AEC48F00DC00BF00C6A7AEC87
:104E780048F013D012C0D9FF13C0DAFFDF50146E08
:104E880014500B6E0C6A7AEC48F0124A132A010E81
:104E98000D26000E0E220F2210221B2AFF0E146E62
:104EA800FF0E156E1150166E176A145016261550FF
:104EB80017221B50186E196A1650185C1950800A70
:104EC8001A6E1750800A1A58D8A085D712C0D9FF71
:104ED80013C0DAFFDF50146E14500B6E0C6A7AECB4
:104EE80048F097EC48F0340E146EF20EE82EFED718
:104EF800142EFCD71200000E1D6E040E1C6E90ECD2
:104F080047F01C041D10D8A41FD00001F2B71CD014
:104F1800F2A717EC43F00001F287D951DD5DDE51AD
:104F2800800A6E6EDA51800A6E58D8B007D0010E2A
:104F3800D5EC47F0010ED6EC41F01200000ED5EC8E
:104F480047F048EC45F01200000E1D6E040E1C6E72
:104F580090EC47F01C501D10D8A46CD00001F2A7AB
:104F680069D0F297000ED5EC47F0000E1C6E060EC5
:104F78001B6E000E1E6E000E1D6EF5EC47F0420E05
:104F8800AAEC48F0000E1C6E160E1B6E000E1E6E6C
:104F9800000E1D6EF5EC47F0000E1D6E060E1C6E21
:104FA80090EC47F0F10E1C181D10D8A402D0010E89
:104FB80001D0000E6E6E000E1D6E060E1C6E90EC7B
:104FC80047F0F00E1C181D10D8A402D0010E01D015
:104FD800000E6E10E8B004D004007CEC33F0DCD78F
:104FE800000E1D6E060E1C6E90EC47F0F00E1C189D
:104FF8001D10D8A40DD0000E0001ED6F000EEE6F4D
:10500800000ED6EC41F018EC3CF017EC43F012001F
:10501800000E1D6E060E1C6E90EC47F0FA0E1C1862
:105028001D10D8A412003A0E186E980E176EFEECDA
:1050380045F01200000E1D6E040E1C6E90EC47F039
:105048001C041D10D8A412000001F2A71200D951A7
:10505800DD5DDE51800A6E6EDA51800A6E58D8B076
:1050680006D0010ED5EC47F00001F1891200000EC0
:10507800D5EC47F066D7196E000E1A6E000E0101C6
:10508800746F050E736F135005E1020E125CD8B0F1
:10509800120001D01200135003E11204D8A002D06C
:1050A800080E01D0000E1A6E19C01BF0D8901B36DE
:1050B800A00E1B121B801A501B122CEC48F01BC0B0
:1050C80016F0FE0E161616500B6E0C6A7AEC48F0A7
:1050D80011C00BF00C6A7AEC48F010C00BF00C6AA7
:1050E8007AEC48F090EC48F01BC00BF00C6A7AECB4
:1050F80048F0000E186E6BD013506DE1020E125C72
:10510800D8B069D010C016F0010E16267F0E1616FC
:10511800D8A44AD01550D96EDA6A000E0C6E000E6B
:105128000B6E55EC41F00B50DF6E97EC48F0340EE7
:10513800166EF20EE82EFED7162EFCD7010E10269C
:10514800000E112212221322152A135003E1120411
:10515800D8A002D0080E01D0000E1A6E19C01BF09C
:10516800D8901B36A00E1B121B801A501B122CEC59
:1051780048F01BC016F0FE0E161616500B6E0C6A81
:105188007AEC48F011C00BF00C6A7AEC48F010C0C9
:105198000BF00C6A7AEC48F090EC48F01BC00BF06E
:1051A8000C6A7AEC48F012D01550D96EDA6A000E03
:1051B8000C6E010E0B6E55EC41F00B50DF6E152A8C
:1051C800010E1026000E112212221322182A145042
:1051D800185CD8A091D7000E0C6E000E0B6E55EC23
:1051E80041F097EC48F0070E166EC00EE82EFED779
:1051F800162EFCD712002D6E2D50010B296E29C0DA
:1052080026F02D500C0DF3CF22F0F4CF23F0E60E4C
:1052180022242A6E000E23202B6E030E2D6412000A
:10522800040E2D5E2D50120DF350340F2C6E2D50A0
:10523800010B296E29C026F02D500C0DF3CF22F05A
:10524800F4CF23F0E60E22242A6E000E23202B6EC4
:105258002AC01BF02BC01CF02CC009F00A6A2CECE9
:1052680045F0226E010E22241D6E1E6A000E1E22BB
:10527800F5EC47F0020E2A241B6E000E2B201C6E44
:10528800010E2C240D6E0E6A000E0E220FEC45F056
:105298000DC01DF00EC01EF0F5EC47F0030E2A24D9
:1052A8001B6E000E2B201C6E030E2C24096E0A6A3E
:1052B800000E0A222CEC45F0226E22501D6E1E6A4A
:1052C800F5EC47F0040E2A241B6E000E2B201C6EF2
:1052D800040E2C24096E0A6A000E0A222CEC45F0F2
:1052E800226E22501D6E1E6AF5EC47F0050E2A2428
:1052F8001B6E000E2B201C6E050E2C24096E0A6AEC
:10530800000E0A222CEC45F0226E22501D6E1E6AF9
:10531800F5EC47F0060E2C240D6E0E6A000E0E22D8
:10532800790E0F6E010E106E63EC45F0060E2A24FE
:105338001A6E000E2B201B6E790E1C6E010E1D6E50
:1053480021EC47F00B0E2A241B6E000E2B201C6E3E
:10535800100E2C240D6E0E6A000E0E220FEC45F076
:105368000DC01DF00EC01EF0F5EC47F01200000E47
:10537800136E9B0E126EF20E146E010E156E040E55
:10538800166E28EC31F0F4C124F0256A266A276AE3
:1053980026C027F025C026F024C025F0246AF3C1D2
:1053A80028F0296A2A6A2B6A29C02BF028C02AF01B
:1053B800296A286AF2C12CF02D6A2E6A2F6A2CC03D
:1053C8002FF02E6A2D6A2C6A28502C24306E295012
:1053D8002D20316E2A502E20326E2B502F20336E06
:1053E80024503024346E25503120356E265032201A
:1053F800366E27503320376E0101F5513424386E4C
:10540800000E3520396E000E36203A6E000E372019
:105418003B6E385039103A103B10D8B434D00001E4
:10542800CD51381830E1CE5139182DE1CF513A1805
:105438002AE1D0513B18D8A426D0750EE06F300E63
:10544800DF6F010EEB6F000E1C6E9A0E1B6E000EC6
:105458001E6E010E1D6EF5EC47F0000E1C6E9B0EC5
:105468001B6E000E1E6E000E1D6EF5EC47F0000E52
:105478001C6E9C0E1B6E000E1E6E000E1D6EF5EC53
:1054880047F017EC43F00001EB05D8B4E0AF0ED0BD
:10549800000EEB6F000E1C6E9A0E1B6E000E1E6E39
:1054A800000E1D6EF5EC47F0B4EC47F071EC48F0D7
:1054B8005A0AD8A41200750E0001E06F300EDF6F93
:1054C800000E52EC48F01200286E28500C0DF3CF55
:1054D80022F0F4CF23F0E60E2224296E000E2320BA
:1054E8002A6E2850120DF350340F2B6E2850010BE2
:1054F800276E27C024F029C01BF02AC01CF02BC03F
:1055080009F00A6A2CEC45F0226E22501D6E1E6AC4
:10551800F5EC47F0020E29241B6E000E2A201C6EA3
:10552800010E2B240D6E0E6A000E0E220FEC45F0B4
:105538000DC01DF00EC01EF0F5EC47F0030E292437
:105548001B6E000E2A201C6E030E2B24096E0A6A9D
:10555800000E0A222CEC45F0226E22501D6E1E6AA7
:10556800F5EC47F0040E29241B6E000E2A201C6E51
:10557800040E2B24096E0A6A000E0A222CEC45F050
:10558800226E22501D6E1E6AF5EC47F0050E292486
:105598001B6E000E2A201C6E050E2B24096E0A6A4B
:1055A800000E0A222CEC45F0226E22501D6E1E6A57
:1055B800F5EC47F0060E2B240D6E0E6A000E0E2237
:1055C800790E0F6E010E106E63EC45F0060E29245D
:1055D8001A6E000E2A201B6E790E1C6E010E1D6EAF
:1055E80021EC47F00B0E29241B6E000E2A201C6E9E
:1055F800100E2B240D6E0E6A000E0E220FEC45F0D5
:105608000DC01DF00EC01EF0F5EC47F01200116E33
:105618001150D8A40CAE1AD009C00DF00AC00EF073
:105628000BC00FF00CC010F00D1E0E1E0F1E101E2A
:105638000D2A000E0E220F2210220DC013F00EC0EC
:1056480014F00FC015F010C016F008D009C013F000
:105658000AC014F00BC015F00CC016F009500A105F
:105668000B100C10D8A409D0000E096E000E0A6E9B
:10567800000E0B6E000E0C6E1200960E126E06D007
:10568800122AD8901632153214321332000E13141F
:105698000D6E000E14140E6E000E15140F6EFE0E15
:1056A8001614106E0D500E100F101010D8B40DD027
:1056B800E7D7122A010E1326000E142215221622ED
:1056C800D8901632153214321332000E13140D6EA0
:1056D800000E14140E6E000E15140F6EFF0E161425
:1056E800106E0D500E100F101010D8B407D0E1D75F
:1056F8001206D890133614361536163615BE03D052
:10570800020E1260F5D712A0159ED890123212C060
:105718000DF00E6A0F6A106A0DC010F00F6A0E6A5B
:105728000D6A0D5013120E5014120F50151210500E
:1057380016121150D8A40CAE01D0168E13C009F061
:1057480014C00AF015C00BF016C00CF012008FEC54
:1057580046F00101006F000E1C6E000E1D6E000E5B
:105768001E6E000E1F6E000E98EC45F01CC062F015
:105778001DC063F0624A632A100E625C270E6358EC
:10578800D8A004D0000E636E000E626E000E1F6E6D
:10579800000E206E000E216E000E226E62C023F0F5
:1057A80063C024F0000EA5EC46F0580E1B6E4E0E9A
:1057B8001C6EF8EC25F0000E0001E26F000EE16FA0
:1057C800020E1C6E000E1D6E000E1E6E000E1F6E69
:1057D800000EAFEC3AF01CC0C9F01DC0CAF01EC0E4
:1057E800CBF01FC0CCF062C001F163C002F1030E20
:1057F8000D6E010E0E6E580E0F6E106AACEC41F075
:105808000D0E0D6E010E0E6E4E0E0F6E106AACEC84
:1058180041F0170E0D6E010E0E6E5F0E0F6EFD0E2F
:10582800106EACEC41F0210E0D6E010E0E6E5F0E87
:105838000F6EFD0E106EACEC41F0000E0E6E090EF0
:105848000D6E0FEC45F00D5001012B6FC9C02CF106
:10585800CAC02DF1CBC02EF1CCC02FF1000E306F95
:10586800000E316F000E326F000E336F000E356F71
:10587800000E346F3697369536933681005175ECA5
:105888001DF0F3EC39F01200F5C30BF00B50F4C324
:105898000CF00CC00DF00E6A0DC00EF00D6A0D264E
:1058A800000E0E2209C0D9FF0AC0DAFF0DC0DEFFC4
:1058B8000EC0DDFF23EEF6F010EE02F00950E126EF
:1058C8000A50E222DFCFE7FF23EEF7F010EE03F0F5
:1058D8000950E1260A50E222DFCFE7FFF9C30BF0B7
:1058E8000B50F8C30CF00CC00DF00E6A0DC00EF092
:1058F8000D6A0D26000E0E2220EE04F00950D9265E
:105908000A50DA220DC0DEFF0EC0DDFF23EEFAF0EA
:1059180010EE06F00950E1260A50E222DFCFE7FF39
:10592800000E0F6E1ED0FB0E0F24D96EDA6A030E1E
:10593800DA22DF500B6E0C6A0F50020D09C00DF011
:105948000AC00EF0F3500D26F4500E22070E0D2457
:10595800D96E000E0E20DA6E0BC0DEFF0CC0DDFF24
:105968000F2A20EE02F00950D9260A50DA220F50E9
:10597800DE5CD8B0D8D723EEFBF010EE25F0095046
:10598800E1260A50E222DFCFE7FF20EE26F0095099
:10599800D9260A50DA22FCC30BF00B380F0B0F0B79
:1059A800DF6E20EE27F00950D9260A50DA220301CB
:1059B800FC510F0BDF6E12000C50D96EDA6A060E1E
:1059C800D926DF500E6E0C50D96EDA6A070ED9262A
:1059D800DF500F6E000E106E0C50D96EDA6A030E8F
:1059E800D926DF50116E0C50D96EDA6A040ED9260A
:1059F800DF50126E000E136E0C50D96EDA6ADF504B
:105A0800146E0C50D96EDA6A010ED926DF50156E65
:105A1800000E166E0D50D96EDA6ADF50176E0D50F3
:105A2800D96EDA6A010ED926DF50186E000E196E8B
:105A38000D50D96EDA6A030ED926DF501A6E0D5052
:105A4800D96EDA6A040ED926DF501B6E000E1C6E62
:105A58000D50D96EDA6A060ED926DF501D6E0D502C
:105A6800D96EDA6A070ED926DF501E6E000E1F6E39
:105A78005A0E0B6EA50E0A6E9EEC48F00A0E39EC13
:105A880048F0800E39EC48F01F0E39EC48F05A0EF9
:105A980039EC48F00E0E096E6CEC47F039EC48F022
:105AA800110E096E6CEC47F039EC48F0140E096ED3
:105AB8006CEC47F039EC48F0010E39EC48F0170E61
:105AC800096E6CEC47F039EC48F01A0E096E6CEC74
:105AD80047F039EC48F01D0E096E6CEC47F039ECD4
