:020000040000FA
:0400000068EF01F0B4
:100018007180D8CF04F0E8CF05F0E0CF06F0D9CF53
:1000280007F0DACF08F0F3CF09F0F4CF0AF09EAA70
:1000380064D0959883886EB006D06E80A60E0001B5
:10004800946F956B1CD0000E0B6E0B504A0DAA0EC8
:10005800F324D96E040EF420DA6EDF50D8A40BD046
:100068000B504A0DAA0EF3240001946F040EF420DD
:10007800956F6E8004D00B2A050E0B64E6D7010E2F
:100088000001976F900E966F000E646E000E636EFF
:10009800A5691ED09EAA19D08398838894C0D9FFD9
:1000A80095C0DAFFAECFDFFF64BE06D0645008E12A
:1000B800490E635CD8B004D0634A642A944B952BEC
:1000C800010E976F900E966F03D09607D8A09707EA
:1000D80096519711D8A4DED78398ABA20ED0AB98CF
:1000E800AB88AECF96F0976BAECF96F0976BAECF4E
:1000F80096F0976B000EA66F6E829EA0B3D09E906E
:100108003C0ECF6EB40ECE6E010E0001A46F01013D
:10011800BEB103D0000E0001A46F000E646E010E84
:10012800636E0ED0920E6324D96E010E6420DA6ECF
:10013800DF50D8A403D0000E0001A46F634A642ADC
:100148006C50016E026A6350015C0250800A036EB3
:100158006450800A0358D8B0E5D70001A405D8A494
:100168001AD004000101BE91000E646E010E636E88
:1001780064BE06D064500FE10F0E635CD8B00BD09C
:10018800920E6324D96E010E6420DA6E000EDF6EC3
:10019800634A642AEDD7F50E0101A15D010EA2594B
:1001A800D8A002D0819E01D0818E0001A051A1115A
:1001B800D8B405D0320EA05F000EA15B05D09EC05A
:1001C800A0F09FC0A1F06E8C320E0101B427000E82
:1001D800B523320E00019C27000E9D236B50D8B426
:1001E8009BBF04D0CE0E9A27FF0E9B23320E982772
:1001F800000E9923320E0101A127000EA223E80E5A
:10020800A15D030EA259D8A02DD06DA812D06A2ADC
:100218003B0E6A640ED0000E6A6E692A3B0E696452
:1002280008D0000E696E682A630E686402D0000E5A
:10023800686E000EA26F000EA16FA32BBD51D8A44B
:10024800BD073B0EA3650ED0000EA36FA42B3B0E7B
:10025800A46508D0000EA46FA52B170EA56502D0C3
:10026800000EA56FF2B2F292F2A41ED00D0EE82E87
:10027800FED700F0000ED76EE10ED66EF2940101A3
:10028800B251B311D8B405D0B207D8A0B307818C46
:1002980001D0819CB651B711D8B405D0B607D8A003
:1002A800B707818A01D0819A0AC0F4FF09C0F3FF19
:1002B80008C0DAFF07C0D9FF06C0E0FF05C0E8FFA5
:1002C80004C0D8FF719010000FEF25F0640E0C6E7B
:1002D800000E0D6E000E0E6E000E0F6E57EC30F015
:1002E800D388D38AD38C9B8CEF0E926E010E936EBB
:1002F800F00E946EE30E956E9668D59AD596D582D3
:10030800D582D584F194F28AF290F2989E909F90CB
:100318000B0ECF6EBA0ECE6ECD92CD88CD8ACD8C17
:10032800CD869D80CD80F28CF28E000E0101B16FDA
:10033800000EB06F819E000EB36F000EB26F819CED
:10034800000EB76F000EB66F819A000E196EC20EBE
:100358001A6E010E1B6E000E1C6E8FEC2CF0B3ECA7
:1003680035F0A00E196E860E1A6E010E1B6E000E69
:100378001C6EE1EC2EF0F40E0C6E010E0D6E000EEC
:100388000E6E000E0F6E57EC30F0000E0D6E100E54
:100398000C6EBAEC32F06D6E6D50D8A408D044ECF7
:1003A80032F0000E1B6E000E1A6E43EC35F0000E94
:1003B800116E220E106E27EC33F010C08BF111C0B5
:1003C8008CF101018B2917E18C29D8A414D0000ED7
:1003D8002C6E220E2B6E000E2E6E000E2D6E94ECDF
:1003E80034F0000E2C6EE80E2B6E000E2E6E000EF2
:1003F8002D6E94EC34F001018B4B8C2B000E2C6E7F
:10040800220E2B6E8BC12DF08CC12EF094EC34F0A3
:100418000101BF99F29E839483888A688398000EAD
:100428008A6EF28E2C0E0C6E010E0D6E000E0E6E84
:10043800000E0F6E57EC30F0D90E236EFC0E246EB2
:1004480060EC28F02C0E0C6E010E0D6E000E0E6E78
:10045800000E0F6E57EC30F02F0E236EFE0E246E3A
:1004680060EC28F02C0E0C6E010E0D6E000E0E6E58
:10047800000E0F6E57EC30F0070E236EFD0E246E43
:1004880060EC28F02C0E0C6E010E0D6E000E0E6E38
:10049800000E0F6E57EC30F0070E206EC60E1F6E62
:1004A800000E216E030E226E50EC35F04A0E106ECF
:1004B800030E116EFF0E126EFE0E136E65EC2FF01A
:1004C8004A0E1A6E030E1B6E000E1C6E030E1D6E76
:1004D8006EEC34F04A0E236E030E246E60EC28F0A6
:1004E8002C0E0C6E010E0D6E000E0E6E000E0F6EB1
:1004F80057EC30F0C8EC15F0E80E0C6E030E0D6EDC
:10050800000E0E6E000E0F6E57EC30F0000E1E6ED1
:10051800020E1D6E000E206E000E1F6E33EC35F0BD
:10052800000E1E6E030E1D6E000E206E000E1F6E56
:1005380033EC35F0000E1E6E040E1D6E000E206E9C
:10054800000E1F6E33EC35F0000E1E6E050E1D6E8C
:10055800000E206E000E1F6E33EC35F06D906D941A
:100568006D966D92000E09EC30F0000E0D6E340E93
:100578000C6EBAEC32F0FF0AD8A44AD0270E236ECC
:10058800FD0E246E60EC28F00A0E346E000EEDECC1
:1005980022F03FEC31F08FEC2FF01FEC2EF0000E24
:1005A8006B6E000E676EAAEC35F0000E266E100E0C
:1005B800256E000E276E84EC2EF0000E2C6E090EB0
:1005C8002B6E000E2E6E0A0E2D6E94EC34F0000E7B
:1005D8002C6E0B0E2B6E400E2D6EE20E2E6E010E43
:1005E8002F6E000E306E05EC34F0000E82EC08F031
:1005F800000E266E110E256E000E276E84EC2EF06E
:10060800000E266E120E256E000E276E84EC2EF05C
:1006180002EC29F0010E82EC08F06D50D8B41CD021
:10062800840E236EFD0E246E60EC28F0350E236ECA
:10063800FF0E246E60EC28F0980E0C6E3A0E0D6ECC
:10064800000E0E6E000E0F6E57EC30F0A70E236EE4
:10065800FF0E246E60EC28F0C40E236EFE0E246E8E
:1006680060EC28F0000E906F0E0E906501D008D057
:10067800040001019051B2EC19F00101902BF4D75C
:10068800000E906F070E906501D009D0040090C14C
:1006980024F0256A72EC1FF00101902BF3D7000EAD
:1006A800116E0B0E106E62EC32F010C0A6F111C084
:1006B800A7F112C0A8F113C0A9F1CFEC2CF09DEC62
:1006C80011F0D1EC25F08CEC33F096EC29F041ECEC
:1006D8002BF06D50D8A407D0000E1B6E0F0E1A6EAB
:1006E80043EC35F022D0950E236EFE0E246E60EC9E
:1006F80028F004000FEC2DF0100E0C6E270E0D6E76
:10070800000E0E6E000E0F6E19EC31F0D2EC1BF0DD
:10071800100E0C6E270E0D6E000E0E6E000E0F6E74
:1007280019EC31F0D3EC23F0D7D7000E0101F26FAA
:10073800000EF16F000EF06F000EEF6F000EBC6F31
:10074800000EB56F000EB46F000EB96F000EAD6FDE
:10075800000EAC6F000EAB6F000EAA6F000EAF6FED
:10076800000EAE6F000EE7EC31F0000E0101A26F33
:10077800000EA16F000EA36F000E0D6E110E0C6E11
:10078800BAEC32F0686E000E0D6E120E0C6EBAECFA
:1007980032F0696E000E6A6E6DC0B8F1000E01018C
:1007A800BD6F0101BE8128EC2AF0E90E0101B45D9C
:1007B800030EB559D8A016D0000EB56F000EB46F51
:1007C8007FEC2DF01DC0F1F11EC0F2F10101EF51D7
:1007D800F11904E1F051F219D8B404D0F1C1EFF1E4
:1007E800F2C1F0F1A2510CE1020EA15DD8B008D01F
:1007F800190EF119F211D8B403D0000EE7EC31F05C
:100808006DB8C7EC31F096EC29F041EC2BF024ECF4
:100818001BF070EC17F030EC30F0020E5E6E4D0EEF
:100828005D6E740EE82EFED75D2EFCD75E2EFAD7CD
:1008380000D0D2EC1BF0020E5E6E4D0E5D6E740E93
:10084800E82EFED75D2EFCD75E2EFAD700D00FEC2F
:100858002DF0020E5E6E4D0E5D6E740EE82EFED704
:100868005D2EFCD75E2EFAD700D0D3EC23F0020E13
:100878005E6E4D0E5D6E740EE82EFED75D2EFCD7B3
:100888005E2EFAD700D00101B8516D18D8B406D041
:10089800CCEC30F05AEC33F06DC0B8F16A50D8B4F3
:1008A80004D01E0E6A18D8A407D00101BFA306D031
:1008B800BF93DDEC35F002D00101BF8382EC35F047
:1008C8009DEC11F0DFEC12F0B1D3000E01018F6F37
:1008D800090E8F6501D033D0070E8F251F6E206A51
:1008E800000E2022F0EC34F01F042010D8A424D0ED
:1008F800070E01018F251D6E1E6A000E1E22000EB6
:10090800206E000E1F6E33EC35F08FC1BBF1050E63
:100918000101BB6109D0130EBA6F000E1B6E1B0ECE
:100928001A6E43EC35F008D0150EBA6F000E1B6E28
:100938001C0E1A6E43EC35F001018F2BC9D7E3EC7E
:1009480013F09ED3000E206E010E1F6EF0EC34F0F3
:100958001F042010D8A494D3000E1E6E010E1D6E25
:10096800000E206E000E1F6E33EC35F070EC25F093
:1009780087D30101BC51D8A405D0010EE7EC31F0B2
:100988000101BC2B000E206EAE0E1F6EF0EC34F091
:100998001F042010D8A474D3000E1E6EAE0E1D6E58
:1009A800000E206E000E1F6E33EC35F0A5EC30F013
:1009B80067D3000E666E070E666401D02CD0200E39
:1009C80066241F6E206A000E2022F0EC34F01F040B
:1009D8002010D8A41ED0200E66241D6E1E6A000E9C
:1009E8001E22000E206E000E1F6E33EC35F0BAC1C9
:1009F8001AF01B6A43EC35F0DE0E1A6E010E1B6E00
:100A080066503FEC24F0010E246E0101BB51AAECA4
:100A180024F0662AD0D7000E206E110E1F6EF0EC5F
:100A280034F01F042010D8A40FD0000E1E6E110E33
:100A38001D6E000E206E000E1F6E33EC35F0BAC12D
:100A48001AF01B6A43EC35F0000E206E120E1F6E72
:100A5800F0EC34F01F042010D8A412D3000E1E6E40
:100A6800120E1D6E000E206E000E1F6E33EC35F058
:100A7800000E0101E46FE50E106E010E116E830E7B
:100A8800126EFD0E136E65EC2FF0000E0101E36F80
:100A9800000EE26F000EE16F000EE06F000EDF6FD8
:100AA800000EDE6F000E246EBB51AAEC24F0BAC112
:100AB8001AF01B6A43EC35F0E3D2000E206EAF0E3D
:100AC8001F6EF0EC34F01F042010D8A4D9D2000E09
:100AD8001E6EAF0E1D6E000E206E000E1F6E33ECE4
:100AE80035F085EC31F0CCD2DD0E0101A6195D6E32
:100AF800CC0EA7195E6EBB0EA8195F6EAA0EA919B7
:100B0800606E5D1C856F5E1C866F5F1C876F601C46
:100B1800886F85C119F086C11AF087C11BF088C19A
:100B28001CF04A0E1D6E030E1E6E000E206E100E77
:100B38001F6E87EC21F0060E1E6E7C0E1D6E4A0E8F
:100B48001F6E030E206E81EC34F0F40E0C6E010E55
:100B58000D6E000E0E6E000E0F6E3BEC2FF0010EA8
:100B6800206E820E1F6EF0EC34F01F042010D8A403
:100B780087D2010E1E6E820E1D6E000E206E000EB4
:100B88001F6E33EC35F004EC0DF07AD20101BF870B
:100B9800030E706E100E6F6E70BE06D01D0E6F5C69
:100BA800030E7058D8B017D26F50F00F656E6FC033
:100BB8001FF070C020F0F0EC34F00E0E1F1820105B
:100BC800D8A468D17EEC30F05D6E5D50616E626ACB
:100BD80062BE06D0625003E1080E615CD8B020D135
:100BE800100E65241D6E1E6A030E1E22010E65245A
:100BF8001F6E206A000E202233EC35F061C015F01C
:100C080062C016F0000E186E0A0E176EA7EC34F0CC
:100C1800FD0E15241D6E060E16201E6E010E61C0F7
:100C28005DF062C05EF05DC05EF05D6A5D101F6ED3
:100C38005E50206E33EC35F061C015F062C016F0DE
:100C4800000E186E0A0E176EA7EC34F0FB0E152472
:100C58001D6E060E16201E6E6550020D890EF324B9
:100C6800F66EFC0EF420F76E0900F5CF1FF00A00AF
:100C7800F5CF20F033EC35F05A0E6124D96E020E10
:100C88006220DA6E61C0DFFF690E6124D96E020E40
:100C98006220DA6E6528DF6E780E6524D96EDA6A0E
:100CA800020EDA226528DF6E6550020D890EF324E4
:100CB800F66EFC0EF420F76ED8906134D96E62346B
:100CC800DA6E870ED926020EDA220900F5CFDEFF8A
:100CD8000800F5CFDDFF000E5D6E020E5E6E1E0E83
:100CE8005D26000E5E22D8906134D96E6234DA6EC9
:100CF800D890D936DA365D50D9265E50DA22000E01
:100D0800DE6E000EDE6E800EDE6E3F0EDD6E020EB3
:100D1800656408D0010E65240101896F8A6B000E95
:100D28008A2304D065C089F101018A6B89C15DF00D
:100D38008AC15EF0D8905D365E36C00E5F6E010ED9
:100D4800606E5D505F265E506022D8906134D96E27
:100D58006234DA6E000ED926020EDA225FC0DEFF98
:100D680060C0DDFF000E5D6E020E5E6E1E0E5D261B
:100D7800000E5E22D8906134D96E6234DA6ED89053
:100D8800D936DA365D50D9265E50DA22000EDE6E8C
:100D9800000EDE6E800EDE6E3F0EDD6E6550D8A44E
:100DA8001CD0000E5D6E020E5E6E1E0E5D26000EDD
:100DB8005E22D8906134D96E6234DA6ED890D93612
:100DC800DA365D50D9265E50DA22000EDE6E000E4D
:100DD800DE6E800EDE6E3F0EDD6E6504D8A41CD07C
:100DE800000E5D6E020E5E6E1E0E5D26000E5E2209
:100DF800D8906134D96E6234DA6ED890D936DA3642
:100E08005D50D9265E50DA22000EDE6E000EDE6ED0
:100E1800800EDE6E3F0EDD6E020E82EC08F0D8D03A
:100E280061C015F062C016F0000E186E0A0E176E3B
:100E3800A7EC34F0FD0E15241D6E060E16201E6E4E
:100E480061505E6E5D6A000E5D101F6E0A0E5E10C8
:100E5800206E33EC35F061C015F062C016F0000E5C
:100E6800186E0A0E176EA7EC34F0FB0E15241D6ED3
:100E7800060E16201E6EFF0E206E1F6833EC35F02E
:100E88006FC01DF070C01EF0FF0E206E1F6833EC9F
:100E980035F09ED06FC01FF070C020F0F0EC34F039
:100EA800205004E10F0E1F5CD8A092D06FC01FF035
:100EB80070C020F0F0EC34F0205003E11F0E1F5CEE
:100EC800D8B086D0690E0C6E020E0D6E65280E6EB7
:100ED800BAEC34F00101916F690E6524D96EDA6AB3
:100EE800020EDA22DF505D6E5D04846F6FC01DF064
:100EF80070C01EF0FF0E206E1F6833EC35F0010144
:100F080091510A0DF3CF5DF0F4CF5EF0FD0E5D2434
:100F18001D6E060E5E201E6E0A0E206E000E1F6EDF
:100F280033EC35F0010191510A0DF3CF5DF0F4CFA8
:100F38005EF0FB0E5D241D6E060E5E201E6EFF0E1B
:100F4800206E1F6833EC35F001019151020D000E3F
:100F5800F324D96E020EF420DA6E000EDE6E000E57
:100F6800DD6E5A0E9125D96EDA6A020EDA220A0E61
:100F7800DF6E690E9125D96EDA6A020EDA22FF0E4B
:100F8800DF6E780E6524D96EDA6A020EDA22FF0E59
:100F9800DF6E9151020D870EF324D96E020EF420F4
:100FA800DA6EFF0EDE6EFF0EDD6E9151040D1E0E21
:100FB800F324D96E020EF420DA6E000EDE6E000EF7
:100FC800DE6E000EDE6E000EDD6E020E82EC08F0A4
:100FD8006F4A702AE1D50101BF9752D076EC35F0FF
:100FE800000E666E070E666401D04AD0200E662495
:100FF8001F6E206A000E2022F0EC34F01F0420102F
:10100800D8A40FD0200E66241D6E1E6A000E1E2264
:10101800000E206E000E1F6E33EC35F0B5EC2AF092
:101028002FD0662ADFD744EC0BF02AD0F1C15DF04F
:10103800F2C15EF05E50000AD8A422D05D50130AB7
:10104800D8B443D4060AD8B440D4020AD8B47AD45F
:101058000E0AD8B48ED4020AD8B4ABD4070AD8B4CE
:10106800A8D4010AD8B429D5020AD8B43DD53C0A77
:10107800D8B48CD50C0AD8B4B1D71E0AD8B4D3D7F3
:10108800030E5E6E080E5D6E770EE82EFED75D2E9F
:10109800FCD75E2EFAD700F0CD0E5DEC35F0CD0E04
:1010A8005DEC35F0CD0E5DEC35F0CD0E5DEC35F038
:1010B800CD0E5DEC35F0000E01018E6F000E8D6FC8
:1010C8000DD06EB011D00B0E5D6E620EE82EFED7FD
:1010D8005D2EFCD700D001018D4B8E2BF40E8D5D5B
:1010E800010E8E59D8A0EDD76EB0F0EC26F06EA0A8
:1010F800D5EF03F086EC2BF0D5EF03F0376EAED2C8
:10110800000E3F6E3F50020D870EF324D96E020E7B
:10111800F420DA6EFF0EDE6EFF0EDD6E5A0E3F24EF
:10112800D96EDA6A020EDA220A0EDF6E690E3F24E1
:10113800D96EDA6A020EDA22FF0EDF6E780E3F24CD
:10114800D96EDA6A020EDA22FF0EDF6E3F50020D08
:10115800000EF324D96E020EF420DA6E000EDE6E55
:10116800000EDD6E3F50040D1E0EF324D96E020EE4
:10117800F420DA6E000EDE6E000EDE6E000EDE6EFD
:10118800000EDD6E130E3F24256E266A000E262201
:10119800780E3F24D96EDA6A020EDA22DF50276E03
:1011A80084EC2EF0EA0E3F24256E266A000E2622D5
:1011B800690E3F24D96EDA6A020EDA22DF50276EF2
:1011C80084EC2EF0240E3F24256E266A000E26227B
:1011D8005A0E3F24D96EDA6A020EDA22DF50276EE1
:1011E80084EC2EF0100E3F241D6E1E6A030E1E2284
:1011F800FF0E206E1F6833EC35F03F500A0DF3CF19
:1012080031F0F4CF32F0FD0E31241D6E060E32207F
:101218001E6E0A0E206E000E1F6E33EC35F03F5026
:101228000A0DF3CF31F0F4CF32F0FB0E31241D6EEE
:10123800060E32201E6EFF0E206E1F6833EC35F04E
:101248003F2A0C0E3F645ED71200000E116E130E7B
:10125800106E780E126E020E136E0F0E146EBEEC28
:1012680033F0000E116EEA0E106E690E126E020E49
:10127800136E0F0E146EBEEC33F0000E116E240EBA
:10128800106E5A0E126E020E136E0F0E146EBEEC16
:1012980033F0000E3F6E780E3F24D96EDA6A020EE4
:1012A800DA22DF503A6E3A28D8B40CD0100E3F2418
:1012B8001D6E1E6A030E1E223AC01FF0206A33EC10
:1012C80035F00BD0100E3F241D6E1E6A030E1E2231
:1012D800FF0E206E1F6833EC35F03F2A0C0E3F647A
:1012E800DAD7000E3F6E5A0E3F24D96EDA6A020E24
:1012F800DA22080EDF6021D0FE0E316EFF0E326E4C
:10130800690E3F24D96EDA6A020EDA22DF50336E94
:10131800346AD8903336343631503326325034223A
:10132800890E3324F66EFC0E3420F76E0900F5CFD3
:101338003CF00A00F5CF3DF002D03C683D683F50D4
:101348000A0DF3CF31F0F4CF32F0FB0E31241D6ECD
:10135800060E32201E6E3CC01FF03DC020F033EC5C
:1013680035F03F50020D870EF324D96E020EF4209B
:10137800DA6E3CC0DEFF3DC0DDFF3F2A0C0E3F6445
:10138800B2D7000E3F6E5A0E3F24D96EDA6A020EAB
:10139800DA22DF503B6E080E3B601AD03F500A0D30
:1013A800F3CF31F0F4CF32F0FD0E31241D6E060E6E
:1013B80032201E6E010E3BC033F0346A33C034F065
:1013C800336A33101F6E3450206E33EC35F012D070
:1013D8003F500A0DF3CF31F0F4CF32F0FD0E312437
:1013E8001D6E060E32201E6E0A0E206E000E1F6E37
:1013F80033EC35F03F2A0C0E3F64C5D7000E3E6E25
:101408005A0E3E24D96EDA6A020EDA220A0EDE1865
:10141800D8B4CBD0FF0E316EFF0E326E5A0E3E247A
:10142800D96EDA6A020EDA22DF50336E346A690E38
:101438003324D96E020E3420DA6EDF50356E366AE8
:10144800315035263250362236BE1BD0365004E194
:10145800030E355CD8A015D05A0E3E24D96EDA6A30
:10146800020EDA22DF50316E326A690E3124D96EEB
:10147800020E3220DA6EDF50336E3350386E396A1E
:1014880017D05A0E3E24D96EDA6A020EDA22DF50DD
:10149800316E326A690E3124D96E020E3220DA6E4C
:1014A800DF50336EFF0E3324386E396AFF0E39224F
:1014B80038C031F039C032F0D89031363236C00EEB
:1014C800336E010E346E31503326325034225A0EA8
:1014D8003E24D96EDA6A020EDA22DF50356E3550B4
:1014E800020D000EF324D96E020EF420DA6E33C01A
:1014F800DEFF34C0DDFF5A0E3E24D96EDA6A020ED2
:10150800DA22DF50316E3150040D1E0EF324D96EED
:10151800020EF420DA6E000EDE6E000EDE6E800E15
:10152800DE6E3F0EDD6E5A0E3E24D96EDA6A020E6A
:10153800DA22DF50D8A418D05A0E3E24D96EDA6ABF
:10154800020EDA22DF50316E3150040D1E0EF324E4
:10155800D96E020EF420DA6E000EDE6E000EDE6E1C
:10156800800EDE6E3F0EDD6E5A0E3E24D96EDA6AAC
:10157800020EDA22DE04D8A418D05A0E3E24D96E00
:10158800DA6A020EDA22DF50316E3150040D1E0E77
:10159800F324D96E020EF420DA6E000EDE6E000E11
:1015A800DE6E800EDE6E3F0EDD6E3E2A070E3E6456
:1015B80027D71200000E3F6E100E3F241F6E206AC0
:1015C800030E2022F0EC34F0780E3F24D96EDA6A4C
:1015D800020EDA221FC0DFFF3F500A0DF3CF31F0B1
:1015E800F4CF32F0FD0E31241F6E060E3220206E2D
:1015F800F0EC34F020C01FF0206A5A0E3F24D96E58
:10160800DA6A020EDA221FC0DFFF3F2A0D0E3F649E
:10161800D3D7000E2C6E130E2B6E780E2D6E020E85
:101628002E6E0F0E2F6E41EC33F0000E2C6EEA0E6C
:101638002B6E690E2D6E020E2E6E0F0E2F6E41EC64
:1016480033F0000E2C6E240E2B6E5A0E2D6E020EE9
:101658002E6E0F0E2F6E41EC33F012003750316EA4
:10166800326A3250000AD8A412003150000AD8B4A5
:1016780047D5010AD8B4E9D5030AD8A412009AD7E5
:10168800010E206E860E1F6EF0EC34F01F04201041
:10169800D8A486D0000E0101DF6F000EDE6F000EA9
:1016A800E16F000EE06F000EE36F000EE26F000EB8
:1016B800E46FE50E106E010E116E830E126EFD0EB4
:1016C800136E65EC2FF0DE0E2F6E010E306E665035
:1016D80006EC28F066C024F0256A72EC1FF0010EB3
:1016E8001E6E9A0E1D6E000E206E000E1F6E33ECDD
:1016F80035F0010E1E6E9B0E1D6E000E206E000E44
:101708001F6E33EC35F0010E1E6E9C0E1D6E000E22
:10171800206E000E1F6E33EC35F0010E1E6E9D0E0E
:101728001D6E000E206E000E1F6E33EC35F0010E9C
:101738001E6E9E0E1D6E830E1F6EFD0E206E81ECBA
:1017480034F076EC35F0010E1E6E860E1D6E000E1E
:10175800206E000E1F6E33EC35F0600ED8EC35F0BD
:10176800CCEC30F0070E1E6E760E1D6EF90E1F6E55
:10177800FD0E206E81EC34F0DC0E0C6E050E0D6E45
:10178800000E0E6E000E0F6E19EC31F0070E1E6E75
:10179800760E1D6E830E1F6EFD0E206E81EC34F0EA
:1017A800010E206E870E1F6EF0EC34F01F0420101F
:1017B800D8A467D0010E206E9A0E1F6EF0EC34F09C
:1017C8001FC0DEF120C0DFF1010E206E9B0E1F6EE0
:1017D800F0EC34F01FC0E0F120C0E1F1010E206E02
:1017E8009C0E1F6EF0EC34F01FC0E2F120C0E3F154
:1017F800010E206E9D0E1F6EF0EC34F01F5001019B
:10180800E46F010E206E9E0E1F6EE50E216E010E16
:10181800226E50EC35F0DE0E2F6E010E306E6650E3
:1018280006EC28F076EC35F0010E1E6E870E1D6E64
:10183800000E206E000E1F6E33EC35F0510ED8EC02
:1018480035F0CCEC30F0070E1E6E760E1D6EDD0EF8
:101858001F6EFD0E206E81EC34F0DC0E0C6E050E52
:101868000D6E000E0E6E000E0F6E19EC31F0070EA5
:101878001E6E760E1D6E830E1F6EFD0E206E81ECA1
:1018880034F0010E206E880E1F6EF0EC34F01F0449
:101898002010D8A49AD0070E1E6E760E1D6EC00EAC
:1018A8001F6EFD0E206E81EC34F0DE0E1A6E010EF6
:1018B8001B6E66503FEC24F0070E1E6E760E1D6EF2
:1018C800A20E1F6EFD0E206E81EC34F0000E3D6EF0
:1018D80020D03DC040F0DEC141F0DFC142F0E0C1A0
:1018E80043F0E2C144F0E4C145F0460E106E116ABF
:1018F800E50E126E010E136E65EC2FF0000E506EA1
:10190800010E4F6E400E2F6E306A3D5079EC22F07A
:101918003D2AFC0E366EFF0E376E6C50386E396AF3
:10192800D8903836393636503826375039223D5017
:101938003A6E3B6A38503A5C3B50800A3C6E3950EC
:10194800800A3C58D8A0C5D7070E1E6E760E1D6EAD
:10195800A50E1F6EFC0E206E81EC34F0E5EC14F041
:10196800070E1E6E760E1D6E470E1F6EFD0E206E44
:1019780081EC34F0000E3E6E3E50B2EC19F03E2A77
:101988000E0E3E64F9D7000E3F6E3F5079EC1CF006
:101998003F2A090E3F64F9D7010E1E6E880E1D6E90
:1019A800000E206E000E1F6E33EC35F0600ED8EC82
:1019B80035F0CCEC30F0070E1E6E760E1D6E830EE1
:1019C8001F6EFD0E206E81EC34F0010E206E890E24
:1019D8001F6EF0EC34F01F042010D8A41200010E82
:1019E8001E6E890E1D6E000E206E000E1F6E33ECEB
:1019F80035F0000E1B6E2F0E1A6E43EC35F01200F8
:101A0800010E206E7E0E1F6E47EC34F01FC033F0BF
:101A180020C034F021C035F022C036F04DEC27F05C
:101A2800010E206E800E1F6E47EC34F01FC033F09D
:101A380020C034F021C035F022C036F04DEC27F03C
:101A4800010E166E7C0E156E550E176E186A040E72
:101A5800196E92EC26F057C03DF03E6A3F6A406A24
:101A68003FC040F03EC03FF03DC03EF03D6A56C02A
:101A780041F0426A436A446A42C044F041C043F0BC
:101A8800426A416A55C045F0466A476A486A45C095
:101A980048F0476A466A456A41504524496E4250B3
:101AA80046204A6E435047204B6E445048204C6EA7
:101AB8003D5049244D6E3E504A204E6E3F504B20BB
:101AC8004F6E40504C20506E58504D240101A66F67
:101AD800000E4E20A76F000E4F20A86F000E50205A
:101AE800A96F010E166E7E0E156E550E176E186ACA
:101AF800040E196E92EC26F057C03DF03E6A3F6A1C
:101B0800406A3FC040F03EC03FF03DC03EF03D6AF5
:101B180056C041F0426A436A446A42C044F041C038
:101B280043F0426A416A55C045F0466A476A486AC6
:101B380045C048F0476A466A456A41504524496E9F
:101B4800425046204A6E435047204B6E445048202E
:101B58004C6E3D5049244D6E3E504A204E6E3F50CB
:101B68004B204F6E40504C20506E58504D24596EAB
:101B7800000E4E205A6E000E4F205B6E000E502055
:101B88005C6E010E166E800E156E550E176E186A75
:101B9800040E196E92EC26F057C03DF03E6A3F6A7B
:101BA800406A3FC040F03EC03FF03DC03EF03D6A55
:101BB80056C041F0426A436A446A42C044F041C098
:101BC80043F0426A416A55C045F0466A476A486A26
:101BD80045C048F0476A466A456A41504524496EFF
:101BE800425046204A6E435047204B6E445048208E
:101BF8004C6E3D5049244D6E3E504A204E6E3F502B
:101C08004B204F6E40504C20506E58504D24516E12
:101C1800000E4E20526E000E4F20536E000E5020C4
:101C2800546E0101A651A711A811A911D8B40CD05E
:101C380059505A105B105C10D8B406D0515052104D
:101C480053105410D8A404D0230ED8EC35F0120049
:101C5800000E116E0B0E106E62EC32F00101A651EF
:101C6800101861E1A75111185EE1A85112185BE143
:101C7800A9511318D8A457D05150591850E15250AF
:101C88005A184DE153505B184AE154505C18D8A4D7
:101C980046D0000E2C6E0B0E2B6E59C02DF05AC07C
:101CA8002EF05BC02FF05CC030F005EC34F059C06A
:101CB800A6F15AC0A7F15BC0A8F15CC0A9F1AAECD3
:101CC80035F0010E1E6E7C0E1D6E000E1F6E000E8E
:101CD800206E000E216E000E226EF3EC30F0010E25
:101CE8001E6E7E0E1D6E000E1F6E000E206E000E04
:101CF800216E000E226EF3EC30F0010E1E6E800E87
:101D08001D6E000E1F6E000E206E000E216E000E5E
:101D1800226EF3EC30F0220ED8EC35F01200210ED2
:101D2800D8EC35F01200200ED8EC35F012001D501A
:101D3800800B266E1D501D24286E1CBE288028503E
:101D4800D8B40DD02828D8A408D0000E1A6E000EDA
:101D58001B6E000E1C6E000E1D6E1C8E08D0000E31
:101D68001A6E000E1B6E000E1C6E000E1D6E2150AA
:101D7800800B261A21502124276E20BE2780275049
:101D8800D8B40DD02728D8A408D0000E1E6E000E97
:101D98001F6E000E206E000E216E208E08D0000EE1
:101DA8001E6E000E1F6E000E206E000E216E275054
:101DB800D8B403D02850D8A409D0000E1A6E000E4B
:101DC8001B6E000E1C6E000E1D6E120020501A02B3
:101DD800F3CF31F0F4CF32F03150296E2A6A2B6AF2
:101DE8002C6A32502D6E2E6A2F6A306A1F501B02E1
:101DF800F3CF31F0F4CF32F031502926000E2A22E9
:101E08002B222C2232502D26000E2E222F22302259
:101E18001E501C02F3CF31F0F4CF32F03150292696
:101E2800000E2A222B222C2232502D26000E2E2282
:101E38002F2230222BC02CF02AC02BF029C02AF0E8
:101E4800296A1E501B02F3CF31F0F4CF32F0315023
:101E5800292632502A22000E2B22000E2C221F5037
:101E68001A02F3CF31F0F4CF32F031502926325034
:101E78002A22000E2B22000E2C222BC02CF02AC066
:101E88002BF029C02AF0296A1E501A02F3CF31F02C
:101E9800F4CF32F03150292632502A22000E2B225C
:101EA800000E2C2220501B02F3CF31F0F4CF32F079
:101EB80031502D2632502E22000E2F22000E3022B5
:101EC8001F501C02F3CF31F0F4CF32F031502D26E1
:101ED80032502E22000E2F22000E302220501C02DB
:101EE800F3CF31F0F4CF32F03150226E3250236EFE
:101EF800246A256A24C025F023C024F022C023F0D8
:101F0800226A22502D2623502E2224502F2225507B
:101F180030222C502D26000E2E222F2230222BC0AC
:101F28002CF02AC02BF029C02AF0296A275028C093
:101F380022F0236A2226000E2322820E2224316EEA
:101F4800FF0E2320326E0FD0D8902D362E362F3626
:101F580030362CBE2D80D89029362A362B362C3692
:101F68003106D8A032062FAEEFD7000E276E2CAE62
:101F780017D0FF0E2914226EFF0E2A14236EFF0EAF
:101F88002B14246E7F0E2C14256E2250231024103F
:101F98002510D8B403D0010E276E02D02DB0FBD780
:101FA8002750D8B41FD0010E2D26000E2E222F2226
:101FB800302230A017D02DC022F02EC023F02FC021
:101FC80024F030C025F02534253224322332223241
:101FD80022C02DF023C02EF024C02FF025C030F0F1
:101FE800314A322A32BE0DD0325003E13128D8A00E
:101FF80008D0000E2D6E000E2E6E800E2F6E7F0EF6
:1020080020D032BE05D032500EE13104D8B00BD00A
:10201800000E2D6E000E2E6E000E2F6E000E306E0E
:10202800000E266E0FD031C028F0FF0E2D16FF0EC1
:102038002E167F0E2F16000E301628B02F8ED89031
:102048002830306E265030122DC01AF02EC01BF0EA
:102058002FC01CF030C01DF01200ACC23DF0ADC264
:102068003CF0AEC23BF0AFC23AF02AD1ABC225F089
:10207800266AACC227F084EC2EF0030EEEEC33F0A7
:10208800BAEC35F01200ABC20CF00D6ABAEC32F0C3
:10209800386E010EEEEC33F038505DEC35F012007E
:1020A800ABC233F0AD51ACC22FF0306A2FC030F064
:1020B8002F6A2F10316E3050326E33C02BF02C6ADD
:1020C80031C02DF032C02EF094EC34F0030EEEEC5B
:1020D80033F0D6D7ABC210F0116A27EC33F010C03A
:1020E80036F011C037F0020EEEEC33F036C00DF0CA
:1020F80037C00EF0C1EC35F01200ABC22BF02C6AE1
:10210800AC0E2D6E020E2E6EA6EC31F0030EEEEC28
:1021180033F0B6D7ABC210F0116A4A0E126E030E36
:10212800136E0CEC33F04A0EEEEC33F04A0E0D6EE3
:10213800030E0E6E0CEC2CF012003AC021F03BC0DE
:1021480022F03CC023F03DC024F0B00E256E020EF4
:10215800266EAB515BEC34F0030EEEEC33F090D707
:102168003AC01FF03BC020F03CC021F03DC022F037
:10217800AB51D6EC33F0386E010EEEEC33F038503C
:102188005DEC35F01200B0C234F0B1C235F03AC09F
:1021980021F03BC022F03CC023F03DC024F0340EB7
:1021A800256EAB51CCEC34F0030EEEEC33F068D76F
:1021B8003AC01FF03BC020F03CC021F03DC022F0E7
:1021C800AB51F1EC32F01FC036F020C037F0020EF0
:1021D800EEEC33F08BD7B0C239F03AC012F03BC006
:1021E80013F03CC014F03DC015F039C016F0000ED5
:1021F800176E030E186EAB5135EC18F03950EEEC33
:1022080033F0000E0D6E030E0E6E39C00FF01CEC8D
:1022180034F012003AC00FF03BC010F03CC011F08F
:102228003DC012F0B0C213F0B10E146E020E156E5E
:10223800AB51F4EC18F0030EEEEC33F021D73AC0B2
:102248000FF03BC010F03CC011F03DC012F0B00ED2
:10225800136E020E146EAB51FDEC1FF0030EEEEC84
:1022680033F00ED73AC012F03BC013F03CC014F064
:102278003DC015F04A0E166E030E176EAB51AAEC50
:1022880016F04A0E0C6E030E0D6E63EC31F00C5016
:10229800EEEC33F04BD7ACC221F0AB51B6EC2DF0DD
:1022A800030EEEEC33F0ECD6AB512F6EAC511A6E38
:1022B8002FC01BF0A5EC33F0030EEEEC33F0E0D6A4
:1022C800A9512F6E306A3050000AD8A412002F503E
:1022D800080AD8B4CBD6010AD8B4D5D6030AD8B4DC
:1022E800DFD6010AD8B4F6D6070AD8B406D7010A49
:1022F800D8B410D71C0AD8B420D7030AD8B430D71A
:10230800010AD8B440D7070AD8B452D7010AD8B4BA
:1023180096D7030AD8B4A6D7010AD8B47BD70F0A30
:10232800D8B459D7010AD8B4B6D7380AD8A41200F5
:10233800BBD7000E316E29D031C024F0D89024329A
:1023480024282D6E3150010B306E30C028F01A0E43
:102358000C6E010E0D6E280E0E6E2D5052EC1EF0F6
:102368003150020DC00EF324D96E010EF420DA6E3E
:102378000CC0DEFF0DC0DDFF920E2D24D96EDA6A87
:10238800010EDA22010EDF6E312A6C50020D315037
:10239800246E256AF350245C2550800A266EF4507A
:1023A800800A2658D8A0C8D7320E0C6E000E0D6EC3
:1023B800000E0E6E000E0F6E19EC31F00101BF8792
:1023C800000E316EE6D0000E1E6E990E1D6E315055
:1023D800020DC00EF324D96E010EF420DA6EDECFA2
:1023E8001FF0DDCF20F033EC35F03150020DC00E78
:1023F800F324D96E010EF420DA6EDECFAAF1DDCF18
:10240800ABF1C6D0000E1E6E970E1D6E3150020D38
:10241800C00EF324D96E010EF420DA6EDECF1FF061
:10242800DDCF20F033EC35F03150020DC00EF3242F
:10243800D96E010EF420DA6EDECFACF1DDCFADF14E
:10244800A7D0000E1E6E960E1D6E3150020DC00EE6
:10245800F324D96E010EF420DA6EDECF1FF0DDCF43
:1024680020F033EC35F03150020DC00EF324D96E54
:10247800010EF420DA6EDECFAEF1DDCFAFF188D0F9
:102488003150FC0F306E30500C0DF3CF24F0F4CFE8
:1024980025F0E60E24242B6E000E25202C6E900EBF
:1024A80030242E6E2F6A010E2F22010E2B241D6E52
:1024B800000E2C201E6E3050246E256AD8902436CB
:1024C8002536C80E2424D96E010E2520DA6EDECFFB
:1024D8001FF0DDCF20F033EC35F03050246E256A44
:1024E800D89024362536C80E2424D96E010E25200E
:1024F800DA6E010EDBAE11D0700EDE5CFE0EDE5819
:10250800D8B00BD02EC01DF02FC01EF0000E206ECC
:10251800010E1F6E33EC35F03BD03050246E256A27
:10252800D89024362536C80E2424D96E010E2520CD
:10253800DA6EDE280EE1DE28D8A40BD02EC01DF0FE
:102548002FC01EF0000E206E000E1F6E33EC35F00B
:102558001FD02EC01DF02FC01EF0000E206E030EDF
:102568001F6E33EC35F014D03150246E256A255097
:10257800000AD8A485D72450000AD8B424D7010A61
:10258800D8B440D7030AD8B45CD7010AD8A478D7FE
:10259800312A6C50020D3150246E256AF350245CA8
:1025A8002550800A266EF450800A2658D8A0DCD719
:1025B8000101BF97120044EC32F0140E236EFE0E98
:1025C800246E60EC28F0230E236EFF0E246E60EC60
:1025D80028F0000E206EAA0E1F6EF0EC34F01F04D7
:1025E8002010D8A41200000E1E6EAA0E1D6E000E3A
:1025F800206E000E1F6E33EC35F0000E1B6E000EC1
:102608001A6E43EC35F0000E116E220E106E27EC98
:1026180033F010C049F011C04AF049C01BF04AC05D
:102628001CF0000E1D6E030E1E6E000E206E0A0EAC
:102638001F6E08EC21F04A0E106E030E116E910EFB
:10264800126EFF0E136E65EC2FF04A0E1A6E030E13
:102658001B6E000E1C6E030E1D6E6EEC34F04A0EDF
:10266800236E030E246E60EC28F0010E486E64D0D1
:102678004A0E106E030E116EE90E126EFF0E136EE7
:1026880065EC2FF048C01BF01C6A000E1D6E030E8F
:102698001E6E000E206E0A0E1F6E08EC21F04A0E08
:1026A8001A6E030E1B6E000E1C6E030E1D6E6EEC72
:1026B80034F0000E106E030E116E980E126EFF0E9F
:1026C800136E65EC2FF04A0E1A6E030E1B6E000E89
:1026D8001C6E030E1D6E6EEC34F0100E456E0B0E64
:1026E8000F6E010E106E450E116E126A485060ECA6
:1026F80023F00FC049F010C04AF049C01BF04AC08F
:102708001CF0000E1D6E030E1E6E000E206E0A0ECB
:102718001F6E08EC21F04A0E1A6E030E1B6E000E97
:102728001C6E030E1D6E6EEC34F04A0E236E030E03
:10273800246E60EC28F0482A48506C5CD8B098D7D2
:10274800EC0E236EFE0E246E60EC28F0000E116E67
:10275800E80E106E27EC33F010C049F011C04AF0B3
:1027680049C01BF04AC01CF04A0E1D6E030E1E6EB7
:10277800000E206E0A0E1F6E08EC21F04A0E1A6E2B
:10278800030E1B6EBD0E1C6EFF0E1D6E6EEC34F03C
:102798004A0E236E030E246E60EC28F0980E0C6E21
:1027A8003A0E0D6E000E0E6E000E0F6E57EC30F0E6
:1027B800000E1B6E0F0E1A6E43EC35F01200000E61
:1027C800206EA80E1F6EF0EC34F01F042010D8A461
:1027D8001ED0000E1E6EA80E1D6E000E206E000E7E
:1027E8001F6E33EC35F06750D8B40CD0000E4A6E2B
:1027F8004A50B2EC19F04A2A0E0E4A64F9D7CCECCA
:1028080030F005D0520ED8EC35F002EC35F0000E61
:10281800206EA70E1F6EF0EC34F01F042010D8A411
:102828003AD0000E1E6EA70E1D6E000E206E000E12
:102838001F6E33EC35F06750D8B428D0630E216E84
:10284800FE0E226E070E246ED00E236E000E256E2D
:10285800010E266E4CEC29F0000E4B6E4B50E2EC4C
:102868001EF04B2A090E4B64F9D79C0E216EFF0E01
:10287800226E070E246ED00E236E010E256E000EFA
:10288800266E4CEC29F0CCEC30F005D0520ED8EC8A
:1028980035F002EC35F0000E206EA60E1F6EF0EC3F
:1028A80034F01F042010D8A433D0000E1E6EA60EDC
:1028B8001D6E000E206E000E1F6E33EC35F0675053
:1028C800D8B421D0D80E216EFE0E226E070E246ECB
:1028D800D00E236E000E256E010E266E4CEC29F0EC
:1028E800E5EC14F09C0E216EFF0E226E070E246E8E
:1028F800D00E236E010E256E000E266E4CEC29F0CC
:10290800CCEC30F005D0520ED8EC35F002EC35F0B6
:10291800000E206EA90E1F6EF0EC34F01F0420107C
:10292800D8A41200000E1E6EA90E1D6E000E206E99
:10293800000E1F6E33EC35F06750D8B43CD0B20EA1
:10294800216EFF0E226E070E246ED00E236E000E2F
:10295800256E010E266E4CEC29F0130E0101F119BB
:10296800F211D8A402D0000E496E150EF119F21119
:10297800D8A402D0050E496E050E346E4950EDEC10
:1029880022F0000E4C6E4C50B2EC19F04C2A0E0E90
:102998004C64F9D7CCEC30F0C70E216EFF0E226ED6
:1029A800070E246ED00E236E010E256E000E266EC5
:1029B8004CEC29F01200520ED8EC35F002EC35F050
:1029C8001200040E206E20C01BF0D8901B321B286A
:1029D800246E2050010B256E2050120DF350EC0F81
:1029E8001F6E010E1F24106E116A000E112227ECB3
:1029F80033F010C01DF011C01EF02550070DF3CFA5
:102A080021F01EC022F01DC023F00A0E0F6E030E27
:102A1800106E210E116E126A245060EC23F0070E1E
:102A28001C6E170E1B6E6A0EE82EFED71B2EFCD7E7
:102A38001C2EFAD700D02550070DF350020F216E37
:102A4800030E1F240C6E0D6A000E0D22BAEC32F034
:102A5800226E080E0F6E020E106E210E116E126A93
:102A6800245060EC23F0070E1C6E170E1B6E6A0EC6
:102A7800E82EFED71B2EFCD71C2EFAD700D02550E7
:102A8800070DF350030F216E040E1F240C6E0D6A00
:102A9800000E0D22BAEC32F0226E080E0F6E020EF6
:102AA800106E210E116E126A245060EC23F0070E8E
:102AB8001C6E170E1B6E6A0EE82EFED71B2EFCD757
:102AC8001C2EFAD700D02550070DF350040F216EA5
:102AD800050E1F240C6E0D6A000E0D22BAEC32F0A2
:102AE800226E080E0F6E020E106E210E116E126A03
:102AF800245060EC23F0070E1C6E170E1B6E6A0E36
:102B0800E82EFED71B2EFCD71C2EFAD700D0100EAD
:102B18001F24106E116A000E112227EC33F010C02A
:102B28001DF011C01EF02550070DF350050F216E42
:102B38001EC022F01DC023F00A0E0F6E030E106E89
:102B4800210E116E126A245060EC23F0070E1C6EE1
:102B5800170E1B6E6A0EE82EFED71B2EFCD71C2EF6
:102B6800FAD700D02504D8A40AD0010E0F6E000EA3
:102B7800106E210E116E126A245060EC23F0202A88
:102B88000E0E206420D71200030E0F6E000E106E7A
:102B9800000E116E030E126E485060EC23F0000E0A
:102BA8006C6E4A0E106E030E116E830E126EFD0EC1
:102BB800136E65EC2FF04A0E1A6E030E1B6E110E83
:102BC8001C6EFF0E1D6E6EEC34F04A0E1A6E030E6C
:102BD8001B6ED90E1C6EFF0E1D6E6EEC34F04A0E85
:102BE800236E030E246E60EC28F0010E486E640E0E
:102BF8000C6E000E0D6E000E0E6E000E0F6E57EC72
:102C080030F028EC2AF0030E0F6E000E106E000E46
:102C1800116E030E126E485060EC23F00FC046F0A0
:102C280010C047F047C045F0462803E14728D8B40C
:102C380061D06C2A4A0E106E030E116E830E126E4E
:102C4800FD0E136E65EC2FF048C01BF01C6A4A0E8F
:102C58001D6E030E1E6E000E206E0A0E1F6E08EC0F
:102C680021F04A0E1A6E030E1B6EF50E1C6EFF0E37
:102C78001D6E6EEC34F04A0E1A6E030E1B6E455034
:102C8800020DF350F40FD96EDA6ADECF1CF0DDCFF7
:102C98001DF06EEC34F04A0E1A6E030E1B6E820E97
:102CA8001C6EFD0E1D6E6EEC34F0000E106E030EE1
:102CB800116E820E126EFD0E136E65EC2FF02B0E48
:102CC8000F6E000E106E000E116E030E126E48503D
:102CD80060EC23F04A0E1A6E030E1B6E000E1C6E7B
:102CE800030E1D6E6EEC34F04A0E236E030E246E36
:102CF80060EC28F0482A0E0E486479D76C50D8A4A6
:102D080007D04A0E236EFE0E246E60EC28F01200E7
:102D18006CC01BF01C6A4A0E1D6E030E1E6E000E60
:102D2800206E0A0E1F6E08EC21F04A0E1A6E030E72
:102D38001B6E7C0E1C6EFE0E1D6E6EEC34F04A0E81
:102D4800236E030E246E60EC28F012001A6E000E3B
:102D58001B6E155005E1020E145CD8B0120001D0AC
:102D68001200155003E11404D8A002D0080E01D0B7
:102D7800000E1B6E1AC01CF0D8901C36A00E1C1238
:102D88001C801B501C128EEC35F01CC018F0FE0E77
:102D9800181618500D6E0E6ACEEC35F013C00DF0F3
:102DA8000E6ACEEC35F012C00DF00E6ACEEC35F09E
:102DB800E2EC35F01CC00DF00E6ACEEC35F0000EDA
:102DC800196E155079E1020E145CD8B075D012C096
:102DD80018F0010E18267F0E1816D8A44CD0000E35
:102DE8000E6E000E0D6E25EC32F00D5016C0D9FF98
:102DF80017C0DAFFDF6ED3EC35F0340E186EF20E22
:102E0800E82EFED7182EFCD7010E1226000E13222C
:102E180014221522164A172A155003E11404D8A0C3
:102E280002D0080E01D0000E1B6E1AC01CF0D890FC
:102E38001C36A00E1C121C801B501C128EEC35F088
:102E48001CC018F0FE0E181618500D6E0E6ACEEC47
:102E580035F013C00DF00E6ACEEC35F012C00DF04F
:102E68000E6ACEEC35F0E2EC35F01CC00DF00E6ABF
:102E7800CEEC35F01BD0000E0E6E010E0D6E25EC5B
:102E880032F00D5016C0D9FF17C0DAFFDF6E16C03A
:102E9800D9FF17C0DAFFDF50D8B40ED0164A172A68
:102EA800010E1226000E132214221522192A1904C3
:102EB800186E3F0E186485D7000E0E6E000E0D6E4C
:102EC80025EC32F0D3EC35F0070E186EC00EE82E64
:102ED800FED7182EFCD71200000E166EB30E156E14
:102EE800F00E176E186A040E196E92EC26F0F2C0F6
:102EF8002BF02C6A2D6A2E6A2DC02EF02CC02DF0D6
:102F08002BC02CF02B6AF1C02FF0306A316A326A7C
:102F180030C032F02FC031F0306A2F6AF0C033F081
:102F2800346A356A366A33C036F0356A346A336AC9
:102F38002F503324376E30503420386E31503520BE
:102F4800396E325036203A6E2B5037243B6E2C5057
:102F580038203C6E2D5039203D6E2E503A203E6E62
:102F68000001F3513B243F6E000E3C20406E000EE2
:102F78003D20416E000E3E20426E3F5040104110F1
:102F88004210D8B412000101A6513F1869E1A751B7
:102F9800401866E1A851411863E1A9514218D8A424
:102FA8001200000E1E6EB30E1D6E000E1F6E000E78
:102FB800206E000E216E000E226EF3EC30F0000E33
:102FC800206EB20E1F6EF0EC34F01F042010D8A44F
:102FD8001CD0000E6B6E000E676E00019A699B692B
:102FE800000E1E6EB20E1D6E000E206E000E1F6EBD
:102FF80033EC35F0000E1E6E9A0E1D6E000E206E1C
:10300800000E1F6E33EC35F027D0000E206EB20E86
:103018001F6EF0EC34F01F502010D8A41DD0010E04
:103028006B6E010E676E000E00019B6F0A0E9A6FA1
:10303800000E1E6EB20E1D6E000E206E010E1F6E6B
:1030480033EC35F0000E1E6E9A0E1D6E000E206ECB
:10305800010E1F6E33EC35F0AAEC35F0CCEC30F0F5
:1030680012001C6E000E1D6E155005E1020E145C58
:10307800D8B0120001D01200155003E11404D8A0F2
:1030880002D0080E01D0000E1D6E1CC01EF0D89094
:103098001E36A00E1E121E801D501E128EEC35F01C
:1030A8001EC019F0FE0E191619500D6E0E6ACEECE0
:1030B80035F013C00DF00E6ACEEC35F012C00DF0ED
:1030C8000E6ACEEC35F0E2EC35F01EC00DF00E6A5B
:1030D800CEEC35F0000E1B6E6FD0155071E1020E6C
:1030E800145CD8B06DD012C019F0010E19267F0EED
:1030F8001916D8A44CD0000E0E6E000E0D6E25ECDD
:1031080032F00D5017C0D9FF18C0DAFFDF6ED3ECCC
:1031180035F0340E196EF20EE82EFED7192EFCD7B4
:10312800010E1226000E132214221522174A182AFD
:10313800155003E11404D8A002D0080E01D0000EE7
:103148001D6E1CC01EF0D8901E36A00E1E121E80CA
:103158001D501E128EEC35F01EC019F0FE0E191609
:1031680019500D6E0E6ACEEC35F013C00DF00E6AD4
:10317800CEEC35F012C00DF00E6ACEEC35F0E2EC74
:1031880035F01EC00DF00E6ACEEC35F014D0000EEE
:103198000E6E010E0D6E25EC32F00D5017C0D9FFE2
:1031A80018C0DAFFDF6E174A182A010E1226000E21
:1031B8001322142215221B2A16501B5CD8A08DD767
:1031C800000E0E6E000E0D6E25EC32F0D3EC35F0CD
:1031D800070E196EC00EE82EFED7192EFCD7120066
:1031E8001E6E125005E1020E115CD8B0120001D01B
:1031F8001200125003E11104D8A002D0080E01D029
:10320800000E1F6E1EC020F0D8902036A00E20128F
:103218001F5020128EEC35F020C00DF00E6ACEEC57
:1032280035F010C00DF00E6ACEEC35F00FC00DF081
:103238000E6ACEEC35F0000E1D6E63D0125005E11B
:10324800020E115CD8B0120001D012000FC016F0A7
:10325800010E16267F0E1616D8A43FD014C0D9FF2B
:1032680015C0DAFFDF50166E16500D6E0E6ACEECE2
:1032780035F0D3EC35F0340E166EF20EE82EFED78C
:10328800162EFCD7010E0F26000E10221122122234
:10329800144A152A125003E11104D8A002D0080ECE
:1032A80001D0000E1F6E1EC020F0D8902036A00E50
:1032B80020121F5020128EEC35F020C00DF00E6A3F
:1032C800CEEC35F010C00DF00E6ACEEC35F00FC024
:1032D8000DF00E6ACEEC35F013D014C0D9FF15C02E
:1032E800DAFFDF50166E16500D6E0E6ACEEC35F012
:1032F800144A152A010E0F26000E1022112212223E
:103308001D2AFF0E166EFF0E176E1350186E196ADF
:1033180016501826175019221D501A6E1B6A18507D
:103328001A5C1B50800A1C6E1950800A1C58D8A0C1
:1033380085D714C0D9FF15C0DAFFDF50166E1650B6
:103348000D6E0E6ACEEC35F0D3EC35F0070E166E26
:10335800C00EE82EFED7162EFCD712002F6E2F5067
:10336800010B2B6E2BC028F02F500C0DF3CF24F03F
:10337800F4CF25F0E60E24242C6E000E25202D6EA9
:10338800030E2F641200040E2F5E2F50120DF350FF
:10339800340F2E6E2F50010B2B6E2BC028F02F50A0
:1033A8000C0DF3CF24F0F4CF25F0E60E24242C6E78
:1033B800000E25202D6E2CC01DF02DC01EF02EC035
:1033C8000CF00D6ABAEC32F0246E010E24241F6E44
:1033D800206A000E202233EC35F0020E2C241D6EDC
:1033E800000E2D201E6E010E2E24106E116A000E86
:1033F800112227EC33F010C01FF011C020F033EC7D
:1034080035F0030E2C241D6E000E2D201E6E030EAB
:103418002E240C6E0D6A000E0D22BAEC32F0246ECA
:1034280024501F6E206A33EC35F0040E2C241D6ED8
:10343800000E2D201E6E040E2E240C6E0D6A000E3A
:103448000D22BAEC32F0246E24501F6E206A33EC41
:1034580035F0050E2C241D6E000E2D201E6E050E57
:103468002E240C6E0D6A000E0D22BAEC32F0246E7A
:1034780024501F6E206A33EC35F0060E2E24106E91
:10348800116A000E11224A0E126E030E136E0CEC16
:1034980033F0060E2C241D6E000E2D201E6E4A0ED3
:1034A8001F6E030E206E81EC34F00B0E2C241D6E63
:1034B800000E2D201E6E100E2E24106E116A000EA6
:1034C800112227EC33F010C01FF011C020F033ECAC
:1034D80035F012005A0E0E6EA50E0D6EC1EC35F0C9
:1034E800030E5DEC35F0810E5DEC35F0200E5DECE1
:1034F80035F0070E5DEC35F006EC32F00009D8B473
:1035080010D0000E3C6E3C50AC0FD96EDA6A3C50BD
:10351800200FE16EE26ADFCFE7FF3C2A090E3C6428
:10352800F2D72A0E0C6E205073EC33F02D0E0C6E71
:10353800215073EC33F0300E0C6E225073EC33F0E4
:103548001EC010F0116A830E126EFD0E136E65EC2C
:103558002FF01EC01AF01B6A300E1C6E1D6A6EEC2E
:1035680034F01EC01AF01B6AFC0E1C6EFF0E1D6E96
:103578006EEC34F01EC01AF01B6A2D0E1C6E1D6A0C
:103588006EEC34F01EC01AF01B6AFC0E1C6EFF0EA7
:103598001D6E6EEC34F01EC01AF01B6A2A0E1C6EEB
:1035A8001D6A6EEC34F0330E0C6E245073EC33F05D
:1035B800360E0C6E255073EC33F0390E0C6E265017
:1035C80073EC33F01FC010F0116A830E126EFD0EFB
:1035D800136E65EC2FF01FC01AF01B6A330E1C6EB9
:1035E8001D6A6EEC34F01FC01AF01B6AFD0E1C6ECB
:1035F800FE0E1D6E6EEC34F01FC01AF01B6A360EFC
:103608001C6E1D6A6EEC34F01FC01AF01B6AFD0EAA
:103618001C6EFE0E1D6E6EEC34F01FC01AF01B6A95
:10362800390E1C6E1D6A6EEC34F0010E0C6E000E25
:103638000D6E000E0E6E000E0F6E19EC31F01200BA
:10364800000E166E9B0E156EF00E176E186A040E9D
:10365800196E92EC26F0F2C027F0286A296A2A6AC5
:1036680029C02AF028C029F027C028F0276AF1C00D
:103678002BF02C6A2D6A2E6A2CC02EF02BC02DF050
:103688002C6A2B6AF0C02FF0306A316A326A2FC078
:1036980032F0316A306A2F6A2B502F24336E2C5047
:1036A8003020346E2D503120356E2E503220366E3B
:1036B80027503324376E28503420386E295035204F
:1036C800396E2A5036203A6E0001F35137243B6E8A
:1036D800000E38203C6E000E39203D6E000E3A2058
:1036E8003E6E3B503C103D103E10D8B435D0010121
:1036F800A6513B1831E1A7513C182EE1A8513D18BD
:103708002BE1A9513E18D8A427D0750E00019B6F54
:10371800300E9A6F010E676E000E1E6E9A0E1D6EA9
:10372800000E206E010E1F6E33EC35F0000E1E6E7B
:103738009B0E1D6E000E206E000E1F6E33EC35F0D2
:10374800000E1E6E9C0E1D6E000E206E000E1F6E6B
:1037580033EC35F0CCEC30F06704D8A411D000017C
:103768009BAF0ED0000E676E000E1E6E9A0E1D6E79
:10377800000E206E000E1F6E33EC35F002EC35F0B3
:1037880098EC35F05A0AD8A41200750E00019B6F08
:10379800300E9A6F000E6AEC35F01200000E206EA3
:1037A800040E1F6EF0EC34F01F042010D8B46DB670
:1037B8001BD06D8600018C510101AE5DAF51800AAE
:1037C800316E00018D51800A3158D8B007D0010EF2
:1037D80013EC35F0010E09EC30F01200000E13EC7A
:1037E80035F0D6EC32F01200000E206E040E1F6E7B
:1037F800F0EC34F01F502010D8B46DA653D06D965D
:10380800000E13EC35F0000E1E6E060E1D6E000E37
:10381800206E000E1F6E33EC35F0420ED8EC35F0FA
:10382800000E1E6E160E1D6E000E206E000E1F6E10
:1038380033EC35F0000E336E000E326E010E0C6E56
:10384800000E0D6E000E0E6E000E0F6E19EC31F0AC
:10385800000E206E060E1F6EF0EC34F01F50201084
:10386800D8A40BD00400324A332A33BEE7D7100E4F
:10387800325C270E3358D8A0E1D7000E206E060E12
:103888001F6EF0EC34F0F10E1F182010D8A41200AF
:10389800000E09EC30F0000E686E000E696ECCEC7C
:1038A80030F01200000E206E040E1F6EF0EC34F0A3
:1038B8001F042010D8A412006DA6120000018C511C
:1038C8000101AE5DAF51800A316E00018D51800A51
:1038D8003158D8B006D0010E13EC35F00101BF897C
:1038E8001200000E13EC35F07CD72A6E2A500C0D0E
:1038F800F3CF24F0F4CF25F0E60E24242B6E000E2F
:1039080025202C6E2A50120DF350340F2D6E2A509C
:10391800010B296E29C026F02BC01DF02CC01EF00B
:103928002DC00CF00D6ABAEC32F0246E24501F6ED4
:10393800206A33EC35F0020E2B241D6E000E2C206D
:103948001E6E010E2D24106E116A000E112227EC36
:1039580033F010C01FF011C020F033EC35F0030E27
:103968002B241D6E000E2C201E6E030E2D240C6EB3
:103978000D6A000E0D22BAEC32F0246E24501F6E30
:10398800206A33EC35F0040E2B241D6E000E2C201B
:103998001E6E040E2D240C6E0D6A000E0D22BAEC5C
:1039A80032F0246E24501F6E206A33EC35F0050E79
:1039B8002B241D6E000E2C201E6E050E2D240C6E61
:1039C8000D6A000E0D22BAEC32F0246E24501F6EE0
:1039D800206A33EC35F0060E2D24106E116A000EA5
:1039E80011224A0E126E030E136E0CEC33F0060E03
:1039F8002B241D6E000E2C201E6E4A0E1F6E030E09
:103A0800206E81EC34F00B0E2B241D6E000E2C2042
:103A18001E6E100E2D24106E116A000E112227EC56
:103A280033F010C01FF011C020F033EC35F0120055
:103A3800146E1450D8A40FAE1AD00CC010F00DC0DC
:103A480011F00EC012F00FC013F0101E111E121E3E
:103A5800131E102A000E11221222132210C016F073
:103A680011C017F012C018F013C019F008D00CC01C
:103A780016F00DC017F00EC018F00FC019F00C505A
:103A88000D100E100F10D8A409D0000E0C6E000EE9
:103A98000D6E000E0E6E000E0F6E1200960E156E55
:103AA80006D0152AD8901932183217321632000E5D
:103AB8001614106E000E1714116E000E1814126EE4
:103AC800FE0E1914136E1050111012101310D8B4E2
:103AD8000DD0E7D7152A010E1626000E1722182238
:103AE8001922D8901932183217321632000E1614CD
:103AF800106E000E1714116E000E1814126EFF0EC1
:103B08001914136E1050111012101310D8B407D0D6
:103B1800E1D71506D890163617361836193618BE56
:103B280003D0020E1560F5D715A0189ED89015324F
:103B380015C010F0116A126A136A10C013F0126AE5
:103B4800116A106A105016121150171212501812DA
:103B5800135019121450D8A40FAE01D0198E16C0E4
:103B68000CF017C00DF018C00EF019C00FF01200BD
:103B78000F50D96EDA6A060ED926DF50116E0F5033
:103B8800D96EDA6A070ED926DF50126E000E136E50
:103B98000F50D96EDA6A030ED926DF50146E0F5013
:103BA800D96EDA6A040ED926DF50156E000E166E2D
:103BB8000F50D96EDA6ADF50176E0F50D96EDA6A75
:103BC800010ED926DF50186E000E196E1050D96EEE
:103BD800DA6ADF501A6E1050D96EDA6A010ED926E9
:103BE800DF501B6E000E1C6E1050D96EDA6A030E81
:103BF800D926DF501D6E1050D96EDA6A040ED92608
:103C0800DF501E6E000E1F6E1050D96EDA6A060E57
:103C1800D926DF50206E1050D96EDA6A070ED926E1
:103C2800DF50216E000E226E5A0E0E6EA50E0D6E1E
:103C3800C1EC35F00A0E5DEC35F0800E5DEC35F028
:103C48001F0E5DEC35F05A0E5DEC35F0110E0C6E62
:103C5800DEEC34F05DEC35F0140E0C6EDEEC34F076
:103C68005DEC35F0170E0C6EDEEC34F05DEC35F0E3
:103C7800010E5DEC35F01A0E0C6EDEEC34F05DECE6
:103C880035F01D0E0C6EDEEC34F05DEC35F0200ED8
:103C98000C6EDEEC34F05DEC35F01200116E69D07C
:103CA8000E50D96EDA6ADF50D8A405D0000E0D6E1A
:103CB800640E0C6E1200000E0D6EC80E0C6E120013
:103CC8000E50D96EDA6ADF50D8A405D0010E0D6EF9
:103CD8002C0E0C6E12000C680D6812000E50D96E76
:103CE800DA6ADF50D8A405D0010E0D6E900E0C6E66
:103CF8001200010E0D6EF40E0C6E12000E50D96EED
:103D0800DA6ADF50D8A405D0020E0D6E580E0C6E7C
:103D18001200020E0D6EBC0E0C6E12000E50D96E03
:103D2800DA6ADF50D8A405D0030E0D6E200E0C6E93
:103D38001200030E0D6E840E0C6E12000E50D96E1A
:103D4800DA6ADF50D8A4D5D7040E0D6E4C0E0C6E6F
:103D580012000E50D96EDA6ADF50D8A405D0040ECE
:103D68000D6EB00E0C6E1200050E0D6E140E0C6E5C
:103D7800120011500F6E106A1050000AD8A419D002
:103D88000F50000AD8B415D0010AD8B489D7030A4D
:103D9800D8B496D7010AD8B4A1D7070AD8B4AED7F1
:103DA800010AD8B4BBD7030AD8B4C8D7010AD8B413
:103DB800D0D7000E0D6E000E0C6E1200316E315011
:103DC8000C0DF3CF2FF0F4CF30F0E60E2F24326E27
:103DD800000E3020336E3150120DF350340F346E14
:103DE80034C025F0266A31C027F084EC2EF0010E8D
:103DF80034242B6E2C6A000E2C22020E32241F6EE5
:103E0800000E3320206EF0EC34F01FC02DF020C0DF
:103E18002EF094EC34F0030E3424256E266A000E3E
:103E28002622030E32241F6E000E3320206EF0EC83
:103E380034F01F50276E84EC2EF0040E3424256EC7
:103E4800266A000E2622040E32241F6E000E33202E
:103E5800206EF0EC34F01F50276E84EC2EF0050E27
:103E68003424256E266A000E2622050E32241F6E83
:103E7800000E3320206EF0EC34F01F50276E84ECD7
:103E88002EF0060E32241F6E000E3320206E4A0ECE
:103E9800216E030E226E50EC35F0060E34242B6E84
:103EA8002C6A000E2C224A0E2D6E030E2E6EA6ECE6
:103EB80031F0100E34242B6E2C6A000E2C220B0EBF
:103EC80032241F6E000E3320206EF0EC34F01FC039
:103ED8002DF020C02EF094EC34F0120024C026F00F
:103EE80025C027F0263A273AF00E271626500F0B42
:103EF8002712F00E2616000E2624286E010E272003
:103F0800296E24C015F025C016F0000E186E0A0E92
:103F1800176EA7EC34F0A40E15242A6E010E162095
:103F28002B6E2AC01DF02BC01EF028C010F029C02F
:103F380011F027EC33F010C01FF011C020F033EC63
:103F480035F0010E2A241D6E000E2B201E6E020E67
:103F580028240C6E000E29200D6EBAEC32F0266E65
:103F680026501F6E206A33EC35F0020E2A241D6E8F
:103F7800000E2B201E6E030E28240C6E000E292026
:103F88000D6EBAEC32F0266E26501F6E206A33ECA6
:103F980035F0030E2A241D6E000E2B201E6E040E13
:103FA80028240C6E000E29200D6EBAEC32F0266E15
:103FB80026501F6E206A33EC35F0050E2824106E4B
:103FC800000E2920116E4A0E126E030E136E0CECB1
:103FD80033F0000E0301526F040E2A241D6E000EEA
:103FE8002B201E6E4A0E1F6E030E206E81EC34F0DD
:103FF8001200166E125005E1020E115CD8B01200C4
:1040080001D01200125003E11104D8A002D0080E0A
:1040180001D0000E176E16C018F0D8901836A00EF2
:104028001812175018128EEC35F018C00DF00E6AE1
:10403800CEEC35F010C00DF00E6ACEEC35F00FC0A6
:104048000DF00E6ACEEC35F043D0125057E1020E57
:10405800115CD8B012000FC015F0010E15267F0EA6
:104068001516D8A422D013C0D9FF14C0DAFFDF5028
:10407800156E15500D6E0E6ACEEC35F0D3EC35F09A
:10408800340E156EF20EE82EFED7152EFCD7010E53
:104098000F26000E102211221222134A142A12503F
:1040A800B6E11104D8B0B3D7B4D713C0D9FF14C040
:1040B800DAFFDF50156E15500D6E0E6ACEEC35F036
:1040C800134A142A010E0F26000E10221122122262
:1040D80013C0D9FF14C0DAFFDF50D8A4B6D7000E3A
:1040E8000E6E000E0D6ECEEC35F0D3EC35F0070EEB
:1040F800156EC00EE82EFED7152EFCD71200000153
:10410800A751A6C00EF00F6A0EC00FF00E6A0E2659
:10411800000E0F220CC0D9FF0DC0DAFF0EC0DEFF63
:104128000FC0DDFF20EE02F00C50D9260D50DA2228
:10413800A8C0DFFF20EE03F00C50D9260D50DA227C
:10414800A9C0DFFFAB51AAC00EF00F6A0EC00FF076
:104158000E6A0E26000E0F2220EE04F00C50D9260F
:104168000D50DA220EC0DEFF0FC0DDFF20EE06F094
:104178000C50D9260D50DA22ACC0DFFF000E126EAB
:104188001CD01250AD0FD96EDA6ADF500E6E0F6A6E
:104198001250020D0CC010F00DC011F0F350102693
:1041A800F4501122070E1024D96E000E1120DA6E79
:1041B8000EC0DEFF0FC0DDFF122A20EE02F00C5009
:1041C800D9260D50DA221250DE5CD8B0DAD720EEAC
:1041D80025F00C50D9260D50DA22ADC0DFFF20EEB5
:1041E80026F00C50D9260D50DA220001AE390F0BFB
:1041F8000F0BDF6E20EE27F00C50D9260D50DA2277
:10420800AE510F0BDF6E1200000E276E000E266EE9
:10421800000E236E1B501C10D8A411D01DC0D9FF4E
:104228001EC0DAFF300EDF6E264A272A26501D24CC
:10423800D96E27501E20DA6E000EDF6E12001CAEFB
:1042480042D00A0E1F182010D8A43DD0010E236EAC
:104258001B6C1C1ED8B01C2A36D01BC00CF01CC00E
:104268000DF01FC00EF020C00FF047EC2DF00CC071
:1042780024F00DC025F025BE06D0255006E10A0E13
:10428800245CD8B002D0300E01D0570E2424216E01
:10429800000E2520226E26501D24D96E27501E2080
:1042A800DA6E21C0DFFF264A272A1BC00CF01CC08B
:1042B8000DF01FC00EF020C00FF0CAEC2BF00CC0A0
:1042C8001BF00DC01CF01B501C10D8A4C6D72350DF
:1042D800D8B40AD026501D24D96E27501E20DA6E75
:1042E8002D0EDF6E264A272A26501D24D96E275008
:1042F8001E20DA6E000EDF6E1DC010F01EC011F019
:104308006FEC2AF01200000E476E000E466E000E8B
:10431800436E000E426E19C00CF01AC00DF01BC09F
:104328000EF01CC00FF01FC010F020C011F0000EDE
:1043380011BEFF0E126E136EECEC2DF00CC044F0A3
:104348000DC045F045BE06D045500EE10A0E445C4E
:10435800D8B00AD04650210FD96EDA6A4450300FCF
:10436800DF6E464A472A07D04650210FD96EDA6ACF
:104378004450370FF5D719C00CF01AC00DF01BC008
:104388000EF01CC00FF01FC010F020C011F0000E7E
:1043980011BEFF0E126E136E4EEC2CF00CC019F00D
:1043A8000DC01AF00EC01BF00FC01CF019501A10E7
:1043B8001B101C10D8A4AFD74606D8A0470611D0AA
:1043C8004650210FD96EDA6A42501D24E16E4350DF
:1043D8001E20E26EDFCFE7FF4606D8A04706424A16
:1043E800432A47AEEDD742501D24D96E43501E20B4
:1043F800DA6E000EDF6E1200020E0F6E000E106EE7
:10440800460E116E126AFF0E60EC23F0000E496E24
:104418005CD04950020D000EF324D96E020EF42030
:10442800DA6EDE50DE10D8B44FD04950040D1E0E9F
:10443800F324D96E020EF420DA6EDECF1EF0DECF42
:104448001FF0DECF20F0DECF21F04950020D000E24
:10445800F324D96E020EF420DA6EDECF43F0DDCFFE
:1044680044F043C0D9FF44C0DAFFDECF0CF0DDCF03
:104478000DF0000E0DBEFF0E0E6E0F6E010E1CEC41
:104488001DF00CC01AF00DC01BF00EC01CF00FC0C0
:104498001DF09BEC0EF01AC033F01BC034F01CC0AA
:1044A80035F01DC036F04DEC27F033C03DF034C078
:1044B8003EF05A0E4924D96EDA6A020EDA22DF502B
:1044C800456E45280EEC2FF0492A6C50020D4950D4
:1044D800436E446AF350435C4450800A456EF4507E
:1044E800800A4558D8B0120094D7326E3250120D57
:1044F800F350340F336E33C025F0266A2FC0D9FF2E
:1045080030C0DAFFDF50276E84EC2EF0010E332422
:104518002B6E2C6A000E2C2220EE01F02F50D9268B
:104528003050DA22DECF2DF0DDCF2EF094EC34F0CF
:10453800030E3324256E266A000E262220EE03F091
:104548002F50D9263050DA22DF50276E84EC2EF017
:10455800040E3324256E266A000E262220EE04F06F
:104568002F50D9263050DA22DF50276E84EC2EF0F7
:10457800050E3324256E266A000E262220EE05F04D
:104588002F50D9263050DA22DF50276E84EC2EF0D7
:10459800060E33242B6E2C6A000E2C22060E2F24B6
:1045A8002D6E000E30202E6EA6EC31F0100E332446
:1045B8002B6E2C6A000E2C2220EE0FF02F50D926DD
:1045C8003050DA22DECF2DF0DDCF2EF094EC34F02F
:1045D80012003A6E3AC03BF05AD03B50110D000E13
:1045E800F324D96E040EF420DA6E3BC0DFFF3B5093
:1045F800110D010EF324D96E040EF420DA6E000EAC
:10460800DE6E000EDD6E3B50110D030EF324D96EE5
:10461800040EF420DA6E000EDF6E3B50110D040E0E
:10462800F324D96E040EF420DA6E000EDF6E3B50D0
:10463800110D050EF324D96E040EF420DA6E000E67
:10464800DF6E3B50110D060EF324106E040EF4209D
:10465800116E830E126EFD0E136E65EC2FF03B503B
:10466800110D0F0EF324D96E040EF420DA6E000E2D
:10467800DE6E000EDD6E3B50110D000EF3242F6E22
:10468800040EF420306E3B5079EC22F03B2A345073
:104698003AC035F0366A3526000E36223B50376E62
:1046A800386A3550375C3850800A396E3650800A7F
:1046B8003958D8B0120091D7156E16681768AA0E27
:1046C8000E6EBB0E0D6EC1EC35F0000E5DEC35F0D4
:1046D80015505DEC35F00F505DEC35F010505DEC89
:1046E80035F0000E1A6E0AD01A501124D96E000E39
:1046F8001220DA6EDF505DEC35F01A2A10501A5C81
:10470800D8A0F2D7D50EE82EFED700F06E90000E96
:10471800196E000E186EE40E00D000D0E82EFCD7FB
:1047280000D000D06EA02CD0150E136EC60EE82E49
:10473800FED7132EFCD700D06E90ABC010F000014E
:10474800AD51ACC013F0146A13C014F0136A1310FF
:10475800166E1450176E000E1A6E0DD01A50AC0F4C
:10476800D96EDA6A1A501124E16E000E1220E26E38
:10477800DFCFE7FF1A2A10501A5CD8B00BD0EED75B
:10478800184A192A19BEC7D7900E185C010E195875
:10479800D8A0C1D716C00FF017C010F01200000E35
:1047A800206E050E1F6EF0EC34F01F042010D8B4F4
:1047B8006DB21DD0000188510101AE5DAF51800A74
:1047C800266E00018951800A2658D8B010D086512B
:1047D8000101AC5DAD51800A266E00018751800A47
:1047E8002658D8B004D06D82010EB4EC2EF0000E1D
:1047F800206E050E1F6EF0EC34F01F502010D8B458
:104808006DA20FD0000EB4EC2EF06D92070E1E6E46
:10481800B20E1D6E830E1F6EFD0E206E81EC34F0FD
:104828001200000E206E050E1F6EF0EC34F01F040F
:104838002010D8A412006DA212000101AE5100018F
:10484800885D8951800A266E0101AF51800A265879
:10485800D8A00CD0AC510001865D8751800A266E25
:104868000101AD51800A2658D8B012006D92000E91
:10487800B4EC2EF012001E6E1E50100DF3CF1CF07B
:10488800F4CF1DF0000E1C241F6E010E1D20206E9B
:104898001FC010F020C011F027EC33F01AC0D9FF68
:1048A8001BC0DAFF10C0DEFF11C0DDFF020E1F249F
:1048B8000C6E000E20200D6EBAEC32F01C6E1D6AD4
:1048C80020EE02F01A50D9261B50DA221CC0DEFF57
:1048D8001DC0DDFF030E1F240C6E000E20200D6E80
:1048E800BAEC32F01C6E1D6A20EE04F01A50D9267C
:1048F8001B50DA221CC0DEFF1DC0DDFF20EE06F0D3
:104908001A50D9261B50DA22040E1F240C6E000EF2
:1049180020200D6EBAEC32F0DF6E050E1F24106EEB
:10492800000E2020116E4A0E126E030E136E0CEC50
:1049380033F0070E1A24106E000E1B20116E4A0E5B
:10494800126E030E136E65EC2FF01200296E2950BB
:104958000C0DF3CF25F0F4CF26F0E60E25242A6EB1
:10496800000E26202B6E020E2A241D6E000E2B2010
:104978001E6EDEC11FF0DFC120F033EC35F0030EF0
:104988002A241D6E000E2B201E6EE0C11FF0E1C10F
:1049980020F033EC35F0040E2A241D6E000E2B2077
:1049A8001E6EE2C11FF0E3C120F033EC35F0050EB6
:1049B8002A241D6E000E2B201E6EE4C11FF0206AF3
:1049C80033EC35F0060E2A241D6E000E2B201E6EC9
:1049D800E50E1F6E010E206E81EC34F02404D8A47D
:1049E8000DD00B0E2A241D6E000E2B201E6E000EFD
:1049F800206E010E1F6E33EC35F012000B0E2A24C8
:104A08001D6E000E2B201E6E000E206E000E1F6EF7
:104A180033EC35F01200CC0EF66E6B0EF76E000E0E
:104A2800F86E01EEEFF010EE04F00900F5CFEEFF9E
:104A3800E550E150FAE1900EF66E6B0EF76E000E3F
:104A4800F86E00EEF4F010EE0CF00900F5CFEEFF72
:104A5800E550E150FAE1D00EF66E6B0EF76E000EDF
:104A6800F86E0900F5CF6FF00900F5CF70F004EE8D
:104A7800AAF011EEBCF0EE6AE550E150FCE1E2501C
:104A8800FAE104EE00F0AA0EEE6AE806FDE103EE94
:104A980000F0EC0EEE6AE806FDE102EE00F0F50E1D
:104AA800EE6AE806FDE101EE92F05D0EEE6AE806B8
:104AB800FDE100EE80F0740EEE6AE806FDE100EE1E
:104AC80061F00E0EEE6AE806FDE171907192000E3B
:104AD800F86E00016AEF01F06750D8B458D0000EA4
:104AE800206ED20E1F6EF0EC34F01FC08CF020C088
:104AF8008DF0000E206ED30E1F6EF0EC34F01FC048
:104B08008AF020C08BF0000E206ED40E1F6EF0ECE1
:104B180034F01FC088F020C089F0000E206ED50E3A
:104B28001F6EF0EC34F01FC086F020C087F0000E36
:104B38002C6E010E2B6E8CC02DF08DC02EF094ECD7
:104B480034F0000E2C6E030E2B6E8AC02DF08BC035
:104B58002EF094EC34F0000E2C6E050E2B6E88C0EF
:104B68002DF089C02EF094EC34F0000E2C6E070E58
:104B78002B6E86C02DF087C02EF094EC34F0510EC9
:104B8800D8EC35F0CCEC30F0D1EC25F01200520E18
:104B9800D8EC35F002EC35F01200000E116E010E63
:104BA800106E27EC33F010C08CF011C08DF0000EA1
:104BB800116E030E106E27EC33F010C08AF011C08E
:104BC8008BF0000E116E050E106E27EC33F010C03E
:104BD80088F011C089F0000E116E070E106E27ECD8
:104BE80033F010C086F011C087F0000E1E6ED20E92
:104BF8001D6E8CC01FF08DC020F033EC35F0000E18
:104C08001E6ED30E1D6E8AC01FF08BC020F033ECD1
:104C180035F0000E1E6ED40E1D6E88C01FF089C0C0
:104C280020F033EC35F0000E1E6ED50E1D6E86C0DA
:104C38001FF087C020F033EC35F0000E1E6EAC0E6E
:104C48001D6E000E116E090E106E27EC33F010C0A9
:104C58001FF011C020F033EC35F012000001A7510D
:104C6800A6C00EF00F6A0EC00FF00E6A0E26000ED8
:104C78000F220CC0D9FF0DC0DAFF0EC0DEFF0FC037
:104C8800DDFF20EE02F00C50D9260D50DA22A8C024
:104C9800DFFF20EE03F00C50D9260D50DA22A9C010
:104CA800DFFF20EE04F00C50D9260D50DA22AAC0FE
:104CB800DFFF20EE05F00C50D9260D50DA22ABC0EC
:104CC800DFFF000E126E000E116E14D01150AC0FE3
:104CD800D96EDA6A11500C240E6E12500D200F6E28
:104CE800060E0E24E16E000E0F20E26EDFCFE7FF06
:104CF800114A122A20EE05F00C50D9260D50DA225E
:104D0800DF500E6E0F6A11500E5C0F50800A106E45
:104D18001250800A1058D8A01200D8D7020E1B6E65
:104D28004D0E1A6E740EE82EFED71A2EFCD71B2EC7
:104D3800FAD700D05A0E0E6EA50E0D6EC1EC35F0E6
:104D4800040E5DEC35F0830E5DEC35F015C00DF00A
:104D580016C00EF0C1EC35F0D89019305DEC35F086
:104D6800850EE82EFED700F0000E1D6E000E1C6E9C
:104D780022D0060E1A6E300EE82EFED71A2EFCD759
:104D880000D06EA016D06E90000E1E6E0DD01E5074
:104D9800AD0FD96EDA6A1E501724E16E000E182086
:104DA800E26EDFCFE7FF1E2A19501E5CD8B009D08B
:104DB800EED71C4A1D2A900E1C5C010E1D58D8A067
:104DC800D8D7010E0C6E000E0D6E000E0E6E000E82
:104DD8000F6E19EC31F01200A50E0C6E020E0D6E5E
:104DE80032EC26F0BB0E0201A51952E1AA0EA61953
:104DF800D8A41200C00EA719D8A449D0000E0101EA
:104E0800B36F050EB26F0201A851D8A404D031ECDB
:104E180010F06E903CD0A7C23EF0A9C20FF0AAC213
:104E280010F0AB0E116E020E126EA85160EC23F05A
:104E38006E90A50E0C6E020E0D6E32EC26F0AA0EC8
:104E48000E6EBB0E0D6EC1EC35F00201A7515DEC84
:104E580035F03E505DEC35F00201A9515DEC35F0BE
:104E68000201AA515DEC35F0000E3F6E0AD0AB0E80
:104E78003F24D96EDA6A020EDA22DF505DEC35F093
:104E88003F2A0201AA513F5CD8B0C3D7F0D76E9031
:104E98001200353436343C6E3C50D8A409D0000E8C
:104EA800336E000E346E000E356E000E366E120034
:104EB80033C037F034C038F035C039F036C03AF076
:104EC800200E05D0D8903A32393238323732E82EAF
:104ED800F9D737503B6E358EFF0E3316FF0E34165A
:104EE800FF0E3516000E3616960E3C5E3CAE0DD003
:104EF8003C50800A970FD8A0D2D7D8903632353296
:104F0800343233323C3EF9D70DD01F0E3C6407D003
:104F1800C6D7D89033363436353636363C063C500C
:104F2800D8A4F7D73B50D8B408D0361E351E341E47
:104F3800336C000E34223522362233C033F034C0AD
:104F480034F035C035F036C036F01200196E010164
:104F5800BFB70CD0020E186E4D0E176E740EE82EE9
:104F6800FED7172EFCD7182EFAD700D05A0E0E6E81
:104F7800A50E0D6EC1EC35F01550020F5DEC35F045
:104F8800810E5DEC35F019505DEC35F015505DEC97
:104F980035F095988388000E1B6E000E1A6E20D08F
:104FA800060E176E300EE82EFED7172EFCD700D04F
:104FB8006EA014D06E90000E1C6E0BD01C50AC0F5F
:104FC800D96EDA6A16501C24E16EE26ADFCFE7FF79
:104FD8001C2A15501C5CD8B009D0F0D71A4A1B2AD5
:104FE800900E1A5C010E1B58D8A0DAD78398010ED0
:104FF8000C6E000E0D6E000E0E6E000E0F6E19EC8C
:1050080031F01200336E3350100DF3CF31F0F4CF7E
:1050180032F0000E3124346E010E3220356E34C069
:105028002BF035C02CF02FC0D9FF30C0DAFFDECF0F
:105038002DF0DDCF2EF094EC34F0020E3424256EE2
:10504800000E3520266E20EE02F02F50D926305063
:10505800DA22DF50276E84EC2EF0030E3424256EFE
:10506800000E3520266E20EE04F02F50D926305041
:10507800DA22DF50276E84EC2EF0040E3424256EDD
:10508800000E3520266E20EE06F02F50D92630501F
:10509800DA22DF50276E84EC2EF0050E34242B6EB6
:1050A800000E35202C6E070E2F242D6E000E30209A
:1050B8002E6EA6EC31F012000101BF87DF0E000151
:1050C800FE5D080EFF59D8B010D0FEC01DF0FFC01D
:1050D8001EF023C01FF024C020F081EC34F01E0E17
:1050E8000001FE27000EFF2335D0070E446ED00EB8
:1050F800436E250E106E116A830E126EFD0E136E2E
:1051080065EC2FF01E0E43241F6E000E4420206E07
:10511800250E216E226A50EC35F043C01DF044C0C4
:105128001EF0250E1F6E206A81EC34F01E0E4326F9
:10513800000E4422DF0E435C080E4458D8A0D9D78D
:10514800080E1E6EDE0E1D6E23C01FF024C020F058
:1051580081EC34F00101BF9712000101BFB70CD0F8
:10516800020E1B6E4D0E1A6E740EE82EFED71A2E06
:10517800FCD71B2EFAD700D05A0E0E6EA50E0D6E58
:10518800C1EC35F01950030F5DEC35F0820E5DEC83
:1051980035F015C00DF016C00EF0C1EC35F0000E5C
:1051A8001C6E1AD01C5017241A6E000E18201B6E85
:1051B8001AC0F6FF1BC0F7FF000EF86E0F0EF7645B
:1051C80003D00800F55005D0F6CFE9FFF7CFEAFF86
:1051D800EF505DEC35F01C2A19501C5CD8A0E2D7C2
:1051E800000E5DEC35F0010E0C6E000E0D6E000E1B
:1051F8000E6E000E0F6E19EC31F01200000E0D6EDF
:10520800100E0C6EBAEC32F06D6E000E0D6E110EB3
:105218000C6EBAEC32F0686E000E0D6E120E0C6E4B
:10522800BAEC32F0696E6DA00AD0000E1E6E020E46
:105238001D6E000E206E010E1F6E33EC35F06DA44E
:105248000AD0000E1E6E030E1D6E000E206E010E9B
:105258001F6E33EC35F06DA60AD0000E1E6E040EDC
:105268001D6E000E206E010E1F6E33EC35F06DA220
:105278000AD0000E1E6E050E1D6E000E206E010E69
:105288001F6E33EC35F06D906D946D966D92120033
:105298002B0E106E116A660E126EFD0E136E65EC03
:1052A8002FF021C00CF022C00DF063EC31F01E0E7F
:1052B800276E000E286E0C50275E0D50285AD89085
:1052C80028302A6E2730296E29502B0FD96EDA6ABA
:1052D800000EDF6E2B0E1A6E1B6A21C01CF022C056
:1052E8001DF06EEC34F0000E1E6EB40E1D6E2B0E0B
:1052F8001F6E206A81EC34F023C00CF024C00DF03E
:105308000E6A0F6A19EC31F02650D8A41200000E6C
:105318001E6EB40E1D6E830E1F6EFD0E206E81EC88
:1053280034F012006DA812000A0E0C6E685080EC62
:1053380032F0246E0A0E0C6E685032EC34F0256E92
:10534800000E1E6E280E1D6E24C01FF0206A33EC5E
:1053580035F0000E1E6E290E1D6E25C01FF0206A46
:1053680033EC35F0000E1E6E2A0E1D6E000E206EF8
:10537800010E1F6E33EC35F00A0E0C6E695080EC8E
:1053880032F0246E0A0E0C6E695032EC34F0256E41
:10539800000E1E6E2B0E1D6E24C01FF0206A33EC0B
:1053A80035F0000E1E6E2C0E1D6E25C01FF0206AF3
:1053B80033EC35F01200000E1C6E000E1B6E5A0EF8
:1053C8000E6EA50E0D6EC1EC35F0030E5DEC35F0DA
:1053D800810E5DEC35F0030E5DEC35F0020E5DECF0
:1053E80035F0000E1A6E000E196E6EA00CD06E907D
:1053F8000001AC51186E176AAD5117241B6E000ED0
:1054080018201C6E12D00B0E176E620EE82EFED7F7
:10541800172EFCD700D0194A1A2A1ABEE6D7E80E6A
:10542800195C030E1A58D8A0E0D7010E0C6E000EB6
:105438000D6E000E0E6E000E0F6E19EC31F01BC0D3
:1054480015F01CC016F012006EB01200060E116E98
:1054580011504A0D600EF324D96E040EF420DA6E52
:10546800DF50D8B433D0000E106E11504A0DB60E6E
:105478000C6EFF0E0D6EAA0E0E6E040E0F6E0C5003
:105488000E260D500F22F3500E26F4500F22105006
:105498000E24D96E000E0F20DA6E1050A60FE16EA2
:1054A800E26ADFCFE7FF102A490E1064DED71150F9
:1054B8004A0D600EF324D96E040EF420DA6E000E45
:1054C800DF6E6E8011040101B96F120011061150D0
:1054D800D8B41200BDD710C00CF011C00DF063ECA9
:1054E80031F00CC013F00DC014F0000E186E000E51
:1054F800176EFF0E1324196EFF0E14201A6E26D095
:1055080017501024D96E18501120DA6EDF50126E21
:105518001250156E166A19501024D96E1A5011209F
:10552800DA6E17501024E16E18501120E26EDFCFAA
:10553800E7FF19501024D96E1A501120DA6E15C0E1
:10554800DFFF174A182A1906D8A01A061950175C3F
:105558001850800A126E1A50800A1258D8B01200D9
:10556800CFD76750D8B43DD0000E1B6E310E1A6EDF
:1055780043EC35F0240E1A6E1B6A66503FEC24F09B
:10558800010E1E6E9A0E1D6E24C01FF025C020F05D
:1055980033EC35F0010E1E6E9B0E1D6E26C01FF0FB
:1055A80027C020F033EC35F0010E1E6E9C0E1D6EE8
:1055B80028C01FF029C020F033EC35F0010E1E6E14
:1055C8009D0E1D6E2AC01FF0206A33EC35F0010EC7
:1055D8001E6E9E0E1D6E2B0E1F6E206A81EC34F01F
:1055E8001200520ED8EC35F002EC35F012001D50C6
:1055F8001E10D8A405D0000E286E010E276E38D0D4
:105608001D041E10D8A405D01BC027F01CC028F00C
:105618002FD01BC027F01CC028F0000E266E0FD01C
:1056280027C015F028C016F01BC017F01CC018F0D2
:10563800A7EC34F015C027F016C028F0262AFF0E74
:105648001F6EFF0E206E1DC021F01EC022F01F50DD
:105658002126205022222650236E246A2150235CC2
:105668002450800A256E2250800A2558D8A0D8D701
:1056780027C01BF028C01CF0120000018C5101014A
:10568800AE5DAF51800A246E00018D51800A245806
:10569800D8B00BD0000E1E6EB00E1D6E000E206E20
:1056A800010E1F6E33EC35F00AD0000E1E6EB00EE0
:1056B8001D6E000E206E000E1F6E33EC35F00001DB
:1056C8008A510101AC5DAD51800A246E00018B51F5
:1056D800800A2458D8B00BD0000E1E6EB10E1D6E75
:1056E800000E206E010E1F6E33EC35F01200000E16
:1056F8001E6EB10E1D6E000E206E000E1F6E33EC76
:1057080035F01200C40E0C6E030E0D6E83EC20F003
:10571800A50E0301C41939E15A0EC519D8A41200FF
:105728006E90150EE919D8B49DEC32F0190E0301EC
:10573800E919D8B4E3EC13F0230E0301E919D8B43E
:1057480070EC25F0250E0301E919D8B4A5EC30F06A
:10575800290E0301E919D8B485EC31F0310E0301A3
:10576800E919D8B404EC0DF0470E0301E919D8B4CF
:10577800B5EC2AF0490E0301E919D8B444EC0BF052
:10578800000E0301C56F000EC46F1200000E116EEB
:105798000FAE06D00E6C0F1ED8B00F2A010E116E78
:1057A8000DAE06D00C6C0D1ED8B00D2A010E111AC4
:1057B800000E136E000E126E0E500F10D8B41CD0CF
:1057C800010E106E04D0D8900E360F36102A0FAE88
:1057D800FAD7D890123613360E500C5C0F500D586D
:1057E800D8A005D00E500C5E0F500D5A1280D890DC
:1057F8000F320E32102EEDD71150D8B404D0126CDF
:10580800131ED8B0132A12C00CF013C00DF01200EA
:105818000DC00FF00EC010F015D00FC0F6FF10C06D
:10582800F7FF000EF86E0F0EF76403D00800F5506E
:1058380005D0F6CFE9FFF7CFEAFFEF505DEC35F082
:105848000F4A102A0FC0F6FF10C0F7FF000EF86EBF
:105858000F0EF76403D00800F55005D0F6CFE9FF26
:10586800F7CFEAFFEF500009D8A4D7D70FC0F6FF4B
:1058780010C0F7FF000EF86E0F0EF76403D0080093
:10588800F55005D0F6CFE9FFF7CFEAFFEF505DEC12
:1058980035F01200000E146E000E156E000E166E16
:1058A800000E176E1050111012101310D8B42AD011
:1058B800010E186E06D0D8901036113612361336EF
:1058C800182A13AEF8D7D890143615361636173668
:1058D80010500C5C11500D5812500E5813500F58A0
:1058E800D8A009D010500C5E11500D5A12500E5A03
:1058F80013500F5A1480D8901332123211321032CA
:10590800182EE1D714C00CF015C00DF016C00EF01B
:1059180017C00FF01200C20E1A1831E11B0419103B
:105928001C10D8A42CD0AB8EAB88AC84B896AC989D
:10593800AC9C000E0C6E480E0D6EE80E0E6E010E3D
:105948000F6E19C01DF01AC01EF01BC01FF01CC03E
:1059580020F0040ED8901D361E361F362036E82E4D
:10596800F9D71DC010F01EC011F01FC012F020C0E2
:1059780013F04EEC2CF00C04AF6EF28C9D8A948CD4
:10598800948EAB98AB88000E226EAE50222A0E0E73
:105998002264FBD71200000E0D6E0F0E0C6EBAECCF
:1059A80032F06B6E6B50D8B41CD0000E1E6EB20E67
:1059B8001D6E000E206E010E1F6E33EC35F0010EC9
:1059C800676E000E00019B6F0A0E9A6F000E1E6E26
:1059D8009A0E1D6E000E206E010E1F6E33EC35F010
:1059E8001200000E1E6EB20E1D6E000E206E000E0E
:1059F8001F6E33EC35F0000E676E00019A699B69E3
:105A0800000E1E6E9A0E1D6E000E206E000E1F6E8A
:105A180033EC35F01200000E206E030E1F6EF0EC12
:105A280034F01F042010D8B46DB419D00101BD5151
:105A3800D8A405D06D84010E23EC35F010D0030EE8
:105A48001B6EE80E1A6EA5EC33F0000E1E6E030EE8
:105A58001D6E000E206E000E1F6E33EC35F0000E2A
:105A6800206E030E1F6EF0EC34F01F502010D8A4E7
:105A780012006DA412006D94000E23EC35F01E0E7A
:105A88000101BD6F1200000E116E0DAE06D00C6C38
:105A98000D1ED8B00D2A010E116E0FAE04D00E6C7B
:105AA8000F1ED8B00F2A0E500F10D8B418D0010E00
:105AB800106E04D0D8900E360F36102A0FAEFAD7D3
:105AC8000E500C5C0F500D58D8A004D00E500C5E30
:105AD8000F500D5AD8900F320E32102EF1D71150A8
