:020000040000FA
:0400000014EF02F007
:100018006E80D8CF04F0E8CF05F0E0CF06F0D9CF56
:1000280007F0DACF08F0F3CF09F0F4CF0AF09EAA70
:1000380020EF00F022EF00F0B1EF00F095988388F0
:100048000001C5B12AEF00F02CEF00F033EF00F00B
:10005800C5819A0E8D6F020E8E6F5AEF00F0000E5A
:100068000B6E0B504A0DF40EF324D96E040EF420D7
:10007800DA6EDF50D8A443EF00F045EF00F051EFFF
:1000880000F00B504A0DF40EF32400018D6F040E9E
:10009800F4208E6FC5815AEF00F00B2A050E0B6411
:1000A80058EF00F05AEF00F035EF00F0010E0001B4
:1000B800906F900E8F6F000E626E000E616EB669C3
:1000C80090EF00F09EAA6BEF00F06DEF00F08DEF5F
:1000D80000F0839883888DC0D9FF8EC0DAFFAECF39
:1000E800DFFF62BE83EF00F0625007E1490E615CFA
:1000F800D8B081EF00F083EF00F087EF00F0614A9D
:10010800622A8D4B8E2B010E906F900E8F6F90EFA1
:1001180000F08F07D8A090078F519011D8A497EFBF
:1001280000F099EF00F066EF00F08398ABA29FEF24
:1001380000F0A1EF00F0B1EF00F0AB98AB88AECFC4
:100148008FF0906BAECF8FF0906BAECF8FF0906B3F
:10015800000E02019A6F0001C5839EA0B6EF00F061
:10016800B8EF00F0CAEF01F09E903C0ECF6EB40ECF
:10017800CE6E010E0001B56FC2B1C5EF00F0C7EF3A
:1001880000F0C9EF00F0000EB56F000E626E010EB0
:10019800616EE2EF00F09E0E6124D96E010E6220BE
:1001A800DA6EDF50D8A4DBEF00F0DDEF00F0E0EF0F
:1001B80000F0000E0001B56F614A622A6A50016EB4
:1001C800026A6150015C0250800A036E6250800A24
:1001D8000358D8B0F2EF00F0F4EF00F0CFEF00F0E2
:1001E8000001B505D8A4FBEF00F0FDEF00F020EF0B
:1001F80001F004000001C291000E626E010E616EF2
:1002080062BE10EF01F0625009E10F0E615CD8A0E8
:1002180010EF01F012EF01F014EF01F020EF01F000
:100228009E0E6124D96E010E6220DA6E000EDF6E1A
:10023800614A622A04EF01F0F50E0001805D010EAB
:100248008159D8A02AEF01F02CEF01F02FEF01F02F
:10025800819E30EF01F0818EAF51B011D8B437EFE5
:1002680001F039EF01F03FEF01F0320EAF5F000E01
:10027800B05B44EF01F0ADC0AFF0AEC0B0F0C58DDB
:10028800320EA327000EA423320EB127000EB2238C
:100298006B50D8A452EF01F054EF01F05FEF01F07A
:1002A800A2BF59EF01F05BEF01F05FEF01F0CE0E56
:1002B800A127FF0EA223320E9F27000EA023320E85
:1002C8008027000E8123E80E805D030E8159D8A097
:1002D80070EF01F072EF01F0CAEF01F0C4A977EFF7
:1002E80001F079EF01F09AEF01F0C12B3B0EC165E7
:1002F80080EF01F082EF01F09AEF01F0000EC16F7C
:100308006D2A3B0E6D648BEF01F08DEF01F09AEFD3
:1003180001F0000E6D6E6C2A630E6C6496EF01F0AE
:1003280098EF01F09AEF01F0000E6C6E000E816FED
:10033800000E806F822B6950D8B4A5EF01F0A7EFAB
:1003480001F0A8EF01F069063B0E8265AEEF01F0FF
:10035800B0EF01F0CAEF01F0000E826F832B3B0E65
:100368008365B9EF01F0BBEF01F0CAEF01F0000EB1
:10037800836F842B170E8465C4EF01F0C6EF01F07C
:10038800CAEF01F0000E846FCAEF01F0F2A2CFEFBE
:1003980001F0D1EF01F0D2EF01F0F292F2A4D7EF21
:1003A80001F0D9EF01F004EF02F00D0EE82EFED7B0
:1003B80000F0000ED76EE10ED66EF2940101AD5139
:1003C800AE11D8B4EAEF01F0ECEF01F0F2EF01F072
:1003D800AD07D8A0AE07818CF3EF01F0819C000136
:1003E800B351B411D8B4FBEF01F0FDEF01F003EF06
:1003F80002F0B307D8A0B407818A04EF02F0819A0B
:100408000AC0F4FF09C0F3FF08C0DAFF07C0D9FF2C
:1004180006C0E0FF05C0E8FF04C0D8FF6E901000DA
:10042800A9EF34F0640E0C6E000E0D6E000E0E6E09
:10043800000E0F6E05EC3CF0D388D38AD38C9B8CCE
:10044800EF0E926E010E936EF00E946EE30E956EA3
:100458009668D59AD596D582D582D584F194F28AB4
:10046800F290F2989E909F900B0ECF6EBA0ECE6EC1
:10047800CD92CD88CD8ACD8CCD869D80CD80F28CD5
:10048800F28E000E0001A66F000EA56F819E000E71
:100498000101AE6F000EAD6F819C000E0001B46FBC
:1004A800000EB36F819A000E196EC20E1A6E010EFD
:1004B8001B6E000E1C6E31EC37F087EC41F0A00E7D
:1004C800196E860E1A6E010E1B6E000E1C6ED7EC8E
:1004D8003BF0F40E0C6E010E0D6E000E0E6E000E4B
:1004E8000F6E05EC3CF0000E0D6E100E0C6E39EC24
:1004F8003EF00001C46FC451D8A485EF02F087EF25
:1005080002F08FEF02F0F3EC3DF0000E1C6E000ECF
:100518001B6E3FEC41F0000E116E220E106E84EC43
:100528003FF010C0E2F011C0E3F00001E22906E15B
:10053800E329D8A4A2EF02F0A4EF02F0B8EF02F08A
:10054800000E2C6E220E2B6E000E2E6E000E2D6EDF
:10055800B1EC40F0000E2C6EE80E2B6E000E2E6EE5
:10056800000E2D6EB1EC40F00001E24BE32B000EC3
:100578002C6E220E2B6EE2C02DF0E3C02EF0B1ECF3
:1005880040F00001C399F29E839483888A68839817
:10059800000E8A6EF28E2C0E0C6E010E0D6E000E81
:1005A8000E6E000E0F6E05EC3CF09D0E236EFC0ED9
:1005B800246E78EC2AF02C0E0C6E010E0D6E000ED7
:1005C8000E6E000E0F6E05EC3CF0100E236EFE0E44
:1005D800246E78EC2AF02C0E0C6E010E0D6E000EB7
:1005E8000E6E000E0F6E05EC3CF0CB0E236EFC0E6B
:1005F800246E78EC2AF02C0E0C6E010E0D6E000E97
:100608000E6E000E0F6E05EC3CF0070E206EC60E47
:100618001F6EAA0E216E040E226E5CEC41F0500E85
:10062800106E020E116EC80E126EFE0E136EA8EC3E
:100638003BF0500E1A6E020E1B6EAA0E1C6E040EB4
:100648001D6E78EC40F0500E236E020E246E78EC8E
:100658002AF02C0E0C6E010E0D6E000E0E6E000EA2
:100668000F6E05EC3CF0D7EC1CF0E80E0C6E030E98
:100678000D6E000E0E6E000E0F6E05EC3CF0000EB7
:100688001E6E020E1D6E000E206E000E1F6E2EECEA
:1006980041F0000E1E6E030E1D6E000E206E000E41
:1006A8001F6E2EEC41F0000E1E6E040E1D6E000E25
:1006B800206E000E1F6E2EEC41F0000E1E6E050E11
:1006C8001D6E000E206E000E1F6E2EEC41F0000114
:1006D800C491C495C497C493000EA8EC3AF0000ED8
:1006E8000D6E340E0C6E39EC3EF0FF0AD8A47FEF85
:1006F80003F081EF03F0CCEF03F0EB0E236EFC0E5A
:10070800246E78EC2AF00A0E346E000E82EC2DF07E
:100718008AEC3CF044EC3BF000EC3AF0000E6B6ED7
:10072800000E0001BF6F7EEC41F0000E266E100E29
:10073800256E000E276E4EEC38F0000E2C6E090E5A
:100748002B6E000E2E6E0A0E2D6EB1EC40F0000ED0
:100758002C6E0B0E2B6E400E2D6EE20E2E6E010EC1
:100768002F6E000E306E7AEC3EF0000EC5EC0AF0EB
:10077800000E266E110E256E000E276E4EEC38F018
:10078800000E266E120E256E000E276E4EEC38F007
:1007980004EC31F0010EC5EC0AF0000E116E0B0EE0
:1007A800106E7EEC3DF010C089F011C08AF012C0C6
:1007B8008BF013C08CF0C4EC37F02DEC32F0B7ECB2
:1007C8003FF00001C451D8B4ECEF03F0EEEF03F0B2
:1007D8000AEF04F0480E236EFD0E246E78EC2AF022
:1007E8001F0E236EFF0E246E78EC2AF0980E0C6E06
:1007F8003A0E0D6E000E0E6E000E0F6E05EC3CF0FC
:100808009F0E236EFF0E246E78EC2AF08D0E236E59
:10081800FE0E246E78EC2AF0000E0001E76F0E0E33
:10082800E76519EF04F01BEF04F01DEF04F026EF65
:1008380004F004000001E75126EC22F00001E72B48
:1008480013EF04F0000EE76F070EE7652EEF04F0D4
:1008580030EF04F032EF04F03CEF04F00400E7C09E
:1008680025F0266AEDEC29F00001E72B28EF04F0CB
:10087800000E116E0B0E106E7EEC3DF010C089F06C
:1008880011C08AF012C08BF013C08CF0C4EC37F0A2
:100898001AEC15F02DEC32F0B7EC3FF068EC31F0C3
:1008A800E5EC36F00001C451D8A45DEF04F05FEF29
:1008B80004F065EF04F0000E1C6E0F0E1B6E3FEC8B
:1008C80041F0000E0001F06F000EEF6F000EEE6FAA
:1008D800000EED6F000EC06F000EA46F000EA36F28
:1008E800000EBB6F000E9E6F000E9D6F000E9C6F7A
:1008F800000E9B6F000E686E000E676E000EB5EC62
:100908003CF0000E0001816F000E806F000E826FB8
:10091800000EC16FC4C0B7F0000E696E34EC30F041
:100928000001C2818EEC32F0E90E0001A35D030ED6
:10093800A459D8A0A2EF04F0A4EF04F0BFEF04F08C
:10094800000EA46F000EA36FF7EC35F01DC0EFF09A
:100958001EC0F0F00001ED51EF1909E1EE51F01958
:10096800D8B4B9EF04F0BBEF04F0BFEF04F0EFC068
:10097800EDF0F0C0EEF0815107E1020E805DD8B0D5
:10098800C8EF04F0CAEF04F0D7EF04F0190EEF191E
:10099800F011D8B4D2EF04F0D4EF04F0D7EF04F09C
:1009A800000EB5EC3CF00001C4A9DDEF04F0DFEF68
:1009B80004F0E1EF04F057EC3DF068EC31F0E5ECC1
:1009C80036F0EDEC22F072EC20F090EC38F0020EEC
:1009D8005E6E4D0E5D6E740EE82EFED75D2EFCD752
:1009E8005E2EFAD700D0CBEC1DF0020E5E6E4D0ED7
:1009F8005D6E740EE82EFED75D2EFCD75E2EFAD7FC
:100A080000D052EC35F0020E5E6E4D0E5D6E740E27
:100A1800E82EFED75D2EFCD75E2EFAD700D012EC5A
:100A280027F0020E5E6E4D0E5D6E740EE82EFED738
:100A38005D2EFCD75E2EFAD700D00001B751C4193D
:100A4800D8B429EF05F02BEF05F031EF05F0A5EC50
:100A58003DF09EEC3FF0C4C0B7F00001C151D8B4DE
:100A680038EF05F03AEF05F043EF05F01E0EC11917
:100A7800D8A441EF05F043EF05F04FEF05F0C3A30D
:100A880048EF05F04AEF05F050EF05F0C3939CECF2
:100A980041F050EF05F0C383FFEC3FF01AEC15F07E
:100AA800D4EC17F028EF0AF0000E0001E66F090EEB
:100AB800E66561EF05F063EF05F065EF05F0A4EF7B
:100AC80005F0070EE6251F6E206A000E20229EEC18
:100AD80040F01F042010D8A474EF05F076EF05F05D
:100AE800A0EF05F0070E0001E6251D6E1E6A000E38
:100AF8001E22000E206E000E1F6E2EEC41F0E6C086
:100B0800BDF0050E0001BD618CEF05F08EEF05F01C
:100B180098EF05F0130EBC6F000E1C6E1B0E1B6EBB
:100B28003FEC41F0A0EF05F0150EBC6F000E1C6EF7
:100B38001C0E1B6E3FEC41F00001E62B5BEF05F04D
:100B480089EC16F062EF0AF0000E206E010E1F6E9F
:100B58009EEC40F01F042010D8A4B5EF05F0B7EFC5
:100B680005F062EF0AF0000E1E6E010E1D6E000EFB
:100B7800206E000E1F6E2EEC41F088EC2CF062EF18
:100B88000AF00001C051D8A4CCEF05F0CEEF05F073
:100B9800D3EF05F0010EB5EC3CF00001C02B000EC0
:100BA800206E980E1F6E9EEC40F01F042010D8A4F3
:100BB800E0EF05F0E2EF05F0EFEF05F0000E1E6E36
:100BC800980E1D6E000E206E000E1F6E2EEC41F06A
:100BD800010EB5EC3CF0000E206EAE0E1F6E9EECC2
:100BE80040F01F042010D8A4FCEF05F0FEEF05F03C
:100BF80062EF0AF0000E1E6EAE0E1D6E000E206E25
:100C0800000E1F6E2EEC41F010EC3BF062EF0AF084
:100C1800000E0001BE6F070EBE6515EF06F017EF58
:100C280006F019EF06F04EEF06F0200EBE251F6EF7
:100C3800206A000E20229EEC40F01F042010D8A449
:100C480028EF06F02AEF06F04AEF06F0200E000122
:100C5800BE251D6E1E6A000E1E22000E206E000E9E
:100C68001F6E2EEC41F0BCC01BF01C6A3FEC41F03B
:100C7800C60E1A6E000E1B6E0001BE51C9EC2FF095
:100C8800010E256E0001BD515EEC2FF00001BE2B58
:100C98000FEF06F0000E206E110E1F6E9EEC40F056
:100CA8001F042010D8A45BEF06F05DEF06F06CEF90
:100CB80006F0000E1E6E110E1D6E000E206E000E48
:100CC8001F6E2EEC41F0BCC01BF01C6A3FEC41F0DB
:100CD800000E206E120E1F6E9EEC40F01F042010B6
:100CE800D8A479EF06F07BEF06F062EF0AF0000E69
:100CF8001E6E120E1D6E000E206E000E1F6E2EEC64
:100D080041F0000E0001CC6FCD0E106E000E116E7A
:100D1800470E126EFD0E136EA8EC3BF0000E00019C
:100D2800CB6F000ECA6F000EC96F000EC86F000EA1
:100D3800C76F000EC66F000E256EBD515EEC2FF01A
:100D4800BCC01BF01C6A3FEC41F062EF0AF0000ED9
:100D5800206EAF0E1F6E9EEC40F01F042010D8A42A
:100D6800B8EF06F0BAEF06F062EF0AF0000E1E6E5A
:100D7800AF0E1D6E000E206E000E1F6E2EEC41F0A1
:100D8800DFEC3CF062EF0AF0100E000189195D6E8D
:100D98002F0E8A195E6EBA0E8B195F6EE40E8C19CF
:100DA800606E5D1CDC6F5E1CDD6F5F1CDE6F601C9F
:100DB800DF6FDCC019F0DDC01AF0DEC01BF0DFC049
:100DC8001CF0500E1D6E020E1E6E000E206E100ED0
:100DD8001F6EADEC27F0060E1E6E7C0E1D6E500EBB
:100DE8001F6E020E206E8BEC40F0F40E0C6E010E9E
:100DF8000D6E000E0E6E000E0F6E12EC39F0010E25
:100E0800206E820E1F6E9EEC40F01F042010D8A4A6
:100E180010EF07F012EF07F062EF0AF0010E1E6EF6
:100E2800820E1D6E000E206E000E1F6E2EEC41F01D
:100E3800CFEC11F062EF0AF00001C387030EEC6FEC
:100E4800100EEB6FECBF32EF07F01D0EEB5D030EDB
:100E5800EC59D8A032EF07F034EF07F036EF07F07F
:100E6800ECEF09F0EB51F00FB96FEBC01FF0ECC0DD
:100E780020F09EEC40F00E0E1F182010D8A447EF6B
:100E880007F049EF07F0F7EF08F00001BF51D8B4B9
:100E980050EF07F052EF07F0E7EF08F0320E931922
:100EA8009411D8A45AEF07F05CEF07F05FEF07F052
:100EB800B9C091F0926B500E93199411D8A467EFB2
:100EC80007F069EF07F070EF07F04FEC39F05D6E4F
:100ED8005D500001916F926B92BF7EEF07F09251C7
:100EE80007E1080E915DD8B07CEF07F07EEF07F0C0
:100EF800ABEF08F0100EB9251D6E1E6A030E1E22F8
:100F0800010EB9251F6E206A000E20222EEC41F03A
:100F180091C015F092C016F0000E186E0A0E176EEA
:100F2800C4EC40F0FD0E15241D6E060E16201E6E34
:100F3800010E91C05DF092C05EF05DC05EF05D6A2A
:100F48005D101F6E5E50206E2EEC41F091C015F0C2
:100F580092C016F0000E186E0A0E176EC4EC40F020
:100F6800FB0E15241D6E060E16201E6E0001B951CB
:100F7800020D840EF324D96E010EF420DA6EDECF52
:100F88001FF0DDCF20F02EEC41F05A0E0001912524
:100F9800D96E030E9221DA6E91C0DFFF690E91259A
:100FA800D96E030E9221DA6EB929DF6E780EB92553
:100FB800D96EDA6A030EDA22B929DF6EB951020D49
:100FC800840EF324D96E010EF420DA6ED890913590
:100FD800E16E9235E26E870EE126030EE222DECF45
:100FE800E6FFDDCFE5FF000E5D6E030E5E6E1E0EA2
:100FF8005D26000E5E22D8909135D96E9235DA6E54
:10100800D890D936DA365D50D9265E50DA22000EED
:10101800DE6E000EDE6E800EDE6E3F0EDD6E020EA0
:10102800B96519EF08F01BEF08F023EF08F0010E7F
:10103800B925E06FE16B000EE12326EF08F0B9C097
:10104800E0F0E16BE0C05DF0E1C05EF0D8905D36A5
:101058005E36D70E5F6E010E606E5D505F265E5085
:101068006022D8909135D96E9235DA6E000ED92665
:10107800030EDA225FC0DEFF60C0DDFF000E5D6E8A
:10108800030E5E6E1E0E5D26000E5E22D890913510
:10109800D96E9235DA6ED890D936DA365D50D926BF
:1010A8005E50DA22000EDE6E000EDE6E800EDE6E00
:1010B8003F0EDD6EB951D8A464EF08F066EF08F072
:1010C80082EF08F0000E5D6E030E5E6E1E0E5D264A
:1010D800000E5E22D8909135D96E9235DA6ED8908E
:1010E800D936DA365D50D9265E50DA22000EDE6E29
:1010F800000EDE6E800EDE6E3F0EDD6EB905D8A4E2
:1011080088EF08F08AEF08F0A6EF08F0000E5D6E91
:10111800030E5E6E1E0E5D26000E5E22D89091357F
:10112800D96E9235DA6ED890D936DA365D50D9262E
:101138005E50DA22000EDE6E000EDE6E800EDE6E6F
:101148003F0EDD6E020EC5EC0AF0E7EF09F091C024
:1011580015F092C016F0000E186E0A0E176EC4EC49
:1011680040F0FD0E15241D6E060E16201E6E0001A1
:1011780091515E6E5D6A000E5D101F6E0A0E5E1064
:10118800206E2EEC41F091C015F092C016F0000EC2
:10119800186E0A0E176EC4EC40F0FB0E15241D6E77
:1011A800060E16201E6EFF0E206E1F682EEC41F0F4
:1011B800EBC01DF0ECC01EF0FF0E206E1F682EEC79
:1011C80041F0E7EF09F01DEC41F0EBC01DF0ECC079
:1011D8001EF0FF0E206E1F682EEC41F0520EB1EC8F
:1011E80041F0E7EF09F0EBC01FF0ECC020F09EECF7
:1011F80040F0205009E10F0E1F5CD8A006EF09F05F
:1012080008EF09F0E7EF09F0EBC01FF0ECC020F0A1
:101218009EEC40F0205007E11F0E1F5CD8B017EF7E
:1012280009F019EF09F0E7EF09F00001BF51D8B450
:1012380020EF09F022EF09F0AAEF09F0690E0C6E11
:10124800030E0D6EB9290E6ED9EC3EF00001E86F61
:10125800690EB925D96EDA6A030EDA22DF505D6E9F
:101268005D04DB6FEBC01DF0ECC01EF0FF0E206EBE
:101278001F682EEC41F00001E8510A0DF3CF5DF034
:10128800F4CF5EF0FD0E5D241D6E060E5E201E6E10
:101298000A0E206E000E1F6E2EEC41F00001E85180
:1012A8000A0DF3CF5DF0F4CF5EF0FB0E5D241D6EEA
:1012B800060E5E201E6EFF0E206E1F682EEC41F09B
:1012C8000001E851020D000EF324D96E030EF4203C
:1012D800DA6E000EDE6E000EDD6E5A0EE825D96E4F
:1012E800DA6A030EDA220A0EDF6E690EE825D96E75
:1012F800DA6A030EDA22FF0EDF6E780EB925D96E90
:10130800DA6A030EDA22FF0EDF6EE851020D870E4D
:10131800F324D96E030EF420DA6EFF0EDE6EFF0E94
:10132800DD6EE851040D1E0EF324D96E030EF42071
:10133800DA6E000EDE6E000EDE6E000EDE6E000E41
:10134800DD6E020EC5EC0AF0E7EF09F01DEC41F086
:10135800520EB1EC41F0320E000193199411D8A449
:10136800B8EF09F0BAEF09F0CBEF09F0EBC01DF0C8
:10137800ECC01EF0690EB925D96EDA6A030EDA22BE
:10138800DF505D6E5D501F6E206A2EEC41F0500EEE
:10139800000193199411D8A4D4EF09F0D6EF09F0FD
:1013A800E7EF09F0EBC01DF0ECC01EF0780EB92590
:1013B800D96EDA6A030EDA22DF505D6E5D501F6E59
:1013C800206A2EEC41F00001EB4BEC2B26EF07F0E6
:1013D800C39762EF0AF00CEC41F0000E0001BE6FFB
:1013E800070EBE65FAEF09F0FCEF09F0FEEF09F011
:1013F80062EF0AF0200EBE251F6E206A000E202222
:101408009EEC40F01F042010D8A40DEF0AF00FEF57
:101418000AF020EF0AF0200E0001BE251D6E1E6A9C
:10142800000E1E22000E206E000E1F6E2EEC41F0E4
:1014380049EC36F062EF0AF00001BE2BF4EF09F038
:10144800E6EC0FF062EF0AF0EFC05DF0F0C05EF07E
:101458005E50000AD8B433EF0AF062EF0AF05D502C
:10146800130AD8B458EF05F0060AD8B458EF05F0B7
:10147800020AD8B4A8EF05F00E0AD8B4C5EF05F0F3
:10148800020AD8B40CEF06F0070AD8B40CEF06F03D
:10149800010AD8B4ABEF06F0020AD8B4C8EF06F0D8
:1014A8003C0AD8B420EF07F00C0AD8B4EFEF09F0E3
:1014B8001E0AD8B424EF0AF062EF0AF0030E5E6E3B
:1014C800080E5D6E770EE82EFED75D2EFCD75E2ED9
:1014D800FAD700F0CD0ED7EC40F0CD0ED7EC40F0A7
:1014E800CD0ED7EC40F0CD0ED7EC40F0CD0ED7ECBA
:1014F80040F0000E0001E56F000EE46FF40EE45DAD
:10150800010EE559D8A08BEF0AF08DEF0AF08FEFA6
:101518000AF0AEEF0AF0C5A194EF0AF096EF0AF0D0
:1015280098EF0AF0AEEF0AF00B0E5D6E620EE82E31
:10153800FED75D2EFCD700D00001E44BE52BF40E5E
:10154800E45D010EE559D8A0ACEF0AF0AEEF0AF061
:101558008FEF0AF0C5A1B3EF0AF0B5EF0AF0B7EFC5
:101568000AF073EC2EF00001C5A1BDEF0AF0BFEF41
:101578000AF094EF04F007EC2DF094EF04F014EF68
:1015880002F0376E73EC26F0B7EF0DF0000E3F6EE9
:101598003F50020D870EF324D96E030EF420DA6E45
:1015A800FF0EDE6EFF0EDD6E5A0E3F24D96EDA6A2C
:1015B800030EDA220A0EDF6E690E3F24D96EDA6A4C
:1015C800030EDA22FF0EDF6E780E3F24D96EDA6A38
:1015D800030EDA22FF0EDF6E3F50020D000EF324D9
:1015E800D96E030EF420DA6E000EDE6E000EDD6E8C
:1015F8003F50040D1E0EF324D96E030EF420DA6E4C
:10160800000EDE6E000EDE6E000EDE6E000EDD6E6B
:10161800130E3F24256E266A000E2622780E3F24DC
:10162800D96EDA6A030EDA22DF50276E4EEC38F0F4
:10163800EA0E3F24256E266A000E2622690E3F24F4
:10164800D96EDA6A030EDA22DF50276E4EEC38F0D4
:10165800240E3F24256E266A000E26225A0E3F24A9
:10166800D96EDA6A030EDA22DF50276E4EEC38F0B4
:10167800100E3F241D6E1E6A030E1E22FF0E206EE2
:101688001F682EEC41F03F500A0DF3CF31F0F4CF34
:1016980032F0FD0E31241D6E060E32201E6E0A0E2B
:1016A800206E000E1F6E2EEC41F03F500A0DF3CF56
:1016B80031F0F4CF32F0FB0E31241D6E060E3220CD
:1016C8001E6EFF0E206E1F682EEC41F03F2A0C0E96
:1016D8003F6471EF0BF073EF0BF0CCEF0AF0D0EF33
:1016E8000DF0000E116E130E106E780E126E030EB2
:1016F800136E0F0E146EF7EC3EF0000E116EEA0E2C
:10170800106E690E126E030E136E0F0E146EF7EC48
:101718003EF0000E116E240E106E5A0E126E030E5D
:10172800136E0F0E146EF7EC3EF0000E3F6E780E3F
:101738003F24D96EDA6A030EDA22DF503A6E3A286D
:10174800D8B4A9EF0BF0ABEF0BF0B8EF0BF0100E1D
:101758003F241D6E1E6A030E1E223AC01FF0206A27
:101768002EEC41F0C3EF0BF0100E3F241D6E1E6AE5
:10177800030E1E22FF0E206E1F682EEC41F03F2A3A
:101788000C0E3F64CAEF0BF0CCEF0BF09BEF0BF0A5
:10179800000E3F6E5A0E3F24D96EDA6A030EDA2223
:1017A800080EDF60DAEF0BF0DCEF0BF0F4EF0BF074
:1017B800690E3F24D96EDA6A030EDA22DF50316EE1
:1017C800326AD89031363236820E3124D96E010E03
:1017D8003220DA6EDECF3CF0DDCF3DF0F6EF0BF0D5
:1017E8003C683D683F500A0DF3CF31F0F4CF32F03A
:1017F800FB0E31241D6E060E32201E6E3CC01FF0FB
:101808003DC020F02EEC41F03F50020D870EF3242E
:10181800D96E030EF420DA6E3CC0DEFF3DC0DDFF5A
:101828003F2A0C0E3F641BEF0CF01DEF0CF0CEEFBF
:101838000BF0000E3F6E5A0E3F24D96EDA6A030E83
:10184800DA22DF503B6E080E3B602DEF0CF02FEFD5
:101858000CF04AEF0CF03F500A0DF3CF31F0F4CF03
:1018680032F0FD0E31241D6E060E32201E6E010E62
:101878003BC033F0346A33C034F0336A33101F6E20
:101888003450206E2EEC41F05CEF0CF03F500A0D06
:10189800F3CF31F0F4CF32F0FD0E31241D6E060E79
:1018A80032201E6E0A0E206E000E1F6E2EEC41F0C6
:1018B8003F2A0C0E3F6463EF0CF065EF0CF01FEF4E
:1018C8000CF0000E3E6E5A0E3E24D96EDA6A030EF4
:1018D800DA220A0EDE18D8B474EF0CF076EF0CF0AA
:1018E80052EF0DF0FF0E316EFF0E326E5A0E3E248F
:1018F800D96EDA6A030EDA22DF50336E346A690E63
:101908003324D96E030E3420DA6EDF50356E366A12
:10191800315035263250362236BE9CEF0CF0365008
:1019280009E1030E355CD8A09CEF0CF09EEF0CF09B
:10193800B4EF0CF05A0E3E24D96EDA6A030EDA229E
:10194800DF50316E326A690E3124D96E030E3220AF
:10195800DA6EDF50336E3350386E396ACBEF0CF0E5
:101968005A0E3E24D96EDA6A030EDA22DF50316E3F
:10197800326A690E3124D96E030E3220DA6EDF50D6
:10198800336EFF0E3324386E396AFF0E392238C0A1
:1019980031F039C032F0D89031363236D70E336E46
:1019A800010E346E31503326325034225A0E3E2402
:1019B800D96EDA6A030EDA22DF50356E3550020D21
:1019C800000EF324D96E030EF420DA6E33C0DEFF66
:1019D80034C0DDFF5A0E3E24D96EDA6A030EDA22CD
:1019E800DF50316E3150040D1E0EF324D96E030EF4
:1019F800F420DA6E000EDE6E000EDE6E800EDE6EF5
:101A08003F0EDD6E5A0E3E24D96EDA6A030EDA22D4
:101A1800DF50D8A412EF0DF014EF0DF02CEF0DF0FD
:101A28005A0E3E24D96EDA6A030EDA22DF50316E7E
:101A38003150040D1E0EF324D96E030EF420DA6E15
:101A4800000EDE6E000EDE6E800EDE6E3F0EDD6E68
:101A58005A0E3E24D96EDA6A030EDA22DE04D8A4BE
:101A680038EF0DF03AEF0DF052EF0DF05A0E3E241C
:101A7800D96EDA6A030EDA22DF50316E3150040D66
:101A88001E0EF324D96E030EF420DA6E000EDE6EFD
:101A9800000EDE6E800EDE6E3F0EDD6E3E2A070EF5
:101AA8003E6459EF0DF05BEF0DF067EF0CF0D0EFEF
:101AB8000DF0000E3F6E100E3F241F6E206A030EBD
:101AC80020229EEC40F0780E3F24D96EDA6A030E8D
:101AD800DA221FC0DFFF3F500A0DF3CF31F0F4CFF9
:101AE80032F0FD0E31241F6E060E3220206E9EEC61
:101AF80040F020C01FF0206A5A0E3F24D96EDA6ADF
:101B0800030EDA221FC0DFFF3F2A0D0E3F648FEF5E
:101B18000DF091EF0DF05FEF0DF0000E2C6E130E2F
:101B28002B6E780E2D6E030E2E6E0F0E2F6EBAECE6
:101B38003EF0000E2C6EEA0E2B6E690E2D6E030E13
:101B48002E6E0F0E2F6EBAEC3EF0000E2C6E240E89
:101B58002B6E5A0E2D6E030E2E6E0F0E2F6EBAECD4
:101B68003EF0D0EF0DF03750316E326A3250000A35
:101B7800D8B4C1EF0DF0D0EF0DF03150000AD8B451
:101B8800CAEF0AF0010AD8B475EF0BF0030AD8B40B
:101B98005DEF0DF0D0EF0DF012001D50800B266E9A
:101BA8001D501D242C6E1CAEDCEF0DF0DEEF0DF089
:101BB800DFEF0DF02C802C50D8B4E5EF0DF0E7EFF7
:101BC8000DF0FAEF0DF02C28D8A4EDEF0DF0EFEFA3
:101BD8000DF0F7EF0DF0000E1A6E000E1B6E000EE2
:101BE8001C6E000E1D6E1C8E02EF0EF0000E1A6E9B
:101BF800000E1B6E000E1C6E000E1D6E2150800B19
:101C0800261A215021242B6E20AE0DEF0EF00FEF77
:101C18000EF010EF0EF02B802B50D8B416EF0EF00C
:101C280018EF0EF02BEF0EF02B28D8A41EEF0EF0B5
:101C380020EF0EF028EF0EF0000E1E6E000E1F6E45
:101C4800000E206E000E216E208E33EF0EF0000E77
:101C58001E6E000E1F6E000E206E000E216E2B50A1
:101C6800D8B439EF0EF03BEF0EF043EF0EF02C50E6
:101C7800D8A441EF0EF043EF0EF04DEF0EF0000E3A
:101C88001A6E000E1B6E000E1C6E000E1D6EE5EF28
:101C98000FF020501A02F3CF31F0F4CF32F0315068
:101CA800276E286A296A2A6A32502D6E2E6A2F6A90
:101CB800306A1F501B02F3CF31F0F4CF32F03150AD
:101CC8002726000E282229222A2232502D26000EED
:101CD8002E222F2230221E501C02F3CF31F0F4CFD7
:101CE80032F031502726000E282229222A2232508B
:101CF8002D26000E2E222F22302229C02AF028C09D
:101D080029F027C028F0276A1E501B02F3CF31F0B4
:101D1800F4CF32F03150272632502822000E2922E3
:101D2800000E2A221F501A02F3CF31F0F4CF32F0FE
:101D38003150272632502822000E2922000E2A224E
:101D480029C02AF028C029F027C028F0276A1E5089
:101D58001A02F3CF31F0F4CF32F031502726325047
:101D68002822000E2922000E2A2220501B02F3CF1F
:101D780031F0F4CF32F031502D2632502E22000EA1
:101D88002F22000E30221F501C02F3CF31F0F4CF67
:101D980032F031502D2632502E22000E2F22000E06
:101DA800302220501C02F3CF31F0F4CF32F0315002
:101DB800226E3250236E246A256A24C025F023C07F
:101DC80024F022C023F0226A22502D2623502E22EE
:101DD80024502F222550302227C022F028C023F07B
:101DE80029C024F02AC025F0190E00EF0FF0D89072
:101DF8002532243223322232E82EFBEF0EF0225015
:101E08002D2623502E2224502F222550302229C03F
:101E18002AF028C029F027C028F0276A2B502CC0A8
:101E280022F0236A2226000E2322820E2224316EFB
:101E3800FF0E2320326E36EF0FF0D8902D362E3657
:101E48002F3630362AAE2BEF0FF02DEF0FF02EEF96
:101E58000FF02D80D8902736283629362A363106B5
:101E6800D8A032062FAE3BEF0FF03DEF0FF021EF79
:101E78000FF0000E2B6E2AAE44EF0FF046EF0FF076
:101E88006AEF0FF0FF0E2714226EFF0E2814236E40
:101E9800FF0E2914246E7F0E2A14256E225023105B
:101EA80024102510D8B45BEF0FF05DEF0FF061EF51
:101EB8000FF0010E2B6E6AEF0FF02DA066EF0FF0FA
:101EC80068EF0FF06AEF0FF05DEF0FF02B50D8B40A
:101ED80070EF0FF072EF0FF096EF0FF0010E2D2656
:101EE800000E2E222F22302230A07DEF0FF07FEF40
:101EF8000FF096EF0FF02DC022F02EC023F02FC068
:101F080024F030C025F02534253224322332223201
:101F180022C02DF023C02EF024C02FF025C030F0B1
:101F2800314A322A32BEA1EF0FF0325008E131288F
:101F3800D8A0A1EF0FF0A3EF0FF0ADEF0FF0000E58
:101F48002D6E000E2E6E800E2F6E7F0E306EDBEF24
:101F58000FF032BEBAEF0FF0325006E13104D8B0BC
:101F6800B8EF0FF0BAEF0FF0C6EF0FF0000E2D6EBE
:101F7800000E2E6E000E2F6E000E306E000E266EB6
:101F8800DBEF0FF031C02CF0FF0E2D16FF0E2E16D2
:101F98007F0E2F16000E30162CA0D5EF0FF0D7EFBE
:101FA8000FF0D8EF0FF02F8ED8902C30306E2650CF
:101FB80030122DC01AF02EC01BF02FC01CF030C0FC
:101FC8001DF01200010E206E860E1F6E9EEC40F072
:101FD8001F042010D8A4F3EF0FF0F5EF0FF07CEFFB
:101FE80010F0000E0001C76F000EC66F000EC96F1B
:101FF800000EC86F000ECB6F000ECA6F000ECC6FBC
:10200800CD0E106E000E116E470E126EFD0E136E81
:10201800A8EC3BF0C60E2F6E000E306E0001BE51CC
:1020280049EC33F0BEC025F0266AEDEC29F0010E2C
:102038001E6E9A0E1D6E000E206E000E1F6E2EEC88
:1020480041F0010E1E6E9B0E1D6E000E206E000EDE
:102058001F6E2EEC41F0010E1E6E9C0E1D6E000EC2
:10206800206E000E1F6E2EEC41F0010E1E6E9D0EAE
:102078001D6E000E206E000E1F6E2EEC41F0010E3C
:102088001E6E9E0E1D6E470E1F6EFD0E206E8BEC93
:1020980040F00CEC41F0010E1E6E860E1D6E000E17
:1020A800206E000E1F6E2EEC41F0600EB1EC41F078
:1020B800A5EC3DF0070E1E6E760E1D6EDA0E1F6E35
:1020C800FD0E206E8BEC40F0DC0E0C6E050E0D6ED6
:1020D800000E0E6E000E0F6E5EEC3CF0070E1E6ECC
:1020E800760E1D6E470E1F6EFD0E206E8BEC40F0B7
:1020F800010E206E870E1F6E9EEC40F01F0420100C
:10210800D8A489EF10F08BEF10F0F3EF10F0010E68
:10211800206E9A0E1F6E9EEC40F01FC0C6F020C0C5
:10212800C7F0010E206E9B0E1F6E9EEC40F01FC084
:10213800C8F020C0C9F0010E206E9C0E1F6E9EECE8
:1021480040F01FC0CAF020C0CBF0010E206E9D0EDB
:102158001F6E9EEC40F01F500001CC6F010E206EE8
:102168009E0E1F6ECD0E216E000E226E5CEC41F0AD
:10217800C60E2F6E000E306E0001BE5149EC33F0D2
:102188000CEC41F0010E1E6E870E1D6E000E206EC7
:10219800000E1F6E2EEC41F0510EB1EC41F0A5EC93
:1021A8003DF0070E1E6E760E1D6EBE0E1F6EFD0EE6
:1021B800206E8BEC40F0DC0E0C6E050E0D6E000EE2
:1021C8000E6E000E0F6E5EEC3CF0070E1E6E760E65
:1021D8001D6E470E1F6EFD0E206E8BEC40F0010E3B
:1021E800206E880E1F6E9EEC40F01F042010D8A4AD
:1021F80000EF11F002EF11F0AFEF11F0070E1E6EB5
:10220800760E1D6E840E1F6EFD0E206E8BEC40F058
:10221800C60E1A6E000E1B6E0001BE51C9EC2FF0DF
:10222800070E1E6E760E1D6E660E1F6EFD0E206E5C
:102238008BEC40F0000E3D6E44EF11F03DC040F0D5
:10224800C6C041F0C7C042F0C8C043F0CAC044F09D
:10225800CCC045F0460E106E000E116ECD0E126EFB
:10226800000E136EA8EC3BF0000E506E010E4F6E80
:10227800400E2F6E000E306E3D50EAEC2EF03D2AD7
:10228800FC0E366EFF0E376E6A50386E396AD8907B
:102298003836393636503826375039223D503A6E5E
:1022A8003B6A38503A5C3B50800A3C6E3950800A91
:1022B8003C58D8A062EF11F064EF11F022EF11F052
:1022C800070E1E6E760E1D6E690E1F6EFC0E206EBA
:1022D8008BEC40F0DFEC1BF0070E1E6E760E1D6EC9
:1022E8000B0E1F6EFD0E206E8BEC40F0000E3E6E46
:1022F8003E5026EC22F03E2A0E0E3E6486EF11F088
:1023080088EF11F07CEF11F0000E3F6E3F5021EC8A
:1023180025F03F2A090E3F6494EF11F096EF11F073
:102328008AEF11F0010E1E6E880E1D6E000E206ED3
:10233800000E1F6E2EEC41F0600EB1EC41F0A5ECE2
:102348003DF0070E1E6E760E1D6E470E1F6EFD0EBB
:10235800206E8BEC40F0010E206E890E1F6E9EECF5
:1023680040F01F042010D8A4BCEF11F0BEEF11F00C
:10237800CEEF11F0010E1E6E890E1D6E000E206E3E
:10238800000E1F6E2EEC41F0000E1C6E2F0E1B6E01
:102398003FEC41F01200010E206E7E0E1F6E16EC0F
:1023A80040F01FC033F020C034F021C035F022C007
:1023B80036F005EC2CF0010E206E800E1F6E16EC28
:1023C80040F01FC033F020C034F021C035F022C0E7
:1023D80036F005EC2CF0010E166E7C0E156E590EBB
:1023E800176E000E186E040E196E82EC2BF05BC08F
:1023F8003DF03E6A3F6A406A3FC040F03EC03FF051
:102408003DC03EF03D6A5AC041F0426A436A446AA0
:1024180042C044F041C043F0426A416A59C045F0A5
:10242800466A476A486A45C048F0476A466A456A44
:1024380041504524496E425046204A6E4350472039
:102448004B6E445048204C6E3D5049244D6E3E50D2
:102458004A204E6E3F504B204F6E40504C20506EDD
:102468005C504D240001896F000E4E208A6F000ECB
:102478004F208B6F000E50208C6F010E166E7E0E53
:10248800156E590E176E000E186E040E196E82EC3A
:102498002BF05BC03DF03E6A3F6A406A3FC040F0A7
:1024A8003EC03FF03DC03EF03D6A5AC041F0426A2E
:1024B800436A446A42C044F041C043F0426A416AF8
:1024C80059C045F0466A476A486A45C048F0476AB5
:1024D800466A456A41504524496E425046204A6E34
:1024E800435047204B6E445048204C6E3D50492481
:1024F8004D6E3E504A204E6E3F504B204F6E40501E
:102508004C20506E5C504D24556E000E4E20566E79
:10251800000E4F20576E000E5020586E010E166E9A
:10252800800E156E590E176E000E186E040E196E79
:1025380082EC2BF05BC03DF03E6A3F6A406A3FC0C8
:1025480040F03EC03FF03DC03EF03D6A5AC041F009
:10255800426A436A446A42C044F041C043F0426A56
:10256800416A59C045F0466A476A486A45C048F01A
:10257800476A466A456A41504524496E425046209A
:102588004A6E435047204B6E445048204C6E3D5095
:1025980049244D6E3E504A204E6E3F504B204F6EA0
:1025A80040504C20506E5C504D24516E000E4E2011
:1025B800526E000E4F20536E000E5020546E0001D4
:1025C80089518A118B118C11D8B4EDEF12F0EFEF0D
:1025D80012F005EF13F05550561057105810D8B494
:1025E800F8EF12F0FAEF12F005EF13F05150521015
:1025F80053105410D8A403EF13F005EF13F00AEFAB
:1026080013F0230EB1EC41F084EF13F0000E116EBD
:102618000B0E106E7EEC3DF00001895110180DE193
:102628008A5111180AE18B51121807E18C511318BD
:10263800D8A421EF13F023EF13F081EF13F05150DA
:1026480055180DE1525056180AE15350571807E132
:1026580054505818D8A433EF13F035EF13F07CEF2B
:1026680013F0000E2C6E0B0E2B6E55C02DF056C0BD
:102678002EF057C02FF058C030F07AEC3EF055C01D
:1026880089F056C08AF057C08BF058C08CF07EECA9
:1026980041F0010E1E6E7C0E1D6E000E1F6E000EA8
:1026A800206E000E216E000E226E77EC3BF0010EBC
:1026B8001E6E7E0E1D6E000E1F6E000E206E000E2A
:1026C800216E000E226E77EC3BF0010E1E6E800E1E
:1026D8001D6E000E1F6E000E206E000E216E000E85
:1026E800226E77EC3BF0220EB1EC41F084EF13F050
:1026F800210EB1EC41F084EF13F0200EB1EC41F063
:10270800120007C23DF008C23CF009C23BF00AC201
:102718003AF0CBEF14F006C225F0266A07C227F07C
:102728004EEC38F0030EE8EC3FF08EEC41F019EF78
:1027380015F006C20CF00D6A39EC3EF0386E010E49
:10274800E8EC3FF03850D7EC40F019EF15F006C22E
:1027580033F0085107C22FF0306A2FC030F02F6ACB
:102768002F10316E3050326E33C02BF02C6A31C0CE
:102778002DF032C02EF0B1EC40F0030EE8EC3FF043
:1027880099EF13F006C210F0116A84EC3FF010C004
:1027980036F011C037F0020EE8EC3FF036C00DF00D
:1027A80037C00EF095EC41F019EF15F006C22BF08A
:1027B8002C6A070E2D6E020E2E6ECCEC3DF0030E29
:1027C800E8EC3FF099EF13F006C210F0116A500ED2
:1027D800126E020E136E9AEC3EF04A0EE8EC3FF0D1
:1027E800500E0D6E020E0E6E7CEC37F019EF15F0E0
:1027F8003AC022F03BC023F03CC024F03DC025F095
:102808000B0E266E020E276E065152EC40F0030E98
:10281800E8EC3FF099EF13F03AC026F03BC027F000
:102828003CC028F03DC029F00651D0EC3FF0386E8E
:10283800010EE8EC3FF03850D7EC40F019EF15F0F6
:102848000BC234F00CC235F03AC022F03BC023F082
:102858003CC024F03DC025F0340E266E000E276ED5
:1028680006513FEC40F0030EE8EC3FF099EF13F00F
:102878003AC026F03BC027F03CC028F03DC029F004
:1028880006514DEC3FF026C036F027C037F0020E57
:10289800E8EC3FF0D2EF13F00BC239F03AC012F077
:1028A8003BC013F03CC014F03DC015F039C016F021
:1028B800AA0E176E040E186E0651ECEC19F039507A
:1028C800E8EC3FF0AA0E0D6E040E0E6E39C00FF044
:1028D80031EC3FF019EF15F03AC00FF03BC010F0A3
:1028E8003CC011F03DC012F00BC213F00C0E146E78
:1028F800020E156E0651E7EC1AF0030EE8EC3FF0F5
:1029080099EF13F03AC00FF03BC010F03CC011F043
:102918003DC012F00B0E136E020E146E0651B3EC8E
:1029280023F0030EE8EC3FF099EF13F03AC012F0F1
:102938003BC013F03CC014F03DC015F0500E166EAD
:10294800020E176E0651E4EC18F0500E0C6E020ED3
:102958000D6E07EC3DF00C50E8EC3FF0F4EF13F08F
:1029680007C222F00651D1EC38F0030EE8EC3FF034
:1029780099EF13F006512F6E07511B6E2FC01CF0F4
:1029880069EC3FF0030EE8EC3FF099EF13F0020119
:1029980004512F6E306A3050000AD8B4D6EF14F0C4
:1029A80019EF15F02F50080AD8B48FEF13F0010A69
:1029B800D8B49DEF13F0030AD8B4ABEF13F0010AB3
:1029C800D8B4C6EF13F0070AD8B4DAEF13F0010A47
:1029D800D8B4E8EF13F01C0AD8B4FCEF13F0030ADC
:1029E800D8B410EF14F0010AD8B424EF14F0070A91
:1029F800D8B43CEF14F0010AD8B486EF14F0030AF7
:102A0800D8B49AEF14F0010AD8B470EF14F00F0A92
:102A1800D8B450EF14F0010AD8B4B4EF14F0380A5F
:102A2800D8B4BEEF14F019EF15F01200000E326E94
:102A38004EEF15F032C00CF00D6A000E0F6E020E4C
:102A48000E6ECBEC31F00C282E6E3250010B316E2D
:102A580031C029F01A0E0C6E010E0D6E290E0E6E85
:102A6800000E0F6E2E5097EC1FF03250020DD70E4D
:102A7800F324D96E010EF420DA6E0CC0DEFF0DC00F
:102A8800DDFF9E0E2E24D96EDA6A010EDA22010EBF
:102A9800DF6E322A6A50020D3250256E266AF350D4
:102AA800255C2650800A276EF450800A2758D8A043
:102AB80060EF15F062EF15F01EEF15F0320E0C6E98
:102AC800000E0D6E000E0E6E000E0F6E5EEC3CF0EA
:102AD8000001C387000E326E72EF16F0000E1E6EF4
:102AE800990E1D6E3250020DD70EF324D96E010EC9
:102AF800F420DA6EDECF1FF0DDCF20F02EEC41F0AF
:102B08003250020DD70EF324D96E010EF420DA6E7E
:102B1800DECF9BF0DDCF9CF071EF16F0000E1E6E3D
:102B2800970E1D6E3250020DD70EF324D96E010E8A
:102B3800F420DA6EDECF1FF0DDCF20F02EEC41F06E
:102B48003250020DD70EF324D96E010EF420DA6E3E
:102B5800DECF9DF0DDCF9EF071EF16F0000E1E6EF9
:102B6800960E1D6E3250020DD70EF324D96E010E4B
:102B7800F420DA6EDECF1FF0DDCF20F02EEC41F02E
:102B88003250020DD70EF324D96E010EF420DA6EFE
:102B9800DECF67F0DDCF68F071EF16F03250FC0F32
:102BA800316E31500C0DF3CF25F0F4CF26F0E60E40
:102BB80025242C6E000E26202D6E900E31242F6EAB
:102BC800306A010E3022010E2C241D6E000E2D20BD
:102BD8001E6E3150256E266AD89025362636DF0EB1
:102BE8002524D96E010E2620DA6EDECF1FF0DDCF48
:102BF80020F02EEC41F03150256E266AD89025360B
:102C08002636DF0E2524D96E010E2620DA6E010E37
:102C1800DBAE18EF16F0700EDE5CFE0EDE58D8B094
:102C280018EF16F01AEF16F026EF16F02FC01DF069
:102C380030C01EF0000E206E010E1F6E2EEC41F00B
:102C480071EF16F03150256E266AD8902536263653
:102C5800DF0E2524D96E010E2620DA6EDE2806E165
:102C6800DE28D8A43AEF16F03CEF16F048EF16F03D
:102C78002FC01DF030C01EF0000E206E000E1F6E1B
:102C88002EEC41F071EF16F02FC01DF030C01EF091
:102C9800000E206E030E1F6E2EEC41F071EF16F041
:102CA8003250256E266A2650000AD8B45EEF16F018
:102CB800D2EF15F02550000AD8B472EF15F0010ACA
:102CC800D8B492EF15F0030AD8B4B2EF15F0010AA0
:102CD800D8B471EF16F0D2EF15F0322A6A50020D0F
:102CE8003250256E266AF350255C2650800A276EDE
:102CF800F450800A2758D8A084EF16F086EF16F013
:102D080054EF16F00001C3971200000E206EA80EB3
:102D18001F6E9EEC40F01F042010D8A496EF16F00A
:102D280098EF16F0C2EF16F0000E1E6EA80E1D6E7C
:102D3800000E206E000E1F6E2EEC41F00001BF51F8
:102D4800D8B4A9EF16F0ABEF16F0BDEF16F0000EF1
:102D58004A6E4A5026EC22F04A2A0E0E4A64B7EF11
:102D680016F0B9EF16F0ADEF16F0A5EC3DF0C2EF96
:102D780016F0520EB1EC41F01DEC41F0000E206E41
:102D8800A70E1F6E9EEC40F01F042010D8A4CFEFB2
:102D980016F0D1EF16F017EF17F0000E1E6EA70E03
:102DA8001D6E000E206E000E1F6E2EEC41F000010D
:102DB800BF51D8B4E2EF16F0E4EF16F012EF17F0B7
:102DC800440E216EFE0E226E070E246ED00E236E68
:102DD800000E256E010E266EFEEC34F0000E4B6ED2
:102DE8004B5040EC28F04B2A090E4B64FEEF16F0CE
:102DF80000EF17F0F4EF16F0940E216EFF0E226E1E
:102E0800070E246ED00E236E010E256E000E266E60
:102E1800FEEC34F0A5EC3DF017EF17F0520EB1ECD4
:102E280041F01DEC41F0000E206EA60E1F6E9EECC8
:102E380040F01F042010D8A424EF17F026EF17F055
:102E480060EF17F0000E1E6EA60E1D6E000E206EAF
:102E5800000E1F6E2EEC41F00001BF51D8B437EFC1
:102E680017F039EF17F05BEF17F0A10E216EFE0E89
:102E7800226E070E246ED00E236E000E256E010EF4
:102E8800266EFEEC34F0DFEC1BF0940E216EFF0E84
:102E9800226E070E246ED00E236E010E256E000ED4
:102EA800266EFEEC34F0A5EC3DF060EF17F0520E04
:102EB800B1EC41F01DEC41F0000E206EA90E1F6E22
:102EC8009EEC40F01F042010D8A46DEF17F06FEFB0
:102ED80017F0D3EF17F0000E1E6EA90E1D6E000E30
:102EE800206E000E1F6E2EEC41F00001BF51D8B4C9
:102EF80080EF17F082EF17F0CEEF17F0AA0E216ED1
:102F0800FF0E226E070E246ED00E236E000E256E65
:102F1800010E266EFEEC34F0130E0001EF19F011CD
:102F2800D8A499EF17F09BEF17F09DEF17F0000E5C
:102F3800496E150EEF19F011D8A4A5EF17F0A7EFF9
:102F480017F0A9EF17F0050E496E050E346E4950BB
:102F580082EC2DF0000E4C6E4C5026EC22F04C2AE0
:102F68000E0E4C64BAEF17F0BCEF17F0B0EF17F085
:102F7800A5EC3DF0BF0E216EFF0E226E070E246EEB
:102F8800D00E236E010E256E000E266EFEEC34F078
:102F9800D3EF17F0520EB1EC41F01DEC41F01200E6
:102FA800F3EC3DF0F50E236EFD0E246E78EC2AF05E
:102FB800FE0E236EFE0E246E78EC2AF0000E206EB4
:102FC800AA0E1F6E9EEC40F01F042010D8A4EFEF4D
:102FD80017F0F1EF17F0E3EF18F0000E1E6EAA0ECF
:102FE8001D6E000E206E000E1F6E2EEC41F0000EBE
:102FF8001C6E000E1B6E3FEC41F0000E116E220E8F
:10300800106E84EC3FF010C02CF011C02DF02CC0D5
:103018001BF02DC01CF0AA0E1D6E040E1E6E000EB5
:10302800206E0A0E1F6ECDEC25F0500E106E020EAB
:10303800116E890E126EFF0E136EA8EC3BF0500E47
:103048001A6E020E1B6EAA0E1C6E040E1D6E78EC14
:1030580040F0500E236E020E246E78EC2AF0010E1A
:103068002B6E9CEF18F0500E106E020E116EEA0EC9
:10307800126EFF0E136EA8EC3BF02BC01BF01C6AFF
:10308800AA0E1D6E040E1E6E000E206E0A0E1F6E16
:10309800CDEC25F0500E1A6E020E1B6EAA0E1C6E99
:1030A800040E1D6E78EC40F0AA0E106E040E116E20
:1030B800900E126EFF0E136EA8EC3BF0500E1A6EB7
:1030C800020E1B6EAA0E1C6E040E1D6E78EC40F0EC
:1030D800100E286E0B0E0F6E010E106E280E116E5C
:1030E800000E126E2B50D0EC28F00FC02CF010C040
:1030F8002DF02CC01BF02DC01CF0AA0E1D6E040E66
:103108001E6E000E206E0A0E1F6ECDEC25F0500EBE
:103118001A6E020E1B6EAA0E1C6E040E1D6E78EC43
:1031280040F0500E236E020E246E78EC2AF02B2A03
:103138002B506A5CD8B0A3EF18F0A5EF18F037EF62
:1031480018F0B50E236EFE0E246E78EC2AF0000EF1
:10315800116EE80E106E84EC3FF010C02CF011C018
:103168002DF02CC01BF02DC01CF0500E1D6E020E51
:103178001E6E000E206E0A0E1F6ECDEC25F0500E4E
:103188001A6E020E1B6EB50E1C6EFF0E1D6E78ECCD
:1031980040F0500E236E020E246E78EC2AF0980E42
:1031A8000C6E3A0E0D6E000E0E6E000E0F6E05ECD4
:1031B8003CF0000E1C6E0F0E1B6E3FEC41F012002F
:1031C800216E000E226E155009E1020E145CD8A083
:1031D800F0EF18F0F2EF18F0F4EF18F0EBEF19F049
:1031E800155008E11404D8A0FCEF18F0FEEF18F011
:1031F80002EF19F0080E226E04EF19F0000E226E8D
:1032080021C023F0D8902336A00E23122380225009
:10321800231274EC41F023C018F0FE0E1816185053
:103228000D6E0E6AA7EC41F013C00DF00E6AA7EC04
:1032380041F012C00DF00E6AA7EC41F0BAEC41F073
:1032480023C00DF00E6AA7EC41F0000E206E155059
:1032580009E1020E145CD8A034EF19F036EF19F02A
:1032680038EF19F0DCEF19F0010E1224186E000E79
:103278001320196E000E14201A6E000E15201B6EF6
:103288007F0E18141C6E000E19141D6E000E1A14F1
:103298001E6E000E1B141F6E1C501D101E101F10DA
:1032A800D8A459EF19F05BEF19F0AFEF19F0000E41
:1032B8000E6E000E0D6E16EC3EF00D5016C0D9FFC6
:1032C80017C0DAFFDF6EACEC41F0340E186EF20E68
:1032D800E82EFED7182EFCD7010E1226000E132258
:1032E80014221522164A172A155008E11404D8A0EA
:1032F80080EF19F082EF19F086EF19F0080E226EB0
:1033080088EF19F0000E226E21C023F0D8902336E2
:10331800A00E231223802250231274EC41F023C004
:1033280018F0FE0E181618500D6E0E6AA7EC41F034
:1033380013C00DF00E6AA7EC41F012C00DF00E6A32
:10334800A7EC41F0BAEC41F023C00DF00E6AA7ECEF
:1033580041F0D1EF19F0000E0E6E010E0D6E16EC55
:103368003EF00D5016C0D9FF17C0DAFFDF6E16C049
:10337800D9FF17C0DAFFDF50D8A4C5EF19F0C7EF9F
:1033880019F0C9EF19F0DCEF19F0164A172A010EE7
:103398001226000E132214221522202A2004186E49
:1033A8003F0E1864DAEF19F0DCEF19F02BEF19F083
:1033B800000E0E6E000E0D6E16EC3EF0ACEC41F0F9
:1033C800070E186EC00EE82EFED7182EFCD7120076
:1033D800236E000E246E155009E1020E145CD8A06D
:1033E800F8EF19F0FAEF19F0FCEF19F0E6EF1AF020
:1033F800155008E11404D8A004EF1AF006EF1AF0EB
:103408000AEF1AF0080E246E0CEF1AF0000E246E64
:1034180023C025F0D8902536A00E251225802450EB
:10342800251274EC41F025C019F0FE0E191619503A
:103438000D6E0E6AA7EC41F013C00DF00E6AA7ECF2
:1034480041F012C00DF00E6AA7EC41F0BAEC41F061
:1034580025C00DF00E6AA7EC41F0000E226ECEEFEB
:103468001AF0155009E1020E145CD8A03EEF1AF0CC
:1034780040EF1AF042EF1AF0D7EF1AF0010E1224BB
:10348800196E000E13201A6E000E14201B6E000E0B
:1034980015201C6E7F0E19141D6E000E1A141E6E58
:1034A800000E1B141F6E000E1C14206E1D501E10E3
:1034B8001F102010D8A463EF1AF065EF1AF0B9EFC7
:1034C8001AF0000E0E6E000E0D6E16EC3EF00D504A
:1034D80017C0D9FF18C0DAFFDF6EACEC41F0340E2C
:1034E800196EF20EE82EFED7192EFCD7010E122601
:1034F800000E132214221522174A182A155008E123
:103508001404D8A08AEF1AF08CEF1AF090EF1AF092
:10351800080E246E92EF1AF0000E246E23C025F0D8
:10352800D8902536A00E251225802450251274EC3B
:1035380041F025C019F0FE0E191619500D6E0E6ACD
:10354800A7EC41F013C00DF00E6AA7EC41F012C0D1
:103558000DF00E6AA7EC41F0BAEC41F025C00DF071
:103568000E6AA7EC41F0CDEF1AF0000E0E6E010EB8
:103578000D6E16EC3EF00D5017C0D9FF18C0DAFFDB
:10358800DF6E174A182A010E1226000E1322142283
:103598001522222A1650225CD8A0D5EF1AF0D7EFB0
:1035A8001AF035EF1AF0000E0E6E000E0D6E16ECC6
:1035B8003EF0ACEC41F0070E196EC00EE82EFED7B7
:1035C800192EFCD712001F6E125009E1020E115C71
:1035D800D8A0F1EF1AF0F3EF1AF0F5EF1AF0DEEFDA
:1035E8001BF0125008E11104D8A0FDEF1AF0FFEF0C
:1035F8001AF003EF1BF0080E206E05EF1BF0000E0B
:10360800206E1FC021F0D8902136A00E2112205024
:10361800211274EC41F021C00DF00E6AA7EC41F0C4
:1036280010C00DF00E6AA7EC41F00FC00DF00E6A45
:10363800A7EC41F0000E1E6EADEF1BF0125009E131
:10364800020E115CD8A02BEF1BF02DEF1BF02FEF13
:103658001BF0DEEF1BF0010E0F24166E000E10207B
:10366800176E000E1120186E000E1220196E7F0EB4
:1036780016141A6E000E17141B6E000E18141C6E0A
:10368800000E19141D6E1A501B101C101D10D8A402
:1036980050EF1BF052EF1BF099EF1BF014C0D9FF4D
:1036A80015C0DAFFDF50166E16500D6E0E6AA7ECC5
:1036B80041F0ACEC41F0340E166EF20EE82EFED757
:1036C800162EFCD7010E0F26000E102211221222F0
:1036D800144A152A125008E11104D8A076EF1BF0FD
:1036E80078EF1BF07CEF1BF0080E206E7EEF1BF0CE
:1036F800000E206E1FC021F0D8902136A00E211296
:103708002050211274EC41F021C00DF00E6AA7EC94
:1037180041F010C00DF00E6AA7EC41F00FC00DF09B
:103728000E6AA7EC41F0ACEF1BF014C0D9FF15C02E
:10373800DAFFDF50166E16500D6E0E6AA7EC41F0D8
:10374800144A152A010E0F26000E102211221222E9
:103758001E2AFF0E166EFF0E176E1350186E196A8A
:1037680016501826175019221E501A6E1B6A185028
:103778001A5C1B50800A1C6E1950800A1C58D8A06D
:10378800C8EF1BF0CAEF1BF022EF1BF014C0D9FFE3
:1037980015C0DAFFDF50166E16500D6E0E6AA7ECD4
:1037A80041F0ACEC41F0070E166EC00EE82EFED7C5
:1037B800162EFCD71200040E206E20C00CF00D6AE5
:1037C800000E0F6E020E0E6ECBEC31F00C28246E3C
:1037D8002050010B256E2050120DF350EC0F1F6E78
:1037E800010E1F24106E116A000E112284EC3FF0A6
:1037F80010C01DF011C01EF02550070DF3CF21F0A9
:103808001EC022F01DC023F00A0E0F6E030E106EAC
:10381800210E116E000E126E2450D0EC28F0070E07
:103828001C6E170E1B6E6A0EE82EFED71B2EFCD7D9
:103838001C2EFAD700D02550070DF350020F216E29
:10384800030E1F240C6E0D6A000E0D2239EC3EF09B
:10385800226E080E0F6E020E106E210E116E000EF3
:10386800126E2450D0EC28F0070E1C6E170E1B6E3B
:103878006A0EE82EFED71B2EFCD71C2EFAD700D0D6
:103888002550070DF350030F216E040E1F240C6EF4
:103898000D6A000E0D2239EC3EF0226E080E0F6EF6
:1038A800020E106E210E116E000E126E2450D0EC16
:1038B80028F0070E1C6E170E1B6E6A0EE82EFED738
:1038C8001B2EFCD71C2EFAD700D02550070DF3501D
:1038D800040F216E050E1F240C6E0D6A000E0D22BA
:1038E80039EC3EF0226E080E0F6E020E106E210E9D
:1038F800116E000E126E2450D0EC28F0070E1C6ECC
:10390800170E1B6E6A0EE82EFED71B2EFCD71C2E38
:10391800FAD700D0100E1F24106E116A000E112263
:1039280084EC3FF010C01DF011C01EF02550070DAB
:10393800F350050F216E1EC022F01DC023F00A0EA1
:103948000F6E030E106E210E116E000E126E2450B3
:10395800D0EC28F0070E1C6E170E1B6E6A0EE82EB0
:10396800FED71B2EFCD71C2EFAD700D02504D8A4CE
:10397800C0EF1CF0C2EF1CF0CDEF1CF0010E0F6E73
:10398800000E106E210E116E000E126E2450D0EC37
:1039980028F0202A0E0E2064D4EF1CF0D6EF1CF07D
:1039A800E1EF1BF01200030E0F6E000E106EAA0E50
:1039B800116E040E126E2B50D0EC28F0000E6A6EB9
:1039C800500E106E020E116E470E126EFD0E136E23
:1039D800A8EC3BF0500E1A6E020E1B6EDA0E1C6E2F
:1039E800FE0E1D6E78EC40F0500E1A6E020E1B6E25
:1039F800DA0E1C6EFF0E1D6E78EC40F0500E236E32
:103A0800020E246E78EC2AF0010E2B6E640E0C6EFA
:103A1800000E0D6E000E0E6E000E0F6E05EC3CF0E3
:103A28008EEC32F0030E0F6E000E106EAA0E116EA1
:103A3800040E126E2B50D0EC28F00FC029F010C0E5
:103A48002AF02AC028F0292808E12A28D8B42FEF1C
:103A58001DF031EF1DF094EF1DF06A2A500E106E24
:103A6800020E116E470E126EFD0E136EA8EC3BF09F
:103A78002BC01BF01C6A500E1D6E020E1E6E000E2F
:103A8800206E0A0E1F6ECDEC25F0500E1A6E020E37
:103A98001B6EF60E1C6EFF0E1D6E78EC40F0500E7D
:103AA8001A6E020E1B6E2850020DF50EF324D96E05
:103AB800010EF420DA6EDECF1CF0DDCF1DF078ECBD
:103AC80040F0500E1A6E020E1B6E460E1C6EFD0E56
:103AD8001D6E78EC40F0AA0E106E040E116E460EA4
:103AE800126EFD0E136EA8EC3BF02B0E0F6E000E3F
:103AF800106EAA0E116E040E126E2B50D0EC28F028
:103B0800500E1A6E020E1B6EAA0E1C6E040E1D6E4F
:103B180078EC40F0500E236E020E246E78EC2AF0FA
:103B28002B2A0E0E2B649BEF1DF09DEF1DF00AEF64
:103B38001DF06A50D8A4A3EF1DF0A5EF1DF0ADEF5E
:103B48001DF02B0E236EFE0E246E78EC2AF0CAEFC1
:103B58001DF06AC01BF01C6A500E1D6E020E1E6E10
:103B6800000E206E0A0E1F6ECDEC25F0500E1A6E58
:103B7800020E1B6E5D0E1C6EFE0E1D6E78EC40F084
:103B8800500E236E020E246E78EC2AF01200000EFE
:103B9800206E040E1F6E9EEC40F01F042010D8A467
:103BA800D8EF1DF0DAEF1DF001EF1EF00001C4B7E9
:103BB800E0EF1DF0E2EF1DF001EF1EF0C487655045
:103BC800675C6850800A316E6650800A3158D8B0F8
:103BD800F0EF1DF0F2EF1DF0FAEF1DF0010EEAEC28
:103BE80040F0010EA8EC3AF0B0EF1EF0000EEAEC3F
:103BF80040F05AEC3EF0B0EF1EF0000E206E040EBE
:103C08001F6E9EEC40F01F502010D8A40EEF1EF03F
:103C180010EF1EF07EEF1EF00001C4A716EF1EF095
:103C280018EF1EF07EEF1EF0C497000EEAEC40F08D
:103C3800000E1E6E060E1D6E000E206E000E1F6E0C
:103C48002EEC41F0420EB1EC41F0000E1E6E160E45
:103C58001D6E000E206E000E1F6E2EEC41F0000E41
:103C6800336E000E326E010E0C6E000E0D6E000EDD
:103C78000E6E000E0F6E5EEC3CF0000E206E060E0F
:103C88001F6E9EEC40F01F502010D8B44EEF1EF06F
:103C980050EF1EF052EF1EF063EF1EF00400324AA0
:103CA800332A33BE61EF1EF0100E325C270E3358F4
:103CB800D8A061EF1EF063EF1EF037EF1EF0000E84
:103CC800206E060E1F6E9EEC40F0F10E1F1820109D
:103CD800D8A471EF1EF073EF1EF0B0EF1EF0000EC7
:103CE800A8EC3AF0000E6C6E000E6D6EA5EC3DF07F
:103CF800B0EF1EF0000E206E040E1F6E9EEC40F01A
:103D08001F042010D8A48BEF1EF08DEF1EF0B0EF2B
:103D18001EF00001C4A793EF1EF095EF1EF0B0EF60
:103D28001EF06550675C6850800A316E6650800AE4
:103D38003158D8B0A2EF1EF0A4EF1EF0ABEF1EF082
:103D4800010EEAEC40F00001C389B0EF1EF0000E4E
:103D5800EAEC40F0FDEF1DF012005A0E0E6EA50EB3
:103D68000D6E95EC41F0030ED7EC40F0810ED7ECC8
:103D780040F0200ED7EC40F0070ED7EC40F032ECC4
:103D88003CF00009D8B4CBEF1EF0CDEF1EF0EAEFFF
:103D98001EF0000E406E4050060F226E236A9A0EE7
:103DA8002224D96E020E2320DA6E240E4024E16EFE
:103DB800E26A000EE222DFCFE7FF402A090E4064E4
:103DC800E8EF1EF0EAEF1EF0CFEF1EF02E0E0C6E9D
:103DD800000E0D6E245015EC3FF0310E0C6E000EE7
:103DE8000D6E255015EC3FF0340E0C6E000E0D6E66
:103DF800265015EC3FF01EC010F01FC011F0470E02
:103E0800126EFD0E136EA8EC3BF01EC01AF01FC018
:103E18001BF0340E1C6E000E1D6E78EC40F01EC0B8
:103E28001AF01FC01BF0FD0E1C6EFF0E1D6E78EC05
:103E380040F01EC01AF01FC01BF0310E1C6E000EA1
:103E48001D6E78EC40F01EC01AF01FC01BF0FD0E6E
:103E58001C6EFF0E1D6E78EC40F01EC01AF01FC0DD
:103E68001BF02E0E1C6E000E1D6E78EC40F0370E07
:103E78000C6E000E0D6E285015EC3FF03A0E0C6ECD
:103E8800000E0D6E295015EC3FF03D0E0C6E000E25
:103E98000D6E2A5015EC3FF020C010F021C011F033
:103EA800470E126EFD0E136EA8EC3BF020C01AF000
:103EB80021C01BF0370E1C6E000E1D6E78EC40F012
:103EC80020C01AF021C01BF0C60E1C6EFE0E1D6E1F
:103ED80078EC40F020C01AF021C01BF03A0E1C6E9E
:103EE800000E1D6E78EC40F020C01AF021C01BF0C7
:103EF800C60E1C6EFE0E1D6E78EC40F020C01AF047
:103F080021C01BF03D0E1C6E000E1D6E78EC40F0BB
:103F1800010E0C6E000E0D6E000E0E6E000E0F6E72
:103F28005EEC3CF01200126E40EF20F00EC0D9FF9C
:103F38000FC0DAFFDF50D8A4A4EF1FF0A6EF1FF0E0
:103F4800ACEF1FF0000E0D6E640E0C6E71EF20F0DA
:103F5800000E0D6EC80E0C6E71EF20F00EC0D9FF6A
:103F68000FC0DAFFDF50D8A4BCEF1FF0BEEF1FF080
:103F7800C4EF1FF0010E0D6E2C0E0C6E71EF20F0C9
:103F88000C680D6871EF20F00EC0D9FF0FC0DAFF82
:103F9800DF50D8A4D2EF1FF0D4EF1FF0DAEF1FF0F4
:103FA800010E0D6E900E0C6E71EF20F0010E0D6E6D
:103FB800F40E0C6E71EF20F00EC0D9FF0FC0DAFFBF
:103FC800DF50D8A4EAEF1FF0ECEF1FF0F2EF1FF07C
:103FD800020E0D6E580E0C6E71EF20F0020E0D6E73
:103FE800BC0E0C6E71EF20F00EC0D9FF0FC0DAFFC7
:103FF800DF50D8A402EF20F004EF20F00AEF20F001
:10400800030E0D6E200E0C6E71EF20F0030E0D6E78
:10401800840E0C6E71EF20F00EC0D9FF0FC0DAFFCE
:10402800DF50D8A41AEF20F01CEF20F022EF20F088
:10403800030E0D6EE80E0C6E71EF20F0040E0D6E7F
:104048004C0E0C6E71EF20F00EC0D9FF0FC0DAFFD6
:10405800DF50D8A432EF20F034EF20F03AEF20F010
:10406800040E0D6EB00E0C6E71EF20F0050E0D6E85
:10407800140E0C6E71EF20F01250106E116A115070
:10408800000AD8B44AEF20F06DEF20F01050000A73
:10409800D8B46DEF20F0010AD8B49AEF1FF0030AE4
:1040A800D8B4B2EF1FF0010AD8B4C8EF1FF0070A5E
:1040B800D8B4E0EF1FF0010AD8B4F8EF1FF0030AF4
:1040C800D8B410EF20F0010AD8B428EF20F06DEF33
:1040D80020F0000E0D6E000E0C6E1200000E166E13
:1040E800B30E156ED70E176E000E186E040E196EED
:1040F80082EC2BF0D9C02BF02C6A2D6A2E6A2DC0C9
:104108002EF02CC02DF02BC02CF02B6AD8C02FF02D
:10411800306A316A326A30C032F02FC031F0306A0A
:104128002F6AD7C033F0346A356A366A33C036F03E
:10413800356A346A336A2F503324376E305034204E
:10414800386E31503520396E325036203A6E2B5049
:1041580037243B6E2C5038203C6E2D5039203D6E54
:104168002E503A203E6E0001DA513B243F6E000E7D
:104178003C20406E000E3D20416E000E3E20426EF7
:104188003F50401041104210D8B4CDEF20F0CFEF8F
:1041980020F04BEF21F089513F180DE18A5140186A
:1041A8000AE18B51411807E18C514218D8A4DFEF7E
:1041B80020F0E1EF20F04BEF21F0000E1E6EB30E61
:1041C8001D6E000E1F6E000E206E000E216E000E7A
:1041D800226E77EC3BF0000E206EB20E1F6E9EEC46
:1041E80040F01F042010D8A4FCEF20F0FEEF20F0D0
:1041F8001BEF21F0000E6B6E000E0001BF6FA1696E
:10420800A269000E1E6EB20E1D6E000E206E000E0C
:104218001F6E2EEC41F0000E1E6E9A0E1D6E000EE3
:10422800206E000E1F6E2EEC41F047EF21F0000EBD
:10423800206EB20E1F6E9EEC40F01F502010D8A4C6
:1042480028EF21F02AEF21F047EF21F0010E6B6EE5
:10425800010E0001BF6F000EA26F0A0EA16F000EC3
:104268001E6EB20E1D6E000E206E010E1F6E2EEC1D
:1042780041F0000E1E6E9A0E1D6E000E206E010E8D
:104288001F6E2EEC41F07EEC41F0A5EC3DF01200E3
:10429800146E1450D8B453EF21F055EF21F077EF96
:1042A80021F00FBE5CEF21F05AEF21F077EF21F0FB
:1042B8000CC010F00DC011F00EC012F00FC013F0BA
:1042C800101E111E121E131E102A000E1122122279
:1042D800132210C016F011C017F012C018F013C046
:1042E80019F07FEF21F00CC016F00DC017F00EC0CA
:1042F80018F00FC019F00C500D100E100F10D8A4A4
:1043080088EF21F08AEF21F094EF21F0000E0C6E77
:10431800000E0D6E000E0E6E000E0F6E25EF22F0D1
:10432800960E156E9EEF21F0152AD8901932183284
:1043380017321632000E1614106E000E1714116E76
:10434800000E1814126EFE0E1914136E1050111070
:1043580012101310D8A4B3EF21F0B5EF21F098EFA5
:1043680021F0C3EF21F0152A010E1626000E1722A0
:1043780018221922D8901932183217321632000E24
:104388001614106E000E1714116E000E1814126E0B
:10439800FF0E1914136E1050111012101310D8A418
:1043A800D8EF21F0DAEF21F0B7EF21F0E2EF21F0BA
:1043B8001506D890163617361836193618BEE7EF90
:1043C80021F0E9EF21F0F1EF21F0020E1560EFEF97
:1043D80021F0F1EF21F0DCEF21F015B0F6EF21F03C
:1043E800F8EF21F0F9EF21F0189ED890153215C09A
:1043F80010F0116A126A136A10C013F0126A116A77
:10440800106A105016121150171212501812135029
:1044180019121450D8B413EF22F015EF22F01DEF43
:1044280022F00FBE1CEF22F01AEF22F01DEF22F04F
:10443800198E16C00CF017C00DF018C00EF019C078
:104448000FF01200306E3050010B2C6E2CC029F08A
:1044580030C00CF00D6A000E0F6E020E0E6ECBEC23
:1044680031F0030E30643BEF22F03DEF22F0ECEF29
:1044780022F0040E305E3050120DF350340F2F6EC0
:104488003050010B2C6E2CC029F030C00CF00D6A96
:10449800000E0F6E020E0E6ECBEC31F030500C0D8C
:1044A800F3CF25F0F4CF26F0E60E25242D6E000E6E
:1044B80026202E6E2DC01DF02EC01EF02FC00CF031
:1044C8000D6A39EC3EF0256E010E25241F6E206A18
:1044D800000E20222EEC41F0020E2D241D6E000E3F
:1044E8002E201E6E010E2F24106E116A000E11224E
:1044F80084EC3FF010C01FF011C020F02EEC41F00A
:10450800030E2D241D6E000E2E201E6E030E2F246A
:104518000C6E0D6A000E0D2239EC3EF0256E25500A
:104528001F6E206A2EEC41F0040E2D241D6E000E25
:104538002E201E6E040E2F240C6E0D6A000E0D2206
:1045480039EC3EF0256E25501F6E206A2EEC41F0A6
:10455800050E2D241D6E000E2E201E6E050E2F2416
:104568000C6E0D6A000E0D2239EC3EF0256E2550BA
:104578001F6E206A2EEC41F0060E2F24106E116A71
:10458800000E1122500E126E020E136E9AEC3EF0BF
:10459800060E2D241D6E000E2E201E6E500E1F6E50
:1045A800020E206E8BEC40F00B0E2D241D6E000EBB
:1045B8002E201E6E100E2F24106E116A000E11226E
:1045C80084EC3FF010C01FF011C020F02EEC41F039
:1045D8001200000E166E9B0E156ED70E176E000E8B
:1045E800186E040E196E82EC2BF0D9C028F0296AD7
:1045F8002A6A2B6A2AC02BF029C02AF028C029F081
:10460800286AD8C02CF02D6A2E6A2F6A2DC02FF088
:104618002CC02EF02D6A2C6AD7C030F0316A326A6D
:10462800336A30C033F0326A316A306A2C50302431
:10463800346E2D503120356E2E503220366E2F506C
:104648003320376E28503424386E29503520396E7F
:104658002A5036203A6E2B5037203B6E0001DA5133
:1046680038243C6E000E39203D6E000E3A203E6E16
:10467800000E3B203F6E3C503D103E103F10D8B41A
:1046880048EF23F04AEF23F082EF23F089513C18DA
:104698000DE18A513D180AE18B513E1807E18C5112
:1046A8003F18D8A45AEF23F05CEF23F082EF23F0F1
:1046B800750EA26F300EA16F010EBF6F000E1E6E39
:1046C8009A0E1D6E000E206E010E1F6E2EEC41F02C
:1046D800000E1E6E9B0E1D6E000E206E000E1F6ECD
:1046E8002EEC41F0000E1E6E9C0E1D6E000E206E0C
:1046F800000E1F6E2EEC41F0A5EC3DF00001BF0549
:10470800D8A489EF23F08BEF23F0A0EF23F0A2BF0A
:1047180092EF23F090EF23F0A0EF23F0000EBF6F8D
:10472800000E1E6E9A0E1D6E000E206E000E1F6E7D
:104738002EEC41F01DEC41F069EC41F05A0AD8A486
:10474800A8EF23F0AAEF23F0B2EF23F0750E0001D3
:10475800A26F300EA16F000E4EEC41F012001D6EDC
:10476800125009E1020E115CD8A0BDEF23F0BFEF93
:1047780023F0C1EF23F072EF24F0125008E1110486
:10478800D8A0C9EF23F0CBEF23F0CFEF23F0080E2A
:104798001E6ED1EF23F0000E1E6E1DC01FF0D890C4
:1047A8001F36A00E1F121E501F1274EC41F01FC0BE
:1047B8000DF00E6AA7EC41F010C00DF00E6AA7ECE0
:1047C80041F00FC00DF00E6AA7EC41F057EF24F04E
:1047D800125009E1020E115CD8A0F5EF23F0F7EFB3
:1047E80023F0F9EF23F072EF24F0010E0F24156E79
:1047F800000E1020166E000E1120176E000E1220EB
:10480800186E7F0E1514196E000E16141A6E000E0F
:1048180017141B6E000E18141C6E19501A101B105A
:104828001C10D8A41AEF24F01CEF24F044EF24F055
:1048380013C0D9FF14C0DAFFDF50156E15500D6E86
:104848000E6AA7EC41F0ACEC41F0340E156EF20E96
:10485800E82EFED7152EFCD7010E0F26000E1022CB
:1048680011221222134A142A125008E11104D8A066
:1048780040EF24F042EF24F0CFEF23F0CBEF23F00A
:1048880013C0D9FF14C0DAFFDF50156E15500D6E36
:104898000E6AA7EC41F0134A142A010E0F26000EE7
:1048A80010221122122213C0D9FF14C0DAFFDF50E0
:1048B800D8A461EF24F063EF24F0ECEF23F0000EAE
:1048C8000E6E000E0D6EA7EC41F0ACEC41F0070E39
:1048D800156EC00EE82EFED7152EFCD7120020EE5E
:1048E80006F01050D9261150DA22DF50146E20EE4F
:1048F80007F01050D9261150DA22DF50156E000E3D
:10490800166E20EE03F01050D9261150DA22DF502F
:10491800176E20EE04F01050D9261150DA22DF501D
:10492800186E000E196E10C0D9FF11C0DAFFDF50E3
:104938001A6E20EE01F01050D9261150DA22DF50FD
:104948001B6E000E1C6E12C0D9FF13C0DAFFDF50B9
:104958001D6E20EE01F01250D9261350DA22DF50D6
:104968001E6E000E1F6E20EE03F01250D926135053
:10497800DA22DF50206E20EE04F01250D9261350B0
:10498800DA22DF50216E000E226E20EE06F0125061
:10499800D9261350DA22DF50236E20EE07F012508A
:1049A800D9261350DA22DF50246E000E256E5A0ED7
:1049B8000E6EA50E0D6E95EC41F00A0ED7EC40F088
:1049C800800ED7EC40F01F0ED7EC40F05A0ED7EC13
:1049D80040F0140E0C6E000E0D6E2BEC40F0D7EC70
:1049E80040F0170E0C6E000E0D6E2BEC40F0D7EC5D
:1049F80040F01A0E0C6E000E0D6E2BEC40F0D7EC4A
:104A080040F0010ED7EC40F01D0E0C6E000E0D6E3E
:104A18002BEC40F0D7EC40F0200E0C6E000E0D6E23
:104A28002BEC40F0D7EC40F0230E0C6E000E0D6E10
:104A38002BEC40F0D7EC40F012002B6E2B500C0DF5
:104A4800F3CF25F0F4CF26F0E60E25242C6E000EC9
:104A580026202D6E2B50120DF350340F2E6E2B5036
:104A6800010B2A6E2BC00CF00D6A000E0F6E020EA1
:104A78000E6ECBEC31F02AC027F02CC01DF02DC0F3
:104A88001EF02EC00CF00D6A39EC3EF0256E255054
:104A98001F6E206A2EEC41F0020E2C241D6E000EB3
:104AA8002D201E6E010E2E24106E116A000E11228A
:104AB80084EC3FF010C01FF011C020F02EEC41F044
:104AC800030E2C241D6E000E2D201E6E030E2E24A8
:104AD8000C6E0D6A000E0D2239EC3EF0256E255045
:104AE8001F6E206A2EEC41F0040E2C241D6E000E61
:104AF8002D201E6E040E2E240C6E0D6A000E0D2243
:104B080039EC3EF0256E25501F6E206A2EEC41F0E0
:104B1800050E2C241D6E000E2D201E6E050E2E2453
:104B28000C6E0D6A000E0D2239EC3EF0256E2550F4
:104B38001F6E206A2EEC41F0060E2E24106E116AAC
:104B4800000E1122500E126E020E136E9AEC3EF0F9
:104B5800060E2C241D6E000E2D201E6E500E1F6E8C
:104B6800020E206E8BEC40F00B0E2C241D6E000EF6
:104B78002D201E6E100E2E24106E116A000E1122AA
:104B880084EC3FF010C01FF011C020F02EEC41F073
:104B98001200000E276E000E266E000E236E1B50AC
:104BA8001C10D8A4DAEF25F0DCEF25F0EEEF25F0A5
:104BB8001DC0D9FF1EC0DAFF300EDF6E264A272A35
:104BC80026501D24D96E27501E20DA6E000EDF6E87
:104BD80072EF26F01CBEF5EF25F0F3EF25F049EF54
:104BE80026F00A0E1F182010D8A4FDEF25F0FFEFBD
:104BF80025F049EF26F0010E236E1B6C1C1ED8B061
:104C08001C2A49EF26F01BC00CF01CC00DF01FC079
:104C18000EF020C00FF0A3EC33F00CC024F00DC050
:104C280025F025BE23EF26F0255007E10A0E245C67
:104C3800D8B021EF26F023EF26F02BEF26F0300E28
:104C48002424216E000E2520226E31EF26F0570E07
:104C58002424216E000E2520226E26501D24D96E94
:104C680027501E20DA6E21C0DFFF264A272A1BC0E4
:104C78000CF01CC00DF01FC00EF020C00FF0CBECE4
:104C880031F00CC01BF00DC01CF01B501C10D8A438
:104C980050EF26F052EF26F007EF26F02350D8B455
:104CA80058EF26F05AEF26F064EF26F026501D2420
:104CB800D96E27501E20DA6E2D0EDF6E264A272A5F
:104CC80026501D24D96E27501E20DA6E000EDF6E86
:104CD8001DC010F01EC011F099EC36F01200000E45
:104CE800116EFA0E106E84EC3FF010C093F011C0F4
:104CF80094F0000E1E6ED60E1D6E93C01FF094C069
:104D080020F02EEC41F0320E000193199411D8A432
:104D180090EF26F092EF26F0B5EF26F0F80E01019D
:104D2800856F000E846F030E876FE00E866F000E8E
:104D3800896F1F0E886F8A698B698C698D698E6986
:104D48008F6990699169926993699469956996697F
:104D58009769986999699A699B699C699D6911EF36
:104D680027F0500E93199411D8A4BDEF26F0BFEF89
:104D780026F0F6EF26F0000E0101856F000E846F15
:104D8800390E876FE70E866F6B0E896F6D0E886F11
:104D9800780E8B6F000E8A6F9A0E8D6F230E8C6FB4
:104DA800F80E8F6F000E8E6FFB0E916FE00E906FF6
:104DB800FB0E936FF70E926FD50E956F400E946FA2
:104DC800030E976FE00E966F070E996FE00E986FBF
:104DD800000E9B6F1F0E9A6FF80E9D6F1F0E9C6F33
:104DE80011EF27F0010184698569866987698869F7
:104DF80089698A698B698C698D698E698F699069FF
:104E080091699269936994699569966997699869AE
:104E180099699A699B699C699D691200000E206EC8
:104E2800050E1F6E9EEC40F01F042010D8A41FEF43
:104E380027F021EF27F04BEF27F00001C4B327EF4D
:104E480027F029EF27F04BEF27F06350675C685095
:104E5800800A266E6450800A2658D8B036EF27F0AC
:104E680038EF27F04BEF27F097519D5D9E51800A50
:104E7800266E9851800A2658D8B045EF27F047EF9C
:104E880027F04BEF27F0C483010EDCEC3AF0000E5C
:104E9800206E050E1F6E9EEC40F01F502010D8A407
:104EA80058EF27F05AEF27F073EF27F00001C4A35B
:104EB80060EF27F062EF27F073EF27F0000EDCECCD
:104EC8003AF00001C493070E1E6EB20E1D6E470E17
:104ED8001F6EFD0E206E8BEC40F0ACEF27F0000E3D
:104EE800206E050E1F6E9EEC40F01F042010D8A403
:104EF80080EF27F082EF27F0ACEF27F00001C4A382
:104F080088EF27F08AEF27F0ACEF27F06750635C53
:104F18006450800A266E6850800A2658D8A097EFF9
:104F280027F099EF27F0A8EF27F09D51975D98514A
:104F3800800A266E9E51800A2658D8B0A6EF27F020
:104F4800A8EF27F0ACEF27F0C493000EDCEC3AF0A2
:104F58001200000E476E000E466E000E436E000EE5
:104F6800426E19C00CF01AC00DF01BC00EF01CC028
:104F78000FF01FC010F020C011F0000E11BEFF0E80
:104F8800126E136E0AEC38F00CC044F00DC045F0F8
:104F980045BEDAEF27F0455007E10A0E445CD8B069
:104FA800D8EF27F0DAEF27F0E7EF27F0210E4624B5
:104FB800D96E000E4720DA6E4450300FDF6E464A35
:104FC800472AF2EF27F0210E4624D96E000E47201B
:104FD800DA6E4450370FDF6EE3EF27F019C00CF09C
:104FE8001AC00DF01BC00EF01CC00FF01FC010F04F
:104FF80020C011F0000E11BEFF0E126E136EA5EC4C
:1050080035F00CC019F00DC01AF00EC01BF00FC01F
:105018001CF019501A101B101C10D8A416EF28F0F9
:1050280018EF28F0B5EF27F04606D8A0470630EF6E
:1050380028F0210E4624D96E000E4720DA6E425021
:105048001D24E16E43501E20E26EDFCFE7FF4606C7
:10505800D8A04706424A432A47BE37EF28F035EF23
:1050680028F01DEF28F042501D24D96E43501E2011
:10507800DA6E000EDF6E1200316E31500C0DF3CF78
:105088002FF0F4CF30F0E60E2F24326E000E3020D1
:10509800336E3150120DF350340F346E34C025F096
:1050A800266A31C027F04EEC38F0010E34242B6EFE
:1050B8002C6A000E2C22020E32241F6E000E3320A2
:1050C800206E9EEC40F01FC02DF020C02EF0B1ECF9
:1050D80040F0030E3424256E266A000E2622030EA5
:1050E80032241F6E000E3320206E9EEC40F01F50BD
:1050F800276E4EEC38F0040E3424256E266A000E16
:105108002622040E32241F6E000E3320206E9EECE1
:1051180040F01F50276E4EEC38F0050E3424256EF3
:10512800266A000E2622050E32241F6E000E33203A
:10513800206E9EEC40F01F50276E4EEC38F0060EA5
:1051480032241F6E000E3320206E500E216E020E88
:10515800226E5CEC41F0060E34242B6E2C6A000E95
:105168002C22500E2D6E020E2E6ECCEC3DF0100E41
:1051780034242B6E2C6A000E2C220B0E32241F6E48
:10518800000E3320206E9EEC40F01FC02DF020C092
:105198002EF0B1EC40F01200156E16681768AA0ED2
:1051A8000E6EBB0E0D6E95EC41F0000ED7EC40F084
:1051B8001550D7EC40F00F50D7EC40F01050D7EC1A
:1051C80040F0000E1A6EF3EF28F01A501124D96E31
:1051D800000E1220DA6EDF50D7EC40F01A2A105079
:1051E8001A5CD8A0FAEF28F0FCEF28F0E9EF28F0D5
:1051F800D50EE82EFED700F00001C591000E196EFD
:10520800000E186EE40E00D000D0E82EFCD700D0B7
:1052180000D00001C5A113EF29F015EF29F04BEFDD
:1052280029F0150E136EC60EE82EFED7132EFCD7E6
:1052380000D00001C5919FC210F00201A151A0C287
:1052480013F0146A13C014F0136A1310166E145076
:10525800176E000E1A6E40EF29F0A00E1A24D96EB0
:10526800DA6A020EDA221A501124E16E000E1220B8
:10527800E26EDFCFE7FF1A2A10501A5CD8A047EF7A
:1052880029F049EF29F031EF29F05BEF29F0184AAE
:10529800192A19BE59EF29F0900E185C010E1958F9
:1052A800D8A059EF29F05BEF29F006EF29F016C0D6
:1052B8000FF017C010F0120002019B519AC20EF0B5
:1052C8000F6A0EC00FF00E6A0E26000E0F220CC0D9
:1052D800D9FF0DC0DAFF0EC0DEFF0FC0DDFF20EEE4
:1052E80002F00C50D9260D50DA229CC2DFFF20EEC6
:1052F80003F00C50D9260D50DA229DC2DFFF9F51D2
:105308009EC20EF00F6A0EC00FF00E6A0E26000E37
:105318000F2220EE04F00C50D9260D50DA220EC0D0
:10532800DEFF0FC0DDFF20EE06F00C50D9260D5031
:10533800DA22A0C2DFFF000E126EC1EF29F0A10E23
:105348001224D96EDA6A020EDA22DF500E6E0F6A64
:105358001250020D0CC010F00DC011F0F3501026C1
:10536800F4501122070E1024D96E000E1120DA6EA7
:105378000EC0DEFF0FC0DDFF122A20EE02F00C5037
:10538800D9260D50DA221250DE5CD8B0CEEF29F0C3
:10539800D0EF29F0A3EF29F020EE25F00C50D92604
:1053A8000D50DA22A1C2DFFF20EE26F00C50D926DC
:1053B8000D50DA220201A2390F0B0F0BDF6E20EE1F
:1053C80027F00C50D9260D50DA22A2510F0BDF6EB0
:1053D800120025C027F026C028F0273A283AF00EF8
:1053E800281627500F0B2812F00E2716000E272418
:1053F800296E010E28202A6E25C015F026C016F049
:10540800000E186E0A0E176EC4EC40F0A40E152498
:105418002B6E010E16202C6E2BC01DF02CC01EF01A
:1054280029C010F02AC011F084EC3FF010C01FF022
:1054380011C020F02EEC41F0010E2B241D6E000E41
:105448002C201E6E020E29240C6E000E2A200D6ED2
:1054580039EC3EF0276E27501F6E206A2EEC41F083
:10546800020E2B241D6E000E2C201E6E030E292406
:105478000C6E000E2A200D6E39EC3EF0276E275078
:105488001F6E206A2EEC41F0030E2B241D6E000EB9
:105498002C201E6E040E29240C6E000E2A200D6E80
:1054A80039EC3EF0276E27501F6E206A2EEC41F033
:1054B800050E2924106E000E2A20116E500E126E51
:1054C800020E136E9AEC3EF0000E0201586F040EA5
:1054D8002B241D6E000E2C201E6E500E1F6E020E09
:1054E800206E8BEC40F012000001C387320E931936
:1054F8009411D8A482EF2AF084EF2AF089EF2AF0D9
:10550800080E01014C6FDE0E4B6F500E000193190F
:105518009411D8A492EF2AF094EF2AF099EF2AF088
:10552800090E01014C6F740E4B6F0001E951010126
:105538004B5D0001EA5101014C59D8A0A6EF2AF0B1
:10554800A8EF2AF0B9EF2AF0E9C01DF0EAC01EF072
:1055580023C01FF024C020F08BEC40F01E0E000189
:10556800E927000EEA23FAEF2AF0070E4A6FD00E59
:10557800496FE5EF2AF0000E106E010E116E470E0E
:10558800126EFD0E136EA8EC3BF01E0E01014925AC
:105598001F6E000E4A21206E000E216E010E226E33
:1055A8005CEC41F049C11DF04AC11EF0000E1F6EAF
:1055B800010E206E8BEC40F01E0E01014927000EF3
:1055C8004A2349514B5D4A514C59D8B0EEEF2AF065
:1055D800F0EF2AF0BFEF2AF04BC11DF04CC11EF0CE
:1055E80023C01FF024C020F08BEC40F00001C397CB
:1055F8001200020E0F6E000E106E460E116E000E97
:10560800126EFF0ED0EC28F0000E496E6DEF2BF0F5
:105618004950020D000EF324D96E030EF420DA6E01
:10562800DE50DE10D8B41BEF2BF01DEF2BF06CEF23
:105638002BF04950040D1E0EF324D96E030EF420EE
:10564800DA6EDECF1EF0DECF1FF0DECF20F0DECF29
:1056580021F04950020D000EF324D96E030EF420F8
:10566800DA6EDECF43F0DDCF44F043C0D9FF44C04B
:10567800DAFFDECF0CF0DDCF0DF0000E0DBEFF0E11
:105688000E6E0F6E010E4CEC21F00CC01AF00DC01E
:105698001BF00EC01CF00FC01DF0D1EC0DF01AC0AD
:1056A80033F01BC034F01CC035F01DC036F005ECDB
:1056B8002CF033C03DF034C03EF05A0E4924D96E68
:1056C800DA6A030EDA22DF50456E452871EC3AF0AB
:1056D800492A6A50020D4950436E446AF350435CAC
:1056E8004450800A456EF450800A4558D8A07FEF90
:1056F8002BF081EF2BF00CEF2BF01200020E1B6E3B
:105708004D0E1A6E740EE82EFED71A2EFCD71B2EDD
:10571800FAD700D05A0E0E6EA50E0D6E95EC41F01C
:10572800040ED7EC40F0830ED7EC40F015C00DF016
:1057380016C00EF095EC41F0D8901930D7EC40F037
:10574800850EE82EFED700F0000E1D6E000E1C6EB2
:10575800DFEF2BF0060E1A6E300EE82EFED71A2E4B
:10576800FCD700D00001C5A1BCEF2BF0BEEF2BF099
:10577800DDEF2BF0C591000E1E6ED2EF2BF0A10EBF
:105788001E24D96EDA6A020EDA221E501724E16E40
:10579800000E1820E26EDFCFE7FF1E2A19501E5CAC
:1057A800D8A0D9EF2BF0DBEF2BF0C3EF2BF0EAEF0B
:1057B8002BF01C4A1D2A900E1C5C010E1D58D8A007
:1057C800E8EF2BF0EAEF2BF0AEEF2BF0040E1964A4
:1057D800F0EF2BF0F2EF2BF0FAEF2BF01E5017241E
:1057E800D96E000E1820DA6E000EDF6E010E0C6EF8
:1057F800000E0D6E000E0E6E000E0F6E5EEC3CF08D
:105808001200353436343C6E3C50D8A40EEF2CF0E0
:1058180010EF2CF01AEF2CF0000E336E000E346EE1
:10582800000E356E000E366E87EF2CF033C037F061
:1058380034C038F035C039F036C03AF0200E2AEFBF
:105848002CF0D8903A32393238323732E82E25EFF8
:105858002CF037503B6E358EFF0E3316FF0E341684
:10586800FF0E3516000E3616960E3C5E3CBE41EF16
:105878002CF03FEF2CF057EF2CF03C50800A970F9C
:10588800D8B049EF2CF04BEF2CF04DEF2CF010EF87
:105898002CF0D89036323532343233323C3E4DEF2C
:1058A8002CF06FEF2CF01F0E3C645DEF2CF05FEFD7
:1058B8002CF067EF2CF010EF2CF0D89033363436FC
:1058C800353636363C063C50D8A46DEF2CF06FEFD9
:1058D8002CF061EF2CF03B50D8B475EF2CF077EF3B
:1058E8002CF07FEF2CF0361E351E341E336C000E64
:1058F80034223522362233C033F034C034F035C078
:1059080035F036C036F012000001BF51D8B48FEF21
:105918002CF091EF2CF001EF2DF0000E206ED20E3E
:105928001F6E9EEC40F01FC065F020C066F0000EB0
:10593800206ED30E1F6E9EEC40F01FC099F020C061
:105948009AF0000E206ED40E1F6E9EEC40F01FC021
:1059580063F020C064F0000E206ED50E1F6E9EEC22
:1059680040F01FC097F020C098F0000E206ED60EB1
:105978001F6E9EEC40F01FC093F020C094F0000E04
:105988002C6E010E2B6E65C02DF066C02EF0B1ECAA
:1059980040F0000E2C6E030E2B6E99C02DF09AC0AD
:1059A8002EF0B1EC40F0000E2C6E050E2B6E63C08D
:1059B8002DF064C02EF0B1EC40F0000E2C6E070EF6
:1059C8002B6E97C02DF098C02EF0B1EC40F0000E71
:1059D8002C6EFA0E2B6E93C02DF094C02EF0B1EC05
:1059E80040F0010EC5EC0AF0510EB1EC41F0A5EC07
:1059F8003DF02DEC32F006EF2DF0520EB1EC41F0F7
:105A08001DEC41F01200AF0E0C6E010E0D6E60EC35
:105A180029F0A50E0101AF1907E15A0EB019D8A453
:105A280018EF2DF01AEF2DF081EF2DF00001C59140
:105A3800150E0101D419D8A424EF2DF026EF2DF06E
:105A480028EF2DF039EC3AF0190E0101D419D8A439
:105A580030EF2DF032EF2DF034EF2DF089EC16F009
:105A6800230E0101D419D8A43CEF2DF03EEF2DF000
:105A780040EF2DF088EC2CF0250E0101D419D8A4A4
:105A880048EF2DF04AEF2DF04CEF2DF010EC3BF0E5
:105A9800290E0101D419D8A454EF2DF056EF2DF09A
:105AA80058EF2DF0DFEC3CF0310E0101D419D8A4E9
:105AB80060EF2DF062EF2DF064EF2DF0CFEC11F0D8
:105AC800470E0101D419D8A46CEF2DF06EEF2DF01C
:105AD80070EF2DF049EC36F0490E0101D419D8A425
