:0400000050EF01F0CC
:100018007780D8CF04F0E8CF05F0E0CF06F0D9CF4D
:1000280007F0DACF08F09EAA54D0959C838C010E75
:100038000101726F900E716F000E706E000E6F6E80
:10004800A0690001F581AA0E01016F6F040E706F9F
:100058009598838827D09EAA22D0839883886FC1D9
:10006800D9FF70C1DAFFAECFDFFF70BE06D0090E30
:100078006F5C010E7058D8B004D06F4A702A6F4B6D
:10008800702BAEC4E8FF180AD8A404D01F0E726FF4
:10009800400E03D0010E726F900E716F03D071077E
:1000A800D8A0720771517211D8A4D5D78398ABA282
:1000B80010D0AB98AB88AECF71F1726BAECF71F147
:1000C800726BAECF71F1726B000EE8CFAAF400012B
:1000D800F5839EA0B3D09E903C0ECF6EB40ECE6E2C
:1000E800010E01019F6FA8B102D0000E9F6F000E94
:1000F800706E010E6F6E0ED0510E6F24D96E010E08
:100108007020DA6EDF50D8A403D0000E01019F6F73
:100118006F4A702A7450016E026A6F50015C025077
:10012800800A036E7050800A0358D8B0E5D70101E1
:100138009F05D8A41AD004000101A891000E706E82
:10014800010E6F6E70BE06D070500FE10F0E6F5C1F
:10015800D8B00BD0510E6F24D96E010E7020DA6E14
:10016800000EDF6E6F4A702AEDD7F50E0101605D53
:10017800010E6159D8A002D0819E01D0818E99517B
:100188009A11D8B405D0320E995F000E9A5B06D04A
:1001980097C199F198C19AF10001F58D320E0101CC
:1001A8008927000E8A23320E9B27000E9C23755048
:1001B800D8B488BF04D0CE0E8727FF0E8823320E0E
:1001C8008527000E8623320E6027000E6123E80E75
:1001D800605D030E6159D8A031D00001F2A912D098
:1001E800762A3B0E76640ED0000E766EF12B3B0E0F
:1001F800F16508D0000EF16FF02B630EF06502D0A8
:10020800000EF06F000E0101616F000E606F622B2F
:100218007350D8A473063B0E626510D0000E626F4F
:10022800632B954B962B3B0E636508D0000E636FCE
:10023800642B170E646502D0000E646FF2B2F2925E
:10024800F2A41ED00D0EE82EFED700F0000ED76ED9
:10025800E10ED66EF29401018F519011D8B405D0F9
:100268008F07D8A09007818C01D0819C9D519E1149
:10027800D8B405D09D07D8A09E07818A01D0819A5D
:1002880008C0DAFF07C0D9FF06C0E0FF05C0E8FFD5
:1002980004C0D8FF779010002CEF3FF0640E096E71
:1002A800000E0A6E000E0B6E000E0C6E12EC46F07D
:1002B800D388D38AD38CD390D3929B8CEF0E926E33
:1002C800010E936EF00E946EE30E956E9668D59AB5
:1002D800D596D582D582D584F194F28AF290F29897
:1002E8009E909F900B0ECF6EBA0ECE6ECD92CD889B
:1002F800CD8ACD8CCD869D80CD80F28CF28E000E7D
:10030800166EC20E176E010E186E000E196E42ECB4
:1003180043F0DCEC4BF0A00E00019A6F860E9B6F49
:10032800010E9C6F000E9D6FD6EC3EF0F40E096E28
:10033800010E0A6E000E0B6E000E0C6E12EC46F0EB
:10034800000E01018C6F000E8B6F819E000E906F66
:10035800000E8F6F819C000E9E6F000E9D6F819A1C
:10036800000E0E6EFA0E0D6E15EC48F00DC0E5F09D
:100378000EC0E6F0320E0001E519E611D8A402D04D
:10038800090E0DD0500EE519E611D8A402D00C0EB6
:1003980006D0510EE519E611D8A402D0080EEA6F6E
:1003A800000E0E6E220E0D6E15EC48F00DC079F39E
:1003B8000EC07AF30301792917E17A29D8A414D059
:1003C800000E296E220E286E000E2B6E000E2A6E6D
:1003D80031EC4AF0000E296EE80E286E000E2B6EE6
:1003E800000E2A6E31EC4AF00301794B7A2B000E8D
:1003F800296E220E286E79C32AF07AC32BF031ECCD
:100408004AF00001F499000E0A6E340E096E4FECA2
:1004180048F0FF0AD8A480D0340E206EFC0E216E5E
:10042800B2EC38F0370E206EFE0E216EB2EC38F0CA
:100438000A0E306E000E85EC36F0D1EC46F021EC59
:1004480045F0E2EC43F0000E756E000E0001EF6F10
:10045800ACEC4BF0000E236E100E226E000E246ED4
:1004680046EC44F0000E296E090E286E000E2B6E25
:100478000A0E2A6E31EC4AF0000E296E0B0E286E19
:10048800400E2A6EE20E2B6E010E2C6E000E2D6EA3
:1004980084EC49F0000EBCEC0CF0000E236E110E3B
:1004A800226E000E246E46EC44F0000E236E120EEF
:1004B800226E000E246E46EC44F068EC37F0000E15
:1004C8001F6E000E206E000E216E000E226E000EB2
:1004D800246E000E236E000EC8EC49F0020E1F6E4B
:1004E800000E206E000E216E000E226E000E236E8E
:1004F800000E246E000E256E000E266E000ED5EC42
:1005080048F0000E296EFA0E286E000E2B6E320E81
:100518002A6E31EC4AF006D0690E206EFD0E216E6F
:10052800B2EC38F0ECEC3BF0010EBCEC0CF0000E39
:100538000E6E0B0E0D6EBCEC47F00DC069F10EC0CF
:100548006AF10FC06BF110C06CF108EC42F050EC8E
:100558003CF008EC49F0020E1B6E000E1C6E000EFB
:100568001D6E000E1E6E000E6EEC3DF01BC0DFF01F
:100578001CC0E0F01DC0E1F01EC0E2F0E80E096EFC
:10058800030E0A6E000E0B6E000E0C6E12EC46F097
:1005980092EC1BF0C40E096E090E0A6E000E0B6E6B
:1005A800000E0C6E12EC46F0000E03017B6F0E0E6F
:1005B8007B6501D008D0040003017B510DEC2AF0C3
:1005C80003017B2BF4D7000E7C6F070E7C6501D0EE
:1005D80009D004007CC321F0226A84EC31F00301C5
:1005E8007C2BF3D7000E0E6E0B0E0D6EBCEC47F095
:1005F8000DC069F10EC06AF10FC06BF110C06CF14B
:1006080008EC42F085EC11F050EC3CF008EC49F0B5
:10061800D5EC3FF04AEC42F0000E0001F96F000EF5
:10062800F86F000E0101F36F000EF26F000EA76F56
:10063800000E8A6F000E896F000EA56F000E7E6F88
:10064800000E7D6F000E7C6F000E7B6F000E726EC9
:10065800000E716E000E826F000E816F000E806FAB
:10066800000E7F6F000EA66F000E9DEC47F0000E87
:100678000101616F000E606F000E626F000E766EF2
:10068800F2C0A2F1000E736EB1EC3CF03CEC21F02C
:10069800000E186E0F0E176E49EC4BF0000E1C6E14
:1006A800400E1B6E000E1E6E000E1D6E39EC4BF0D8
:1006B8000001F49FF391F393F395F397000E186EEE
:1006C8000F0E176E49EC4BF0000E1C6E010E1B6EE0
:1006D800000E1E6E000E1D6E39EC4BF0959A839A33
:1006E8000001F5930101A8810001F487E90E0101D9
:1006F800895D030E8A59D8A019D0000E8A6F000EA2
:10070800896F87EC3BF012C0F8F013C0F9F00101D3
:10071800F2510001F81906E10101F3510001F9193C
:10072800D8B404D0F8C0F2F1F9C0F3F10001F4979D
:10073800F487050E0101626109D0190E0001F8194C
:10074800F911D8B403D0000E9DEC47F00001F2B9BE
:100758007DEC3EF0D5EC3FF04AEC42F00001F49716
:100768007DEC2BF039EC26F085EC11F005EC2EF041
:10077800510E0001E519E611D8B481EC3FF062ECA6
:1007880030F0C9EC2AF004EC23F00001F5A344D0C2
:10079800000E01019E6FC80E9D6F3ED0420EF1EC17
:1007A8004BF0000E1C6E160E1B6E000E1E6E000E19
:1007B8001D6E39EC4BF0020E0101A66F3DD0000E04
:1007C8001D6E060E1C6EB3EC4AF0F00E1C181D10C0
:1007D800D8A40DD0000ECDEC44F0000E0001F06F4F
:1007E800000EF16F000E0101A66F7DEC3EF0000EC9
:1007F8001D6E060E1C6EB3EC4AF0FA0E1C181D1086
:10080800D8A41AD0000E0101A66F3A0E186E980EE1
:10081800176E21EC49F010D00101A6510001DB6FE1
:10082800DC6BDC51000AD8A407D0DB51010AD8B42C
:10083800B5D7030AD8B4C3D70001F487D7EC4AF078
:100848000001F4AFACEC46F0F497F487D5EF08F06C
:10085800000E03017E6F090E7E6501D033D0070EAE
:100868007E251C6E1D6A000E1D22B3EC4AF01C0486
:100878001D10D8A424D0070E03017E251B6E1C6A08
:10088800000E1C22000E1E6E000E1D6E39EC4BF081
:100898007EC3EDF0050E0001ED6109D0130EEC6F7B
:1008A800000E186E1B0E176E49EC4BF008D0150E93
:1008B800EC6F000E186E1C0E176E49EC4BF003011E
:1008C8007E2BC9D74AEC1FF010EF09F0000E1D6E01
:1008D800010E1C6EB3EC4AF01C041D10D8A410EFD6
:1008E80009F0000E1C6E010E1B6E000E1E6E000E2F
:1008F8001D6E39EC4BF098EC35F010EF09F0010162
:10090800A751D8A405D0010E9DEC47F00101A72BF3
:10091800000E1D6E980E1C6EB3EC4AF01C041D10E0
:10092800D8A40DD0000E1C6E980E1B6E000E1E6E05
:10093800000E1D6E39EC4BF0010E9DEC47F0000ED9
:100948001D6EAE0E1C6EB3EC4AF01C041D10D8A42C
:1009580010EF09F0000E1C6EAE0E1B6E000E1E6E20
:10096800000E1D6E39EC4BF09BEC45F010EF09F0D2
:10097800000EEE6F070EEE6501D02FD0200EEE258B
:100988001C6E1D6A000E1D22B3EC4AF01C041D10DB
:10099800D8A420D0200E0001EE251B6E1C6A000E84
:1009A8001C22000E1E6E000E1D6E39EC4BF0ECC0C2
:1009B80017F0186A49EC4BF0C70E176E010E186E47
:1009C8000001EE511FEC39F0010E216E0001ED51CE
:1009D800BDEC3AF00001EE2BCDD7000E1D6E110EC6
:1009E8001C6EB3EC4AF01C041D10D8A40FD0000EE6
:1009F8001C6E110E1B6E000E1E6E000E1D6E39EC65
:100A08004BF0ECC017F0186A49EC4BF0000E1D6E65
:100A1800120E1C6EB3EC4AF01C041D10D8A4FCD3B3
:100A2800000E1C6E120E1B6E000E1E6E000E1D6E4A
:100A380039EC4BF0000E0101CD6FCE0E0D6E010E9C
:100A48000E6E360E0F6EFD0E106EF7EC44F0000EB3
:100A58000101CC6F000ECB6F000ECA6F000EC96F7C
:100A6800000EC86F000EC76F000E216E0001ED5119
:100A7800BDEC3AF0ECC017F0186A49EC4BF0CCD357
:100A8800000E03017D6F38D07D511E0DF3CFDBF0D2
:100A9800F4CFDCF0170E0001DB251C6E100EDC21F4
:100AA8001D6EB3EC4AF01C041D10D8A423D003011A
:100AB8007D511E0DF3CFDBF0F4CFDCF0170E0001F3
:100AC800DB251B6E100EDC211C6E000E1E6E000E48
:100AD8001D6E39EC4BF003017D5150EC20F0000EF7
:100AE800186E230E176E49EC4BF0A2EC4BF076EC27
:100AF8000FF008D003017D2B0001EA5103017D5D51
:100B0800D8A0C2D7000E1D6E300E1C6EB3EC4AF092
:100B18001C041D10D8A40CD0000E1C6E300E1B6EC9
:100B2800000E1E6E000E1D6E39EC4BF068EC37F0AF
:100B3800B1EC3CF0000E1D6EAF0E1C6EB3EC4AF02B
:100B48001C041D10D8A468D3000E1C6EAF0E1B6EBB
:100B5800000E1E6E000E1D6E39EC4BF018EC47F0BF
:100B68005BD3100E010169190001DB6F2F0E010123
:100B78006A190001DC6FBA0E01016B190001DD6F03
:100B8800E40E01016C190001DE6FDB1D0301736FB8
:100B98000001DC1D0301746F0001DD1D0301756F89
:100BA8000001DE1D0301766F73C316F074C317F0DE
:100BB80075C318F076C319F0B30E1A6E020E1B6EC9
:100BC800000E1D6E100E1C6E1FEC35F0060E1B6E0F
:100BD8007C0E1A6EB30E1C6E020E1D6E44EC4AF0AB
:100BE800F40E096E010E0A6E000E0B6E000E0C6EEE
:100BF800A2EC44F0010E1D6E820E1C6EB3EC4AF09E
:100C08001C041D10D8A408D3010E1C6E820E1B6E86
:100C1800000E1E6E000E1D6E39EC4BF03BEC15F00D
:100C2800FBD2F487F4BFF2A70CD0F2A10AD0470E8A
:100C3800F1EC4BF0000E186E0F0E176E49EC4BF0EE
:100C4800EBD2030EF76F100EF66FF7BF06D01D0E2E
:100C5800F65D030EF759D8B077D2F651F00FEB6F67
:100C6800F6C01CF0F7C01DF0B3EC4AF00E0E1C18CD
:100C78001D10D8A489D10001EF51D8B476D1320E15
:100C8800E519E611D8A403D0EBC0E3F0E46B500EED
:100C9800E519E611D8A406D0EBEC45F0DB6FDB5183
:100CA800E36FE46BE4BF06D0E45103E1080EE35DB3
:100CB800D8B020D1100EEB251B6E1C6A030E1C2227
:100CC800010EEB251D6E1E6A000E1E2239EC4BF03C
:100CD800E3C015F0E4C016F0000E186E0A0E176E89
:100CE8006AEC4AF0FD0E15241B6E060E16201C6ECB
:100CF800010EE3C0DBF0E4C0DCF0DBC0DCF0000197
:100D0800DB6BDB111D6EDC511E6E39EC4BF0E3C062
:100D180015F0E4C016F0000E186E0A0E176E6AEC95
:100D28004AF0FB0E15241B6E060E16201C6E0001E1
:100D3800EB51020D370EF324D96E010EF420DA6E52
:100D4800DECF1DF0DDCF1EF039EC4BF0680E000150
:100D5800E325D96E020EE421DA6EE3C0DFFF770ED9
:100D6800E325D96E020EE421DA6EEB29DF6E860EDA
:100D7800EB25D96EDA6A020EDA22EB29DF6EEB5127
:100D8800020D370EF324D96E010EF420DA6ED890D6
:100D9800E335E16EE435E26E950EE126020EE222BD
:100DA800DECFE6FFDDCFE5FF0E0EDB6F020EDC6F58
:100DB8001E0EDB27000EDC23D890E335D96EE43510
:100DC800DA6ED890D936DA36DB51D926DC51DA22F8
:100DD800000EDE6E000EDE6E800EDE6E3F0EDD6EE5
:100DE800020EEB6508D0010EEB250301776F786BD7
:100DF800000E782304D0EBC077F30301786B77C338
:100E0800DBF078C3DCF0D8900001DB37DC37A90EC3
:100E1800DD6F010EDE6FDB51DD27DC51DE23D8905C
:100E2800E335D96EE435DA6E0E0ED926020EDA22D3
:100E3800DDC0DEFFDEC0DDFF0E0EDB6F020EDC6FF5
:100E48001E0EDB27000EDC23D890E335D96EE4357F
:100E5800DA6ED890D936DA36DB51D926DC51DA2267
:100E6800000EDE6E000EDE6E800EDE6E3F0EDD6E54
:100E7800EB51D8A41CD00E0EDB6F020EDC6F1E0ED9
:100E8800DB27000EDC23D890E335D96EE435DA6E23
:100E9800D890D936DA36DB51D926DC51DA22550E0C
:100EA800DE6EC10EDE6EE80EDE6E3E0EDD6EEB050A
:100EB800D8A41CD00E0EDB6F020EDC6F1E0EDB27D3
:100EC800000EDC23D890E335D96EE435DA6ED8907D
:100ED800D936DA36DB51D926DC51DA22CD0EDE6E70
:100EE800CC0EDE6E4C0EDE6E3D0EDD6E020EBCECE0
:100EF8000CF026D1E3C015F0E4C016F0000E186E11
:100F08000A0E176E6AEC4AF0FD0E15241B6E060ECB
:100F180016201C6E0001E351DC6FDB6B000EDB1149
:100F28001D6E0A0EDC111E6E39EC4BF0E3C015F095
:100F3800E4C016F0000E186E0A0E176E6AEC4AF03E
:100F4800FB0E15241B6E060E16201C6EFF0E1E6E61
:100F58001D6839EC4BF0F6C01BF0F7C01CF0FF0E13
:100F68001E6E1D6839EC4BF0EBD0E8EC4AF0F6C089
:100F78001BF0F7C01CF0FF0E1E6E1D6839EC4BF01D
:100F8800510EF1EC4BF0DCD0F6C01CF0F7C01DF0B0
:100F9800B3EC4AF01D5004E10F0E1C5CD8A0D0D071
:100FA800F6C01CF0F7C01DF0B3EC4AF01D5003E189
:100FB8001F0E1C5CD8B0C4D00001EF51D8B48DD03E
:100FC800770E096E020E0A6EEB290B6E8FEC4AF053
:100FD80003017F6F770E0001EB25D96EDA6A020EE6
:100FE800DA22DF50DB6FDB050301726FF6C01BF0FE
:100FF800F7C01CF0FF0E1E6E1D6839EC4BF00301A4
:101008007F510A0DF3CFDBF0F4CFDCF0FD0E0001C9
:10101800DB251B6E060EDC211C6E0A0E1E6E000EF2
:101028001D6E39EC4BF003017F510A0DF3CFDBF055
:10103800F4CFDCF0FB0E0001DB251B6E060EDC2175
:101048001C6EFF0E1E6E1D6839EC4BF003017F51BC
:10105800020D0E0EF324D96E020EF420DA6E000E85
:10106800DE6E000EDD6E680E7F25D96EDA6A020E1E
:10107800DA220A0EDF6E770E7F25D96EDA6A020E43
:10108800DA22FF0EDF6E860E0001EB25D96EDA6AD2
:10109800020EDA22FF0EDF6E03017F51020D950E5C
:1010A800F324D96E020EF420DA6EFF0EDE6EFF0E08
:1010B800DD6E7F51040D2C0EF324D96E020EF42040
:1010C800DA6E000EDE6E000EDE6E000EDE6E000EB4
:1010D800DD6E020EBCEC0CF033D0E8EC4AF0510E99
:1010E800F1EC4BF0320E0001E519E611D8A411D04D
:1010F800F6C01BF0F7C01CF0770EEB25D96EDA6A44
:10110800020EDA22DF50DB6FDB511D6E1E6A39ECEE
:101118004BF0500E0001E519E611D8A411D0F6C025
:101128001BF0F7C01CF0860EEB25D96EDA6A020EAA
:10113800DA22DF50DB6FDB511D6E1E6A39EC4BF093
:101148000001F64BF72B81D5F49766D08AEC4BF06B
:10115800000E0001EE6F070EEE6501D05DD0200E87
:10116800EE251C6E1D6A000E1D22B3EC4AF01C040D
:101178001D10D8A410D0200E0001EE251B6E1C6A8D
:10118800000E1C22000E1E6E000E1D6E39EC4BF078
:101198006AEC40F041D00001EE2BDDD778EC13F07B
:1011A8003BD0F8C0DBF0F9C0DCF0DC51000AD8A471
:1011B80033D0DB51130AD8B42CEF04F0060AD8B4A4
:1011C8002CEF04F0020AD8B46AEF04F00E0AD8B47F
:1011D80083EF04F0020AD8B4BCEF04F0070AD8B4CD
:1011E800BCEF04F0010AD8B44BD4020AD8B4B9D47D
:1011F8003C0AD8B416D50C0AD8B4A8D71E0AD8B455
:10120800CDD7B50AD8B42CEF04F0010AD8B438D435
:10121800020AD8B46AEF04F01EEC33F076EF03F05C
:10122800BAC5ACF0BBC5BAF0BCC5B9F0BDC5B8F01D
:10123800BEC5B7F02CD3BBC53CF025EEBAF0DF50E5
:101248003D6E3C50226E3DC023F0BCC524F046ECF8
:1012580044F0030EA1EC48F0CEEC4BF0F6EC4BF06A
:101268001200BBC53CF025EEBAF0DF503D6E3C5095
:10127800096E3DC00AF04FEC48F00001AE6F010E58
:10128800A1EC48F00001AE517DEC4BF01200BBC55B
:101298003CF03C50BAC53DF03DC03EF03F6A3EC010
:1012A8003FF03E6A3E100001AA6F3F50AB6FBDC5CC
:1012B8003CF03C50BCC53DF03DC03EF03F6A3EC0EE
:1012C8003FF03E6A3E10A86F3F50A96FAAC028F0B1
:1012D800ABC029F0A8C02AF0A9C02BF031EC4AF025
:1012E800030EA1EC48F0B8D7BBC53CF025EEBAF028
:1012F800DF503D6E3C500D6E3DC00EF015EC48F0D1
:101308000DC0B4F00EC0B5F0020EA1EC48F0B4C0A8
:101318000AF0B5C00BF0EAEC4BF01200BBC53CF08C
:1013280025EEBAF0DF503D6E3C50286E3DC029F0E6
:10133800BC0E2A6E050E2B6E5CEC47F0030EA1EC7A
:1013480048F0CEEC4BF01200BBC53CF025EEBAF0ED
:10135800DF503D6E3C500D6E3DC00EF0B30E0F6E6B
:10136800020E106E86EC48F04A0EA1EC48F0B30E5F
:101378000A6E020E0B6E84EC41F01200B7C01FF02B
:10138800B8C020F0B9C021F0BAC022F0BFC523F020
:1013980025EEBAF0DF50C5EC4AF0030EA1EC48F098
:1013A800D0D7B7C01BF0B8C01CF0B9C01DF0BAC088
:1013B8001EF025EEBAF0DF50A1EC4AF00001AE6F46
:1013C800010EA1EC48F00001AE517DEC4BF012008B
:1013D800B7C01FF0B8C020F0B9C021F0BAC022F0E1
:1013E800C0C53CF03C50BFC53DF03DC03EF03F6A33
:1013F8003EC03FF03E6A3E10236E3F50246E25EEFD
:10140800BAF0DF50C8EC49F0030EA1EC48F099D7C8
:10141800B7C01BF0B8C01CF0B9C01DF0BAC01EF0B0
:1014280025EEBAF0DF50BBEC48F01BC0B4F01CC08E
:10143800B5F0020EA1EC48F06AD7B7C01BF0B8C0EF
:101448001CF0B9C01DF0BAC01EF025EEBAF0DF508E
:101458006EEC3DF01BC0B0F01CC0B1F01DC0B2F086
:101468001EC0B3F0040EA1EC48F00001B3517DECAE
:101478004BF00001B2517DEC4BF00001B1517DEC15
:101488004BF00001B0517DEC4BF01200BFC5ADF040
:101498000001AD51A1EC48F0B7C010F0B8C011F090
:1014A800B9C012F0BAC013F0ADC014F0000E156E3A
:1014B800030E166E0001AC51D5EC23F01200B7C034
:1014C8000DF0B8C00EF0B9C00FF0BAC010F0BFC52B
:1014D80011F0C00E126E050E136E25EEBAF0DF5035
:1014E8008AEC28F0030EA1EC48F02BD7B7C00DF01A
:1014F800B8C00EF0B9C00FF0BAC010F0BF0E116E30
:10150800050E126E25EEBAF0DF5098EC32F0030E9D
:10151800A1EC48F016D7B7C010F0B8C011F0B9C0A8
:1015280012F0BAC013F0B30E146E020E156E25EE4B
:10153800BAF0DF5000EC27F0B30E096E020E0A6E07
:101548003AEC47F00950A1EC48F011D7BCC53CF083
:1015580025EEBBF0DF503D6E3C50286E3DC029F0B3
:1015680025EEBAF0DF5073EC45F0030EA1EC48F01D
:10157800E8D6020EA1EC48F00001F0517DEC4BF0EA
:101588000001F1517DEC4BF01200800E1B6E8A0EAB
:101598001C6EC6EC27F0090EA1EC48F025EEBAF057
:1015A800DF50D8A406D0800E0A6E0B6A84EC41F096
:1015B80012008A0E0A6E0B6A84EC41F01200000ECB
:1015C8000001B66F070EB66501D00ED0BA0EB6256B
:1015D800D96EDA6A050EDA22B651940FE16EE26A24
:1015E800DFCFE7FFB62BEED7000E9C6F000EB66F6D
:1015F800070EB66501D00ED0C20EB625D96EDA6ACE
:10160800050EDA22B6519E0FE16EE26ADFCFE7FFE0
:10161800B62BEED7000EA66F940E0C6E9E0E0D6EB6
:1016280038EC2FF01200BBC53CF025EEBAF0DF50C5
:101638003D6E3C501A6E3DC01BF0BDC53FF03F509B
:10164800416E406A25EEBCF0DF50426E436A40505E
:1016580042101C6E415043101D6EF9EC4AF0030E07
:10166800A1EC48F06ED6838ABBC53CF0BAC53DF004
:101678003D503F6E3E6A3C503E241C6E000E3F209B
:101688001D6EDEEC49F01CC0B4F01DC0B5F0839AA5
:10169800838AB30E096E020E0A6E3AEC47F00950BF
:1016A800A1EC48F0B4C00AF0B5C00BF0EAEC4BF07E
:1016B800839A1200BBC53CF025EEBAF0DF503D6EB0
:1016C8003C50176E3DC018F021EC49F0030EA1EC18
:1016D80048F037D6BBC53CF025EEBAF0DF503D6E7A
:1016E8003C50176E3DC018F049EC4BF0030EA1ECCE
:1016F80048F027D625EEBAF0DF50F1EC4BF0030E98
:10170800A1EC48F01ED6000E0E6E090E0D6E15ECFB
:1017180048F00DC0B4F00EC0B5F0020EA1EC48F0D0
:10172800F6D50501BA51040F0DEC2AF0030EA1EC11
:1017380048F007D6010EA1EC48F074507DEC4BF050
:1017480012000A0E306E000E85EC36F0000E000115
:10175800AF6F0E0EAF6501D006D0AF510DEC2AF079
:101768000001AF2BF6D7030EA1EC48F0EAD521EC27
:1017780022F0030EA1EC48F0E4D5BBC53CF025EE01
:10178800BAF0DF503D6E3C501A6E3DC01BF0BC0EE7
:101798001C6E050E1D6E44EC4AF0030EA1EC48F0D9
:1017A800D0D5BBC53CF025EEBAF0DF503D6E3C50BD
:1017B8001C6E3DC01DF0B30E1E6E020E1F6E63EC54
:1017C8004BF0B30E096E020E0A6E3AEC47F0095060
:1017D800A1EC48F0CCD5000E1B6E000E1C6E000E5E
:1017E8001D6E000E1E6E000EBBEC48F01BC0B4F060
:1017F8001CC0B5F00001B44BB52B020EA1EC48F0AB
:1018080086D525EEBBF0DF50D8B403D00001F381B4
:101818003AD00001F39137D025EEBBF0DF50D8B4B1
:1018280003D00001F3832FD00001F3932CD025EED1
:10183800BBF0DF50D8B403D00001F38524D00001F9
:10184800F39521D025EEBBF0DF50D8B403D00001CA
:10185800F38719D00001F39716D025EEBAF0DF50C0
:101868003C6E3D6A3D50000AD8A40DD03C50020A97
:10187800D8B4C7D7010AD8B4CFD7070AD8B4D7D7AE
:10188800010AD8B4DFD7030EA1EC48F05AD525EEEB
:10189800B8F0DF503C6E3D6A3D50000AD8A41200F3
:1018A8003C50080AD8B4C7D4010AD8B4DAD4030A19
:1018B800D8B4EDD4010AD8B417D5070AD8B42ED5B0
:1018C800010AD8B441D51C0AD8B458D5030AD8B4EB
:1018D80068D5010AD8B47CD5070AD8B499D5010AC5
:1018E800D8B404D6030AD8B416D6010AD8B4E7D5B2
:1018F8000F0AD8B4CBD5010AD8B428D6390AD8B437
:1019080092D6010AD8B4AFD6030AD8B436D7010A9A
:10191800D8B447D7070AD8B4CDD6010AD8B4DAD68E
:10192800030AD8B4E7D6010AD8B404D70F0AD8B442
:10193800EAD6050AD8B41DD6030AD8B426D6010AB1
:10194800D8B43DD66D0AD8B4ECD6010AD8B4F9D6C5
:10195800070AD8B40CD7010AD8B46FD5030AD8B48B
:1019680012000F0AD8B437D7030AD8A4120075D7C3
:10197800346E6AEC2DF0A4D2000E3C6E3C50020D81
:10198800950EF324D96E020EF420DA6EFF0EDE6E89
:10199800FF0EDD6E680E3C24D96EDA6A020EDA227A
:1019A8000A0EDF6E770E3C24D96EDA6A020EDA224E
:1019B800FF0EDF6E860E3C24D96EDA6A020EDA223A
:1019C800FF0EDF6E3C50020D0E0EF324D96E020E90
:1019D800F420DA6E000EDE6E000EDD6E3C50040D53
:1019E8002C0EF324D96E020EF420DA6E000EDE6E91
:1019F800000EDE6E000EDE6E000EDD6E130E3C2451
:101A0800226E236A000E2322860E3C24D96EDA6ADF
:101A1800020EDA22DF50246E46EC44F0EA0E3C2433
:101A2800226E236A000E2322770E3C24D96EDA6ACE
:101A3800020EDA22DF50246E46EC44F0240E3C24D9
:101A4800226E236A000E2322680E3C24D96EDA6ABD
:101A5800020EDA22DF50246E46EC44F0100E3C24CD
:101A68001B6E1C6A030E1C22FF0E1E6E1D6839ECCD
:101A78004BF03C500A0DF3CF2EF0F4CF2FF0FD0EB3
:101A88002E241B6E060E2F201C6E0A0E1E6E000ED4
:101A98001D6E39EC4BF03C500A0DF3CF2EF0F4CF0D
:101AA8002FF0FB0E2E241B6E060E2F201C6EFF0E31
:101AB8001E6E1D6839EC4BF03C2A0C0E3C645ED758
:101AC8001200000E0E6E130E0D6E860E0F6E020EB5
:101AD800106E0F0E116E6CEC49F0000E0E6EEA0ED1
:101AE8000D6E770E0F6E020E106E0F0E116E6CECEF
:101AF80049F0000E0E6E240E0D6E680E0F6E020E6B
:101B0800106E0F0E116E6CEC49F0000E3C6E860ED6
:101B18003C24D96EDA6A020EDA22DF50376E372893
:101B2800D8B40CD0100E3C241B6E1C6A030E1C2269
:101B380037C01DF01E6A39EC4BF00BD0100E3C2458
:101B48001B6E1C6A030E1C22FF0E1E6E1D6839ECEC
:101B58004BF03C2A0C0E3C64DAD7000E3C6E680E43
:101B68003C24D96EDA6A020EDA22080EDF6017D03A
:101B7800770E3C24D96EDA6A020EDA22DF502E6E16
:101B88002F6AD8902E362F36350E2E24D96E010E98
:101B98002F20DA6EDECF39F0DDCF3AF002D0396887
:101BA8003A683C500A0DF3CF2EF0F4CF2FF0FB0E1D
:101BB8002E241B6E060E2F201C6E39C01DF03AC055
:101BC8001EF039EC4BF03C50020D950EF324D96E03
:101BD800020EF420DA6E39C0DEFF3AC0DDFF3C2A7F
:101BE8000C0E3C64BCD7000E3C6E680E3C24D96ECB
:101BF800DA6A020EDA22DF50386E080E38601AD020
:101C08003C500A0DF3CF2EF0F4CF2FF0FD0E2E240A
:101C18001B6E060E2F201C6E010E38C030F0316A84
:101C280030C031F0306A30101D6E31501E6E39EC04
:101C38004BF012D03C500A0DF3CF2EF0F4CF2FF01A
:101C4800FD0E2E241B6E060E2F201C6E0A0E1E6E15
:101C5800000E1D6E39EC4BF03C2A0C0E3C64C5D7C7
:101C6800000E3B6E680E3B24D96EDA6A020EDA2249
:101C78000A0EDE18D8B4CBD0FF0E2E6EFF0E2F6ED4
:101C8800680E3B24D96EDA6A020EDA22DF50306E13
:101C9800316A770E3024D96E020E3120DA6EDF50A9
:101CA800326E336A2E5032262F50332233BE1BD069
:101CB800335004E1030E325CD8A015D0680E3B24E3
:101CC800D96EDA6A020EDA22DF502E6E2F6A770E8C
:101CD8002E24D96E020E2F20DA6EDF50306E30506F
:101CE800356E366A17D0680E3B24D96EDA6A020E52
:101CF800DA22DF502E6E2F6A770E2E24D96E020E4E
:101D08002F20DA6EDF50306EFF0E3024356E366AC3
:101D1800FF0E362235C02EF036C02FF0D8902E3662
:101D28002F36A90E306E010E316E2E5030262F50F0
:101D38003122680E3B24D96EDA6A020EDA22DF50AD
:101D4800326E3250020D0E0EF324D96E020EF420BC
:101D5800DA6E30C0DEFF31C0DDFF680E3B24D96E7D
:101D6800DA6A020EDA22DF502E6E2E50040D2C0E87
:101D7800F324D96E020EF420DA6E000EDE6E000E29
:101D8800DE6E800EDE6E3F0EDD6E680E3B24D96E71
:101D9800DA6A020EDA22DF50D8A418D0680E3B2483
:101DA800D96EDA6A020EDA22DF502E6E2E50040D3A
:101DB8002C0EF324D96E020EF420DA6E550EDE6E68
:101DC800C10EDE6EE80EDE6E3E0EDD6E680E3B2442
:101DD800D96EDA6A020EDA22DE04D8A418D0680EA8
:101DE8003B24D96EDA6A020EDA22DF502E6E2E50AC
:101DF800040D2C0EF324D96E020EF420DA6ECD0EEB
:101E0800DE6ECC0EDE6E4C0EDE6E3D0EDD6E3B2AB7
:101E1800070E3B6427D71200000E3C6E100E3C24C0
:101E28001C6E1D6A030E1D22B3EC4AF0860E3C247C
:101E3800D96EDA6A020EDA221CC0DFFF3C500A0DA6
:101E4800F3CF2EF0F4CF2FF0FD0E2E241C6E060ECD
:101E58002F201D6EB3EC4AF01DC01CF01D6A680EE1
:101E68003C24D96EDA6A020EDA221CC0DFFF3C2A53
:101E78000D0E3C64D3D7000E296E130E286E860E05
:101E88002A6E020E2B6E0F0E2C6EEFEC48F0000E31
:101E9800296EEA0E286E770E2A6E020E2B6E0F0E32
:101EA8002C6EEFEC48F0000E296E240E286E680E9A
:101EB8002A6E020E2B6E0F0E2C6EEFEC48F01200FD
:101EC80034502E6E2F6A2F50000AD8A412002E50BC
:101ED800000AD8B451D5010AD8B4F3D5030AD8A456
:101EE80012009AD7500E0001E519E611D8A408D0BF
:101EF800000EC66F800EC76F0D0EC86F440E0CD053
:101F0800320EE519E611D8A408D0000EC66F800E6F
:101F1800C76FA00EC86F430EC96F000E186E230E50
:101F2800176E49EC4BF039EC46F02CC1D6F02DC1B8
:101F3800D7F02EC1D8F02FC1D9F0000E0001D16F13
:101F4800000ED26F000ED36F000ED46F030E000187
:101F58009F6F080E9E6F770EE82EFED79E2FFCD738
:101F68009F2FFAD7000E0001D56F2ED0030ED5197A
:101F7800D8B428D0D5C09EF0D8909E339E29CA6F79
:101F8800D551010BCB6FCBC0CCF0D9C0CDF0D8C0A8
:101F9800CEF0D7C0CFF0D6C0D0F0140E0C6E050E20
:101FA8000D6ECC0E0E6E0F6ACA51A3EC24F0D551FB
:101FB800020DF350A20FD96EDA6A0CC0DEFF0DC015
:101FC800DDFF04000001D52B7450020DD5519E6F22
:101FD8009F6BF3509E5D9F51800AA06FF450800A5A
:101FE800A059D8A0C3D7030E00019F6F080E9E6F9B
:101FF800770EE82EFED79E2FFCD79F2FFAD7000E1C
:102008000001DA6FB3D0550E1B6EC10E1C6EE80EC0
:102018001D6E3E0E1E6EDA51020DF350A20FD96EE0
:10202800DA6ADECF09F0DDCF0AF0000E0ABEFF0E35
:102038000B6E0C6E010E2DEC2CF009C017F00AC0C7
:1020480018F00BC019F00CC01AF076EC18F017C095
:1020580092F018C093F019C094F01AC095F010ECE3
:102068003DF092C09AF093C09BF0DA2915EC44F049
:102078007BD0CD0E1B6ECC0E1C6E4C0E1D6E3D0E15
:102088001E6EDA51020DF350A20FD96EDA6ADECF56
:1020980009F0DDCF0AF0000E0ABEFF0E0B6E0C6EC3
:1020A800010E2DEC2CF009C017F00AC018F00BC077
:1020B80019F00CC01AF076EC18F017C092F018C09E
:1020C80093F019C094F01AC095F010EC3DF092C04E
:1020D8009AF093C09BF0DA2915EC44F045D0000E35
:1020E8001B6E000E1C6E800E1D6E3F0E1E6EDA51AA
:1020F800020DF350A20FD96EDA6ADECF09F0DDCFF8
:102108000AF0000E0ABEFF0E0B6E0C6E010E2DECCF
:102118002CF009C017F00AC018F00BC019F00CC059
:102128001AF076EC18F017C092F018C093F019C0A6
:1021380094F01AC095F010EC3DF092C09AF093C05C
:102148009BF0DA2915EC44F00FD0DA519E6F9F6BA3
:102158009F51000AD8A4C3D79E51000AD8B453D7B8
:10216800010AD8B486D7BBD70001DA2B7450020D08
:10217800DA519E6F9F6BF3509E5D9F51800AA06F4E
:10218800F450800AA059D8A0E0D7000E346E000E93
:10219800356E000E366E400E376E01012C51305DE3
:1021A800096E2D5131590A6E2E5132590B6E2F512D
:1021B80033590C6E000E2DEC2CF009C030F00AC01B
:1021C80031F00BC032F00CC033F0EAEC1CF030C038
:1021D800C2F031C0C3F032C0C4F033C0C5F0D1C0C2
:1021E80049F0D2C04AF0D3C04BF0D4C04CF0C6C0BE
:1021F80034F0C7C035F0C8C036F0C9C037F0C2C027
:1022080030F0C3C031F0C4C032F0C5C033F0EAECDE
:102218001CF030C04DF031C04EF032C04FF033C02A
:1022280050F00CEC1AF049C0D1F04AC0D2F04BC0C3
:10223800D3F04CC0D4F0D1C065F0D2C066F0D3C0A2
:1022480067F0D4C068F0DDEC16F065C092F066C0A7
:1022580093F067C094F068C095F010EC3DF092C020
:10226800BEF093C0BFF094C0C0F095C0C1F0D89044
:10227800BE359E6FBF359F6FC035A06FC135A16F4A
:1022880001012C5100019E25D66F01012D5100013D
:102298009F21D76F01012E510001A021D86F0101A4
:1022A8002F510001A121D96F959C838C87EC3BF0BD
:1022B800230E12181310D8B410D0839C959E838EC9
:1022C800060E00019E6F300EE82EFED79E2FFCD71B
:1022D80000F0839EA2EC4BF01200839C0101305168
:1022E8000001D65D010131510001D7590101325178
:1022F8000001D859010133510001D959D8B0120051
:1023080025D6200E096E000E0A6E000E0B6E000E0A
:102318000C6E86EC46F0000E2F6E5CD02FC021F0BC
:10232800D890213221282B6E2F50010B2E6E2EC0F3
:1023380025F01A0E0C6E010E0D6E250E0E6E0F6A2C
:102348002B50A3EC24F02F50020DA90EF324D96EC4
:10235800010EF420DA6E0CC0DEFF0DC0DDFF2F5039
:10236800020DA90EF324D96E010EF420DA6EDE28D0
:1023780020E1DE28D8A41DD0000E2F24D96EDA6AF9
:10238800020EDA220A0EDF601CD0000E2F24D96E4E
:10239800DA6A020EDA22DF2A2F50020DA90EF32480
:1023A800D96E010EF420DA6E000EDE6E000EDD6EC0
:1023B80008D0000E2F24D96EDA6A020EDA22000E37
:1023C800DF6E510E2B24D96EDA6A010EDA22010E65
:1023D800DF6E2F2A7450020D2F50216E226AF3509F
:1023E800215C2250800A236EF450800A2358D8A01A
:1023F80095D7320E096E000E0A6E000E0B6E000E97
:102408000C6E86EC46F00001F487000E2F6E5AD150
:10241800000E1C6E990E1B6E2F50020DA90EF32490
:10242800D96E010EF420DA6EDECF1DF0DDCF1EF07E
:1024380039EC4BF02F50020DA90EF324D96E010E82
:10244800F420DA6EDECF7BF1DDCF7CF13AD1000EDD
:102458001C6E970E1B6E2F50020DA90EF324D96E19
:10246800010EF420DA6EDECF1DF0DDCF1EF039EC60
:102478004BF02F50020DA90EF324D96E010EF42053
:10248800DA6EDECF7DF1DDCF7EF11BD12F50020D4C
:10249800A90EF324D96E010EF420DA6E010EDBBE0C
:1024A8002BD0010EDB5004E10A0EDE5CD8A024D04C
:1024B8000101AB51AC11D8B41FD0000E1C6E960EA2
:1024C8001B6E2F50020DA90EF324D96E010EF420B5
:1024D800DA6EDECF1DF0DDCF1EF039EC4BF02F5059
:1024E800020DA90EF324D96E010EF420DA6EDECFA8
:1024F80071F0DDCF72F0E5D0F29CAB9EAB98AB9457
:10250800AB92AC9AAECF28F0AECF28F0AECF28F081
:10251800000EE8CFAAF4948C948EFA0E096E000E81
:102528000A6E000E0B6E000E0C6E12EC46F0F28C6A
:10253800000E166EC20E176E010E186E000E196E82
:1025480042EC43F0BED0510E0001E519E611D8A4C3
:1025580030D0060E2F18D8A42CD0000E1C6E8C0E6E
:102568001B6E2F50020DA90EF324D96E010EF42014
:10257800DA6EDECF1DF0DDCF1EF039EC4BF02F50B8
:10258800020DA90EF324D96E010EF420DA6EDE28AE
:1025980003E1DE28D8B495D02F50020DA90EF324FC
:1025A800D96E010EF420DA6EDECF81F1DDCF82F133
:1025B80088D02F50FC0F2E6E2E500C0DF3CF21F02B
:1025C800F4CF22F0E60E2124296E000E22202A6E76
:1025D800900E2E242C6E2D6A010E2D22010E292418
:1025E8001B6E000E2A201C6E2E50216E226AD89077
:1025F80021362236B10E2124D96E010E2220DA6E40
:10260800DECF1DF0DDCF1EF039EC4BF02E50216EE1
:10261800226AD89021362236B10E2124D96E010EB5
:102628002220DA6E010EDBAE11D0700EDE5CFE0EDB
:10263800DE58D8B00BD02CC01BF02DC01CF0000EFB
:102648001E6E010E1D6E39EC4BF03BD02E50216EE4
:10265800226AD89021362236B10E2124D96E010E75
:102668002220DA6EDE280EE1DE28D8A40BD02CC09A
:102678001BF02DC01CF0000E1E6E000E1D6E39ECF6
:102688004BF01FD02CC01BF02DC01CF0000E1E6E8E
:10269800030E1D6E39EC4BF014D02F50216E226AB8
:1026A8002250000AD8A44FD72150000AD8B4B0D677
:1026B800010AD8B4CCD6030AD8B4E8D6010AD8A4FB
:1026C80042D72F2A7450020D2F50216E226AF350E0
:1026D800215C2250800A236EF450800A2358D8A027
:1026E800DCD70001F4971200010E1D6E860E1C6ED9
:1026F800B3EC4AF01C041D10D8A487D0000E0101C9
:10270800C86F000EC76F000ECA6F000EC96F000EAB
:10271800CC6F000ECB6F000ECD6FCE0E0D6E010E7E
:102728000E6E360E0F6EFD0E106EF7EC44F0C70EEF
:102738002C6E010E2D6E0001EE51C9EC3DF0EEC07D
:1027480021F0226A84EC31F0010E1C6E9A0E1B6E89
:10275800000E1E6E000E1D6E39EC4BF0010E1C6E45
:102768009B0E1B6E000E1E6E000E1D6E39EC4BF09C
:10277800010E1C6E9C0E1B6E000E1E6E000E1D6E52
:1027880039EC4BF0010E1C6E9D0E1B6E000E1E6E7A
:10279800000E1D6E39EC4BF0010E1B6E9E0E1A6E6C
:1027A800370E1C6EFD0E1D6E44EC4AF08AEC4BF0A1
:1027B800010E1C6E860E1B6E000E1E6E000E1D6E28
:1027C80039EC4BF0600EF1EC4BF039EC46F0070EAB
:1027D8001B6E760E1A6E010E1C6EFE0E1D6E44ECFC
:1027E8004AF0DC0E096E050E0A6E000E0B6E000E26
:1027F8000C6E86EC46F0070E1B6E760E1A6E370EC0
:102808001C6EFD0E1D6E44EC4AF0010E1D6E870E07
:102818001C6EB3EC4AF01C041D10D8A468D0010E3D
:102828001D6E9A0E1C6EB3EC4AF01CC0C7F11DC099
:10283800C8F1010E1D6E9B0E1C6EB3EC4AF01CC055
:10284800C9F11DC0CAF1010E1D6E9C0E1C6EB3ECC1
:102858004AF01CC0CBF11DC0CCF1010E1D6E9D0EBF
:102868001C6EB3EC4AF01C500101CD6F010E1D6EB9
:102878009E0E1C6ECE0E1E6E010E1F6E63EC4BF08C
:10288800C70E2C6E010E2D6E0001EE51C9EC3DF005
:102898008AEC4BF0010E1C6E870E1B6E000E1E6E2E
:1028A800000E1D6E39EC4BF0500EF1EC4BF039EC8C
:1028B80046F0070E1B6E760E1A6E910E1C6EFD0EFC
:1028C8001D6E44EC4AF0DC0E096E050E0A6E000E11
:1028D8000B6E000E0C6E86EC46F0070E1B6E760E25
:1028E8001A6E370E1C6EFD0E1D6E44EC4AF0010E7A
:1028F8001D6E880E1C6EB3EC4AF01C041D10D8A483
:102908009BD0070E1B6E760E1A6E740E1C6EFD0E93
:102918001D6E44EC4AF0C70E176E010E186E0001CA
:10292800EE511FEC39F0070E1B6E760E1A6E380E3C
:102938001C6EFD0E1D6E44EC4AF0000E3A6E20D05F
:102948003AC03DF0C7C13EF0C8C13FF0C9C140F030
:10295800CBC141F0CDC142F0430E0D6E0E6ACE0ED2
:102968000F6E010E106EF7EC44F0000E4D6E010E66
:102978004C6E3D0E2C6E2D6A3A5011EC36F03A2A08
:10298800FC0E336EFF0E346E7450356E366AD89076
:102998003536363633503526345036223A50376E6F
:1029A800386A3550375C3850800A396E3650800A9C
:1029B8003958D8A0C5D7070E1B6E760E1A6E850E2D
:1029C8001C6EFB0E1D6E44EC4AF021EC22F0070E43
:1029D8001B6E760E1A6EDC0E1C6EFC0E1D6E44EC21
:1029E8004AF0000E3B6E3B500DEC2AF03B2A0E0ECF
:1029F8003B64F9D7000E3C6E3C50CEEC2FF03C2ADD
:102A0800090E3C64F9D7010E1C6E880E1B6E000E71
:102A18001E6E000E1D6E39EC4BF0600EF1EC4BF0A3
:102A280039EC46F0070E1B6E760E1A6E370E1C6ECA
:102A3800FD0E1D6E44EC4AF0010E1D6E890E1C6ED3
:102A4800B3EC4AF01C041D10D8A41200010E1C6E31
:102A5800890E1B6E000E1E6E000E1D6E39EC4BF0BB
:102A6800000E186E2F0E176E49EC4BF01200010E77
:102A78001D6E7E0E1C6E1DEC4AF01CC092F01DC02F
:102A880093F01EC094F01FC095F010EC3DF0010EBD
:102A98001D6E800E1C6E1DEC4AF01CC092F01DC00D
:102AA80093F01EC094F01FC095F010EC3DF0010E9D
:102AB800136E7C0E126EB60E146E156A040E166E28
:102AC800A3EC34F0B8C09AF000019B6B9C6B9D6B33
:102AD8009CC09DF09BC09CF09AC09BF09A6BB7C0BD
:102AE8009EF09F6BA06BA16B9FC0A1F09EC0A0F051
:102AF8009F6B9E6BB6C0A2F0A36BA46BA56BA2C024
:102B0800A5F0A46BA36BA26B9E51A225A66F9F5143
:102B1800A321A76FA051A421A86FA151A521A96F36
:102B28009A51A625AA6F9B51A721AB6F9C51A8214A
:102B3800AC6F9D51A921AD6FB951AA250101696FEB
:102B4800000E0001AB2101016A6F000E0001AC21EB
:102B580001016B6F000E0001AD2101016C6F010EC8
:102B6800136E7E0E126EB60E146E156A040E166E75
:102B7800A3EC34F0B8C09AF000019B6B9C6B9D6B82
:102B88009CC09DF09BC09CF09AC09BF09A6BB7C00C
:102B98009EF09F6BA06BA16B9FC0A1F09EC0A0F0A0
:102BA8009F6B9E6BB6C0A2F0A36BA46BA56BA2C073
:102BB800A5F0A46BA36BA26B9E51A225A66F9F5193
:102BC800A321A76FA051A421A86FA151A521A96F86
:102BD8009A51A625AA6F9B51A721AB6F9C51A8219A
:102BE800AC6F9D51A921AD6FB951AA25B26F000EE6
:102BF800AB21B36F000EAC21B46F000EAD21B56FE1
:102C0800010E136E800E126EB60E146E156A040E47
:102C1800166EA3EC34F0B8C09AF000019B6B9C6B65
:102C28009D6B9CC09DF09BC09CF09AC09BF09A6BDA
:102C3800B7C09EF09F6BA06BA16B9FC0A1F09EC018
:102C4800A0F09F6B9E6BB6C0A2F0A36BA46BA56BA4
:102C5800A2C0A5F0A46BA36BA26B9E51A225A66F80
:102C68009F51A321A76FA051A421A86FA151A5210D
:102C7800A96F9A51A625AA6F9B51A721AB6F9C51AA
:102C8800A821AC6F9D51A921AD6FB951AA25AE6F8E
:102C9800000EAB21AF6F000EAC21B06F000EAD215E
:102CA800B16F010169516A116B116C11D8B40DD063
:102CB8000001B251B311B411B511D8B406D0AE5158
:102CC800AF11B011B111D8A404D0230EF1EC4BF020
:102CD8001200000E0E6E0B0E0D6EBCEC47F00101DB
:102CE80069510D1862E16A510E185FE16B510F18B6
:102CF8005CE16C511018D8A458D00001AE51B2193B
:102D080050E1AF51B3194DE1B051B4194AE1B15195
:102D1800B519D8A446D0000E296E0B0E286EB2C085
:102D28002AF0B3C02BF0B4C02CF0B5C02DF084EC61
:102D380049F0B2C069F1B3C06AF1B4C06BF1B5C073
:102D48006CF1ACEC4BF0010E1B6E7C0E1A6E000E93
:102D58001C6E000E1D6E000E1E6E000E1F6E60ECC7
:102D680046F0010E1B6E7E0E1A6E000E1C6E000ED3
:102D78001D6E000E1E6E000E1F6E60EC46F0010EFA
:102D88001B6E800E1A6E000E1C6E000E1D6E000E5D
:102D98001E6E000E1F6E60EC46F0220EF1EC4BF03A
:102DA8001200210EF1EC4BF01200200EF1EC4BF06A
:102DB800120065C18AF066C18BF067C18CF068C1EA
:102DC8008DF065C08AF066C08BF067C08CF068C073
:102DD8008DF08AC069F08BC06AF08CC06BF08DC032
:102DE8006CF0180E05D0D8906C326B326A326932AA
:102DF800E82EF9D769500001846F856B85BF0FD025
:102E0800855104E1960E845DD8A009D065C065F0AF
:102E180066C066F067C067F068C068F012008AC0D4
:102E280069F08BC06AF08CC06BF08DC06CF0200E1E
:102E380005D0D8906C326B326A326932E82EF9D7F5
:102E48006950D8B412D065C009F066C00AF067C0EE
:102E58000BF068C00CF09BEC49F009C065F00AC0A3
:102E680066F00BC067F00CC068F0000185BF06D0A3
:102E780085511FE17E0E845DD8B01BD08AC017F043
:102E88008BC018F08CC019F08DC01AF0000E1B6EA4
:102E9800000E1C6E000E1D6E000E1E6E76EC18F0F5
:102EA80017C065F018C066F019C067F01AC068F05E
:102EB8001200000E4D6E000E4E6E000E4F6E4B0E41
:102EC800506E65C049F066C04AF067C04BF068C0F4
:102ED8004CF00CEC1AF049C086F04AC087F04BC0A1
:102EE80088F04CC089F0000E4D6E000E4E6E000E3C
:102EF8004F6ECB0E506E86C049F087C04AF088C02E
:102F08004BF089C04CF00CEC1AF049C080F04AC074
:102F180081F04BC082F04CC083F080C059F081C072
:102F28005AF082C05BF083C05CF065C05DF066C09B
:102F38005EF067C05FF068C060F0F5EC46F059C01D
:102F48008EF05AC08FF05BC090F05CC091F0000E1C
:102F5800596E000E5A6E000E5B6E3F0E5C6E8EC090
:102F68005DF08FC05EF090C05FF091C060F08AECB9
:102F780039F0D8B02DD065C04DF066C04EF067C0AE
:102F88004FF068C050F08EC049F08FC04AF090C032
:102F98004BF091C04CF00CEC1AF049C086F04AC0D6
:102FA80087F04BC088F04CC089F086C049F087C0D4
:102FB8004AF088C04BF089C04CF0000E4D6E000EF0
:102FC8004E6E800E4F6EBF0E506E0CEC1AF053D042
:102FD800000E596E000E5A6E000E5B6EBF0E5C6ED0
:102FE8008EC05DF08FC05EF090C05FF091C060F061
:102FF8008AEC39F0D8A02DD065C04DF066C04EF0EF
:1030080067C04FF068C050F08EC049F08FC04AF0DA
:1030180090C04BF091C04CF00CEC1AF049C086F00F
:103028004AC087F04BC088F04CC089F086C049F090
:1030380087C04AF088C04BF089C04CF0000E4D6E36
:10304800000E4E6E800E4F6E3F0E506E0CEC1AF056
:1030580012D08EC049F08FC04AF090C04BF091C09A
:103068004CF065C04DF066C04EF067C04FF068C0C8
:1030780050F00CEC1AF049C08EF04AC08FF04BC0EB
:1030880090F04CC091F08AC069F08BC06AF08CC097
:103098006BF08DC06CF0200E05D0D8906C326B327E
:1030A8006A326932E82EF9D76950D8B412D08EC086
:1030B80009F08FC00AF090C00BF091C00CF09BECA7
:1030C80049F009C08EF00AC08FF00BC090F00CC018
:1030D80091F08EC065F08FC066F090C067F091C027
:1030E80068F012001A50800B236E1A501A24256EAD
:1030F80019BE25802550D8B40DD02528D8A408D0CD
:10310800000E176E000E186E000E196E000E1A6E65
:10311800198E08D0000E176E000E186E000E196E6C
:10312800000E1A6E1E50800B231A1E501E24246E89
:103138001DBE24802450D8B40DD02428D8A408D08B
:10314800000E1B6E000E1C6E000E1D6E000E1E6E15
:103158001D8E08D0000E1B6E000E1C6E000E1D6E1C
:10316800000E1E6E2450D8B403D02550D8A409D020
:10317800000E176E000E186E000E196E000E1A6EF5
:1031880012001D501702F3CF2EF0F4CF2FF02E505F
:10319800266E276A286A296A2F502A6E2B6A2C6A9B
:1031A8002D6A1C501802F3CF2EF0F4CF2FF02E50BA
:1031B8002626000E2722282229222F502A26000EF2
:1031C8002B222C222D221B501902F3CF2EF0F4CFE4
:1031D8002FF02E502626000E2722282229222F5093
:1031E8002A26000E2B222C222D2228C029F027C0A7
:1031F80028F026C027F0266A1B501802F3CF2EF0BD
:10320800F4CF2FF02E5026262F502722000E2822EA
:10321800000E29221C501702F3CF2EF0F4CF2FF006
:103228002E5026262F502722000E2822000E292253
:1032380028C029F027C028F026C027F0266A1B508E
:103248001702F3CF2EF0F4CF2FF02E5026262F5052
:103258002722000E2822000E29221D501802F3CF23
:103268002EF0F4CF2FF02E502A262F502B22000EAE
:103278002C22000E2D221C501902F3CF2EF0F4CF71
:103288002FF02E502A262F502B22000E2C22000E13
:103298002D221D501902F3CF2EF0F4CF2FF02E500F
:1032A8001F6E2F50206E216A226A21C022F020C092
:1032B80021F01FC020F01F6A1F502A2620502B2201
:1032C80021502C2222502D2229502A26000E2B2252
:1032D8002C222D2228C029F027C028F026C027F04C
:1032E800266A245025C01FF0206A1F26000E2022BF
:1032F800820E1F242E6EFF0E20202F6E0FD0D89026
:103308002A362B362C362D3629BE2A80D8902636DA
:103318002736283629362E06D8A02F062CAEEFD70A
:10332800000E246E29AE17D0FF0E26141F6EFF0E56
:103338002714206EFF0E2814216E7F0E2914226E8A
:103348001F50201021102210D8B403D0010E246E73
:1033580002D02AB0FBD72450D8B41FD0010E2A2699
:10336800000E2B222C222D222DA017D02AC01FF0B0
:103378002BC020F02CC021F02DC022F022342232A4
:10338800213220321F321FC02AF020C02BF021C06A
:103398002CF022C02DF02E4A2F2A2FBE0DD02F50F0
:1033A80003E12E28D8A008D0000E2A6E000E2B6E3E
:1033B800800E2C6E7F0E20D02FBE05D02F500EE130
:1033C8002E04D8B00BD0000E2A6E000E2B6E000E05
:1033D8002C6E000E2D6E000E236E0FD02EC025F021
:1033E800FF0E2A16FF0E2B167F0E2C16000E2D161A
:1033F80025B02C8ED89025302D6E23502D122AC042
:1034080017F02BC018F02CC019F02DC01AF01200BC
:103418004C50800B556E4C504C24576E4BBE578009
:103428005750D8B40DD05728D8A408D0000E496EEC
:10343800000E4A6E000E4B6E000E4C6E4B8E06D080
:10344800000E496E000E4A6E000E4B6E000E4C6E5A
:103458005050800B566E55505618D8A4558C505065
:103468005024566E4FBE56805650D8B40DD05628AC
:10347800D8A408D0000E4D6E000E4E6E000E4F6E92
:10348800000E506E4F8E06D0000E4D6E000E4E6E22
:10349800000E4F6E000E506E5750565CD8B022D0BA
:1034A80055AC02D0800E551A57C058F056C057F088
:1034B80058C056F049C058F04DC049F058C04DF0BA
:1034C8004AC058F04EC04AF058C04EF04BC058F0B1
:1034D8004FC04BF058C04FF04CC058F050C04CF0A3
:1034E80058C050F0000E586E575056C051F0526AEE
:1034F800515E000E525A52BE2CD0525004E11A0EA0
:10350800515CD8A026D049504A104B104C10D8B462
:1035180002D0010E01D0000E586E000E496E000E4A
:103528004A6E000E4B6E000E4C6E56C057F015D00A
:1035380058A005D0D89058300109586E02D0D890BC
:10354800583249B0588E4C344C324B324A32493298
:10355800572A5650575CD8A0EBD755BC28D057509F
:10356800D8A409D0000E496E000E4A6E000E4B6EAC
:10357800000E4C6E12004D5049264E504A224F50B4
:103588004B2250504C224CA071D058A005D0D89056
:1035980058300109586E02D0D890583249B0588E28
:1035A8004C344C324B324A324932572A5FD04D5054
:1035B800495C4E504A584F504B584C50800A516EF7
:1035C8005050800A5158D8B025D049504D5C516EA2
:1035D8004A504E58526E4B504F58536E4C5050589C
:1035E800546EFF0E5124496EFF0E52204A6EFF0E94
:1035F80053204B6EFF0E54204C6E800E551A586C9B
:103608005850D8A40FD0010E4926000E4A224B224A
:103618004C2208D04D50495E4E504A5A4F504B5A92
:1036280050504C5A49504A104B104C10D8A41CD03A
:103638005850D8A419D0000E496E000E4A6E000EDC
:103648004B6E000E4C6E1200D89049364A364B36F7
:103658004C3658BE498058A002D0D88001D0D890A6
:1036680058365750D8A457064BAEEED7000E566EB4
:1036780058AE0BD058C051F07F0E5116D8B403D0B5
:10368800010E566E02D049B0FBD75650D8B420D0A0
:10369800010E4926000E4A224B224C224CA018D07B
:1036A80049C051F04AC052F04BC053F04CC054F0DE
:1036B8005434543253325232513251C049F052C00C
:1036C8004AF053C04BF054C04CF05728D8A4572A9E
:1036D8005728D8B403D05750D8A40DD0000E496E3F
:1036E800000E4A6E000E4B6E000E4C6E5750D8A45A
:1036F80002D0000E556E57A002D04B8E01D04B9EC3
:10370800D89057304C6E55BE4C8E49C049F04AC0CF
:103718004AF04BC04BF04CC04CF012000001F4973B
:10372800000E186E000E176E49EC4BF0DAEC47F0FD
:103738002C0E096E010E0A6E000E0B6E000E0C6E3A
:1037480012EC46F0B90E206EFB0E216EB2EC38F08A
:103758002C0E096E010E0A6E000E0B6E000E0C6E1A
:1037680012EC46F09C0E206EFE0E216EB2EC38F084
:10377800B80E096E0B0E0A6E000E0B6E000E0C6E64
:1037880012EC46F0BC0E206EFC0E216EB2EC38F046
:103798002C0E096E010E0A6E000E0B6E000E0C6EDA
:1037A80012EC46F0070E1D6EC60E1C6E000E1E6E45
:1037B800030E1F6E63EC4BF0B30E0D6E020E0E6E11
:1037C8000B0E0F6EFF0E106EF7EC44F0B30E176E73
:1037D800020E186E000E196E030E1A6E57EC4AF0A0
:1037E800B30E206E020E216EB2EC38F02C0E096E6C
:1037F800010E0A6E000E0B6E000E0C6E12EC46F0F7
:10380800030E0C6E000E0D6E000E0E6E030E0F6E84
:1038180000018151A3EC24F0000E746EB30E0D6EFE
:10382800020E0E6E370E0F6EFD0E106EF7EC44F0A2
:10383800B30E176E020E186E1D0E196EFF0E1A6E5D
:1038480057EC4AF0B30E176E020E186ED90E196EA9
:10385800FF0E1A6E57EC4AF0B30E206E020E216E60
:10386800B2EC38F0010E816F640E096E000E0A6E1C
:10387800000E0B6E000E0C6E12EC46F0030E0C6E72
:10388800000E0D6E000E0E6E030E0F6E00018151BC
:10389800A3EC24F00CC082F00DC083F083C080F04C
:1038A800822903E18329D8B465D0742AB30E0D6E3A
:1038B800020E0E6E370E0F6EFD0E106EF7EC44F012
:1038C80081C018F0196AB30E1A6E020E1B6E000E34
:1038D8001D6E0A0E1C6E24EC34F0B30E176E020E29
:1038E800186EF50E196EFF0E1A6E57EC4AF0B30EED
:1038F800176E020E186E00018051020DE40EF324BB
:10390800D96E010EF420DA6EDECF19F0DDCF1AF091
:1039180057EC4AF0B30E176E020E186E360E196E7B
:10392800FD0E1A6E57EC4AF0000E0D6E030E0E6E69
:10393800360E0F6EFD0E106EF7EC44F0410E0C6E55
:10394800000E0D6E000E0E6E030E0F6E00018151FB
:10395800A3EC24F0B30E176E020E186E000E196E4B
:10396800030E1A6E57EC4AF0B30E206E020E216E4B
:10397800B2EC38F0812B0E0E816576D77450D8A43E
:1039880007D0510E206EFE0E216EB2EC38F01200F8
:1039980074C018F0196AB30E1A6E020E1B6E000E70
:1039A8001D6E0A0E1C6E24EC34F0B30E176E020E58
:1039B800186E830E196EFE0E1A6E57EC4AF0B30E8F
:1039C800206E020E216EB2EC38F012003350800BDC
:1039D800406E33503324476E32BE47804750D8B4C8
:1039E8000DD04728D8A408D0000E306E000E316ED6
:1039F800000E326E000E336E328E06D0000E306E20
:103A0800000E316E000E326E000E336E3750800B92
:103A1800401A37503724486E36BE48804850D8B4CC
:103A28000DD04828D8A408D0000E346E000E356E8C
:103A3800000E366E000E376E368E06D0000E346ECF
:103A4800000E356E000E366E000E376E345035108F
:103A580036103710D8A417D0000E306E000E316E15
:103A6800000E326E000E336E800E32127F0E33124D
:103A78004050331230C030F031C031F032C032F033
:103A880033C033F012004750D8A409D0000E306E6E
:103A9800000E316E000E326E000E336E120048506A
:103AA80047C038F0396A385E000E395A7F0E38241C
:103AB800416E000E3920426E30C03CF031C03DF0FE
:103AC80032C03EF033C03FF0000E306E000E316E53
:103AD800000E326E000E336E000E436E000E446E02
:103AE800000E456E000E466E000E486E28D04850F7
:103AF800D8B411D0D8903C363D363E363F36D890B3
:103B0800303631363236333646BE3080D89043367A
:103B180044364536463634503C5C35503D58365070
:103B28003E5837503F58D8A009D0468C34503C5E98
:103B380035503D5A36503E5A37503F5A482A190E8A
:103B48004864D5D73C503D103E103F10D8B411D032
:103B580043800FD0D890303631363236333646BEB1
:103B68003080D89043364436453646364106D8A08C
:103B7800420632AEEFD7000E486E46AE17D0FF0EA3
:103B88004314386EFF0E4414396EFF0E45143A6E16
:103B98007F0E46143B6E385039103A103B10D8B49B
:103BA80003D0010E486E02D030B0FBD74850D8B4CD
:103BB8001FD0010E3026000E31223222332233A0CC
:103BC80017D030C038F031C039F032C03AF033C0C5
:103BD8003BF03B343B323A323932383238C030F07D
:103BE80039C031F03AC032F03BC033F0414A422A82
:103BF80042BE10D0425003E14128D8A00BD0000E9D
:103C0800426E4168000E306E000E316E000E326E4C
:103C1800000E336E42BE05D0425011E14104D8B0C7
:103C28000ED0000E426E000E416E000E306E000E79
:103C3800316E000E326E000E336E000E406E41C0C3
:103C480047F047A002D0328E01D0329ED89047303C
:103C5800336E0ED7336E33502C6E2D6AFF0E2E6ED8
:103C6800FF0E2F6E0001EA51306E316A2E50302659
:103C78002F5031222C50305C3150800A326E2D503A
:103C8800800A3258D8B024D0000E1D6E020E1C6E69
:103C9800B3EC4AF01C041D10D8A426D087EC3BF0E6
:103CA80012501310D8B420D0030E186EE80E176EF9
:103CB80021EC49F0000E1C6E020E1B6E000E1E6EEB
:103CC800000E1D6E39EC4BF0440EF1EC4BF0120077
:103CD80087EC3BF012501310D8B406D0000E1D6EBE
:103CE800020E1C6EB3EC4AF03350360DF3CF2CF0B5
:103CF800F4CF2DF0100E2C26000E2D222CC034F0FF
:103D08002DC035F0000E35BEFF0E366E376E34C04E
:103D18001FF035C020F036C021F037C022F001C1B5
:103D280023F002C124F0000EC8EC49F0020E34243E
:103D38000D6E000E35200E6E000E36200F6E000E32
:103D48003720106E0D0E116E010E126E000E98ECDB
:103D580032F00C0E34240D6E000E35200E6E000E5F
:103D680036200F6E000E3720106E030E116E010EF6
:103D7800126E000E98EC32F0160E34240D6E000E02
:103D880035200E6E000E36200F6E000E3720106E96
:103D9800210E116E010E126E000E98EC32F0200EFC
:103DA80034240D6E000E35200E6E000E36200F6E78
:103DB800000E3720106E170E116E010E126E000ED7
:103DC80098EC32F02A0E34241F6E000E3520206E37
:103DD800000E3620216E000E3720226E2BC123F0F4
:103DE800000EC5EC4AF02B0E34241F6E000E352051
:103DF800206E000E3620216E000E3720226E2CC158
:103E080023F02DC124F02EC125F02FC126F0000E7D
:103E1800D5EC48F02F0E34241F6E000E3520206E8E
:103E2800000E3620216E000E3720226E30C123F09E
:103E380031C124F032C125F033C126F0000ED5EC93
:103E480048F0330E34241F6E000E3520206E000E0D
:103E58003620216E000E3720226E34C123F035C182
:103E680024F0000EC8EC49F0350E34241F6E000E05
:103E78003520206E000E3620216E000E3720226E6F
:103E880036C123F0000EC5EC4AF01200000E476E52
:103E9800000E1D6EA80E1C6EB3EC4AF01C041D101B
:103EA800D8A41FD0000E1C6EA80E1B6E000E1E6E2E
:103EB800000E1D6E39EC4BF00001EF51D8B40CD058
:103EC800000E486E48500DEC2AF0482A0E0E486441
:103ED800F9D739EC46F005D0510EF1EC4BF0E8EC8F
:103EE8004AF0000E1D6EA70E1C6EB3EC4AF01C04BF
:103EF8001D10D8A42DD0000E1C6EA70E1B6E000E30
:103F08001E6E000E1D6E39EC4BF00001EF51D8B457
:103F18001AD06A0E1E6EFE0E1F6E070E216ED00E90
:103F2800206E000E226E010E236E20EC40F0000E73
:103F3800496E49500FEC32F0492A090E4964F9D705
:103F4800010E476E05D0510EF1EC4BF0E8EC4AF04B
:103F5800000E1D6EA60E1C6EB3EC4AF01C041D105C
:103F6800D8B403D04750D8B43DD0000E1C6EA60E6E
:103F78001B6E000E1E6E000E1D6E39EC4BF000011C
:103F8800EF51D8B42AD0E40E1E6EFE0E1F6E070E37
:103F9800216ED00E206E000E226E010E236E20ECD4
:103FA80040F021EC22F0A70E1E6EFF0E1F6E070ECA
:103FB800216ED00E206E010E226E000E236E20ECB4
:103FC80040F039EC46F0320E0001E519E611D8A4AC
:103FD80009D0500EF1EC4BF005D0510EF1EC4BF03E
:103FE800E8EC4AF0000E1D6EA90E1C6EB3EC4AF008
:103FF8001C041D10D8A41200000E1C6EA90E1B6E06
:10400800000E1E6E000E1D6E39EC4BF00001EF51D4
:10401800D8B43CD0B20E1E6EFF0E1F6E070E216E76
:10402800D00E206E000E226E010E236E20EC40F0A2
:10403800130E0001F819F911D8A402D0000E466E2B
:10404800150EF819F911D8A402D0050E466E050E02
:10405800306E465085EC36F0000E4A6E4A500DEC34
:104068002AF04A2A0E0E4A64F9D739EC46F0C70EF0
:104078001E6EFF0E1F6E070E216ED00E206E010EF3
:10408800226E000E236E20EC40F01200510EF1EC6F
:104098004BF0E8EC4AF01200436E43503C6E3D6A28
:1040A800FF0E3E6EFF0E3F6E0001EA51406E416A00
:1040B8003E5040263F5041223C50405C4150800ACF
:1040C800426E3D50800A4258D8A012004350360D27
:1040D800F3CF3CF0F4CF3DF0100E3C26000E3D220D
:1040E8003CC044F03DC045F0000E45BEFF0E466E94
:1040F800476E44C01BF045C01CF046C01DF047C0C9
:104108001EF0000EBBEC48F01BC001F11CC002F110
:10411800020E4424106E000E4520116E000E46203B
:10412800126E000E4720136E0D0E146E010E156EE2
:10413800000E00EC27F00C0E4424106E000E4520F3
:10414800116E000E4620126E000E4720136E030EED
:10415800146E010E156E000E00EC27F0160E4424A6
:10416800106E000E4520116E000E4620126E000ED5
:104178004720136E210E146E010E156E000E00EC12
:1041880027F0200E4424106E000E4520116E000EFC
:104198004620126E000E4720136E170E146E010E85
:1041A800156E000E00EC27F02A0E44241B6E000E3C
:1041B80045201C6E000E46201D6E000E47201E6E08
:1041C800000EA1EC4AF001012B6F2B0E44241B6E4C
:1041D800000E45201C6E000E46201D6E000E472066
:1041E8001E6E000E6EEC3DF01BC02CF11CC02DF1B4
:1041F8001DC02EF11EC02FF12F0E44241B6E000E81
:1042080045201C6E000E46201D6E000E47201E6EB7
:10421800000E6EEC3DF01BC030F11CC031F11DC02A
:1042280032F11EC033F1330E44241B6E000E4520BC
:104238001C6E000E46201D6E000E47201E6E000EDE
:10424800BBEC48F01BC034F11CC035F1350E4424DA
:104258001B6E000E45201C6E000E46201D6E000EC3
:1042680047201E6E000EA1EC4AF00101366F1200C5
:10427800000E1C6E020E1B6E000E1E6E000E1D6ED2
:1042880039EC4BF0000E1C6E030E1B6E000E1E6EFA
:10429800000E1D6E39EC4BF0000E1C6E040E1B6EEA
:1042A800000E1E6E000E1D6E39EC4BF0000E1C6EDB
:1042B800050E1B6E000E1E6E000E1D6E39EC4BF0C7
:1042C8000001F299000E0A6E100E096E4FEC48F0CC
:1042D8000001F26FF251D8B412009B0E206EFC0E52
:1042E800216EB2EC38F00E0E206EFC0E216EB2EC90
:1042F80038F0000ECDEC44F00001F2A116D0F29196
:10430800B50E206EFE0E216EB2EC38F0000E1C6E5B
:10431800020E1B6E000E1E6E010E1D6E39EC4BF068
:10432800000E0101846F000E836F510E0001E51924
:10433800E611D8B4F2AF16D0F29FE70E206EFB0E4E
:10434800216EB2EC38F0000E1C6E130E1B6E000EC0
:104358001E6E010E1D6E39EC4BF0000E0101DD6F73
:10436800500E04D0000E0101DD6F000EDC6F00015D
:10437800F2A516D0F295C90E206EFD0E216EB2EC94
:1043880038F0000E1C6E030E1B6E000E1E6E010E22
:104398001D6E39EC4BF0000E0101E36F500E04D096
:1043A800000E0101E36F000EE26F0001F2A717D0C3
:1043B800F297F289FB0E206EFC0E216EB2EC38F0FB
:1043C800000E1C6E040E1B6E000E1E6E010E1D6E7E
:1043D80039EC4BF0000E0101E16F500E04D0000ED5
:1043E8000101E16F000EE06F0001F2A316D0F29315
:1043F800E50E206EFD0E216EB2EC38F0000E1C6E3C
:10440800050E1B6E000E1E6E010E1D6E39EC4BF074
:10441800000E0101DF6F500E04D0000E0101DF6FA6
:10442800000EDE6FAC0E096E0D0E0A6E000E0B6EDE
:10443800000E0C6E12EC46F01200040E216E21C024
:104448001CF0D8901C321C28226E2150010B236EC0
:104458002150120DF350EC0F206E010E20240D6E2A
:104468000E6A000E0E2215EC48F00DC01EF00EC0AC
:104478001FF02350070DF3CF24F01FC025F01EC0F6
:1044880026F00A0E0C6E030E0D6E240E0E6E0F6AC9
:104498002250A3EC24F0070E1D6E170E1C6E6A0E38
:1044A800E82EFED71C2EFCD71D2EFAD700D023509D
:1044B800070DF350020F246E030E2024096E0A6ABA
:1044C800000E0A224FEC48F0256E080E0C6E020E04
:1044D8000D6E240E0E6E0F6A2250A3EC24F0070E08
:1044E8001D6E170E1C6E6A0EE82EFED71C2EFCD70A
:1044F8001D2EFAD700D02350070DF350030F246E5A
:10450800040E2024096E0A6A000E0A224FEC48F0B5
:10451800256E080E0C6E020E0D6E240E0E6E0F6ABE
:104528002250A3EC24F0070E1D6E170E1C6E6A0EA7
:10453800E82EFED71C2EFCD71D2EFAD700D023500C
:10454800070DF350040F246E050E2024096E0A6A25
:10455800000E0A224FEC48F0256E080E0C6E020E73
:104568000D6E240E0E6E0F6A2250A3EC24F0070E77
:104578001D6E170E1C6E6A0EE82EFED71C2EFCD779
:104588001D2EFAD700D0100E20240D6E0E6A000ED4
:104598000E2215EC48F00DC01EF00EC01FF023507F
:1045A800070DF350050F246E1FC025F01EC026F01E
:1045B8000A0E0C6E030E0D6E240E0E6E0F6A22503C
:1045C800A3EC24F0070E1D6E170E1C6E6A0EE82E63
:1045D800FED71C2EFCD71D2EFAD700D02304D8A452
:1045E8000AD0010E0C6E000E0D6E240E0E6E0F6AB0
:1045F8002250A3EC24F0212A0E0E216420D71200A9
:10460800000E226E050E216E010E236EF2EC39F0BB
:104618000009D8A404D0460EF1EC4BF01200000EAD
:104628001D6E050E1C6EB3EC4AF01C041D10D8A4B8
:104638003AD00001F2B337D001017751715C725062
:10464800800A656E7851800A6558D8B021D07551B6
:104658007D5D7E51800A656E7651800A6558D8B0B6
:1046680017D0000E2C6E050E2B6EDE0E2D6E010E71
:104678002E6E570E2F6EFC0E306EF5EC30F00009E2
:10468800D8B412000001F283010E79EC43F0120055
:104698000001F293000E79EC43F0000E0101DF6F88
:1046A800000EDE6F1200000E1D6E050E1C6EB3ECC0
:1046B8004AF01C501D10D8A408D00001F2A305D060
:1046C800F293000E79EC43F01200000E1D6E050EF9
:1046D8001C6EB3EC4AF01C041D10D8A454D0000181
:1046E800F2A351D001017751715C7250800A656E56
:1046F8007851800A6558D8B042D07DC109F07EC192
:104708000AF0000E0ABEFF0E0B6E0C6E010E2DECA9
:104718002CF009C059F00AC05AF00BC05BF00CC06D
:104728005CF0000E4D6E000E4E6E480E4F6E430E3E
:10473800506E75C109F076C10AF0000E0ABEFF0E70
:104748000B6E0C6E010E2DEC2CF009C049F00AC05E
:104758004AF00BC04BF00CC04CF00CEC1AF049C0FE
:104768005DF04AC05EF04BC05FF04CC060F08AEC70
:1047780039F0D8B004D0010E79EC43F01200000EE5
:1047880079EC43F01200000E1D6E050E1C6EB3ECA2
:104798004AF01C501D10D8A412000001F2B31200F8
:1047A8007CD7196E000E1A6E000E01019E6F050E61
:1047B8009D6F135005E1020E125CD8B0120001D0B3
:1047C8001200135003E11204D8A002D0080E01D041
:1047D800000E1A6E19C01BF0D8901B36A00E1B12C3
:1047E8001B801A501B1270EC4BF01BC017F0FE0E0A
:1047F800171617500B6E0C6AC6EC4BF011C00BF075
:104808000C6AC6EC4BF010C00BF00C6AC6EC4BF00F
:10481800D5EC4BF01BC00BF00C6AC6EC4BF0000E4D
:10482800186E79D013507BE1020E125CD8B077D0A5
:1048380010C017F0010E17267F0E1716D8A451D0F6
:10484800000E0C6E000E0B6E76EC44F00B5015C08B
:10485800D9FF16C0DAFFDF6EE3EC4BF015C0D9FFC5
:1048680016C0DAFFDF507DEC4BF0340E176EF20EF7
:10487800E82EFED7172EFCD7010E1026000E1122A7
:1048880012221322135003E11204D8A002D0080EFA
:1048980001D0000E1A6E19C01BF0D8901B36A00E5E
:1048A8001B121B801A501B1270EC4BF01BC017F028
:1048B800FE0E171617500B6E0C6AC6EC4BF011C0A3
:1048C8000BF00C6AC6EC4BF010C00BF00C6AC6EC8F
:1048D8004BF0D5EC4BF01BC00BF00C6AC6EC4BF060
:1048E80019D0000E0C6E010E0B6E76EC44F00B50D6
:1048F80015C0D9FF16C0DAFFDF6E15C0D9FF16C084
:10490800DAFFDF507DEC4BF0010E1026000E11226D
:1049180012221322182A1450185CD8A083D7000E2C
:104928000C6E000E0B6E76EC44F0E3EC4BF0070EC9
:10493800176EC00EE82EFED7172EFCD71200146E85
:1049480015681668000E176E0F0E0C18D8B410D024
:104958000D0E0C18D8B40CD0180E0C18D8B408D0FA
:10496800160E0C18D8B404D0410E0C18D8A40AD0CE
:10497800010E176E20EE05F00E50D9260F50DA22E0
:10498800DF501A6EAA0E0B6EBB0E0A6EEAEC4BF0E5
:10499800000E7DEC4BF014507DEC4BF00C507DEC90
:1049A8004BF00D507DEC4BF0000E1B6E0AD01B50E7
:1049B8000E24D96E000E0F20DA6EDF507DEC4BF01E
:1049C8001B2A0D501B5CD8A0F2D7D50EE82EFED7B7
:1049D80000F00001F591000E196E000E186EE40E3D
:1049E80000D000D0E82EFCD700D000D00001F5A1FF
:1049F8003BD0150E106EC60EE82EFED7102EFCD733
:104A080000D01750D8B405D024EEAFF01AC0DFFF9D
:104A180003D0020EE8CFAFF4000E1B6E0FD0B00E1D
:104A28001B24D96EDA6A040EDA221B500E24E16EBA
:104A3800000E0F20E26EDFCFE7FF1B2A24EEAFF057
:104A4800DE501B5CD8A0EBD7B1C410F01050B0C436
:104A580011F011C012F0136A12C013F0126A12108A
:104A6800156E1350166E0AD0184A192A19BEB7D7F0
:104A7800900E185C010E1958D8A0B1D70001F5B1F5
:104A880025D0020EE8CFAFF4FF0EE8CFB0F4FF0E4A
:104A9800E8CFB1F4156816681750D8B417D024EECB
:104AA800AFF01AC0DFFF000E1B6E09D0B00E1B243A
:104AB800D96EDA6A040EDA22FF0EDF6E1B2A1B504B
:104AC8001ABE04D0FF0A1A24D8B0F0D70001F59115
:104AD80015C00CF016C00DF012002C6E000E2D6ED5
:104AE8002D50110D000EF324156E040EF420166ED1
:104AF8002D50F8EC36F02D2A090E2D64F1D7000E52
:104B0800326EA00E286E020E296E2C50A00DF3CF27
:104B18002AF0F4CF2BF03250100DF3502A26F4501F
:104B28002B2228502A2629502B222AC02EF02BC0AF
:104B38002FF0000E2FBEFF0E306E316E2EC01FF00C
:104B48002FC020F030C021F031C022F03250110DBA
:104B5800010EF324D96E040EF420DA6EDECF23F0B2
:104B6800DDCF24F0000EC8EC49F0020E2E241F6E93
:104B7800000E2F20206E000E3020216E000E3120F6
:104B8800226E3250110D030EF324D96E040EF42058
:104B9800DA6EDF50236E000EC5EC4AF0030E2E24A9
:104BA8001F6E000E2F20206E000E3020216E000E8A
:104BB8003120226E3250110D040EF324D96E040EEA
:104BC800F420DA6EDF50236E000EC5EC4AF0040EB6
:104BD8002E241F6E000E2F20206E000E3020216E16
:104BE800000E3120226E3250110D050EF324D96EBD
:104BF800040EF420DA6EDF50236E000EC5EC4AF086
:104C0800050E2E240D6E000E2F200E6E000E302085
:104C18000F6E000E3120106E3250110D060EF32467
:104C2800116E040EF420126E000E98EC32F00F0E86
:104C38002E241F6E000E2F20206E000E3020216EB5
:104C4800000E3120226E3250110D0F0EF324D96E52
:104C5800040EF420DA6EDF50236E000EC5EC4AF025
:104C6800322A090E32644DD71200000E136EB30EAD
:104C7800126ED80E146E010E156E040E166EA3EC8D
:104C880034F0DAC128F0296A2A6A2B6A2AC02BF084
:104C980029C02AF028C029F0286AD9C12CF02D6A29
:104CA8002E6A2F6A2DC02FF02CC02EF02D6A2C6A88
:104CB800D8C130F0316A326A336A30C033F0326AB0
:104CC800316A306A2C503024346E2D503120356EC4
:104CD8002E503220366E2F503320376E2850342411
:104CE800386E29503520396E2A5036203A6E2B50AE
:104CF80037203B6E0101DB5138243C6E000E392011
:104D08003D6E000E3A203E6E000E3B203F6E3C503A
:104D18003D103E103F10D8B4120069513C186BE1A9
:104D28006A513D1868E16B513E1865E16C513F18B6
:104D3800D8A41200000E1B6EB30E1A6E000E1C6E65
:104D4800000E1D6E000E1E6E000E1F6E60EC46F00B
:104D5800000E1D6EB20E1C6EB3EC4AF01C041D1042
:104D6800D8A41DD0000E756E000E0001EF6F010172
:104D780087698869000E1C6EB20E1B6E000E1E6ECF
:104D8800000E1D6E39EC4BF0000E1C6E9A0E1B6E59
:104D9800000E1E6E000E1D6E39EC4BF028D0000E72
:104DA8001D6EB20E1C6EB3EC4AF01C501D10D8A438
:104DB8001ED0010E756E010E0001EF6F000E01018D
:104DC800886F0A0E876F000E1C6EB20E1B6E000EE7
:104DD8001E6E010E1D6E39EC4BF0000E1C6E9A0E05
:104DE8001B6E000E1E6E010E1D6E39EC4BF0ACEC06
:104DF8004BF039EC46F01200186E000E196E135085
:104E080005E1020E125CD8B0120001D01200135056
:104E180003E11204D8A002D0080E01D0000E196ECA
:104E280018C01AF0D8901A36A00E1A121A80195003
:104E38001A1270EC4BF01AC016F0FE0E1616165029
:104E48000B6E0C6AC6EC4BF011C00BF00C6AC6EC8A
:104E58004BF010C00BF00C6AC6EC4BF0D5EC4BF0E5
:104E68001AC00BF00C6AC6EC4BF0000E176E13500C
:104E780079E1020E125CD8B075D010C016F0010EA0
:104E880016267F0E1616D8A44CD0000E0C6E000EF7
:104E98000B6E76EC44F00B5014C0D9FF15C0DAFF46
:104EA800DF6EE3EC4BF0340E166EF20EE82EFED7F2
:104EB800162EFCD7010E1026000E112212221322E4
:104EC800144A152A135003E11204D8A002D0080E80
:104ED80001D0000E196E18C01AF0D8901A36A00E1C
:104EE8001A121A8019501A1270EC4BF01AC016F0E8
:104EF800FE0E161616500B6E0C6AC6EC4BF011C05F
:104F08000BF00C6AC6EC4BF010C00BF00C6AC6EC48
:104F18004BF0D5EC4BF01AC00BF00C6AC6EC4BF01A
:104F28001BD0000E0C6E010E0B6E76EC44F00B508D
:104F380014C0D9FF15C0DAFFDF6E14C0D9FF15C041
:104F4800DAFFDF50D8B40ED0144A152A010E102605
:104F5800000E112212221322172A1704166E3F0E72
:104F6800166485D7000E0C6E000E0B6E76EC44F0BE
:104F7800E3EC4BF0070E166EC00EE82EFED7162E89
:104F8800FCD712005A0E0B6EA50E0A6EEAEC4BF017
:104F9800030E7DEC4BF0810E7DEC4BF0200E7DEC8A
:104FA8004BF0070E7DEC4BF09C0E1D6ED70EE82ED5
:104FB800FED71D2EFCD700F07DEC47F00009D8B4D1
:104FC80016D0000E3B6E3B50060F1D6E1E6AAA0ED1
:104FD8001D24D96E040E1E20DA6E3B501F0FE16EA1
:104FE800E26ADFCFE7FF3B2A090E3B64ECD7290EC4
:104FF800096E1F5053EC49F02C0E096E205053ECEB
:1050080049F02F0E096E215053EC49F01BC00DF0EA
:105018000E6A370E0F6EFD0E106EF7EC44F01BC0D3
:1050280017F0186A2F0E196E1A6A57EC4AF01BC04F
:1050380017F0186AFC0E196EFF0E1A6E57EC4AF03C
:105048001BC017F0186A2C0E196E1A6A57EC4AF032
:105058001BC017F0186AFC0E196EFF0E1A6E57EC7B
:105068004AF01BC017F0186A290E196E1A6A57EC15
:105078004AF0320E096E235053EC49F0350E096E92
:10508800245053EC49F0380E096E255053EC49F082
:105098001CC00DF00E6A370E0F6EFD0E106EF7EC89
:1050A80044F01CC017F0186A320E196E1A6A57ECD1
:1050B8004AF01CC017F0186A090E196EFF0E1A6E16
:1050C80057EC4AF01CC017F0186A350E196E1A6AA8
:1050D80057EC4AF01CC017F0186A090E196EFF0E3B
:1050E8001A6E57EC4AF01CC017F0186A380E196E81
:1050F8001A6A57EC4AF0010E096E000E0A6E000E8D
:105108000B6E000E0C6E86EC46F012001C6E000E44
:1051180001019E6F050E9D6F105005E1020E0F5C98
:10512800D8B0120001D01200105003E10F04D8A02B
:1051380002D0080E01D0000E1D6E1CC01EF0D890C3
:105148001E36A00E1E121D501E1270EC4BF01EC013
:105158000BF00C6AC6EC4BF00EC00BF00C6AC6ECF8
:105168004BF00DC00BF00C6AC6EC4BF0000E1B6E3A
:1051780063D0105005E1020E0F5CD8B0120001D0C8
:1051880012000DC014F0010E14267F0E1416D8A4B8
:105198003FD012C0D9FF13C0DAFFDF50146E14508D
:1051A8000B6E0C6AC6EC4BF0E3EC4BF0340E146E4D
:1051B800F20EE82EFED7142EFCD7010E0D26000E97
:1051C8000E220F221022124A132A105003E10F0454
:1051D800D8A002D0080E01D0000E1D6E1CC01EF013
:1051E800D8901E36A00E1E121D501E1270EC4BF0E9
:1051F8001EC00BF00C6AC6EC4BF00EC00BF00C6A2C
:10520800C6EC4BF00DC00BF00C6AC6EC4BF013D09B
:1052180012C0D9FF13C0DAFFDF50146E14500B6EA2
:105228000C6AC6EC4BF0124A132A010E0D26000E2A
:105238000E220F2210221B2AFF0E146EFF0E156E6F
:105248001150166E176A14501626155017221B5047
:10525800186E196A1650185C1950800A1A6E175081
:10526800800A1A58D8A085D712C0D9FF13C0DAFF10
:10527800DF50146E14500B6E0C6AC6EC4BF0E3EC66
:105288004BF0340E146EF20EE82EFED7142EFCD717
:105298001200186E000E196E000E01019E6F050EA9
:1052A8009D6F135005E1020E125CD8B0120001D0B8
:1052B8001200135003E11204D8A002D0080E01D046
:1052C800000E196E18C01AF0D8901A36A00E1A12CD
:1052D8001A8019501A1270EC4BF01AC016F0FE0E14
:1052E800161616500B6E0C6AC6EC4BF011C00BF07C
:1052F8000C6AC6EC4BF010C00BF00C6AC6EC4BF015
:10530800D5EC4BF01AC00BF00C6AC6EC4BF0000E53
:10531800176E6BD013506DE1020E125CD8B069D0D5
:1053280010C016F0010E16267F0E1616D8A44AD005
:105338001550D96EDA6A000E0C6E000E0B6E76EC04
:1053480044F00B50DF6EE3EC4BF0340E166EF20EA9
:10535800E82EFED7162EFCD7010E1026000E1122BD
:1053680012221322152A135003E11204D8A002D0E6
:10537800080E01D0000E196E18C01AF0D8901A360F
:10538800A00E1A121A8019501A1270EC4BF01AC09B
:1053980016F0FE0E161616500B6E0C6AC6EC4BF085
:1053A80011C00BF00C6AC6EC4BF010C00BF00C6A85
:1053B800C6EC4BF0D5EC4BF01AC00BF00C6AC6ECFF
:1053C8004BF012D01550D96EDA6A000E0C6E010E31
:1053D8000B6E76EC44F00B50DF6E152A010E10268A
:1053E800000E112212221322172A1450175CD8A07B
:1053F80091D7000E0C6E000E0B6E76EC44F0E3ECC9
:105408004BF0070E166EC00EE82EFED7162EFCD7F0
:105418001200296E2950010B256E25C023F0295052
:105428000C0DF3CF21F0F4CF22F0E60E2124266EE6
:10543800000E2220276E030E29641200040E295E36
:105448002950120DF350340F286E2950010B256E88
:1054580025C023F029500C0DF3CF21F0F4CF22F012
:10546800E60E2124266E000E2220276E26C01BF091
:1054780027C01CF028C009F00A6A4FEC48F0216EDA
:10548800010E21241D6E1E6A000E1E2239EC4BF0FF
:10549800020E26241B6E000E27201C6E010E2824E7
:1054A8000D6E0E6A000E0E2215EC48F00DC01DF0B0
:1054B8000EC01EF039EC4BF0030E26241B6E000EB6
:1054C80027201C6E030E2824096E0A6A000E0A2281
:1054D8004FEC48F0216E21501D6E1E6A39EC4BF0DE
:1054E800040E26241B6E000E27201C6E040E282492
:1054F800096E0A6A000E0A224FEC48F0216E21500C
:105508001D6E1E6A39EC4BF0050E26241B6E000E2C
:1055180027201C6E050E2824096E0A6A000E0A222E
:105528004FEC48F0216E21501D6E1E6A39EC4BF08D
:10553800060E28240D6E0E6A000E0E22B30E0F6E94
:10554800020E106E86EC48F0060E26241A6E000E27
:1055580027201B6EB30E1C6E020E1D6E44EC4AF023
:105568000B0E26241B6E000E27201C6E100E2824FE
:105578000D6E0E6A000E0E2215EC48F00DC01DF0DF
:105588000EC01EF039EC4BF01200000E1D6E040E1A
:105598001C6EB3EC4AF01C041D10D8A43DD00001C9
:1055A800F2B73AD0000E226E040E216E000E236E62
:1055B800F2EC39F00009D8A404D0460EF1EC4BF017
:1055C80012000001E751715C7250800A346EE85194
:1055D800800A3458D8B01AD0000E2C6E040E2B6EE8
:1055E800E00E2D6E010E2E6EAD0E2F6EFD0E306E7E
:1055F800F5EC30F00009D8B412000001F287010E72
:1056080009EC4BF0010ECDEC44F01200000E09EC51
:105618004BF06BEC48F01200000E1D6E040E1C6E71
:10562800B3EC4AF01C501D10D8A42AD00001F2A7F0
:1056380027D0000E226E040E216E010E236EF2ECAE
:1056480039F00009D8A404D0460EF1EC4BF0120052
:105658000001F297000E09EC4BF0000E0101E16F1A
:10566800000EE06F000E1C6E060E1B6E000E1E6E06
:10567800000E1D6E39EC4BF0010E0101A66F1200F1
:10568800000E1D6E040E1C6EB3EC4AF01C041D10B7
:10569800D8A41CD00001F2A719D0030EE725346E58
:1056A800000EE821356E3450715C7250800A366EF7
:1056B8003550800A3658D8B005D0F489010E09EC67
:1056C8004BF01200000E09EC4BF0A3D7000E1D6E34
:1056D800040E1C6EB3EC4AF01C501D10D8A4120026
:1056E8000001F2B71200000E0101E16F000EE06F39
:1056F8001200000E136E9B0E126ED80E146E010E61
:10570800156E040E166EA3EC34F0DAC124F0256A87
:10571800266A276A26C027F025C026F024C025F06F
:10572800246AD9C128F0296A2A6A2B6A29C02BF071
:1057380028C02AF0296A286AD8C12CF02D6A2E6A56
:105748002F6A2CC02FF02E6A2D6A2C6A28502C2420
:10575800306E29502D20316E2A502E20326E2B505B
:105768002F20336E24503024346E25503120356E6E
:1057780026503220366E27503320376E0101DB5118
:105788003424386E000E3520396E000E36203A6EFD
:10579800000E37203B6E385039103A103B10D8B401
:1057A80034D06951381831E16A5139182EE16B51FA
:1057B8003A182BE16C513B18D8A427D0750E886F86
:1057C800300E876F010E0001EF6F000E1C6E9A0EEF
:1057D8001B6E000E1E6E010E1D6E39EC4BF0000E96
:1057E8001C6E9B0E1B6E000E1E6E000E1D6E39EC9D
:1057F8004BF0000E1C6E9C0E1B6E000E1E6E000EF3
:105808001D6E39EC4BF039EC46F00001EF05D8A4D9
:1058180012D0010188AF0FD0000E0001EF6F000E0B
:105828001C6E9A0E1B6E000E1E6E000E1D6E39EC5D
:105838004BF0E8EC4AF0B5EC4BF05A0AD8A4120049
:10584800750E0101886F300E876F000E96EC4BF0D5
:105858001200116E1150D8A40CAE1AD009C00DF068
:105868000AC00EF00BC00FF00CC010F00D1E0E1E7B
:105878000F1E101E0D2A000E0E220F2210220DC020
:1058880013F00EC014F00FC015F010C016F008D0B9
:1058980009C013F00AC014F00BC015F00CC016F0C4
:1058A80009500A100B100C10D8A409D0000E096E6C
:1058B800000E0A6E000E0B6E000E0C6E1200960E95
:1058C800126E06D0122AD8901632153214321332BC
:1058D800000E13140D6E000E14140E6E000E151427
:1058E8000F6EFE0E1614106E0D500E100F101010C5
:1058F800D8B40DD0E7D7122A010E1326000E1422B1
:1059080015221622D8901632153214321332000E90
:1059180013140D6E000E14140E6E000E15140F6E77
:10592800FF0E1614106E0D500E100F101010D8B474
:1059380007D0E1D71206D890133614361536163626
:1059480015BE03D0020E1260F5D712A0159ED8908E
:10595800123212C00DF00E6A0F6A106A0DC010F0F4
:105968000F6A0E6A0D6A0D5013120E5014120F5062
:105978001512105016121150D8A40CAE01D0168E64
:1059880013C009F014C00AF015C00BF016C00CF0D3
:105998001200B2EC49F00101006F000E1B6E000E00
:1059A8001C6E000E1D6E000E1E6E000EBBEC48F045
:1059B8001BC061F01CC062F0614A622A100E615C73
:1059C800270E6258D8A004D0000E626E000E616ED9
:1059D800000E1F6E000E206E000E216E000E226E4D
:1059E80061C023F062C024F0000EC8EC49F0570EE5
:1059F8001B6E4D0E1C6EC6EC27F0000E0101966F53
:105A0800000E956F020E1B6E000E1C6E000E1D6EB2
:105A1800000E1E6E000E6EEC3DF01BC0DFF01CC0C9
:105A2800E0F01DC0E1F01EC0E2F061C001F162C00B
:105A380002F1030E0D6E010E0E6E570E0F6E106AF8
:105A4800F7EC44F00D0E0D6E010E0E6E4D0E0F6E3E
:105A5800106AF7EC44F0170E0D6E010E0E6E370E3D
:105A68000F6EFD0E106EF7EC44F0210E0D6E010E58
:105A78000E6E370E0F6EFD0E106EF7EC44F0000E32
:105A88000E6E090E0D6E15EC48F00D5001012B6FCE
:105A9800DFC02CF1E0C02DF1E1C02EF1E2C02FF102
:105AA800000E306F000E316F000E326F000E336F34
:105AB800000E356F000E346F369736953693368163
:105AC80000512EEC1EF0B1EC3CF01200000E0E6EF0
:105AD800FA0E0D6E15EC48F00DC0E5F00EC0E6F0BC
:105AE800000E1C6ED60E1B6EE5C01DF0E6C01EF043
