:020000040000FA
:0400000014EF02F007
:100018006E80D8CF04F0E8CF05F0E0CF06F0D9CF56
:1000280007F0DACF08F0F3CF09F0F4CF0AF09EAA70
:1000380020EF00F022EF00F0B1EF00F0959A838AEC
:100048000001C1B12AEF00F02CEF00F033EF00F00F
:10005800C1819A0E896F020E8A6F5AEF00F0000E66
:100068000B6E0B504A0DF40EF324D96E040EF420D7
:10007800DA6EDF50D8A443EF00F045EF00F051EFFF
:1000880000F00B504A0DF40EF3240001896F040EA2
:10009800F4208A6FC1815AEF00F00B2A050E0B6419
:1000A80058EF00F05AEF00F035EF00F0010E0001B4
:1000B8008C6F900E8B6F000E626E000E616EB269CF
:1000C80090EF00F09EAA6BEF00F06DEF00F08DEF5F
:1000D80000F0839A838A89C0D9FF8AC0DAFFAECF3D
:1000E800DFFF62BE83EF00F0625007E1490E615CFA
:1000F800D8B081EF00F083EF00F087EF00F0614A9D
:10010800622A894B8A2B010E8C6F900E8B6F90EFB1
:1001180000F08B07D8A08C078B518C11D8A497EFCF
:1001280000F099EF00F066EF00F0839AABA29FEF22
:1001380000F0A1EF00F0B1EF00F0AB98AB88AECFC4
:100148008BF08C6BAECF8BF08C6BAECF8BF08C6B57
:10015800000E02019A6F0001C1839EA0B6EF00F065
:10016800B8EF00F0CAEF01F09E903C0ECF6EB40ECF
:10017800CE6E010E0001B16FBEB1C5EF00F0C7EF42
:1001880000F0C9EF00F0000EB16F000E626E010EB4
:10019800616EE2EF00F09E0E6124D96E010E6220BE
:1001A800DA6EDF50D8A4DBEF00F0DDEF00F0E0EF0F
:1001B80000F0000E0001B16F614A622A6A50016EB8
:1001C800026A6150015C0250800A036E6250800A24
:1001D8000358D8B0F2EF00F0F4EF00F0CFEF00F0E2
:1001E8000001B105D8A4FBEF00F0FDEF00F020EF0F
:1001F80001F004000001BE91000E626E010E616EF6
:1002080062BE10EF01F0625009E10F0E615CD8A0E8
:1002180010EF01F012EF01F014EF01F020EF01F000
:100228009E0E6124D96E010E6220DA6E000EDF6E1A
:10023800614A622A04EF01F0F50E0001805D010EAB
:100248008159D8A02AEF01F02CEF01F02FEF01F02F
:10025800819E30EF01F0818EAB51AC11D8B437EFED
:1002680001F039EF01F03FEF01F0320EAB5F000E05
:10027800AC5B44EF01F0A9C0ABF0AAC0ACF0C18DF3
:10028800320E9F27000EA023320EAD27000EAE239C
:100298006B50D8A452EF01F054EF01F05FEF01F07A
:1002A8009EBF59EF01F05BEF01F05FEF01F0CE0E5A
:1002B8009D27FF0E9E23320E9B27000E9C23320E95
:1002C8008027000E8123E80E805D030E8159D8A097
:1002D80070EF01F072EF01F0CAEF01F0C0A977EFFB
:1002E80001F079EF01F09AEF01F0BD2B3B0EBD65EF
:1002F80080EF01F082EF01F09AEF01F0000EBD6F80
:100308006D2A3B0E6D648BEF01F08DEF01F09AEFD3
:1003180001F0000E6D6E6C2A630E6C6496EF01F0AE
:1003280098EF01F09AEF01F0000E6C6E000E816FED
:10033800000E806F822B6950D8B4A5EF01F0A7EFAB
:1003480001F0A8EF01F069063B0E8265AEEF01F0FF
:10035800B0EF01F0CAEF01F0000E826F832B3B0E65
:100368008365B9EF01F0BBEF01F0CAEF01F0000EB1
:10037800836F842B170E8465C4EF01F0C6EF01F07C
:10038800CAEF01F0000E846FCAEF01F0F2A2CFEFBE
:1003980001F0D1EF01F0D2EF01F0F292F2A4D7EF21
:1003A80001F0D9EF01F004EF02F00D0EE82EFED7B0
:1003B80000F0000ED76EE10ED66EF2940101B15135
:1003C800B211D8B4EAEF01F0ECEF01F0F2EF01F06E
:1003D800B107D8A0B207818CF3EF01F0819C00012E
:1003E800AF51B011D8B4FBEF01F0FDEF01F003EF0E
:1003F80002F0AF07D8A0B007818A04EF02F0819A13
:100408000AC0F4FF09C0F3FF08C0DAFF07C0D9FF2C
:1004180006C0E0FF05C0E8FF04C0D8FF6E901000DA
:1004280033EF34F0640E0C6E000E0D6E000E0E6E7F
:10043800000E0F6E01EC3CF0D388D38AD38C9B8CD2
:10044800EF0E926E010E936EF00E946EE30E956EA3
:100458009668D59AD596D582D582D584F194F28AB4
:10046800F290F2989E909F900B0ECF6EBA0ECE6EC1
:10047800CD92CD88CD8ACD8CCD869D80CD80F28CD5
:10048800F28E000E0001A26F000EA16F819E000E79
:100498000101B26F000EB16F819C000E0001B06FB8
:1004A800000EAF6F819A000E196EC20E1A6E010E01
:1004B8001B6E000E1C6E07EC37F045EC41F0A00EE9
:1004C800196E860E1A6E010E1B6E000E1C6EA5ECC0
:1004D8003BF0F40E0C6E010E0D6E000E0E6E000E4B
:1004E8000F6E01EC3CF0000E116E220E106E59ECEE
:1004F8003FF010C0DEF011C0DFF00001DE2906E198
:10050800DF29D8A48AEF02F08CEF02F0A0EF02F006
:10051800000E2C6E220E2B6E000E2E6E000E2D6E0F
:100528006FEC40F0000E2C6EE80E2B6E000E2E6E57
:10053800000E2D6E6FEC40F00001DE4BDF2B000E3D
:100548002C6E220E2B6EDEC02DF0DFC02EF06FEC6D
:1005580040F00001BF99000E116EFA0E106E59ECB2
:100568003FF010C08FF011C090F02C0E0C6E010EF1
:100578000D6E000E0E6E000E0F6E01EC3CF0970E25
:10058800236EFC0E246E5EEC2BF02C0E0C6E010E0E
:100598000D6E000E0E6E000E0F6E01EC3CF00A0E92
:1005A800236EFE0E246E5EEC2BF02C0E0C6E010EEC
:1005B8000D6E000E0E6E000E0F6E01EC3CF0C50EB7
:1005C800236EFC0E246E5EEC2BF02C0E0C6E010ECE
:1005D8000D6E000E0E6E000E0F6E01EC3CF0070E55
:1005E800206EC60E1F6EAA0E216E040E226E1AEC25
:1005F80041F0500E106E020E116ED70E126EFE0EE6
:10060800136E76EC3BF0500E1A6E020E1B6EAA0E9D
:100618001C6E040E1D6E36EC40F0500E236E020E5A
:10062800246E5EEC2BF02C0E0C6E010E0D6E000E7F
:100638000E6E000E0F6E01EC3CF076EC1DF0000E15
:100648000D6E340E0C6E0EEC3EF0FF0AD8A42FEFA0
:1006580003F031EF03F07CEF03F0E50E236EFC0EA0
:10066800246E5EEC2BF00A0E346E000EE2EC2DF0D8
:1006780086EC3CF0E0EC3AF09CEC39F0000E6B6E46
:10068800000E0001BB6F3CEC41F0000E266E100E10
:10069800256E000E276E24EC38F0000E2C6E090E25
:1006A8002B6E000E2E6E0A0E2D6E6FEC40F0000EB3
:1006B8002C6E0B0E2B6E400E2D6EE20E2E6E010E62
:1006C8002F6E000E306E4FEC3EF0000E31EC0AF04B
:1006D800000E266E110E256E000E276E24EC38F0E3
:1006E800000E266E120E256E000E276E24EC38F0D2
:1006F800EAEC30F0010E31EC0AF0000E116E0B0E30
:10070800106E53EC3DF010C085F011C086F012C099
:1007180087F013C088F09AEC37F013EC32F08CECC9
:100728003FF09C0E236EFE0E246E5EEC2BF0000E46
:100738000001E26F0E0EE265A4EF03F0A6EF03F0EE
:10074800A8EF03F0B1EF03F004000001E251EAEC76
:1007580021F00001E22B9EEF03F0000EE36F070E7D
:10076800E365B9EF03F0BBEF03F0BDEF03F0C7EFAC
:1007780003F00400E3C025F0266AD3EC2AF0000158
:10078800E32BB3EF03F0000E116E0B0E106E53EC5B
:100798003DF010C085F011C086F012C087F013C07C
:1007A80088F09AEC37F086EC14F013EC32F08CEC0D
:1007B8003FF04EEC31F06FEC36F0000E0001ED6FBB
:1007C800000EEC6F000EEB6F000EEA6F000EBC6FB0
:1007D800000EA06F000E9F6F000EB76F000E9A6F8D
:1007E800000E996F000E986F000E976F000E686EDE
:1007F800000E676E000EB1EC3CF0000E0001816F38
:10080800000E806F000E826F000EBD6FC0C0B3F087
:10081800000E696E000E0101AD6F000EAE6F000E86
:10082800AF6F000EB06F4AEC17F0000E1C6E0F0E83
:100838001B6EFDEC40F00001BE8174EC32F000014B
:10084800BF87E90E9F5D030EA059D8A02EEF04F0D4
:1008580030EF04F04BEF04F0000EA06F000E9F6F16
:1008680081EC35F01DC0ECF01EC0EDF00001EA513E
:10087800EC1909E1EB51ED19D8B445EF04F047EF55
:1008880004F04BEF04F0ECC0EAF0EDC0EBF0BF97DA
:10089800BF87815107E1020E805DD8B056EF04F0A2
:1008A80058EF04F065EF04F0190EEC19ED11D8B407
:1008B80060EF04F062EF04F065EF04F0000EB1ECB5
:1008C8003CF00001C0A96BEF04F06DEF04F06FEF8E
:1008D80004F013EC3BF04EEC31F06FEC36F0B1EC79
:1008E80022F036EC20F00001BF9766EC38F06AEC95
:1008F8001EF0DCEC34F0D6EC26F00001BF87B351D3
:10090800C019D8B48AEF04F08CEF04F092EF04F029
:100918007AEC3DF073EC3FF0C0C0B3F00001BD517C
:10092800D8B499EF04F09BEF04F0A4EF04F01E0E86
:10093800BD19D8A4A2EF04F0A4EF04F0B0EF04F0BE
:10094800BFA3A9EF04F0ABEF04F0B1EF04F0BF933D
:100958005AEC41F0B1EF04F0BF83D3EC3BF0000157
:10096800BF9786EC14F073EC18F00001BF8788EF8E
:1009780009F0000EE46F090EE465C5EF04F0C7EF57
:1009880004F0C9EF04F008EF05F0070EE4251F6E28
:10099800206A000E20225CEC40F01F042010D8A42E
:1009A800D8EF04F0DAEF04F004EF05F0070E0001C9
:1009B800E4251D6E1E6A000E1E22000E206E000E1B
:1009C8001F6EECEC40F0E4C0B9F0050E0001B9610F
:1009D800F0EF04F0F2EF04F0FCEF04F0130EB86F40
:1009E800000E1C6E1B0E1B6EFDEC40F004EF05F0B4
:1009F800150EB86F000E1C6E1C0E1B6EFDEC40F041
:100A08000001E42BBFEF04F0FFEC15F0C2EF09F092
:100A1800000E206E010E1F6E5CEC40F01F042010CB
:100A2800D8A419EF05F01BEF05F0C2EF09F0000E8E
:100A38001E6E010E1D6E000E206E000E1F6EECEC79
:100A480040F0E8EC2CF0C2EF09F0BC51D8A42FEF2D
:100A580005F031EF05F036EF05F0010EB1EC3CF092
:100A68000001BC2B000E206E980E1F6E5CEC40F04F
:100A78001F042010D8A443EF05F045EF05F052EF0E
:100A880005F0000E1E6E980E1D6E000E206E000EF4
:100A98001F6EECEC40F0010EB1EC3CF0000E206E45
:100AA800AE0E1F6E5CEC40F01F042010D8A45FEF60
:100AB80005F061EF05F0C2EF09F0000E1E6EAE0EF4
:100AC8001D6E000E206E000E1F6EECEC40F0ACECBC
:100AD8003AF0C2EF09F0000EBA6F070EBA6577EF69
:100AE80005F079EF05F07BEF05F0B0EF05F0200E8B
:100AF800BA251F6E206A000E20225CEC40F01F040D
:100B08002010D8A48AEF05F08CEF05F0ACEF05F0C3
:100B1800200E0001BA251D6E1E6A000E1E22000E50
:100B2800206E000E1F6EECEC40F0B8C01BF01C6A83
:100B3800FDEC40F0C20E1A6E000E1B6E0001BA5199
:100B4800B1EC2FF0010E256E0001B95146EC2FF0E3
:100B58000001BA2B71EF05F0000E206E110E1F6E0A
:100B68005CEC40F01F042010D8A4BDEF05F0BFEFE7
:100B780005F0CEEF05F0000E1E6E110E1D6E000E74
:100B8800206E000E1F6EECEC40F0B8C01BF01C6A23
:100B9800FDEC40F0000E206E120E1F6E5CEC40F073
:100BA8001F042010D8A4DBEF05F0DDEF05F0C2EF3D
:100BB80009F0000E1E6E120E1D6E000E206E000E45
:100BC8001F6EECEC40F0000E0001C86FC90E106EED
:100BD800000E116E410E126EFD0E136E76EC3BF098
:100BE800000E0001C76F000EC66F000EC56F000E25
:100BF800C46F000EC36F000EC26F000E256EB95190
:100C080046EC2FF0B8C01BF01C6AFDEC40F0C2EFB8
:100C180009F0000E206EAF0E1F6E5CEC40F01F0452
:100C28002010D8A41AEF06F01CEF06F0C2EF09F066
:100C3800000E1E6EAF0E1D6E000E206E000E1F6E93
:100C4800ECEC40F0DBEC3CF0C2EF09F0100E85193B
:100C58005D6E2F0E86195E6EBA0E87195F6EE40EF2
:100C68008819606E5D1CD86F5E1CD96F5F1CDA6FC7
:100C7800601CDB6FD8C019F0D9C01AF0DAC01BF0BD
:100C8800DBC01CF0500E1D6E020E1E6E000E206E94
:100C9800100E1F6E06EC28F0060E1E6E7C0E1D6EE2
:100CA800500E1F6E020E206E49EC40F0F40E0C6ED2
:100CB800010E0D6E000E0E6E000E0F6EE8EC38F091
:100CC800010E206E820E1F6E5CEC40F01F04201097
:100CD800D8A471EF06F073EF06F0C2EF09F0010E29
:100CE8001E6E820E1D6E000E206E000E1F6EECEC46
:100CF80040F03BEC11F0C2EF09F0BF87030EE96F3B
:100D0800100EE86FE9BF92EF06F01D0EE85D030EC6
:100D1800E959D8A092EF06F094EF06F096EF06F0A6
:100D28004CEF09F0E851F00FB56FE8C01FF0E9C0CB
:100D380020F05CEC40F00E0E1F182010D8A4A7EF8E
:100D480006F0A9EF06F057EF08F00001BB51D8B440
:100D5800B0EF06F0B2EF06F047EF08F0320E8F1949
:100D68009011D8A4BAEF06F0BCEF06F0BFEF06F07A
:100D7800B5C08DF08E6B500E8F199011D8A4C7EFA7
:100D880006F0C9EF06F0D0EF06F025EC39F05D6EFD
:100D98005D5000018D6F8E6B8EBFDEEF06F08E51B9
:100DA80007E1080E8D5DD8B0DCEF06F0DEEF06F047
:100DB8000BEF08F0100EB5251D6E1E6A030E1E22DD
:100DC800010EB5251F6E206A000E2022ECEC40F0C3
:100DD8008DC015F08EC016F0000E186E0A0E176E34
:100DE80082EC40F0FD0E15241D6E060E16201E6EB8
:100DF800010E8DC05DF08EC05EF05DC05EF05D6A74
:100E08005D101F6E5E50206EECEC40F08DC015F04A
:100E18008EC016F0000E186E0A0E176E82EC40F0A7
:100E2800FB0E15241D6E060E16201E6E0001B55110
:100E3800020D840EF324D96E010EF420DA6EDECF93
:100E48001FF0DDCF20F0ECEC40F05A0E00018D25AC
:100E5800D96E030E8E21DA6E8DC0DFFF690E8D25E7
:100E6800D96E030E8E21DA6EB529DF6E780EB525A0
:100E7800D96EDA6A030EDA22B529DF6EB551020D92
:100E8800840EF324D96E010EF420DA6ED8908D35D5
:100E9800E16E8E35E26E870EE126030EE222DECF8A
:100EA800E6FFDDCFE5FF000E5D6E030E5E6E1E0EE3
:100EB8005D26000E5E22D8908D35D96E8E35DA6E9D
:100EC800D890D936DA365D50D9265E50DA22000E2F
:100ED800DE6E000EDE6E800EDE6E3F0EDD6E020EE2
:100EE800B56579EF07F07BEF07F083EF07F0010EA8
:100EF800B525DC6FDD6B000EDD2386EF07F0B5C08E
:100F0800DCF0DD6BDCC05DF0DDC05EF0D8905D36F6
:100F18005E36B30E5F6E010E606E5D505F265E50EA
:100F28006022D8908D35D96E8E35DA6E000ED926AE
:100F3800030EDA225FC0DEFF60C0DDFF000E5D6ECB
:100F4800030E5E6E1E0E5D26000E5E22D8908D3555
:100F5800D96E8E35DA6ED890D936DA365D50D92604
:100F68005E50DA22000EDE6E000EDE6E800EDE6E41
:100F78003F0EDD6EB551D8A4C4EF07F0C6EF07F0F9
:100F8800E2EF07F0000E5D6E030E5E6E1E0E5D262C
:100F9800000E5E22D8908D35D96E8E35DA6ED890D7
:100FA800D936DA365D50D9265E50DA22550EDE6E15
:100FB800C10EDE6EE80EDE6E3E0EDD6EB505D8A4FF
:100FC800E8EF07F0EAEF07F006EF08F0000E5D6EB5
:100FD800030E5E6E1E0E5D26000E5E22D8908D35C5
:100FE800D96E8E35DA6ED890D936DA365D50D92674
:100FF8005E50DA22CD0EDE6ECC0EDE6E4C0EDE6E4C
:101008003D0EDD6E020E31EC0AF047EF09F08DC09F
:1010180015F08EC016F0000E186E0A0E176E82ECD0
:1010280040F0FD0E15241D6E060E16201E6E0001E2
:101038008D515E6E5D6A000E5D101F6E0A0E5E10A9
:10104800206EECEC40F08DC015F08EC016F0000E4E
:10105800186E0A0E176E82EC40F0FB0E15241D6EFA
:10106800060E16201E6EFF0E206E1F68ECEC40F078
:10107800E8C01DF0E9C01EF0FF0E206E1F68ECEC02
:1010880040F047EF09F0DBEC40F0E8C01DF0E9C0A4
:101098001EF0FF0E206E1F68ECEC40F0520E6FEC55
:1010A80041F047EF09F0E8C01FF0E9C020F05CEC20
:1010B80040F0205009E10F0E1F5CD8A066EF08F041
:1010C80068EF08F047EF09F0E8C01FF0E9C020F02A
:1010D8005CEC40F0205007E11F0E1F5CD8B077EFA2
:1010E80008F079EF08F047EF09F00001BB51D8B4D8
:1010F80080EF08F082EF08F00AEF09F0690E0C6E35
:10110800030E0D6EB5290E6EAEEC3EF00001E56FD4
:10111800690EB525D96EDA6A030EDA22DF505D6EE4
:101128005D04D76FE8C01DF0E9C01EF0FF0E206E09
:101138001F68ECEC40F00001E5510A0DF3CF5DF0BB
:10114800F4CF5EF0FD0E5D241D6E060E5E201E6E51
:101158000A0E206E000E1F6EECEC40F00001E55107
:101168000A0DF3CF5DF0F4CF5EF0FB0E5D241D6E2B
:10117800060E5E201E6EFF0E206E1F68ECEC40F01F
:101188000001E551020D000EF324D96E030EF42080
:10119800DA6E000EDE6E000EDD6E5A0EE525D96E93
:1011A800DA6A030EDA220A0EDF6E690EE525D96EB9
:1011B800DA6A030EDA22FF0EDF6E780EB525D96ED5
:1011C800DA6A030EDA22FF0EDF6EE551020D870E92
:1011D800F324D96E030EF420DA6EFF0EDE6EFF0ED6
:1011E800DD6EE551040D1E0EF324D96E030EF420B6
:1011F800DA6E000EDE6E000EDE6E000EDE6E000E83
:10120800DD6E020E31EC0AF047EF09F0DBEC40F03E
:10121800520E6FEC41F0320E00018F199011D8A4D4
:1012280018EF09F01AEF09F02BEF09F0E8C01DF0EC
:10123800E9C01EF0690EB525D96EDA6A030EDA2206
:10124800DF505D6E5D501F6E206AECEC40F0500E72
:1012580000018F199011D8A434EF09F036EF09F086
:1012680047EF09F0E8C01DF0E9C01EF0780EB5257B
:10127800D96EDA6A030EDA22DF505D6E5D501F6E9A
:10128800206AECEC40F00001E84BE92B86EF06F011
:10129800BF97C2EF09F0CAEC40F0000E0001BA6F28
:1012A800070EBA655AEF09F05CEF09F05EEF09F036
:1012B800C2EF09F0200EBA251F6E206A000E202208
:1012C8005CEC40F01F042010D8A46DEF09F06FEF1C
:1012D80009F080EF09F0200E0001BA251D6E1E6A84
:1012E800000E1E22000E206E000E1F6EECEC40F069
:1012F800D3EC35F0C2EF09F00001BA2B54EF09F036
:1013080052EC0FF0C2EF09F0ECC05DF0EDC05EF0FA
:101318005E50000AD8B493EF09F0C2EF09F05D50AF
:10132800130AD8B4BDEF04F0060AD8B4BDEF04F030
:10133800020AD8B40CEF05F00E0AD8B429EF05F06C
:10134800020AD8B46FEF05F0070AD8B46FEF05F0BA
:10135800010AD8B40DEF06F0020AD8B42AEF06F055
:101368003C0AD8B481EF06F00C0AD8B44FEF09F064
:101378001E0AD8B484EF09F0C2EF09F00001BF8D4E
:1013880026EF0AF0BF9D030E5E6E080E5D6E770EA7
:10139800E82EFED75D2EFCD75E2EFAD700F0CD0ED4
:1013A80095EC40F0CD0E95EC40F0CD0E95EC40F06C
:1013B800CD0E95EC40F0CD0E95EC40F0000E0001FE
:1013C800E16F000EE06FE15109E1C80EE05DD8A0C1
:1013D800F0EF09F0F2EF09F0F4EF09F010EF0AF07E
:1013E800C1A1F9EF09F0FBEF09F0FDEF09F010EFEB
:1013F8000AF0000EB06F050EAF6F010E0C6E000EF6
:101408000D6E000E0E6E000E0F6E01EC3CF000012A
:10141800E04BE12BE7EF09F0C1A115EF0AF017EF58
:101428000AF01BEF0AF05BEC2EF00001BF8DC1A1A2
:1014380020EF0AF022EF0AF026EF0AF067EC2DF011
:10144800C2EF09F0BFBD2BEF0AF02DEF0AF0C6EF8F
:1014580009F01FEF04F014EF02F0376E37EC26F0B6
:1014680023EF0DF0000E3F6E3F50020D870EF32460
:10147800D96E030EF420DA6EFF0EDE6EFF0EDD6EFF
:101488005A0E3F24D96EDA6A030EDA220A0EDF6E8C
:10149800690E3F24D96EDA6A030EDA22FF0EDF6E78
:1014A800780E3F24D96EDA6A030EDA22FF0EDF6E59
:1014B8003F50020D000EF324D96E030EF420DA6EAD
:1014C800000EDE6E000EDD6E3F50040D1E0EF3247E
:1014D800D96E030EF420DA6E000EDE6E000EDE6E9C
:1014E800000EDE6E000EDD6E130E3F24256E266A9A
:1014F800000E2622780E3F24D96EDA6A030EDA220D
:10150800DF50276E24EC38F0EA0E3F24256E266A59
:10151800000E2622690E3F24D96EDA6A030EDA22FB
:10152800DF50276E24EC38F0240E3F24256E266AFF
:10153800000E26225A0E3F24D96EDA6A030EDA22EA
:10154800DF50276E24EC38F0100E3F241D6E1E6A03
:10155800030E1E22FF0E206E1F68ECEC40F03F5079
:101568000A0DF3CF31F0F4CF32F0FD0E31241D6EA9
:10157800060E32201E6E0A0E206E000E1F6EECEC58
:1015880040F03F500A0DF3CF31F0F4CF32F0FB0EAC
:1015980031241D6E060E32201E6EFF0E206E1F684F
:1015A800ECEC40F03F2A0C0E3F64DDEF0AF0DFEF71
:1015B8000AF038EF0AF03CEF0DF0000E116E130E32
:1015C800106E780E126E030E136E0F0E146ECCECA6
:1015D8003EF0000E116EEA0E106E690E126E030ECA
:1015E800136E0F0E146ECCEC3EF0000E116E240E2E
:1015F800106E5A0E126E030E136E0F0E146ECCEC94
:101608003EF0000E3F6E780E3F24D96EDA6A030E64
:10161800DA22DF503A6E3A28D8B415EF0BF017EFFC
:101628000BF024EF0BF0100E3F241D6E1E6A030E04
:101638001E223AC01FF0206AECEC40F02FEF0BF0AE
:10164800100E3F241D6E1E6A030E1E22FF0E206E12
:101658001F68ECEC40F03F2A0C0E3F6436EF0BF0AD
:1016680038EF0BF007EF0BF0000E3F6E5A0E3F24D9
:10167800D96EDA6A030EDA22080EDF6046EF0BF045
:1016880048EF0BF060EF0BF0690E3F24D96EDA6A71
:10169800030EDA22DF50316E326AD8903136323694
:1016A800820E3124D96E010E3220DA6EDECF3CF084
:1016B800DDCF3DF062EF0BF03C683D683F500A0D0E
:1016C800F3CF31F0F4CF32F0FB0E31241D6E060E4D
:1016D80032201E6E3CC01FF03DC020F0ECEC40F004
:1016E8003F50020D870EF324D96E030EF420DA6EF4
:1016F8003CC0DEFF3DC0DDFF3F2A0C0E3F6487EF94
:101708000BF089EF0BF03AEF0BF0000E3F6E5A0E1C
:101718003F24D96EDA6A030EDA22DF503B6E080ED8
:101728003B6099EF0BF09BEF0BF0B6EF0BF03F50DF
:101738000A0DF3CF31F0F4CF32F0FD0E31241D6ED7
:10174800060E32201E6E010E3BC033F0346A33C0E1
:1017580034F0336A33101F6E3450206EECEC40F0D6
:10176800C8EF0BF03F500A0DF3CF31F0F4CF32F051
:10177800FD0E31241D6E060E32201E6E0A0E206EDE
:10178800000E1F6EECEC40F03F2A0C0E3F64CFEFCA
:101798000BF0D1EF0BF08BEF0BF0000E3E6E5A0EF4
:1017A8003E24D96EDA6A030EDA220A0EDE18D8B49D
:1017B800E0EF0BF0E2EF0BF0BEEF0CF0FF0E316E36
:1017C800FF0E326E5A0E3E24D96EDA6A030EDA2202
:1017D800DF50336E346A690E3324D96E030E342019
:1017E800DA6EDF50356E366A315035263250362281
:1017F80036BE08EF0CF0365009E1030E355CD8A070
:1018080008EF0CF00AEF0CF020EF0CF05A0E3E2413
:10181800D96EDA6A030EDA22DF50316E326A690E47
:101828003124D96E030E3220DA6EDF50336E335016
:10183800386E396A37EF0CF05A0E3E24D96EDA6AE0
:10184800030EDA22DF50316E326A690E3124D96E06
:10185800030E3220DA6EDF50336EFF0E3324386EFB
:10186800396AFF0E392238C031F039C032F0D890C9
:1018780031363236B30E336E010E346E31503326A4
:10188800325034225A0E3E24D96EDA6A030EDA2216
:10189800DF50356E3550020D000EF324D96E030E5D
:1018A800F420DA6E33C0DEFF34C0DDFF5A0E3E246A
:1018B800D96EDA6A030EDA22DF50316E3150040D28
:1018C8001E0EF324D96E030EF420DA6E000EDE6EBF
:1018D800000EDE6E800EDE6E3F0EDD6E5A0E3E246A
:1018E800D96EDA6A030EDA22DF50D8A47EEF0CF044
:1018F80080EF0CF098EF0CF05A0E3E24D96EDA6A9D
:10190800030EDA22DF50316E3150040D1E0EF3241F
:10191800D96E030EF420DA6E550EDE6EC10EDE6E41
:10192800E80EDE6E3E0EDD6E5A0E3E24D96EDA6A81
:10193800030EDA22DE04D8A4A4EF0CF0A6EF0CF014
:10194800BEEF0CF05A0E3E24D96EDA6A030EDA2284
:10195800DF50316E3150040D1E0EF324D96E030E84
:10196800F420DA6ECD0EDE6ECC0EDE6E4C0EDE6E20
:101978003D0EDD6E3E2A070E3E64C5EF0CF0C7EF44
:101988000CF0D3EF0BF03CEF0DF0000E3F6E100E95
:101998003F241F6E206A030E20225CEC40F0780E74
:1019A8003F24D96EDA6A030EDA221FC0DFFF3F50E8
:1019B8000A0DF3CF31F0F4CF32F0FD0E31241F6E53
:1019C800060E3220206E5CEC40F020C01FF0206A2A
:1019D8005A0E3F24D96EDA6A030EDA221FC0DFFFDF
:1019E8003F2A0D0E3F64FBEF0CF0FDEF0CF0CBEF40
:1019F8000CF0000E2C6E130E2B6E780E2D6E030E4F
:101A08002E6E0F0E2F6E8FEC3EF0000E2C6EEA0E2F
:101A18002B6E690E2D6E030E2E6E0F0E2F6E8FEC31
:101A28003EF0000E2C6E240E2B6E5A0E2D6E030EF9
:101A38002E6E0F0E2F6E8FEC3EF03CEF0DF03750F0
:101A4800316E326A3250000AD8B42DEF0DF03CEFF7
:101A58000DF03150000AD8B436EF0AF0010AD8B4B4
:101A6800E1EF0AF0030AD8B4C9EF0CF03CEF0DF02F
:101A780012001D50800B266E1D501D242C6E1CAEAE
:101A880048EF0DF04AEF0DF04BEF0DF02C802C5085
:101A9800D8B451EF0DF053EF0DF066EF0DF02C2890
:101AA800D8A459EF0DF05BEF0DF063EF0DF0000EC9
:101AB8001A6E000E1B6E000E1C6E000E1D6E1C8E24
:101AC8006EEF0DF0000E1A6E000E1B6E000E1C6EEF
:101AD800000E1D6E2150800B261A215021242B6EDA
:101AE80020AE79EF0DF07BEF0DF07CEF0DF02B8041
:101AF8002B50D8B482EF0DF084EF0DF097EF0DF076
:101B08002B28D8A48AEF0DF08CEF0DF094EF0DF090
:101B1800000E1E6E000E1F6E000E206E000E216E4F
:101B2800208E9FEF0DF0000E1E6E000E1F6E000E31
:101B3800206E000E216E2B50D8B4A5EF0DF0A7EF44
:101B48000DF0AFEF0DF02C50D8A4ADEF0DF0AFEFC6
:101B58000DF0B9EF0DF0000E1A6E000E1B6E000EA0
:101B68001C6E000E1D6E51EF0FF020501A02F3CFBD
:101B780031F0F4CF32F03150276E286A296A2A6A88
:101B880032502D6E2E6A2F6A306A1F501B02F3CF17
:101B980031F0F4CF32F031502726000E28222922C6
:101BA8002A2232502D26000E2E222F2230221E509D
:101BB8001C02F3CF31F0F4CF32F031502726000E5B
:101BC800282229222A2232502D26000E2E222F22A8
:101BD800302229C02AF028C029F027C028F0276A17
:101BE8001E501B02F3CF31F0F4CF32F031502726CC
:101BF80032502822000E2922000E2A221F501A02D3
:101C0800F3CF31F0F4CF32F031502726325028226A
:101C1800000E2922000E2A2229C02AF028C029F005
:101C280027C028F0276A1E501A02F3CF31F0F4CFEC
:101C380032F03150272632502822000E2922000E79
:101C48002A2220501B02F3CF31F0F4CF32F031506A
:101C58002D2632502E22000E2F22000E30221F5029
:101C68001C02F3CF31F0F4CF32F031502D26325030
:101C78002E22000E2F22000E302220501C02F3CFFD
:101C880031F0F4CF32F03150226E3250236E246A94
:101C9800256A24C025F023C024F022C023F0226A3C
:101CA80022502D2623502E2224502F222550302218
:101CB80027C022F028C023F029C024F02AC025F02C
:101CC800190E6CEF0EF0D8902532243223322232CE
:101CD800E82E67EF0EF022502D2623502E22245096
:101CE8002F222550302229C02AF028C029F027C0E9
:101CF80028F0276A2B502CC022F0236A2226000ED7
:101D08002322820E2224316EFF0E2320326EA2EF90
:101D18000EF0D8902D362E362F3630362AAE97EF65
:101D28000EF099EF0EF09AEF0EF02D80D89027362E
:101D3800283629362A363106D8A032062FAEA7EF24
:101D48000EF0A9EF0EF08DEF0EF0000E2B6E2AAEFE
:101D5800B0EF0EF0B2EF0EF0D6EF0EF0FF0E271434
:101D6800226EFF0E2814236EFF0E2914246E7F0E98
:101D78002A14256E2250231024102510D8B4C7EF3A
:101D88000EF0C9EF0EF0CDEF0EF0010E2B6ED6EF70
:101D98000EF02DA0D2EF0EF0D4EF0EF0D6EF0EF02D
:101DA800C9EF0EF02B50D8B4DCEF0EF0DEEF0EF0DA
:101DB80002EF0FF0010E2D26000E2E222F223022C8
:101DC80030A0E9EF0EF0EBEF0EF002EF0FF02DC0B0
:101DD80022F02EC023F02FC024F030C025F0253487
:101DE800253224322332223222C02DF023C02EF095
:101DF80024C02FF025C030F0314A322A32BE0DEF10
:101E08000FF0325008E13128D8A00DEF0FF00FEF96
:101E18000FF019EF0FF0000E2D6E000E2E6E800ED3
:101E28002F6E7F0E306E47EF0FF032BE26EF0FF0A9
:101E3800325006E13104D8B024EF0FF026EF0FF04E
:101E480032EF0FF0000E2D6E000E2E6E000E2F6E6C
:101E5800000E306E000E266E47EF0FF031C02CF0EA
:101E6800FF0E2D16FF0E2E167F0E2F16000E3016A3
:101E78002CA041EF0FF043EF0FF044EF0FF02F8E3F
:101E8800D8902C30306E265030122DC01AF02EC04B
:101E98001BF02FC01CF030C01DF01200010E206E88
:101EA800860E1F6E5CEC40F01F042010D8A45FEF74
:101EB8000FF061EF0FF0E8EF0FF0000E0001C36FB5
:101EC800000EC26F000EC56F000EC46F000EC76F04
:101ED800000EC66F000EC86FC90E106E000E116E90
:101EE800410E126EFD0E136E76EC3BF0C20E2F6E95
:101EF800000E306E0001BA51D3EC32F0BAC025F0B2
:101F0800266AD3EC2AF0010E1E6E9A0E1D6E000E84
:101F1800206E000E1F6EECEC40F0010E1E6E9B0E44
:101F28001D6E000E206E000E1F6EECEC40F0010ED0
:101F38001E6E9C0E1D6E000E206E000E1F6EECECC9
:101F480040F0010E1E6E9D0E1D6E000E206E000EDE
:101F58001F6EECEC40F0010E1E6E9E0E1D6E410EC3
:101F68001F6EFD0E206E49EC40F0CAEC40F0010EE9
:101F78001E6E860E1D6E000E206E000E1F6EECEC9F
:101F880040F0600E6FEC41F07AEC3DF0070E1E6EEB
:101F9800760E1D6ED40E1F6EFD0E206E49EC40F0BD
:101FA800DC0E0C6E050E0D6E000E0E6E000E0F6E22
:101FB8005AEC3CF0070E1E6E760E1D6E410E1F6E1B
:101FC800FD0E206E49EC40F0010E206E870E1F6E4C
:101FD8005CEC40F01F042010D8A4F5EF0FF0F7EFE9
:101FE8000FF05FEF10F0010E206E9A0E1F6E5CEC82
:101FF80040F01FC0C2F020C0C3F0010E206E9B0E3F
:102008001F6E5CEC40F01FC0C4F020C0C5F0010E8C
:10201800206E9C0E1F6E5CEC40F01FC0C6F020C006
:10202800C7F0010E206E9D0E1F6E5CEC40F01F5035
:102038000001C86F010E206E9E0E1F6EC90E216E24
:10204800000E226E1AEC41F0C20E2F6E000E306E9A
:102058000001BA51D3EC32F0CAEC40F0010E1E6E0A
:10206800870E1D6E000E206E000E1F6EECEC40F009
:10207800510E6FEC41F07AEC3DF0070E1E6E760EB5
:102088001D6EB80E1F6EFD0E206E49EC40F0DC0E82
:102098000C6E050E0D6E000E0E6E000E0F6E5AECD5
:1020A8003CF0070E1E6E760E1D6E410E1F6EFD0E65
:1020B800206E49EC40F0010E206E880E1F6E5CEC1D
:1020C80040F01F042010D8A46CEF10F06EEF10F051
:1020D8001BEF11F0070E1E6E760E1D6E7E0E1F6E24
:1020E800FD0E206E49EC40F0C20E1A6E000E1B6EFB
:1020F8000001BA51B1EC2FF0070E1E6E760E1D6E60
:10210800600E1F6EFD0E206E49EC40F0000E3D6E15
:10211800B0EF10F03DC040F0C2C041F0C3C042F083
:10212800C4C043F0C6C044F0C8C045F0460E106EA7
:10213800000E116EC90E126E000E136E76EC3BF097
:10214800000E506E010E4F6E400E2F6E000E306E58
:102158003D50D2EC2EF03D2AFC0E366EFF0E376E47
:102168006A50386E396AD89038363936365038263B
:10217800375039223D503A6E3B6A38503A5C3B50F2
:10218800800A3C6E3950800A3C58D8A0CEEF10F037
:10219800D0EF10F08EEF10F0070E1E6E760E1D6E4B
:1021A800630E1F6EFC0E206E49EC40F07EEC1CF0B6
:1021B800070E1E6E760E1D6E050E1F6EFD0E206E2E
:1021C80049EC40F0000E3E6E3E50EAEC21F03E2A0B
:1021D8000E0E3E64F2EF10F0F4EF10F0E8EF10F09E
:1021E800000E3F6E3F50E5EC24F03F2A090E3F6495
:1021F80000EF11F002EF11F0F6EF10F0010E1E6E75
:10220800880E1D6E000E206E000E1F6EECEC40F066
:10221800600E6FEC41F07AEC3DF0070E1E6E760E04
:102228001D6E410E1F6EFD0E206E49EC40F0010E32
:10223800206E890E1F6E5CEC40F01F042010D8A49D
:1022480028EF11F02AEF11F03AEF11F0010E1E6E8F
:10225800890E1D6E000E206E000E1F6EECEC40F015
:10226800000E1C6E2F0E1B6EFDEC40F01200010ECE
:10227800206E7E0E1F6ED4EC3FF01FC033F020C0DE
:1022880034F021C035F022C036F0E3EC2BF0010E1B
:10229800206E800E1F6ED4EC3FF01FC033F020C0BC
:1022A80034F021C035F022C036F0E3EC2BF0010EFB
:1022B800166E7C0E156E590E176E000E186E040EF3
:1022C800196E71EC27F05BC03DF03E6A3F6A406AC8
:1022D8003FC040F03EC03FF03DC03EF03D6A5AC0AE
:1022E80041F0426A436A446A42C044F041C043F044
:1022F800426A416A59C045F0466A476A486A45C019
:1023080048F0476A466A456A41504524496E42503A
:1023180046204A6E435047204B6E445048204C6E2E
:102328003D5049244D6E3E504A204E6E3F504B2042
:102338004F6E40504C20506E5C504D240001856F0C
:10234800000E4E20866F000E4F20876F000E502023
:10235800886F010E166E7E0E156E590E176E000EE2
:10236800186E040E196E71EC27F05BC03DF03E6AE2
:102378003F6A406A3FC040F03EC03FF03DC03EF07B
:102388003D6A5AC041F0426A436A446A42C044F016
:1023980041C043F0426A416A59C045F0466A476AFB
:1023A800486A45C048F0476A466A456A415045242C
:1023B800496E425046204A6E435047204B6E445067
:1023C80048204C6E3D5049244D6E3E504A204E6E7A
:1023D8003F504B204F6E40504C20506E5C504D2467
:1023E800556E000E4E20566E000E4F20576E000E92
:1023F8005020586E010E166E800E156E590E176E0F
:10240800000E186E040E196E71EC27F05BC03DF0DB
:102418003E6A3F6A406A3FC040F03EC03FF03DC060
:102428003EF03D6A5AC041F0426A436A446A42C07B
:1024380044F041C043F0426A416A59C045F0466AD7
:10244800476A486A45C048F0476A466A456A415043
:102458004524496E425046204A6E435047204B6EF1
:10246800445048204C6E3D5049244D6E3E504A2001
:102478004E6E3F504B204F6E40504C20506E5C507B
:102488004D24516E000E4E20526E000E4F20536E9A
:10249800000E5020546E0001855186118711881155
:1024A800D8B459EF12F05BEF12F071EF12F05550FB
:1024B800561057105810D8B464EF12F066EF12F0A7
:1024C80071EF12F05150521053105410D8A46FEFFE
:1024D80012F071EF12F076EF12F0230E6FEC41F06C
:1024E800F0EF12F0000E116E0B0E106E53EC3DF073
:1024F8000001855110180DE1865111180AE1875124
:10250800121807E188511318D8A48DEF12F08FEF35
:1025180012F0EDEF12F0515055180DE152505618C7
:102528000AE15350571807E154505818D8A49FEFA0
:1025380012F0A1EF12F0E8EF12F0000E2C6E0B0E65
:102548002B6E55C02DF056C02EF057C02FF058C036
:1025580030F04FEC3EF055C085F056C086F057C0BD
:1025680087F058C088F03CEC41F0010E1E6E7C0EDE
:102578001D6E000E1F6E000E206E000E216E000EE6
:10258800226E45EC3BF0010E1E6E7E0E1D6E000E97
:102598001F6E000E206E000E216E000E226E45EC9E
:1025A8003BF0010E1E6E800E1D6E000E1F6E000E9B
:1025B800206E000E216E000E226E45EC3BF0220EBE
:1025C8006FEC41F0F0EF12F0210E6FEC41F0F0EFFC
:1025D80012F0200E6FEC41F0120007C23DF008C265
:1025E8003CF009C23BF00AC23AF037EF14F006C2D9
:1025F80025F0266A07C227F024EC38F0030EBDEC5C
:102608003FF04CEC41F085EF14F006C20CF00D6A77
:102618000EEC3EF0386E010EBDEC3FF0385095ECF4
:1026280040F085EF14F006C233F0085107C22FF0CE
:10263800306A2FC030F02F6A2F10316E3050326E52
:1026480033C02BF02C6A31C02DF032C02EF06FEC65
:1026580040F0030EBDEC3FF005EF13F006C210F09A
:10266800116A59EC3FF010C036F011C037F0020E75
:10267800BDEC3FF036C00DF037C00EF053EC41F022
:1026880085EF14F006C22BF02C6A070E2D6E020E91
:102698002E6EA1EC3DF0030EBDEC3FF005EF13F0FC
:1026A80006C210F0116A500E126E020E136E6FEC15
:1026B8003EF04A0EBDEC3FF0500E0D6E020E0E6E4F
:1026C80052EC37F085EF14F03AC022F03BC023F00B
:1026D8003CC024F03DC025F00B0E266E020E276E7E
:1026E800065110EC40F0030EBDEC3FF005EF13F07F
:1026F8003AC026F03BC027F03CC028F03DC029F086
:102708000651A5EC3FF0386E010EBDEC3FF0385095
:1027180095EC40F085EF14F00BC234F00CC235F0A4
:102728003AC022F03BC023F03CC024F03DC025F065
:10273800340E266E000E276E0651FDEC3FF0030E98
:10274800BDEC3FF005EF13F03AC026F03BC027F090
:102758003CC028F03DC029F0065122EC3FF026C0CD
:1027680036F027C037F0020EBDEC3FF03EEF13F015
:102778000BC239F03AC012F03BC013F03CC014F061
:102788003DC015F039C016F0AA0E176E040E186E6B
:1027980006518BEC1AF03950BDEC3FF0AA0E0D6EC5
:1027A800040E0E6E39C00FF006EC3FF085EF14F002
:1027B8003AC00FF03BC010F03CC011F03DC012F021
:1027C8000BC213F00C0E146E020E156E065186EC39
:1027D8001BF0030EBDEC3FF005EF13F03AC00FF00D
:1027E8003BC010F03CC011F03DC012F00B0E136E50
:1027F800020E146E065177EC23F0030EBDEC3FF089
:1028080005EF13F03AC012F03BC013F03CC014F0CF
:102818003DC015F0500E166E020E176E065183EC71
:1028280019F0500E0C6E020E0D6E03EC3DF00C50BC
:10283800BDEC3FF060EF13F007C222F00651A7ECA1
:1028480038F0030EBDEC3FF005EF13F006512F6E84
:1028580007511B6E2FC01CF03EEC3FF0030EBDEC81
:102868003FF005EF13F0020104512F6E306A30502B
:10287800000AD8B442EF14F085EF14F02F50080A7C
:10288800D8B4FBEF12F0010AD8B409EF13F0030A29
:10289800D8B417EF13F0010AD8B432EF13F0070ACF
:1028A800D8B446EF13F0010AD8B454EF13F01C0A59
:1028B800D8B468EF13F0030AD8B47CEF13F0010A18
:1028C800D8B490EF13F0070AD8B4A8EF13F0010AB0
:1028D800D8B4F2EF13F0030AD8B406EF14F0010AE3
:1028E800D8B4DCEF13F00F0AD8B4BCEF13F0010A28
:1028F800D8B420EF14F0380AD8B42AEF14F085EFD2
:1029080014F01200200E0C6E000E0D6E000E0E6EEE
:10291800000E0F6E5AEC3CF0000E326EC4EF14F04D
:1029280032C00CF00D6A000E0F6E020E0E6EB1EC86
:1029380031F00C282E6E3250010B316E31C029F067
:102948001A0E0F6E010E106E290E116E000E126E09
:102958002E5029EC29F03250020DB30EF324D96E13
:10296800010EF420DA6E0FC0DEFF10C0DDFF9E0EF0
:102978002E24D96EDA6A010EDA22010EDF6E322AAF
:102988006A50020D3250256E266AF350255C265097
:10299800800A276EF450800A2758D8A0D6EF14F082
:1029A800D8EF14F094EF14F0320E0C6E000E0D6E8A
:1029B800000E0E6E000E0F6E5AEC3CF00001BF8741
:1029C800000E326EE8EF15F0000E1E6E990E1D6EA9
:1029D8003250020DB30EF324D96E010EF420DA6ED4
:1029E800DECF1FF0DDCF20F0ECEC40F03250020DCE
:1029F800B30EF324D96E010EF420DA6EDECF97F011
:102A0800DDCF98F0E7EF15F0000E1E6E970E1D6EE5
:102A18003250020DB30EF324D96E010EF420DA6E93
:102A2800DECF1FF0DDCF20F0ECEC40F03250020D8D
:102A3800B30EF324D96E010EF420DA6EDECF99F0CE
:102A4800DDCF9AF0E7EF15F0000E1E6E960E1D6EA4
:102A58003250020DB30EF324D96E010EF420DA6E53
:102A6800DECF1FF0DDCF20F0ECEC40F03250020D4D
:102A7800B30EF324D96E010EF420DA6EDECF67F0C0
:102A8800DDCF68F0E7EF15F03250FC0F316E3150B2
:102A98000C0DF3CF25F0F4CF26F0E60E25242C6E8E
:102AA800000E26202D6E900E31242F6E306A010EF6
:102AB8003022010E2C241D6E000E2D201E6E31506A
:102AC800256E266AD89025362636BB0E2524D96E63
:102AD800010E2620DA6EDECF1FF0DDCF20F0ECEC01
:102AE80040F03150256E266AD89025362636BB0E22
:102AF8002524D96E010E2620DA6E010EDBAE8EEF8C
:102B080015F0700EDE5CFE0EDE58D8B08EEF15F0B4
:102B180090EF15F09CEF15F02FC01DF030C01EF09F
:102B2800000E206E010E1F6EECEC40F0E7EF15F082
:102B38003150256E266AD89025362636BB0E2524B8
:102B4800D96E010E2620DA6EDE2806E1DE28D8A42A
:102B5800B0EF15F0B2EF15F0BEEF15F02FC01DF075
:102B680030C01EF0000E206E000E1F6EECEC40F020
:102B7800E7EF15F02FC01DF030C01EF0000E206EDC
:102B8800030E1F6EECEC40F0E7EF15F03250256EA7
:102B9800266A2650000AD8B4D4EF15F048EF15F08D
:102BA8002550000AD8B4E8EF14F0010AD8B408EFA9
:102BB80015F0030AD8B428EF15F0010AD8B4E7EFE6
:102BC80015F048EF15F0322A6A50020D3250256E82
:102BD800266AF350255C2650800A276EF450800A36
:102BE8002758D8A0FAEF15F0FCEF15F0CAEF15F04A
:102BF8000001BF971200000E206EA80E1F6E5CEC3D
:102C080040F01F042010D8A40CEF16F00EEF16F0B9
:102C180038EF16F0000E1E6EA80E1D6E000E206E08
:102C2800000E1F6EECEC40F00001BB51D8B41FEF52
:102C380016F021EF16F033EF16F0000E4A6E4A50E8
:102C4800EAEC21F04A2A0E0E4A642DEF16F02FEF17
:102C580016F023EF16F07AEC3DF038EF16F0520E2E
:102C68006FEC41F0DBEC40F0000E206EA70E1F6EFB
:102C78005CEC40F01F042010D8A445EF16F047EF95
:102C880016F08DEF16F0000E1E6EA70E1D6E000ECC
:102C9800206E000E1F6EECEC40F00001BB51D8B462
:102CA80058EF16F05AEF16F088EF16F03E0E216E28
:102CB800FE0E226E070E246ED00E236E000E256EB9
:102CC800010E266E88EC34F0000E4B6E4B5099ECDA
:102CD80028F04B2A090E4B6474EF16F076EF16F0C5
:102CE8006AEF16F0940E216EFF0E226E070E246E08
:102CF800D00E236E010E256E000E266E88EC34F081
:102D08007AEC3DF08DEF16F0520E6FEC41F0DBECF3
:102D180040F0000E206EA60E1F6E5CEC40F01F0403
:102D28002010D8A49AEF16F09CEF16F0D6EF16F004
:102D3800000E1E6EA60E1D6E000E206E000E1F6E7B
:102D4800ECEC40F00001BB51D8B4ADEF16F0AFEF9A
:102D580016F0D1EF16F0B00E216EFE0E226E070EA1
:102D6800246ED00E236E000E256E010E266E88ECA2
:102D780034F07EEC1CF0940E216EFF0E226E070ECE
:102D8800246ED00E236E010E256E000E266E88EC82
:102D980034F07AEC3DF0D6EF16F0520E6FEC41F0BD
:102DA800DBEC40F0000E206EA90E1F6E5CEC40F0CC
:102DB8001F042010D8A4E3EF16F0E5EF16F049EF52
:102DC80017F0000E1E6EA90E1D6E000E206E000E6E
:102DD8001F6EECEC40F00001BB51D8B4F6EF16F0D2
:102DE800F8EF16F044EF17F09F0E216EFF0E226EDB
:102DF800070E246ED00E236E000E256E010E266E71
:102E080088EC34F0130E0001EC19ED11D8A40FEF83
:102E180017F011EF17F013EF17F0000E496E150EAB
:102E2800EC19ED11D8A41BEF17F01DEF17F01FEFE9
:102E380017F0050E496E050E346E4950E2EC2DF080
:102E4800000E4C6E4C50EAEC21F04C2A0E0E4C64ED
:102E580030EF17F032EF17F026EF17F07AEC3DF06D
:102E6800BE0E216EFF0E226E070E246ED00E236E4C
:102E7800010E256E000E266E88EC34F049EF17F02F
:102E8800520E6FEC41F0DBEC40F01200000E1E6EAB
:102E9800020E1D6E000E206E000E1F6EECEC40F050
:102EA800000E1E6E030E1D6E000E206E000E1F6EAD
:102EB800ECEC40F0000E1E6E040E1D6E000E206E2F
:102EC800000E1F6EECEC40F0000E1E6E050E1D6E1F
:102ED800000E206E000E1F6EECEC40F00001C09951
:102EE800000E0D6E100E0C6E0EEC3EF00001C06F61
:102EF800C051D8B482EF17F084EF17F070EF18F0D4
:102F0800420E236EFD0E246E5EEC2BF09B0E236E9C
:102F1800FD0E246E5EEC2BF0000E44EC3AF000013E
:102F2800C0A199EF17F09BEF17F0FAEF17F0C091D7
:102F3800B40E236EFF0E246E5EEC2BF0000E1E6E98
:102F4800020E1D6E000E206E010E1F6EECEC40F09E
:102F580066EC38F0000E1C6E230E1B6EFDEC40F084
:102F6800000E486E000E496E000E4A6E000E4B6E43
:102F7800000E436E4BC044F04AC045F049C046F0CD
:102F880048C047F0140E0F6E050E106E430E116EFA
:102F9800000E126E010E29EC29F00FC041F010C08E
:102FA80042F0320E0C6E000E0D6E000E0E6E000E0C
:102FB8000F6E01EC3CF041C03DF042C03EF0010E06
:102FC8000DEC3AF0020E4826000E49224A224B2206
:102FD8004B504A100BE1580E485C020E4958D8A0D5
:102FE800F8EF17F0FAEF17F0BCEF17F00001C0A5E3
:102FF80000EF18F002EF18F01FEF18F0C0951E0E42
:10300800236EFF0E246E5EEC2BF0000E1E6E030E78
:103018001D6E000E206E010E1F6EECEC40F0DCEC15
:1030280034F0100E0C6E270E0D6E000E0E6E000E94
:103038000F6E01EC3CF00001C0A725EF18F027EF58
:1030480018F045EF18F0C097C089C70E236EFF0E21
:10305800246E5EEC2BF0000E1E6E040E1D6E000E2C
:10306800206E010E1F6EECEC40F06AEC1EF0100EA4
:103078000C6E270E0D6E000E0E6E000E0F6E01EC1C
:103088003CF00001C0A34BEF18F04DEF18F06AEFC9
:1030980018F0C0932D0E236EFF0E246E5EEC2BF0FD
:1030A800000E1E6E050E1D6E000E206E010E1F6EA8
:1030B800ECEC40F0D6EC26F0100E0C6E270E0D6EE0
:1030C800000E0E6E000E0F6E01EC3CF0000E1C6E32
:1030D8000F0E1B6EFDEC40F0C0C0B3F01200C8EC40
:1030E8003DF0EF0E236EFD0E246E5EEC2BF0FB0E12
:1030F800236EFE0E246E5EEC2BF0000E206EAA0EE0
:103108001F6E5CEC40F01F042010D8A48EEF18F05E
:1031180090EF18F082EF19F0000E1E6EAA0E1D6EC9
:10312800000E206E000E1F6EECEC40F0000E1C6EC0
:10313800000E1B6EFDEC40F0000E116E220E106E9C
:1031480059EC3FF010C02CF011C02DF02CC01BF032
:103158002DC01CF0AA0E1D6E040E1E6E000E206EF1
:103168000A0E1F6E91EC25F0500E106E020E116EB5
:10317800890E126EFF0E136E76EC3BF0500E1A6E2F
:10318800020E1B6EAA0E1C6E040E1D6E36EC40F06D
:10319800500E236E020E246E5EEC2BF0010E2B6E89
:1031A8003BEF19F0500E106E020E116EE90E126E02
:1031B800FF0E136E76EC3BF02BC01BF01C6AAA0EB8
:1031C8001D6E040E1E6E000E206E0A0E1F6E91EC10
:1031D80025F0500E1A6E020E1B6EAA0E1C6E040EFF
:1031E8001D6E36EC40F0AA0E106E040E116E900E95
:1031F800126EFF0E136E76EC3BF0500E1A6E020E36
:103208001B6EAA0E1C6E040E1D6E36EC40F0100EDE
:10321800286E0B0E0F6E010E106E280E116E000E2A
:10322800126E2B5029EC29F00FC02CF010C02DF095
:103238002CC01BF02DC01CF0AA0E1D6E040E1E6EB5
:10324800000E206E0A0E1F6E91EC25F0500E1A6EBD
:10325800020E1B6EAA0E1C6E040E1D6E36EC40F09C
:10326800500E236E020E246E5EEC2BF02B2A2B5090
:103278006A5CD8B042EF19F044EF19F0D6EF18F0B5
:10328800C40E236EFE0E246E5EEC2BF0000E116E43
:10329800E80E106E59EC3FF010C02CF011C02DF064
:1032A8002CC01BF02DC01CF0500E1D6E020E1E6EA1
:1032B800000E206E0A0E1F6E91EC25F0500E1A6E4D
:1032C800020E1B6EAA0E1C6EFF0E1D6E36EC40F031
:1032D800500E236E020E246E5EEC2BF0980E0C6ED0
:1032E8003A0E0D6E000E0E6E000E0F6E01EC3CF0E5
:1032F800000E1C6E0F0E1B6EFDEC40F01200216ECE
:10330800000E226E155009E1020E145CD8A08FEF52
:1033180019F091EF19F093EF19F08AEF1AF01550A0
:1033280008E11404D8A09BEF19F09DEF19F0A1EF64
:1033380019F0080E226EA3EF19F0000E226E21C0BC
:1033480023F0D8902336A00E231223802250231274
:1033580032EC41F023C018F0FE0E181618500D6E0E
:103368000E6A65EC41F013C00DF00E6A65EC41F091
:1033780012C00DF00E6A65EC41F078EC41F023C004
:103388000DF00E6A65EC41F0000E206E155009E153
:10339800020E145CD8A0D3EF19F0D5EF19F0D7EFCF
:1033A80019F07BEF1AF0010E1224186E000E13208C
:1033B800196E000E14201A6E000E15201B6E7F0E5B
:1033C80018141C6E000E19141D6E000E1A141E6EB1
:1033D800000E1B141F6E1C501D101E101F10D8A4A9
:1033E800F8EF19F0FAEF19F04EEF1AF0000E0E6E22
:1033F800000E0D6EEBEC3DF00D5016C0D9FF17C056
:10340800DAFFDF6E6AEC41F0340E186EF20EE82E29
:10341800FED7182EFCD7010E1226000E13221422F6
:103428001522164A172A155008E11404D8A01FEFD0
:103438001AF021EF1AF025EF1AF0080E226E27EF86
:103448001AF0000E226E21C023F0D8902336A00E69
:10345800231223802250231232EC41F023C018F0AB
:10346800FE0E181618500D6E0E6A65EC41F013C06A
:103478000DF00E6A65EC41F012C00DF00E6A65ECB5
:1034880041F078EC41F023C00DF00E6A65EC41F094
:1034980070EF1AF0000E0E6E010E0D6EEBEC3DF0A3
:1034A8000D5016C0D9FF17C0DAFFDF6E16C0D9FF5E
:1034B80017C0DAFFDF50D8A464EF1AF066EF1AF0ED
:1034C80068EF1AF07BEF1AF0164A172A010E122637
:1034D800000E132214221522202A2004186E3F0EF3
:1034E800186479EF1AF07BEF1AF0CAEF19F0000EA2
:1034F8000E6E000E0D6EEBEC3DF06AEC41F0070E1F
:10350800186EC00EE82EFED7182EFCD71200236EB8
:10351800000E246E155009E1020E145CD8A097EF36
:103528001AF099EF1AF09BEF1AF085EF1BF015507F
:1035380008E11404D8A0A3EF1AF0A5EF1AF0A9EF38
:103548001AF0080E246EABEF1AF0000E246E23C09A
:1035580025F0D8902536A00E251225802450251256
:1035680032EC41F025C019F0FE0E191619500D6EF7
:103578000E6A65EC41F013C00DF00E6A65EC41F07F
:1035880012C00DF00E6A65EC41F078EC41F025C0F0
:103598000DF00E6A65EC41F0000E226E6DEF1BF027
:1035A800155009E1020E145CD8A0DDEF1AF0DFEF28
:1035B8001AF0E1EF1AF076EF1BF0010E1224196EE3
:1035C800000E13201A6E000E14201B6E000E15201C
:1035D8001C6E7F0E19141D6E000E1A141E6E000E3E
:1035E8001B141F6E000E1C14206E1D501E101F1081
:1035F8002010D8A402EF1BF004EF1BF058EF1BF0CB
:10360800000E0E6E000E0D6EEBEC3DF00D5017C067
:10361800D9FF18C0DAFFDF6E6AEC41F0340E196E7C
:10362800F20EE82EFED7192EFCD7010E1226000E38
:10363800132214221522174A182A155008E11404D7
:10364800D8A029EF1BF02BEF1BF02FEF1BF0080E73
:10365800246E31EF1BF0000E246E23C025F0D890A5
:103668002536A00E251225802450251232EC41F073
:1036780025C019F0FE0E191619500D6E0E6A65EC6C
:1036880041F013C00DF00E6A65EC41F012C00DF068
:103698000E6A65EC41F078EC41F025C00DF00E6A39
:1036A80065EC41F06CEF1BF0000E0E6E010E0D6E16
:1036B800EBEC3DF00D5017C0D9FF18C0DAFFDF6EF4
:1036C800174A182A010E1226000E13221422152258
:1036D800222A1650225CD8A074EF1BF076EF1BF05C
:1036E800D4EF1AF0000E0E6E000E0D6EEBEC3DF0EE
:1036F8006AEC41F0070E196EC00EE82EFED7192E9F
:10370800FCD712001F6E125009E1020E115CD8A0FE
:1037180090EF1BF092EF1BF094EF1BF07DEF1CF085
:10372800125008E11104D8A09CEF1BF09EEF1BF08B
:10373800A2EF1BF0080E206EA4EF1BF0000E206E07
:103748001FC021F0D8902136A00E2112205021123E
:1037580032EC41F021C00DF00E6A65EC41F010C06A
:103768000DF00E6A65EC41F00FC00DF00E6A65ECC5
:1037780041F0000E1E6E4CEF1CF0125009E1020ED3
:10378800115CD8A0CAEF1BF0CCEF1BF0CEEF1BF0FA
:103798007DEF1CF0010E0F24166E000E1020176E20
:1037A800000E1120186E000E1220196E7F0E1614CE
:1037B8001A6E000E17141B6E000E18141C6E000EE5
:1037C80019141D6E1A501B101C101D10D8A4EFEFF1
:1037D8001BF0F1EF1BF038EF1CF014C0D9FF15C037
:1037E800DAFFDF50166E16500D6E0E6A65EC41F06A
:1037F8006AEC41F0340E166EF20EE82EFED7162E45
:10380800FCD7010E0F26000E102211221222144A94
:10381800152A125008E11104D8A015EF1CF017EF73
:103828001CF01BEF1CF0080E206E1DEF1CF0000EA4
:10383800206E1FC021F0D8902136A00E21122050F2
:10384800211232EC41F021C00DF00E6A65EC41F016
:1038580010C00DF00E6A65EC41F00FC00DF00E6A55
:1038680065EC41F04BEF1CF014C0D9FF15C0DAFF2E
:10387800DF50166E16500D6E0E6A65EC41F0144A54
:10388800152A010E0F26000E1022112212221E2ABE
:10389800FF0E166EFF0E176E1350186E196A16502B
:1038A8001826175019221E501A6E1B6A18501A5CD7
:1038B8001B50800A1C6E1950800A1C58D8A067EF4C
:1038C8001CF069EF1CF0C1EF1BF014C0D9FF15C044
:1038D800DAFFDF50166E16500D6E0E6A65EC41F079
:1038E8006AEC41F0070E166EC00EE82EFED7162EB3
:1038F800FCD71200040E206E20C00CF00D6A000EDA
:103908000F6E020E0E6EB1EC31F00C28246E2050B2
:10391800010B256E2050120DF350EC0F1F6E010E97
:103928001F24106E116A000E112259EC3FF010C0CE
:103938001DF011C01EF02550070DF3CF21F01EC059
:1039480022F01DC023F00A0E0F6E030E106E210E1A
:10395800116E000E126E245029EC29F0070E1C6E11
:10396800170E1B6E6A0EE82EFED71B2EFCD71C2ED8
:10397800FAD700D02550070DF350020F216E030E21
:103988001F240C6E0D6A000E0D220EEC3EF0226E06
:10399800080E0F6E020E106E210E116E000E126EC2
:1039A800245029EC29F0070E1C6E170E1B6E6A0EA8
:1039B800E82EFED71B2EFCD71C2EFAD700D0255098
:1039C800070DF350030F216E040E1F240C6E0D6AB1
:1039D800000E0D220EEC3EF0226E080E0F6E020E47
:1039E800106E210E116E000E126E245029EC29F073
:1039F800070E1C6E170E1B6E6A0EE82EFED71B2EC6
:103A0800FCD71C2EFAD700D02550070DF350040F11
:103A1800216E050E1F240C6E0D6A000E0D220EEC91
:103A28003EF0226E080E0F6E020E106E210E116E01
:103A3800000E126E245029EC29F0070E1C6E170E8A
:103A48001B6E6A0EE82EFED71B2EFCD71C2EFAD74B
:103A580000D0100E1F24106E116A000E112259ECAE
:103A68003FF010C01DF011C01EF02550070DF35097
:103A7800050F216E1EC022F01DC023F00A0E0F6E26
:103A8800030E106E210E116E000E126E245029ECDA
:103A980029F0070E1C6E170E1B6E6A0EE82EFED755
:103AA8001B2EFCD71C2EFAD700D02504D8A45FEF14
:103AB8001DF061EF1DF06CEF1DF0010E0F6E000E92
:103AC800106E210E116E000E126E245029EC29F092
:103AD800202A0E0E206473EF1DF075EF1DF080EFA5
:103AE8001CF01200030E0F6E000E106EAA0E116E5F
:103AF800040E126E2B5029EC29F0000E6A6E500E3F
:103B0800106E020E116E410E126EFD0E136E76ECE3
:103B18003BF0500E1A6E020E1B6EE90E1C6EFE0E66
:103B28001D6E36EC40F0500E1A6E020E1B6ED90E4A
:103B38001C6EFF0E1D6E36EC40F0500E236E020E0A
:103B4800246E5EEC2BF0010E2B6E640E0C6E000ED4
:103B58000D6E000E0E6E000E0F6E01EC3CF074EC54
:103B680032F0030E0F6E000E106EAA0E116E040EC8
:103B7800126E2B5029EC29F00FC029F010C02AF042
:103B88002AC028F0292808E12A28D8B4CEEF1DF049
:103B9800D0EF1DF033EF1EF06A2A500E106E020EA1
:103BA800116E410E126EFD0E136E76EC3BF02BC0BB
:103BB8001BF01C6A500E1D6E020E1E6E000E206E4B
:103BC8000A0E1F6E91EC25F0500E1A6E020E1B6E37
:103BD800F50E1C6EFF0E1D6E36EC40F0500E1A6E80
:103BE800020E1B6E2850020DD10EF324D96E010E61
:103BF800F420DA6EDECF1CF0DDCF1DF036EC40F09D
:103C0800500E1A6E020E1B6E400E1C6EFD0E1D6EBF
:103C180036EC40F0AA0E106E040E116E400E126EB5
:103C2800FD0E136E76EC3BF02B0E0F6E000E106E31
:103C3800AA0E116E040E126E2B5029EC29F0500EAC
:103C48001A6E020E1B6EAA0E1C6E040E1D6E36EC4A
:103C580040F0500E236E020E246E5EEC2BF02B2AE1
:103C68000E0E2B643AEF1EF03CEF1EF0A9EF1DF08C
:103C78006A50D8A442EF1EF044EF1EF04CEF1EF03D
:103C8800250E236EFE0E246E5EEC2BF069EF1EF0FF
:103C98006AC01BF01C6A500E1D6E020E1E6E000ECE
:103CA800206E0A0E1F6E91EC25F0500E1A6E020E51
:103CB8001B6E570E1C6EFE0E1D6E36EC40F0500E3D
:103CC800236E020E246E5EEC2BF01200000E206EA6
:103CD800040E1F6E5CEC40F01F042010D8A477EF90
:103CE8001EF079EF1EF0A0EF1EF00001C0B77FEFC5
:103CF8001EF081EF1EF0A0EF1EF0C0876550675CD4
:103D08006850800A316E6650800A3158D8B08FEFFB
:103D18001EF091EF1EF099EF1EF0010EA8EC40F096
:103D2800010E44EC3AF04FEF1FF0000EA8EC40F003
:103D38002FEC3EF04FEF1FF0000E206E040E1F6EAA
:103D48005CEC40F01F502010D8A4ADEF1EF0AFEF90
:103D58001EF01DEF1FF00001C0A7B5EF1EF0B7EF72
:103D68001EF01DEF1FF0C097000EA8EC40F0000EEB
:103D78001E6E060E1D6E000E206E000E1F6EECEC01
:103D880040F0420E6FEC41F0000E1E6E160E1D6ED6
:103D9800000E206E000E1F6EECEC40F0000E336E2D
:103DA800000E326E010E0C6E000E0D6E000E0E6EC1
:103DB800000E0F6E5AEC3CF0000E206E060E1F6EC1
:103DC8005CEC40F01F502010D8B4EDEF1EF0EFEF80
:103DD8001EF0F1EF1EF002EF1FF00400324A332A02
:103DE80033BE00EF1FF0100E325C270E3358D8A0F8
:103DF80000EF1FF002EF1FF0D6EF1EF0000E206E4E
:103E0800060E1F6E5CEC40F0F10E1F182010D8A4AF
:103E180010EF1FF012EF1FF04FEF1FF0000E44ECF1
:103E28003AF0000E6C6E000E6D6E7AEC3DF04FEFBE
:103E38001FF0000E206E040E1F6E5CEC40F01F0495
:103E48002010D8A42AEF1FF02CEF1FF04FEF1FF01F
:103E58000001C0A732EF1FF034EF1FF04FEF1FF043
:103E68006550675C6850800A316E6650800A315828
:103E7800D8B041EF1FF043EF1FF04AEF1FF0010EDB
:103E8800A8EC40F00001BF894FEF1FF0000EA8EC2E
:103E980040F09CEF1EF012005A0E0E6EA50E0D6E2D
:103EA80053EC41F0030E95EC40F0810E95EC40F098
:103EB800200E95EC40F0070E95EC40F02EEC3CF00F
:103EC8000009D8B46AEF1FF06CEF1FF089EF1FF0FC
:103ED800000E406E4050060F226E236A9A0E22246E
:103EE800D96E020E2320DA6E240E4024E16EE26AB7
:103EF800000EE222DFCFE7FF402A090E406487EF79
:103F08001FF089EF1FF06EEF1FF02E0E0C6E000EE3
:103F18000D6E2450EAEC3EF0310E0C6E000E0D6E64
:103F28002550EAEC3EF0340E0C6E000E0D6E265055
:103F3800EAEC3EF01EC010F01FC011F0410E126EE8
:103F4800FD0E136E76EC3BF01EC01AF01FC01BF07E
:103F5800340E1C6E000E1D6E36EC40F01EC01AF0BA
:103F68001FC01BF0FC0E1C6EFF0E1D6E36EC40F0E1
:103F78001EC01AF01FC01BF0310E1C6E000E1D6E05
:103F880036EC40F01EC01AF01FC01BF0FC0E1C6E71
:103F9800FF0E1D6E36EC40F01EC01AF01FC01BF05D
:103FA8002E0E1C6E000E1D6E36EC40F0370E0C6E99
:103FB800000E0D6E2850EAEC3EF03A0E0C6E000E24
:103FC8000D6E2950EAEC3EF03D0E0C6E000E0D6EA3
:103FD8002A50EAEC3EF020C010F021C011F0410E4A
:103FE800126EFD0E136E76EC3BF020C01AF021C065
:103FF8001BF0370E1C6E000E1D6E36EC40F020C014
:104008001AF021C01BF0D50E1C6EFE0E1D6E36EC8C
:1040180040F020C01AF021C01BF03A0E1C6E000EB2
:104028001D6E36EC40F020C01AF021C01BF0D50EF2
:104038001C6EFE0E1D6E36EC40F020C01AF021C03A
:104048001BF03D0E1C6E000E1D6E36EC40F0010E8E
:104058000C6E000E0D6E000E0E6E000E0F6E5AECFA
:104068003CF01200000E166EB30E156ED30E176ECE
:10407800000E186E040E196E71EC27F0D5C02BF0E7
:104088002C6A2D6A2E6A2DC02EF02CC02DF02BC064
:104098002CF02B6AD4C02FF0306A316A326A30C0F3
:1040A80032F02FC031F0306A2F6AD3C033F0346A4F
:1040B800356A366A33C036F0356A346A336A2F5047
:1040C8003324376E30503420386E31503520396EF5
:1040D800325036203A6E2B5037243B6E2C50382005
:1040E8003C6E2D5039203D6E2E503A203E6E000118
:1040F800D6513B243F6E000E3C20406E000E3D2002
:10410800416E000E3E20426E3F504010411042105A
:10411800D8B491EF20F093EF20F00FEF21F0855104
:104128003F180DE1865140180AE18751411807E10F
:1041380088514218D8A4A3EF20F0A5EF20F00FEF84
:1041480021F0000E1E6EB30E1D6E000E1F6E000EC7
:10415800206E000E216E000E226E45EC3BF0000E24
:10416800206EB20E1F6E5CEC40F01F042010D8A425
:10417800C0EF20F0C2EF20F0DFEF20F0000E6B6EF2
:10418800000E0001BB6F9D699E69000E1E6EB20E87
:104198001D6E000E206E000E1F6EECEC40F0000E3F
:1041A8001E6E9A0E1D6E000E206E000E1F6EECEC39
:1041B80040F00BEF21F0000E206EB20E1F6E5CEC8B
:1041C80040F01F502010D8A4ECEF20F0EEEF20F0C4
:1041D8000BEF21F0010E6B6E010E0001BB6F000E9C
:1041E8009E6F0A0E9D6F000E1E6EB20E1D6E000EA3
:1041F800206E010E1F6EECEC40F0000E1E6E9A0E43
:104208001D6E000E206E010E1F6EECEC40F03CECB3
:1042180041F07AEC3DF01200146E1450D8B417EF48
:1042280021F019EF21F03BEF21F00FBE20EF21F034
:104238001EEF21F03BEF21F00CC010F00DC011F083
:104248000EC012F00FC013F0101E111E121E131E06
:10425800102A000E11221222132210C016F011C0CB
:1042680017F012C018F013C019F043EF21F00CC07A
:1042780016F00DC017F00EC018F00FC019F00C5052
:104288000D100E100F10D8A44CEF21F04EEF21F0B6
:1042980058EF21F0000E0C6E000E0D6E000E0E6E23
:1042A800000E0F6EE9EF21F0960E156E62EF21F009
:1042B800152AD8901932183217321632000E1614F1
:1042C800106E000E1714116E000E1814126EFE0EEA
:1042D8001914136E1050111012101310D8A477EF80
:1042E80021F079EF21F05CEF21F087EF21F0152A1A
:1042F800010E1626000E172218221922D8901932FC
:10430800183217321632000E1614106E000E1714DB
:10431800116E000E1814126EFF0E1914136E105041
:10432800111012101310D8A49CEF21F09EEF21F069
:104338007BEF21F0A6EF21F01506D8901636173638
:104348001836193618BEABEF21F0ADEF21F0B5EFF6
:1043580021F0020E1560B3EF21F0B5EF21F0A0EFC8
:1043680021F015B0BAEF21F0BCEF21F0BDEF21F03C
:10437800189ED890153215C010F0116A126A136A87
:1043880010C013F0126A116A106A105016121150F8
:10439800171212501812135019121450D8B4D7EF1C
:1043A80021F0D9EF21F0E1EF21F00FBEE0EF21F08D
:1043B800DEEF21F0E1EF21F0198E16C00CF017C0E6
:1043C8000DF018C00EF019C00FF01200306E30500A
:1043D800010B2C6E2CC029F030C00CF00D6A000EB9
:1043E8000F6E020E0E6EB1EC31F0030E3064FFEF6B
:1043F80021F001EF22F0B0EF22F0040E305E3050D1
:10440800120DF350340F2F6E3050010B2C6E2CC050
:1044180029F030C00CF00D6A000E0F6E020E0E6E01
:10442800B1EC31F030500C0DF3CF25F0F4CF26F07D
:10443800E60E25242D6E000E26202E6E2DC01DF0B2
:104448002EC01EF02FC00CF00D6A0EEC3EF0256E4B
:10445800010E25241F6E206A000E2022ECEC40F08D
:10446800020E2D241D6E000E2E201E6E010E2F240E
:10447800106E116A000E112259EC3FF010C01FF0A7
:1044880011C020F0ECEC40F0030E2D241D6E000E40
:104498002E201E6E030E2F240C6E0D6A000E0D22A8
:1044A8000EEC3EF0256E25501F6E206AECEC40F0B5
:1044B800040E2D241D6E000E2E201E6E040E2F24B9
:1044C8000C6E0D6A000E0D220EEC3EF0256E255086
:1044D8001F6E206AECEC40F0050E2D241D6E000EB8
:1044E8002E201E6E050E2F240C6E0D6A000E0D2256
:1044F8000EEC3EF0256E25501F6E206AECEC40F065
:10450800060E2F24106E116A000E1122500E126E24
:10451800020E136E6FEC3EF0060E2D241D6E000E7B
:104528002E201E6E500E1F6E020E206E49EC40F0BB
:104538000B0E2D241D6E000E2E201E6E100E2F2425
:10454800106E116A000E112259EC3FF010C01FF0D6
:1045580011C020F0ECEC40F01200000E166E9B0E1D
:10456800156ED30E176E000E186E040E196E71ECD0
:1045780027F0D5C028F0296A2A6A2B6A2AC02BF0AE
:1045880029C02AF028C029F0286AD4C02CF02D6A46
:104598002E6A2F6A2DC02FF02CC02EF02D6A2C6A9F
:1045A800D3C030F0316A326A336A30C033F0326ACD
:1045B800316A306A2C503024346E2D503120356EDB
:1045C8002E503220366E2F503320376E2850342428
:1045D800386E29503520396E2A5036203A6E2B50C5
:1045E80037203B6E0001D65138243C6E000E39202E
:1045F8003D6E000E3A203E6E000E3B203F6E3C5052
:104608003D103E103F10D8B40CEF23F00EEF23F00E
:1046180046EF23F085513C180DE186513D180AE11B
:1046280087513E1807E188513F18D8A41EEF23F0A0
:1046380020EF23F046EF23F0750E9E6F300E9D6F2E
:10464800010EBB6F000E1E6E9A0E1D6E000E206EC0
:10465800010E1F6EECEC40F0000E1E6E9B0E1D6EE0
:10466800000E206E000E1F6EECEC40F0000E1E6E69
:104678009C0E1D6E000E206E000E1F6EECEC40F0BE
:104688007AEC3DF00001BB05D8A44DEF23F04FEFC5
:1046980023F064EF23F09EBF56EF23F054EF23F08E
:1046A80064EF23F0000EBB6F000E1E6E9A0E1D6E97
:1046B800000E206E000E1F6EECEC40F0DBEC40F0BC
:1046C80027EC41F05A0AD8A46CEF23F06EEF23F0E0
:1046D80076EF23F0750E00019E6F300E9D6F000E71
:1046E8000CEC41F012001D6E125009E1020E115C33
:1046F800D8A081EF23F083EF23F085EF23F036EF86
:1047080024F0125008E11104D8A08DEF23F08FEFA8
:1047180023F093EF23F0080E1E6E95EF23F0000EA2
:104728001E6E1DC01FF0D8901F36A00E1F121E50FF
:104738001F1232EC41F01FC00DF00E6A65EC41F01B
:1047480010C00DF00E6A65EC41F00FC00DF00E6A56
:1047580065EC41F01BEF24F0125009E1020E115CE8
:10476800D8A0B9EF23F0BBEF23F0BDEF23F036EF6D
:1047780024F0010E0F24156E000E1020166E000E88
:104788001120176E000E1220186E7F0E1514196E68
:10479800000E16141A6E000E17141B6E000E181455
:1047A8001C6E19501A101B101C10D8A4DEEF23F031
:1047B800E0EF23F008EF24F013C0D9FF14C0DAFFAC
:1047C800DF50156E15500D6E0E6A65EC41F06AECFF
:1047D80041F0340E156EF20EE82EFED7152EFCD7DA
:1047E800010E0F26000E102211221222134A142A3B
:1047F800125008E11104D8A004EF24F006EF24F0C9
:1048080093EF23F08FEF23F013C0D9FF14C0DAFF22
:10481800DF50156E15500D6E0E6A65EC41F0134AA7
:10482800142A010E0F26000E10221122122213C084
:10483800D9FF14C0DAFFDF50D8A425EF24F027EF02
:1048480024F0B0EF23F0000E0E6E000E0D6E65EC36
:1048580041F06AEC41F0070E156EC00EE82EFED747
:10486800152EFCD7120020EE06F01050D926115054
:10487800DA22DF50146E20EE07F01050D9261150BE
:10488800DA22DF50156E000E166E20EE03F010507F
:10489800D9261150DA22DF50176E20EE04F010509E
:1048A800D9261150DA22DF50186E000E196E10C08A
:1048B800D9FF11C0DAFFDF501A6E20EE01F0105058
:1048C800D9261150DA22DF501B6E000E1C6E12C062
:1048D800D9FF13C0DAFFDF501D6E20EE01F0125031
:1048E800D9261350DA22DF501E6E000E1F6E20EEFE
:1048F80003F01250D9261350DA22DF50206E20EE32
:1049080004F01250D9261350DA22DF50216E000E1F
:10491800226E20EE06F01250D9261350DA22DF500C
:10492800236E20EE07F01250D9261350DA22DF50FA
:10493800246E000E256E5A0E0E6EA50E0D6E53ECEB
:1049480041F00A0E95EC40F0800E95EC40F01F0EF9
:1049580095EC40F05A0E95EC40F0140E0C6E000EDB
:104968000D6EE9EC3FF095EC40F0170E0C6E000E62
:104978000D6EE9EC3FF095EC40F01A0E0C6E000E4F
:104988000D6EE9EC3FF095EC40F0010E95EC40F02F
:104998001D0E0C6E000E0D6EE9EC3FF095EC40F02C
:1049A800200E0C6E000E0D6EE9EC3FF095EC40F019
:1049B800230E0C6E000E0D6EE9EC3FF095EC40F006
:1049C80012002B6E2B500C0DF3CF25F0F4CF26F0F0
:1049D800E60E25242C6E000E26202D6E2B50120D6F
:1049E800F350340F2E6E2B50010B2A6E2BC00CF097
:1049F8000D6A000E0F6E020E0E6EB1EC31F02AC079
:104A080027F02CC01DF02DC01EF02EC00CF00D6A32
:104A18000EEC3EF0256E25501F6E206AECEC40F03F
:104A2800020E2C241D6E000E2D201E6E010E2E244B
:104A3800106E116A000E112259EC3FF010C01FF0E1
:104A480011C020F0ECEC40F0030E2C241D6E000E7B
:104A58002D201E6E030E2E240C6E0D6A000E0D22E4
:104A68000EEC3EF0256E25501F6E206AECEC40F0EF
:104A7800040E2C241D6E000E2D201E6E040E2E24F6
:104A88000C6E0D6A000E0D220EEC3EF0256E2550C0
:104A98001F6E206AECEC40F0050E2C241D6E000EF3
:104AA8002D201E6E050E2E240C6E0D6A000E0D2292
:104AB8000EEC3EF0256E25501F6E206AECEC40F09F
:104AC800060E2E24106E116A000E1122500E126E60
:104AD800020E136E6FEC3EF0060E2C241D6E000EB7
:104AE8002D201E6E500E1F6E020E206E49EC40F0F7
:104AF8000B0E2C241D6E000E2D201E6E100E2E2463
:104B0800106E116A000E112259EC3FF010C01FF010
:104B180011C020F0ECEC40F01200000E276E000EE1
:104B2800266E000E236E1B501C10D8A49EEF25F095
:104B3800A0EF25F0B2EF25F01DC0D9FF1EC0DAFFA7
:104B4800300EDF6E264A272A26501D24D96E27509C
:104B58001E20DA6E000EDF6E36EF26F01CBEB9EFAF
:104B680025F0B7EF25F00DEF26F00A0E1F182010DC
:104B7800D8A4C1EF25F0C3EF25F00DEF26F0010E04
:104B8800236E1B6C1C1ED8B01C2A0DEF26F01BC010
:104B98000CF01CC00DF01FC00EF020C00FF02DEC63
:104BA80033F00CC024F00DC025F025BEE7EF25F04A
:104BB800255007E10A0E245CD8B0E5EF25F0E7EFB1
:104BC80025F0EFEF25F0300E2424216E000E25206D
:104BD800226EF5EF25F0570E2424216E000E2520B5
:104BE800226E26501D24D96E27501E20DA6E21C051
:104BF800DFFF264A272A1BC00CF01CC00DF01FC07F
:104C08000EF020C00FF0B1EC31F00CC01BF00DC05D
:104C18001CF01B501C10D8A414EF26F016EF26F039
:104C2800CBEF25F02350D8B41CEF26F01EEF26F06A
:104C380028EF26F026501D24D96E27501E20DA6E44
:104C48002D0EDF6E264A272A26501D24D96E27509E
:104C58001E20DA6E000EDF6E1DC010F01EC011F0AF
:104C680023EC36F01200000E116EFA0E106E59EC9D
:104C78003FF010C08FF011C090F0000E1E6ED60EDF
:104C88001D6E8FC01FF090C020F0ECEC40F0320E8B
:104C980000018F199011D8A454EF26F056EF26F092
:104CA80079EF26F0F80E0101856F000E846F030E70
:104CB800876FE00E866F000E896F1F0E886F8A69F6
:104CC8008B698C698D698E698F6990699169926920
:104CD80093699469956996699769986999699A69D0
:104CE8009B699C699D69D5EF26F0500E8F1990112C
:104CF800D8A481EF26F083EF26F0BAEF26F0000E55
:104D08000101856F000E846F390E876FE70E866F7D
:104D18006B0E896F6D0E886F780E8B6F000E8A6F21
:104D28009A0E8D6F230E8C6FF80E8F6F000E8E6F9C
:104D3800FB0E916FE00E906FFB0E936FF70E926F64
:104D4800D50E956F400E946F030E976FE00E966F19
:104D5800070E996FE00E986F000E9B6F1F0E9A6FEB
:104D6800F80E9D6F1F0E9C6FD5EF26F00101846928
:104D7800856986698769886989698A698B698C699F
:104D88008D698E698F69906991699269936994694F
:104D9800956996699769986999699A699B699C69FF
:104DA8009D691200000E206E050E1F6E5CEC40F02F
:104DB8001F042010D8A4E3EF26F0E5EF26F00FEF4C
:104DC80027F00001C0B3EBEF26F0EDEF26F00FEF70
:104DD80027F06350675C6850800A266E6450800A2A
:104DE8002658D8B0FAEF26F0FCEF26F00FEF27F0A0
:104DF8009351995D9A51800A266E9451800A2658DB
:104E0800D8B009EF27F00BEF27F00FEF27F0C0839A
:104E1800010E78EC3AF0000E206E050E1F6E5CEC69
:104E280040F01F502010D8A41CEF27F01EEF27F0E9
:104E380037EF27F00001C0A324EF27F026EF27F073
:104E480037EF27F0000E78EC3AF00001C093070E18
:104E58001E6EB20E1D6E410E1F6EFD0E206E49ECC9
:104E680040F070EF27F0000E206E050E1F6E5CEC10
:104E780040F01F042010D8A444EF27F046EF27F095
:104E880070EF27F00001C0A34CEF27F04EEF27F09A
:104E980070EF27F06750635C6450800A266E685094
:104EA800800A2658D8A05BEF27F05DEF27F06CEF5B
:104EB80027F09951935D9451800A266E9A51800A81
:104EC8002658D8B06AEF27F06CEF27F070EF27F07C
:104ED800C093000E78EC3AF012000001BFB777EFEC
:104EE80027F079EF27F087EF27F0020E1B6E4D0EA3
:104EF8001A6E740EE82EFED71A2EFCD71B2EFAD780
:104F080000D08FEF27F03F0E1A6E550EE82EFED711
:104F18001A2EFCD700F05A0E0E6EA50E0D6E53EC2D
:104F280041F0040E95EC40F0830E95EC40F015C06E
:104F38000DF016C00EF053EC41F0D890193095ECF6
:104F480040F0850EE82EFED700F0000E1D6E000E14
:104F58001C6EE0EF27F0060E1A6E300EE82EFED714
:104F68001A2EFCD700D00001C1A1BDEF27F0BFEF7A
:104F780027F0DEEF27F0C191000E1E6ED3EF27F069
:104F8800A10E1E24D96EDA6A020EDA221E501724E8
:104F9800E16E000E1820E26EDFCFE7FF1E2A1950DF
:104FA8001E5CD8A0DAEF27F0DCEF27F0C4EF27F07B
:104FB800EBEF27F01C4A1D2A900E1C5C010E1D58B1
:104FC800D8A0E9EF27F0EBEF27F0AFEF27F0040EBA
:104FD8001964F1EF27F0F3EF27F0FBEF27F01E50ED
:104FE8001724D96E000E1820DA6E000EDF6E010E3F
:104FF8000C6E000E0D6E000E0E6E000E0F6E5AEC4B
:105008003CF01200000E476E000E466E000E436E16
:10501800000E426E19C00CF01AC00DF01BC00EF045
:105028001CC00FF01FC010F020C011F0000E11BE00
:10503800FF0E126E136EE0EC37F00CC044F00DC09A
:1050480045F045BE33EF28F0455007E10A0E445CB1
:10505800D8B031EF28F033EF28F040EF28F0210ED8
:105068004624D96E000E4720DA6E4450300FDF6EAA
:10507800464A472A4BEF28F0210E4624D96E000EE7
:105088004720DA6E4450370FDF6E3CEF28F019C026
:105098000CF01AC00DF01BC00EF01CC00FF01FC0A2
:1050A80010F020C011F0000E11BEFF0E126E136E2C
:1050B8002FEC35F00CC019F00DC01AF00EC01BF023
:1050C8000FC01CF019501A101B101C10D8A46FEF39
:1050D80028F071EF28F00EEF28F04606D8A0470612
:1050E80089EF28F0210E4624D96E000E4720DA6E8B
:1050F80042501D24E16E43501E20E26EDFCFE7FFD1
:105108004606D8A04706424A432A47BE90EF28F0F1
:105118008EEF28F076EF28F042501D24D96E4350C8
:105128001E20DA6E000EDF6E1200316E31500C0D4B
:10513800F3CF2FF0F4CF30F0E60E2F24326E000EAE
:105148003020336E3150120DF350340F346E34C0AA
:1051580025F0266A31C027F024EC38F0010E3424FB
:105168002B6E2C6A000E2C22020E32241F6E000EAB
:105178003320206E5CEC40F01FC02DF020C02EF0D4
:105188006FEC40F0030E3424256E266A000E2622AA
:10519800030E32241F6E000E3320206E5CEC40F0AC
:1051A8001F50276E24EC38F0040E3424256E266A2E
:1051B800000E2622040E32241F6E000E3320206EAD
:1051C8005CEC40F01F50276E24EC38F0050E3424B8
:1051D800256E266A000E2622050E32241F6E000E4A
:1051E8003320206E5CEC40F01F50276E24EC38F022
:1051F800060E32241F6E000E3320206E500E216ED4
:10520800020E226E1AEC41F0060E34242B6E2C6A24
:10521800000E2C22500E2D6E020E2E6EA1EC3DF0CB
:10522800100E34242B6E2C6A000E2C220B0E322406
:105238001F6E000E3320206E5CEC40F01FC02DF076
:1052480020C02EF06FEC40F01200156E166817683B
:10525800AA0E0E6EBB0E0D6E53EC41F0000E95ECCF
:1052680040F0155095EC40F00F5095EC40F0105080
:1052780095EC40F0000E1A6E4CEF29F01A501124EC
:10528800D96E000E1220DA6EDF5095EC40F01A2A23
:1052980010501A5CD8A053EF29F055EF29F042EFCF
:1052A80029F0D50EE82EFED700F00001C191000EBE
:1052B800196E000E186EE40E00D000D0E82EFCD750
:1052C80000D000D00001C1A16CEF29F06EEF29F0E9
:1052D800A4EF29F0150E136EC60EE82EFED7132E76
:1052E800FCD700D00001C1919FC210F00201A1516A
:1052F800A0C213F0146A13C014F0136A1310166EC8
:105308001450176E000E1A6E99EF29F0A00E1A2489
:10531800D96EDA6A020EDA221A501124E16E000EF2
:105328001220E26EDFCFE7FF1A2A10501A5CD8A0CD
:10533800A0EF29F0A2EF29F08AEF29F0B4EF29F0C5
:10534800184A192A19BEB2EF29F0900E185C010EFE
:105358001958D8A0B2EF29F0B4EF29F05FEF29F07F
:1053680016C00FF017C010F0120002019B519AC22C
:105378000EF00F6A0EC00FF00E6A0E26000E0F22F6
:105388000CC0D9FF0DC0DAFF0EC0DEFF0FC0DDFF75
:1053980020EE02F00C50D9260D50DA229CC2DFFF15
:1053A80020EE03F00C50D9260D50DA229DC2DFFF03
:1053B8009F519EC20EF00F6A0EC00FF00E6A0E26A5
:1053C800000E0F2220EE04F00C50D9260D50DA22E0
:1053D8000EC0DEFF0FC0DDFF20EE06F00C50D92610
:1053E8000D50DA22A0C2DFFF000E126E1AEF2AF06B
:1053F800A10E1224D96EDA6A020EDA22DF500E6E7E
:105408000F6A1250020D0CC010F00DC011F0F350CD
:105418001026F4501122070E1024D96E000E112008
:10542800DA6E0EC0DEFF0FC0DDFF122A20EE02F09A
:105438000C50D9260D50DA221250DE5CD8B027EF76
:105448002AF029EF2AF0FCEF29F020EE25F00C5085
:10545800D9260D50DA22A1C2DFFF20EE26F00C502B
:10546800D9260D50DA220201A2390F0B0F0BDF6E7D
:1054780020EE27F00C50D9260D50DA22A2510F0B3E
:10548800DF6E120044C048F043C049F042C04AF001
:1054980041C04BF0020E0F6E040E106E480E116ED6
:1054A800000E126EFF0E29EC29F0000E4C6EBEEFB6
:1054B8002AF04C50020D000EF324D96E030EF4208E
:1054C800DA6EDE50DE10D8B46CEF2AF06EEF2AF0F8
:1054D800BDEF2AF04C50040D1E0EF324D96E030EB6
:1054E800F420DA6EDECF1EF0DECF1FF0DECF20F024
:1054F800DECF21F04C50020D000EF324D96E030EBE
:10550800F420DA6EDECF45F0DDCF46F045C0D9FF96
:1055180046C0DAFFDECF0CF0DDCF0DF0000E0DBE79
:10552800FF0E0E6E0F6E010E10EC21F00CC01AF07B
:105538000DC01BF00EC01CF00FC01DF03DEC0DF0AF
:105548001AC033F01BC034F01CC035F01DC036F053
:10555800E3EC2BF033C03DF034C03EF05A0E4C243F
:10556800D96EDA6A030EDA22DF50476E47280DEC4F
:105578003AF04C2A6A50020D4C50456E466AF35078
:10558800455C4650800A476EF450800A4758D8A0B8
:10559800D0EF2AF0D2EF2AF05DEF2AF0120025C0F2
:1055A80027F026C028F0273A283AF00E2816275068
:1055B8000F0B2812F00E2716000E2724296E010E55
:1055C80028202A6E25C015F026C016F0000E186E89
:1055D8000A0E176E82EC40F0A40E15242B6E010EF5
:1055E80016202C6E2BC01DF02CC01EF029C010F008
:1055F8002AC011F059EC3FF010C01FF011C020F084
:10560800ECEC40F0010E2B241D6E000E2C201E6EBB
:10561800020E29240C6E000E2A200D6E0EEC3EF0B0
:10562800276E27501F6E206AECEC40F0020E2B24E8
:105638001D6E000E2C201E6E030E29240C6E000E0B
:105648002A200D6E0EEC3EF0276E27501F6E206A42
:10565800ECEC40F0030E2B241D6E000E2C201E6E69
:10566800040E29240C6E000E2A200D6E0EEC3EF05E
:10567800276E27501F6E206AECEC40F0050E292497
:10568800106E000E2A20116E500E126E020E136E4E
:105698006FEC3EF0000E0201586F040E2B241D6EB5
:1056A800000E2C201E6E500E1F6E020E206E49EC4E
:1056B80040F012000001BF87320E8F199011D8A454
:1056C80068EF2BF06AEF2BF06FEF2BF0080E01015B
:1056D8004C6FDE0E4B6F500E00018F199011D8A43D
:1056E80078EF2BF07AEF2BF07FEF2BF0090E01010A
:1056F8004C6F740E4B6F0001E65101014B5D0001C8
:10570800E75101014C59D8A08CEF2BF08EEF2BF00C
:105718009FEF2BF0E6C01DF0E7C01EF023C01FF07E
:1057280024C020F049EC40F01E0E0001E627000ED0
:10573800E723E0EF2BF0070E4A6FD00E496FCBEF4F
:105748002BF0000E106E010E116E410E126EFD0E42
:10575800136E76EC3BF01E0E010149251F6E000EFC
:105768004A21206E000E216E010E226E1AEC41F0C5
:1057780049C11DF04AC11EF0000E1F6E010E206EB9
:1057880049EC40F01E0E01014927000E4A234951F9
:105798004B5D4A514C59D8B0D4EF2BF0D6EF2BF0D3
:1057A800A5EF2BF04BC11DF04CC11EF023C01FF01C
:1057B80024C020F049EC40F00001BF9712003534B6
:1057C80036343C6E3C50D8A4ECEF2BF0EEEF2BF0C7
:1057D800F8EF2BF0000E336E000E346E000E356EAF
:1057E800000E366E65EF2CF033C037F034C038F059
:1057F80035C039F036C03AF0200E08EF2CF0D890BA
:105808003A32393238323732E82E03EF2CF037503B
:105818003B6E358EFF0E3316FF0E3416FF0E35160F
:10582800000E3616960E3C5E3CBE1FEF2CF01DEFA8
:105838002CF035EF2CF03C50800A970FD8B027EFAA
:105848002CF029EF2CF02BEF2CF0EEEF2BF0D8906A
:1058580036323532343233323C3E2BEF2CF04DEFBA
:105868002CF01F0E3C643BEF2CF03DEF2CF045EF85
:105878002CF0EEEF2BF0D8903336343635363636FA
:105888003C063C50D8A44BEF2CF04DEF2CF03FEFEA
:105898002CF03B50D8B453EF2CF055EF2CF05DEFC3
:1058A8002CF0361E351E341E336C000E3422352281
:1058B800362233C033F034C034F035C035F036C04A
:1058C80036F012001A6E0001BFB76DEF2CF06FEFC3
:1058D8002CF07DEF2CF0020E196E4D0E186E740E22
:1058E800E82EFED7182EFCD7192EFAD700D085EF50
:1058F8002CF03F0E186E550EE82EFED7182EFCD74A
:1059080000F05A0E0E6EA50E0D6E53EC41F01550B8
:10591800020F95EC40F0810E95EC40F01A5095EC92
:1059280040F0155095EC40F095988388000E1C6E59
:10593800000E1B6ED1EF2CF0060E186E300EE82EFE
:10594800FED7182EFCD700D00001C1A1AEEF2CF075
:10595800B0EF2CF0CFEF2CF0C191000E1D6EC4EF0C
:105968002CF0A00E1D24D96EDA6A020EDA221D5020
:105978001624E16E000E1720E26EDFCFE7FF1D2A26
:1059880015501D5CD8A0CBEF2CF0CDEF2CF0B5EF67
:105998002CF0DCEF2CF01B4A1C2A900E1B5C010E2D
:1059A8001C58D8A0DAEF2CF0DCEF2CF0A0EF2CF08C
:1059B8008398010E0C6E000E0D6E000E0E6E000E1A
:1059C8000F6E5AEC3CF012000001BB51D8B4EFEF57
:1059D8002CF0F1EF2CF061EF2DF0000E206ED20EBE
:1059E8001F6E5CEC40F01FC065F020C066F0000E32
:1059F800206ED30E1F6E5CEC40F01FC095F020C0E7
:105A080096F0000E206ED40E1F6E5CEC40F01FC0A6
:105A180063F020C064F0000E206ED50E1F6E5CECA3
:105A280040F01FC093F020C094F0000E206ED60EF8
:105A38001F6E5CEC40F01FC08FF020C090F0000E8D
:105A48002C6E010E2B6E65C02DF066C02EF06FEC2B
:105A580040F0000E2C6E030E2B6E95C02DF096C0F4
:105A68002EF06FEC40F0000E2C6E050E2B6E63C00E
:105A78002DF064C02EF06FEC40F0000E2C6E070E77
:105A88002B6E93C02DF094C02EF06FEC40F0000EFA
:105A98002C6EFA0E2B6E8FC02DF090C02EF06FEC8E
:105AA80040F0010E31EC0AF0510E6FEC41F07AEC47
:105AB8003DF013EC32F066EF2DF0520E6FEC41F032
:105AC800DBEC40F01200D50E0C6E030E0D6EB9EC37
:105AD80029F0A50E0301D51907E15A0ED619D8A445
