:0400000049EF01F0D3
:100018007780D8CF04F0E8CF05F0E0CF06F0D9CF4D
:1000280007F0DACF08F09EAA51D0959C838C010E78
:100038000101786F900E776F000E766F000E756F66
:10004800A8697680B40E736F050E746F95988388CF
:1000580027D09EAA22D08398838873C1D9FF74C100
:10006800DAFFAECFDFFF76BF06D0090E755D010E51
:100078007659D8B004D0754B762B734B742BB8C512
:10008800E8FF180AD8A404D01F0E786F400E03D0DA
:10009800010E786F900E776F03D07707D8A0780796
:1000A80077517811D8A4D5D78398ABA20FD0AB9845
:1000B800AB88AECF77F1786BAECF77F1786BAECFF8
:1000C80077F1786B000EE8CFB4F576829EA0AFD0BA
:1000D8009E903C0ECF6EB40ECE6E010E0101A76F3E
:1000E800B5B102D0000EA76F000E766F010E756FC6
:1000F8000DD0510E7525D96E010E7621DA6EDF50BE
:10010800D8A402D0000EA76F754B762B7350016EE2
:10011800026A7551015C0250800A036E7651800AAA
:100128000358D8B0E6D7A705D8A41AD0040001010F
:10013800B591000E766F010E756F76BF06D07651B9
:100148000FE10F0E755DD8B00BD0510E7525D96E25
:10015800010E7621DA6E000EDF6E754B762BEDD729
:10016800F50E605D010E6159D8A002D0819E01D0C4
:10017800818EA151A211D8B405D0320EA15F000E14
:10018800A25B05D09FC1A1F1A0C1A2F1768C320E6D
:100198009127000E9223320EA327000EA423B251FA
:1001A800D8B490BF04D0CE0E8F27FF0E9023320E06
:1001B8008D27000E8E23320E6027000E6123E80E75
:1001C800605D030E6159D8A032D00001F2A913D0A6
:1001D8000101B42B3B0EB4650ED0000EB46F752A26
:1001E8003B0E756408D0000E756E742A630E746435
:1001F80002D0000E746E000E0101616F000E606F78
:10020800622BAB51D8A4AB073B0E626510D0000E31
:10021800626F632B9D4B9E2B3B0E636508D0000ECF
:10022800636F642B170E646502D0000E646FF2B220
:10023800F292F2A41ED00D0EE82EFED700F0000EAA
:10024800D76EE10ED66EF294010197519811D8B489
:1002580005D09707D8A09807818C01D0819CA5511B
:10026800A611D8B405D0A507D8A0A607818A01D0C1
:10027800819A08C0DAFF07C0D9FF06C0E0FF05C0B1
:10028800E8FF04C0D8FF77901000F3EF41F0640E48
:10029800096E000E0A6E000E0B6E000E0C6E2AEC34
:1002A80049F0D388D38AD38CD390D3929B8CEF0E0A
:1002B800926E010E936EF00E946EE30E956E966834
:1002C800D59AD596D582D582D584F194F28AF290C2
:1002D800F2989E909F900B0ECF6EBA0ECE6ECD9276
:1002E800CD88CD8ACD8CCD869D80CD80F28CF28E46
:1002F800000E166EC20E176E010E186E000E196EE5
:100308005AEC46F006EC4FF0A00E0001966F860EF0
:10031800976F010E986F000E996F49EC42F0F40E3A
:10032800096E010E0A6E000E0B6E000E0C6E2AECA2
:1003380049F0000E0101946F000E936F819E000E2C
:10034800986F000E976F819C000EA66F000EA56F28
:10035800819A000E0E6EFA0E0D6E2DEC4BF00DC04C
:10036800EEF00EC0EFF0320E0001EE19EF11D8A436
:1003780002D0090E0DD0500EEE19EF11D8A402D0FC
:100388000C0E06D0510EEE19EF11D8A402D0080EAB
:10039800716EF397F2EC4AF0000E186E000E176EAD
:1003A8007BEC4EF02C0E096E010E0A6E000E0B6EE1
:1003B800000E0C6E2AEC49F03B0E206EFB0E216EEF
:1003C800B2EC3AF02C0E096E010E0A6E000E0B6E9E
:1003D800000E0C6E2AEC49F0490E206EFE0E216EBE
:1003E800B2EC3AF0000E0E6E220E0D6E2DEC4BF0B4
:1003F8000DC077F30EC078F3030177290DE1782952
:10040800D8A40AD0000E296E220E286E000E2B6E7C
:10041800000E2A6E63EC4DF0000E0A6E340E096E63
:1004280083EC4BF0FF0AD8A480D0D50E206EFB0ECB
:10043800216EB2EC3AF0990E206EFD0E216EB2ECF0
:100448003AF00A0E306E000E84EC38F0EAEC49F00F
:1004580039EC48F0FAEC46F0000E0101B26F000EDC
:100468000001F16FDEEC4EF0000E236E100E226ECE
:10047800000E246E5EEC47F0000E296E090E286E01
:10048800000E2B6E0A0E2A6E63EC4DF0000E296EDC
:100498000B0E286E400E2A6EE20E2B6E010E2C6E8D
:1004A800000E2D6EB8EC4CF0000EBFEC0CF0000EF8
:1004B800236E110E226E000E246E5EEC47F0000EC5
:1004C800236E120E226E000E246E5EEC47F0D7ECFF
:1004D80039F0000E1F6E000E206E000E216E000E09
:1004E800226E000E246E000E236E000EE6EC4CF019
:1004F800020E1F6E000E206E000E216E000E226E80
:10050800000E236E000E246E000E256E000E266E61
:10051800000E09EC4CF0000E296EFA0E286E000E43
:100528002B6E320E2A6E63EC4DF053EC3EF0010E4A
:10053800BFEC0CF0000E0E6E0B0E0D6ED4EC4AF0F4
:100548000DC06DF10EC06EF10FC06FF110C070F1EB
:100558009BEC44F0690E206EFB0E216EB2EC3AF073
:10056800B6EC3EF03CEC4CF0170E206EFE0E216E01
:10057800B2EC3AF0020E1B6E000E1C6E000E1D6EE1
:10058800000E1E6E000E32EC40F01BC069F11CC05C
:100598006AF11DC06BF11EC06CF1F20E206EFC0EEC
:1005A800216EB2EC3AF0000E03017B6F0E0E7B65F4
:1005B80001D008D0040003017B51BEEC2AF00301EE
:1005C8007B2BF4D7000E7C6F070E7C6501D009D019
:1005D80004007CC321F0226A7EEC33F003017C2BFB
:1005E800F3D7000E0E6E0B0E0D6ED4EC4AF00DC054
:1005F8006DF10EC06EF10FC06FF110C070F19BEC81
:1006080044F079EC0FF0B6EC3EF03CEC4CF084ECA6
:1006180043F0A3EC45F0000E0101F96F000EF86FEE
:10062800000EF76F000EF66F000EB36F000E926F9C
:10063800000E916F000EAE6F000E866F000E856F74
:10064800000E846F000E836F000E8A6F000E896F94
:10065800000E886F000E876F000EB16F000E96ECCB
:100668004AF0000E0101616F000E606F000E626FAC
:10067800000EB46FF2C0ACF1000EAB6F76EC3FF039
:10068800000E1C6E400E1B6E000E1E6E000E1D6EC0
:100698006BEC4EF00001F39F0101B691B693B6954D
:1006A800B697000E1C6E010E1B6E000E1E6E000E1D
:1006B8001D6E6BEC4EF076923C0E206EFC0E216E99
:1006C800B2EC3AF067EC4BF089EC1EF0C0EC22F08B
:1006D800C40E096E090E0A6E000E0B6E000E0C6E2B
:1006E8002AEC49F0000E186E0F0E176E7BEC4EF0D8
:1006F8000101B5810001F387E90E0101915D030E47
:100708009259D8A016D0000E926F000E916FEFECA0
:100718003DF012C0F8F113C0F9F10101F651F819D2
:1007280004E1F751F919D8B404D0F8C1F6F1F9C1C8
:10073800F7F10001F387050E0101626108D0190E77
:10074800F819F911D8B403D0000E96EC4AF000015C
:10075800F2B99BEC41F084EC43F0A3EC45F00001C6
:10076800F397E4EC2CF020EC26F079EC0FF06EEC2B
:100778002FF0510E0001EE19EF11D8B49FEC42F0A2
:10078800CBEC31F034EC2CF0D1EC2EF0000E1D6ED9
:10079800640E1C6EE5EC4DF01C041D10D8B417EC6B
:1007A8003FF076A243D0000E0101A66FC80EA56FD8
:1007B8003DD0420E1BEC4FF0000E1C6E160E1B6E49
:1007C800000E1E6E000E1D6E6BEC4EF0020E010147
:1007D800B16F3CD0000E1D6E060E1C6EE5EC4DF0A0
:1007E800F00E1C181D10D8A40CD0000EE5EC47F034
:1007F800000E746E000E756E000E0101B16F9BEC59
:1008080041F0000E1D6E060E1C6EE5EC4DF0FA0E62
:100818001C181D10D8A41AD0000E0101B16F3A0E91
:10082800186E980E176E55EC4CF010D00101B151AE
:100838000001EA6FEB6BEB51000AD8A407D0EA512C
:10084800010AD8B4B6D7030AD8B4C4D70001F387CD
:1008580009EC4EF00001F3AF9EEC49F00001F3976C
:10086800F387E2EF08F0000E03017E6F090E7E6544
:1008780001D033D0070E7E251C6E1D6A000E1D2286
:10088800E5EC4DF01C041D10D8A424D0070E03017C
:100898007E251B6E1C6A000E1C22000E1E6E000EAA
:1008A8001D6E6BEC4EF07EC3B0F1050E0101B06118
:1008B80009D0130EAF6F000E186E1B0E176E7BEC6F
:1008C8004EF008D0150EAF6F000E186E1C0E176E86
:1008D8007BEC4EF003017E2BC9D7CFEC20F01DEF47
:1008E80009F0000E1D6E010E1C6EE5EC4DF01C04A7
:1008F8001D10D8A41DEF09F0000E1C6E010E1B6E12
:10090800000E1E6E000E1D6E6BEC4EF097EC37F06D
:100918001DEF09F00101B351D8A405D0010E96ECE2
:100928004AF00101B32B000E1D6E980E1C6EE5EC0B
:100938004DF01C041D10D8A40DD0000E1C6E980E8E
:100948001B6E000E1E6E000E1D6E6BEC4EF0010E3F
:1009580096EC4AF0000E1D6EAE0E1C6EE5EC4DF0E6
:100968001C041D10D8A41DEF09F0000E1C6EAE0E5D
:100978001B6E000E1E6E000E1D6E6BEC4EF0B3EC7F
:1009880048F01DEF09F0000E726E070E726401D078
:100998002CD0200E72241C6E1D6A000E1D22E5EC60
:1009A8004DF01C041D10D8A41ED0200E72241B6EFE
:1009B8001C6A000E1C22000E1E6E000E1D6E6BECD3
:1009C8004EF0AFC117F0186A7BEC4EF0D50E176EDB
:1009D800010E186E72501FEC3BF0010E216E0101E2
:1009E800B051C2EC3CF0722AD0D7000E1D6E110E29
:1009F8001C6EE5EC4DF01C041D10D8A40FD0000EA1
:100A08001C6E110E1B6E000E1E6E000E1D6E6BEC22
:100A18004EF0AFC117F0186A7BEC4EF0000E1D6E59
:100A2800120E1C6EE5EC4DF01C041D10D8A41DEF31
:100A380009F0000E1C6E120E1B6E000E1E6E000ECC
:100A48001D6E6BEC4EF0000E0101DB6FDC0E0D6EBF
:100A5800010E0E6E970E0F6EFC0E106E0FEC48F026
:100A6800000E0101DA6F000ED96F000ED86F000E6C
:100A7800D76F000ED66F000ED56F000E216EB051E5
:100A8800C2EC3CF0AFC117F0186A7BEC4EF0D1D342
:100A9800000E03017D6F38D07D511E0DF3CFEAF0B3
:100AA800F4CFEBF0170E0001EA251C6E100EEB21B7
:100AB8001D6EE5EC4DF01C041D10D8A423D00301D5
:100AC8007D511E0DF3CFEAF0F4CFEBF0170E0001C5
:100AD800EA251B6E100EEB211C6E000E1E6E000E1A
:100AE8001D6E6BEC4EF003017D51D5EC21F0000E2C
:100AF800186E230E176E7BEC4EF0D4EC4EF08EEC95
:100B080011F006D003017D2B71507D5DD8A0C4D7AC
:100B1800000E1D6E300E1C6EE5EC4DF01C041D1011
:100B2800D8A40CD0000E1C6E300E1B6E000E1E6E6C
:100B3800000E1D6E6BEC4EF0D7EC39F076EC3FF002
:100B4800000E1D6EAF0E1C6EE5EC4DF01C041D1062
:100B5800D8A46FD3000E1C6EAF0E1B6E000E1E6E57
:100B6800000E1D6E6BEC4EF031EC4AF062D3100EA5
:100B780001016D190001EA6F2F0E01016E190001C4
:100B8800EB6FBA0E01016F190001EC6FE40E010161
:100B980070190001ED6FEA1D0301736F0001EB1D71
:100BA8000301746F0001EC1D0301756F0001ED1D59
:100BB8000301766F73C316F074C317F075C318F08A
:100BC80076C319F0B30E1A6E020E1B6E000E1D6E60
:100BD800100E1C6E1EEC37F0060E1B6E7C0E1A6E85
:100BE800B30E1C6E020E1D6E76EC4DF0F40E096EFF
:100BF800010E0A6E000E0B6E000E0C6EBAEC47F07A
:100C0800010E1D6E820E1C6EE5EC4DF01C041D10CD
:100C1800D8A40FD3010E1C6E820E1B6E000E1E6E22
:100C2800000E1D6E6BEC4EF062EC15F002D3F387EC
:100C3800F3BFF2A70CD0F2A10AD0470E1BEC4FF07D
:100C4800000E186E0F0E176E7BEC4EF0F2D2030EEC
:100C58000101F56F100EF46FF5BF06D01D0EF45D9F
:100C6800030EF559D8B07FD2F451F00F0001F06FA0
:100C7800F4C11CF0F5C11DF0E5EC4DF00E0E1C188A
:100C88001D10D8A490D10001F151D8B47DD1320EF5
:100C9800EE19EF11D8A403D0F0C06FF00BD0500EAE
:100CA800EE19EF11D8A408D003EC49F00001EA6F5F
:100CB800EA516F6E706A05D0510EEE19EF11D8B473
:100CC800F3D770BE06D0705003E1080E6F5CD8B041
:100CD80020D1100EF0251B6E1C6A030E1C22010E7B
:100CE800F0251D6E1E6A000E1E226BEC4EF06FC0C2
:100CF80015F070C016F0000E186E0A0E176E9CECF8
:100D08004DF0FD0E15241B6E060E16201C6E010EEE
:100D18006FC0EAF070C0EBF0EAC0EBF00001EA6BDC
:100D2800EA111D6EEB511E6E6BEC4EF06FC015F0A4
:100D380070C016F0000E186E0A0E176E9CEC4DF07F
:100D4800FB0E15241B6E060E16201C6E0001F051BA
:100D5800020D370EF324D96E010EF420DA6EDECFC1
:100D68001DF0DDCF1EF06BEC4EF0680E6F24D96ECF
:100D7800020E7020DA6E6FC0DFFF770E6F24D96E17
:100D8800020E7020DA6E0001F029DF6E860EF02563
:100D9800D96EDA6A020EDA22F029DF6EF051020DFE
:100DA800370EF324D96E010EF420DA6ED8906F3422
:100DB800E16E7034E26E950EE126020EE222DECF7D
:100DC800E6FFDDCFE5FF0E0EEA6F020EEB6F1E0E9B
:100DD800EA27000EEB23D8906F34D96E7034DA6EA0
:100DE800D890D936DA36EA51D926EB51DA22000EF4
:100DF800DE6E000EDE6E800EDE6E3F0EDD6E020EC3
:100E0800F06508D0010EF0250301796F7A6B000EAA
:100E18007A2304D0F0C079F303017A6B79C3EAF03E
:100E28007AC3EBF0D8900001EA37EB37B70EEC6FD6
:100E3800010EED6FEA51EC27EB51ED23D8906F349A
:100E4800D96E7034DA6E0E0ED926020EDA22ECC094
:100E5800DEFFEDC0DDFF0E0EEA6F020EEB6F1E0E19
:100E6800EA27000EEB23D8906F34D96E7034DA6E0F
:100E7800D890D936DA36EA51D926EB51DA22000E63
:100E8800DE6E000EDE6E800EDE6E3F0EDD6EF05101
:100E9800D8A41CD00E0EEA6F020EEB6F1E0EEA27C6
:100EA800000EEB23D8906F34D96E7034DA6ED89078
:100EB800D936DA36EA51D926EB51DA22550EDE6EEA
:100EC800C10EDE6EE80EDE6E3E0EDD6EF005D8A4B5
:100ED8001CD00E0EEA6F020EEB6F1E0EEA27000EF4
:100EE800EB23D8906F34D96E7034DA6ED890D93637
:100EF800DA36EA51D926EB51DA22CD0EDE6ECC0E67
:100F0800DE6E4C0EDE6E3D0EDD6E020EBFEC0CF09A
:100F180026D16FC015F070C016F0000E186E0A0EBC
:100F2800176E9CEC4DF0FD0E15241B6E060E162058
:100F38001C6E6F500001EB6FEA6B000EEA111D6E1C
:100F48000A0EEB111E6E6BEC4EF06FC015F070C000
:100F580016F0000E186E0A0E176E9CEC4DF0FB0E84
:100F680015241B6E060E16201C6EFF0E1E6E1D68C5
:100F78006BEC4EF0F4C11BF0F5C11CF0FF0E1E6EB9
:100F88001D686BEC4EF0EBD01AEC4EF0F4C11BF080
:100F9800F5C11CF0FF0E1E6E1D686BEC4EF0510E75
:100FA8001BEC4FF0DCD0F4C11CF0F5C11DF0E5ECF2
:100FB8004DF01D5004E10F0E1C5CD8A0D0D0F4C138
:100FC8001CF0F5C11DF0E5EC4DF01D5003E11F0EBE
:100FD8001C5CD8B0C4D00001F151D8B48DD0770EC4
:100FE800096E020E0A6EF0290B6EC1EC4DF003017A
:100FF8007F6F770E0001F025D96EDA6A020EDA22C9
:10100800DF50EA6FEA050301726FF4C11BF0F5C106
:101018001CF0FF0E1E6E1D686BEC4EF003017F5135
:101028000A0DF3CFEAF0F4CFEBF0FD0E0001EA254C
:101038001B6E060EEB211C6E0A0E1E6E000E1D6E38
:101048006BEC4EF003017F510A0DF3CFEAF0F4CFB9
:10105800EBF0FB0E0001EA251B6E060EEB211C6E61
:10106800FF0E1E6E1D686BEC4EF003017F51020DE2
:101078000E0EF324D96E020EF420DA6E000EDE6E28
:10108800000EDD6E680E7F25D96EDA6A020EDA224E
:101098000A0EDF6E770E7F25D96EDA6A020EDA2223
:1010A800FF0EDF6E860E0001F025D96EDA6A020E99
:1010B800DA22FF0EDF6E03017F51020D950EF32435
:1010C800D96E020EF420DA6EFF0EDE6EFF0EDD6EB4
:1010D8007F51040D2C0EF324D96E020EF420DA6E23
:1010E800000EDE6E000EDE6E000EDE6E000EDD6E91
:1010F800020EBFEC0CF033D01AEC4EF0510E1BEC84
:101108004FF0320E0001EE19EF11D8A411D0F4C13E
:101118001BF0F5C11CF0770EF025D96EDA6A020EC5
:10112800DA22DF50EA6FEA511D6E1E6A6BEC4EF050
:10113800500E0001EE19EF11D8A411D0F4C11BF024
:10114800F5C11CF0860EF025D96EDA6A020EDA2295
:10115800DF50EA6FEA511D6E1E6A6BEC4EF001011A
:10116800F44BF52B79D50001F39763D0BCEC4EF026
:10117800000E726E070E726401D05BD0200E7224CE
:101188001C6E1D6A000E1D22E5EC4DF01C041D109E
:10119800D8A40FD0200E72241B6E1C6A000E1C22CD
:1011A800000E1E6E000E1D6E6BEC4EF03DEC43F013
:1011B80040D0722ADFD7A2EC13F03BD0F8C1EAF096
:1011C800F9C1EBF0EB51000AD8A433D0EA51130A65
:1011D800D8B437EF04F0060AD8B437EF04F0020A9F
:1011E800D8B475EF04F00E0AD8B48EEF04F0020AF2
:1011F800D8B4C7EF04F0070AD8B4C7EF04F0010A5F
:10120800D8B446D4020AD8B4B2D43C0AD8B40FD55C
:101218000C0AD8B4ABD71E0AD8B4CDD7B50AD8B4FF
:1012280037EF04F0010AD8B433D4020AD8B475EF02
:1012380004F0F3EC32F07CEF03F0C4C6ACF0C5C6A2
:10124800BAF0C6C6B9F0C7C6B8F0C8C6B7F022D358
:10125800C5C63CF026EEC4F0DF503D6E3C50226E11
:101268003DC023F0C6C624F05EEC47F0030ED5EC73
:101278004BF0F8EC4EF024EC4FF01200C5C63CF0F1
:1012880026EEC4F0DF503D6E3C50096E3DC00AF0BA
:1012980083EC4BF00001AE6F010ED5EC4BF0000172
:1012A800AE51AFEC4EF01200C5C63CF03C50C4C67F
:1012B8003DF03DC03EF03F6A3EC03FF03E6A3E1002
:1012C8000001AA6F3F50AB6FC7C63CF03C50C6C682
:1012D8003DF03DC03EF03F6A3EC03FF03E6A3E10E2
:1012E800A86F3F50A96FAAC028F0ABC029F0A8C0CA
:1012F8002AF0A9C02BF063EC4DF0030ED5EC4BF0AF
:10130800B8D7C5C63CF026EEC4F0DF503D6E3C5061
:101318000D6E3DC00EF02DEC4BF00DC0B4F00EC0BC
:10132800B5F0020ED5EC4BF0B4C00AF0B5C00BF026
:1013380014EC4FF01200C5C63CF026EEC4F0DF50A6
:101348003D6E3C50286E3DC029F0C60E2A6E060E32
:101358002B6E75EC4AF0030ED5EC4BF0F8EC4EF022
:101368001200C5C63CF026EEC4F0DF503D6E3C507E
:101378000D6E3DC00EF0B30E0F6E020E106EBAEC7D
:101388004BF04A0ED5EC4BF0B30E0A6E020E0B6E04
:10139800DEEC44F01200B7C01FF0B8C020F0B9C0AE
:1013A80021F0BAC022F0C9C623F026EEC4F0DF50FF
:1013B800F7EC4DF0030ED5EC4BF0D0D7B7C01BF0CF
:1013C800B8C01CF0B9C01DF0BAC01EF026EEC4F0BB
:1013D800DF50D3EC4DF00001AE6F010ED5EC4BF0B1
:1013E8000001AE51AFEC4EF01200B7C01FF0B8C00C
:1013F80020F0B9C021F0BAC022F0CAC63CF03C5077
:10140800C9C63DF03DC03EF03F6A3EC03FF03E6A6F
:101418003E10236E3F50246E26EEC4F0DF50E6ECFB
:101428004CF0030ED5EC4BF099D7B7C01BF0B8C001
:101438001CF0B9C01DF0BAC01EF026EEC4F0DF5093
:10144800EFEC4BF01BC0B4F01CC0B5F0020ED5ECAD
:101458004BF06AD7B7C01BF0B8C01CF0B9C01DF07C
:10146800BAC01EF026EEC4F0DF5032EC40F01BC0CC
:10147800B0F01CC0B1F01DC0B2F01EC0B3F0040E35
:10148800D5EC4BF00001B351AFEC4EF00001B25176
:10149800AFEC4EF00001B151AFEC4EF00001B0518D
:1014A800AFEC4EF01200C9C6ADF00001AD51D5EC5D
:1014B8004BF0B7C010F0B8C011F0B9C012F0BAC004
:1014C80013F0ADC014F0000E156E030E166E000179
:1014D800AC5188EC24F01200B7C00DF0B8C00EF083
:1014E800B9C00FF0BAC010F0C9C611F0CA0E126E1A
:1014F800060E136E26EEC4F0DF503BEC29F0030E07
:10150800D5EC4BF02BD7B7C00DF0B8C00EF0B9C072
:101518000FF0BAC010F0C90E116E060E126E26EE4C
:10152800C4F0DF501AEC35F0030ED5EC4BF016D7AB
:10153800B7C010F0B8C011F0B9C012F0BAC013F0BB
:10154800B30E146E020E156E26EEC4F0DF50B1EC29
:1015580027F0B30E096E020E0A6E53EC4AF00950DA
:10156800D5EC4BF011D7C6C63CF026EEC5F0DF50DF
:101578003D6E3C50286E3DC029F026EEC4F0DF5089
:101588008BEC48F0030ED5EC4BF0E8D6020ED5EC08
:101598004BF07450AFEC4EF07550AFEC4EF01200BB
:1015A800800E1B6E8A0E1C6E77EC28F0090ED5ECA7
:1015B8004BF026EEC4F0DF50D8A406D0800E0A6E99
:1015C8000B6ADEEC44F012008A0E0A6E0B6ADEEC3F
:1015D80044F01200000E0001B66F070EB66501D088
:1015E8000ED0C40EB625D96EDA6A060EDA22B651C6
:1015F800940FE16EE26ADFCFE7FFB62BEED7000E5D
:101608009C6F000EB66F070EB66501D00ED0CC0EDB
:10161800B625D96EDA6A060EDA22B6519E0FE16E49
:10162800E26ADFCFE7FFB62BEED7000EA66F940E67
:101638000C6E9E0E0D6EA1EC30F01200C5C63CF08B
:1016480026EEC4F0DF503D6E3C501A6E3DC01BF0D4
:10165800C7C63FF03F50416E406A26EEC6F0DF50E5
:10166800426E436A405042101C6E415043101D6E3A
:101678002BEC4EF0030ED5EC4BF070D6838AC5C622
:101688003CF0C4C63DF03D503F6E3E6A3C503E249F
:101698001C6E000E3F201D6EFCEC4CF01CC0B4F01C
:1016A8001DC0B5F0839A838AB30E096E020E0A6EC6
:1016B80053EC4AF00950D5EC4BF0B4C00AF0B5C071
:1016C8000BF014EC4FF0839A1200C5C63CF026EEDE
:1016D800C4F0DF503D6E3C50176E3DC018F055EC1D
:1016E8004CF0030ED5EC4BF039D6C5C63CF026EECF
:1016F800C4F0DF503D6E3C50176E3DC018F07BECD7
:101708004EF0030ED5EC4BF029D626EEC4F0DF5090
:101718001BEC4FF0030ED5EC4BF020D6000E0E6EEE
:10172800090E0D6E2DEC4BF00DC0B4F00EC0B5F0E7
:10173800020ED5EC4BF0F8D50601C451040FBEECEF
:101748002AF0030ED5EC4BF009D6010ED5EC4BF080
:101758007350AFEC4EF012000A0E306E000E84EC9F
:1017680038F0000E0001AF6F0E0EAF6501D006D045
:10177800AF51BEEC2AF00001AF2BF6D7030ED5EC23
:101788004BF0ECD5A5EC23F0030ED5EC4BF0E6D5E9
:10179800C5C63CF026EEC4F0DF503D6E3C501A6ED4
:1017A8003DC01BF0C60E1C6E060E1D6E76EC4DF08D
:1017B800030ED5EC4BF0D2D5C5C63CF026EEC4F0EE
:1017C800DF503D6E3C501C6E3DC01DF0B30E1E6ECA
:1017D800020E1F6E95EC4EF0B30E096E020E0A6EE5
:1017E80053EC4AF00950D5EC4BF0CED5000E1B6EE9
:1017F800000E1C6E000E1D6E000E1E6E000EEFEC2D
:101808004BF01BC0B4F01CC0B5F00001B44BB52BB5
:10181800020ED5EC4BF088D526EEC5F0DF50D8B4D3
:1018280002D0B68133D0B69131D026EEC5F0DF5064
:10183800D8B402D0B6832AD0B69328D026EEC5F005
:10184800DF50D8B402D0B68521D0B6951FD026EE89
:10185800C5F0DF50D8B402D0B68718D0B69716D0E6
:1018680026EEC4F0DF503C6E3D6A3D50000AD8A415
:101878000DD03C50020AD8B4CFD7010AD8B4D5D776
:10188800070AD8B4DBD7010AD8B4E1D7030ED5ECE0
:101898004BF064D526EEC2F0DF503C6E3D6A3D50F9
:1018A800000AD8A412003C50080AD8B4D1D4010ABE
:1018B800D8B4E4D4030AD8B4F7D4010AD8B421D5EB
:1018C800070AD8B438D5010AD8B44BD51C0AD8B4FD
:1018D80062D5030AD8B472D5010AD8B486D5070AE6
:1018E800D8B4A3D5010AD8B40ED6030AD8B420D6E2
:1018F800010AD8B4F1D50F0AD8B4D5D5010AD8B49D
:1019080032D6390AD8B49AD6010AD8B4B7D6030A57
:10191800D8B43ED7010AD8B44FD7070AD8B4D5D619
:10192800010AD8B4E2D6030AD8B4EFD6010AD8B46B
:101938000CD70F0AD8B4F2D6050AD8B427D6030AAA
:10194800D8B42ED6010AD8B445D66D0AD8B4F4D680
:10195800010AD8B401D7070AD8B414D7010AD8B4F1
:1019680079D5030AD8B412000F0AD8B43FD7030AAE
:10197800D8A4120075D7346E7AEC2BF0A4D2000EDE
:101988003C6E3C50020D950EF324D96E020EF420E5
:10199800DA6EFF0EDE6EFF0EDD6E680E3C24D96E29
:1019A800DA6A020EDA220A0EDF6E770E3C24D96E4E
:1019B800DA6A020EDA22FF0EDF6E860E3C24D96E3A
:1019C800DA6A020EDA22FF0EDF6E3C50020D0E0EAE
:1019D800F324D96E020EF420DA6E000EDE6E000ECD
:1019E800DD6E3C50040D2C0EF324D96E020EF4204B
:1019F800DA6E000EDE6E000EDE6E000EDE6E000E7B
:101A0800DD6E130E3C24226E236A000E2322860EFE
:101A18003C24D96EDA6A020EDA22DF50246E5EECBC
:101A280047F0EA0E3C24226E236A000E2322770E2A
:101A38003C24D96EDA6A020EDA22DF50246E5EEC9C
:101A480047F0240E3C24226E236A000E2322680EDF
:101A58003C24D96EDA6A020EDA22DF50246E5EEC7C
:101A680047F0100E3C241B6E1C6A030E1C22FF0E4E
:101A78001E6E1D686BEC4EF03C500A0DF3CF2EF035
:101A8800F4CF2FF0FD0E2E241B6E060E2F201C6E99
:101A98000A0E1E6E000E1D6E6BEC4EF03C500A0DC9
:101AA800F3CF2EF0F4CF2FF0FB0E2E241B6E060E74
:101AB8002F201C6EFF0E1E6E1D686BEC4EF03C2A2C
:101AC8000C0E3C645ED71200000E0E6E130E0D6EE7
:101AD800860E0F6E020E106E0F0E116EA0EC4CF0FB
:101AE800000E0E6EEA0E0D6E770E0F6E020E106E61
:101AF8000F0E116EA0EC4CF0000E0E6E240E0D6E43
:101B0800680E0F6E020E106E0F0E116EA0EC4CF0E8
:101B1800000E3C6E860E3C24D96EDA6A020EDA227A
:101B2800DF50376E3728D8B40CD0100E3C241B6E0B
:101B38001C6A030E1C2237C01DF01E6A6BEC4EF0A7
:101B48000BD0100E3C241B6E1C6A030E1C22FF0EC9
:101B58001E6E1D686BEC4EF03C2A0C0E3C64DAD706
:101B6800000E3C6E680E3C24D96EDA6A020EDA2248
:101B7800080EDF6017D0770E3C24D96EDA6A020EA1
:101B8800DA22DF502E6E2F6AD8902E362F36350E79
:101B98002E24D96E010E2F20DA6EDECF39F0DDCF7C
:101BA8003AF002D039683A683C500A0DF3CF2EF06B
:101BB800F4CF2FF0FB0E2E241B6E060E2F201C6E6A
:101BC80039C01DF03AC01EF06BEC4EF03C50020DCF
:101BD800950EF324D96E020EF420DA6E39C0DEFFBA
:101BE8003AC0DDFF3C2A0C0E3C64BCD7000E3C6EAC
:101BF800680E3C24D96EDA6A020EDA22DF50386E9B
:101C0800080E38601AD03C500A0DF3CF2EF0F4CFEE
:101C18002FF0FD0E2E241B6E060E2F201C6E010EBB
:101C280038C030F0316A30C031F0306A30101D6E83
:101C380031501E6E6BEC4EF012D03C500A0DF3CFB3
:101C48002EF0F4CF2FF0FD0E2E241B6E060E2F2043
:101C58001C6E0A0E1E6E000E1D6E6BEC4EF03C2ABA
:101C68000C0E3C64C5D7000E3B6E680E3B24D96E43
:101C7800DA6A020EDA220A0EDE18D8B4CBD0FF0ECA
:101C88002E6EFF0E2F6E680E3B24D96EDA6A020E96
:101C9800DA22DF50306E316A770E3024D96E020EA8
:101CA8003120DA6EDF50326E336A2E5032262F50D2
:101CB800332233BE1BD0335004E1030E325CD8A06C
:101CC80015D0680E3B24D96EDA6A020EDA22DF508C
:101CD8002E6E2F6A770E2E24D96E020E2F20DA6E02
:101CE800DF50306E3050356E366A17D0680E3B24A0
:101CF800D96EDA6A020EDA22DF502E6E2F6A770E5C
:101D08002E24D96E020E2F20DA6EDF50306EFF0EB1
:101D18003024356E366AFF0E362235C02EF036C0B6
:101D28002FF0D8902E362F36B70E306E010E316E4A
:101D38002E5030262F503122680E3B24D96EDA6A95
:101D4800020EDA22DF50326E3250020D0E0EF324EC
:101D5800D96E020EF420DA6E30C0DEFF31C0DDFF2E
:101D6800680E3B24D96EDA6A020EDA22DF502E6E34
:101D78002E50040D2C0EF324D96E020EF420DA6EC8
:101D8800000EDE6E000EDE6E800EDE6E3F0EDD6E25
:101D9800680E3B24D96EDA6A020EDA22DF50D8A424
:101DA80018D0680E3B24D96EDA6A020EDA22DF50A8
:101DB8002E6E2E50040D2C0EF324D96E020EF42034
:101DC800DA6E550EDE6EC10EDE6EE80EDE6E3E0E6B
:101DD800DD6E680E3B24D96EDA6A020EDA22DE0462
:101DE800D8A418D0680E3B24D96EDA6A020EDA221B
:101DF800DF502E6E2E50040D2C0EF324D96E020ED9
:101E0800F420DA6ECD0EDE6ECC0EDE6E4C0EDE6E7B
:101E18003D0EDD6E3B2A070E3B6427D71200000EED
:101E28003C6E100E3C241C6E1D6A030E1D22E5EC50
:101E38004DF0860E3C24D96EDA6A020EDA221CC0F6
:101E4800DFFF3C500A0DF3CF2EF0F4CF2FF0FD0E3C
:101E58002E241C6E060E2F201D6EE5EC4DF01DC0C5
:101E68001CF01D6A680E3C24D96EDA6A020EDA226A
:101E78001CC0DFFF3C2A0D0E3C64D3D7000E296E30
:101E8800130E286E860E2A6E020E2B6E0F0E2C6E07
:101E980023EC4CF0000E296EEA0E286E770E2A6E9F
:101EA800020E2B6E0F0E2C6E23EC4CF0000E296EDA
:101EB800240E286E680E2A6E020E2B6E0F0E2C6EE4
:101EC80023EC4CF0120034502E6E2F6A2F50000A6B
:101ED800D8A412002E50000AD8B451D5010AD8B49B
:101EE800F3D5030AD8A412009AD7200E096E000E63
:101EF8000A6E000E0B6E000E0C6EC4EC49F0000E5C
:101F08003C6E5CD03CC02CF0D8902C322C28386E1B
:101F18003C50010B3B6E3BC030F01A0E0C6E010EAC
:101F28000D6E300E0E6E0F6A385056EC25F03C5090
:101F3800020DB70EF324D96E010EF420DA6E0CC030
:101F4800DEFF0DC0DDFF3C50020DB70EF324D96E45
:101F5800010EF420DA6EDE2820E1DE28D8A41DD098
:101F6800000E3C24D96EDA6A020EDA220A0EDF600D
:101F78001CD0000E3C24D96EDA6A020EDA22DF2A5F
:101F88003C50020DB70EF324D96E010EF420DA6E20
:101F9800000EDE6E000EDD6E08D0000E3C24D96EF9
:101FA800DA6A020EDA22000EDF6E510E3824D96E7C
:101FB800DA6A010EDA22010EDF6E3C2A7350020D36
:101FC8003C502C6E2D6AF3502C5C2D50800A2E6EDE
:101FD800F450800A2E58D8A095D7510E0001EE195A
:101FE800EF11D8A404D0C3C1C1F1C4C1C2F1320EEB
:101FF800096E000E0A6E000E0B6E000E0C6EC4EC1D
:1020080049F00001F387000E3C6E72D1000E1C6E81
:10201800990E1B6E3C50020DB70EF324D96E010EBB
:10202800F420DA6EDECF1DF0DDCF1EF06BEC4EF043
:102038003C50020DB70EF324D96E010EF420DA6E6F
:10204800DECF83F1DDCF84F152D13C50020DB70EC3
:10205800F324D96E010EF420DA6EDE2803E1DE28BF
:10206800D8B42BD03C50020DB70EF324D96E010E14
:10207800F420DA6EDE50DE10D8B41FD0000E1C6ECD
:10208800970E1B6E3C50020DB70EF324D96E010E4D
:10209800F420DA6EDECF1DF0DDCF1EF06BEC4EF0D3
:1020A8003C50020DB70EF324D96E010EF420DA6EFF
:1020B800DECF85F1DDCF86F11AD1F29CAB9EAB98CD
:1020C800AB94AB92AC9AAECF33F0AECF33F0AECF89
:1020D80033F0000EE8CFB4F5948C948E000E0E6E9B
:1020E800220E0D6E2DEC4BF00DC036F00EC037F001
:1020F800364A372A000E296E220E286E36C02AF07C
:1021080037C02BF063EC4DF0E80E096E030E0A6E33
:10211800000E0B6E000E0C6E2AEC49F0F28C000ECD
:10212800166EC20E176E010E186E000E196E5AEC5E
:1021380046F0DDD0000E1C6E960E1B6E3C50020D54
:10214800B70EF324D96E010EF420DA6EDECF1DF03F
:10215800DDCF1EF06BEC4EF03C50020DB70EF324B1
:10216800D96E010EF420DA6EDECF89F1DDCF8AF167
:10217800BED0510E0001EE19EF11D8A430D0060ED2
:102188003C18D8A42CD0000E1C6E8C0E1B6E3C5034
:10219800020DB70EF324D96E010EF420DA6EDECFED
:1021A8001DF0DDCF1EF06BEC4EF03C50020DB70E6B
:1021B800F324D96E010EF420DA6EDE2803E1DE285E
:1021C800D8B495D03C50020DB70EF324D96E010E49
:1021D800F420DA6EDECF87F1DDCF88F188D03C506D
:1021E800FC0F3B6E3B500C0DF3CF2CF0F4CF2DF0D1
:1021F800E60E2C24346E000E2D20356E900E3B24F6
:10220800396E3A6A010E3A22010E34241B6E000E12
:1022180035201C6E3B502C6E2D6AD8902C362D36EE
:10222800BF0E2C24D96E010E2D20DA6EDECF1DF0E4
:10223800DDCF1EF06BEC4EF03B502C6E2D6AD89023
:102248002C362D36BF0E2C24D96E010E2D20DA6EB9
:10225800010EDBAE11D0700EDE5CFE0EDE58D8B07B
:102268000BD039C01BF03AC01CF0000E1E6E010ED8
:102278001D6E6BEC4EF03BD03B502C6E2D6AD89007
:102288002C362D36BF0E2C24D96E010E2D20DA6E79
:10229800DE280EE1DE28D8A40BD039C01BF03AC0E6
:1022A8001CF0000E1E6E000E1D6E6BEC4EF01FD063
:1022B80039C01BF03AC01CF0000E1E6E030E1D6ED6
:1022C8006BEC4EF014D03C502C6E2D6A2D50000A49
:1022D800D8A44FD72C50000AD8B498D6010AD8B43D
:1022E800B4D6030AD8B426D7010AD8A442D73C2AC0
:1022F8007350020D3C502C6E2D6AF3502C5C2D50FF
:10230800800A2E6EF450800A2E58D8A0DCD700011F
:10231800F3971200500E0001EE19EF11D8A408D05F
:10232800000EC26F800EC36F0D0EC46F440E0CD02A
:10233800320EEE19EF11D8A408D0000EC26F800E2D
:10234800C36FA00EC46F430EC56F000E186E230E28
:10235800176E7BEC4EF051EC49F02CC1D2F02DC138
:10236800D3F02EC1D4F02FC1D5F0000E0001CD6FEF
:10237800000ECE6F000ECF6F000ED06F030E00015F
:102388009B6F080E9A6F770EE82EFED79A2FFCD710
:102398009B2FFAD7000E0001D16F2FD0030ED11951
:1023A800D8B429D0D1C09AF0D8909A339A29C66F58
:1023B800D151010BC76FC7C0C8F0D5C0C9F0D4C090
:1023C800CAF0D3C0CBF0D2C0CCF0140E0C6E050E00
:1023D8000D6EC80E0E6E0F6AC65156EC25F0000140
:1023E800D151020DF3509E0FD96EDA6A0CC0DEFF90
:1023F8000DC0DDFF04000001D12B7350020DD15137
:102408009A6F9B6BF3509A5D9B51800A9C6FF450B6
:10241800800A9C59D8A0C2D7030E00019B6F080EF2
:102428009A6F770EE82EFED79A2FFCD79B2FFAD7F4
:10243800000E0001D66FB5D0550E1B6EC10E1C6E76
:10244800E80E1D6E3E0E1E6ED651020DF3509E0F05
:10245800D96EDA6ADECF09F0DDCF0AF0000E0ABEC7
:10246800FF0E0B6E0C6E010E94EC2DF009C017F0E8
:102478000AC018F00BC019F00CC01AF09DEC18F047
:1024880017C069F018C06AF019C06BF01AC06CF078
:10249800D4EC3FF069C096F06AC097F00001D651BD
:1024A8002DEC47F07ED0CD0E1B6ECC0E1C6E4C0E64
:1024B8001D6E3D0E1E6ED651020DF3509E0FD96E45
:1024C800DA6ADECF09F0DDCF0AF0000E0ABEFF0E91
:1024D8000B6E0C6E010E94EC2DF009C017F00AC0BB
:1024E80018F00BC019F00CC01AF09DEC18F017C0CA
:1024F80069F018C06AF019C06BF01AC06CF0D4EC1F
:102508003FF069C096F06AC097F00001D6512DECF3
:1025180047F047D0000E1B6E000E1C6E800E1D6E1D
:102528003F0E1E6ED651020DF3509E0FD96EDA6A19
:10253800DECF09F0DDCF0AF0000E0ABEFF0E0B6EEB
:102548000C6E010E94EC2DF009C017F00AC018F0BB
:102558000BC019F00CC01AF09DEC18F017C069F008
:1025680018C06AF019C06BF01AC06CF0D4EC3FF0D8
:1025780069C096F06AC097F00001D6512DEC47F07B
:1025880010D0D62BD6059A6F9B6B9B51000AD8A406
:10259800C1D79A51000AD8B44FD7010AD8B483D703
:1025A800B9D77350020D0001D6519A6F9B6BF35047
:1025B8009A5D9B51800A9C6FF450800A9C59D8A060
:1025C800E0D7000E346E000E356E000E366E400EEB
:1025D800376E01012C51305D096E2D5131590A6E4B
:1025E8002E5132590B6E2F5133590C6E000E94EC4C
:1025F8002DF009C030F00AC031F00BC032F00CC029
:1026080033F045EC1DF030C0BEF031C0BFF032C031
:10261800C0F033C0C1F0CDC049F0CEC04AF0CFC041
:102628004BF0D0C04CF0C2C034F0C3C035F0C4C0C9
:1026380036F0C5C037F0BEC030F0BFC031F0C0C002
:1026480032F0C1C033F045EC1DF030C04DF031C060
:102658004EF032C04FF033C050F0BFEC1BF049C011
:10266800CDF04AC0CEF04BC0CFF04CC0D0F0CDC0BA
:1026780061F0CEC062F0CFC063F0D0C064F004EC6B
:1026880017F061C069F062C06AF063C06BF064C0A3
:102698006CF0D4EC3FF069C0BAF06AC0BBF06BC014
:1026A800BCF06CC0BDF0D8900001BA359A6FBB354C
:1026B8009B6FBC359C6FBD359D6F01012C5100018E
:1026C8009A25D26F01012D5100019B21D36F010181
:1026D8002E5100019C21D46F01012F5100019D2131
:1026E800D56F959C838CEFEC3DF0230E12181310D8
:1026F800D8B410D0839C959E838E060E00019A6FE5
:10270800300EE82EFED79A2FFCD700F0839ED4EC2B
:102718004EF01200839C010130510001D25D01018D
:1027280031510001D359010132510001D45901013D
:1027380033510001D559D8B0120020D6010E1D6EB4
:10274800860E1C6EE5EC4DF01C041D10D8A486D036
:10275800000E0101D66F000ED56F000ED86F000E67
:10276800D76F000EDA6F000ED96F000EDB6FDC0E2C
:102778000D6E010E0E6E970E0F6EFC0E106E0FECA6
:1027880048F0D50E2C6E010E2D6E7250E7EC40F01D
:1027980072C021F0226A7EEC33F0010E1C6E9A0E94
:1027A8001B6E000E1E6E000E1D6E6BEC4EF0010EC1
:1027B8001C6E9B0E1B6E000E1E6E000E1D6E6BECCB
:1027C8004EF0010E1C6E9C0E1B6E000E1E6E000E4F
:1027D8001D6E6BEC4EF0010E1C6E9D0E1B6E000EF6
:1027E8001E6E000E1D6E6BEC4EF0010E1B6E9E0EE3
:1027F8001A6E980E1C6EFC0E1D6E76EC4DF0BCEC3D
:102808004EF0010E1C6E860E1B6E000E1E6E000E24
:102818001D6E6BEC4EF0600E1BEC4FF051EC49F066
:10282800070E1B6E760E1A6E630E1C6EFD0E1D6E65
:1028380076EC4DF0DC0E096E050E0A6E000E0B6E7E
:10284800000E0C6EC4EC49F0070E1B6E760E1A6E65
:10285800980E1C6EFC0E1D6E76EC4DF0010E1D6E72
:10286800870E1C6EE5EC4DF01C041D10D8A467D033
:10287800010E1D6E9A0E1C6EE5EC4DF01CC0D5F1D4
:102888001DC0D6F1010E1D6E9B0E1C6EE5EC4DF0C1
:102898001CC0D7F11DC0D8F1010E1D6E9C0E1C6E18
:1028A800E5EC4DF01CC0D9F11DC0DAF1010E1D6E2A
:1028B8009D0E1C6EE5EC4DF01C500101DB6F010E06
:1028C8001D6E9E0E1C6EDC0E1E6E010E1F6E95ECAC
:1028D8004EF0D50E2C6E010E2D6E7250E7EC40F0C6
:1028E800BCEC4EF0010E1C6E870E1B6E000E1E6EA9
:1028F800000E1D6E6BEC4EF0500E1BEC4FF051ECC1
:1029080049F0070E1B6E760E1A6E0F0E1C6EFD0E2A
:102918001D6E76EC4DF0DC0E096E050E0A6E000E8B
:102928000B6E000E0C6EC4EC49F0070E1B6E760E93
:102938001A6E980E1C6EFC0E1D6E76EC4DF0010E94
:102948001D6E880E1C6EE5EC4DF01C041D10D8A4FD
:102958009AD0070E1B6E760E1A6ED50E1C6EFC0EE4
:102968001D6E76EC4DF0D50E176E010E186E725076
:102978001FEC3BF0070E1B6E760E1A6E990E1C6E3E
:10298800FC0E1D6E76EC4DF0000E3A6E20D03AC06B
:102998003DF0D5C13EF0D6C13FF0D7C140F0D9C116
:1029A80041F0DBC142F0430E0D6E0E6ADC0E0F6E75
:1029B800010E106E0FEC48F0000E4D6E010E4C6EBD
:1029C8003D0E2C6E2D6A3A5010EC38F03A2AFC0E67
:1029D800336EFF0E346E7350356E366AD8903536C6
:1029E800363633503526345036223A50376E386AE8
:1029F8003550375C3850800A396E3650800A39585D
:102A0800D8A0C5D7070E1B6E760E1A6E070E1C6E61
:102A1800FB0E1D6E76EC4DF0A5EC23F0070E1B6E39
:102A2800760E1A6E5C0E1C6EFC0E1D6E76EC4DF06A
:102A3800000E3B6E3B50BEEC2AF03B2A0E0E3B6468
:102A4800F9D7000E3C6E3C5037EC31F03C2A090EA9
:102A58003C64F9D7010E1C6E880E1B6E000E1E6EAC
:102A6800000E1D6E6BEC4EF0600E1BEC4FF051EC3F
:102A780049F0070E1B6E760E1A6E980E1C6EFC0E31
:102A88001D6E76EC4DF0010E1D6E890E1C6EE5EC88
:102A98004DF01C041D10D8A41200010E1C6E890EE6
:102AA8001B6E000E1E6E000E1D6E6BEC4EF0000EBF
:102AB800186E2F0E176E7BEC4EF01200010E1D6E75
:102AC8007E0E1C6E3BEC4DF01CC069F01DC06AF018
:102AD8001EC06BF01FC06CF0D4EC3FF0010E1D6EF1
:102AE800800E1C6E3BEC4DF01CC069F01DC06AF0F6
:102AF8001EC06BF01FC06CF0D4EC3FF0010E136EDB
:102B08007C0E126EB20E146E156A040E166EA3ECCD
:102B180036F0B4C096F00001976B986B996B98C02B
:102B280099F097C098F096C097F0966BB3C09AF05A
:102B38009B6B9C6B9D6B9BC09DF09AC09CF09B6BA4
:102B48009A6BB2C09EF09F6BA06BA16B9EC0A1F068
:102B5800A06B9F6B9E6B9A519E25A26F9B519F21E4
:102B6800A36F9C51A021A46F9D51A121A56F9651DF
:102B7800A225A66F9751A321A76F9851A421A86FEA
:102B88009951A521A96FB551A62501016D6F000EB8
:102B98000001A72101016E6F000E0001A8210101AB
:102BA8006F6F000E0001A9210101706F010E136EF5
:102BB8007E0E126EB20E146E156A040E166EA3EC1B
:102BC80036F0B4C096F00001976B986B996B98C07B
:102BD80099F097C098F096C097F0966BB3C09AF0AA
:102BE8009B6B9C6B9D6B9BC09DF09AC09CF09B6BF4
:102BF8009A6BB2C09EF09F6BA06BA16B9EC0A1F0B8
:102C0800A06B9F6B9E6B9A519E25A26F9B519F2133
:102C1800A36F9C51A021A46F9D51A121A56F96512E
:102C2800A225A66F9751A321A76F9851A421A86F39
:102C38009951A521A96FB551A625AE6F000EA72100
:102C4800AF6F000EA821B06F000EA921B16F010E61
:102C5800136E800E126EB20E146E156A040E166E86
:102C6800A3EC36F0B4C096F00001976B986B996BA3
:102C780098C099F097C098F096C097F0966BB3C03B
:102C88009AF09B6B9C6B9D6B9BC09DF09AC09CF0CF
:102C98009B6B9A6BB2C09EF09F6BA06BA16B9EC0A2
:102CA800A1F0A06B9F6B9E6B9A519E25A26F9B51C2
:102CB8009F21A36F9C51A021A46F9D51A121A56FB5
:102CC8009651A225A66F9751A321A76F9851A421C9
:102CD800A86F9951A521A96FB551A625AA6F000E15
:102CE800A721AB6F000EA821AC6F000EA921AD6F14
:102CF80001016D516E116F117011D8B40DD0000122
:102D0800AE51AF11B011B111D8B406D0AA51AB1160
:102D1800AC11AD11D8A404D0230E1BEC4FF0120057
:102D2800000E0E6E0B0E0D6ED4EC4AF001016D51C3
:102D38000D1862E16E510E185FE16F510F185CE1DA
:102D480070511018D8A458D00001AA51AE1950E1FA
:102D5800AB51AF194DE1AC51B0194AE1AD51B119C0
:102D6800D8A446D0000E296E0B0E286EAEC02AF0ED
:102D7800AFC02BF0B0C02CF0B1C02DF0B8EC4CF0C7
:102D8800AEC06DF1AFC06EF1B0C06FF1B1C070F1FF
:102D9800DEEC4EF0010E1B6E7C0E1A6E000E1C6EE1
:102DA800000E1D6E000E1E6E000E1F6E78EC49F0B0
:102DB800010E1B6E7E0E1A6E000E1C6E000E1D6E2E
:102DC800000E1E6E000E1F6E78EC49F0010E1B6E91
:102DD800800E1A6E000E1C6E000E1D6E000E1E6E0A
:102DE800000E1F6E78EC49F0220E1BEC4FF012001B
:102DF800210E1BEC4FF01200200E1BEC4FF01200BE
:102E080065C18AF066C18BF067C18CF068C18DF02E
:102E180061C08AF062C08BF063C08CF064C08DF032
:102E28008AC065F08BC066F08CC067F08DC068F012
:102E3800180E05D0D8906832673266326532E82EAF
:102E4800F9D765500001846F856B85BF0FD0855118
:102E580004E1960E845DD8A009D061C061F062C01B
:102E680062F063C063F064C064F012008AC065F069
:102E78008BC066F08CC067F08DC068F0200E05D05E
:102E8800D8906832673266326532E82EF9D76550D5
:102E9800D8B412D061C009F062C00AF063C00BF068
:102EA80064C00CF0CFEC4CF009C061F00AC062F0CD
:102EB8000BC063F00CC064F0000185BF06D08551DB
:102EC8001FE17E0E845DD8B01BD08AC017F08BC07E
:102ED80018F08CC019F08DC01AF0000E1B6E000E91
:102EE8001C6E000E1D6E000E1E6E9DEC18F017C0B5
:102EF80061F018C062F019C063F01AC064F01200E3
:102F0800000E4D6E000E4E6E000E4F6E4B0E506E44
:102F180061C049F062C04AF063C04BF064C04CF035
:102F2800BFEC1BF049C086F04AC087F04BC088F060
:102F38004CC089F0000E4D6E000E4E6E000E4F6EA6
:102F4800CB0E506E86C049F087C04AF088C04BF05F
:102F580089C04CF0BFEC1BF049C080F04AC081F03A
:102F68004BC082F04CC083F080C059F081C05AF049
:102F780082C05BF083C05CF061C05DF062C05EF04F
:102F880063C05FF064C060F00EEC4AF059C08EF088
:102F98005AC08FF05BC090F05CC091F0000E096ED3
:102FA800000E0A6E000E0B6E3F0E0C6E8EC00DF0FA
:102FB8008FC00EF090C00FF091C010F0F4EC3BF011
:102FC800D8B02DD061C04DF062C04EF063C04FF054
:102FD80064C050F08EC049F08FC04AF090C04BF0EA
:102FE80091C04CF0BFEC1BF049C086F04AC087F096
:102FF8004BC088F04CC089F086C049F087C04AF0C1
:1030080088C04BF089C04CF0000E4D6E000E4E6E1D
:10301800800E4F6EBF0E506EBFEC1BF053D0000EEB
:10302800096E000E0A6E000E0B6EBF0E0C6E8EC07F
:103038000DF08FC00EF090C00FF091C010F0F4ECBE
:103048003BF0D8A02DD061C04DF062C04EF063C0F7
:103058004FF064C050F08EC049F08FC04AF090C065
:103068004BF091C04CF0BFEC1BF049C086F04AC051
:1030780087F04BC088F04CC089F086C049F087C003
:103088004AF088C04BF089C04CF0000E4D6E000E1F
:103098004E6E800E4F6E3F0E506EBFEC1BF012D07E
:1030A8008EC049F08FC04AF090C04BF091C04CF0F0
:1030B80061C04DF062C04EF063C04FF064C050F084
:1030C800BFEC1BF049C08EF04AC08FF04BC090F0A7
:1030D8004CC091F08AC065F08BC066F08CC067F078
:1030E8008DC068F0200E05D0D890683267326632FD
:1030F8006532E82EF9D76550D8B412D08EC009F0E1
:103108008FC00AF090C00BF091C00CF0CFEC4CF0DF
:1031180009C08EF00AC08FF00BC090F00CC091F07F
:103128008EC061F08FC062F090C063F091C064F00F
:1031380012001A50800B236E1A501A24256E19BEDD
:1031480025802550D8B40DD02528D8A408D0000E45
:10315800176E000E186E000E196E000E1A6E198E7C
:1031680008D0000E176E000E186E000E196E000EB5
:103178001A6E1E50800B231A1E501E24246E1DBE6C
:1031880024802450D8B40DD02428D8A408D0000E08
:103198001B6E000E1C6E000E1D6E000E1E6E1D8E28
:1031A80008D0000E1B6E000E1C6E000E1D6E000E69
:1031B8001E6E2450D8B403D02550D8A409D0000ED0
:1031C800176E000E186E000E196E000E1A6E1200A1
:1031D8001D501702F3CF2EF0F4CF2FF02E50266E8D
:1031E800276A286A296A2F502A6E2B6A2C6A2D6A48
:1031F8001C501802F3CF2EF0F4CF2FF02E502626B5
:10320800000E2722282229222F502A26000E2B22A0
:103218002C222D221B501902F3CF2EF0F4CF2FF0C1
:103228002E502626000E2722282229222F502A2611
:10323800000E2B222C222D2228C029F027C028F08E
:1032480026C027F0266A1B501802F3CF2EF0F4CFC1
:103258002FF02E5026262F502722000E2822000E4F
:1032680029221C501702F3CF2EF0F4CF2FF02E5046
:1032780026262F502722000E2822000E292228C099
:1032880029F027C028F026C027F0266A1B5017020D
:10329800F3CF2EF0F4CF2FF02E5026262F502722D2
:1032A800000E2822000E29221D501802F3CF2EF0FE
:1032B800F4CF2FF02E502A262F502B22000E2C222E
:1032C800000E2D221C501902F3CF2EF0F4CF2FF050
:1032D8002E502A262F502B22000E2C22000E2D2293
:1032E8001D501902F3CF2EF0F4CF2FF02E501F6E81
:1032F8002F50206E216A226A21C022F020C021F0BE
:103308001FC020F01F6A1F502A2620502B22215050
:103318002C2222502D2229502A26000E2B222C2224
:103328002D2228C029F027C028F026C027F0266AB9
:10333800245025C01FF0206A1F26000E2022820E6E
:103348001F242E6EFF0E20202F6E0FD0D8902A3605
:103358002B362C362D3629BE2A80D890263627368D
:10336800283629362E06D8A02F062CAEEFD7000E09
:10337800246E29AE17D0FF0E26141F6EFF0E2714D9
:10338800206EFF0E2814216E7F0E2914226E1F5006
:10339800201021102210D8B403D0010E246E02D0C0
:1033A8002AB0FBD72450D8B41FD0010E2A26000E0D
:1033B8002B222C222D222DA017D02AC01FF02BC083
:1033C80020F02CC021F02DC022F0223422322132EC
:1033D80020321F321FC02AF020C02BF021C02CF051
:1033E80022C02DF02E4A2F2A2FBE0DD02F5003E1D8
:1033F8002E28D8A008D0000E2A6E000E2B6E800E44
:103408002C6E7F0E20D02FBE05D02F500EE12E043B
:10341800D8B00BD0000E2A6E000E2B6E000E2C6E4C
:10342800000E2D6E000E236E0FD02EC025F0FF0E5D
:103438002A16FF0E2B167F0E2C16000E2D1625B001
:103448002C8ED89025302D6E23502D122AC017F0BF
:103458002BC018F02CC019F02DC01AF01200000E65
:10346800E56FDE0E206EFE0E216EB2EC3AF0800E95
:103478000D6E0E6A00C50FF001C510F00FEC48F094
:10348800B20E0D6E0E6AE30E0F6EFF0E106E0FEC8D
:1034980048F0B20E176E186A800E196E1A6A89EC17
:1034A8004DF0B20E176E186AE90E196EFF0E1A6EFD
:1034B80089EC4DF0000E286E000E296E000E2A6E63
:1034C800000E2B6EAB0E2D6ECD0E2C6E000E5CEC2E
:1034D8003CF00009D8A410D0B20E176E186ADC0EA2
:1034E800196EFF0E1A6E89EC4DF00001E52BB20E35
:1034F800206E216AB2EC3AF0010E0001E76FE5D0C8
:10350800000EE66FB20E0D6E0E6A980E0F6EFC0E70
:10351800106E0FEC48F0800E0D6E0E6A980E0F6E4E
:10352800FC0E106E0FEC48F0E7C018F0196A800E18
:103538001A6E1B6A000E1D6E0A0E1C6E24EC36F005
:103548000A0E0001E76109D0B20E176E186AD20E92
:10355800196EFF0E1A6E89EC4DF0B20E176E186ACE
:10356800800E196E1A6A89EC4DF0B20E176E186A41
:10357800E50E196EFF0E1A6E89EC4DF0030E0C6EF7
:10358800000E0D6E000E0E6E030E0F6E0001E75159
:1035980056EC25F00C500001E46F800E0D6E0E6A9B
:1035A800E4511E0D000EF324D96E050EF420DA6ED8
:1035B800DECF0FF0DDCF10F00FEC48F0B20E176E33
:1035C800186A800E196E1A6A89EC4DF0B20E176EE1
:1035D800186AEF0E196EFF0E1A6E89EC4DF0800E08
:1035E8000D6E0E6A980E0F6EFC0E106E0FEC48F002
:1035F800E6C018F0196A800E1A6E1B6A000E1D6E5E
:103608000A0E1C6E24EC36F0B20E176E186A800E85
:10361800196E1A6A89EC4DF0B20E176E186AC40E4C
:10362800196EFF0E1A6E89EC4DF0510E0001EE195D
:10363800EF11D8B422D0020EE719D8A403D0E605BA
:10364800D8B43DD0E6C01CF0000E1D6E000E1E6EF4
:10365800000E1F6E000E206EAB0E226ECD0E216E78
:10366800E7515FEC32F00009D8A429D0B20E206EE1
:10367800216AB2EC3AF0E52B22D0020EE719D8A461
:1036880003D0E605D8B41BD0040EE719D8A403D09C
:10369800E605D8B414D0E6C01CF0000E1D6E000E6E
:1036A8001E6E000E1F6E000E206EAB0E226ECD0E2B
:1036B800216EE7515FEC32F00009D8B4D7D700018A
:1036C800E62B010EE6651ED7E72BE751735CD8B0F1
:1036D80017D7B20E206EFB0E216EB2EC3AF0E55110
:1036E800D8B42CD0B20E0D6E0E6A620E0F6EFE0E9E
:1036F800106E0FEC48F0E5C018F0196A800E1A6ECB
:103708001B6A000E1D6E0A0E1C6E24EC36F0B20EFB
:10371800176E186A800E196E1A6A89EC4DF0B20E8F
:10372800176E186A150E196EFE0E1A6E89EC4DF09A
:10373800B20E206E216AB2EC3AF006D02B0E206E43
:10374800FD0E216EB2EC3AF0300E206EFE0E216EA8
:10375800B2EC3AF08F0E206EFB0E216EB2EC3AF00E
:10376800A00E096E0F0E0A6E000E0B6E000E0C6E88
:103778002AEC49F012004C50800B556E4C504C24EA
:10378800576E4BBE57805750D8B40DD05728D8A481
:1037980008D0000E496E000E4A6E000E4B6E000EE9
:1037A8004C6E4B8E06D0000E496E000E4A6E000E0F
:1037B8004B6E000E4C6E5050800B566E555056187E
:1037C800D8A4558C50505024566E4FBE5680565033
:1037D800D8B40DD05628D8A408D0000E4D6E000ECF
:1037E8004E6E000E4F6E000E506E4F8E06D0000EBD
:1037F8004D6E000E4E6E000E4F6E000E506E5750FE
:10380800565CD8B022D055AC02D0800E551A57C09D
:1038180058F056C057F058C056F049C058F04DC03F
:1038280049F058C04DF04AC058F04EC04AF058C050
:103838004EF04BC058F04FC04BF058C04FF04CC042
:1038480058F050C04CF058C050F0000E586E575009
:1038580056C051F0526A515E000E525A52BE2CD0D8
:10386800525004E11A0E515CD8A026D049504A1093
:103878004B104C10D8B402D0010E01D0000E586E77
:10388800000E496E000E4A6E000E4B6E000E4C6E16
:1038980056C057F015D058A005D0D8905830010917
:1038A800586E02D0D890583249B0588E4C344C32A9
:1038B8004B324A324932572A5650575CD8A0EBD778
:1038C80055BC28D05750D8A409D0000E496E000E18
:1038D8004A6E000E4B6E000E4C6E12004D5049267B
:1038E8004E504A224F504B2250504C224CA071D07F
:1038F80058A005D0D89058300109586E02D0D890F9
:10390800583249B0588E4C344C324B324A324932D4
:10391800572A5FD04D50495C4E504A584F504B582B
:103928004C50800A516E5050800A5158D8B025D05A
:1039380049504D5C516E4A504E58526E4B504F583C
:10394800536E4C505058546EFF0E5124496EFF0E62
:1039580052204A6EFF0E53204B6EFF0E54204C6EC1
:10396800800E551A586C5850D8A40FD0010E49260D
:10397800000E4A224B224C2208D04D50495E4E5030
:103988004A5A4F504B5A50504C5A49504A104B10B3
:103998004C10D8A41CD05850D8A419D0000E496E89
:1039A800000E4A6E000E4B6E000E4C6E1200D89040
:1039B80049364A364B364C3658BE498058A002D054
:1039C800D88001D0D89058365750D8A457064BAE57
:1039D800EED7000E566E58AE0BD058C051F07F0E81
:1039E8005116D8B403D0010E566E02D049B0FBD799
:1039F8005650D8B420D0010E4926000E4A224B2238
:103A08004C224CA018D049C051F04AC052F04BC0CB
:103A180053F04CC054F05434543253325232513271
:103A280051C049F052C04AF053C04BF054C04CF05A
:103A38005728D8A4572A5728D8B403D05750D8A401
:103A48000DD0000E496E000E4A6E000E4B6E000E31
:103A58004C6E5750D8A402D0000E556E57A002D015
:103A68004B8E01D04B9ED89057304C6E55BE4C8E25
:103A780049C049F04AC04AF04BC04BF04CC04CF02A
:103A880012003350800B406E33503324476E32BEE1
:103A980047804750D8B40DD04728D8A408D0000E86
:103AA800306E000E316E000E326E000E336E328EA6
:103AB80006D0000E306E000E316E000E326E000E13
:103AC800336E3750800B401A37503724486E36BE55
:103AD80048804850D8B40DD04828D8A408D0000E43
:103AE800346E000E356E000E366E000E376E368E52
:103AF80006D0000E346E000E356E000E366E000EC7
:103B0800376E3450351036103710D8A417D0000E41
:103B1800306E000E316E000E326E000E336E800E67
:103B280032127F0E33124050331230C030F031C0A1
:103B380031F032C032F033C033F012004750D8A40D
:103B480009D0000E306E000E316E000E326E000E7F
:103B5800336E1200485047C038F0396A385E000E9C
:103B6800395A7F0E3824416E000E3920426E30C01B
:103B78003CF031C03DF032C03EF033C03FF0000EA3
:103B8800306E000E316E000E326E000E336E000E77
:103B9800436E000E446E000E456E000E466E000E1B
:103BA800486E28D04850D8B411D0D8903C363D360D
:103BB8003E363F36D890303631363236333646BE0A
:103BC8003080D890433644364536463634503C5CCF
:103BD80035503D5836503E5837503F58D8A009D038
:103BE800468C34503C5E35503D5A36503E5A37501C
:103BF8003F5A482A190E4864D5D73C503D103E100C
:103C08003F10D8B411D043800FD0D8903036313619
:103C18003236333646BE3080D89043364436453641
:103C280046364106D8A0420632AEEFD7000E486E9F
:103C380046AE17D0FF0E4314386EFF0E4414396E8B
:103C4800FF0E45143A6E7F0E46143B6E38503910FD
:103C58003A103B10D8B403D0010E486E02D030B0F1
:103C6800FBD74850D8B41FD0010E3026000E3122A1
:103C78003222332233A017D030C038F031C039F0A7
:103C880032C03AF033C03BF03B343B323A3239323F
:103C9800383238C030F039C031F03AC032F03BC069
:103CA80033F0414A422A42BE10D0425003E1412833
:103CB800D8A00BD0000E426E4168000E306E000E88
:103CC800316E000E326E000E336E42BE05D0425089
:103CD80011E14104D8B00ED0000E426E000E416EC4
:103CE800000E306E000E316E000E326E000E336E16
:103CF800000E406E41C047F047A002D0328E01D07E
:103D0800329ED8904730336E0ED72C0E096E010EB6
:103D18000A6E000E0B6E000E0C6E2AEC49F0070EB0
:103D28001D6EC60E1C6E000E1E6E030E1F6E95ECE9
:103D38004EF0B30E0D6E020E0E6EBA0E0F6EFE0E24
:103D4800106E0FEC48F0B30E176E020E186E000ED0
:103D5800196E030E1A6E89EC4DF0B30E206E020E2A
:103D6800216EB2EC3AF0F40E096E010E0A6E000EE6
:103D78000B6E000E0C6E2AEC49F0030E0C6E000E52
:103D88000D6E000E0E6E030E0F6E0001835156EC81
:103D980025F0000E736EB30E0D6E020E0E6E980EA9
:103DA8000F6EFC0E106E0FEC48F0B30E176E020E7D
:103DB800186ECC0E196EFE0E1A6E89EC4DF0B30E0D
:103DC800176E020E186ECC0E196EFF0E1A6E89EC65
:103DD8004DF0B30E206E020E216EB2EC3AF0010ED9
:103DE800836F640E096E000E0A6E000E0B6E000ED5
:103DF8000C6E2AEC49F0030E0C6E000E0D6E000ED0
:103E08000E6E030E0F6E0001835156EC25F00CC0A8
:103E180081F00DC082F00001812903E18229D8B424
:103E280067D081C080F0732AB30E0D6E020E0E6E3D
:103E3800980E0F6EFC0E106E0FEC48F083C018F051
:103E4800196AB30E1A6E020E1B6E000E1D6E0A0E54
:103E58001C6E24EC36F0B30E176E020E186EE50ECB
:103E6800196EFF0E1A6E89EC4DF0B30E176E020E26
:103E7800186E000180511E0D000EF324D96E050E38
:103E8800F420DA6EDECF19F0DDCF1AF089EC4DF0B0
:103E9800B30E176E020E186E970E196EFC0E1A6E80
:103EA80089EC4DF0000E0D6E030E0E6E970E0F6E20
:103EB800FC0E106E0FEC48F0410E0C6E000E0D6EED
:103EC800000E0E6E030E0F6E0001835156EC25F0A6
:103ED800B30E176E020E186E000E196E030E1A6ED0
:103EE80089EC4DF0B30E206E020E216EB2EC3AF062
:103EF800832B0E0E836575D7B20E206EFB0E216ED6
:103F0800B2EC3AF07350D8A407D0CC0E206EFD0E58
:103F1800216EB2EC3AF01DD073C018F0196AB30ED6
:103F28001A6E020E1B6E000E1D6E0A0E1C6E24EC1D
:103F380036F0B30E176E020E186EFE0E196EFD0ED9
:103F48001A6E89EC4DF0B30E206E020E216EB2ECA3
:103F58003AF08F0E206EFB0E216EB2EC3AF0120092
:103F6800336E33502C6E2D6AFF0E2E6EFF0E2F6EA1
:103F78007150306E316A2E5030262F5031222C501D
:103F8800305C3150800A326E2D50800A3258D8B0D9
:103F980024D0000E1D6E020E1C6EE5EC4DF01C04C4
:103FA8001D10D8A426D0EFEC3DF012501310D8B451
:103FB80020D0030E186EE80E176E55EC4CF0000E6C
:103FC8001C6E020E1B6E000E1E6E000E1D6E6BEC3C
:103FD8004EF0440E1BEC4FF01200EFEC3DF0125087
:103FE8001310D8B406D0000E1D6E020E1C6EE5EC40
:103FF8004DF03350360DF3CF2CF0F4CF2DF0100EDA
:104008002C26000E2D222CC034F02DC035F0000EC9
:1040180035BEFF0E366E376E34C01FF035C020F047
:1040280036C021F037C022F001C123F002C124F0CC
:10403800000EE6EC4CF0020E34240D6E000E352016
:104048000E6E000E36200F6E000E3720106E0D0E0D
:10405800116E010E126E000E1AEC35F00C0E34249F
:104068000D6E000E35200E6E000E36200F6E000EFF
:104078003720106E030E116E010E126E000E1AEC30
:1040880035F0160E34240D6E000E35200E6E000E1F
:1040980036200F6E000E3720106E210E116E010EA5
:1040A800126E000E1AEC35F0200E34240D6E000E40
:1040B80035200E6E000E36200F6E000E3720106E63
:1040C800170E116E010E126E000E1AEC35F02A0E44
:1040D80034241F6E000E3520206E000E3620216E0F
:1040E800000E3720226E2BC123F0000EF7EC4DF0A6
:1040F8002B0E34241F6E000E3520206E000E362045
:10410800216E000E3720226E2CC123F02DC124F021
:104118002EC125F02FC126F0000E09EC4CF02F0E11
:1041280034241F6E000E3520206E000E3620216EBE
:10413800000E3720226E30C123F031C124F032C185
:1041480025F033C126F0000E09EC4CF0330E342470
:104158001F6E000E3520206E000E3620216E000ED8
:104168003720226E34C123F035C124F0000EE6EC6E
:104178004CF0350E34241F6E000E3520206E000ED4
:104188003620216E000E3720226E36C123F0000E35
:10419800F7EC4DF01200000E476E000E1D6EA80ED3
:1041A8001C6EE5EC4DF01C041D10D8A41FD0000EA9
:1041B8001C6EA80E1B6E000E1E6E000E1D6E6BECA4
:1041C8004EF00001F151D8B40CD0000E486E4850A2
:1041D800BEEC2AF0482A0E0E4864F9D751EC49F093
:1041E80005D0510E1BEC4FF01AEC4EF0000E1D6E70
:1041F800A70E1C6EE5EC4DF01C041D10D8A42DD0A4
:10420800000E1C6EA70E1B6E000E1E6E000E1D6E9D
:104218006BEC4EF00001F151D8B41AD0E50E1E6EC9
:10422800FD0E1F6E070E216ED00E206E000E226E40
:10423800010E236EF3EC42F0000E496E495009EC72
:1042480034F0492A090E4964F9D7010E476E05D0A2
:10425800510E1BEC4FF01AEC4EF0000E1D6EA60E20
:104268001C6EE5EC4DF01C041D10D8B403D047506B
:10427800D8B43DD0000E1C6EA60E1B6E000E1E6E2E
:10428800000E1D6E6BEC4EF00001F151D8B42AD02F
:10429800A60E1E6EFE0E1F6E070E216ED00E206E2D
:1042A800000E226E010E236EF3EC42F0A5EC23F013
:1042B800880E1E6EFF0E1F6E070E216ED00E206E2A
:1042C800010E226E000E236EF3EC42F051EC49F021
:1042D800320E0001EE19EF11D8A409D0500E1BECD4
:1042E8004FF005D0510E1BEC4FF01AEC4EF0000EBB
:1042F8001D6EA90E1C6EE5EC4DF01C041D10D8A413
:104308001200000E1C6EA90E1B6E000E1E6E000E13
:104318001D6E6BEC4EF00001F151D8B43CD0930EF9
:104328001E6EFF0E1F6E070E216ED00E206E000E41
:10433800226E010E236EF3EC42F0130E0101F81900
:10434800F911D8A402D0000E466E150EF819F9110D
:10435800D8A402D0050E466E050E306E465084EC89
:1043680038F0000E4A6E4A50BEEC2AF04A2A0E0E69
:104378004A64F9D751EC49F0B20E1E6EFF0E1F6E5B
:10438800070E216ED00E206E010E226E000E236ED7
:10439800F3EC42F01200510E1BEC4FF01AEC4EF009
:1043A8001200436E43503C6E3D6AFF0E3E6EFF0E98
:1043B8003F6E7150406E416A3E5040263F50412248
:1043C8003C50405C4150800A426E3D50800A425841
:1043D800D8A012004350360DF3CF3CF0F4CF3DF097
:1043E800100E3C26000E3D223CC044F03DC045F076
:1043F800000E45BEFF0E466E476E44C01BF045C01A
:104408001CF046C01DF047C01EF0000EEFEC4BF04C
:104418001BC001F11CC002F1020E4424106E000EF4
:104428004520116E000E4620126E000E4720136EB6
:104438000D0E146E010E156E000EB1EC27F00C0E69
:104448004424106E000E4520116E000E4620126E98
:10445800000E4720136E030E146E010E156E000E2B
:10446800B1EC27F0160E4424106E000E4520116E94
:10447800000E4620126E000E4720136E210E146E99
:10448800010E156E000EB1EC27F0200E4424106EBC
:10449800000E4520116E000E4620126E000E4720B9
:1044A800136E170E146E010E156E000EB1EC27F088
:1044B8002A0E44241B6E000E45201C6E000E46205A
:1044C8001D6E000E47201E6E000ED3EC4DF001014C
:1044D8002B6F2B0E44241B6E000E45201C6E000E05
:1044E80046201D6E000E47201E6E000E32EC40F076
:1044F8001BC02CF11CC02DF11DC02EF11EC02FF1C8
:104508002F0E44241B6E000E45201C6E000E462004
:104518001D6E000E47201E6E000E32EC40F01BC0D0
:1045280030F11CC031F11DC032F11EC033F1330E21
:1045380044241B6E000E45201C6E000E46201D6E86
:10454800000E47201E6E000EEFEC4BF01BC034F13E
:104558001CC035F1350E44241B6E000E45201C6E20
:10456800000E46201D6E000E47201E6E000ED3EC76
:104578004DF00101366F1200000E1C6E020E1B6E0C
:10458800000E1E6E000E1D6E6BEC4EF0000E1C6EC3
:10459800030E1B6E000E1E6E000E1D6E6BEC4EF0B1
:1045A800000E1C6E040E1B6E000E1E6E000E1D6E9D
:1045B8006BEC4EF0000E1C6E050E1B6E000E1E6E90
:1045C800000E1D6E6BEC4EF00001F299000E0A6EA3
:1045D800100E096E83EC4BF00001F26FF251D8B463
:1045E8001200010E206EFF0E216EB2EC3AF0900E12
:1045F800206EFE0E216EB2EC3AF0000EE5EC47F0AC
:104608000001F2A116D0F291A80E206EFF0E216EC5
:10461800B2EC3AF0000E1C6E020E1B6E000E1E6EFF
:10462800010E1D6E6BEC4EF0000E01018C6F000E3A
:104638008B6F510E0001EE19EF11D8B4F2AF16D0FE
:10464800F29F9E0E206EFF0E216EB2EC3AF0000E25
:104658001C6E130E1B6E000E1E6E010E1D6E6BEC93
:104668004EF0000E0101EB6F1E0E04D0000E01018A
:10467800EB6F000EEA6F0001F2A516D0F2951F0E3F
:10468800206EFF0E216EB2EC3AF0000E1C6E030E87
:104698001B6E000E1E6E010E1D6E6BEC4EF0000EB2
:1046A8000101F16F1E0E04D0000E0101F16F000E22
:1046B800F06F0001F2A717D0F297F289F00E206E82
:1046C800FE0E216EB2EC3AF0000E1C6E040E1B6E4C
:1046D800000E1E6E010E1D6E6BEC4EF0000E0101F9
:1046E800EF6F1E0E04D0000E0101EF6F000EEE6F8B
:1046F8000001F2A316D0F293110E206EFF0E216E68
:10470800B2EC3AF0000E1C6E050E1B6E000E1E6E0B
:10471800010E1D6E6BEC4EF0000E0101ED6F1E0ECA
:1047280004D0000E0101ED6F000EEC6FAC0E096EA7
:104738000D0E0A6E000E0B6E000E0C6E2AEC49F080
:104748001200040E216E21C01CF0D8901C321C28C7
:10475800226E2150010B236E2150120DF350EC0FE5
:10476800206E010E20240D6E0E6A000E0E222DEC16
:104778004BF00DC01EF00EC01FF02350070DF3CFF5
:1047880024F01FC025F01EC026F00A0E0C6E030E82
:104798000D6E240E0E6E0F6A225056EC25F0070E91
:1047A8001D6E170E1C6E6A0EE82EFED71C2EFCD747
:1047B8001D2EFAD700D02350070DF350020F246E98
:1047C800030E2024096E0A6A000E0A2283EC4BF0BD
:1047D800256E080E0C6E020E0D6E240E0E6E0F6AFC
:1047E800225056EC25F0070E1D6E170E1C6E6A0E31
:1047F800E82EFED71C2EFCD71D2EFAD700D023504A
:10480800070DF350030F246E040E2024096E0A6A64
:10481800000E0A2283EC4BF0256E080E0C6E020E79
:104828000D6E240E0E6E0F6A225056EC25F0070E00
:104838001D6E170E1C6E6A0EE82EFED71C2EFCD7B6
:104848001D2EFAD700D02350070DF350040F246E05
:10485800050E2024096E0A6A000E0A2283EC4BF02A
:10486800256E080E0C6E020E0D6E240E0E6E0F6A6B
:10487800225056EC25F0070E1D6E170E1C6E6A0EA0
:10488800E82EFED71C2EFCD71D2EFAD700D0100E0E
:1048980020240D6E0E6A000E0E222DEC4BF00DC07A
:1048A8001EF00EC01FF02350070DF350050F246EA5
:1048B8001FC025F01EC026F00A0E0C6E030E0D6EEA
:1048C800240E0E6E0F6A225056EC25F0070E1D6E50
:1048D800170E1C6E6A0EE82EFED71C2EFCD71D2E56
:1048E800FAD700D02304D8A40AD0010E0C6E000E0B
:1048F8000D6E240E0E6E0F6A225056EC25F0212AFA
:104908000E0E216420D71200196E000E1A6E000ECA
:104918000101A66F050EA56F135005E1020E125C8A
:10492800D8B0120001D01200135003E11204D8A02D
:1049380002D0080E01D0000E1A6E19C01BF0D890D4
:104948001B36A00E1B121B801A501B12A2EC4EF035
:104958001BC017F0FE0E171617500B6E0C6AF0EC02
:104968004EF011C00BF00C6AF0EC4EF010C00BF0DA
:104978000C6AF0EC4EF0FFEC4EF01BC00BF00C6A2A
:10498800F0EC4EF0000E186E79D013507BE1020E59
:10499800125CD8B077D010C017F0010E17267F0E22
:1049A8001716D8A451D0000E0C6E000E0B6E8EECAC
:1049B80047F00B5015C0D9FF16C0DAFFDF6E0DECBB
:1049C8004FF015C0D9FF16C0DAFFDF50AFEC4EF03C
:1049D800340E176EF20EE82EFED7172EFCD7010EF6
:1049E8001026000E112212221322135003E1120482
:1049F800D8A002D0080E01D0000E1A6E19C01BF004
:104A0800D8901B36A00E1B121B801A501B12A2EC4A
:104A18004EF01BC017F0FE0E171617500B6E0C6ADF
:104A2800F0EC4EF011C00BF00C6AF0EC4EF010C038
:104A38000BF00C6AF0EC4EF0FFEC4EF01BC00BF0E4
:104A48000C6AF0EC4EF019D0000E0C6E010E0B6ED5
:104A58008EEC47F00B5015C0D9FF16C0DAFFDF6E99
:104A680015C0D9FF16C0DAFFDF50AFEC4EF0010ECB
:104A78001026000E112212221322182A1450185C34
:104A8800D8A083D7000E0C6E000E0B6E8EEC47F08C
:104A98000DEC4FF0070E176EC00EE82EFED7172E3E
:104AA800FCD71200146E15681668000E176E0F0EEC
:104AB8000C18D8B410D00D0E0C18D8B40CD0180E91
:104AC8000C18D8B408D0160E0C18D8B404D0410E5F
:104AD8000C18D8A40AD0010E176E20EE05F00E505F
:104AE800D9260F50DA22DF501A6EAA0E0B6EBB0EB3
:104AF8000A6E14EC4FF0000EAFEC4EF01450AFEC11
:104B08004EF00C50AFEC4EF00D50AFEC4EF0000EE6
:104B18001B6E0AD01B500E24D96E000E0F20DA6EC1
:104B2800DF50AFEC4EF01B2A0D501B5CD8A0F2D71B
:104B3800D50EE82EFED700F07690000E196E000E06
:104B4800186EE40E00D000D0E82EFCD700D000D0BC
:104B580076A03BD0150E106EC60EE82EFED7102E8E
:104B6800FCD700D01750D8B405D025EEB9F01AC03C
:104B7800DFFF03D0020EE8CFB9F5000E1B6E0FD091
:104B8800BA0E1B24D96EDA6A050EDA221B500E24DF
:104B9800E16E000E0F20E26EDFCFE7FF1B2A25EE45
:104BA800B9F0DE501B5CD8A0EBD7BBC510F0105095
:104BB800BAC511F011C012F0136A12C013F0126ACC
:104BC8001210156E1350166E0AD0184A192A19BEFB
:104BD800B8D7900E185C010E1958D8A0B2D776B085
:104BE80025D0020EE8CFB9F5FF0EE8CFBAF5FF0ED3
:104BF800E8CFBBF5156816681750D8B417D025EE5E
:104C0800B9F01AC0DFFF000E1B6E09D0BA0E1B24C4
:104C1800D96EDA6A050EDA22FF0EDF6E1B2A1B50E8
:104C28001ABE04D0FF0A1A24D8B0F0D7769015C05F
:104C38000CF016C00DF01200000E136EB30E126EBB
:104C4800E60E146E010E156E040E166EA3EC36F009
:104C5800E8C128F0296A2A6A2B6A2AC02BF029C0E1
:104C68002AF028C029F0286AE7C12CF02D6A2E6A9C
:104C78002F6A2DC02FF02CC02EF02D6A2C6AE6C1A9
:104C880030F0316A326A336A30C033F0326A316ADE
:104C9800306A2C503024346E2D503120356E2E5011
:104CA8003220366E2F503320376E28503424386E19
:104CB80029503520396E2A5036203A6E2B5037202D
:104CC8003B6E0101E95138243C6E000E39203D6EDF
:104CD800000E3A203E6E000E3B203F6E3C503D10C9
:104CE8003E103F10D8B412006D513C186DE16E5162
:104CF8003D186AE16F513E1867E170513F18D8A41A
:104D08001200000E1B6EB30E1A6E000E1C6E000E03
:104D18001D6E000E1E6E000E1F6E78EC49F0000E20
:104D28001D6EB20E1C6EE5EC4DF01C041D10D8A4CF
:104D38001ED0000E0101B26F000E0001F16F0101DB
:104D48008F699069000E1C6EB20E1B6E000E1E6EEF
:104D5800000E1D6E6BEC4EF0000E1C6E9A0E1B6E54
:104D6800000E1E6E000E1D6E6BEC4EF029D0000E6C
:104D78001D6EB20E1C6EE5EC4DF01C501D10D8A433
:104D88001FD0010E0101B26F010E0001F16F000E7C
:104D98000101906F0A0E8F6F000E1C6EB20E1B6E13
:104DA800000E1E6E010E1D6E6BEC4EF0000E1C6E9A
:104DB8009A0E1B6E000E1E6E010E1D6E6BEC4EF0F1
:104DC800DEEC4EF051EC49F012002C6E000E2D6E08
:104DD8002D50110D000EF324156E040EF420166EDE
:104DE8002D50F7EC38F02D2A090E2D64F1D7000E5E
:104DF800326EA00E286E020E296E2C50A00DF3CF35
:104E08002AF0F4CF2BF03250100DF3502A26F4502C
:104E18002B2228502A2629502B222AC02EF02BC0BC
:104E28002FF0000E2FBEFF0E306E316E2EC01FF019
:104E38002FC020F030C021F031C022F03250110DC7
:104E4800010EF324D96E040EF420DA6EDECF23F0BF
:104E5800DDCF24F0000EE6EC4CF0020E2E241F6E7F
:104E6800000E2F20206E000E3020216E000E312003
:104E7800226E3250110D030EF324D96E040EF42065
:104E8800DA6EDF50236E000EF7EC4DF0030E2E2481
:104E98001F6E000E2F20206E000E3020216E000E97
:104EA8003120226E3250110D040EF324D96E040EF7
:104EB800F420DA6EDF50236E000EF7EC4DF0040E8E
:104EC8002E241F6E000E2F20206E000E3020216E23
:104ED800000E3120226E3250110D050EF324D96ECA
:104EE800040EF420DA6EDF50236E000EF7EC4DF05E
:104EF800050E2E240D6E000E2F200E6E000E302093
:104F08000F6E000E3120106E3250110D060EF32474
:104F1800116E040EF420126E000E1AEC35F00F0E0E
:104F28002E241F6E000E2F20206E000E3020216EC2
:104F3800000E3120226E3250110D0F0EF324D96E5F
:104F4800040EF420DA6EDF50236E000EF7EC4DF0FD
:104F5800322A090E32644DD71200186E000E196EEF
:104F6800135005E1020E125CD8B0120001D01200F5
:104F7800135003E11204D8A002D0080E01D0000E8D
:104F8800196E18C01AF0D8901A36A00E1A121A8084
:104F980019501A12A2EC4EF01AC016F0FE0E161690
:104FA80016500B6E0C6AF0EC4EF011C00BF00C6A48
:104FB800F0EC4EF010C00BF00C6AF0EC4EF0FFEC89
:104FC8004EF01AC00BF00C6AF0EC4EF0000E176EA3
:104FD800135079E1020E125CD8B075D010C016F0EB
:104FE800010E16267F0E1616D8A44CD0000E0C6E95
:104FF800000E0B6E8EEC47F00B5014C0D9FF15C095
:10500800DAFFDF6E0DEC4FF0340E166EF20EE82E5E
:10501800FED7162EFCD7010E1026000E11221222E2
:105028001322144A152A135003E11204D8A002D0FF
:10503800080E01D0000E196E18C01AF0D8901A3652
:10504800A00E1A121A8019501A12A2EC4EF01AC0A9
:1050580016F0FE0E161616500B6E0C6AF0EC4EF09B
:1050680011C00BF00C6AF0EC4EF010C00BF00C6A9B
:10507800F0EC4EF0FFEC4EF01AC00BF00C6AF0ECBE
:105088004EF01BD0000E0C6E010E0B6E8EEC47F02E
:105098000B5014C0D9FF15C0DAFFDF6E14C0D9FF5A
:1050A80015C0DAFFDF50D8B40ED0144A152A010E05
:1050B8001026000E112212221322172A1704166E28
:1050C8003F0E166485D7000E0C6E000E0B6E8EEC2C
:1050D80047F00DEC4FF0070E166EC00EE82EFED707
:1050E800162EFCD712005A0E0B6EA50E0A6E14EC83
:1050F8004FF0030EAFEC4EF0810EAFEC4EF0200EE9
:10510800AFEC4EF0070EAFEC4EF09C0E1D6ED70EB6
:10511800E82EFED71D2EFCD700F0B5EC4AF00009AA
:10512800D8B416D0000E3B6E3B50060F1D6E1E6A9B
:10513800B40E1D24D96E050E1E20DA6E3B501F0FCB
:10514800E16EE26ADFCFE7FF3B2A090E3B64ECD74A
:10515800290E096E1F5087EC4CF02C0E096E20505A
:1051680087EC4CF02F0E096E215087EC4CF01BC0D9
:105178000DF00E6A980E0F6EFC0E106E0FEC48F0D4
:105188001BC017F0186A2F0E196E1A6A89EC4DF0B9
:105198001BC017F0186AFC0E196EFF0E1A6E89EC08
:1051A8004DF01BC017F0186A2C0E196E1A6A89EC9C
:1051B8004DF01BC017F0186AFC0E196EFF0E1A6E20
:1051C80089EC4DF01BC017F0186A290E196E1A6A7F
:1051D80089EC4DF0320E096E235087EC4CF0350EF9
:1051E800096E245087EC4CF0380E096E255087EC78
:1051F8004CF01CC00DF00E6A980E0F6EFC0E106E6F
:105208000FEC48F01CC017F0186A320E196E1A6AB3
:1052180089EC4DF01CC017F0186AF20E196EFF0EDB
:105228001A6E89EC4DF01CC017F0186A350E196E0D
:105238001A6A89EC4DF01CC017F0186AF20E196E44
:10524800FF0E1A6E89EC4DF01CC017F0186A380E64
:10525800196E1A6A89EC4DF0010E096E000E0A6E7D
:10526800000E0B6E000E0C6EC4EC49F012001C6EA2
:10527800000E0101A66F050EA56F105005E1020E84
:105288000F5CD8B0120001D01200105003E10F04D7
:10529800D8A002D0080E01D0000E1D6E1CC01EF052
:1052A800D8901E36A00E1E121D501E12A2EC4EF0F3
:1052B8001EC00BF00C6AF0EC4EF00EC00BF00C6A3E
:1052C800F0EC4EF00DC00BF00C6AF0EC4EF0000E56
:1052D8001B6E63D0105005E1020E0F5CD8B01200AF
:1052E80001D012000DC014F0010E14267F0E141602
:1052F800D8A43FD012C0D9FF13C0DAFFDF50146E14
:1053080014500B6E0C6AF0EC4EF00DEC4FF0340EAE
:10531800146EF20EE82EFED7142EFCD7010E0D26C1
:10532800000E0E220F221022124A132A105003E1F7
:105338000F04D8A002D0080E01D0000E1D6E1CC0AC
:105348001EF0D8901E36A00E1E121D501E12A2EC82
:105358004EF01EC00BF00C6AF0EC4EF00EC00BF0D5
:105368000C6AF0EC4EF00DC00BF00C6AF0EC4EF04D
:1053780013D012C0D9FF13C0DAFFDF50146E1450D7
:105388000B6E0C6AF0EC4EF0124A132A010E0D2631
:10539800000E0E220F2210221B2AFF0E146EFF0E83
:1053A800156E1150166E176A1450162615501722CE
:1053B8001B50186E196A1650185C1950800A1A6E1C
:1053C8001750800A1A58D8A085D712C0D9FF13C021
:1053D800DAFFDF50146E14500B6E0C6AF0EC4EF0CE
:1053E8000DEC4FF0340E146EF20EE82EFED7142E8C
:1053F800FCD71200186E000E196E000E0101A66F80
:10540800050EA56F135005E1020E125CD8B012000C
:1054180001D01200135003E11204D8A002D0080EE4
:1054280001D0000E196E18C01AF0D8901A36A00EC6
:105438001A121A8019501A12A2EC4EF01AC016F05D
:10544800FE0E161616500B6E0C6AF0EC4EF011C0DC
:105458000BF00C6AF0EC4EF010C00BF00C6AF0EC9C
:105468004EF0FFEC4EF01AC00BF00C6AF0EC4EF068
:10547800000E176E6BD013506DE1020E125CD8B09F
:1054880069D010C016F0010E16267F0E1616D8A485
:105498004AD01550D96EDA6A000E0C6E000E0B6EEB
:1054A8008EEC47F00B50DF6E0DEC4FF0340E166E9D
:1054B800F20EE82EFED7162EFCD7010E1026000E8F
:1054C800112212221322152A135003E11204D8A024
:1054D80002D0080E01D0000E196E18C01AF0D8902C
:1054E8001A36A00E1A121A8019501A12A2EC4EF08F
:1054F8001AC016F0FE0E161616500B6E0C6AF0EC5B
:105508004EF011C00BF00C6AF0EC4EF010C00BF02E
:105518000C6AF0EC4EF0FFEC4EF01AC00BF00C6A7F
:10552800F0EC4EF012D01550D96EDA6A000E0C6EFF
:10553800010E0B6E8EEC47F00B50DF6E152A010E34
:105548001026000E112212221322172A1450175C5B
:10555800D8A091D7000E0C6E000E0B6E8EEC47F0A3
:105568000DEC4FF0070E166EC00EE82EFED7162E65
:10557800FCD71200296E2950010B256E25C023F097
:1055880029500C0DF3CF21F0F4CF22F0E60E2124A0
:10559800266E000E2220276E030E29641200040EC8
:1055A800295E2950120DF350340F286E2950010B33
:1055B800256E25C023F029500C0DF3CF21F0F4CF30
:1055C80022F0E60E2124266E000E2220276E26C029
:1055D8001BF027C01CF028C009F00A6A83EC4BF0C6
:1055E800216E010E21241D6E1E6A000E1E226BEC18
:1055F8004EF0020E26241B6E000E27201C6E010E94
:1056080028240D6E0E6A000E0E222DEC4BF00DC0F4
:105618001DF00EC01EF06BEC4EF0030E26241B6E20
:10562800000E27201C6E030E2824096E0A6A000E3D
:105638000A2283EC4BF0216E21501D6E1E6A6BEC22
:105648004EF0040E26241B6E000E27201C6E040E3E
:105658002824096E0A6A000E0A2283EC4BF0216E98
:1056680021501D6E1E6A6BEC4EF0050E26241B6E33
:10567800000E27201C6E050E2824096E0A6A000EEB
:105688000A2283EC4BF0216E21501D6E1E6A6BECD2
:105698004EF0060E28240D6E0E6A000E0E22B30E72
:1056A8000F6E020E106EBAEC4BF0060E26241A6E20
:1056B800000E27201B6EB30E1C6E020E1D6E76ECBC
:1056C8004DF00B0E26241B6E000E27201C6E100EAC
:1056D80028240D6E0E6A000E0E222DEC4BF00DC024
:1056E8001DF00EC01EF06BEC4EF01200000E0E6E98
:1056F800FA0E0D6E2DEC4BF00DC0EEF00EC0EFF073
:10570800000E1C6ED60E1B6EEEC01DF0EFC01EF014
:105718006BEC4EF0320E0001EE19EF11D8A42AD02E
:10572800F80E0101386F000E376F050E3A6FA00EA4
:10573800396F000E3C6F1F0E3B6F000E3E6F000E60
:105748003D6FD50E406F400E3F6FF80E426F1F0E33
:10575800416FFB0E446FE00E436F45694669476928
:10576800486949694A694B694C694D694E694F698D
:1057780050691200500EEE19EF11D8A436D0000E61
:105788000101386F000E376F390E3A6FE70E396F27
:105798006B0E3C6F6D0E3B6F780E3E6F000E3D6FCB
:1057A8009A0E406F230E3F6FF80E426F000E416F46
:1057B800FB0E446FE00E436FFB0E466FF70E456F0E
:1057C800D50E486F400E476F030E4A6FE00E496FC3
:1057D800050E4C6FA00E4B6F000E4E6F1F0E4D6FD7
:1057E800F80E506F1F0E4F6F1200510EEE19EF1189
:1057F800D8A41AD0FB0E0101386FF70E376F050ECB
:105808003A6FA00E396F000E3C6F1F0E3B6FF80EFB
:105818003E6F000E3D6F000E406F000E3F6F4169F6
:1058280042694369446999D7010137693869396917
:105838003A693B693C693D693E693F69406941692C
:1058480042694369446945694669476948694969DC
:105858004A694B694C694D694E694F695069120034
:10586800000E1D6E040E1C6EE5EC4DF01C041D10A0
:10587800D8A43DD00001F2B73AD0000E226E040E33
:10588800216E000E236E8AEC3BF00009D8A404D0E8
:10589800460E1BEC4FF0120001018151895D8A51BF
:1058A800800A466E8251800A4658D8B01AD0000E37
:1058B8003E6E040E3D6EEE0E3F6E010E406E470EBC
:1058C800416EFD0E426E92EC34F00009D8B412001D
:1058D8000001F287010E3BEC4EF0010EE5EC47F0BB
:1058E8001200000E3BEC4EF09FEC4BF01200000E45
:1058F8001D6E040E1C6EE5EC4DF01C501D10D8A456
:105908002AD00001F2A727D0000E226E040E216EC5
:10591800010E236E8AEC3BF00009D8A404D0460E91
:105928001BEC4FF012000001F297000E3BEC4EF01A
:10593800000E0101EF6F000EEE6F000E1C6E060EDA
:105948001B6E000E1E6E000E1D6E6BEC4EF0010EEF
:105958000101B16F1200000E1D6E040E1C6EE5EC05
:105968004DF01C041D10D8A418D00001F2A715D0C2
:1059780001018151895D8A51800A466E8251800AEF
:105988004658D8B006D00001F389010E3BEC4EF022
:105998001200000E3BEC4EF0A7D7000E1D6E040E51
:1059A8001C6EE5EC4DF01C501D10D8A4120000012F
:1059B800F2B71200000E0101EF6F000EEE6F120039
:1059C800000E136E9B0E126EE60E146E010E156E0F
:1059D800040E166EA3EC36F0E8C124F0256A266A98
:1059E800276A26C027F025C026F024C025F0246A9F
:1059F800E7C128F0296A2A6A2B6A29C02BF028C037
:105A08002AF0296A286AE6C12CF02D6A2E6A2F6AC4
:105A18002CC02FF02E6A2D6A2C6A28502C24306E48
:105A280029502D20316E2A502E20326E2B502F20D7
:105A3800336E24503024346E25503120356E265074
:105A48003220366E27503320376E0101E951342455
:105A5800386E000E3520396E000E36203A6E000E74
:105A680037203B6E385039103A103B10D8B434D038
:105A78006D51381831E16E5139182EE16F513A18CD
:105A88002BE170513B18D8A427D0750E906F300EBB
:105A98008F6F010E0001F16F000E1C6E9A0E1B6EC7
:105AA800000E1E6E010E1D6E6BEC4EF0000E1C6E8D
:105AB8009B0E1B6E000E1E6E000E1D6E6BEC4EF0E4
:105AC800000E1C6E9C0E1B6E000E1E6E000E1D6ED0
:105AD8006BEC4EF051EC49F00001F105D8A412D05E
:105AE800010190AF0FD0000E0001F16F000E1C6E87
