:020000040000FA
:040000001AEF02F001
:100018007180D8CF04F0E8CF05F0E0CF06F0D9CF53
:1000280007F0DACF08F0F3CF09F0F4CF0AF09EAA70
:1000380020EF00F022EF00F0AFEF00F095988388F2
:100048006EB029EF00F02BEF00F033EF00F06E8078
:10005800A60E0001846F000E856F5AEF00F0000EA7
:100068000B6E0B504A0DAA0EF324D96E040EF42021
:10007800DA6EDF50D8A443EF00F045EF00F051EFFF
:1000880000F00B504A0DAA0EF3240001846F040EF1
:10009800F420856F6E805AEF00F00B2A050E0B6472
:1000A80058EF00F05AEF00F035EF00F0010E0001B4
:1000B800876F900E866F000E626E000E616EA369E8
:1000C80090EF00F09EAA6BEF00F06DEF00F08DEF5F
:1000D80000F08398838884C0D9FF85C0DAFFAECF4B
:1000E800DFFF62BE83EF00F0625007E1490E615CFA
:1000F800D8B081EF00F083EF00F087EF00F0614A9D
:10010800622A844B852B010E876F900E866F90EFC5
:1001180000F08607D8A0870786518711D8A497EFE3
:1001280000F099EF00F066EF00F08398ABA29FEF24
:1001380000F0A1EF00F0AFEF00F0AB98AB88AECFC6
:1001480086F0876BAECF86F0876BAECF86F0876B75
:10015800000EA66F6E829EA0B4EF00F0B6EF00F01E
:10016800D1EF01F09E903C0ECF6EB40ECE6E010E14
:100178000001A26F0101CBB1C4EF00F0C6EF00F09F
:10018800C9EF00F0000E0001A26F000E626E010EB2
:10019800616EE2EF00F0000E6124D96E020E62205B
:1001A800DA6EDF50D8A4DBEF00F0DDEF00F0E0EF0F
:1001B80000F0000E0001A26F614A622A6950016EC8
:1001C800026A6150015C0250800A036E6250800A24
:1001D8000358D8B0F2EF00F0F4EF00F0CFEF00F0E2
:1001E8000001A205D8A4FBEF00F0FDEF00F020EF1E
:1001F80001F004000101CB91000E626E010E616EE8
:1002080062BE10EF01F0625009E10F0E615CD8A0E8
:1002180010EF01F012EF01F014EF01F020EF01F000
:10022800000E6124D96E020E6220DA6E000EDF6EB7
:10023800614A622A04EF01F0F50E0101AC5D010E7E
:10024800AD59D8A02AEF01F02CEF01F02FEF01F003
:10025800819E30EF01F0818E00019E519F11D8B42C
:1002680038EF01F03AEF01F040EF01F0320E9E5FF7
:10027800000E9F5B45EF01F09CC09EF09DC09FF073
:100288006E8C320E0101BB27000EBC23320E00011A
:10029800A027000EA1230101C851D8A456EF01F0F0
:1002A80058EF01F064EF01F0000195BF5EEF01F037
:1002B80060EF01F064EF01F0CE0E9427FF0E952356
:1002C800320E00019227000E9323320E0101AC2753
:1002D800000EAD23E80EAC5D030EAD59D8A077EF44
:1002E80001F079EF01F0D1EF01F06DA87EEF01F098
:1002F80080EF01F0A1EF01F0CA2B3B0ECA6587EF32
:1003080001F089EF01F0A1EF01F0000ECA6F6C2A2D
:100318003B0E6C6492EF01F094EF01F0A1EF01F055
:10032800000E6C6E6B2A630E6B649DEF01F09FEFFD
:1003380001F0A1EF01F0000E6B6E000EAD6F000E24
:10034800AC6FAE2BC351D8B4ACEF01F0AEEF01F0F7
:10035800AFEF01F0C3073B0EAE65B5EF01F0B7EFA5
:1003680001F0D1EF01F0000EAE6FAF2B3B0EAF6581
:10037800C0EF01F0C2EF01F0D1EF01F0000EAF6F56
:10038800B02B170EB065CBEF01F0CDEF01F0D1EF38
:1003980001F0000EB06FD1EF01F0F2A2D6EF01F03C
:1003A800D8EF01F0D9EF01F0F292F2A4DEEF01F0FC
:1003B800E0EF01F00AEF02F00D0EE82EFED700F094
:1003C800000ED76EE10ED66EF2940101BF51C01136
:1003D800D8B4F1EF01F0F3EF01F0F9EF01F0BF0746
:1003E800D8A0C007818CFAEF01F0819CC151C211DD
:1003F800D8B401EF02F003EF02F009EF02F0C107F1
:10040800D8A0C207818A0AEF02F0819A0AC0F4FFD5
:1004180009C0F3FF08C0DAFF07C0D9FF06C0E0FF34
:1004280005C0E8FF04C0D8FF7190100054EF31F008
:10043800640E0C6E000E0D6E000E0E6E000E0F6E2A
:10044800C1EC3BF0D388D38AD38C9B8CEF0E926E91
:10045800010E936EF00E946EE30E956E9668D59A23
:10046800D596D582D582D584F194F28AF290F29805
:100478009E909F900B0ECF6EBA0ECE6ECD92CD8809
:10048800CD8ACD8CCD869D80CD80F28CF28E000EEB
:100498000101BE6F000EBD6F819E000EC06F000E81
:1004A800BF6F819C000EC26F000EC16F819A000E53
:1004B800196EC20E1A6E010E1B6E000E1C6EC3EC76
:1004C80036F019EC41F0A00E196E860E1A6E010E68
:1004D8001B6E000E1C6E93EC3BF0F40E0C6E010EBE
:1004E8000D6E000E0E6E000E0F6EC1EC3BF0000E8E
:1004F8000D6E100E0C6ECCEC3DF06D6E6D50D8A4E8
:1005080088EF02F08AEF02F092EF02F086EC3DF0FD
:10051800000E1C6E000E1B6ED1EC40F0000E116E2A
:10052800220E106E17EC3FF010C08BF111C08CF149
:1005380001018B2906E18C29D8A4A5EF02F0A7EFC9
:1005480002F0BBEF02F0000E2C6E220E2B6E000E96
:100558002E6E000E2D6E43EC40F0000E2C6EE80E51
:100568002B6E000E2E6E000E2D6E43EC40F0010136
:100578008B4B8C2B000E2C6E220E2B6E8BC12DF00C
:100588008CC12EF043EC40F00101CC99F29E83948B
:1005980083888A688398000E8A6EF28E000E0D6E2C
:1005A800340E0C6ECCEC3DF0FF0AD8A4DEEF02F05E
:1005B800E0EF02F02BEF03F0270E236EFD0E246E02
:1005C80012EC2CF00A0E346E000E08EC2DF01AEC2A
:1005D8003CF06BEC3AF08FEC39F0000E0101C86F7B
:1005E800000E6A6E10EC41F0000E266E100E256E9D
:1005F800000E276EE1EC37F0000E2C6E090E2B6E04
:10060800000E2E6E0A0E2D6E43EC40F0000E2C6E7E
:100618000B0E2B6E400E2D6EE20E2E6E010E2F6EFF
:10062800000E306E0DEC3EF0000ED6EC0AF0000E17
:10063800266E110E256E000E276EE1EC37F0000EC7
:10064800266E120E256E000E276EE1EC37F074EC64
:1006580032F0010ED6EC0AF02C0E0C6E010E0D6E67
:10066800000E0E6E000E0F6EC1EC3BF0D90E236E1D
:10067800FC0E246E12EC2CF02C0E0C6E010E0D6E7E
:10068800000E0E6E000E0F6EC1EC3BF02F0E236EA7
:10069800FE0E246E12EC2CF02C0E0C6E010E0D6E5C
:1006A800000E0E6E000E0F6EC1EC3BF0070E236EAF
:1006B800FD0E246E12EC2CF02C0E0C6E010E0D6E3D
:1006C800000E0E6E000E0F6EC1EC3BF0070E206E92
:1006D800C60E1F6E500E216E030E226EEEEC40F019
:1006E800B40E106E020E116EFF0E126EFE0E136E19
:1006F80064EC3BF0B40E1A6E020E1B6E500E1C6EAC
:10070800030E1D6E0AEC40F0B40E236E020E246E2A
:1007180012EC2CF02C0E0C6E010E0D6E000E0E6EEF
:10072800000E0F6EC1EC3BF0E1EC1CF0E80E0C6E15
:10073800030E0D6E000E0E6E000E0F6EC1EC3BF038
:10074800000E1E6E020E1D6E000E206E000E1F6E35
:10075800C0EC40F0000E1E6E030E1D6E000E206EE3
:10076800000E1F6EC0EC40F0000E1E6E040E1D6ED3
:10077800000E206E000E1F6EC0EC40F0000E1E6EC4
:10078800050E1D6E000E206E000E1F6EC0EC40F0B0
:100798006D906D946D966D92000ED1EC3AF06D509F
:1007A800D8B4D9EF03F0DBEF03F0F7EF03F0840ED2
:1007B800236EFD0E246E12EC2CF0350E236EFF0E08
:1007C800246E12EC2CF0980E0C6E3A0E0D6E000E84
:1007D8000E6E000E0F6EC1EC3BF0A70E236EFF0EDF
:1007E800246E12EC2CF0C40E236EFE0E246E12EC56
:1007F8002CF0000E0101906F0E0E906506EF04F0CC
:1008080008EF04F00AEF04F013EF04F0040001010C
:100818009051FEEC22F00101902B00EF04F0000E45
:10082800906F070E90651BEF04F01DEF04F01FEFAB
:1008380004F029EF04F0040090C125F0266A01ECC9
:100848002AF00101902B15EF04F0000E116E0B0E2B
:10085800106EEAEC3CF010C0B1F111C0B2F112C058
:10086800B3F113C0B4F156EC37F028EC15F0B5EC41
:1008780031F026EC27F04AEC3FF090EC30F0D8EC61
:1008880035F06D50D8A44BEF04F04DEF04F055EF60
:1008980004F0000E1C6E0F0E1B6ED1EC40F078EFCA
:1008A80004F0950E236EFE0E246E12EC2CF004005C
:1008B800E1EC34F0100E0C6E270E0D6E000E0E6E6D
:1008C800000E0F6EEEEC3BF0D5EC1DF0100E0C6E2A
:1008D800270E0D6E000E0E6E000E0F6EEEEC3BF046
:1008E80085EC26F04DEF04F0000E0101FF6F000EBD
:1008F800FE6F000EFD6F000EFC6F000EC96F000E3C
:10090800BC6F000EBB6F000EC56F000EB86F000EF7
:10091800B76F000EB66F000EB56F000EBA6F000EFF
:10092800B96F000E70EC3CF0000E0101AD6F000EC7
:10093800AC6F000EAE6F000E0D6E110E0C6ECCEC8F
:100948003DF06B6E000E0D6E120E0C6ECCEC3DF091
:100958006C6E000E0101CA6F6DC0C4F1000EC36F4A
:100968000101CB8116EC32F0E90E0101BB5D030EEB
:10097800BC59D8A0C2EF04F0C4EF04F0DFEF04F0D4
:10098800000EBC6F000EBB6F86EC35F01DC0FEF18B
:100998001EC0FFF10101FC51FE1909E1FD51FF19CB
:1009A800D8B4D9EF04F0DBEF04F0DFEF04F0FEC1B8
:1009B800FCF1FFC1FDF1AD5107E1020EAC5DD8B00D
:1009C800E8EF04F0EAEF04F0F7EF04F0190EFE196F
:1009D800FF11D8B4F2EF04F0F4EF04F0F7EF04F0ED
:1009E800000E70EC3CF06DA8FCEF04F0FEEF04F094
:1009F80000EF05F034EC3BF090EC30F0D8EC35F03B
:100A080036EC22F0A4EC1FF064EC38F0020E5E6EB7
:100A18004D0E5D6E740EE82EFED75D2EFCD75E2E51
:100A2800FAD700D0D5EC1DF0020E5E6E4D0E5D6E4D
:100A3800740EE82EFED75D2EFCD75E2EFAD700D0B6
:100A4800E1EC34F0020E5E6E4D0E5D6E740EE82E13
:100A5800FED75D2EFCD75E2EFAD700D085EC26F0A7
:100A6800020E5E6E4D0E5D6E740EE82EFED75D2E84
:100A7800FCD75E2EFAD700D00101C4516D18D8B446
:100A880048EF05F04AEF05F050EF05F038EC3DF07F
:100A980031EC3FF06DC0C4F10101CA51D8B457EF31
:100AA80005F059EF05F062EF05F01E0ECA19D8A43B
:100AB80060EF05F062EF05F06EEF05F0CCA367EF8D
:100AC80005F069EF05F06FEF05F0CC9343EC41F0CA
:100AD8006FEF05F0CC8392EC3FF028EC15F0DEECDC
:100AE80017F03AEF0AF0000E01018F6F090E8F65BB
:100AF80080EF05F082EF05F084EF05F0C3EF05F015
:100B0800070E8F251F6E206A000E202230EC40F061
:100B18001F042010D8A493EF05F095EF05F0BFEF60
:100B280005F0070E01018F251D6E1E6A000E1E229C
:100B3800000E206E000E1F6EC0EC40F08FC1C7F192
:100B4800050E0101C761ABEF05F0ADEF05F0B7EF9A
:100B580005F0130EC66F000E1C6E1B0E1B6ED1EC3B
:100B680040F0BFEF05F0150EC66F000E1C6E1C0E90
:100B78001B6ED1EC40F001018F2B7AEF05F097EC5A
:100B880016F074EF0AF0000E206E010E1F6E30ECA6
:100B980040F01F042010D8A4D4EF05F0D6EF05F0DC
:100BA80074EF0AF0000E1E6E010E1D6E000E206E10
:100BB800000E1F6EC0EC40F094EC2BF074EF0AF0BE
:100BC8000101C951D8A4EBEF05F0EDEF05F0F2EF04
:100BD80005F0010E70EC3CF00101C92B000E206EEF
:100BE800980E1F6E30EC40F01F042010D8A4FFEFC1
:100BF80005F001EF06F00EEF06F0000E1E6E980EDF
:100C08001D6E000E206E000E1F6EC0EC40F0010E2F
:100C180070EC3CF0000E206EAE0E1F6E30EC40F013
:100C28001F042010D8A41BEF06F01DEF06F074EF88
:100C38000AF0000E1E6EAE0E1D6E000E206E000E27
:100C48001F6EC0EC40F09EEC3AF074EF0AF0000E14
:100C5800686E070E686433EF06F035EF06F037EF7D
:100C680006F069EF06F0200E68241F6E206A000E59
:100C7800202230EC40F01F042010D8A446EF06F0E4
:100C880048EF06F066EF06F0200E68241D6E1E6A17
:100C9800000E1E22000E206E000E1F6EC0EC40F0EB
:100CA800C6C11BF01C6AD1EC40F0EB0E1A6E010EA7
:100CB8001B6E6850BDEC2FF0010E256E0101C75167
:100CC80052EC2FF0682A2DEF06F0000E206E110E60
:100CD8001F6E30EC40F01F042010D8A476EF06F009
:100CE80078EF06F087EF06F0000E1E6E110E1D6EEF
:100CF800000E206E000E1F6EC0EC40F0C6C11BF047
:100D08001C6AD1EC40F0000E206E120E1F6E30EC03
:100D180040F01F042010D8A494EF06F096EF06F0D8
:100D280074EF0AF0000E1E6E120E1D6E000E206E7D
:100D3800000E1F6EC0EC40F0000E0101F16FF20EC4
:100D4800106E010E116E830E126EFD0E136E64ECA2
:100D58003BF0000E0101F06F000EEF6F000EEE6F1A
:100D6800000EED6F000EEC6F000EEB6F000E256E9F
:100D7800C75152EC2FF0C6C11BF01C6AD1EC40F0F1
:100D880074EF0AF0000E206EAF0E1F6E30EC40F0CC
:100D98001F042010D8A4D3EF06F0D5EF06F074EFA7
:100DA8000AF0000E1E6EAF0E1D6E000E206E000EB5
:100DB8001F6EC0EC40F011EC3DF074EF0AF0100E1D
:100DC8000101B1195D6E2F0EB2195E6EBA0EB3191C
:100DD8005F6EE40EB419606E5D1C856F5E1C866FD5
:100DE8005F1C876F601C886F85C119F086C11AF077
:100DF80087C11BF088C11CF0B40E1D6E020E1E6E5A
:100E0800000E206E100E1F6EC4EC27F0060E1E6E2C
:100E18007C0E1D6EB40E1F6E020E206E1DEC40F08F
:100E2800F40E0C6E010E0D6E000E0E6E000E0F6E9F
:100E3800DFEC38F0010E206E820E1F6E30EC40F0B1
:100E48001F042010D8A42BEF07F02DEF07F074EF44
:100E58000AF0010E1E6E820E1D6E000E206E000E30
:100E68001F6EC0EC40F0DDEC11F074EF0AF00101E8
:100E7800CC87030E706E100E6F6E70BE4DEF07F0CC
:100E88001D0E6F5C030E7058D8A04DEF07F04FEFA2
:100E980007F051EF07F000EF0AF06F50F00F676EA0
:100EA8006FC01FF070C020F030EC40F00E0E1F181D
:100EB8002010D8A462EF07F064EF07F00FEF09F0F5
:100EC8006A50D8B46AEF07F06CEF07F0FFEF08F04C
:100ED800320E65186610D8A474EF07F076EF07F0A5
:100EE80079EF07F067C063F0646A500E6518661002
:100EF800D8A481EF07F083EF07F089EF07F0A2ECA1
:100F080038F05D6E5D50636E646A64BE97EF07F0FB
:100F1800645007E1080E635CD8B095EF07F097EFCF
:100F280007F0C4EF08F0100E67241D6E1E6A030E4A
:100F38001E22010E67241F6E206A000E2022C0ECBC
:100F480040F063C015F064C016F0000E186E0A0E6B
:100F5800176E56EC40F0FD0E15241D6E060E162079
:100F68001E6E010E63C05DF064C05EF05DC05EF091
:100F78005D6A5D101F6E5E50206EC0EC40F063C06D
:100F880015F064C016F0000E186E0A0E176E56ECB7
:100F980040F0FB0E15241D6E060E16201E6E6750BF
:100FA800020D920EF324D96E010EF420DA6EDECF14
:100FB8001FF0DDCF20F0C0EC40F0690E6324D96E3D
:100FC800020E6420DA6E63C0DFFF780E6324D96EE8
:100FD800020E6420DA6E6728DF6E870E6724D96EEA
:100FE800DA6A020EDA226728DF6E6750020D920E67
:100FF800F324D96E010EF420DA6ED8906334E16ED2
:101008006434E26E960EE126020EE222DECFE6FF9F
:10101800DDCFE5FF0F0E5D6E020E5E6E1E0E5D26C5
:10102800000E5E22D8906334D96E6434DA6ED8909C
:10103800D936DA365D50D9265E50DA22000EDE6ED9
:10104800000EDE6E800EDE6E3F0EDD6E020E6764F1
:1010580030EF08F032EF08F03BEF08F0010E67249C
:101068000101896F8A6B000E8A233FEF08F067C081
:1010780089F101018A6B89C15DF08AC15EF0D8905F
:101088005D365E36CD0E5F6E010E606E5D505F267A
:101098005E506022D8906334D96E6434DA6E0F0ED5
:1010A800D926020EDA225FC0DEFF60C0DDFF0F0E18
:1010B8005D6E020E5E6E1E0E5D26000E5E22D890DC
:1010C8006334D96E6434DA6ED890D936DA365D5026
:1010D800D9265E50DA22000EDE6E000EDE6E800E1D
:1010E800DE6E3F0EDD6E6750D8A47DEF08F07FEF0F
:1010F80008F09BEF08F00F0E5D6E020E5E6E1E0E7E
:101108005D26000E5E22D8906334D96E6434DA6EA0
:10111800D890D936DA365D50D9265E50DA22000EDC
:10112800DE6E000EDE6E800EDE6E3F0EDD6E670434
:10113800D8A4A1EF08F0A3EF08F0BFEF08F00F0E56
:101148005D6E020E5E6E1E0E5D26000E5E22D8904B
:101158006334D96E6434DA6ED890D936DA365D5095
:10116800D9265E50DA22000EDE6E000EDE6E800E8C
:10117800DE6E3F0EDD6E020ED6EC0AF0FCEF09F0D3
:1011880063C015F064C016F0000E186E0A0E176ED4
:1011980056EC40F0FD0E15241D6E060E16201E6E30
:1011A80063505E6E5D6A000E5D101F6E0A0E5E1063
:1011B800206EC0EC40F063C015F064C016F0000E5D
:1011C800186E0A0E176E56EC40F0FB0E15241D6EB5
:1011D800060E16201E6EFF0E206E1F68C0EC40F033
:1011E8006FC01DF070C01EF0FF0E206E1F68C0ECAF
:1011F80040F0FCEF09F0AFEC40F06FC01DF070C09C
:101208001EF0FF0E206E1F68C0EC40F0520E3EEC40
:1012180041F0FCEF09F06FC01FF070C020F030EC17
:1012280040F0205009E10F0E1F5CD8A01EEF09F016
:1012380020EF09F0FCEF09F06FC01FF070C020F03C
:1012480030EC40F0205007E11F0E1F5CD8B02FEFA4
:1012580009F031EF09F0FCEF09F06A50D8B437EF24
:1012680009F039EF09F0C1EF09F0780E0C6E020EA3
:101278000D6E67280E6E6CEC3EF00101916F780ED2
:101288006724D96EDA6A020EDA22DF505D6E5D04D9
:10129800846F6FC01DF070C01EF0FF0E206E1F68B7
:1012A800C0EC40F0010191510A0DF3CF5DF0F4CF8D
:1012B8005EF0FD0E5D241D6E060E5E201E6E0A0E8B
:1012C800206E000E1F6EC0EC40F0010191510A0D16
:1012D800F3CF5DF0F4CF5EF0FB0E5D241D6E060EBD
:1012E8005E201E6EFF0E206E1F68C0EC40F00101EC
:1012F8009151020D0F0EF324D96E020EF420DA6E0E
:10130800000EDE6E000EDD6E690E9125D96EDA6A6A
:10131800020EDA220A0EDF6E780E9125D96EDA6A8D
:10132800020EDA22FF0EDF6E870E6724D96EDA6AA4
:10133800020EDA22FF0EDF6E9151020D960EF32493
:10134800D96E020EF420DA6EFF0EDE6EFF0EDD6E31
:101358009151040D2D0EF324D96E020EF420DA6E8D
:10136800000EDE6E000EDE6E000EDE6E000EDD6E0E
:10137800020ED6EC0AF0FCEF09F0AFEC40F0520E8A
:101388003EEC41F0320E65186610D8A4CEEF09F095
:10139800D0EF09F0E1EF09F06FC01DF070C01EF04A
:1013A800780E6724D96EDA6A020EDA22DF505D6E93
:1013B8005D501F6E206AC0EC40F0500E6518661034
:1013C800D8A4E9EF09F0EBEF09F0FCEF09F06FC0E2
:1013D8001DF070C01EF0870E6724D96EDA6A020EFF
:1013E800DA22DF505D6E5D501F6E206AC0EC40F05F
:1013F8006F4A702A41EF07F00101CC9774EF0AF0A9
:101408009EEC40F0000E686E070E68640EEF0AF05E
:1014180010EF0AF012EF0AF074EF0AF0200E6824B9
:101428001F6E206A000E202230EC40F01F042010AE
:10143800D8A421EF0AF023EF0AF033EF0AF0200EC8
:1014480068241D6E1E6A000E1E22000E206E000EFD
:101458001F6EC0EC40F029EC36F074EF0AF0682AF1
:1014680008EF0AF0F7EC0FF074EF0AF0FEC15DF038
:10147800FFC15EF05E50000AD8B445EF0AF074EF81
:101488000AF05D50130AD8B477EF05F0060AD8B40D
:1014980077EF05F0020AD8B4C7EF05F00E0AD8B402
:1014A800E4EF05F0020AD8B42BEF06F0070AD8B427
:1014B8002BEF06F0010AD8B4C6EF06F0020AD8B43A
:1014C800E3EF06F03C0AD8B43BEF07F00C0AD8B4B7
:1014D80004EF0AF01E0AD8B436EF0AF074EF0AF0E7
:1014E800030E5E6E080E5D6E770EE82EFED75D2E3B
:1014F800FCD75E2EFAD700F0CD0E69EC40F0CD0E89
:1015080069EC40F0CD0E69EC40F0CD0E69EC40F08E
:10151800CD0E69EC40F0000E01018E6F000E8D6F4C
:10152800F40E8D5D010E8E59D8A09DEF0AF09FEF45
:101538000AF0A1EF0AF0C0EF0AF06EA0A6EF0AF0D9
:10154800A8EF0AF0AAEF0AF0C0EF0AF00B0E5D6EE2
:10155800620EE82EFED75D2EFCD700D001018D4B20
:101568008E2BF40E8D5D010E8E59D8A0BEEF0AF0B9
:10157800C0EF0AF0A1EF0AF06EA0C5EF0AF0C7EFBE
:101588000AF0C9EF0AF0F8EC2DF06EA0CEEF0AF0E1
:10159800D0EF0AF0B4EF04F08FEC2CF0B4EF04F0C5
:1015A8001AEF02F0376E26EC27F0C8EF0DF0000EA8
:1015B8003F6E3F50020D960EF324D96E020EF420B2
:1015C800DA6EFF0EDE6EFF0EDD6E690E3F24D96EF9
:1015D800DA6A020EDA220A0EDF6E780E3F24D96E1E
:1015E800DA6A020EDA22FF0EDF6E870E3F24D96E0A
:1015F800DA6A020EDA22FF0EDF6E3F50020D0F0E7E
:10160800F324D96E020EF420DA6E000EDE6E000EA0
:10161800DD6E3F50040D2D0EF324D96E020EF4201A
:10162800DA6E000EDE6E000EDE6E000EDE6E000E4E
:10163800DD6E130E3F24256E266A000E2622870EC5
:101648003F24D96EDA6A020EDA22DF50276EE1EC07
:1016580037F0EA0E3F24256E266A000E2622780E01
:101668003F24D96EDA6A020EDA22DF50276EE1ECE7
:1016780037F0240E3F24256E266A000E2622690EB6
:101688003F24D96EDA6A020EDA22DF50276EE1ECC7
:1016980037F0100E3F241D6E1E6A030E1E22FF0E29
:1016A800206E1F68C0EC40F03F500A0DF3CF31F0B8
:1016B800F4CF32F0FD0E31241D6E060E32201E6E60
:1016C8000A0E206E000E1F6EC0EC40F03F500A0D4F
:1016D800F3CF31F0F4CF32F0FB0E31241D6E060E3D
:1016E80032201E6EFF0E206E1F68C0EC40F03F2AAD
:1016F8000C0E3F6482EF0BF084EF0BF0DDEF0AF085
:10170800E1EF0DF0000E116E130E106E870E126EC3
:10171800020E136E0F0E146E8AEC3EF0000E116E60
:10172800EA0E106E780E126E020E136E0F0E146E05
:101738008AEC3EF0000E116E240E106E690E126EC9
:10174800020E136E0F0E146E8AEC3EF0000E3F6E02
:10175800870E3F24D96EDA6A020EDA22DF503A6E1B
:101768003A28D8B4BAEF0BF0BCEF0BF0C9EF0BF086
:10177800100E3F241D6E1E6A030E1E223AC01FF073
:10178800206AC0EC40F0D4EF0BF0100E3F241D6E21
:101798001E6A030E1E22FF0E206E1F68C0EC40F06A
:1017A8003F2A0C0E3F64DBEF0BF0DDEF0BF0ACEFE4
:1017B8000BF0000E3F6E690E3F24D96EDA6A020EF6
:1017C800DA22080EDF60EBEF0BF0EDEF0BF005EF20
:1017D8000CF0780E3F24D96EDA6A020EDA22DF5056
:1017E800316E326AD89031363236900E3124D96E45
:1017F800010E3220DA6EDECF3CF0DDCF3DF007EF90
:101808000CF03C683D683F500A0DF3CF31F0F4CF3F
:1018180032F0FB0E31241D6E060E32201E6E3CC0C7
:101828001FF03DC020F0C0EC40F03F50020D960E76
:10183800F324D96E020EF420DA6E3CC0DEFF3DC000
:10184800DDFF3F2A0C0E3F642CEF0CF02EEF0CF05E
:10185800DFEF0BF0000E3F6E690E3F24D96EDA6A97
:10186800020EDA22DF503B6E080E3B603EEF0CF0B2
:1018780040EF0CF05BEF0CF03F500A0DF3CF31F066
:10188800F4CF32F0FD0E31241D6E060E32201E6E8E
:10189800010E3BC033F0346A33C034F0336A33107E
:1018A8001F6E3450206EC0EC40F06DEF0CF03F50CE
:1018B8000A0DF3CF31F0F4CF32F0FD0E31241D6E56
:1018C800060E32201E6E0A0E206E000E1F6EC0EC31
:1018D80040F03F2A0C0E3F6474EF0CF076EF0CF0EA
:1018E80030EF0CF0000E3E6E690E3E24D96EDA6AB7
:1018F800020EDA220A0EDE18D8B485EF0CF087EF54
:101908000CF063EF0DF0FF0E316EFF0E326E690EB4
:101918003E24D96EDA6A020EDA22DF50336E346A58
:10192800780E3324D96E020E3420DA6EDF50356E0D
:10193800366A315035263250362236BEADEF0CF0BD
:10194800365009E1030E355CD8A0ADEF0CF0AFEFCF
:101958000CF0C5EF0CF0690E3E24D96EDA6A020E5F
:10196800DA22DF50316E326A780E3124D96E020ED7
:101978003220DA6EDF50336E3350386E396ADCEF5E
:101988000CF0690E3E24D96EDA6A020EDA22DF50B4
:10199800316E326A780E3124D96E020E3220DA6E38
:1019A800DF50336EFF0E3324386E396AFF0E39224A
:1019B80038C031F039C032F0D89031363236CD0ED9
:1019C800336E010E346E3150332632503422690E94
:1019D8003E24D96EDA6A020EDA22DF50356E3550AF
:1019E800020D0F0EF324D96E020EF420DA6E33C006
:1019F800DEFF34C0DDFF690E3E24D96EDA6A020EBE
:101A0800DA22DF50316E3150040D2D0EF324D96ED9
:101A1800020EF420DA6E000EDE6E000EDE6E800E10
:101A2800DE6E3F0EDD6E690E3E24D96EDA6A020E56
:101A3800DA22DF50D8A423EF0DF025EF0DF03DEFAB
:101A48000DF0690E3E24D96EDA6A020EDA22DF50F2
:101A5800316E3150040D2D0EF324D96E020EF42090
:101A6800DA6E000EDE6E000EDE6E800EDE6E3F0E4B
:101A7800DD6E690E3E24D96EDA6A020EDA22DE04C1
:101A8800D8A449EF0DF04BEF0DF063EF0DF0690EA0
:101A98003E24D96EDA6A020EDA22DF50316E3150F6
:101AA800040D2D0EF324D96E020EF420DA6E000E0A
:101AB800DE6E000EDE6E800EDE6E3F0EDD6E3E2A9E
:101AC800070E3E646AEF0DF06CEF0DF078EF0CF046
:101AD800E1EF0DF0000E3F6E100E3F241F6E206ADE
:101AE800030E202230EC40F0870E3F24D96EDA6ACC
:101AF800020EDA221FC0DFFF3F500A0DF3CF31F08C
:101B0800F4CF32F0FD0E31241F6E060E3220206E07
:101B180030EC40F020C01FF0206A690E3F24D96ED7
:101B2800DA6A020EDA221FC0DFFF3F2A0D0E3F6479
:101B3800A0EF0DF0A2EF0DF070EF0DF0000E2C6E7F
:101B4800130E2B6E870E2D6E020E2E6E0F0E2F6E3D
:101B58004DEC3EF0000E2C6EEA0E2B6E780E2D6EBC
:101B6800020E2E6E0F0E2F6E4DEC3EF0000E2C6EF8
:101B7800240E2B6E690E2D6E020E2E6E0F0E2F6E1A
:101B88004DEC3EF0E1EF0DF03750316E326A3250D5
:101B9800000AD8B4D2EF0DF0E1EF0DF03150000A91
:101BA800D8B4DBEF0AF0010AD8B486EF0BF0030AC9
:101BB800D8B46EEF0DF0E1EF0DF012001D50800B60
:101BC800266E1D501D242C6E1CAEEDEF0DF0EFEFB0
:101BD8000DF0F0EF0DF02C802C50D8B4F6EF0DF08E
:101BE800F8EF0DF00BEF0EF02C28D8A4FEEF0DF057
:101BF80000EF0EF008EF0EF0000E1A6E000E1B6ECE
:101C0800000E1C6E000E1D6E1C8E13EF0EF0000EE3
:101C18001A6E000E1B6E000E1C6E000E1D6E2150FB
:101C2800800B261A21502124276E20AE1EEF0EF0BD
:101C380020EF0EF021EF0EF027802750D8B427EFC1
:101C48000EF029EF0EF03CEF0EF02728D8A42FEF66
:101C58000EF031EF0EF039EF0EF0000E1E6E000E92
:101C68001F6E000E206E000E216E208E44EF0EF0C7
:101C7800000E1E6E000E1F6E000E206E000E216EEE
:101C88002750D8B44AEF0EF04CEF0EF054EF0EF098
:101C98002C50D8A452EF0EF054EF0EF05EEF0EF079
:101CA800000E1A6E000E1B6E000E1C6E000E1D6ECE
:101CB800F6EF0FF020501A02F3CF31F0F4CF32F0E4
:101CC8003150286E296A2A6A2B6A32502D6E2E6A84
:101CD8002F6A306A1F501B02F3CF31F0F4CF32F075
:101CE80031502826000E29222A222B2232502D2656
:101CF800000E2E222F2230221E501C02F3CF31F06C
:101D0800F4CF32F031502826000E29222A222B2225
:101D180032502D26000E2E222F2230222AC02BF0E0
:101D280029C02AF028C029F0286A1E501B02F3CFC8
:101D380031F0F4CF32F03150282632502922000EEB
:101D48002A22000E2B221F501A02F3CF31F0F4CFB3
:101D580032F03150282632502922000E2A22000E55
:101D68002B222AC02BF029C02AF028C029F0286A83
:101D78001E501A02F3CF31F0F4CF32F0315028263A
:101D880032502922000E2A22000E2B2220501B023C
:101D9800F3CF31F0F4CF32F031502D2632502E22CD
:101DA800000E2F22000E30221F501C02F3CF31F0FC
:101DB800F4CF32F031502D2632502E22000E2F2231
:101DC800000E302220501C02F3CF31F0F4CF32F055
:101DD8003150226E3250236E246A256A24C025F0C1
:101DE80023C024F022C023F0226A22502D2623503B
:101DF8002E2224502F222550302228C022F029C01C
:101E080023F02AC024F02BC025F0190E11EF0FF093
:101E1800D8902532243223322232E82E0CEF0FF0EC
:101E280022502D2623502E2224502F222550302296
:101E38002AC02BF029C02AF028C029F0286A275088
:101E48002CC022F0236A2226000E2322820E22248E
:101E5800316EFF0E2320326E47EF0FF0D8902D36EB
:101E68002E362F3630362BAE3CEF0FF03EEF0FF00C
:101E78003FEF0FF02D80D890283629362A362B369A
:101E88003106D8A032062FAE4CEF0FF04EEF0FF010
:101E980032EF0FF0000E276E2BAE55EF0FF057EF15
:101EA8000FF07BEF0FF0FF0E2814226EFF0E29149F
:101EB800236EFF0E2A14246E7F0E2B14256E2250DB
:101EC800231024102510D8B46CEF0FF06EEF0FF02C
:101ED80072EF0FF0010E276E7BEF0FF02DA077EF5A
:101EE8000FF079EF0FF07BEF0FF06EEF0FF0275048
:101EF800D8B481EF0FF083EF0FF0A7EF0FF0010ECA
:101F08002D26000E2E222F22302230A08EEF0FF029
:101F180090EF0FF0A7EF0FF02DC022F02EC023F0A6
:101F28002FC024F030C025F0253425322432233246
:101F3800223222C02DF023C02EF024C02FF025C05D
:101F480030F0314A322A32BEB2EF0FF0325008E197
:101F58003128D8A0B2EF0FF0B4EF0FF0BEEF0FF0BA
:101F6800000E2D6E000E2E6E800E2F6E7F0E306EC0
:101F7800ECEF0FF032BECBEF0FF0325006E1310438
:101F8800D8B0C9EF0FF0CBEF0FF0D7EF0FF0000E7E
:101F98002D6E000E2E6E000E2F6E000E306E000E8F
:101FA800266EECEF0FF031C02CF0FF0E2D16FF0E51
:101FB8002E167F0E2F16000E30162CA0E6EF0FF00F
:101FC800E8EF0FF0E9EF0FF02F8ED8902C30306E3D
:101FD800265030122DC01AF02EC01BF02FC01CF056
:101FE80030C01DF01200010E206E860E1F6E30EC00
:101FF80040F01F042010D8A404EF10F006EF10F0F2
:102008008CEF10F0000E0101EC6F000EEB6F000E6C
:10201800EE6F000EED6F000EF06F000EEF6F000E0A
:10202800F16FF20E106E010E116E830E126EFD0E20
:10203800136E64EC3BF0EB0E2F6E010E306E6850A1
:102048002EEC33F068C025F0266A01EC2AF0010E68
:102058001E6E9A0E1D6E000E206E000E1F6EC0ECD6
:1020680040F0010E1E6E9B0E1D6E000E206E000EBF
:102078001F6EC0EC40F0010E1E6E9C0E1D6E000E11
:10208800206E000E1F6EC0EC40F0010E1E6E9D0EFD
:102098001D6E000E206E000E1F6EC0EC40F0010E8B
:1020A8001E6E9E0E1D6E830E1F6EFD0E206E1DECA5
:1020B80040F09EEC40F0010E1E6E860E1D6E000E66
:1020C800206E000E1F6EC0EC40F0600E3EEC41F03A
:1020D80038EC3DF0070E1E6E760E1D6EF90E1F6E63
:1020E800FD0E206E1DEC40F0DC0E0C6E050E0D6E24
:1020F800000E0E6E000E0F6EEEEC3BF0070E1E6E1D
:10210800760E1D6E830E1F6EFD0E206E1DEC40F0C8
:10211800010E206E870E1F6E30EC40F01F04201059
:10212800D8A499EF10F09BEF10F002EF11F0010E18
:10213800206E9A0E1F6E30EC40F01FC0EBF120C0ED
:10214800ECF1010E206E9B0E1F6E30EC40F01FC0AC
:10215800EDF120C0EEF1010E206E9C0E1F6E30ECEA
:1021680040F01FC0EFF120C0F0F1010E206E9D0E6F
:102178001F6E30EC40F01F500101F16F010E206E10
:102188009E0E1F6EF20E216E010E226EEEEC40F0D6
:10219800EB0E2F6E010E306E68502EEC33F09EEC75
:1021A80040F0010E1E6E870E1D6E000E206E000E92
:1021B8001F6EC0EC40F0510E3EEC41F038EC3DF0A3
:1021C800070E1E6E760E1D6EDD0E1F6EFD0E206E46
:1021D8001DEC40F0DC0E0C6E050E0D6E000E0E6E42
:1021E800000E0F6EEEEC3BF0070E1E6E760E1D6EA7
:1021F800830E1F6EFD0E206E1DEC40F0010E206E4A
:10220800880E1F6E30EC40F01F042010D8A40FEF8A
:1022180011F011EF11F0BDEF11F0070E1E6E760EE2
:102228001D6EC00E1F6EFD0E206E1DEC40F0EB0EF5
:102238001A6E010E1B6E6850BDEC2FF0070E1E6E55
:10224800760E1D6EA20E1F6EFD0E206E1DEC40F068
:10225800000E3D6E52EF11F03DC040F0EBC141F071
:10226800ECC142F0EDC143F0EFC144F0F1C145F0DB
:10227800460E106E000E116EF20E126E010E136EE7
:1022880064EC3BF0000E506E010E4F6E400E2F6E48
:10229800000E306E3D506CEC2EF03D2AFC0E366E72
:1022A800FF0E376E6950386E396AD890383639362D
:1022B80036503826375039223D503A6E3B6A3850EE
:1022C8003A5C3B50800A3C6E3950800A3C58D8A092
:1022D80070EF11F072EF11F030EF11F0070E1E6E73
:1022E800760E1D6EA50E1F6EFC0E206E1DEC40F0C6
:1022F800E9EC1BF0070E1E6E760E1D6E470E1F6E64
:10230800FD0E206E1DEC40F0000E3E6E3E50FEECC1
:1023180022F03E2A0E0E3E6494EF11F096EF11F073
:102328008AEF11F0000E3F6E3F5033EC25F03F2A44
:10233800090E3F64A2EF11F0A4EF11F098EF11F02D
:10234800010E1E6E880E1D6E000E206E000E1F6E92
:10235800C0EC40F0600E3EEC41F038EC3DF0070E6A
:102368001E6E760E1D6E830E1F6EFD0E206E1DEC0A
:1023780040F0010E206E890E1F6E30EC40F01F04F5
:102388002010D8A4CAEF11F0CCEF11F0DCEF11F057
:10239800010E1E6E890E1D6E000E206E000E1F6E41
:1023A800C0EC40F0000E1C6E2F0E1B6ED1EC40F0FE
:1023B8001200010E206E7E0E1F6EA8EC3FF01FC0AB
:1023C80033F020C034F021C035F022C036F011ECD3
:1023D8002BF0010E206E800E1F6EA8EC3FF01FC080
:1023E80033F020C034F021C035F022C036F011ECB3
:1023F8002BF0010E166E7C0E156E550E176E000E24
:10240800186E040E196EE0EC2EF057C03DF03E6ACF
:102418003F6A406A3FC040F03EC03FF03DC03EF0DA
:102428003D6A56C041F0426A436A446A42C044F079
:1024380041C043F0426A416A55C045F0466A476A5E
:10244800486A45C048F0476A466A456A415045248B
:10245800496E425046204A6E435047204B6E4450C6
:1024680048204C6E3D5049244D6E3E504A204E6ED9
:102478003F504B204F6E40504C20506E58504D24CA
:102488000101B16F000E4E20B26F000E4F20B36FE6
:10249800000E5020B46F010E166E7E0E156E550E8E
:1024A800176E000E186E040E196EE0EC2EF057C071
:1024B8003DF03E6A3F6A406A3FC040F03EC03FF090
:1024C8003DC03EF03D6A56C041F0426A436A446AE4
:1024D80042C044F041C043F0426A416A55C045F0E9
:1024E800466A476A486A45C048F0476A466A456A84
:1024F80041504524496E425046204A6E4350472079
:102508004B6E445048204C6E3D5049244D6E3E5011
:102518004A204E6E3F504B204F6E40504C20506E1C
:1025280058504D24596E000E4E205A6E000E4F2002
:102538005B6E000E50205C6E010E166E800E156EDE
:10254800550E176E000E186E040E196EE0EC2EF084
:1025580057C03DF03E6A3F6A406A3FC040F03EC007
:102568003FF03DC03EF03D6A56C041F0426A436AC2
:10257800446A42C044F041C043F0426A416A55C0CF
:1025880045F0466A476A486A45C048F0476A466A5D
:10259800456A41504524496E425046204A6E435090
:1025A80047204B6E445048204C6E3D5049244D6E98
:1025B8003E504A204E6E3F504B204F6E40504C20AC
:1025C800506E58504D24516E000E4E20526E000E23
:1025D8004F20536E000E5020546E0101B151B211BC
:1025E800B311B411D8B4FBEF12F0FDEF12F013EFF2
:1025F80013F059505A105B105C10D8B406EF13F062
:1026080008EF13F013EF13F05150521053105410F9
:10261800D8A411EF13F013EF13F018EF13F0230EF3
:102628003EEC41F092EF13F0000E116E0B0E106E9F
:10263800EAEC3CF00101B15110180DE1B25111184A
:102648000AE1B351121807E1B4511318D8A42FEFB7
:1026580013F031EF13F08FEF13F0515059180DE1CB
:1026680052505A180AE153505B1807E154505C184D
:10267800D8A441EF13F043EF13F08AEF13F0000EE4
:102688002C6E0B0E2B6E59C02DF05AC02EF05BC06D
:102698002FF05CC030F00DEC3EF059C0B1F15AC0DB
:1026A800B2F15BC0B3F15CC0B4F110EC41F0010EC3
:1026B8001E6E7C0E1D6E000E1F6E000E206E000E2C
:1026C800216E000E226E03EC3BF0010E1E6E7E0E94
:1026D8001D6E000E1F6E000E206E000E216E000E85
:1026E800226E03EC3BF0010E1E6E800E1D6E000E76
:1026F8001F6E000E206E000E216E000E226E03EC7F
:102708003BF0220E3EEC41F092EF13F0210E3EEC2E
:1027180041F092EF13F0200E3EEC41F0120007C397
:102728003DF008C33CF009C33BF00AC33AF0D9EFC7
:1027380014F006C325F0266A07C327F0E1EC37F04A
:10274800030E7BEC3FF020EC41F027EF15F006C3B9
:102758000CF00D6ACCEC3DF0386E010E7BEC3FF0CE
:10276800385069EC40F027EF15F006C333F00851F4
:1027780007C32FF0306A2FC030F02F6A2F10316E48
:102788003050326E33C02BF02C6A31C02DF032C07D
:102798002EF043EC40F0030E7BEC3FF0A7EF13F074
:1027A80006C310F0116A17EC3FF010C036F011C0E4
:1027B80037F0020E7BEC3FF036C00DF037C00EF05C
:1027C80027EC41F027EF15F006C32BF02C6A070E13
:1027D8002D6E030E2E6E5FEC3DF0030E7BEC3FF08A
:1027E800A7EF13F006C310F0116AB40E126E020EB2
:1027F800136E2DEC3EF04A0E7BEC3FF0B40E0D6EDE
:10280800020E0E6E0EEC37F027EF15F03AC022F0EC
:102818003BC023F03CC024F03DC025F00B0E266ED3
:10282800030E276E0651E4EC3FF0030E7BEC3FF0FD
:10283800A7EF13F03AC026F03BC027F03CC028F0C1
:102848003DC029F0065163EC3FF0386E010E7BEC79
:102858003FF0385069EC40F027EF15F00BC334F027
:102868000CC335F03AC022F03BC023F03CC024F042
:102878003DC025F0340E266E000E276E0651D1ECB1
:102888003FF0030E7BEC3FF0A7EF13F03AC026F0C1
:102898003BC027F03CC028F03DC029F00651E0ECD1
:1028A8003EF026C036F027C037F0020E7BEC3FF032
:1028B800E0EF13F00BC339F03AC012F03BC013F04D
:1028C8003CC014F03DC015F039C016F0500E176E1C
:1028D800030E186E0651F6EC19F039507BEC3FF0F8
:1028E800500E0D6E030E0E6E39C00FF0C4EC3EF0A4
:1028F80027EF15F03AC00FF03BC010F03CC011F0C4
:102908003DC012F00BC313F00C0E146E030E156EBF
:102918000651F1EC1AF0030E7BEC3FF0A7EF13F031
:102928003AC00FF03BC010F03CC011F03DC012F0AF
:102938000B0E136E030E146E0651C5EC23F0030E36
:102948007BEC3FF0A7EF13F03AC012F03BC013F056
:102958003CC014F03DC015F0B40E166E020E176E92
:102968000651EEEC18F0B40E0C6E020E0D6E9AECD9
:102978003CF00C507BEC3FF002EF14F007C322F060
:10298800065123EC38F0030E7BEC3FF0A7EF13F071
:1029980006512F6E07511B6E2FC01CF0FCEC3EF049
:1029A800030E7BEC3FF0A7EF13F0030104512F6EE9
:1029B800306A3050000AD8B4E4EF14F027EF15F06D
:1029C8002F50080AD8B49DEF13F0010AD8B4ABEF22
:1029D80013F0030AD8B4B9EF13F0010AD8B4D4EF4E
:1029E80013F0070AD8B4E8EF13F0010AD8B4F6EFE9
:1029F80013F01C0AD8B40AEF14F0030AD8B41EEF77
:102A080014F0010AD8B432EF14F0070AD8B44AEF28
:102A180014F0010AD8B494EF14F0030AD8B4A8EF5C
:102A280014F0010AD8B47EEF14F00F0AD8B45EEFA0
:102A380014F0010AD8B4C2EF14F0380AD8B4CCEFB5
:102A480014F027EF15F01200000E326E5CEF15F04F
:102A580032C00CF00D6A000E0F6E020E0E6EF2EC14
:102A680030F00C282E6E3250010B316E31C029F037
:102A78001A0E0C6E010E0D6E290E0E6E000E0F6EE4
:102A88002E5081EC20F03250020DCD0EF324D96E79
:102A9800010EF420DA6E0CC0DEFF0DC0DDFF000E63
:102AA8002E24D96EDA6A020EDA22010EDF6E322A7D
:102AB8006950020D3250256E266AF350255C265067
:102AC800800A276EF450800A2758D8A06EEF15F0B8
:102AD80070EF15F02CEF15F0320E0C6E000E0D6E27
:102AE800000E0E6E000E0F6EEEEC3BF00101CC876F
:102AF800000E326E80EF16F0000E1E6E990E1D6EDF
:102B08003250020DCD0EF324D96E010EF420DA6E88
:102B1800DECF1FF0DDCF20F0C0EC40F03250020DC8
:102B2800CD0EF324D96E010EF420DA6EDECFB5F1A6
:102B3800DDCFB6F17FEF16F0000E1E6E970E1D6EFC
:102B48003250020DCD0EF324D96E010EF420DA6E48
:102B5800DECF1FF0DDCF20F0C0EC40F03250020D88
:102B6800CD0EF324D96E010EF420DA6EDECFB7F164
:102B7800DDCFB8F17FEF16F0000E1E6E960E1D6EBB
:102B88003250020DCD0EF324D96E010EF420DA6E08
:102B9800DECF1FF0DDCF20F0C0EC40F03250020D48
:102BA800CD0EF324D96E010EF420DA6EDECFB9F122
:102BB800DDCFBAF17FEF16F03250FC0F316E315095
:102BC8000C0DF3CF25F0F4CF26F0E60E25242C6E5D
:102BD800000E26202D6E900E31242F6E306A010EC5
:102BE8003022010E2C241D6E000E2D201E6E315039
:102BF800256E266AD89025362636D50E2524D96E18
:102C0800010E2620DA6EDECF1FF0DDCF20F0C0ECFB
:102C180040F03150256E266AD89025362636D50ED6
:102C28002524D96E010E2620DA6E010EDBAE26EFC2
:102C380016F0700EDE5CFE0EDE58D8B026EF16F0E9
:102C480028EF16F034EF16F02FC01DF030C01EF03C
:102C5800000E206E010E1F6EC0EC40F07FEF16F0E4
:102C68003150256E266AD89025362636D50E25246D
:102C7800D96E010E2620DA6EDE2806E1DE28D8A4F9
:102C880048EF16F04AEF16F056EF16F02FC01DF079
:102C980030C01EF0000E206E000E1F6EC0EC40F01B
:102CA8007FEF16F02FC01DF030C01EF0000E206E12
:102CB800030E1F6EC0EC40F07FEF16F03250256E09
:102CC800266A2650000AD8B46CEF16F0E0EF15F02B
:102CD8002550000AD8B480EF15F0010AD8B4A0EF47
:102CE80015F0030AD8B4C0EF15F0010AD8B47FEF85
:102CF80016F0E0EF15F0322A6950020D3250256EB9
:102D0800266AF350255C2650800A276EF450800A04
:102D18002758D8A092EF16F094EF16F062EF16F04D
:102D28000101CC971200000E206EA80E1F6E30EC29
:102D380040F01F042010D8A4A4EF16F0A6EF16F058
:102D4800CFEF16F0000E1E6EA80E1D6E000E206E40
:102D5800000E1F6EC0EC40F06A50D8B4B6EF16F003
:102D6800B8EF16F0CAEF16F0000E4A6E4A50FEECA5
:102D780022F04A2A0E0E4A64C4EF16F0C6EF16F087
:102D8800BAEF16F038EC3DF0CFEF16F0520E3EECED
:102D980041F0AFEC40F0000E206EA70E1F6E30EC35
:102DA80040F01F042010D8A4DCEF16F0DEEF16F078
:102DB80023EF17F0000E1E6EA70E1D6E000E206E7C
:102DC800000E1F6EC0EC40F06A50D8B4EEEF16F05B
:102DD800F0EF16F01EEF17F0630E216EFE0E226E56
:102DE800070E246ED00E236E000E256E010E266E81
:102DF8008DEC34F0000E4B6E4B5057EC28F04B2AFC
:102E0800090E4B640AEF17F00CEF17F000EF17F0FC
:102E18009C0E216EFF0E226E070E246ED00E236EBE
:102E2800010E256E000E266E8DEC34F038EC3DF068
:102E380023EF17F0520E3EEC41F0AFEC40F0000EDD
:102E4800206EA60E1F6E30EC40F01F042010D8A490
:102E580030EF17F032EF17F06BEF17F0000E1E6E21
:102E6800A60E1D6E000E206E000E1F6EC0EC40F008
:102E78006A50D8B442EF17F044EF17F066EF17F036
:102E8800D80E216EFE0E226E070E246ED00E236E13
:102E9800000E256E010E266E8DEC34F0E9EC1BF069
:102EA8009C0E216EFF0E226E070E246ED00E236E2E
:102EB800010E256E000E266E8DEC34F038EC3DF0D8
:102EC8006BEF17F0520E3EEC41F0AFEC40F0000E05
:102ED800206EA90E1F6E30EC40F01F042010D8A4FD
:102EE80078EF17F07AEF17F0DDEF17F0000E1E6E8F
:102EF800A90E1D6E000E206E000E1F6EC0EC40F075
:102F08006A50D8B48AEF17F08CEF17F0D8EF17F0A3
:102F1800B20E216EFF0E226E070E246ED00E236EA7
:102F2800000E256E010E266E8DEC34F0130E010195
:102F3800FE19FF11D8A4A3EF17F0A5EF17F0A7EF1C
:102F480017F0000E496E150EFE19FF11D8A4AFEF49
:102F580017F0B1EF17F0B3EF17F0050E496E050E35
:102F6800346E495008EC2DF0000E4C6E4C50FEECBF
:102F780022F04C2A0E0E4C64C4EF17F0C6EF17F07F
:102F8800BAEF17F038EC3DF0C70E216EFF0E226E37
:102F9800070E246ED00E236E010E256E000E266ECF
:102FA8008DEC34F0DDEF17F0520E3EEC41F0AFEC53
:102FB80040F0120086EC3DF0140E236EFE0E246ED7
:102FC80012EC2CF0230E236EFF0E246E12EC2CF064
:102FD800000E206EAA0E1F6E30EC40F01F04201069
:102FE800D8A4F9EF17F0FBEF17F0EDEF18F0000E8B
:102FF8001E6EAA0E1D6E000E206E000E1F6EC0EC17
:1030080040F0000E1C6E000E1B6ED1EC40F0000E5E
:10301800116E220E106E17EC3FF010C04BF011C06D
:103028004CF04BC01BF04CC01CF0500E1D6E030E34
:103038001E6E000E206E0A0E1F6EDFEC25F0B40E19
:10304800106E020E116E910E126EFF0E136E64EC6E
:103058003BF0B40E1A6E020E1B6E500E1C6E030E61
:103068001D6E0AEC40F0B40E236E020E246E12ECB4
:103078002CF0010E4A6EA6EF18F0B40E106E020E78
:10308800116EE90E126EFF0E136E64EC3BF04AC02F
:103098001BF01C6A500E1D6E030E1E6E000E206E75
:1030A8000A0E1F6EDFEC25F0B40E1A6E020E1B6EB0
:1030B800500E1C6E030E1D6E0AEC40F0500E106E82
:1030C800030E116E980E126EFF0E136E64EC3BF039
:1030D800B40E1A6E020E1B6E500E1C6E030E1D6E81
:1030E8000AEC40F0100E476E0B0E0F6E010E106EBC
:1030F800470E116E000E126E4A5074EC29F00FC084
:103108004BF010C04CF04BC01BF04CC01CF0500EE4
:103118001D6E030E1E6E000E206E0A0E1F6EDFEC73
:1031280025F0B40E1A6E020E1B6E500E1C6E030EA6
:103138001D6E0AEC40F0B40E236E020E246E12ECE3
:103148002CF04A2A4A50695CD8B0ADEF18F0AFEFBE
:1031580018F041EF18F0EC0E236EFE0E246E12EC00
:103168002CF0000E116EE80E106E17EC3FF010C038
:103178004BF011C04CF04BC01BF04CC01CF0B40E0F
:103188001D6E020E1E6E000E206E0A0E1F6EDFEC04
:1031980025F0B40E1A6E020E1B6EBD0E1C6EFF0ECD
:1031A8001D6E0AEC40F0B40E236E020E246E12EC73
:1031B8002CF0980E0C6E3A0E0D6E000E0E6E000E70
:1031C8000F6EC1EC3BF0000E1C6E0F0E1B6ED1ECA7
:1031D80040F01200216E000E226E155009E1020E19
:1031E800145CD8A0FAEF18F0FCEF18F0FEEF18F016
:1031F800F5EF19F0155008E11404D8A006EF19F0FE
:1032080008EF19F00CEF19F0080E226E0EEF19F006
:10321800000E226E21C023F0D8902336A00E231270
:1032280023802250231206EC41F023C018F0FE0E32
:10323800181618500D6E0E6A34EC41F013C00DF0DC
:103248000E6A34EC41F012C00DF00E6A34EC41F015
:1032580048EC41F023C00DF00E6A34EC41F0000E4A
:10326800206E155009E1020E145CD8A03EEF19F04B
:1032780040EF19F042EF19F0E6EF19F0010E1224B1
:10328800186E000E1320196E000E14201A6E000E10
:1032980015201B6E7F0E18141C6E000E19141D6E5F
:1032A800000E1A141E6E000E1B141F6E1C501D10EB
:1032B8001E101F10D8A463EF19F065EF19F0B9EFCD
:1032C80019F0000E0E6E000E0D6EA9EC3DF00D50BB
:1032D80016C0D9FF17C0DAFFDF6E39EC41F0340EA3
:1032E800186EF20EE82EFED7182EFCD7010E122605
:1032F800000E132214221522164A172A155008E127
:103308001404D8A08AEF19F08CEF19F090EF19F097
:10331800080E226E92EF19F0000E226E21C023F0E3
:10332800D8902336A00E231223802250231206ECB5
:1033380041F023C018F0FE0E181618500D6E0E6AD4
:1033480034EC41F013C00DF00E6A34EC41F012C0B9
:103358000DF00E6A34EC41F048EC41F023C00DF05A
:103368000E6A34EC41F0DBEF19F0000E0E6E010E20
:103378000D6EA9EC3DF00D5016C0D9FF17C0DAFF4D
:10338800DF6E16C0D9FF17C0DAFFDF50D8A4CFEF21
:1033980019F0D1EF19F0D3EF19F0E6EF19F0164A4A
:1033A800172A010E1226000E132214221522202A93
:1033B8002004186E3F0E1864E4EF19F0E6EF19F0D8
:1033C80035EF19F0000E0E6E000E0D6EA9EC3DF0F3
:1033D80039EC41F0070E186EC00EE82EFED7182EF5
:1033E800FCD71200236E000E246E155009E1020E60
:1033F800145CD8A002EF1AF004EF1AF006EF1AF0E6
:10340800F0EF1AF0155008E11404D8A00EEF1AF0E6
:1034180010EF1AF014EF1AF0080E246E16EF1AF0D7
:10342800000E246E23C025F0D8902536A00E251254
:1034380025802450251206EC41F025C019F0FE0E17
:10344800191619500D6E0E6A34EC41F013C00DF0C8
:103458000E6A34EC41F012C00DF00E6A34EC41F003
:1034680048EC41F025C00DF00E6A34EC41F0000E36
:10347800226ED8EF1AF0155009E1020E145CD8A09C
:1034880048EF1AF04AEF1AF04CEF1AF0E1EF1AF091
:10349800010E1224196E000E13201A6E000E14204D
:1034A8001B6E000E15201C6E7F0E19141D6E000E6B
:1034B8001A141E6E000E1B141F6E000E1C14206EB4
:1034C8001D501E101F102010D8A46DEF1AF06FEFBA
:1034D8001AF0C3EF1AF0000E0E6E000E0D6EA9EC76
:1034E8003DF00D5017C0D9FF18C0DAFFDF6E39EC78
:1034F80041F0340E196EF20EE82EFED7192EFCD7C5
:10350800010E1226000E132214221522174A182A19
:10351800155008E11404D8A094EF1AF096EF1AF0A9
:103528009AEF1AF0080E246E9CEF1AF0000E246E23
:1035380023C025F0D8902536A00E251225802450CA
:10354800251206EC41F025C019F0FE0E1916195087
:103558000D6E0E6A34EC41F013C00DF00E6A34ECB7
:1035680041F012C00DF00E6A34EC41F048EC41F025
:1035780025C00DF00E6A34EC41F0D7EF1AF0000EBA
:103588000E6E010E0D6EA9EC3DF00D5017C0D9FF5F
:1035980018C0DAFFDF6E174A182A010E1226000E2D
:1035A800132214221522222A1650225CD8A0DFEFFB
:1035B8001AF0E1EF1AF03FEF1AF0000E0E6E000E4F
:1035C8000D6EA9EC3DF039EC41F0070E196EC00EF6
:1035D800E82EFED7192EFCD712001F6E125009E1F3
:1035E800020E115CD8A0FBEF1AF0FDEF1AF0FFEF06
:1035F8001AF0E8EF1BF0125008E11104D8A007EF09
:103608001BF009EF1BF00DEF1BF0080E206E0FEFFB
:103618001BF0000E206E1FC021F0D8902136A00E9E
:1036280021122050211206EC41F021C00DF00E6A43
:1036380034EC41F010C00DF00E6A34EC41F00FC0CC
:103648000DF00E6A34EC41F0000E1E6EB7EF1BF061
:10365800125009E1020E115CD8A035EF1BF037EFCC
:103668001BF039EF1BF0E8EF1BF0010E0F24166E6C
:10367800000E1020176E000E1120186E000E12207A
:10368800196E7F0E16141A6E000E17141B6E000E9C
:1036980018141C6E000E19141D6E1A501B101C10E5
:1036A8001D10D8A45AEF1BF05CEF1BF0A3EF1BF022
:1036B80014C0D9FF15C0DAFFDF50166E16500D6E14
:1036C8000E6A34EC41F039EC41F0340E166EF20E0D
:1036D800E82EFED7162EFCD7010E0F26000E10225C
:1036E80011221222144A152A125008E11104D8A0F6
:1036F80080EF1BF082EF1BF086EF1BF0080E206EA8
:1037080088EF1BF0000E206E1FC021F0D8902136E4
:10371800A00E21122050211206EC41F021C00DF01C
:103728000E6A34EC41F010C00DF00E6A34EC41F032
:103738000FC00DF00E6A34EC41F0B6EF1BF014C068
:10374800D9FF15C0DAFFDF50166E16500D6E0E6ADF
:1037580034EC41F0144A152A010E0F26000E1022EF
:10376800112212221E2AFF0E166EFF0E176E13501C
:10377800186E196A16501826175019221E501A6EFC
:103788001B6A18501A5C1B50800A1C6E1950800A5C
:103798001C58D8A0D2EF1BF0D4EF1BF02CEF1BF075
:1037A80014C0D9FF15C0DAFFDF50166E16500D6E23
:1037B8000E6A34EC41F039EC41F0070E166EC00E7B
:1037C800E82EFED7162EFCD71200040E206E20C05D
:1037D8000CF00D6A000E0F6E020E0E6EF2EC30F059
:1037E8000C28246E2050010B256E2050120DF3502A
:1037F800EC0F1F6E010E1F24106E116A000E1122AD
:1038080017EC3FF010C01DF011C01EF02550070D39
:10381800F3CF21F01EC022F01DC023F00A0E0F6E58
:10382800030E106E210E116E000E126E245074ECF1
:1038380029F0070E1C6E170E1B6E6A0EE82EFED7B7
:103848001B2EFCD71C2EFAD700D02550070DF3509D
:10385800020F216E030E1F240C6E0D6A000E0D223E
:10386800CCEC3DF0226E080E0F6E020E106E210E8B
:10387800116E000E126E245074EC29F0070E1C6EA7
:10388800170E1B6E6A0EE82EFED71B2EFCD71C2EB9
:10389800FAD700D02550070DF350030F216E040E00
:1038A8001F240C6E0D6A000E0D22CCEC3DF0226E2A
:1038B800080E0F6E020E106E210E116E000E126EA3
:1038C800245074EC29F0070E1C6E170E1B6E6A0E3E
:1038D800E82EFED71B2EFCD71C2EFAD700D0255079
:1038E800070DF350040F216E050E1F240C6E0D6A90
:1038F800000E0D22CCEC3DF0226E080E0F6E020E6B
:10390800106E210E116E000E126E245074EC29F008
:10391800070E1C6E170E1B6E6A0EE82EFED71B2EA6
:10392800FCD71C2EFAD700D0100E1F24106E116A77
:10393800000E112217EC3FF010C01DF011C01EF050
:103948002550070DF350050F216E1EC022F01DC033
:1039580023F00A0E0F6E030E106E210E116E000E6C
:10396800126E245074EC29F0070E1C6E170E1B6E95
:103978006A0EE82EFED71B2EFCD71C2EFAD700D0D5
:103988002504D8A4CAEF1CF0CCEF1CF0D7EF1CF02C
:10399800010E0F6E000E106E210E116E000E126ECB
:1039A800245074EC29F0202A0E0E2064DEEF1CF05F
:1039B800E0EF1CF0EBEF1BF01200030E0F6E000E91
:1039C800106E500E116E030E126E4A5074EC29F0F0
:1039D800000E696EB40E106E020E116E830E126E1A
:1039E800FD0E136E64EC3BF0B40E1A6E020E1B6EE5
:1039F800110E1C6EFF0E1D6E0AEC40F0B40E1A6E0E
:103A0800020E1B6ED90E1C6EFF0E1D6E0AEC40F0E6
:103A1800B40E236E020E246E12EC2CF0010E4A6EC8
:103A2800640E0C6E000E0D6E000E0E6E000E0F6E04
:103A3800C1EC3BF016EC32F0030E0F6E000E106E68
:103A4800500E116E030E126E4A5074EC29F00FC01E
:103A580048F010C049F049C047F0482808E1492813
:103A6800D8B439EF1DF03BEF1DF09EEF1DF0692A29
:103A7800B40E106E020E116E830E126EFD0E136ED2
:103A880064EC3BF04AC01BF01C6AB40E1D6E020EBB
:103A98001E6E000E206E0A0E1F6EDFEC25F0B40EAF
:103AA8001A6E020E1B6EF50E1C6EFF0E1D6E0AECD2
:103AB80040F0B40E1A6E020E1B6E4750020DF40E43
:103AC800F324D96E000EF420DA6EDECF1CF0DDCFC1
:103AD8001DF00AEC40F0B40E1A6E020E1B6E820E38
:103AE8001C6EFD0E1D6E0AEC40F0500E106E030E9B
:103AF800116E820E126EFD0E136E64EC3BF02B0EEF
:103B08000F6E000E106E500E116E030E126E4A509C
:103B180074EC29F0B40E1A6E020E1B6E500E1C6E59
:103B2800030E1D6E0AEC40F0B40E236E020E246ED6
:103B380012EC2CF04A2A0E0E4A64A5EF1DF0A7EFEE
:103B48001DF014EF1DF06950D8A4ADEF1DF0AFEFD4
:103B58001DF0B7EF1DF04A0E236EFE0E246E12EC18
:103B68002CF0D4EF1DF069C01BF01C6AB40E1D6E5A
:103B7800020E1E6E000E206E0A0E1F6EDFEC25F080
:103B8800B40E1A6E020E1B6E7C0E1C6EFE0E1D6E9F
:103B98000AEC40F0B40E236E020E246E12EC2CF0E8
:103BA8001200000E206E040E1F6E30EC40F01F0451
:103BB8002010D8A4E2EF1DF0E4EF1DF00DEF1EF089
:103BC8006DB6E9EF1DF0EBEF1DF00DEF1EF06D8601
:103BD800000190510101B95DBA51800A316E0001AE
:103BE8009151800A3158D8B0FCEF1DF0FEEF1DF05E
:103BF80006EF1EF0010E7CEC40F0010ED1EC3AF01D
:103C0800BDEF1EF0000E7CEC40F0EDEC3DF0BDEF9A
:103C18001EF0000E206E040E1F6E30EC40F01F5098
:103C28002010D8A41AEF1EF01CEF1EF089EF1EF02A
:103C38006DA621EF1EF023EF1EF089EF1EF06D96A2
:103C4800000E7CEC40F0000E1E6E060E1D6E000E7F
:103C5800206E000E1F6EC0EC40F0420E3EEC41F0AC
:103C6800000E1E6E160E1D6E000E206E000E1F6ECC
:103C7800C0EC40F0000E336E000E326E010E0C6E7A
:103C8800000E0D6E000E0E6E000E0F6EEEEC3BF089
:103C9800000E206E060E1F6E30EC40F01F502010F4
:103CA800D8B459EF1EF05BEF1EF05DEF1EF06EEF1B
:103CB8001EF00400324A332A33BE6CEF1EF0100E99
:103CC800325C270E3358D8A06CEF1EF06EEF1EF052
:103CD80042EF1EF0000E206E060E1F6E30EC40F014
:103CE800F10E1F182010D8A47CEF1EF07EEF1EF0F6
:103CF800BDEF1EF0000ED1EC3AF0000E6B6E000E18
:103D08006C6E38EC3DF0BDEF1EF0000E206E040E18
:103D18001F6E30EC40F01F042010D8A496EF1EF060
:103D280098EF1EF0BDEF1EF06DA69DEF1EF09FEF01
:103D38001EF0BDEF1EF0000190510101B95DBA51AE
:103D4800800A316E00019151800A3158D8B0AFEF26
:103D58001EF0B1EF1EF0B8EF1EF0010E7CEC40F043
:103D68000101CC89BDEF1EF0000E7CEC40F009EF9C
:103D78001EF012005A0E0E6EA50E0D6E27EC41F0C5
:103D8800030E69EC40F0810E69EC40F0200E69ECFE
:103D980040F0070E69EC40F045EC3CF00009D8B45F
:103DA800D8EF1EF0DAEF1EF0F7EF1EF0000E406EAF
:103DB8004050060F226E236AA60E2224D96E000EEA
:103DC8002320DA6E240E4024E16EE26A000EE2221D
:103DD800DFCFE7FF402A090E4064F5EF1EF0F7EF4A
:103DE8001EF0DCEF1EF02E0E0C6E000E0D6E245031
:103DF800A8EC3EF0310E0C6E000E0D6E2550A8ECAE
:103E08003EF0340E0C6E000E0D6E2650A8EC3EF0FF
:103E18001EC010F01FC011F0830E126EFD0E136E3F
:103E280064EC3BF01EC01AF01FC01BF0340E1C6E71
:103E3800000E1D6E0AEC40F01EC01AF01FC01BF0E9
:103E4800FC0E1C6EFF0E1D6E0AEC40F01EC01AF030
:103E58001FC01BF0310E1C6E000E1D6E0AEC40F0E8
:103E68001EC01AF01FC01BF0FC0E1C6EFF0E1D6E4C
:103E78000AEC40F01EC01AF01FC01BF02E0E1C6E7C
:103E8800000E1D6E0AEC40F0370E0C6E000E0D6E23
:103E98002850A8EC3EF03A0E0C6E000E0D6E29501C
:103EA800A8EC3EF03D0E0C6E000E0D6E2A50A8ECEC
:103EB8003EF020C010F021C011F0830E126EFD0EEE
:103EC800136E64EC3BF020C01AF021C01BF0370ED3
:103ED8001C6E000E1D6E0AEC40F020C01AF021C0C6
:103EE8001BF0FD0E1C6EFE0E1D6E0AEC40F020C08D
:103EF8001AF021C01BF03A0E1C6E000E1D6E0AEC63
:103F080040F020C01AF021C01BF0FD0E1C6EFE0E02
:103F18001D6E0AEC40F020C01AF021C01BF03D0EC7
:103F28001C6E000E1D6E0AEC40F0010E0C6E000EA9
:103F38000D6E000E0E6E000E0F6EEEEC3BF01200D2
:103F4800000E166EB30E156EF00E176E000E186E7C
:103F5800040E196EE0EC2EF0F2C02BF02C6A2D6ADC
:103F68002E6A2DC02EF02CC02DF02BC02CF02B6A01
:103F7800F1C02FF0306A316A326A30C032F02FC097
:103F880031F0306A2F6AF0C033F0346A356A366A25
:103F980033C036F0356A346A336A2F503324376EAB
:103FA80030503420386E31503520396E325036203A
:103FB8003A6E2B5037243B6E2C5038203C6E2D50D7
:103FC80039203D6E2E503A203E6E0001F3513B24BD
:103FD8003F6E000E3C20406E000E3D20416E000EEC
:103FE8003E20426E3F50401041104210D8B4FFEFBF
:103FF8001FF001EF20F080EF20F00101B1513F18D0
:104008000DE1B25140180AE1B351411807E1B4512A
:104018004218D8A412EF20F014EF20F080EF20F01F
:10402800000E1E6EB30E1D6E000E1F6E000E206E6B
:10403800000E216E000E226E03EC3BF0000E206E87
:10404800B20E1F6E30EC40F01F042010D8A42FEFE2
:1040580020F031EF20F04FEF20F0000E0101C86F83
:10406800000E6A6E000194699569000E1E6EB20E0C
:104078001D6E000E206E000E1F6EC0EC40F0000E8C
:104088001E6E9A0E1D6E000E206E000E1F6EC0EC86
:1040980040F07CEF20F0000E206EB20E1F6E30EC68
:1040A80040F01F502010D8A45CEF20F05EEF20F005
:1040B8007CEF20F0010E0101C86F010E6A6E000E40
:1040C8000001956F0A0E946F000E1E6EB20E1D6EE3
:1040D800000E206E010E1F6EC0EC40F0000E1E6E2A
:1040E8009A0E1D6E000E206E010E1F6EC0EC40F081
:1040F80010EC41F038EC3DF01200126E2AEF21F07E
:104108000EC0D9FF0FC0DAFFDF50D8A48EEF20F021
:1041180090EF20F096EF20F0000E0D6E640E0C6EFE
:104128005BEF21F0000E0D6EC80E0C6E5BEF21F0F8
:104138000EC0D9FF0FC0DAFFDF50D8A4A6EF20F0D9
:10414800A8EF20F0AEEF20F0010E0D6E2C0E0C6ED5
:104158005BEF21F00C680D685BEF21F00EC0D9FF12
:104168000FC0DAFFDF50D8A4BCEF20F0BEEF20F07C
:10417800C4EF20F0010E0D6E900E0C6E5BEF21F077
:10418800010E0D6EF40E0C6E5BEF21F00EC0D9FF20
:104198000FC0DAFFDF50D8A4D4EF20F0D6EF20F01C
:1041A800DCEF20F0020E0D6E580E0C6E5BEF21F066
:1041B800020E0D6EBC0E0C6E5BEF21F00EC0D9FF27
:1041C8000FC0DAFFDF50D8A4ECEF20F0EEEF20F0BC
:1041D800F4EF20F0030E0D6E200E0C6E5BEF21F055
:1041E800030E0D6E840E0C6E5BEF21F00EC0D9FF2E
:1041F8000FC0DAFFDF50D8A404EF21F006EF21F05A
:104208000CEF21F0030E0D6EE80E0C6E5BEF21F043
:10421800040E0D6E4C0E0C6E5BEF21F00EC0D9FF34
:104228000FC0DAFFDF50D8A41CEF21F01EEF21F0F9
:1042380024EF21F0040E0D6EB00E0C6E5BEF21F032
:10424800050E0D6E140E0C6E5BEF21F01250106E01
:10425800116A1150000AD8B434EF21F057EF21F059
:104268001050000AD8B457EF21F0010AD8B484EFEF
:1042780020F0030AD8B49CEF20F0010AD8B4B2EFBA
:1042880020F0070AD8B4CAEF20F0010AD8B4E2EF48
:1042980020F0030AD8B4FAEF20F0010AD8B412EFDC
:1042A80021F057EF21F0000E0D6E000E0C6E12007B
:1042B800146E1450D8B463EF21F065EF21F087EF46
:1042C80021F00FBE6CEF21F06AEF21F087EF21F0AB
:1042D8000CC010F00DC011F00EC012F00FC013F09A
:1042E800101E111E121E131E102A000E1122122259
:1042F800132210C016F011C017F012C018F013C026
:1043080019F08FEF21F00CC016F00DC017F00EC099
:1043180018F00FC019F00C500D100E100F10D8A483
:1043280098EF21F09AEF21F0A4EF21F0000E0C6E27
:10433800000E0D6E000E0E6E000E0F6E35EF22F0A1
:10434800960E156EAEEF21F0152AD8901932183254
:1043580017321632000E1614106E000E1714116E56
:10436800000E1814126EFE0E1914136E1050111050
:1043780012101310D8A4C3EF21F0C5EF21F0A8EF55
:1043880021F0D3EF21F0152A010E1626000E172270
:1043980018221922D8901932183217321632000E04
:1043A8001614106E000E1714116E000E1814126EEB
:1043B800FF0E1914136E1050111012101310D8A4F8
:1043C800E8EF21F0EAEF21F0C7EF21F0F2EF21F05A
:1043D8001506D890163617361836193618BEF7EF60
:1043E80021F0F9EF21F001EF22F0020E1560FFEF46
:1043F80021F001EF22F0ECEF21F015B006EF22F0EA
:1044080008EF22F009EF22F0189ED890153215C057
:1044180010F0116A126A136A10C013F0126A116A56
:10442800106A105016121150171212501812135009
:1044380019121450D8B423EF22F025EF22F02DEFF3
:1044480022F00FBE2CEF22F02AEF22F02DEF22F0FF
:10445800198E16C00CF017C00DF018C00EF019C058
:104468000FF01200000E166E9B0E156EF00E176EF2
:10447800000E186E040E196EE0EC2EF0F2C028F053
:10448800296A2A6A2B6A2AC02BF029C02AF028C078
:1044980029F0286AF1C02CF02D6A2E6A2F6A2DC0E7
:1044A8002FF02CC02EF02D6A2C6AF0C030F0316A43
:1044B800326A336A30C033F0326A316A306A2C505B
:1044C8003024346E2D503120356E2E503220366E09
:1044D8002F503320376E28503424386E2950352019
:1044E800396E2A5036203A6E2B5037203B6E000129
:1044F800F35138243C6E000E39203D6E000E3A20F0
:104508003E6E000E3B203F6E3C503D103E103F106B
:10451800D8B491EF22F093EF22F0CDEF22F0010111
:10452800B1513C180DE1B2513D180AE1B3513E18A2
:1045380007E1B4513F18D8A4A4EF22F0A6EF22F067
:10454800CDEF22F0750E0001956F300E946F010EBD
:104558006A6E000E1E6E9A0E1D6E000E206E010E03
:104568001F6EC0EC40F0000E1E6E9B0E1D6E000EFE
:10457800206E000E1F6EC0EC40F0000E1E6E9C0EEA
:104588001D6E000E206E000E1F6EC0EC40F038EC61
:104598003DF06A04D8A4D3EF22F0D5EF22F0EBEF78
:1045A80022F0000195BFDDEF22F0DBEF22F0EBEF08
:1045B80022F0000E6A6E000E1E6E9A0E1D6E000E20
:1045C800206E000E1F6EC0EC40F0AFEC40F0FBEC2C
:1045D80040F05A0AD8A4F3EF22F0F5EF22F0FDEFED
:1045E80022F0750E0001956F300E946F000EE0EC0E
:1045F80040F01200306E3050010B2C6E2CC029F0A8
:1046080030C00CF00D6A000E0F6E020E0E6EF2EC4A
:1046180030F0030E306413EF23F015EF23F0C4EFEE
:1046280023F0040E305E3050120DF350340F2F6E0D
:104638003050010B2C6E2CC029F030C00CF00D6AE4
:10464800000E0F6E020E0E6EF2EC30F030500C0DB4
:10465800F3CF25F0F4CF26F0E60E25242D6E000EBC
:1046680026202E6E2DC01DF02EC01EF02FC00CF07F
:104678000D6ACCEC3DF0256E010E25241F6E206AD4
:10468800000E2022C0EC40F0020E2D241D6E000EFC
:104698002E201E6E010E2F24106E116A000E11229C
:1046A80017EC3FF010C01FF011C020F0C0EC40F034
:1046B800030E2D241D6E000E2E201E6E030E2F24B9
:1046C8000C6E0D6A000E0D22CCEC3DF0256E2550C7
:1046D8001F6E206AC0EC40F0040E2D241D6E000EE3
:1046E8002E201E6E040E2F240C6E0D6A000E0D2255
:1046F800CCEC3DF0256E25501F6E206AC0EC40F0D2
:10470800050E2D241D6E000E2E201E6E050E2F2464
:104718000C6E0D6A000E0D22CCEC3DF0256E255076
:104728001F6E206AC0EC40F0060E2F24106E116A2E
:10473800000E1122B40E126E020E136E2DEC3EF016
:10474800060E2D241D6E000E2E201E6EB40E1F6E3A
:10475800020E206E1DEC40F00B0E2D241D6E000E77
:104768002E201E6E100E2F24106E116A000E1122BC
:1047780017EC3FF010C01FF011C020F0C0EC40F063
:1047880012001D6E125009E1020E115CD8A0CFEF85
:1047980023F0D1EF23F0D3EF23F084EF24F012506D
:1047A80008E11104D8A0DBEF23F0DDEF23F0E1EFFF
:1047B80023F0080E1E6EE3EF23F0000E1E6E1DC0E0
:1047C8001FF0D8901F36A00E1F121E501F1206ECA5
:1047D80041F01FC00DF00E6A34EC41F010C00DF02E
:1047E8000E6A34EC41F00FC00DF00E6A34EC41F063
:1047F80069EF24F0125009E1020E115CD8A007EF0E
:1048080024F009EF24F00BEF24F084EF24F0010EDC
:104818000F24156E000E1020166E000E1120176E54
:10482800000E1220186E7F0E1514196E000E161445
:104838001A6E000E17141B6E000E18141C6E1950F9
:104848001A101B101C10D8A42CEF24F02EEF24F003
:1048580056EF24F013C0D9FF14C0DAFFDF50156EED
:1048680015500D6E0E6A34EC41F039EC41F0340EFF
:10487800156EF20EE82EFED7152EFCD7010E0F2668
:10488800000E102211221222134A142A125008E193
:104898001104D8A052EF24F054EF24F0E1EF23F0F4
:1048A800DDEF23F013C0D9FF14C0DAFFDF50156E17
:1048B80015500D6E0E6A34EC41F0134A142A010E9D
:1048C8000F26000E10221122122213C0D9FF14C085
:1048D800DAFFDF50D8A473EF24F075EF24F0FEEF71
:1048E80023F0000E0E6E000E0D6E34EC41F039EC24
:1048F80041F0070E156EC00EE82EFED7152EFCD718
:10490800120020EE06F01050D9261150DA22DF509E
:10491800146E20EE07F01050D9261150DA22DF501D
:10492800156E000E166E20EE03F01050D9261150A9
:10493800DA22DF50176E20EE04F01050D9261150FD
:10494800DA22DF50186E000E196E10C0D9FF11C0A0
:10495800DAFFDF501A6E20EE01F01050D926115000
:10496800DA22DF501B6E000E1C6E12C0D9FF13C076
:10497800DAFFDF501D6E20EE01F01250D9261350D9
:10498800DA22DF501E6E000E1F6E20EE03F012506A
:10499800D9261350DA22DF50206E20EE04F0125090
:1049A800D9261350DA22DF50216E000E226E20EE37
:1049B80006F01250D9261350DA22DF50236E20EE6B
:1049C80007F01250D9261350DA22DF50246E000E59
:1049D800256E5A0E0E6EA50E0D6E27EC41F00A0ECE
:1049E80069EC40F0800E69EC40F01F0E69EC40F075
:1049F8005A0E69EC40F0140E0C6E000E0D6EBDECF4
:104A08003FF069EC40F0170E0C6E000E0D6EBDEC19
:104A18003FF069EC40F01A0E0C6E000E0D6EBDEC06
:104A28003FF069EC40F0010E69EC40F01D0E0C6E91
:104A3800000E0D6EBDEC3FF069EC40F0200E0C6EE0
:104A4800000E0D6EBDEC3FF069EC40F0230E0C6ECD
:104A5800000E0D6EBDEC3FF069EC40F012002B6EBD
:104A68002B500C0DF3CF25F0F4CF26F0E60E2524BD
:104A78002C6E000E26202D6E2B50120DF350340F85
:104A88002E6E2B50010B2A6E2BC00CF00D6A000EF7
:104A98000F6E020E0E6EF2EC30F02AC027F02CC01A
:104AA8001DF02DC01EF02EC00CF00D6ACCEC3DF0B0
:104AB800256E25501F6E206AC0EC40F0020E2C2493
:104AC8001D6E000E2D201E6E010E2E24106E116A12
:104AD800000E112217EC3FF010C01FF011C020F09B
:104AE800C0EC40F0030E2C241D6E000E2D201E6E0F
:104AF800030E2E240C6E0D6A000E0D22CCEC3DF038
:104B0800256E25501F6E206AC0EC40F0040E2C2440
:104B18001D6E000E2D201E6E040E2E240C6E0D6AC6
:104B2800000E0D22CCEC3DF0256E25501F6E206A3C
:104B3800C0EC40F0050E2C241D6E000E2D201E6EBC
:104B4800050E2E240C6E0D6A000E0D22CCEC3DF0E5
:104B5800256E25501F6E206AC0EC40F0060E2E24EC
:104B6800106E116A000E1122B40E126E020E136E30
:104B78002DEC3EF0060E2C241D6E000E2D201E6E10
:104B8800B40E1F6E020E206E1DEC40F00B0E2C248E
:104B98001D6E000E2D201E6E100E2E24106E116A32
:104BA800000E112217EC3FF010C01FF011C020F0CA
:104BB800C0EC40F01200000E276E000E266E000EAC
:104BC800236E1B501C10D8A4ECEF25F0EEEF25F057
:104BD80000EF26F01DC0D9FF1EC0DAFF300EDF6ED1
:104BE800264A272A26501D24D96E27501E20DA6E01
:104BF800000EDF6E84EF26F01CBE07EF26F005EFEF
:104C080026F05BEF26F00A0E1F182010D8A40FEF2D
:104C180026F011EF26F05BEF26F0010E236E1B6CD9
:104C28001C1ED8B01C2A5BEF26F01BC00CF01CC061
:104C38000DF01FC00EF020C00FF088EC33F00CC050
:104C480024F00DC025F025BE35EF26F0255007E1EC
:104C58000A0E245CD8B033EF26F035EF26F03DEF8E
:104C680026F0300E2424216E000E2520226E43EFFC
:104C780026F0570E2424216E000E2520226E265081
:104C88001D24D96E27501E20DA6E21C0DFFF264A68
:104C9800272A1BC00CF01CC00DF01FC00EF020C04E
:104CA8000FF0F2EC30F00CC01BF00DC01CF01B50E4
:104CB8001C10D8A462EF26F064EF26F019EF26F056
:104CC8002350D8B46AEF26F06CEF26F076EF26F082
:104CD80026501D24D96E27501E20DA6E2D0EDF6E49
:104CE800264A272A26501D24D96E27501E20DA6E00
:104CF800000EDF6E1DC010F01EC011F077EC36F00C
:104D08001200000E206E050E1F6E30EC40F01F04DE
:104D18002010D8A492EF26F094EF26F0C2EF26F0E8
:104D28006DB299EF26F09BEF26F0C2EF26F0000156
:104D38008C510101B95DBA51800A266E00018D516E
:104D4800800A2658D8B0ABEF26F0ADEF26F0C2EFB8
:104D580026F08A510101B75DB851800A266E00011C
:104D68008B51800A2658D8B0BCEF26F0BEEF26F04B
:104D7800C2EF26F06D82010E37EC3AF0000E206E7D
:104D8800050E1F6E30EC40F01F502010D8A4CFEF56
:104D980026F0D1EF26F0E8EF26F06DA2D6EF26F048
:104DA800D8EF26F0E8EF26F0000E37EC3AF06D92D7
:104DB800070E1E6EB20E1D6E830E1F6EFD0E206E48
:104DC8001DEC40F025EF27F0000E206E050E1F6E3B
:104DD80030EC40F01F042010D8A4F5EF26F0F7EFD0
:104DE80026F025EF27F06DA2FCEF26F0FEEF26F067
:104DF80025EF27F00101B95100018C5D8D51800A22
:104E0800266E0101BA51800A2658D8A00EEF27F065
:104E180010EF27F021EF27F0B75100018A5D8B5181
:104E2800800A266E0101B851800A2658D8B01FEFB3
:104E380027F021EF27F025EF27F06D92000E37ECD1
:104E48003AF01200000E116EFA0E106E17EC3FF0D9
:104E580010C065F011C066F0000E1E6ED60E1D6EF5
:104E680065C01FF066C020F0C0EC40F0320E651837
:104E78006610D8A442EF27F044EF27F067EF27F039
:104E8800F80E0101936F000E926F030E956FE00EFE
:104E9800946F000E976F1F0E966F986999699A69BB
:104EA8009B699C699D699E699F69A069A169A269BE
:104EB800A369A469A569A669A769A869A969AA696E
:104EC800AB69C3EF27F0500E65186610D8A46FEFD2
:104ED80027F071EF27F0A8EF27F0000E0101936F7C
:104EE800000E926F390E956FE70E946F6B0E976FE9
:104EF8006D0E966F780E996F000E986F9A0E9B6FD5
:104F0800230E9A6FF80E9D6F000E9C6FFB0E9F6F1D
:104F1800E00E9E6FFB0EA16FF70EA06FD50EA36F6C
:104F2800400EA26F030EA56FE00EA46F070EA76FC9
:104F3800E00EA66F000EA96F1F0EA86FF80EAB6FDC
:104F48001F0EAA6FC3EF27F0010192699369946954
:104F5800956996699769986999699A699B699C693D
:104F68009D699E699F69A069A169A269A369A469ED
:104F7800A569A669A769A869A969AA69AB691200A0
:104F8800000E476E000E466E000E436E000E426E17
:104F980019C00CF01AC00DF01BC00EF01CC00FF0A9
:104FA8001FC010F020C011F0000E11BEFF0E126ECF
:104FB800136E9DEC37F00CC044F00DC045F045BEB3
:104FC800F1EF27F0455007E10A0E445CD8B0EFEF47
:104FD80027F0F1EF27F0FEEF27F0210E4624D96ED7
:104FE800000E4720DA6E4450300FDF6E464A472ADB
:104FF80009EF28F0210E4624D96E000E4720DA6EFC
:105008004450370FDF6EFAEF27F019C00CF01AC0C2
:105018000DF01BC00EF01CC00FF01FC010F020C018
:1050280011F0000E11BEFF0E126E136E34EC35F047
:105038000CC019F00DC01AF00EC01BF00FC01CF008
:1050480019501A101B101C10D8A42DEF28F02FEFA0
:1050580028F0CCEF27F04606D8A0470647EF28F0FF
:10506800210E4624D96E000E4720DA6E42501D24C8
:10507800E16E43501E20E26EDFCFE7FF4606D8A060
:105088004706424A432A47BE4EEF28F04CEF28F025
:1050980034EF28F042501D24D96E43501E20DA6E9A
:1050A800000EDF6E1200316E31500C0DF3CF2FF071
:1050B800F4CF30F0E60E2F24326E000E3020336E1F
:1050C8003150120DF350340F346E34C025F0266A77
:1050D80031C027F0E1EC37F0010E34242B6E2C6A36
:1050E800000E2C22020E32241F6E000E3320206E7A
:1050F80030EC40F01FC02DF020C02EF043EC40F003
:10510800030E3424256E266A000E2622030E32244E
:105118001F6E000E3320206E30EC40F01F50276EBB
:10512800E1EC37F0040E3424256E266A000E2622A0
:10513800040E32241F6E000E3320206E30EC40F037
:105148001F50276EE1EC37F0050E3424256E266AD1
:10515800000E2622050E32241F6E000E3320206E0C
:1051680030EC40F01F50276EE1EC37F0060E322489
:105178001F6E000E3320206EB40E216E020E226EBA
:10518800EEEC40F0060E34242B6E2C6A000E2C2216
:10519800B40E2D6E020E2E6E5FEC3DF0100E342410
:1051A8002B6E2C6A000E2C220B0E32241F6E000E62
:1051B8003320206E30EC40F01FC02DF020C02EF0C0
:1051C80043EC40F012000001A751A6C00EF00F6A90
:1051D8000EC00FF00E6A0E26000E0F220CC0D9FF6B
:1051E8000DC0DAFF0EC0DEFF0FC0DDFF20EE02F0BB
:1051F8000C50D9260D50DA22A8C0DFFF20EE03F0AC
:105208000C50D9260D50DA22A9C0DFFFAB51AAC035
:105218000EF00F6A0EC00FF00E6A0E26000E0F2257
:1052280020EE04F00C50D9260D50DA220EC0DEFF15
:105238000FC0DDFF20EE06F00C50D9260D50DA2203
:10524800ACC0DFFF000E126E48EF29F0AD0E12243D
:10525800D96EDA6A000EDA22DF500E6E0F6A12502B
:10526800020D0CC010F00DC011F0F3501026F450D0
:105278001122070E1024D96E000E1120DA6E0EC00E
:10528800DEFF0FC0DDFF122A20EE02F00C50D926F7
:105298000D50DA221250DE5CD8B055EF29F057EFE6
:1052A80029F02AEF29F020EE25F00C50D9260D50D0
:1052B800DA22ADC0DFFF20EE26F00C50D9260D50C3
:1052C800DA220001AE390F0B0F0BDF6E20EE27F04C
:1052D8000C50D9260D50DA22AE510F0BDF6E12009A
:1052E800156E16681768AA0E0E6EBB0E0D6E27ECAB
:1052F80041F0000E69EC40F0155069EC40F00F5099
:1053080069EC40F0105069EC40F0000E1A6E97EF0F
:1053180029F01A501124D96E000E1220DA6EDF50CF
:1053280069EC40F01A2A10501A5CD8A09EEF29F0B8
:10533800A0EF29F08DEF29F0D50EE82EFED700F06A
:105348006E90000E196E000E186EE40E00D000D09C
:10535800E82EFCD700D000D06EA0B5EF29F0B7EF4B
:1053680029F0ECEF29F0150E136EC60EE82EFED7C5
:10537800132EFCD700D06E90ABC010F00001AD51D9
:10538800ACC013F0146A13C014F0136A1310166E2D
:105398001450176E000E1A6EE1EF29F0AC0E1A24A5
:1053A800D96EDA6A000EDA221A501124E16E000E64
:1053B8001220E26EDFCFE7FF1A2A10501A5CD8A03D
:1053C800E8EF29F0EAEF29F0D2EF29F0FCEF29F015
:1053D800184A192A19BEFAEF29F0900E185C010E26
:1053E8001958D8A0FAEF29F0FCEF29F0A9EF29F015
:1053F80016C00FF017C010F0120025C027F026C005
:1054080028F0273A283AF00E281627500F0B2812B2
:10541800F00E2716000E2724296E010E28202A6E6A
:1054280025C015F026C016F0000E186E0A0E176E6D
:1054380056EC40F0A40E15242B6E010E16202C6E8F
:105448002BC01DF02CC01EF029C010F02AC011F08E
:1054580017EC3FF010C01FF011C020F0C0EC40F076
:10546800010E2B241D6E000E2C201E6E020E292408
:105478000C6E000E2A200D6ECCEC3DF0276E2750E6
:105488001F6E206AC0EC40F0020E2B241D6E000E29
:105498002C201E6E030E29240C6E000E2A200D6E81
:1054A800CCEC3DF0276E27501F6E206AC0EC40F010
:1054B800030E2B241D6E000E2C201E6E040E2924B4
:1054C8000C6E000E2A200D6ECCEC3DF0276E275096
:1054D8001F6E206AC0EC40F0050E2924106E000EE5
:1054E8002A20116EB40E126E020E136E2DEC3EF0D1
:1054F800000E0201BC6F040E2B241D6E000E2C2022
:105508001E6EB40E1F6E020E206E1DEC40F01200CF
:10551800020E0F6E000E106E460E116E000E126E09
:10552800FF0E74EC29F0000E496EFCEF2AF049508A
:10553800020D0F0EF324D96E020EF420DA6EDE503F
:10554800DE10D8B4AAEF2AF0ACEF2AF0FBEF2AF06D
:105558004950040D2D0EF324D96E020EF420DA6E94
:10556800DECF1EF0DECF1FF0DECF20F0DECF21F041
:105578004950020D0F0EF324D96E020EF420DA6E94
:10558800DECF43F0DDCF44F043C0D9FF44C0DAFF9B
:10559800DECF0CF0DDCF0DF0000E0DBEFF0E0E6E4F
:1055A8000F6E010E5CEC21F00CC01AF00DC01BF060
:1055B8000EC01CF00FC01DF0E2EC0DF01AC033F065
:1055C8001BC034F01CC035F01DC036F011EC2BF0B8
:1055D80033C03DF034C03EF0690E4924D96EDA6A12
:1055E800020EDA22DF50456E452800EC3AF0492ACF
:1055F8006950020D4950436E446AF350435C44506D
:10560800800A456EF450800A4558D8A00EEF2BF05A
:1056180010EF2BF09BEF2AF01200353436343C6E35
:105628003C50D8A41AEF2BF01CEF2BF026EF2BF0F0
:10563800000E336E000E346E000E356E000E366EA0
:1056480093EF2BF033C037F034C038F035C039F061
:1056580036C03AF0200E36EF2BF0D8903A32393275
:1056680038323732E82E31EF2BF037503B6E358E1B
:10567800FF0E3316FF0E3416FF0E3516000E3616C3
:10568800960E3C5E3CBE4DEF2BF04BEF2BF063EFDC
:105698002BF03C50800A970FD8B055EF2BF057EFFE
:1056A8002BF059EF2BF01CEF2BF0D8903632353217
:1056B800343233323C3E59EF2BF07BEF2BF01F0E88
:1056C8003C6469EF2BF06BEF2BF073EF2BF01CEFC2
:1056D8002BF0D89033363436353636363C063C50C7
:1056E800D8A479EF2BF07BEF2BF06DEF2BF03B502C
:1056F800D8B481EF2BF083EF2BF08BEF2BF0361E15
:10570800351E341E336C000E34223522362233C047
:1057180033F034C034F035C035F036C036F01200FE
:105728006A50D8B49AEF2BF09CEF2BF00CEF2CF0CA
:10573800000E206ED20E1F6E30EC40F01FC090F0AD
:1057480020C091F0000E206ED30E1F6E30EC40F09A
:105758001FC08EF020C08FF0000E206ED40E1F6E7A
:1057680030EC40F01FC08CF020C08DF0000E206E91
:10577800D50E1F6E30EC40F01FC08AF020C08BF0B1
:10578800000E206ED60E1F6E30EC40F01FC065F084
:1057980020C066F0000E2C6E010E2B6E90C02DF00E
:1057A80091C02EF043EC40F0000E2C6E030E2B6ED1
:1057B8008EC02DF08FC02EF043EC40F0000E2C6E02
:1057C800050E2B6E8CC02DF08DC02EF043EC40F0F2
:1057D800000E2C6E070E2B6E8AC02DF08BC02EF09B
:1057E80043EC40F0000E2C6EFA0E2B6E65C02DF0C7
:1057F80066C02EF043EC40F0010ED6EC0AF0510ED4
:105808003EEC41F038EC3DF0B5EC31F011EF2CF006
:10581800520E3EEC41F0AFEC40F012000101CC8793
:10582800320E65186610D8A41CEF2CF01EEF2CF071
:1058380022EF2CF0080E466EDE0E456E500E6518EF
:105848006610D8A42AEF2CF02CEF2CF030EF2CF0B7
:10585800090E466E740E456E0001FE51455CFF51FF
:105868004658D8A03AEF2CF03CEF2CF04DEF2CF036
:10587800FEC01DF0FFC01EF023C01FF024C020F0A2
:105888001DEC40F01E0E0001FE27000EFF238CEFDA
:105898002CF0070E446ED00E436E77EF2CF0250ED9
:1058A800106E000E116E830E126EFD0E136E64ECF8
:1058B8003BF01E0E43241F6E000E4420206E250E62
:1058C800216E000E226EEEEC40F043C01DF044C085
:1058D8001EF0250E1F6E000E206E1DEC40F01E0EF1
:1058E8004326000E44224350455C44504658D8B0E5
:1058F80080EF2CF082EF2CF053EF2CF045C01DF018
:1059080046C01EF023C01FF024C020F01DEC40F05C
:105918000101CC971200CA0E0C6E030E0D6EE7EC57
:1059280028F0A50E0301CA1907E15A0ECB19D8A40D
:10593800A0EF2CF0A2EF2CF007EF2DF06E90150ED3
:10594800EF19D8A4AAEF2CF0ACEF2CF0AEEF2CF0A6
:10595800C8EC39F0190E0301EF19D8A4B6EF2CF0F2
:10596800B8EF2CF0BAEF2CF097EC16F0230E0301E9
:10597800EF19D8A4C2EF2CF0C4EF2CF0C6EF2CF02E
:1059880094EC2BF0250E0301EF19D8A4CEEF2CF0E0
:10599800D0EF2CF0D2EF2CF09EEC3AF0290E030158
:1059A800EF19D8A4DAEF2CF0DCEF2CF0DEEF2CF0B6
:1059B80011EC3DF0310E0301EF19D8A4E6EF2CF0FD
:1059C800E8EF2CF0EAEF2CF0DDEC11F0470E0301C4
:1059D800EF19D8A4F2EF2CF0F4EF2CF0F6EF2CF03E
:1059E80029EC36F0490E0301EF19D8A4FEEF2CF08C
:1059F80000EF2DF002EF2DF0F7EC0FF0000E030191
:105A0800CB6F000ECA6F12003A6E3AC03BF067EFD8
:105A18002DF03B50110D000EF324D96E040EF42026
:105A2800DA6E3BC0DFFF3B50110D010EF324D96E37
:105A3800040EF420DA6E000EDE6E000EDD6E3B50B2
:105A4800110D030EF324D96E040EF420DA6E000E45
:105A5800DF6E3B50110D040EF324D96E040EF420B2
:105A6800DA6E000EDF6E3B50110D050EF324D96E71
:105A7800040EF420DA6E000EDF6E3B50110D060E98
:105A8800F324106E040EF420116E830E126EFD0EB8
:105A9800136E64EC3BF03B50110D0F0EF324D96EDE
:105AA800040EF420DA6E000EDE6E000EDD6E3B5042
:105AB800110D000EF3242F6E040EF420306E3B50AF
:105AC8006CEC2EF03B2A34503AC035F0366A352655
:105AD800000E36223B50376E386A3550375C3850E6
