:020000040000FA
:04000000D7EF01F045
:100018007580D8CF04F0E8CF05F0E0CF06F0D9CF4F
:1000280007F0DACF08F09EAA1CEF00F01EEF00F0F0
:1000380077EF00F0010E0001906F900E8F6F000EA9
:100048006C6E000E6B6EBE69CD81AA0E8D6F010EAF
:100058008E6F57EF00F09EAA34EF00F036EF00F0F5
:1000680054EF00F08DC0D9FF8EC0DAFFAECFDFFFAE
:100078006CBE4AEF00F06C5007E1290E6B5CD8B0FB
:1000880048EF00F04AEF00F04EEF00F06B4A6C2AA0
:100098008D4B8E2B010E906F900E8F6F57EF00F0E7
:1000A8008F07D8A090078F519011D8A45EEF00F069
:1000B80060EF00F02FEF00F0ABA265EF00F067EF04
:1000C80000F077EF00F0AB98AB88AECF8FF0906B75
:1000D800AECF8FF0906BAECF8FF0906B000E01011A
:1000E800AA6F0001CD839EA07CEF00F07EEF00F0A8
:1000F80092EF01F09E903C0ECF6EB40ECE6E010EC4
:100108000001BD6FCAB18BEF00F08DEF00F08FEFEB
:1001180000F0000EBD6F000E6C6E010E6B6EA8EF46
:1001280000F0510E6B24D96E010E6C20DA6EDF5090
:10013800D8A4A1EF00F0A3EF00F0A6EF00F0000EA6
:100148000001BD6F6B4A6C2A7150016E026A6B50D8
:10015800015C0250800A036E6C50800A0358D8B0C4
:10016800B8EF00F0BAEF00F095EF00F00001BD0520
:10017800D8A4C1EF00F0C3EF00F0E6EF00F00400F0
:100188000001CA91000E6C6E010E6B6E6CBED6EF4C
:1001980000F06C5009E10F0E6B5CD8A0D6EF00F0B0
:1001A800D8EF00F0DAEF00F0E6EF00F0510E6B2424
:1001B800D96E010E6C20DA6E000EDF6E6B4A6C2A67
:1001C800CAEF00F0F50E0001805D010E8159D8A03C
:1001D800F0EF00F0F2EF00F0F5EF00F0819EF6EF9F
:1001E80000F0818EB751B811D8B4FDEF00F0FFEFE1
:1001F80000F005EF01F0320EB75F000EB85B0AEFB2
:1002080001F0B5C0B7F0B6C0B8F0CD8D320EA72753
:10021800000EA823320EB927000EBA237250D8A4B4
:1002280018EF01F01AEF01F025EF01F0A6BF1FEF5C
:1002380001F021EF01F025EF01F0CE0EA527FF0E0A
:10024800A623320EA327000EA423320E8027000E09
:100258008123E80E805D030E8159D8A036EF01F0A6
:1002680038EF01F092EF01F0CCA93DEF01F03FEF3C
:1002780001F060EF01F0C92B3B0EC96546EF01F0B4
:1002880048EF01F060EF01F0000EC96F742A3B0ED1
:10029800746451EF01F053EF01F060EF01F0000ECC
:1002A800746E732A630E73645CEF01F05EEF01F005
:1002B80060EF01F0000E736E000E816F000E806F0C
:1002C800822B6F50D8B46BEF01F06DEF01F06EEF39
:1002D80001F06F063B0E826574EF01F076EF01F0D6
:1002E80092EF01F0000E826F832BB34BB42B3B0EC1
:1002F800836581EF01F083EF01F092EF01F0000ECA
:10030800836F842B170E84658CEF01F08EEF01F05C
:1003180092EF01F0000E846F92EF01F0F2A297EFD6
:1003280001F099EF01F09AEF01F0F292F2A49FEF39
:1003380001F0A1EF01F0CBEF01F00D0EE82EFED792
:1003480000F0000ED76EE10ED66EF2940001AD51AA
:10035800AE11D8B4B2EF01F0B4EF01F0BAEF01F08A
:10036800AD07D8A0AE07818CBBEF01F0819CBB51D3
:10037800BC11D8B4C2EF01F0C4EF01F0CAEF01F02C
:10038800BB07D8A0BC07818ACBEF01F0819A08C0CF
:10039800DAFF07C0D9FF06C0E0FF05C0E8FF04C0C8
:1003A800D8FF75901000CEEF38F0640E096E000E7D
:1003B8000A6E000E0B6E000E0C6E6AEC3EF0D388CF
:1003C800D38AD38C9B8CEF0E926E010E936EF00E37
:1003D800946EE30E956E9668D59AD596D582D58299
:1003E800D584F194F28AF290F2989E909F900B0E29
:1003F800CF6EBA0ECE6ECD92CD88CD8ACD8CCD86FD
:100408009D80CD80F28CF28E000E0001AA6F000E46
:10041800A96F819E000EAE6F000EAD6F819C000E1D
:10042800BC6F000EBB6F819A000E166EC20E176E5F
:10043800010E186E000E196E19EC39F039EC44F003
:10044800A00E166E860E176E010E186E000E196E2F
:100458000EEC3EF0F40E096E010E0A6E000E0B6EE5
:10046800000E0C6E6AEC3EF0000E0E6E220E0D6E43
:10047800C0EC41F00DC0EAF00EC0EBF00001EA2933
:1004880006E1EB29D8A44BEF02F04DEF02F061EF43
:1004980002F0000E296E220E286E000E2B6E000E42
:1004A8002A6E63EC43F0000E296EE80E286E000EEB
:1004B8002B6E000E2A6E63EC43F00001EA4BEB2B27
:1004C800000E296E220E286EEAC02AF0EBC02BF02F
:1004D80063EC43F00001CB99000E0E6EFA0E0D6E20
:1004E800C0EC41F00DC093F00EC094F02C0E096ED4
:1004F800010E0A6E000E0B6E000E0C6E6AEC3EF0DA
:10050800BD0E206EFC0E216EA2EC2CF02C0E096E96
:10051800010E0A6E000E0B6E000E0C6E6AEC3EF0B9
:10052800300E206EFE0E216EA2EC2CF02C0E096E01
:10053800010E0A6E000E0B6E000E0C6E6AEC3EF099
:10054800EB0E206EFC0E216EA2EC2CF02C0E096E28
:10055800010E0A6E000E0B6E000E0C6E6AEC3EF079
:10056800070E1D6EC60E1C6E000E1E6E030E1F6E4D
:100578000EEC44F0600E0D6E010E0E6EE80E0F6E5E
:10058800FE0E106EDFEC3DF0600E176E010E186E59
:10059800000E196E030E1A6E2AEC43F0600E206EE0
:1005A800010E216EA2EC2CF02C0E096E010E0A6EC3
:1005B800000E0B6E000E0C6E6AEC3EF013EC1CF095
:1005C800000E0A6E340E096EC7EC40F0FF0AD8A47C
:1005D800F0EF02F0F2EF02F04EEF03F00B0E206E98
:1005E800FD0E216EA2EC2CF00A0E316E000E21ECED
:1005F80030F01BEC3FF049EC3DF005EC3CF0000E10
:10060800726E000E0001C66F30EC44F0000E236ECF
:10061800100E226E000E246E0FEC3BF0000E296EB9
:10062800090E286E000E2B6E0A0E2A6E63EC43F03C
:10063800000E296E0B0E286E400E2A6EE20E2B6EEF
:10064800010E2C6E000E2D6E08EC41F0000ED8EC59
:1006580009F0000E236E110E226E000E246E0FECB0
:100668003BF0000E236E120E226E000E246E0FEC6D
:100678003BF0F9EC35F0000E1F6E000E206E000EF8
:10068800216E000E226E000E246E000E236E000EE8
:10069800B0EC42F0B2EC32F0010ED8EC09F0000EEA
:1006A8000E6E0B0E0D6EE8EC3FF00DC089F00EC01B
:1006B8008AF00FC08BF010C08CF085EC3AF0DBECC0
:1006C80033F080EC42F0AD0E206EFE0E216EA2ECEF
:1006D8002CF0000E0001EE6F0E0EEE6576EF03F0C3
:1006E80078EF03F07AEF03F083EF03F004000001E2
:1006F800EE5132EC23F00001EE2B70EF03F0000E08
:10070800EF6F070EEF658BEF03F08DEF03F08FEFC0
:1007180003F099EF03F00400EFC023F0246A17EC0C
:100728002CF00001EF2B85EF03F0000E0E6E0B0E80
:100738000D6EE8EC3FF00DC089F00EC08AF00FC0D6
:100748008BF010C08CF085EC3AF042EC14F0DBEC46
:1007580033F080EC42F016EC33F0E9EC37F0000EA1
:100768000001F96F000EF86F000EF76F000EF66FBC
:10077800000EC76F000EA86F000EA76F000EC26FA5
:10078800000EA06F000E9F6F000E9E6F000E9D6FF3
:10079800000EA26F000EA16F000E46EC3FF0000E97
:1007A8000001816F000E806F000E826F000EC96F0E
:1007B800CCC0BFF0000E6F6EAEEC39F0A1EC20F0AB
:1007C800000E196E0F0E186EF1EC43F00001CA818D
:1007D800CB87E90EA75D030EA859D8A0F6EF03F062
:1007E800F8EF03F013EF04F0000EA86F000EA76FE8
:1007F80047EC37F01AC0F8F01BC0F9F00001F651C9
:10080800F81909E1F751F919D8B40DEF04F00FEF11
:1008180004F013EF04F0F8C0F6F0F9C0F7F0CB9746
:10082800CB87815107E1020E805DD8B01EEF04F03E
:1008380020EF04F02DEF04F0190EF819F911D8B4CF
:1008480028EF04F02AEF04F02DEF04F0000E46EC38
:100858003FF00001CCA933EF04F035EF04F037EF97
:1008680004F07CEC3DF016EC33F0E9EC37F00001D5
:10087800CB97F9EC23F07EEC21F03FEC3AF0A2ECB8
:1008880036F005EC1DF01EEC28F00001CB87BF51B7
:10089800CC19D8B452EF04F054EF04F05AEF04F036
:1008A8000FEC40F067EC42F0CCC0BFF03CEC3EF0FF
:1008B8000001CB9742EC14F006EC17F00001CB874F
:1008C80033EF09F0000EF06F090EF0656EEF04F0DB
:1008D80070EF04F072EF04F0B1EF04F0070EF025AA
:1008E8001C6E1D6A000E1D2250EC43F01C041D10E6
:1008F800D8A481EF04F083EF04F0ADEF04F0070E05
:100908000001F0251B6E1C6A000E1C22000E1E6ED4
:10091800000E1D6EE0EC43F0F0C0C4F0050E0001BF
:10092800C46199EF04F09BEF04F0A5EF04F0130EF7
:10093800C36F000E196E1B0E186EF1EC43F0ADEF8D
:1009480004F0150EC36F000E196E1C0E186EF1EC34
:1009580043F00001F02B68EF04F0BBEC15F06DEFED
:1009680009F0000E1D6E010E1C6E50EC43F01C04C5
:100978001D10D8A4C2EF04F0C4EF04F06DEF09F025
:10098800000E1C6E010E1B6E000E1E6E000E1D6EFC
:10099800E0EC43F0AEEC2EF06DEF09F0C751D8A4AF
:1009A800D8EF04F0DAEF04F0DFEF04F0010E46ECC4
:1009B8003FF00001C72B000E1D6E980E1C6E50EC08
:1009C80043F01C041D10D8A4ECEF04F0EEEF04F083
:1009D800FBEF04F0000E1C6E980E1B6E000E1E6ED0
:1009E800000E1D6EE0EC43F0010E46EC3FF0000EE9
:1009F8001D6EAE0E1C6E50EC43F01C041D10D8A4E6
:100A080008EF05F00AEF05F06DEF09F0000E1C6E17
:100A1800AE0E1B6E000E1E6E000E1D6EE0EC43F057
:100A280015EC3DF06DEF09F0000EC56F070EC565BA
:100A380020EF05F022EF05F024EF05F059EF05F05F
:100A4800200EC5251C6E1D6A000E1D2250EC43F0B9
:100A58001C041D10D8A433EF05F035EF05F055EF51
:100A680005F0200E0001C5251B6E1C6A000E1C2215
:100A7800000E1E6E000E1D6EE0EC43F0C3C018F0B1
:100A8800196AF1EC43F0CE0E176E000E186E0001D5
:100A9800C55179EC31F0010E236E0001C4510EEC02
:100AA80031F00001C52B1AEF05F0000E1D6E110E76
:100AB8001C6E50EC43F01C041D10D8A466EF05F022
:100AC80068EF05F077EF05F0000E1C6E110E1B6E37
:100AD800000E1E6E000E1D6EE0EC43F0C3C018F051
:100AE800196AF1EC43F0000E1D6E120E1C6E50ECEC
:100AF80043F01C041D10D8A484EF05F086EF05F020
:100B08006DEF09F0000E1C6E120E1B6E000E1E6EAD
:100B1800000E1D6EE0EC43F0000E0001D46FD50E00
:100B28000D6E000E0E6E670E0F6EFD0E106EDFEC72
:100B38003DF0000E0001D36F000ED26F000ED16F92
:100B4800000ED06F000ECF6F000ECE6F000E236E1A
:100B5800C4510EEC31F0C3C018F0196AF1EC43F03F
:100B68006DEF09F0AEEC39F0000E1D6EAF0E1C6E85
:100B780050EC43F01C041D10D8A4C5EF05F0C7EFD6
:100B880005F06DEF09F0000E1C6EAF0E1B6E000E27
:100B98001E6E000E1D6EE0EC43F070EC3FF06DEF42
:100BA80009F0100E8919676E2F0E8A19686EBA0E31
:100BB8008B19696EE40E8C196A6E671CE46F681CE9
:100BC800E56F691CE66F6A1CE76FE4C016F0E5C0C4
:100BD80017F0E6C018F0E7C019F0600E1A6E010EA3
:100BE8001B6E000E1D6E100E1C6EB9EC28F0060E62
:100BF8001B6E7C0E1A6E600E1C6E010E1D6E3DEC97
:100C080043F0F40E096E010E0A6E000E0B6E000E14
:100C18000C6E51EC3BF0010E1D6E820E1C6E50ECFA
:100C280043F01C041D10D8A41CEF06F01EEF06F0BC
:100C38006DEF09F0010E1C6E820E1B6E000E1E6E0B
:100C4800000E1D6EE0EC43F0E2EC10F06DEF09F0E1
:100C5800CB87030EF56F100EF46FF5BF3DEF06F06E
:100C68001D0EF45D030EF559D8A03DEF06F03FEFD9
:100C780006F041EF06F0F7EF08F0F451F00FC16FFE
:100C8800F4C01CF0F5C01DF050EC43F00E0E1C181B
:100C98001D10D8A452EF06F054EF06F002EF08F04A
:100CA8000001C651D8B45BEF06F05DEF06F0F2EF35
:100CB80007F0320E93199411D8A465EF06F067EF88
:100CC80006F06AEF06F0C1C091F0926B500E9319CE
:100CD8009411D8A472EF06F074EF06F07BEF06F0DB
:100CE8008EEC3BF0676E67500001916F926B92BF7C
:100CF80089EF06F0925107E1080E915DD8B087EFB1
:100D080006F089EF06F0B6EF07F0100EC1251B6E4E
:100D18001C6A030E1C22010EC1251D6E1E6A000EE0
:100D28001E22E0EC43F091C015F092C016F0000EC0
:100D3800186E0A0E176E76EC43F0FD0E15241B6E26
:100D4800060E16201C6E010E91C067F092C068F066
:100D580067C068F0676A67101D6E68501E6EE0EC29
:100D680043F091C015F092C016F0000E186E0A0EEE
:100D7800176E76EC43F0FB0E15241B6E060E16203C
:100D88001C6E0001C151020D370EF324D96E010EFD
:100D9800F420DA6EDECF1DF0DDCF1EF0E0EC43F07C
:100DA8005A0E00019125D96E020E9221DA6E91C079
:100DB800DFFF690E9125D96E020E9221DA6EC129E4
:100DC800DF6E780EC125D96EDA6A020EDA22C129E1
:100DD800DF6EC151020D370EF324D96E010EF420D7
:100DE800DA6ED8909135E16E9235E26E870EE12683
:100DF800020EE222DECFE6FFDDCFE5FF000E676ED2
:100E0800020E686E1E0E6726000E6822D890913575
:100E1800D96E9235DA6ED890D936DA366750D92637
:100E28006850DA22000EDE6E000EDE6E800EDE6E78
:100E38003F0EDD6E020EC16524EF07F026EF07F0C6
:100E48002EEF07F0010EC125E86FE96B000EE923CC
:100E580031EF07F0C1C0E8F0E96BE8C067F0E9C01E
:100E680068F0D89067366836D40E696E010E6A6EDF
:100E78006750692668506A22D8909135D96E9235A4
:100E8800DA6E000ED926020EDA2269C0DEFF6AC0C9
:100E9800DDFF000E676E020E686E1E0E6726000EDE
:100EA8006822D8909135D96E9235DA6ED890D936B5
:100EB800DA366750D9266850DA22000EDE6E000E48
:100EC800DE6E800EDE6E3F0EDD6EC151D8A46FEF70
:100ED80007F071EF07F08DEF07F0000E676E020E56
:100EE800686E1E0E6726000E6822D8909135D96E5E
:100EF8009235DA6ED890D936DA366750D9266850E6
:100F0800DA22550EDE6EC10EDE6EE80EDE6E3E0E85
:100F1800DD6EC105D8A493EF07F095EF07F0B1EFA8
:100F280007F0000E676E020E686E1E0E6726000E32
:100F38006822D8909135D96E9235DA6ED890D93624
:100F4800DA366750D9266850DA22CD0EDE6ECC0E1E
:100F5800DE6E4C0EDE6E3D0EDD6E020ED8EC09F034
:100F6800F2EF08F091C015F092C016F0000E186E5E
:100F78000A0E176E76EC43F0FD0E15241B6E060E56
:100F880016201C6E00019151686E676A000E67108A
:100F98001D6E0A0E68101E6EE0EC43F091C015F04D
:100FA80092C016F0000E186E0A0E176E76EC43F01B
:100FB800FB0E15241B6E060E16201C6EFF0E1E6EF1
:100FC8001D68E0EC43F0F4C01BF0F5C01CF0FF0E08
:100FD8001E6E1D68E0EC43F0F2EF08F0CFEC43F032
:100FE800F4C01BF0F5C01CF0FF0E1E6E1D68E0EC8F
:100FF80043F0520E5DEC44F0F2EF08F0F4C01CF040
:10100800F5C01DF050EC43F01D5009E10F0E1C5CBB
:10101800D8A011EF08F013EF08F0F2EF08F0F4C0D1
:101028001CF0F5C01DF050EC43F01D5007E11F0EF9
:101038001C5CD8B022EF08F024EF08F0F2EF08F0BB
:101048000001C651D8B42BEF08F02DEF08F0B5EF2A
:1010580008F0690E096E020E0A6EC1290B6E67EC64
:1010680041F00001F16F690EC125D96EDA6A020EEE
:10107800DA22DF50676E6704E36FF4C01BF0F5C037
:101088001CF0FF0E1E6E1D68E0EC43F00001F151EC
:101098000A0DF3CF67F0F4CF68F0FD0E67241B6EDE
:1010A800060E68201C6E0A0E1E6E000E1D6EE0EC09
:1010B80043F00001F1510A0DF3CF67F0F4CF68F067
:1010C800FB0E67241B6E060E68201C6EFF0E1E6E3C
:1010D8001D68E0EC43F00001F151020D000EF3240D
:1010E800D96E020EF420DA6E000EDE6E000EDD6E92
:1010F8005A0EF125D96EDA6A020EDA220A0EDF6E6E
:10110800690EF125D96EDA6A020EDA22FF0EDF6E59
:10111800780EC125D96EDA6A020EDA22FF0EDF6E6A
:10112800F151020D870EF324D96E020EF420DA6E07
:10113800FF0EDE6EFF0EDD6EF151040D1E0EF32460
:10114800D96E020EF420DA6E000EDE6E000EDE6E30
:10115800000EDE6E000EDD6E020ED8EC09F0F2EF26
:1011680008F0CFEC43F0520E5DEC44F0320E000173
:1011780093199411D8A4C3EF08F0C5EF08F0D6EF7F
:1011880008F0F4C01BF0F5C01CF0690EC125D96E3B
:10119800DA6A020EDA22DF50676E67501D6E1E6A29
:1011A800E0EC43F0500E000193199411D8A4DFEF3E
:1011B80008F0E1EF08F0F2EF08F0F4C01BF0F5C01A
:1011C8001CF0780EC125D96EDA6A020EDA22DF50D9
:1011D800676E67501D6E1E6AE0EC43F00001F44B29
:1011E800F52B31EF06F0CB976DEF09F0BEEC43F02D
:1011F800000E0001C56F070EC56505EF09F007EF82
:1012080009F009EF09F06DEF09F0200EC5251C6EF5
:101218001D6A000E1D2250EC43F01C041D10D8A4BA
:1012280018EF09F01AEF09F02BEF09F0200E000172
:10123800C5251B6E1C6A000E1C22000E1E6E000EB9
:101248001D6EE0EC43F099EC37F06DEF09F000010A
:10125800C52BFFEF08F0F9EC0EF06DEF09F0F8C0C0
:1012680067F0F9C068F06850000AD8B43EEF09F09A
:101278006DEF09F06750130AD8B466EF04F0060A58
:10128800D8B466EF04F0020AD8B4B5EF04F00E0A39
:10129800D8B4D2EF04F0020AD8B418EF05F0070A60
:1012A800D8B418EF05F0010AD8B4B6EF05F0020A71
:1012B800D8B4D5EF05F03C0AD8B42CEF06F00C0AE8
:1012C800D8B4FAEF08F01E0AD8B42FEF09F06DEF82
:1012D80009F00001CB8DCDEF09F0CB9D090E686EAA
:1012E8001E0E676EE40EE82EFED7672EFCD7682E1A
:1012F800FAD700D0CD0E89EC43F0CD0E89EC43F03F
:10130800CD0E89EC43F0CD0E89EC43F0CD0E89EC7F
:1013180043F0000E0001ED6F000EEC6FED5109E196
:10132800C80EEC5DD8A09BEF09F09DEF09F09FEF88
:1013380009F0B7EF09F0CDA1A4EF09F0A6EF09F085
:10134800A8EF09F0B7EF09F0010E096E000E0A6E5A
:10135800000E0B6E000E0C6E6AEC3EF00001EC4BBA
:10136800ED2B92EF09F0CDA1BCEF09F0BEEF09F02B
:10137800C2EF09F0A8EC2FF00001CB8DCDA1C7EF8B
:1013880009F0C9EF09F0CDEF09F02DEC2FF06DEF62
:1013980009F0CBBDD2EF09F0D4EF09F071EF09F0F5
:1013A800EAEF03F0D7EF01F0346E7FEC27F0CAEFD5
:1013B8000CF0000E3C6E3C50020D870EF324D96EE3
:1013C800020EF420DA6EFF0EDE6EFF0EDD6E5A0E90
:1013D8003C24D96EDA6A020EDA220A0EDF6E690E32
:1013E8003C24D96EDA6A020EDA22FF0EDF6E780E1E
:1013F8003C24D96EDA6A020EDA22FF0EDF6E3C5008
:10140800020D000EF324D96E020EF420DA6E000EDF
:10141800DE6E000EDD6E3C50040D1E0EF324D96EF8
:10142800020EF420DA6E000EDE6E000EDE6E000E86
:10143800DE6E000EDD6E130E3C24226E236A000E53
:101448002322780E3C24D96EDA6A020EDA22DF50A3
:10145800246E0FEC3BF0EA0E3C24226E236A000E49
:101468002322690E3C24D96EDA6A020EDA22DF5092
:10147800246E0FEC3BF0240E3C24226E236A000EEF
:1014880023225A0E3C24D96EDA6A020EDA22DF5081
:10149800246E0FEC3BF0100E3C241B6E1C6A030EEE
:1014A8001C22FF0E1E6E1D68E0EC43F03C500A0D36
:1014B800F3CF2EF0F4CF2FF0FD0E2E241B6E060E68
:1014C8002F201C6E0A0E1E6E000E1D6EE0EC43F0FF
:1014D8003C500A0DF3CF2EF0F4CF2FF0FB0E2E2444
:1014E8001B6E060E2F201C6EFF0E1E6E1D68E0EC94
:1014F80043F03C2A0C0E3C6484EF0AF086EF0AF0B5
:10150800DFEF09F0E3EF0CF0000E0E6E130E0D6E18
:10151800780E0F6E020E106E0F0E116E85EC41F0F4
:10152800000E0E6EEA0E0D6E690E0F6E020E106E34
:101538000F0E116E85EC41F0000E0E6E240E0D6E2E
:101548005A0E0F6E020E106E0F0E116E85EC41F0E2
:10155800000E3C6E780E3C24D96EDA6A020EDA224E
:10156800DF50376E3728D8B4BCEF0AF0BEEF0AF068
:10157800CBEF0AF0100E3C241B6E1C6A030E1C22D3
:1015880037C01DF01E6AE0EC43F0D6EF0AF0100EEB
:101598003C241B6E1C6A030E1C22FF0E1E6E1D6867
:1015A800E0EC43F03C2A0C0E3C64DDEF0AF0DFEF80
:1015B8000AF0AEEF0AF0000E3C6E5A0E3C24D96ECB
:1015C800DA6A020EDA22080EDF60EDEF0AF0EFEFBA
:1015D8000AF007EF0BF0690E3C24D96EDA6A020EA6
:1015E800DA22DF502E6E2F6AD8902E362F36350E1F
:1015F8002E24D96E010E2F20DA6EDECF39F0DDCF22
:101608003AF009EF0BF039683A683C500A0DF3CF0D
:101618002EF0F4CF2FF0FB0E2E241B6E060E2F207B
:101628001C6E39C01DF03AC01EF0E0EC43F03C508F
:10163800020D870EF324D96E020EF420DA6E39C03B
:10164800DEFF3AC0DDFF3C2A0C0E3C642EEF0BF0A7
:1016580030EF0BF0E1EF0AF0000E3C6E5A0E3C241E
:10166800D96EDA6A020EDA22DF50386E080E386058
:1016780040EF0BF042EF0BF05DEF0BF03C500A0D22
:10168800F3CF2EF0F4CF2FF0FD0E2E241B6E060E96
:101698002F201C6E010E38C030F0316A30C031F096
:1016A800306A30101D6E31501E6EE0EC43F06FEF63
:1016B8000BF03C500A0DF3CF2EF0F4CF2FF0FD0EB7
:1016C8002E241B6E060E2F201C6E0A0E1E6E000E98
:1016D8001D6EE0EC43F03C2A0C0E3C6476EF0BF0F8
:1016E80078EF0BF032EF0BF0000E3B6E5A0E3B24F6
:1016F800D96EDA6A020EDA220A0EDE18D8B487EF3B
:101708000BF089EF0BF065EF0CF0FF0E2E6EFF0E5D
:101718002F6E5A0E3B24D96EDA6A020EDA22DF5097
:10172800306E316A690E3024D96E020E3120DA6EBD
:10173800DF50326E336A2E5032262F50332233BE9A
:10174800AFEF0BF0335009E1030E325CD8A0AFEFD6
:101758000BF0B1EF0BF0C7EF0BF05A0E3B24D96E2C
:10176800DA6A020EDA22DF502E6E2F6A690E2E24F4
:10177800D96E020E2F20DA6EDF50306E3050356E83
:10178800366ADEEF0BF05A0E3B24D96EDA6A020E87
:10179800DA22DF502E6E2F6A690E2E24D96E020EC1
:1017A8002F20DA6EDF50306EFF0E3024356E366A29
:1017B800FF0E362235C02EF036C02FF0D8902E36C8
:1017C8002F36D40E306E010E316E2E5030262F502B
:1017D80031225A0E3B24D96EDA6A020EDA22DF5021
:1017E800326E3250020D000EF324D96E020EF42030
:1017F800DA6E30C0DEFF31C0DDFF5A0E3B24D96EF1
:10180800DA6A020EDA22DF502E6E2E50040D1E0EFA
:10181800F324D96E020EF420DA6E000EDE6E000E8E
:10182800DE6E800EDE6E3F0EDD6E5A0E3B24D96EE4
:10183800DA6A020EDA22DF50D8A425EF0CF027EF7F
:101848000CF03FEF0CF05A0E3B24D96EDA6A020E08
:10185800DA22DF502E6E2E50040D1E0EF324D96EA0
:10186800020EF420DA6E550EDE6EC10EDE6EE80E44
:10187800DE6E3E0EDD6E5A0E3B24D96EDA6A020E1B
:10188800DA22DE04D8A44BEF0CF04DEF0CF065EF34
:101898000CF05A0E3B24D96EDA6A020EDA22DF50B7
:1018A8002E6E2E50040D1E0EF324D96E020EF42057
:1018B800DA6ECD0EDE6ECC0EDE6E4C0EDE6E3D0E9A
:1018C800DD6E3B2A070E3B646CEF0CF06EEF0CF0FC
:1018D8007AEF0BF0E3EF0CF0000E3C6E100E3C2498
:1018E8001C6E1D6A030E1D2250EC43F0780E3C243A
:1018F800D96EDA6A020EDA221CC0DFFF3C500A0DEC
:10190800F3CF2EF0F4CF2FF0FD0E2E241C6E060E12
:101918002F201D6E50EC43F01DC01CF01D6A5A0E9E
:101928003C24D96EDA6A020EDA221CC0DFFF3C2A98
:101938000D0E3C64A2EF0CF0A4EF0CF072EF0CF06B
:10194800000E296E130E286E780E2A6E020E2B6E6C
:101958000F0E2C6E48EC41F0000E296EEA0E286E30
:10196800690E2A6E020E2B6E0F0E2C6E48EC41F09B
:10197800000E296E240E286E5A0E2A6E020E2B6E49
:101988000F0E2C6E48EC41F0E3EF0CF034502E6E45
:101998002F6A2F50000AD8B4D4EF0CF0E3EF0CF004
:1019A8002E50000AD8B4DDEF09F0010AD8B488EF48
:1019B8000AF0030AD8B470EF0CF0E3EF0CF0120051
:1019C8001A50800B236E1A501A24296E19AEEFEFA5
:1019D8000CF0F1EF0CF0F2EF0CF029802950D8B49C
:1019E800F8EF0CF0FAEF0CF00DEF0DF02928D8A461
:1019F80000EF0DF002EF0DF00AEF0DF0000E176E7C
:101A0800000E186E000E196E000E1A6E198E15EF64
:101A18000DF0000E176E000E186E000E196E000EF7
:101A28001A6E1E50800B231A1E501E24286E1DAEDF
:101A380020EF0DF022EF0DF023EF0DF02880285055
:101A4800D8B429EF0DF02BEF0DF03EEF0DF028285C
:101A5800D8A431EF0DF033EF0DF03BEF0DF0000E91
:101A68001B6E000E1C6E000E1D6E000E1E6E1D8E6F
:101A780046EF0DF0000E1B6E000E1C6E000E1D6E64
:101A8800000E1E6E2850D8B44CEF0DF04EEF0DF03E
:101A980056EF0DF02950D8A454EF0DF056EF0DF085
:101AA80060EF0DF0000E176E000E186E000E196E26
:101AB800000E1A6EF8EF0EF01D501702F3CF2EF03D
:101AC800F4CF2FF02E50246E256A266A276A2F50ED
:101AD8002A6E2B6A2C6A2D6A1C501802F3CF2EF03E
:101AE800F4CF2FF02E502426000E2522262227225E
:101AF8002F502A26000E2B222C222D221B50190291
:101B0800F3CF2EF0F4CF2FF02E502426000E2522EE
:101B1800262227222F502A26000E2B222C222D2265
:101B280026C027F025C026F024C025F0246A1B50C3
:101B38001802F3CF2EF0F4CF2FF02E5024262F507A
:101B48002522000E2622000E27221C501702F3CF52
:101B58002EF0F4CF2FF02E5024262F502522000EE1
:101B68002622000E272226C027F025C026F024C0F2
:101B780025F0246A1B501702F3CF2EF0F4CF2FF074
:101B88002E5024262F502522000E2622000E272212
:101B98001D501802F3CF2EF0F4CF2FF02E502A2626
:101BA8002F502B22000E2C22000E2D221C50190221
:101BB800F3CF2EF0F4CF2FF02E502A262F502B22C1
:101BC800000E2C22000E2D221D501902F3CF2EF0EC
:101BD800F4CF2FF02E501F6E2F50206E216A226AEC
:101BE80021C022F020C021F01FC020F01F6A1F5022
:101BF8002A2620502B2221502C2222502D2224C06C
:101C08001FF025C020F026C021F027C022F0190EB1
:101C180013EF0EF0D8902232213220321F32E82EF4
:101C28000EEF0EF01F502A2620502B2221502C2276
:101C380022502D2226C027F025C026F024C025F0EA
:101C4800246A285029C01FF0206A1F26000E20226F
:101C5800820E1F242E6EFF0E20202F6E49EF0EF0ED
:101C6800D8902A362B362C362D3627AE3EEF0EF07E
:101C780040EF0EF041EF0EF02A80D890243625363A
:101C8800263627362E06D8A02F062CAE4EEF0EF09D
:101C980050EF0EF034EF0EF0000E286E27AE57EF1F
:101CA8000EF059EF0EF07DEF0EF0FF0E24141F6EAC
:101CB800FF0E2514206EFF0E2614216E7F0E2714AA
:101CC800226E1F50201021102210D8B46EEF0EF093
:101CD80070EF0EF074EF0EF0010E286E7DEF0EF02F
:101CE8002AA079EF0EF07BEF0EF07DEF0EF070EF8B
:101CF8000EF02850D8B483EF0EF085EF0EF0A9EF60
:101D08000EF0010E2A26000E2B222C222D222DA0A9
:101D180090EF0EF092EF0EF0A9EF0EF02AC01FF030
:101D28002BC020F02CC021F02DC022F0223422320A
:101D3800213220321F321FC02AF020C02BF021C0D0
:101D48002CF022C02DF02E4A2F2A2FBEB4EF0EF011
:101D58002F5008E12E28D8A0B4EF0EF0B6EF0EF001
:101D6800C0EF0EF0000E2A6E000E2B6E800E2C6E49
:101D78007F0E2D6EEEEF0EF02FBECDEF0EF02F5032
:101D880006E12E04D8B0CBEF0EF0CDEF0EF0D9EF70
:101D98000EF0000E2A6E000E2B6E000E2C6E000E3A
:101DA8002D6E000E236EEEEF0EF02EC029F0FF0E02
:101DB8002A16FF0E2B167F0E2C16000E2D1629A0A4
:101DC800E8EF0EF0EAEF0EF0EBEF0EF02C8ED89065
:101DD80029302D6E23502D122AC017F02BC018F071
:101DE8002CC019F02DC01AF01200010E1D6E860EBF
:101DF8001C6E50EC43F01C041D10D8A406EF0FF025
:101E080008EF0FF08FEF0FF0000E0001CF6F000EFC
:101E1800CE6F000ED16F000ED06F000ED36F000E84
:101E2800D26F000ED46FD50E0D6E000E0E6E670EBB
:101E38000F6EFD0E106EDFEC3DF0CE0E2C6E000E18
:101E48002D6E0001C55199EC34F0C5C023F0246A09
:101E580017EC2CF0010E1C6E9A0E1B6E000E1E6EF7
:101E6800000E1D6EE0EC43F0010E1C6E9B0E1B6E07
:101E7800000E1E6E000E1D6EE0EC43F0010E1C6E8F
:101E88009C0E1B6E000E1E6E000E1D6EE0EC43F0E5
:101E9800010E1C6E9D0E1B6E000E1E6E000E1D6E3A
:101EA800E0EC43F0010E1B6E9E0E1A6E670E1C6E60
:101EB800FD0E1D6E3DEC43F0BEEC43F0010E1C6EB2
:101EC800860E1B6E000E1E6E000E1D6EE0EC43F0BB
:101ED800600E5DEC44F00FEC40F0070E1B6E760EC2
:101EE8001A6EFA0E1C6EFD0E1D6E3DEC43F0DC0EF4
:101EF800096E050E0A6E000E0B6E000E0C6EEFECEE
:101F08003EF0070E1B6E760E1A6E670E1C6EFD0EE7
:101F18001D6E3DEC43F0010E1D6E870E1C6E50ECDD
:101F280043F01C041D10D8A49CEF0FF09EEF0FF097
:101F380006EF10F0010E1D6E9A0E1C6E50EC43F069
:101F48001CC0CEF01DC0CFF0010E1D6E9B0E1C6E86
:101F580050EC43F01CC0D0F01DC0D1F0010E1D6E36
:101F68009C0E1C6E50EC43F01CC0D2F01DC0D3F088
:101F7800010E1D6E9D0E1C6E50EC43F01C500001AE
:101F8800D46F010E1D6E9E0E1C6ED50E1E6E000EB9
:101F98001F6E0EEC44F0CE0E2C6E000E2D6E00015E
:101FA800C55199EC34F0BEEC43F0010E1C6E870E5F
:101FB8001B6E000E1E6E000E1D6EE0EC43F0510EFF
:101FC8005DEC44F00FEC40F0070E1B6E760E1A6EB7
:101FD800DE0E1C6EFD0E1D6E3DEC43F0DC0E096E30
:101FE800050E0A6E000E0B6E000E0C6EEFEC3EF046
:101FF800070E1B6E760E1A6E670E1C6EFD0E1D6E9A
:102008003DEC43F0010E1D6E880E1C6E50EC43F043
:102018001C041D10D8A413EF10F015EF10F0C2EF38
:1020280010F0070E1B6E760E1A6EA40E1C6EFD0EB7
:102038001D6E3DEC43F0CE0E176E000E186E0001BB
:10204800C55179EC31F0070E1B6E760E1A6E860EAE
:102058001C6EFD0E1D6E3DEC43F0000E3A6E57EF00
:1020680010F03AC03DF0CEC03EF0CFC03FF0D0C037
:1020780040F0D2C041F0D4C042F0430E0D6E000EC5
:102088000E6ED50E0F6E000E106EDFEC3DF0000EDA
:102098004D6E010E4C6E3D0E2C6E000E2D6E3A509C
:1020A8009AEC30F03A2AFC0E336EFF0E346E715003
:1020B800356E366AD8903536363633503526345034
:1020C80036223A50376E386A3550375C3850800AB5
:1020D800396E3650800A3958D8A075EF10F077EF6E
:1020E80010F035EF10F0070E1B6E760E1A6E890E83
:1020F8001C6EFC0E1D6E3DEC43F01BEC1BF0070E36
:102108001B6E760E1A6E2B0E1C6EFD0E1D6E3DECB0
:1021180043F0000E3B6E3B5032EC23F03B2A0E0E90
:102128003B6499EF10F09BEF10F08FEF10F0000E6A
:102138003C6E3C502DEC26F03C2A090E3C64A7EF7F
:1021480010F0A9EF10F09DEF10F0010E1C6E880E34
:102158001B6E000E1E6E000E1D6EE0EC43F0600E4E
:102168005DEC44F00FEC40F0070E1B6E760E1A6E15
:10217800670E1C6EFD0E1D6E3DEC43F0010E1D6ECC
:10218800890E1C6E50EC43F01C041D10D8A4CFEF30
:1021980010F0D1EF10F0E1EF10F0010E1C6E890E77
:1021A8001B6E000E1E6E000E1D6EE0EC43F0000E5E
:1021B800196E2F0E186EF1EC43F01200010E1D6E11
:1021C8007E0E1C6EC7EC42F01CC030F01DC031F012
:1021D8001EC032F01FC033F027EC2DF0010E1D6E2B
:1021E800800E1C6EC7EC42F01CC030F01DC031F0F0
:1021F8001EC032F01FC033F027EC2DF0010E136E15
:102208007C0E126E560E146E000E156E040E166EAF
:102218004CEC29F058C03AF03B6A3C6A3D6A3CC035
:102228003DF03BC03CF03AC03BF03A6A57C03EF044
:102238003F6A406A416A3FC041F03EC040F03F6A91
:102248003E6A56C042F0436A446A456A42C045F055
:10225800446A436A426A3E504224466E3F504320D5
:10226800476E40504420486E41504520496E3A50D0
:1022780046244A6E3B5047204B6E3C5048204C6EDB
:102288003D5049204D6E59504A240001896F000E77
:102298004B208A6F000E4C208B6F000E4D208C6FE8
:1022A800010E136E7E0E126E560E146E000E156E13
:1022B800040E166E4CEC29F058C03AF03B6A3C6AA2
:1022C8003D6A3CC03DF03BC03CF03AC03BF03A6A46
:1022D80057C03EF03F6A406A416A3FC041F03EC085
:1022E80040F03F6A3E6A56C042F0436A446A456A13
:1022F80042C045F0446A436A426A3E504224466EF0
:102308003F504320476E40504420486E415045207E
:10231800496E3A5046244A6E3B5047204B6E3C501B
:1023280048204C6E3D5049204D6E59504A24526EFB
:10233800000E4B20536E000E4C20546E000E4D20A4
:10234800556E010E136E800E126E560E146E000E30
:10235800156E040E166E4CEC29F058C03AF03B6A24
:102368003C6A3D6A3CC03DF03BC03CF03AC03BF0A3
:102378003A6A57C03EF03F6A406A416A3FC041F03E
:102388003EC040F03F6A3E6A56C042F0436A446A23
:10239800456A42C045F0446A436A426A3E50422454
:1023A800466E3F504320476E40504420486E41508F
:1023B8004520496E3A5046244A6E3B5047204B6EA2
:1023C8003C5048204C6E3D5049204D6E59504A248F
:1023D8004E6E000E4B204F6E000E4C20506E000EBD
:1023E8004D20516E000189518A118B118C11D8B47E
:1023F80000EF12F002EF12F018EF12F052505310E3
:1024080054105510D8B40BEF12F00DEF12F018EF6E
:1024180012F04E504F1050105110D8A416EF12F071
:1024280018EF12F01DEF12F0230E5DEC44F097EF59
:1024380012F0000E0E6E0B0E0D6EE8EC3FF0000170
:1024480089510D180DE18A510E180AE18B510F18A8
:1024580007E18C511018D8A434EF12F036EF12F0BF
:1024680094EF12F04E5052180DE14F5053180AE1F4
:102478005050541807E151505518D8A446EF12F09F
:1024880048EF12F08FEF12F0000E296E0B0E286E37
:1024980052C02AF053C02BF054C02CF055C02DF078
:1024A80008EC41F052C089F053C08AF054C08BF058
:1024B80055C08CF030EC44F0010E1B6E7C0E1A6E89
:1024C800000E1C6E000E1D6E000E1E6E000E1F6E9E
:1024D800AEEC3DF0010E1B6E7E0E1A6E000E1C6EE9
:1024E800000E1D6E000E1E6E000E1F6EAEEC3DF04F
:1024F800010E1B6E800E1A6E000E1C6E000E1D6EF5
:10250800000E1E6E000E1F6EAEEC3DF0220E5DEC4E
:1025180044F097EF12F0210E5DEC44F097EF12F0C3
:10252800200E5DEC44F01200ACC23CF0ADC23BF0B2
:10253800AEC23AF0AFC239F0F3EF13F0AB512F6EE1
:10254800AC51226E2FC023F0ADC224F00FEC3BF04B
:10255800030E99EC42F040EC44F041EF14F0AB511B
:102568002F6EAC51096E2FC00AF0C7EC40F0376EE1
:10257800010E99EC42F0375089EC43F041EF14F02A
:10258800AC51ABC22FF0306A2FC030F02F6A2F1039
:10259800336E3050346EAE51ADC22FF0306A2FC05A
:1025A80030F02F6A2F10316E3050326E33C028F061
:1025B80034C029F031C02AF032C02BF063EC43F06C
:1025C800030E99EC42F0AFEF12F0ABC20DF00E6AB9
:1025D800C0EC41F00DC035F00EC036F0020E99EC9B
:1025E80042F035C00AF036C00BF047EC44F041EF3A
:1025F80014F0ABC228F0296AAC0E2A6E020E2B6EBC
:1026080036EC40F0030E99EC42F0AFEF12F0ABC29B
:102618000DF00E6A600E0F6E010E106E28EC41F080
:102628004A0E99EC42F0600E0A6E010E0B6EF7EC42
:1026380039F041EF14F039C01FF03AC020F03BC028
:1026480021F03CC022F0B0C223F0AB5104EC43F0BF
:10265800030E99EC42F0AFEF12F039C023F03AC004
:1026680024F03BC025F03CC026F0AB51DCEC42F036
:10267800376E010E99EC42F0375089EC43F041EF88
:1026880014F039C01FF03AC020F03BC021F03CC024
:1026980022F0B151B0C22FF0306A2FC030F02F6A4B
:1026A8002F10236E3050246EAB51B0EC42F0030E65
:1026B80099EC42F0AFEF12F039C023F03AC024F0A1
:1026C8003BC025F03CC026F0AB5115EC42F023C0CE
:1026D80035F024C036F0020E99EC42F0F5EF12F016
:1026E800B0C238F039C00FF03AC010F03BC011F05A
:1026F8003CC012F038C013F0000E146E030E156EB5
:10270800AB511EEC19F0385099EC42F0000E0A6EED
:10271800030E0B6E38C00CF0F9EC41F041EF14F0E9
:1027280039C00CF03AC00DF03BC00EF03CC00FF0C1
:10273800B0C210F0B10E116E020E126EAB511EEC4B
:102748001AF0030E99EC42F0AFEF12F039C00CF01A
:102758003AC00DF03BC00EF03CC00FF0B00E106E4A
:10276800020E116EAB51BFEC24F0030E99EC42F04F
:10277800AFEF12F039C00FF03AC010F03BC011F0C3
:102788003CC012F0600E136E010E146EAB5116ECC5
:1027980018F0600E096E010E0A6E98EC3FF00950B1
:1027A80099EC42F017EF13F0AC512F6EAD51286E33
:1027B8002FC029F0AB51C3EC3EF0030E99EC42F068
:1027C800AFEF12F0AB512F6EAC51186E2FC019F04D
:1027D8004CEC42F0030E99EC42F0AFEF12F002011C
:1027E800A9512F6E306A3050000AD8B4FEEF13F0AA
:1027F80041EF14F02F50080AD8B4A2EF12F0010AE2
:10280800D8B4B3EF12F0030AD8B4C4EF12F0010A37
:10281800D8B4E9EF12F0070AD8B4FDEF12F0010AB4
:10282800D8B40BEF13F01C0AD8B41FEF13F0030A47
:10283800D8B431EF13F0010AD8B445EF13F0070A02
:10284800D8B460EF13F0010AD8B4AAEF13F0030A62
:10285800D8B4BEEF13F0010AD8B494EF13F00F0AFE
:10286800D8B474EF13F0010AD8B4D8EF13F0380ACB
:10287800D8B4E6EF13F041EF14F01200200E096E01
:10288800000E0A6E000E0B6E000E0C6EEFEC3EF0A2
:10289800000E306E80EF14F030C009F00A6A000EA6
:1028A8000C6E020E0B6E79EC33F009282C6E30504A
:1028B800010B2F6E2FC027F01A0E0C6E010E0D6E35
:1028C800270E0E6E000E0F6E2C506DEC2AF0305055
:1028D800020DD40EF324D96E010EF420DA6E0CC06A
:1028E800DEFF0DC0DDFF510E2C24D96EDA6A010E11
:1028F800DA22010EDF6E302A7150020D3050236E3D
:10290800246AF350235C2450800A256EF450800A10
:102918002558D8A092EF14F094EF14F050EF14F06B
:10292800320E096E000E0A6E000E0B6E000E0C6E53
:10293800EFEC3EF00001CB87000E306EA4EF15F0EF
:10294800000E1C6E990E1B6E3050020DD40EF3242F
:10295800D96E010EF420DA6EDECF1DF0DDCF1EF049
:10296800E0EC43F03050020DD40EF324D96E010E82
:10297800F420DA6EDECF9DF0DDCF9EF0A3EF15F0E8
:10298800000E1C6E970E1B6E3050020DD40EF324F1
:10299800D96E010EF420DA6EDECF1DF0DDCF1EF009
:1029A800E0EC43F03050020DD40EF324D96E010E42
:1029B800F420DA6EDECF9FF0DDCFA0F0A3EF15F0A4
:1029C800000E1C6E960E1B6E3050020DD40EF324B2
:1029D800D96E010EF420DA6EDECF1DF0DDCF1EF0C9
:1029E800E0EC43F03050020DD40EF324D96E010E02
:1029F800F420DA6EDECFA1F0DDCFA2F0A3EF15F060
:102A08003050FC0F2F6E2F500C0DF3CF23F0F4CF66
:102A180024F0E60E23242A6E000E24202B6E900E3E
:102A28002F242D6E2E6A010E2E22010E2A241B6ED3
:102A3800000E2B201C6E2F50236E246AD89023364C
:102A48002436DC0E2324D96E010E2420DA6EDECF64
:102A58001DF0DDCF1EF0E0EC43F02F50236E246A0A
:102A6800D89023362436DC0E2324D96E010E242078
:102A7800DA6E010EDBAE4AEF15F0700EDE5CFE0E6C
:102A8800DE58D8B04AEF15F04CEF15F058EF15F0B6
:102A98002DC01BF02EC01CF0000E1E6E010E1D6E08
:102AA800E0EC43F0A3EF15F02F50236E246AD89082
:102AB80023362436DC0E2324D96E010E2420DA6E48
:102AC800DE2806E1DE28D8A46CEF15F06EEF15F0CD
:102AD8007AEF15F02DC01BF02EC01CF0000E1E6EF4
:102AE800000E1D6EE0EC43F0A3EF15F02DC01BF0B7
:102AF8002EC01CF0000E1E6E030E1D6EE0EC43F09F
:102B0800A3EF15F03050236E246A2450000AD8B47D
:102B180090EF15F004EF15F02350000AD8B4A4EF95
:102B280014F0010AD8B4C4EF14F0030AD8B4E4EFDF
:102B380014F0010AD8B4A3EF15F004EF15F0302A09
:102B48007150020D3050236E246AF350235C2450D8
:102B5800800A256EF450800A2558D8A0B6EF15F0E3
:102B6800B8EF15F086EF15F00001CB971200000EB4
:102B78001D6EA80E1C6E50EC43F01C041D10D8A44A
:102B8800C8EF15F0CAEF15F0F4EF15F0000E1C6E43
:102B9800A80E1B6E000E1E6E000E1D6EE0EC43F0BC
:102BA8000001C651D8B4DBEF15F0DDEF15F0EFEFFB
:102BB80015F0000E476E475032EC23F0472A0E0EF0
:102BC8004764E9EF15F0EBEF15F0DFEF15F00FECC8
:102BD80040F0F4EF15F0520E5DEC44F0CFEC43F00A
:102BE800000E1D6EA70E1C6E50EC43F01C041D1049
:102BF800D8A401EF16F003EF16F049EF16F0000E17
:102C08001C6EA70E1B6E000E1E6E000E1D6EE0ECF5
:102C180043F00001C651D8B414EF16F016EF16F0C1
:102C280044EF16F0640E1E6EFE0E1F6E070E216E28
:102C3800D00E206E000E226E010E236E4EEC36F082
:102C4800000E486E4850DDEC29F0482A090E486409
:102C580030EF16F032EF16F026EF16F0940E1E6ED7
:102C6800FF0E1F6E070E216ED00E206E010E226E13
:102C7800000E236E4EEC36F00FEC40F049EF16F0E4
:102C8800520E5DEC44F0CFEC43F0000E1D6EA60E24
:102C98001C6E50EC43F01C041D10D8A456EF16F01F
:102CA80058EF16F092EF16F0000E1C6EA60E1B6E73
:102CB800000E1E6E000E1D6EE0EC43F00001C651C2
:102CC800D8B469EF16F06BEF16F08DEF16F0C10E61
:102CD8001E6EFE0E1F6E070E216ED00E206E000EA9
:102CE800226E010E236E4EEC36F01BEC1BF0940E98
:102CF8001E6EFF0E1F6E070E216ED00E206E010E87
:102D0800226E000E236E4EEC36F00FEC40F092EF80
:102D180016F0520E5DEC44F0CFEC43F0000E1D6E41
:102D2800A90E1C6E50EC43F01C041D10D8A49FEF94
:102D380016F0A1EF16F005EF17F0000E1C6EA90EA5
:102D48001B6E000E1E6E000E1D6EE0EC43F00001BF
:102D5800C651D8B4B2EF16F0B4EF16F000EF17F082
:102D68009F0E1E6EFF0E1F6E070E216ED00E206E78
:102D7800000E226E010E236E4EEC36F0130E00018B
:102D8800F819F911D8A4CBEF16F0CDEF16F0CFEF64
:102D980016F0000E466E150EF819F911D8A4D7EFE3
:102DA80016F0D9EF16F0DBEF16F0050E466E050E9D
:102DB800316E465021EC30F0000E496E495032EC2D
:102DC80023F0492A0E0E4964ECEF16F0EEEF16F0E8
:102DD800E2EF16F00FEC40F0BE0E1E6EFF0E1F6EF7
:102DE800070E216ED00E206E010E226E000E236E8D
:102DF8004EEC36F005EF17F0520E5DEC44F0CFECD8
:102E080043F0120081EC40F0150E206EFE0E216E8C
:102E1800A2EC2CF00C0E206EFF0E216EA2EC2CF012
:102E2800000E1D6EAA0E1C6E50EC43F01C041D1003
:102E3800D8A421EF17F023EF17F015EF18F0000EC4
:102E48001C6EAA0E1B6E000E1E6E000E1D6EE0ECB0
:102E580043F0000E196E000E186EF1EC43F0000EF0
:102E68000E6E220E0D6EC0EC41F00DC029F00EC0A2
:102E78002AF029C018F02AC019F0000E1A6E030EA5
:102E88001B6E000E1D6E0A0E1C6ED9EC26F0600E2D
:102E98000D6E010E0E6E890E0F6EFF0E106EDFECBA
:102EA8003DF0600E176E010E186E000E196E030EBF
:102EB8001A6E2AEC43F0600E206E010E216EA2EC11
:102EC8002CF0010E286ECEEF17F0600E0D6E010E7D
:102ED8000E6EE90E0F6EFF0E106EDFEC3DF028C08F
:102EE80018F0196A000E1A6E030E1B6E000E1D6E86
:102EF8000A0E1C6ED9EC26F0600E176E010E186EC5
:102F0800000E196E030E1A6E2AEC43F0000E0D6EB9
:102F1800030E0E6E900E0F6EFF0E106EDFEC3DF07E
:102F2800600E176E010E186E000E196E030E1A6EE3
:102F38002AEC43F0100E256E0B0E0C6E010E0D6E72
:102F4800250E0E6E000E0F6E28506DEC2AF00CC088
:102F580029F00DC02AF029C018F02AC019F0000E77
:102F68001A6E030E1B6E000E1D6E0A0E1C6ED9EC37
:102F780026F0600E176E010E186E000E196E030E05
:102F88001A6E2AEC43F0600E206E010E216EA2EC40
:102F98002CF0282A2850715CD8B0D5EF17F0D7EF5D
:102FA80017F069EF17F0D50E206EFE0E216EA2EC19
:102FB8002CF0000E0E6EE80E0D6EC0EC41F00DC048
:102FC80029F00EC02AF029C018F02AC019F0600EA6
:102FD8001A6E010E1B6E000E1D6E0A0E1C6ED9ECC9
:102FE80026F0600E176E010E186EAA0E196EFF0EEF
:102FF8001A6E2AEC43F0600E206E010E216EA2ECD0
:103008002CF0980E096E3A0E0A6E000E0B6E000E2A
:103018000C6E6AEC3EF0000E196E0F0E186EF1EC95
:1030280043F012001E6E000E1F6E125009E1020ED0
:10303800115CD8A022EF18F024EF18F026EF18F052
:103048001DEF19F0125008E11104D8A02EEF18F066
:1030580030EF18F034EF18F0080E1F6E36EF18F046
:10306800000E1F6E1EC020F0D8902036A00E201231
:1030780020801F50201226EC44F020C015F0FE0ED0
:10308800151615500A6E0B6A53EC44F010C00AF07E
:103098000B6A53EC44F00FC00AF00B6A53EC44F08F
:1030A80066EC44F020C00AF00B6A53EC44F0000EC2
:1030B8001D6E125009E1020E115CD8A066EF18F0DF
:1030C80068EF18F06AEF18F00EEF19F0010E0F24F0
:1030D800156E000E1020166E000E1120176E000ED1
:1030E8001220186E7F0E1514196E000E16141A6E23
:1030F800000E17141B6E000E18141C6E19501A10AF
:103108001B101C10D8A48BEF18F08DEF18F0E1EF0E
:1031180018F0000E0B6E000E0A6EA4EC40F00A5078
:1031280013C0D9FF14C0DAFFDF6E58EC44F0340E38
:10313800156EF20EE82EFED7152EFCD7010E0F26BF
:10314800000E102211221222134A142A125008E1EA
:103158001104D8A0B2EF18F0B4EF18F0B8EF18F0D7
:10316800080E1F6EBAEF18F0000E1F6E1EC020F07A
:10317800D8902036A00E201220801F50201226EC56
:1031880044F020C015F0FE0E151615500A6E0B6A95
:1031980053EC44F010C00AF00B6A53EC44F00FC033
:1031A8000AF00B6A53EC44F066EC44F020C00AF0D5
:1031B8000B6A53EC44F003EF19F0000E0B6E010E8E
:1031C8000A6EA4EC40F00A5013C0D9FF14C0DAFF0D
:1031D800DF6E13C0D9FF14C0DAFFDF50D8A4F7EFB1
:1031E80018F0F9EF18F0FBEF18F00EEF19F0134A8A
:1031F800142A010E0F26000E1022112212221D2A57
:103208001D04156E3F0E15640CEF19F00EEF19F042
:103218005DEF18F0000E0B6E000E0A6EA4EC40F085
:1032280058EC44F0070E156EC00EE82EFED7152E8A
:10323800FCD71200206E000E216E000E0001BC6F3C
:10324800050EBB6F125009E1020E115CD8A02FEFDA
:1032580019F031EF19F033EF19F01DEF1AF0125091
:1032680008E11104D8A03BEF19F03DEF19F041EF48
:1032780019F0080E216E43EF19F0000E216E20C0E0
:1032880022F0D8902236A00E22122280215022123B
:1032980026EC44F022C016F0FE0E161616500A6EE2
:1032A8000B6A53EC44F010C00AF00B6A53EC44F07C
:1032B8000FC00AF00B6A53EC44F066EC44F022C0ED
:1032C8000AF00B6A53EC44F0000E1F6E05EF1AF07B
:1032D800125009E1020E115CD8A075EF19F077EFD2
:1032E80019F079EF19F00EEF1AF0010E0F24166E8F
:1032F800000E1020176E000E1120186E000E1220FE
:10330800196E7F0E16141A6E000E17141B6E000E1F
:1033180018141C6E000E19141D6E1A501B101C1068
:103328001D10D8A49AEF19F09CEF19F0F0EF19F0DE
:10333800000E0B6E000E0A6EA4EC40F00A5014C08A
:10334800D9FF15C0DAFFDF6E58EC44F0340E166E64
:10335800F20EE82EFED7162EFCD7010E0F26000E11
:10336800102211221222144A152A125008E11104BF
:10337800D8A0C1EF19F0C3EF19F0C7EF19F0080E84
:10338800216EC9EF19F0000E216E20C022F0D890EE
:103398002236A00E221222802150221226EC44F05E
:1033A80022C016F0FE0E161616500A6E0B6A53EC63
:1033B80044F010C00AF00B6A53EC44F00FC00AF056
:1033C8000B6A53EC44F066EC44F022C00AF00B6A36
:1033D80053EC44F004EF1AF0000E0B6E010E0A6E67
:1033E800A4EC40F00A5014C0D9FF15C0DAFFDF6E14
:1033F800144A152A010E0F26000E1022112212223D
:103408001F2A13501F5CD8A00CEF1AF00EEF1AF009
:103418006CEF19F0000E0B6E000E0A6EA4EC40F073
:1034280058EC44F0070E166EC00EE82EFED7162E86
:10343800FCD712001C6E000E0001BC6F050EBB6F9E
:103448000F5009E1020E0E5CD8A02DEF1AF02FEFF5
:103458001AF031EF1AF01AEF1BF00F5008E10E04C2
:10346800D8A039EF1AF03BEF1AF03FEF1AF0080E28
:103478001D6E41EF1AF0000E1D6E1CC01EF0D89094
:103488001E36A00E1E121D501E1226EC44F01EC041
:103498000AF00B6A53EC44F00DC00AF00B6A53ECC7
:1034A80044F00CC00AF00B6A53EC44F0000E1B6E9B
:1034B800E9EF1AF00F5009E1020E0E5CD8A067EF91
:1034C8001AF069EF1AF06BEF1AF01AEF1BF0010E01
:1034D8000C24136E000E0D20146E000E0E20156EB7
:1034E800000E0F20166E7F0E1314176E000E1414A4
:1034F800186E000E1514196E000E16141A6E175059
:10350800181019101A10D8A48CEF1AF08EEF1AF0B0
:10351800D5EF1AF011C0D9FF12C0DAFFDF50136ED1
:1035280013500A6E0B6A53EC44F058EC44F0340E16
:10353800136EF20EE82EFED7132EFCD7010E0C26C2
:10354800000E0D220E220F22114A122A0F5008E1F6
:103558000E04D8A0B2EF1AF0B4EF1AF0B8EF1AF0D0
:10356800080E1D6EBAEF1AF0000E1D6E1CC01EF07C
:10357800D8901E36A00E1E121D501E1226EC44F0C6
:103588001EC00AF00B6A53EC44F00DC00AF00B6A37
:1035980053EC44F00CC00AF00B6A53EC44F0E8EF2B
:1035A8001AF011C0D9FF12C0DAFFDF50136E1350A2
:1035B8000A6E0B6A53EC44F0114A122A010E0C26CB
:1035C800000E0D220E220F221B2AFF0E136EFF0E75
:1035D800146E1050156E166A1350152614501622C4
:1035E8001B50176E186A1550175C1850800A196E10
:1035F8001650800A1958D8A004EF1BF006EF1BF0EC
:103608005EEF1AF011C0D9FF12C0DAFFDF50136E57
:1036180013500A6E0B6A53EC44F058EC44F0340E25
:10362800136EF20EE82EFED7132EFCD71200040EEE
:103638001D6E1DC009F00A6A000E0C6E020E0B6E9C
:1036480079EC33F00928216E1D50010B226E1D50B4
:10365800120DF350EC0F1C6E010E1C240D6E0E6A39
:10366800000E0E22C0EC41F00DC01AF00EC01BF087
:103678002250070DF3CF1EF01BC01FF01AC020F018
:103688000A0E0C6E030E0D6E1E0E0E6E000E0F6EE1
:1036980021506DEC2AF0070E196E170E186E6A0E7F
:1036A800E82EFED7182EFCD7192EFAD700D02250B4
:1036B800070DF350020F1E6E030E1C24096E0A6AD2
:1036C800000E0A22C7EC40F01F6E080E0C6E020EA8
:1036D8000D6E1E0E0E6E000E0F6E21506DEC2AF050
:1036E800070E196E170E186E6A0EE82EFED7182EE2
:1036F800FCD7192EFAD700D02250070DF350030F2C
:103708001E6E040E1C24096E0A6A000E0A22C7ECFB
:1037180040F01F6E080E0C6E020E0D6E1E0E0E6E21
:10372800000E0F6E21506DEC2AF0070E196E170E61
:10373800186E6A0EE82EFED7182EFCD7192EFAD767
:1037480000D02250070DF350040F1E6E050E1C24E6
:10375800096E0A6A000E0A22C7EC40F01F6E080EB6
:103768000C6E020E0D6E1E0E0E6E000E0F6E2150A8
:103778006DEC2AF0070E196E170E186E6A0EE82EF9
:10378800FED7182EFCD7192EFAD700D0100E1C24FD
:103798000D6E0E6A000E0E22C0EC41F00DC01AF03C
:1037A8000EC01BF02250070DF350050F1E6E1BC0F4
:1037B8001FF01AC020F00A0E0C6E030E0D6E1E0EBE
:1037C8000E6E000E0F6E21506DEC2AF0070E196E6A
:1037D800170E186E6A0EE82EFED7182EFCD7192E73
:1037E800FAD700D02204D8A4FCEF1BF0FEEF1BF0A0
:1037F80009EF1CF0010E0C6E000E0D6E1E0E0E6E03
:10380800000E0F6E21506DEC2AF01D2A0E0E1D645D
:1038180010EF1CF012EF1CF01DEF1BF01200030E4E
:103828000C6E000E0D6E000E0E6E030E0F6E2850FD
:103838006DEC2AF0000E716E600E0D6E010E0E6EAC
:10384800670E0F6EFD0E106EDFEC3DF0600E176E0A
:10385800010E186EFA0E196EFE0E1A6E2AEC43F05F
:10386800600E176E010E186ED90E196EFF0E1A6EC5
:103878002AEC43F0600E206E010E216EA2EC2CF0B3
:10388800010E286E640E096E000E0A6E000E0B6E95
:10389800000E0C6E6AEC3EF0030E0C6E000E0D6E00
:1038A800000E0E6E030E0F6E28506DEC2AF00CC041
:1038B80026F00DC027F027C025F0262808E1272884
:1038C800D8B469EF1CF06BEF1CF0CEEF1CF0712A36
:1038D800600E0D6E010E0E6E670E0F6EFD0E106EF1
:1038E800DFEC3DF028C018F0196A600E1A6E010E60
:1038F8001B6E000E1D6E0A0E1C6ED9EC26F0600EB3
:10390800176E010E186EF50E196EFF0E1A6E2AEC60
:1039180043F0600E176E010E186E2550020DF20E60
:10392800F324D96E010EF420DA6EDECF19F0DDCF64
:103938001AF02AEC43F0600E176E010E186E660E30
:10394800196EFD0E1A6E2AEC43F0000E0D6E030E72
:103958000E6E660E0F6EFD0E106EDFEC3DF02B0E38
:103968000C6E000E0D6E000E0E6E030E0F6E2850BC
:103978006DEC2AF0600E176E010E186E000E196EAF
:10398800030E1A6E2AEC43F0600E206E010E216EB3
:10399800A2EC2CF0282A0E0E2864D5EF1CF0D7EFE5
:1039A8001CF046EF1CF07150D8A4DDEF1CF0DFEFDF
:1039B8001CF0E7EF1CF04B0E206EFE0E216EA2EC01
:1039C8002CF004EF1DF071C018F0196A600E1A6E21
:1039D800010E1B6E000E1D6E0A0E1C6ED9EC26F031
:1039E800600E176E010E186E7D0E196EFE0E1A6EA1
:1039F8002AEC43F0600E206E010E216EA2EC2CF032
:103A08001200000E1D6E040E1C6E50EC43F01C04D8
:103A18001D10D8A412EF1DF014EF1DF045EF1DF096
:103A28000001CCB71AEF1DF01CEF1DF045EF1DF09B
:103A3800CCB721EF1DF023EF1DF025EF1DF00FECA3
:103A480040F00001CC876D50A15DA251800A2E6E16
:103A58006E50800A2E58D8B034EF1DF036EF1DF0A6
:103A68003EEF1DF0010E9CEC43F0010EADEC3CF076
:103A7800F4EF1DF0000E9CEC43F0E8EC40F0F4EF9E
:103A88001DF0000E1D6E040E1C6E50EC43F01C5011
:103A98001D10D8A452EF1DF054EF1DF0C2EF1DF019
:103AA8000001CCA75AEF1DF05CEF1DF0C2EF1DF02E
:103AB800CC97000E9CEC43F0000E1C6E060E1B6E9D
:103AC800000E1E6E000E1D6EE0EC43F0420E5DEC23
:103AD80044F0000E1C6E160E1B6E000E1E6E000EBD
:103AE8001D6EE0EC43F0000E306E000E2F6E010EDE
:103AF800096E000E0A6E000E0B6E000E0C6EEFECD7
:103B08003EF0000E1D6E060E1C6E50EC43F01C506D
:103B18001D10D8B492EF1DF094EF1DF096EF1DF034
:103B2800A7EF1DF004002F4A302A30BEA5EF1DF084
:103B3800100E2F5C270E3058D8A0A5EF1DF0A7EF68
:103B48001DF07BEF1DF0000E1D6E060E1C6E50EC76
:103B580043F0F10E1C181D10D8A4B5EF1DF0B7EFF7
:103B68001DF0F4EF1DF0000EADEC3CF0000E736E8E
:103B7800000E746E0FEC40F0F4EF1DF0000E1D6E99
:103B8800040E1C6E50EC43F01C041D10D8A4CFEF9B
:103B98001DF0D1EF1DF0F4EF1DF00001CCA7D7EF19
:103BA8001DF0D9EF1DF0F4EF1DF06D50A15DA2518D
:103BB800800A2E6E6E50800A2E58D8B0E6EF1DF09F
:103BC800E8EF1DF0EFEF1DF0010E9CEC43F0000153
:103BD800CB89F4EF1DF0000E9CEC43F041EF1DF093
:103BE80012005A0E0B6EA50E0A6E47EC44F0030E37
:103BF80089EC43F0810E89EC43F0200E89EC43F008
:103C0800070E89EC43F097EC3EF00009D8B40FEFAB
:103C18001EF011EF1EF02EEF1EF0000E3D6E3D500F
:103C2800060F1F6E206AAA0E1F24D96E010E2020CF
:103C3800DA6E210E3D24E16EE26A000EE222DFCF49
:103C4800E7FF3D2A090E3D642CEF1EF02EEF1EF013
:103C580013EF1EF02B0E096E000E0A6E2150DDECDC
:103C680041F02E0E096E000E0A6E2250DDEC41F076
:103C7800310E096E000E0A6E2350DDEC41F01BC0B8
:103C88000DF01CC00EF0670E0F6EFD0E106EDFEC0F
:103C98003DF01BC017F01CC018F0310E196E000E55
:103CA8001A6E2AEC43F01BC017F01CC018F0FC0E6B
:103CB800196EFF0E1A6E2AEC43F01BC017F01CC0D9
:103CC80018F02E0E196E000E1A6E2AEC43F01BC067
:103CD80017F01CC018F0FC0E196EFF0E1A6E2AECB5
:103CE80043F01BC017F01CC018F02B0E196E000E05
:103CF8001A6E2AEC43F0340E096E000E0A6E255037
:103D0800DDEC41F0370E096E000E0A6E2650DDEC30
:103D180041F03A0E096E000E0A6E2750DDEC41F0B4
:103D28001DC00DF01EC00EF0670E0F6EFD0E106E5A
:103D3800DFEC3DF01DC017F01EC018F0340E196EF0
:103D4800000E1A6E2AEC43F01DC017F01EC018F0C2
:103D5800E60E196EFE0E1A6E2AEC43F01DC017F01F
:103D68001EC018F0370E196E000E1A6E2AEC43F0BA
:103D78001DC017F01EC018F0E60E196EFE0E1A6E62
:103D88002AEC43F01DC017F01EC018F03A0E196E49
:103D9800000E1A6E2AEC43F0010E096E000E0A6E30
:103DA800000E0B6E000E0C6EEFEC3EF01200466E2D
:103DB8000B0E4664E2EF1EF0E4EF1EF0ECEF1EF08F
:103DC800030E196EE80E186E4CEC42F0BDEF1FF0B2
:103DD8004650360DF3CF44F0F4CF45F0100E44268C
:103DE800000E452244C047F045C048F0000E48BECA
:103DF800FF0E496E4A6E47C023F048C024F049C000
:103E080025F04AC026F0000E15EC42F023C001F15F
:103E180024C002F1020E47240F6E000E4820106ED7
:103E2800000E4920116E000E4A20126E0D0E136E00
:103E3800010E146E000E16EC18F00C0E47240F6ECF
:103E4800000E4820106E000E4920116E000E4A2008
:103E5800126E030E136E010E146E000E16EC18F09F
:103E6800160E47240F6E000E4820106E000E4920D3
:103E7800116E000E4A20126E210E136E010E146E82
:103E8800000E16EC18F0200E47240F6E000E482086
:103E9800106E000E4920116E000E4A20126E170E89
:103EA800136E010E146E000E16EC18F02A0E47243D
:103EB800236E000E4820246E000E4920256E000E49
:103EC8004A20266E000EDCEC42F001012B6F2B0E0F
:103ED8004724236E000E4820246E000E4920256ECC
:103EE800000E4A20266E000E3CEC34F023C02CF164
:103EF80024C02DF125C02EF126C02FF12F0E472406
:103F0800236E000E4820246E000E4920256E000EF8
:103F18004A20266E000E3CEC34F023C030F124C059
:103F280031F125C032F126C033F1330E4724236E18
:103F3800000E4820246E000E4920256E000E4A20EF
:103F4800266E000E15EC42F023C034F124C035F182
:103F5800350E4724236E000E4820246E000E49209B
:103F6800256E000E4A20266E000EDCEC42F00101A0
:103F7800366F12002E6E0B0E2E64C5EF1FF0C7EFC2
:103F88001FF0CFEF1FF0030E196EE80E186E4CEC01
:103F980042F0A0EF20F02E50360DF3CF2CF0F4CFE6
:103FA8002DF0100E2C26000E2D222CC02FF02DC027
:103FB80030F0000E30BEFF0E316E326E2FC01FF093
:103FC80030C020F031C021F032C022F001C123F00E
:103FD80002C124F0000EB0EC42F0020E2F240C6E49
:103FE800000E30200D6E000E31200E6E000E3220B5
:103FF8000F6E0D0E106E010E116E000EBFEC24F048
:104008000C0E2F240C6E000E30200D6E000E312089
:104018000E6E000E32200F6E030E106E010E116E22
:10402800000EBFEC24F0160E2F240C6E000E30206C
:104038000D6E000E31200E6E000E32200F6E210E16
:10404800106E010E116E000EBFEC24F0200E2F240E
:104058000C6E000E30200D6E000E31200E6E000E1C
:1040680032200F6E170E106E010E116E000EBFEC8F
:1040780024F02A0E2F241F6E000E3020206E000E12
:104088003120216E000E3220226E2BC123F0000E4B
:1040980004EC43F02B0E2F241F6E000E3020206EF0
:1040A800000E3120216E000E3220226E2CC123F02A
:1040B8002DC124F02EC125F02FC126F0000E31ECC1
:1040C80042F02F0E2F241F6E000E3020206E000E9F
:1040D8003120216E000E3220226E30C123F031C112
:1040E80024F032C125F033C126F0000E31EC42F045
:1040F800330E2F241F6E000E3020206E000E31204C
:10410800216E000E3220226E34C123F035C124F016
:10411800000EB0EC42F0350E2F241F6E000E30203A
:10412800206E000E3120216E000E3220226E36C124
:1041380023F0000E04EC43F01200000E1C6E020E79
:104148001B6E000E1E6E000E1D6EE0EC43F0000E9E
:104158001C6E030E1B6E000E1E6E000E1D6EE0EC34
:1041680043F0000E1C6E040E1B6E000E1E6E000E39
:104178001D6EE0EC43F0000E1C6E050E1B6E000E6B
:104188001E6E000E1D6EE0EC43F00001CC99000E8F
:104198000A6E100E096EC7EC40F00001CC6FCC51CE
:1041A800D8B4D9EF20F0DBEF20F07BEF21F0680ED8
:1041B800206EFD0E216EA2EC2CF0C10E206EFD0EBD
:1041C800216EA2EC2CF0000EADEC3CF00001CCA16D
:1041D800F0EF20F0F2EF20F005EF21F0CC91B40ED3
:1041E800206EFF0E216EA2EC2CF0000E1C6E020E4B
:1041F8001B6E000E1E6E010E1D6EE0EC43F03FECD0
:104208003AF00001CCA50BEF21F00DEF21F02AEFD9
:1042180021F0CC951E0E206EFF0E216EA2EC2CF024
:10422800000E1C6E030E1B6E000E1E6E010E1D6E20
:10423800E0EC43F0A2EC36F0100E096E270E0A6E81
:10424800000E0B6E000E0C6E6AEC3EF00001CCA75F
:1042580030EF21F032EF21F050EF21F0CC97CC89EC
:10426800C70E206EFF0E216EA2EC2CF0000E1C6E05
:10427800040E1B6E000E1E6E010E1D6EE0EC43F068
:1042880005EC1DF0100E096E270E0A6E000E0B6E5F
:10429800000E0C6E6AEC3EF00001CCA356EF21F044
:1042A80058EF21F075EF21F0CC932D0E206EFF0E04
:1042B800216EA2EC2CF0000E1C6E050E1B6E000E7B
:1042C8001E6E010E1D6EE0EC43F01EEC28F0100E81
:1042D800096E270E0A6E000E0B6E000E0C6E6AEC4D
:1042E8003EF0000E196E0F0E186EF1EC43F0CCC0C4
:1042F800BFF01200000E136EB30E126EDF0E146EB6
:10430800000E156E040E166E4CEC29F0E1C028F074
:10431800296A2A6A2B6A2AC02BF029C02AF028C0E9
:1043280029F0286AE0C02CF02D6A2E6A2F6A2DC069
:104338002FF02CC02EF02D6A2C6ADFC030F0316AC5
:10434800326A336A30C033F0326A316A306A2C50CC
:104358003024346E2D503120356E2E503220366E7A
:104368002F503320376E28503424386E295035208A
:10437800396E2A5036203A6E2B5037203B6E00019A
:10438800E25138243C6E000E39203D6E000E3A2072
:104398003E6E000E3B203F6E3C503D103E103F10DD
:1043A800D8B4D9EF21F0DBEF21F057EF22F0895193
:1043B8003C180DE18A513D180AE18B513E1807E17E
:1043C8008C513F18D8A4EBEF21F0EDEF21F057EF17
:1043D80022F0000E1B6EB30E1A6E000E1C6E000E3D
:1043E8001D6E000E1E6E000E1F6EAEEC3DF0000E30
:1043F8001D6EB20E1C6E50EC43F01C041D10D8A4A8
:1044080008EF22F00AEF22F027EF22F0000E726E7A
:10441800000E0001C66FA569A669000E1C6EB20EDB
:104428001B6E000E1E6E000E1D6EE0EC43F0000EBB
:104438001C6E9A0E1B6E000E1E6E000E1D6EE0ECBA
:1044480043F053EF22F0000E1D6EB20E1C6E50ECBE
:1044580043F01C501D10D8A434EF22F036EF22F0A0
:1044680053EF22F0010E726E010E0001C66F000EAE
:10447800A66F0A0EA56F000E1C6EB20E1B6E000E04
:104488001E6E010E1D6EE0EC43F0000E1C6E9A0EBF
:104498001B6E000E1E6E010E1D6EE0EC43F030EC3C
:1044A80044F00FEC40F01200116E1150D8B45FEFD9
:1044B80022F061EF22F083EF22F00CBE68EF22F0C9
:1044C80066EF22F083EF22F009C00DF00AC00EF06B
:1044D8000BC00FF00CC010F00D1E0E1E0F1E101E8C
:1044E8000D2A000E0E220F2210220DC013F00EC04E
:1044F80014F00FC015F010C016F08BEF22F009C0B1
:1045080013F00AC014F00BC015F00CC016F00950D7
:104518000A100B100C10D8A494EF22F096EF22F09A
:10452800A0EF22F0000E096E000E0A6E000E0B6E50
:10453800000E0C6E31EF23F0960E126EAAEF22F0E9
:10454800122AD8901632153214321332000E131470
:104558000D6E000E14140E6E000E15140F6EFE0E66
:104568001614106E0D500E100F101010D8A4BFEFB7
:1045780022F0C1EF22F0A4EF22F0CFEF22F0122AAE
:10458800010E1326000E142215221622D890163278
:10459800153214321332000E13140D6E000E14145B
:1045A8000E6E000E15140F6EFF0E1614106E0D50C1
:1045B8000E100F101010D8A4E4EF22F0E6EF22F04E
:1045C800C3EF22F0EEEF22F01206D890133614361D
:1045D8001536163615BEF3EF22F0F5EF22F0FDEF93
:1045E80022F0020E1260FBEF22F0FDEF22F0E8EF5E
:1045F80022F012B002EF23F004EF23F005EF23F0CE
:10460800159ED890123212C00DF00E6A0F6A106A09
:104618000DC010F00F6A0E6A0D6A0D5013120E507D
:1046280014120F501512105016121150D8B41FEF53
:1046380023F021EF23F029EF23F00CBE28EF23F01D
:1046480026EF23F029EF23F0168E13C009F014C0CB
:104658000AF015C00BF016C00CF012002E6E2E508A
:10466800010B2A6E2AC027F02EC009F00A6A000E34
:104678000C6E020E0B6E79EC33F0030E2E6447EFCE
:1046880023F049EF23F0F8EF23F0040E2E5E2E50AE
:10469800120DF350340F2D6E2E50010B2A6E2AC0C6
:1046A80027F02EC009F00A6A000E0C6E020E0B6E7F
:1046B80079EC33F02E500C0DF3CF23F0F4CF24F027
:1046C800E60E23242B6E000E24202C6E2BC01BF02C
:1046D8002CC01CF02DC009F00A6AC7EC40F0236E0C
:1046E800010E23241D6E1E6A000E1E22E0EC43F00C
:1046F800020E2B241B6E000E2C201C6E010E2D2486
:104708000D6E0E6A000E0E22C0EC41F00DC01DF0B9
:104718000EC01EF0E0EC43F0030E2B241B6E000EBF
:104728002C201C6E030E2D24096E0A6A000E0A2224
:10473800C7EC40F0236E23501D6E1E6AE0EC43F078
:10474800040E2B241B6E000E2C201C6E040E2D2430
:10475800096E0A6A000E0A22C7EC40F0236E235045
:104768001D6E1E6AE0EC43F0050E2B241B6E000E36
:104778002C201C6E050E2D24096E0A6A000E0A22D2
:10478800C7EC40F0236E23501D6E1E6AE0EC43F028
:10479800060E2D240D6E0E6A000E0E22600E0F6E90
:1047A800010E106E28EC41F0060E2B241A6E000E36
:1047B8002C201B6E600E1C6E010E1D6E3DEC43F02E
:1047C8000B0E2B241B6E000E2C201C6E100E2D249D
:1047D8000D6E0E6A000E0E22C0EC41F00DC01DF0E9
:1047E8000EC01EF0E0EC43F01200000E136E9B0E9C
:1047F800126EDF0E146E000E156E040E166E4CEC63
:1048080029F0E1C025F0266A276A286A27C028F01F
:1048180026C027F025C026F0256AE0C029F02A6ABC
:104828002B6A2C6A2AC02CF029C02BF02A6A296A24
:10483800DFC02DF02E6A2F6A306A2DC030F02F6A43
:104848002E6A2D6A29502D24316E2A502E20326E60
:104858002B502F20336E2C503020346E25503124AD
:10486800356E26503220366E27503320376E28504A
:104878003420386E0001E2513524396E000E36209E
:104888003A6E000E37203B6E000E38203C6E3950D1
:104898003A103B103C10D8B454EF24F056EF24F0F3
:1048A8008EEF24F0895139180DE18A513A180AE13E
:1048B8008B513B1807E18C513C18D8A466EF24F0C3
:1048C80068EF24F08EEF24F0750EA66F300EA56FFA
:1048D800010EC66F000E1C6E9A0E1B6E000E1E6E29
:1048E800010E1D6EE0EC43F0000E1C6E9B0E1B6E5D
:1048F800000E1E6E000E1D6EE0EC43F0000E1C6EE6
:104908009C0E1B6E000E1E6E000E1D6EE0EC43F03A
:104918000FEC40F00001C605D8A495EF24F097EFFE
:1049280024F0ACEF24F0A6BF9EEF24F09CEF24F017
:10493800ACEF24F0000EC66F000E1C6E9A0E1B6EB4
:10494800000E1E6E000E1D6EE0EC43F0CFEC43F03F
:104958001BEC44F05A0AD8A4B4EF24F0B6EF24F0C4
:10496800BEEF24F0750E0001A66F300EA56F000E85
:1049780000EC44F012001A6E0F5009E1020E0E5CB2
:10498800D8A0C9EF24F0CBEF24F0CDEF24F07EEFD0
:1049980025F00F5008E10E04D8A0D5EF24F0D7EF8A
:1049A80024F0DBEF24F0080E1B6EDDEF24F0000E80
:1049B8001B6E1AC01CF0D8901C36A00E1C121B507F
:1049C8001C1226EC44F01CC00AF00B6A53EC44F0AD
:1049D8000DC00AF00B6A53EC44F00CC00AF00B6AE5
:1049E80053EC44F063EF25F00F5009E1020E0E5C22
:1049F800D8A001EF25F003EF25F005EF25F07EEFB5
:104A080025F0010E0C24126E000E0D20136E000E00
:104A18000E20146E000E0F20156E7F0E1214166EE7
:104A2800000E1314176E000E1414186E000E1514D1
:104A3800196E1650171018101910D8A426EF25F063
:104A480028EF25F050EF25F010C0D9FF11C0DAFF8C
:104A5800DF50126E12500A6E0B6A53EC44F058EC99
:104A680044F0340E126EF20EE82EFED7122EFCD74A
:104A7800010E0C26000E0D220E220F22104A112ABA
:104A88000F5008E10E04D8A04CEF25F04EEF25F0AA
:104A9800DBEF24F0D7EF24F010C0D9FF11C0DAFF04
:104AA800DF50126E12500A6E0B6A53EC44F0104A33
:104AB800112A010E0C26000E0D220E220F2210C004
:104AC800D9FF11C0DAFFDF50D8A46DEF25F06FEFE2
:104AD80025F0F8EF24F0000E0B6E000E0A6E53EC72
:104AE80044F058EC44F0340E126EF20EE82EFED765
:104AF800122EFCD7120020EE06F00D50D9260E50CB
:104B0800DA22DF50116E20EE07F00D50D9260E5034
:104B1800DA22DF50126E000E136E20EE03F00D50F5
:104B2800D9260E50DA22DF50146E20EE04F00D5014
:104B3800D9260E50DA22DF50156E000E166E0DC003
:104B4800D9FF0EC0DAFFDF50176E20EE01F00D50CE
:104B5800D9260E50DA22DF50186E000E196E0FC0DB
:104B6800D9FF10C0DAFFDF501A6E20EE01F00F50A7
:104B7800D9261050DA22DF501B6E000E1C6E20EE74
:104B880003F00F50D9261050DA22DF501D6E20EEA8
:104B980004F00F50D9261050DA22DF501E6E000E96
:104BA8001F6E20EE06F00F50D9261050DA22DF5083
:104BB800206E20EE07F00F50D9261050DA22DF5071
:104BC800216E000E226E5A0E0B6EA50E0A6E47EC71
:104BD80044F00A0E89EC43F0800E89EC43F01F0E76
:104BE80089EC43F05A0E89EC43F0110E096E000E61
:104BF8000A6EF0EC42F089EC43F0140E096E000ED8
:104C08000A6EF0EC42F089EC43F0170E096E000EC4
:104C18000A6EF0EC42F089EC43F0010E89EC43F0A7
:104C28001A0E096E000E0A6EF0EC42F089EC43F0A1
:104C38001D0E096E000E0A6EF0EC42F089EC43F08E
:104C4800200E096E000E0A6EF0EC42F089EC43F07B
:104C58001200296E29500C0DF3CF23F0F4CF24F065
:104C6800E60E23242A6E000E24202B6E2950120DE6
:104C7800F350340F2C6E2950010B286E29C009F00F
:104C88000A6A000E0C6E020E0B6E79EC33F028C027
:104C980025F02AC01BF02BC01CF02CC009F00A6AB2
:104CA800C7EC40F0236E23501D6E1E6AE0EC43F003
:104CB800020E2A241B6E000E2B201C6E010E2C24C3
:104CC8000D6E0E6A000E0E22C0EC41F00DC01DF0F4
:104CD8000EC01EF0E0EC43F0030E2A241B6E000EFB
:104CE8002B201C6E030E2C24096E0A6A000E0A2261
:104CF800C7EC40F0236E23501D6E1E6AE0EC43F0B3
:104D0800040E2A241B6E000E2B201C6E040E2C246D
:104D1800096E0A6A000E0A22C7EC40F0236E23507F
:104D28001D6E1E6AE0EC43F0050E2A241B6E000E71
:104D38002B201C6E050E2C24096E0A6A000E0A220E
:104D4800C7EC40F0236E23501D6E1E6AE0EC43F062
:104D5800060E2C240D6E0E6A000E0E22600E0F6ECB
:104D6800010E106E28EC41F0060E2A241A6E000E71
:104D78002B201B6E600E1C6E010E1D6E3DEC43F069
:104D88000B0E2A241B6E000E2B201C6E100E2C24DA
:104D98000D6E0E6A000E0E22C0EC41F00DC01DF023
:104DA8000EC01EF0E0EC43F01200000E246E000E60
:104DB800236E000E206E18501910D8A4E6EF26F0C6
:104DC800E8EF26F0FAEF26F01AC0D9FF1BC0DAFF89
:104DD800300EDF6E234A242A23501A24D96E245019
:104DE8001B20DA6E000EDF6E7EEF27F019BE01EF92
:104DF80027F0FFEF26F055EF27F00A0E1C181D10BC
:104E0800D8A409EF27F00BEF27F055EF27F0010E94
:104E1800206E186C191ED8B0192A55EF27F018C043
:104E280009F019C00AF01CC00BF01DC00CF0F3EC1F
:104E380034F009C021F00AC022F022BE2FEF27F07B
:104E4800225007E10A0E215CD8B02DEF27F02FEF92
:104E580027F037EF27F0300E21241E6E000E222097
:104E68001F6E3DEF27F0570E21241E6E000E2220E4
:104E78001F6E23501A24D96E24501B20DA6E1EC0D0
:104E8800DFFF234A242A18C009F019C00AF01CC001
:104E98000BF01DC00CF079EC33F009C018F00AC013
:104EA80019F018501910D8A45CEF27F05EEF27F01E
:104EB80013EF27F02050D8B464EF27F066EF27F0FF
:104EC80070EF27F023501A24D96E24501B20DA6E75
:104ED8002D0EDF6E234A242A23501A24D96E24501B
:104EE8001B20DA6E000EDF6E1AC00DF01BC00EF02C
:104EF80036EC38F01200000E0E6EFA0E0D6EC0EC95
:104F080041F00DC093F00EC094F0000E1C6ED60E4A
:104F18001B6E93C01DF094C01EF0E0EC43F0320EFF
:104F2800000193199411D8A49CEF27F09EEF27F065
:104F3800C1EF27F0F80E0101386F000E376F030E2E
:104F48003A6FE00E396F000E3C6F1F0E3B6F3D69E4
:104F58003E693F69406941694269436944694569F5
:104F680046694769486949694A694B694C694D69A5
:104F78004E694F6950691DEF28F0500E931994112E
:104F8800D8A4C9EF27F0CBEF27F002EF28F0000EE6
:104F98000101386F000E376F390E3A6FE70E396F1F
:104FA8006B0E3C6F6D0E3B6F780E3E6F000E3D6FC3
:104FB8009A0E406F230E3F6FF80E426F000E416F3E
:104FC800FB0E446FE00E436FFB0E466FF70E456F06
:104FD800D50E486F400E476F030E4A6FE00E496FBB
:104FE800070E4C6FE00E4B6F000E4E6F1F0E4D6F8D
:104FF800F80E506F1F0E4F6F1DEF28F00101376933
:10500800386939693A693B693C693D693E693F6974
:105018004069416942694369446945694669476924
:10502800486949694A694B694C694D694E694F69D4
:1050380050691200000E1D6E050E1C6E50EC43F0F8
:105048001C041D10D8A42BEF28F02DEF28F057EFE3
:1050580028F00001CCB333EF28F035EF28F057EFF4
:1050680028F09951A15DA251800A236E9A51800AB5
:105078002358D8B042EF28F044EF28F057EF28F033
:1050880097519F5DA051800A236E9851800A23583A
:10509800D8B051EF28F053EF28F057EF28F0CC8321
:1050A800010EE1EC3CF0000E1D6E050E1C6E50EC7E
:1050B80043F01C501D10D8A464EF28F066EF28F0C8
:1050C8007FEF28F00001CCA36CEF28F06EEF28F0FA
:1050D8007FEF28F0000EE1EC3CF00001CC93070EC6
:1050E8001B6EB20E1A6E670E1C6EFD0E1D6E3DEC29
:1050F80043F0B8EF28F0000E1D6E050E1C6E50EC44
:1051080043F01C041D10D8A48CEF28F08EEF28F073
:10511800B8EF28F00001CCA394EF28F096EF28F020
:10512800B8EF28F0A151995D9A51800A236EA251D7
:10513800800A2358D8A0A3EF28F0A5EF28F0B4EFF1
:1051480028F09F51975D9851800A236EA051800ADC
:105158002358D8B0B2EF28F0B4EF28F0B8EF28F011
:10516800CC93000EE1EC3CF01200000E446E000EF1
:10517800436E000E406E000E3F6E16C009F017C059
:105188000AF018C00BF019C00CF01CC00DF01DC0BF
:105198000EF0000E0EBEFF0E0F6E106ECBEC3AF046
:1051A80009C041F00AC042F042BEE6EF28F0425082
:1051B80007E10A0E415CD8B0E4EF28F0E6EF28F0EA
:1051C800F3EF28F01E0E4324D96E000E4420DA6E49
:1051D8004150300FDF6E434A442AFEEF28F01E0E7E
:1051E8004324D96E000E4420DA6E4150370FDF6E2B
:1051F800EFEF28F016C009F017C00AF018C00BF03E
:1052080019C00CF01CC00DF01DC00EF0000E0EBE33
:10521800FF0E0F6E106EF5EC36F009C016F00AC0DE
:1052280017F00BC018F00CC019F016501710181012
:105238001910D8A422EF29F024EF29F0C1EF28F0A3
:105248004306D8A044063CEF29F01E0E4324D96E2D
:10525800000E4420DA6E3F501A24E16E40501B20A5
:10526800E26EDFCFE7FF4306D8A044063F4A402A54
:1052780044BE43EF29F041EF29F029EF29F03F50D0
:105288001A24D96E40501B20DA6E000EDF6E120011
:105298000001CBB752EF29F054EF29F062EF29F063
:1052A800020E186E4D0E176E740EE82EFED7172ECE
:1052B800FCD7182EFAD700D06AEF29F03F0E176EE8
:1052C800550EE82EFED7172EFCD700F05A0E0B6E9F
:1052D800A50E0A6E47EC44F0040E89EC43F0830EE9
:1052E80089EC43F012C00AF013C00BF047EC44F00D
:1052F800D890163089EC43F0000E1A6E000E196E25
:10530800B7EF29F0060E176E300EE82EFED7172ECF
:10531800FCD700D00001CDA194EF29F096EF29F039
:10532800B5EF29F0CD91000E1B6EAAEF29F0B10E52
:105338001B24D96EDA6A010EDA221B501424E16E9E
:10534800000E1520E26EDFCFE7FF1B2A16501B5C0C
:10535800D8A0B1EF29F0B3EF29F09BEF29F0C2EF05
:1053680029F0194A1A2A900E195C010E1A58D8A069
:10537800C0EF29F0C2EF29F086EF29F0040E166479
:10538800C8EF29F0CAEF29F0D2EF29F01B501424F6
:10539800D96E000E1520DA6E000EDF6E010E096E52
:1053A800000E0A6E000E0B6E000E0C6EEFEC3EF057
:1053B80012002E6E2E500C0DF3CF2CF0F4CF2DF0E2
:1053C800E60E2C242F6E000E2D20306E2E50120D5E
:1053D800F350340F316E31C022F0236A2EC024F00E
:1053E8000FEC3BF0010E3124286E296A000E2922A9
:1053F800020E2F241C6E000E30201D6E50EC43F060
:105408001CC02AF01DC02BF063EC43F0030E3124BE
:10541800226E236A000E2322030E2F241C6E000E18
:1054280030201D6E50EC43F01C50246E0FEC3BF006
:10543800040E3124226E236A000E2322040E2F2428
:105448001C6E000E30201D6E50EC43F01C50246E74
:105458000FEC3BF0050E3124226E236A000E232246
:10546800050E2F241C6E000E30201D6E50EC43F0EC
:105478001C50246E0FEC3BF0060E2F241C6E000E01
:1054880030201D6E600E1E6E010E1F6E0EEC44F075
:10549800060E3124286E296A000E2922600E2A6E13
:1054A800010E2B6E36EC40F0100E3124286E296A5E
:1054B800000E29220B0E2F241C6E000E30201D6EAC
:1054C80050EC43F01CC02AF01DC02BF063EC43F0F5
:1054D8001200126E13681468AA0E0B6EBB0E0A6EC9
:1054E80047EC44F0000E89EC43F0125089EC43F08D
:1054F8000C5089EC43F00D5089EC43F0000E176E08
:1055080090EF2AF017500E24D96E000E0F20DA6E95
:10551800DF5089EC43F0172A0D50175CD8A097EF9D
:105528002AF099EF2AF086EF2AF0D50EE82EFED75A
:1055380000F00001CD91000E166E000E156EE40EFF
:1055480000D000D0E82EFCD700D000D00001CDA1BB
:10555800B0EF2AF0B2EF2AF0E8EF2AF0150E106E3D
:10556800C60EE82EFED7102EFCD700D00001CD9134
:10557800AFC10DF00101B151B0C110F0116A10C0F6
:1055880011F0106A1010136E1150146E000E176E81
:10559800DDEF2AF0B00E1724D96EDA6A010EDA228E
:1055A80017500E24E16E000E0F20E26EDFCFE7FFEA
:1055B800172A0D50175CD8A0E4EF2AF0E6EF2AF07E
:1055C800CEEF2AF0F8EF2AF0154A162A16BEF6EFA3
:1055D8002AF0900E155C010E1658D8A0F6EF2AF0A6
:1055E800F8EF2AF0A3EF2AF013C00CF014C00DF066
:1055F80012000101AB51AAC10BF00C6A0BC00CF0F0
:105608000B6A0B26000E0C2209C0D9FF0AC0DAFF6C
:105618000BC0DEFF0CC0DDFF20EE02F00950D926DA
:105628000A50DA22ACC1DFFF20EE03F00950D92678
:105638000A50DA22ADC1DFFFAF51AEC10BF00C6AE0
:105648000BC00CF00B6A0B26000E0C2220EE04F0A7
:105658000950D9260A50DA220BC0DEFF0CC0DDFF44
:1056680020EE06F00950D9260A50DA22B0C1DFFF31
:10567800000E0F6E5EEF2BF0B10E0F24D96EDA6AB2
:10568800010EDA22DF500B6E0C6A0F50020D09C0B2
:105698000DF00AC00EF0F3500D26F4500E22070E3E
:1056A8000D24D96E000E0E20DA6E0BC0DEFF0CC082
:1056B800DDFF0F2A20EE02F00950D9260A50DA221F
:1056C8000F50DE5CD8B06BEF2BF06DEF2BF040EF96
:1056D8002BF020EE25F00950D9260A50DA22B1C164
:1056E800DFFF20EE26F00950D9260A50DA22010100
:1056F800B2390F0B0F0BDF6E20EE27F00950D926B9
:105708000A50DA22B2510F0BDF6E120041C045F089
:1057180040C046F03FC047F03EC048F0020E0C6E55
:10572800040E0D6E450E0E6E000E0F6EFF0E6DEC24
:105738002AF0000E496E02EF2CF04950020D000EBF
:10574800F324D96E020EF420DA6EDE50DE10D8B4DF
:10575800B0EF2BF0B2EF2BF001EF2CF04950040D15
:105768001E0EF324D96E020EF420DA6EDECF1BF083
:10577800DECF1CF0DECF1DF0DECF1EF04950020D4B
:10578800000EF324D96E020EF420DA6EDECF42F05A
:10579800DDCF43F042C0D9FF43C0DAFFDECF09F0C6
:1057A800DDCF0AF0000E0ABEFF0E0B6E0C6E010E66
:1057B80058EC22F009C017F00AC018F00BC019F015
:1057C8000CC01AF0E4EC0CF017C030F018C031F03F
:1057D80019C032F01AC033F027EC2DF030C03AF07F
:1057E80031C03BF05A0E4924D96EDA6A020EDA2229
:1057F800DF50446E442876EC3CF0492A7150020D83
:105808004950426E436AF350425C4350800A446EEA
:10581800F450800A4458D8A014EF2CF016EF2CF05E
:10582800A1EF2BF0120023C025F024C026F0253A62
:10583800263AF00E261625500F0B2612F00E2516C6
:10584800000E2524276E010E2620286E23C015F091
:1058580024C016F0000E186E0A0E176E76EC43F090
:10586800A40E1524296E010E16202A6E29C01BF0DD
:105878002AC01CF027C00DF028C00EF0C0EC41F083
:105888000DC01DF00EC01EF0E0EC43F0010E2924FF
:105898001B6E000E2A201C6E020E2724096E000EB5
:1058A80028200A6EC7EC40F0256E25501D6E1E6A32
:1058B800E0EC43F0020E29241B6E000E2A201C6E19
:1058C800030E2724096E000E28200A6EC7EC40F04C
:1058D800256E25501D6E1E6AE0EC43F0030E292448
:1058E8001B6E000E2A201C6E040E2724096E000E63
:1058F80028200A6EC7EC40F0256E25501D6E1E6AE2
:10590800E0EC43F0050E27240D6E000E28200E6EE5
:10591800600E0F6E010E106E28EC41F0000E0101B2
:10592800686F040E29241A6E000E2A201B6E600E62
:105938001C6E010E1D6E3DEC43F012000001CB877A
:10594800320E93199411D8A4ACEF2CF0AEEF2CF0D2
:10595800B3EF2CF0080E0301BE6FDE0EBD6F500EC4
:10596800000193199411D8A4BCEF2CF0BEEF2CF0D1
:10597800C3EF2CF0090E0301BE6F740EBD6F00015A
:10598800F2510301BD5D0001F3510301BE59D8A0D6
:10599800D0EF2CF0D2EF2CF0E3EF2CF0F2C01AF09D
:1059A800F3C01BF020C01CF021C01DF03DEC43F0FB
:1059B8001E0E0001F227000EF32324EF2DF0070E30
:1059C800BC6FD00EBB6F0FEF2DF0720E0D6E030E75
:1059D8000E6E670E0F6EFD0E106EDFEC3DF01E0EA4
:1059E8000301BB251C6E000EBC211D6E720E1E6EBF
:1059F800030E1F6E0EEC44F0BBC31AF0BCC31BF0C1
:105A0800720E1C6E030E1D6E3DEC43F01E0E03015C
:105A1800BB27000EBC23BB51BD5DBC51BE59D8B0DD
:105A280018EF2DF01AEF2DF0E9EF2CF0BDC31AF0A6
:105A3800BEC31BF020C01CF021C01DF03DEC43F09C
:105A48000001CB97120032343334396E3950D8A460
:105A580030EF2DF032EF2DF03CEF2DF0000E306ED0
:105A6800000E316E000E326E000E336EA9EF2DF06F
:105A780030C034F031C035F032C036F033C037F0C2
:105A8800200E4CEF2DF0D890373236323532343282
:105A9800E82E47EF2DF03450386E328EFF0E301658
:105AA800FF0E3116FF0E3216000E3316960E395EB3
:105AB80039BE63EF2DF061EF2DF079EF2DF03950FD
:105AC800800A970FD8B06BEF2DF06DEF2DF06FEFC8
:105AD8002DF032EF2DF0D89033323232313230326D
