:020000040000FA
:0400000042EF01F0DA
:100018007780D8CF04F0E8CF05F0E0CF06F0D9CF4D
:1000280007F0DACF08F09EAA47D0959C838C010E82
:100038000101696F900E686F000E706E000E6F6E92
:1000480082697680830E666F010E676F9598838844
:100058001ED09EAA19D08398838866C1D9FF67C12C
:10006800DAFFAECFDFFF70BE06D0705008E1330E66
:100078006F5CD8B004D06F4A702A664B672B010EAC
:10008800696F900E686F03D06807D8A06907685138
:100098006911D8A4DED78398ABA20ED0AB98AB88F1
:1000A800AECF68F1696BAECF68F1696BAECF68F11E
:1000B800696B000E836F76829EA0B2D09E903C0E34
:1000C800CF6EB40ECE6E010E716E0001F1B102D08A
:1000D800000E716E000E706E010E6F6E0DD0510E17
:1000E8006F24D96E010E7020DA6EDF50D8A402D0CA
:1000F800000E716E6F4A702A7350016E026A6F505B
:10010800015C0250800A036E7050800A0358D8B010
:10011800E6D77104D8A41AD004000001F191000EAA
:10012800706E010E6F6E70BE06D070500FE10F0E2C
:100138006F5CD8B00BD0510E6F24D96E010E7020B1
:10014800DA6E000EDF6E6F4A702AEDD7F50E0001E9
:10015800C05D010EC159D8A002D0819E01D0818E08
:1001680001017C517D11D8B405D0320E7C5F000EA0
:100178007D5B05D0E1C07CF1E2C07DF1768C320E6A
:100188007027000E7123320E7E27000E7F237450D5
:10019800D8A407D00001DEBF04D0CE0EDD27FF0EA5
:1001A800DE23320E01016E27000E6F23320E00018E
:1001B800C027000EC123E80EC05D030EC159D8A0A8
:1001C8002FD0F2A912D0F02B3B0EF0650ED0000E06
:1001D800F06FEF2B3B0EEF6508D0000EEF6FEE2BA4
:1001E800630EEE6502D0000EEE6F000EC16F000EBA
:1001F800C06FC22B7250D8A472063B0EC26510D0D5
:10020800000EC26FC32BDF4BE02B3B0EC36508D03B
:10021800000EC36FC42B170EC46502D0000EC46F46
:10022800F2B2F292F2A41ED00D0EE82EFED700F024
:10023800000ED76EE10ED66EF29401017651771159
:10024800D8B405D07607D8A07707818C01D0819CD7
:1002580080518111D8B405D08007D8A08107818A40
:1002680001D0819A08C0DAFF07C0D9FF06C0E0FFB5
:1002780005C0E8FF04C0D8FF779010009CEF33F06A
:10028800ABC2ACF0ACC2BAF0ADC2B9F0AEC2B8F015
:10029800AFC2B7F06ED2AB513D6EAC51226E3DC0CD
:1002A80023F0ADC224F060EC38F0030EF8EC3DF01A
:1002B80027EC40F048EC40F01200AB513D6EAC51D9
:1002C800096E3DC00AF0C7EC3CF00001AE6F010EAC
:1002D800F8EC3DF00001AE51D0EC3FF01200AC510B
:1002E800ABC23DF03E6A3DC03EF03D6A3D100001A4
:1002F800AA6F3E50AB6F0201AE51ADC23DF03E6AEF
:100308003DC03EF03D6A3D100001A86F3E50A96F08
:10031800AAC028F0ABC029F0A8C02AF0A9C02BF0C9
:10032800A5EC3EF0030EF8EC3DF0C2D7AB513D6EA4
:10033800AC510D6E3DC00EF0AAEC3CF00DC0B0F013
:100348000EC0B1F0020EF8EC3DF0B0C00AF0B1C03A
:100358000BF03CEC40F01200AB513D6EAC51286EF6
:100368003DC029F0AD0E2A6E020E2B6ED5EC3BF087
:10037800030EF8EC3DF027EC40F01200AB513D6E57
:10038800AC510D6E3DC00EF04A0E0F6E030E106E8E
:10039800E3EC3CF04A0EF8EC3DF04A0E0A6E030E10
:1003A8000B6ED5EC35F01200B7C01FF0B8C020F0C6
:1003B800B9C021F0BAC022F0B0C223F0AB5139EC79
:1003C8003FF0030EF8EC3DF0D6D7B7C01CF0B8C02C
:1003D8001DF0B9C01EF0BAC01FF0AB5115EC3FF0CC
:1003E8000001AE6F010EF8EC3DF00001AE51D0EC0B
:1003F8003FF01200B7C01FF0B8C020F0B9C021F01C
:10040800BAC022F0B151B0C23DF03E6A3DC03EF0E4
:100418003D6A3D10236E3E50246EAB513CEC3EF0DD
:10042800030EF8EC3DF0A7D7B7C01CF0B8C01DF01C
:10043800B9C01EF0BAC01FF0AB5118EC3DF01CC09B
:10044800B0F01DC0B1F0020EF8EC3DF07ED7B7C099
:100458001CF0B8C01DF0B9C01EF0BAC01FF0AB51F7
:10046800EAEC30F01CC0B2F01DC0B3F01EC0B4F00E
:100478001FC0B5F0040EF8EC3DF00001B551D0EC0A
:100488003FF00001B451D0EC3FF00001B351D0EC83
:100498003FF00001B251D0EC3FF01200B0C2ADF015
:1004A8000001AD51F8EC3DF0B7C010F0B8C011F044
:1004B800B9C012F0BAC013F0ADC014F0000E156E3A
:1004C800030E166E0001AC5155EC19F01200B7C0BE
:1004D8000DF0B8C00EF0B9C00FF0BAC010F0B0C23D
:1004E80011F0B10E126E020E136EAB51FEEC1DF040
:1004F800030EF8EC3DF03FD7B7C00DF0B8C00EF0D2
:10050800B9C00FF0BAC010F0B00E116E020E126E24
:10051800AB5111EC27F0030EF8EC3DF02CD7B7C027
:1005280010F0B8C011F0B9C012F0BAC013F04A0EFA
:10053800146E030E156EAB51EBEC1AF04A0E096EF1
:10054800030E0A6EB3EC3BF00950F8EC3DF025D7EA
:10055800AC513D6EAD51286E3DC029F0AB51EDEC6C
:1005680039F0030EF8EC3DF006D7020EF8EC3DF03A
:100578000001EE51D0EC3FF00001EF51D0EC3FF01C
:100588001200800E1B6E8A0E1C6E77EC1CF0090E92
:10059800F8EC3DF00201AB51D8A406D0800E0A6EEB
:1005A8000B6AD5EC35F012008A0E0A6E0B6AD5EC90
:1005B80035F01200000E0001B66F070EB66501D0C7
:1005C8000ED0AB0EB625D96EDA6A020EDA22B65113
:1005D800940FE16EE26ADFCFE7FFB62BEED7000E8D
:1005E8009C6F000EB66F070EB66501D00ED0B30E25
:1005F800B625D96EDA6A020EDA22B6519E0FE16E7E
:10060800E26ADFCFE7FFB62BEED7000EA66F940E97
:100618000C6E9E0E0D6E46EC24F01200AB513D6E32
:10062800AC511A6E3DC01BF0AE51406E3F6AAD51E1
:10063800416E426A3F5041101C6E405042101D6E80
:100648005CEC3FF0030EF8EC3DF095D6838AAB5195
:100658003E6E3D6AAC513D241C6E000E3E201D6E60
:1006680052EC3EF01CC0B0F01DC0B1F0839A838AF2
:100678004A0E096E030E0A6EB3EC3BF00950F8EC13
:100688003DF0B0C00AF0B1C00BF03CEC40F0839AEA
:100698001200AB513D6EAC51176E3DC018F07EECA8
:1006A8003DF0030EF8EC3DF066D6AB513D6EAC5113
:1006B800176E3DC018F09CEC3FF0030EF8EC3DF0CF
:1006C8005AD6AB5143EC40F0030EF8EC3DF053D64C
:1006D800AB51040FFDEC20F0030EF8EC3DF04BD6C7
:1006E800010EF8EC3DF07350D0EC3FF012000A0E0A
:1006F800316E000E7AEC2AF0000E0001AF6F0E0E7C
:10070800AF6501D006D0AF51FDEC20F00001AF2B52
:10071800F6D7030EF8EC3DF02ED672EC18F0030E67
:10072800F8EC3DF028D6AB513D6EAC511A6E3DC089
:100738001BF0AD0E1C6E020E1D6EB8EC3EF0030EE3
:10074800F8EC3DF018D6AB513D6EAC511C6E3DC077
:100758001DF04A0E1E6E030E1F6EA9EC3FF04A0EE6
:10076800096E030E0A6EB3EC3BF00950F8EC3DF04D
:1007780014D6A9513D6E3E6A3E50000AD8A4120014
:100788003D50080AD8B487D5010AD8B496D5030ACB
:10079800D8B4A5D5010AD8B4C9D5070AD8B4DCD5C8
:1007A800010AD8B4EBD51C0AD8B4FED5030AD8B4CC
:1007B8000CD6010AD8B41ED6070AD8B435D6010A11
:1007C800D8B49AD6030AD8B4AAD6010AD8B47FD620
:1007D8000F0AD8B463D6010AD8B4BAD6390AD8B43D
:1007E8001DD7010AD8B432D7030AD8B49CD7010A56
:1007F800D8B4A9D7070AD8B44CD7010AD8B455D762
:10080800030AD8B45ED7010AD8B46AD70A0AD8B49A
:10081800ACD6030AD8B4B5D6010AD8B4CBD66D0A7B
:10082800D8B456D7010AD8B462D7070AD8B475D74E
:10083800010AD8B40CD6030A1200346EDCEC24F09A
:10084800A4D2000E3C6E3C50020D870EF324D96EE4
:10085800020EF420DA6EFF0EDE6EFF0EDD6E5A0E0B
:100868003C24D96EDA6A020EDA220A0EDF6E690EAD
:100878003C24D96EDA6A020EDA22FF0EDF6E780E99
:100888003C24D96EDA6A020EDA22FF0EDF6E3C5083
:10089800020D000EF324D96E020EF420DA6E000E5B
:1008A800DE6E000EDD6E3C50040D1E0EF324D96E74
:1008B800020EF420DA6E000EDE6E000EDE6E000E02
:1008C800DE6E000EDD6E130E3C24226E236A000ECF
:1008D8002322780E3C24D96EDA6A020EDA22DF501F
:1008E800246E60EC38F0EA0E3C24226E236A000E77
:1008F8002322690E3C24D96EDA6A020EDA22DF500E
:10090800246E60EC38F0240E3C24226E236A000E1C
:1009180023225A0E3C24D96EDA6A020EDA22DF50FC
:10092800246E60EC38F0100E3C241B6E1C6A030E1B
:100938001C22FF0E1E6E1D688CEC3FF03C500A0D09
:10094800F3CF2EF0F4CF2FF0FD0E2E241B6E060EE3
:100958002F201C6E0A0E1E6E000E1D6E8CEC3FF0D2
:100968003C500A0DF3CF2EF0F4CF2FF0FB0E2E24BF
:100978001B6E060E2F201C6EFF0E1E6E1D688CEC63
:100988003FF03C2A0C0E3C645ED71200000E0E6E3F
:10099800130E0D6E780E0F6E020E106E0F0E116E86
:1009A800C9EC3DF0000E0E6EEA0E0D6E690E0F6E6C
:1009B800020E106E0F0E116EC9EC3DF0000E0E6E99
:1009C800240E0D6E5A0E0F6E020E106E0F0E116E63
:1009D800C9EC3DF0000E3C6E780E3C24D96EDA6A04
:1009E800020EDA22DF50376E3728D8B40CD0100E3A
:1009F8003C241B6E1C6A030E1C2237C01DF01E6AA5
:100A08008CEC3FF00BD0100E3C241B6E1C6A030EBE
:100A18001C22FF0E1E6E1D688CEC3FF03C2A0C0E4B
:100A28003C64DAD7000E3C6E5A0E3C24D96EDA6A62
:100A3800020EDA22080EDF6017D0690E3C24D96E48
:100A4800DA6A020EDA22DF502E6E2F6AD8902E361E
:100A58002F36350E2E24D96E010E2F20DA6EDECFFA
:100A680039F0DDCF3AF002D039683A683C500A0DC7
:100A7800F3CF2EF0F4CF2FF0FB0E2E241B6E060EB4
:100A88002F201C6E39C01DF03AC01EF08CEC3FF0D0
:100A98003C50020D870EF324D96E020EF420DA6E54
:100AA80039C0DEFF3AC0DDFF3C2A0C0E3C64BCD7DF
:100AB800000E3C6E5A0E3C24D96EDA6A020EDA2217
:100AC800DF50386E080E38601AD03C500A0DF3CF4C
:100AD8002EF0F4CF2FF0FD0E2E241B6E060E2F20C5
:100AE8001C6E010E38C030F0316A30C031F0306A07
:100AF80030101D6E31501E6E8CEC3FF012D03C5001
:100B08000A0DF3CF2EF0F4CF2FF0FD0E2E241B6E1E
:100B1800060E2F201C6E0A0E1E6E000E1D6E8CEC2B
:100B28003FF03C2A0C0E3C64C5D7000E3B6E5A0EB3
:100B38003B24D96EDA6A020EDA220A0EDE18D8B41D
:100B4800CBD0FF0E2E6EFF0E2F6E5A0E3B24D96EA1
:100B5800DA6A020EDA22DF50306E316A690E30240A
:100B6800D96E020E3120DA6EDF50326E336A2E50A3
:100B780032262F50332233BE1BD0335004E1030EEC
:100B8800325CD8A015D05A0E3B24D96EDA6A020E10
:100B9800DA22DF502E6E2F6A690E2E24D96E020ECD
:100BA8002F20DA6EDF50306E3050356E366A17D02F
:100BB8005A0E3B24D96EDA6A020EDA22DF502E6E04
:100BC8002F6A690E2E24D96E020E2F20DA6EDF509E
:100BD800306EFF0E3024356E366AFF0E362235C071
:100BE8002EF036C02FF0D8902E362F36B70E306E36
:100BF800010E316E2E5030262F5031225A0E3B24D2
:100C0800D96EDA6A020EDA22DF50326E3250020DE5
:100C1800000EF324D96E020EF420DA6E30C0DEFF27
:100C280031C0DDFF5A0E3B24D96EDA6A020EDA2291
:100C3800DF502E6E2E50040D1E0EF324D96E020EB8
:100C4800F420DA6E000EDE6E000EDE6E800EDE6EB2
:100C58003F0EDD6E5A0E3B24D96EDA6A020EDA2296
:100C6800DF50D8A418D05A0E3B24D96EDA6A020E87
:100C7800DA22DF502E6E2E50040D1E0EF324D96E8C
:100C8800020EF420DA6E550EDE6EC10EDE6EE80E30
:100C9800DE6E3E0EDD6E5A0E3B24D96EDA6A020E07
:100CA800DA22DE04D8A418D05A0E3B24D96EDA6AA8
:100CB800020EDA22DF502E6E2E50040D1E0EF32483
:100CC800D96E020EF420DA6ECD0EDE6ECC0EDE6E1C
:100CD8004C0EDE6E3D0EDD6E3B2A070E3B6427D7B9
:100CE8001200000E3C6E100E3C241C6E1D6A030E92
:100CF8001D2227EC3FF0780E3C24D96EDA6A020EEA
:100D0800DA221CC0DFFF3C500A0DF3CF2EF0F4CFDF
:100D18002FF0FD0E2E241C6E060E2F201D6E27ECC4
:100D28003FF01DC01CF01D6A5A0E3C24D96EDA6AC9
:100D3800020EDA221CC0DFFF3C2A0D0E3C64D3D71A
:100D4800000E296E130E286E780E2A6E020E2B6E78
:100D58000F0E2C6E4CEC3DF0000E296EEA0E286E3C
:100D6800690E2A6E020E2B6E0F0E2C6E4CEC3DF0A7
:100D7800000E296E240E286E5A0E2A6E020E2B6E55
:100D88000F0E2C6E4CEC3DF0120034502E6E2F6A74
:100D98002F50000AD8A412002E50000AD8B451D5FA
:100DA800010AD8B4F3D5030AD8A412009AD7500E72
:100DB8000001CF19D011D8A408D0000EAB6F800E57
:100DC800AC6F0D0EAD6F440E0CD0320ECF19D01192
:100DD800D8A408D0000EAB6F800EAC6FA00EAD6F1C
:100DE800430EAE6F000E186E230E176E9CEC3FF08C
:100DF800B3EC3AF02CC1BBF02DC1BCF02EC1BDF054
:100E08002FC1BEF0000E0001B66F000EB76F000EC6
:100E1800B86F000EB96F030E0001836F080E826F62
:100E2800770EE82EFED7822FFCD7832FFAD7000E35
:100E38000001BA6F2FD0030EBA19D8B429D0BAC09E
:100E480082F0D89082338229AF6FBA51010BB06F0C
:100E5800B0C0B1F0BEC0B2F0BDC0B3F0BCC0B4F019
:100E6800BBC0B5F0140E0C6E050E0D6EB10E0E6EF5
:100E78000F6AAF5140EC20F00001BA51020DF35057
:100E8800860FD96EDA6A0CC0DEFF0DC0DDFF0400E4
:100E98000001BA2B7350020DBA51826F836BF35065
:100EA800825D8351800A846FF450800A8459D8A0E7
:100EB800C2D7030E0001836F080E826F770EE82EEB
:100EC800FED7822FFCD7832FFAD7000E0001BF6F01
:100ED800B6D0550E1B6EC10E1C6EE80E1D6E3E0E72
:100EE8001E6EBF51020DF350860FD96EDA6ADECF3F
:100EF80009F0DDCF0AF0000E0ABEFF0E0B6E0C6E75
:100F0800010E09EC23F009C017F00AC018F00BC055
:100F180019F00CC01AF0E1EC0DF017C062F018C01F
:100F280063F019C064F01AC065F031EC30F062C0AB
:100F38006CF063C06DF00001BF2990EC38F07DD0F3
:100F4800CD0E1B6ECC0E1C6E4C0E1D6E3D0E1E6E15
:100F5800BF51020DF350860FD96EDA6ADECF09F061
:100F6800DDCF0AF0000E0ABEFF0E0B6E0C6E010EEE
:100F780009EC23F009C017F00AC018F00BC019F0EB
:100F88000CC01AF0E1EC0DF017C062F018C063F065
:100F980019C064F01AC065F031EC30F062C06CF032
:100FA80063C06DF00001BF2990EC38F046D0000E08
:100FB8001B6E000E1C6E800E1D6E3F0E1E6EBF5106
:100FC800020DF350860FD96EDA6ADECF09F0DDCF55
:100FD8000AF0000E0ABEFF0E0B6E0C6E010E09EC35
:100FE80023F009C017F00AC018F00BC019F00CC0A4
:100FF8001AF0E1EC0DF017C062F018C063F019C0E8
:1010080064F01AC065F031EC30F062C06CF063C077
:101018006DF00001BF2990EC38F00FD0BF51826FFE
:10102800836B8351000AD8A4C2D78251000AD8B46E
:1010380050D7010AD8B484D7BAD70001BF2B735050
:10104800020DBF51826F836BF350825D8351800A1A
:10105800846FF450800A8459D8A0E0D7000E1B6E24
:10106800000E1C6E000E1D6E400E1E6E01012C51EE
:10107800305D096E2D5131590A6E2E5132590B6E61
:101088002F5133590C6E000E09EC23F009C017F0EC
:101098000AC018F00BC019F00CC01AF048EC12F096
:1010A80017C0A7F018C0A8F019C0A9F01AC0AAF074
:1010B800B6C030F0B7C031F0B8C032F0B9C033F0C4
:1010C800ABC01BF0ACC01CF0ADC01DF0AEC01EF034
:1010D800A7C017F0A8C018F0A9C019F0AAC01AF044
:1010E80048EC12F017C034F018C035F019C036F0CB
:1010F8001AC037F077EC0FF030C0B6F031C0B7F057
:1011080032C0B8F033C0B9F0B6C048F0B7C049F043
:10111800B8C04AF0B9C04BF04AEC0CF048C062F0D5
:1011280049C063F04AC064F04BC065F031EC30F060
:1011380062C0A3F063C0A4F064C0A5F065C0A6F0C7
:10114800D8900001A335826FA435836FA535846FCD
:10115800A635856F01012C5100018225BB6F010165
:101168002D5100018321BC6F01012E510001842102
:10117800BD6F01012F5100018521BE6F959C838CA5
:1011880045EC31F0230E12181310D8B410D0839CFC
:10119800959E838E060E0001826F300EE82EFED7D4
:1011A800822FFCD700F0839EF5EC3FF01200839C61
:1011B800010130510001BB5D010131510001BC59F1
:1011C800010132510001BD59010133510001BE59DD
:1011D800D8B0120020D6010E1D6E860E1C6E27ECAC
:1011E8003FF01C041D10D8A487D0000E0101D66F53
:1011F800000ED56F000ED86F000ED76F000EDA6F95
:10120800000ED96F000EDB6FDC0E0D6E010E0E6E38
:10121800660E0F6EFD0E106E71EC39F0D50E2C6E49
:10122800010E2D6E0001EB519FEC31F0EBC022F066
:10123800236AFFEC25F0010E1C6E9A0E1B6E000E41
:101248001E6E000E1D6E8CEC3FF0010E1C6E9B0E88
:101258001B6E000E1E6E000E1D6E8CEC3FF0010E14
:101268001C6E9C0E1B6E000E1E6E000E1D6E8CEC0E
:101278003FF0010E1C6E9D0E1B6E000E1E6E000EC2
:101288001D6E8CEC3FF0010E1B6E9E0E1A6E670EE3
:101298001C6EFD0E1D6EB8EC3EF0DDEC3FF0010E4D
:1012A8001C6E860E1B6E000E1E6E000E1D6E8CECE4
:1012B8003FF0600E43EC40F0B3EC3AF0070E1B6EC3
:1012C800760E1A6EFA0E1C6EFD0E1D6EB8EC3EF010
:1012D800DC0E096E050E0A6E000E0B6E000E0C6E0B
:1012E80000EC3BF0070E1B6E760E1A6E670E1C6E36
:1012F800FD0E1D6EB8EC3EF0010E1D6E870E1C6EC5
:1013080027EC3FF01C041D10D8A468D0010E1D6EF8
:101318009A0E1C6E27EC3FF01CC0D5F11DC0D6F10B
:10132800010E1D6E9B0E1C6E27EC3FF01CC0D7F102
:101338001DC0D8F1010E1D6E9C0E1C6E27EC3FF0EF
:101348001CC0D9F11DC0DAF1010E1D6E9D0E1C6E78
:1013580027EC3FF01C500101DB6F010E1D6E9E0E45
:101368001C6EDC0E1E6E010E1F6EA9EC3FF0D50E32
:101378002C6E010E2D6E0001EB519FEC31F0DDEC6F
:101388003FF0010E1C6E870E1B6E000E1E6E000EC7
:101398001D6E8CEC3FF0500E43EC40F0B3EC3AF08D
:1013A800070E1B6E760E1A6EDE0E1C6EFD0E1D6E7F
:1013B800B8EC3EF0DC0E096E050E0A6E000E0B6EE0
:1013C800000E0C6E00EC3BF0070E1B6E760E1A6ECC
:1013D800670E1C6EFD0E1D6EB8EC3EF0010E1D6E04
:1013E800880E1C6E27EC3FF01C041D10D8A49BD05F
:1013F800070E1B6E760E1A6EA40E1C6EFD0E1D6E69
:10140800B8EC3EF0D50E176E010E186E0001EB51C8
:10141800A9EC2CF0070E1B6E760E1A6E860E1C6E4B
:10142800FD0E1D6EB8EC3EF0000E3A6E20D03AC0AC
:101438003DF0D5C13EF0D6C13FF0D7C140F0D9C18B
:1014480041F0DBC142F0430E0D6E0E6ADC0E0F6EEA
:10145800010E106E71EC39F0000E4D6E010E4C6EDF
:101468003D0E2C6E2D6A3A5006EC2AF03A2AFC0EF4
:10147800336EFF0E346E7350356E366AD89035363B
:10148800363633503526345036223A50376E386A5D
:101498003550375C3850800A396E3650800A3958D2
:1014A800D8A0C5D7070E1B6E760E1A6E890E1C6E55
:1014B800FC0E1D6EB8EC3EF072EC18F0070E1B6EB9
:1014C800760E1A6E2B0E1C6EFD0E1D6EB8EC3EF0DD
:1014D800000E3B6E3B50FDEC20F03B2A0E0E3B64A9
:1014E800F9D7000E3C6E3C5066EC22F03C2A090EFF
:1014F8003C64F9D7010E1C6E880E1B6E000E1E6E22
:10150800000E1D6E8CEC3FF0600E43EC40F0B3EC27
:101518003AF0070E1B6E760E1A6E670E1C6EFD0EE5
:101528001D6EB8EC3EF0010E1D6E890E1C6E27EC88
:101538003FF01C041D10D8A41200010E1C6E890E69
:101548001B6E000E1E6E000E1D6E8CEC3FF0000E22
:10155800186E2F0E176E9CEC3FF01200010E1D6ED8
:101568007E0E1C6E91EC3EF01CC062F01DC063F054
:101578001EC064F01FC065F031EC30F0010E1D6E26
:10158800800E1C6E91EC3EF01CC062F01DC063F032
:101598001EC064F01FC065F031EC30F0010E136E10
:1015A8007C0E126E9C0E146E156A040E166E9AEC62
:1015B80028F09EC080F00001816B826B836B82C033
:1015C80083F081C082F080C081F0806B9DC084F080
:1015D800856B866B876B85C087F084C086F0856BCA
:1015E800846B9CC088F0896B8A6B8B6B88C08BF08E
:1015F8008A6B896B886B845188258C6F855189210A
:101608008D6F86518A218E6F87518B218F6F805104
:101618008C25906F81518D21916F82518E21926F0F
:1016280083518F21936F9F519025C96F000E91218F
:10163800CA6F000E9221CB6F000E9321CC6F010E62
:10164800136E7E0E126E9C0E146E156A040E166EC4
:101658009AEC28F09EC080F00001816B826B836B4E
:1016680082C083F081C082F080C081F0806B9DC011
:1016780084F0856B866B876B85C087F084C086F0A5
:10168800856B846B9CC088F0896B8A6B8B6B88C078
:101698008BF08A6B896B886B845188258C6F855198
:1016A80089218D6F86518A218E6F87518B218F6F8B
:1016B80080518C25906F81518D21916F82518E219F
:1016C800926F83518F21936F9F519025986F000ED1
:1016D8009121996F000E92219A6F000E93219B6FB2
:1016E800010E136E800E126E9C0E146E156A040E97
:1016F800166E9AEC28F09EC080F00001816B826B18
:10170800836B82C083F081C082F080C081F0806BDF
:101718009DC084F0856B866B876B85C087F084C01D
:1017280086F0856B846B9CC088F0896B8A6B8B6BA9
:1017380088C08BF08A6B896B886B845188258C6F85
:10174800855189218D6F86518A218E6F87518B2112
:101758008F6F80518C25906F81518D21916F8251AF
:101768008E21926F83518F21936F9F519025946F93
:10177800000E9121956F000E9221966F000E932115
:10178800976FC951CA11CB11CC11D8B40CD098514C
:1017980099119A119B11D8B406D0945195119611AC
:1017A8009711D8A404D0230E43EC40F01200000E89
:1017B8000E6E0B0E0D6E52EC3CF00001C9510D1867
:1017C80061E1CA510E185EE1CB510F185BE1CC51B3
:1017D8001018D8A457D09451981950E195519919D7
:1017E8004DE196519A194AE197519B19D8A446D0D0
:1017F800000E296E0B0E286E98C02AF099C02BF0A7
:101808009AC02CF09BC02DF00FEC3EF098C0C9F0A8
:1018180099C0CAF09AC0CBF09BC0CCF0FFEC3FF067
:10182800010E1B6E7C0E1A6E000E1C6E000E1D6ED5
:10183800000E1E6E000E1F6EDAEC3AF0010E1B6EE3
:101848007E0E1A6E000E1C6E000E1D6E000E1E6EB1
:10185800000E1F6EDAEC3AF0010E1B6E800E1A6E47
:10186800000E1C6E000E1D6E000E1E6E000E1F6E0A
:10187800DAEC3AF0220E43EC40F01200210E43EC71
:1018880040F01200200E43EC40F0120060C15AF004
:1018980061C15BF062C15CF063C15DF048C05AF0A1
:1018A80049C05BF04AC05CF04BC05DF05AC04CF0D8
:1018B8005BC04DF05CC04EF05DC04FF0180E05D017
:1018C800D8904F324E324D324C32E82EF9D74C5028
:1018D800546E556A55BE0FD0555004E1960E545CAF
:1018E800D8A009D048C048F049C049F04AC04AF0D9
:1018F8004BC04BF012005AC04CF05BC04DF05CC0BE
:101908004EF05DC04FF0200E05D0D8904F324E32C9
:101918004D324C32E82EF9D74C50D8B412D048C0CA
:1019280009F049C00AF04AC00BF04BC00CF0E1ECDA
:101938003DF009C048F00AC049F00BC04AF00CC09D
:101948004BF055BE06D055501FE17E0E545CD8B002
:101958001BD05AC017F05BC018F05CC019F05DC00E
:101968001AF0000E1B6E000E1C6E000E1D6E000E8F
:101978001E6EE1EC0DF017C048F018C049F019C010
:101988004AF01AC04BF01200000E346E000E356E8D
:10199800000E366E4B0E376E48C030F049C031F03D
:1019A8004AC032F04BC033F077EC0FF030C056F03D
:1019B80031C057F032C058F033C059F0000E346EC1
:1019C800000E356E000E366ECB0E376E56C030F0F8
:1019D80057C031F058C032F059C033F077EC0FF0EF
:1019E80030C050F031C051F032C052F033C053F023
:1019F80050C040F051C041F052C042F053C043F0D3
:101A080048C044F049C045F04AC046F04BC047F0D2
:101A18006EEC3BF040C05EF041C05FF042C060F049
:101A280043C061F0000E096E000E0A6E000E0B6EC8
:101A38003F0E0C6E5EC00DF05FC00EF060C00FF080
:101A480061C010F014EC2DF0D8B02DD048C034F09F
:101A580049C035F04AC036F04BC037F05EC030F0B0
:101A68005FC031F060C032F061C033F077EC0FF046
:101A780030C056F031C057F032C058F033C059F07A
:101A880056C030F057C031F058C032F059C033F06A
:101A9800000E346E000E356E800E366EBF0E376E39
:101AA80077EC0FF053D0000E096E000E0A6E000E90
:101AB8000B6EBF0E0C6E5EC00DF05FC00EF060C006
:101AC8000FF061C010F014EC2DF0D8A02DD048C054
:101AD80034F049C035F04AC036F04BC037F05EC02C
:101AE80030F05FC031F060C032F061C033F077ECA5
:101AF8000FF030C056F031C057F032C058F033C044
:101B080059F056C030F057C031F058C032F059C0C3
:101B180033F0000E346E000E356E800E366E3F0EBA
:101B2800376E77EC0FF012D05EC030F05FC031F046
:101B380060C032F061C033F048C034F049C035F0BD
:101B48004AC036F04BC037F077EC0FF030C05EF08B
:101B580031C05FF032C060F033C061F05AC04CF061
:101B68005BC04DF05CC04EF05DC04FF0200E05D05C
:101B7800D8904F324E324D324C32E82EF9D74C5075
:101B8800D8B412D05EC009F05FC00AF060C00BF094
:101B980061C00CF0E1EC3DF009C05EF00AC05FF0F6
:101BA8000BC060F00CC061F05EC048F05FC049F047
:101BB80060C04AF061C04BF012001A50800B236ECF
:101BC8001A501A24256E19BE25802550D8B40DD078
:101BD8002528D8A408D0000E176E000E186E000E27
:101BE800196E000E1A6E198E08D0000E176E000EB0
:101BF800186E000E196E000E1A6E1E50800B231AF6
:101C08001E501E24246E1DBE24802450D8B40DD02E
:101C18002428D8A408D0000E1B6E000E1C6E000EDF
:101C28001D6E000E1E6E1D8E08D0000E1B6E000E5F
:101C38001C6E000E1D6E000E1E6E2450D8B403D00C
:101C48002550D8A409D0000E176E000E186E000E8D
:101C5800196E000E1A6E12001D501702F3CF2EF0E7
:101C6800F4CF2FF02E50266E276A286A296A2F5043
:101C78002A6E2B6A2C6A2D6A1C501802F3CF2EF09C
:101C8800F4CF2FF02E502626000E272228222922B4
:101C98002F502A26000E2B222C222D221B501902EF
:101CA800F3CF2EF0F4CF2FF02E502626000E272249
:101CB800282229222F502A26000E2B222C222D22C0
:101CC80028C029F027C028F026C027F0266A1B5014
:101CD8001802F3CF2EF0F4CF2FF02E5026262F50D7
:101CE8002722000E2822000E29221C501702F3CFAB
:101CF8002EF0F4CF2FF02E5026262F502722000E3C
:101D08002822000E292228C029F027C028F026C042
:101D180027F0266A1B501702F3CF2EF0F4CF2FF0CE
:101D28002E5026262F502722000E2822000E292268
:101D38001D501802F3CF2EF0F4CF2FF02E502A2684
:101D48002F502B22000E2C22000E2D221C5019027F
:101D5800F3CF2EF0F4CF2FF02E502A262F502B221F
:101D6800000E2C22000E2D221D501902F3CF2EF04A
:101D7800F4CF2FF02E501F6E2F50206E216A226A4A
:101D880021C022F020C021F01FC020F01F6A1F5080
:101D98002A2620502B2221502C2222502D22295035
:101DA8002A26000E2B222C222D2228C029F027C0FB
:101DB80028F026C027F0266A245025C01FF0206A84
:101DC8001F26000E2022820E1F242E6EFF0E2020BA
:101DD8002F6E0FD0D8902A362B362C362D3629BEAA
:101DE8002A80D89026362736283629362E06D8A0B7
:101DF8002F062CAEEFD7000E246E29AE17D0FF0E9B
:101E080026141F6EFF0E2714206EFF0E2814216E55
:101E18007F0E2914226E1F50201021102210D8B4D2
:101E280003D0010E246E02D02AB0FBD72450D8B4B8
:101E38001FD0010E2A26000E2B222C222D222DA087
:101E480017D02AC01FF02BC020F02CC021F02DC0C5
:101E580022F022342232213220321F321FC02AF0CF
:101E680020C02BF021C02CF022C02DF02E4A2F2AA2
:101E78002FBE0DD02F5003E12E28D8A008D0000E79
:101E88002A6E000E2B6E800E2C6E7F0E20D02FBE79
:101E980005D02F500EE12E04D8B00BD0000E2A6EBC
:101EA800000E2B6E000E2C6E000E2D6E000E236E93
:101EB8000FD02EC025F0FF0E2A16FF0E2B167F0E10
:101EC8002C16000E2D1625B02C8ED89025302D6E90
:101ED80023502D122AC017F02BC018F02CC019F06F
:101EE8002DC01AF012003350800B3C6E335033244F
:101EF8003E6E32BE3E803E50D8B40DD03E28D8A4A7
:101F080008D0000E306E000E316E000E326E000EDC
:101F1800336E328E06D0000E306E000E316E000E1B
:101F2800326E000E336E3750800B3D6E3C503D18BC
:101F3800D8A43C8C375037243D6E36BE3D803D508A
:101F4800D8B40DD03D28D8A408D0000E346E000EA9
:101F5800356E000E366E000E376E368E06D0000EC9
:101F6800346E000E356E000E366E000E376E3E5023
:101F78003D5CD8B022D03CAC02D0800E3C1A3EC0AA
:101F88003FF03DC03EF03FC03DF030C03FF034C0B0
:101F980030F03FC034F031C03FF035C031F03FC0C1
:101FA80035F032C03FF036C032F03FC036F033C0B3
:101FB8003FF037C033F03FC037F0000E3F6E3E5061
:101FC8003DC038F0396A385E000E395A39BE2CD017
:101FD800395004E11A0E385CD8A026D030503110A0
:101FE80032103310D8B402D0010E01D0000E3F6E6B
:101FF800000E306E000E316E000E326E000E336E23
:102008003DC03EF015D03FA005D0D8903F30010923
:102018003F6E02D0D8903F3230B03F8E33343332E7
:102028003232313230323E2A3D503E5CD8A0EBD7B6
:102038003CBC28D03E50D8A409D0000E306E000E0B
:10204800316E000E326E000E336E120034503026A0
:1020580035503122365032223750332233A071D0D6
:102068003FA005D0D8903F3001093F6E02D0D890EC
:102078003F3230B03F8E3334333232323132303245
:102088003E2A5FD03450305C355031583650325883
:102098003350800A386E3750800A3858D8B025D067
:1020A8003050345C386E31503558396E32503658AD
:1020B8003A6E335037583B6EFF0E3824306EFF0EA1
:1020C8003920316EFF0E3A20326EFF0E3B20336E00
:1020D800800E3C1A3F6C3F50D8A40FD0010E30261A
:1020E800000E31223222332208D03450305E35506F
:1020F800315A3650325A3750335A30503110321024
:102108003310D8A41CD03F50D8A419D0000E306E7C
:10211800000E316E000E326E000E336E1200D89033
:1021280030363136323633363FBE30803FA002D0AB
:10213800D88001D0D8903F363E50D8A43E0632AE63
:10214800EED7000E3D6E3FAE0BD03FC038F07F0E8D
:102158003816D8B403D0010E3D6E02D030B0FBD78C
:102168003D50D8B420D0010E3026000E3122322244
:10217800332233A018D030C038F031C039F032C023
:102188003AF033C03BF03B343B323A3239323832E2
:1021980038C030F039C031F03AC032F03BC033F0CB
:1021A8003E28D8A43E2A3E28D8B403D03E50D8A40E
:1021B8000DD0000E306E000E316E000E326E000E25
:1021C800336E3E50D8A402D0000E3C6E3EA002D022
:1021D800328E01D0329ED8903E30336E3CBE338E64
:1021E80030C030F031C031F032C032F033C033F09B
:1021F8001200200E096E000E0A6E000E0B6E000E05
:102208000C6E00EC3BF0000E2F6E2AD02FC022F08F
:10221800D890223222282B6E2F50010B2E6E2EC002
:1022280026F01A0E0C6E010E0D6E260E0E6E0F6A3B
:102238002B5040EC20F02F50020DB70EF324D96E2E
:10224800010EF420DA6E0CC0DEFF0DC0DDFF510E6A
:102258002B24D96EDA6A010EDA22010EDF6E2F2ADC
:102268007350020D2F50226E236AF350225C2350C4
:10227800800A246EF450800A2458D8A0C7D7320E9A
:10228800096E000E0A6E000E0B6E000E0C6E00EC4E
:102298003BF07586000E2F6EE6D0000E1C6E990E70
:1022A8001B6E2F50020DB70EF324D96E010EF420C9
:1022B800DA6EDECF1DF0DDCF1EF08CEC3FF02F5034
:1022C800020DB70EF324D96E010EF420DA6EDECFBC
:1022D8006CF1DDCF6DF1C6D0000E1C6E970E1B6E33
:1022E8002F50020DB70EF324D96E010EF420DA6ECA
:1022F800DECF1DF0DDCF1EF08CEC3FF02F50020D2D
:10230800B70EF324D96E010EF420DA6EDECFD9F0C1
:10231800DDCFDAF0A7D0000E1C6E960E1B6E2F5084
:10232800020DB70EF324D96E010EF420DA6EDECF5B
:102338001DF0DDCF1EF08CEC3FF02F50020DB70ED4
:10234800F324D96E010EF420DA6EDECFDBF0DDCF98
:10235800DCF088D02F50FC0F2E6E2E500C0DF3CFD2
:1023680022F0F4CF23F0E60E2224296E000E23205B
:102378002A6E900E2E242C6E2D6A010E2D22010E2F
:1023880029241B6E000E2A201C6E2E50226E236AF2
:10239800D89022362336BF0E2224D96E010E232070
:1023A800DA6EDECF1DF0DDCF1EF08CEC3FF02E5044
:1023B800226E236AD89022362336BF0E2224D96E85
:1023C800010E2320DA6E010EDBAE11D0700EDE5C3A
:1023D800FE0EDE58D8B00BD02CC01BF02DC01CF060
:1023E800000E1E6E010E1D6E8CEC3FF03BD02E5081
:1023F800226E236AD89022362336BF0E2224D96E45
:10240800010E2320DA6EDE280EE1DE28D8A40BD0D8
:102418002CC01BF02DC01CF0000E1E6E000E1D6E91
:102428008CEC3FF01FD02CC01BF02DC01CF0000E10
:102438001E6E030E1D6E8CEC3FF014D02F50226ED2
:10244800236A2350000AD8A485D72250000AD8B49A
:1024580024D7010AD8B440D7030AD8B45CD7010AF4
:10246800D8A478D72F2A7350020D2F50226E236AD2
:10247800F350225C2350800A246EF450800A2458BA
:10248800D8A0DCD7759612001A50800B276E1A5008
:102498001A242E6E19BE2E802E50D8B40DD02E2898
:1024A800D8A408D0000E176E000E186E000E196E14
:1024B800000E1A6E198E06D0000E176E000E186EDA
:1024C800000E196E000E1A6E1E50800B271A1E5031
:1024D8001E242F6E1DBE2F802F50D8B40DD02F284C
:1024E800D8A408D0000E1B6E000E1C6E000E1D6EC8
:1024F800000E1E6E1D8E06D0000E1B6E000E1C6E8A
:10250800000E1D6E000E1E6E1B501C101D101E109E
:10251800D8A417D0000E176E000E186E000E196E94
:10252800000E1A6E800E19127F0E1A1227501A12F8
:1025380017C017F018C018F019C019F01AC01AF00F
:1025480012002E50D8A409D0000E176E000E186E77
:10255800000E196E000E1A6E12002F502EC01FF0BA
:10256800206A1F5E000E205A7F0E1F24286E000E60
:102578002020296E17C023F018C024F019C025F0B8
:102588001AC026F0000E176E000E186E000E196E97
:10259800000E1A6E000E2A6E000E2B6E000E2C6EA8
:1025A800000E2D6E000E2F6E28D02F50D8B411D0EB
:1025B800D8902336243625362636D890173618363E
:1025C80019361A362DBE1780D8902A362B362C3657
:1025D8002D361B50235C1C5024581D5025581E5066
:1025E8002658D8A009D02D8C1B50235E1C50245A85
:1025F8001D50255A1E50265A2F2A190E2F64D5D73A
:102608002350241025102610D8B411D02A800FD0BA
:10261800D8901736183619361A362DBE1780D89026
:102628002A362B362C362D362806D8A0290619AE80
:10263800EFD7000E2F6E2DAE17D0FF0E2A141F6E87
:10264800FF0E2B14206EFF0E2C14216E7F0E2D14FE
:10265800226E1F50201021102210D8B403D0010E72
:102668002F6E02D017B0FBD72F50D8B41FD0010E51
:102678001726000E182219221A221AA017D017C0DE
:102688001FF018C020F019C021F01AC022F022341F
:102698002232213220321F321FC017F020C018F01A
:1026A80021C019F022C01AF0284A292A29BE10D0C0
:1026B800295003E12828D8A00BD0000E296E2868DD
:1026C800000E176E000E186E000E196E000E1A6EB0
:1026D80029BE05D0295011E12804D8B00ED0000E2B
:1026E800296E000E286E000E176E000E186E000E72
:1026F800196E000E1A6E000E276E28C02EF02EA03E
:1027080002D0198E01D0199ED8902E301A6E0ED78D
:1027180034EC3CF0150E206EFE0E216E49EC2EF0C6
:102728000C0E206EFF0E216E49EC2EF0000E1D6E71
:10273800AA0E1C6E27EC3FF01C041D10D8A4120032
:10274800000E1C6EAA0E1B6E000E1E6E000E1D6E75
:102758008CEC3FF0000E186E000E176E9CEC3FF0EC
:10276800000E0E6E220E0D6EAAEC3CF00DC084F029
:102778000EC085F084C018F085C019F0000E1A6EDE
:10278800030E1B6E000E1D6E0A0E1C6E1BEC28F04D
:102798004A0E0D6E030E0E6E890E0F6EFF0E106E32
:1027A80071EC39F04A0E176E030E186E000E196E92
:1027B800030E1A6ECBEC3EF04A0E206E030E216E0D
:1027C80049EC2EF0010E0001836F66D04A0E0D6EA3
:1027D800030E0E6EE90E0F6EFF0E106E71EC39F0DF
:1027E80083C018F0196A000E1A6E030E1B6E000ED5
:1027F8001D6E0A0E1C6E1BEC28F04A0E176E030E97
:10280800186E000E196E030E1A6ECBEC3EF0000E19
:102818000D6E030E0E6E900E0F6EFF0E106E71ECA5
:1028280039F04A0E176E030E186E000E196E030E5D
:102838001A6ECBEC3EF0100E0001806F0B0E0C6E82
:10284800010E0D6E800E0E6E0F6A835140EC20F063
:102858000CC084F00DC085F084C018F085C019F054
:10286800000E1A6E030E1B6E000E1D6E0A0E1C6EF5
:102878001BEC28F04A0E176E030E186E000E196E28
:10288800030E1A6ECBEC3EF04A0E206E030E216E3C
:1028980049EC2EF00001832B8351735CD8B096D796
:1028A800D50E206EFE0E216E49EC2EF0000E0E6E37
:1028B800E80E0D6EAAEC3CF00DC084F00EC085F059
:1028C80084C018F085C019F04A0E1A6E030E1B6EEC
:1028D800000E1D6E0A0E1C6E1BEC28F04A0E176EB9
:1028E800030E186EAA0E196EFF0E1A6ECBEC3EF090
:1028F8004A0E206E030E216E49EC2EF0980E096EDA
:102908003A0E0A6E000E0B6E000E0C6E8CEC3AF04E
:10291800000E186E0F0E176E9CEC3FF01200000EA2
:102928001D6EA80E1C6E27EC3FF01C041D10D8A4C9
:102938001FD0000E1C6EA80E1B6E000E1E6E000E21
:102948001D6E8CEC3FF00001EC51D8B40CD0000E99
:10295800476E4750FDEC20F0472A0E0E4764F9D722
:10296800B3EC3AF005D0520E43EC40F04BEC3FF09C
:10297800000E1D6EA70E1C6E27EC3FF01C041D10E8
:10298800D8A43BD0000E1C6EA70E1B6E000E1E6E48
:10299800000E1D6E8CEC3FF00001EC51D8B428D02D
:1029A800640E1E6EFE0E1F6E070E216ED00E206E78
:1029B800000E226E010E236EE7EC33F0000E486E17
:1029C80048506FEC25F0482A090E4864F9D7940E50
:1029D8001E6EFF0E1F6E070E216ED00E206E010EAA
:1029E800226E000E236EE7EC33F0B3EC3AF005D01C
:1029F800520E43EC40F04BEC3FF0000E1D6EA60E5D
:102A08001C6E27EC3FF01C041D10D8A434D0000E17
:102A18001C6EA60E1B6E000E1E6E000E1D6E8CEC3C
:102A28003FF00001EC51D8B421D0C10E1E6EFE0E4D
:102A38001F6E070E216ED00E206E000E226E010E44
:102A4800236EE7EC33F072EC18F0940E1E6EFF0E56
:102A58001F6E070E216ED00E206E010E226E000E24
:102A6800236EE7EC33F0B3EC3AF005D0520E43ECAA
:102A780040F04BEC3FF0000E1D6EA90E1C6E27ECCB
:102A88003FF01C041D10D8A41200000E1C6EA90EE5
:102A98001B6E000E1E6E000E1D6E8CEC3FF00001CA
:102AA800EC51D8B43CD09F0E1E6EFF0E1F6E070E61
:102AB800216ED00E206E000E226E010E236EE7EC02
:102AC80033F0130E0001F519F611D8A402D0000E48
:102AD800466E150EF519F611D8A402D0050E466EED
:102AE800050E316E46507AEC2AF0000E496E4950B8
:102AF800FDEC20F0492A0E0E4964F9D7B3EC3AF000
:102B0800BE0E1E6EFF0E1F6E070E216ED00E206EBB
:102B1800010E226E000E236EE7EC33F01200520E07
:102B280043EC40F04BEC3FF01200336E33502C6E08
:102B38002D6AFF0E2E6EFF0E2F6E0001E351306ED0
:102B4800316A2E5030262F5031222C50305C3150B3
:102B5800800A326E2D50800A3258D8B011D0030E38
:102B6800186EE80E176E7EEC3DF0000E1C6E020E1D
:102B78001B6E000E1E6E000E1D6E8CEC3FF01200D8
:102B88003350360DF3CF2CF0F4CF2DF0100E2C2649
:102B9800000E2D222CC034F02DC035F0000E35BEAD
:102BA800FF0E366E376E34C01FF035C020F036C0C9
:102BB80021F037C022F001C123F002C124F0000E39
:102BC8003CEC3EF0020E34240D6E000E35200E6EE5
:102BD800000E36200F6E000E3720106E0D0E116E8F
:102BE800010E126E000E11EC27F00C0E34240D6E3F
:102BF800000E35200E6E000E36200F6E000E3720A8
:102C0800106E030E116E010E126E000E11EC27F0FD
:102C1800160E34240D6E000E35200E6E000E362072
:102C28000F6E000E3720106E210E116E010E126EFF
:102C3800000E11EC27F0200E34240D6E000E352006
:102C48000E6E000E36200F6E000E3720106E170E17
:102C5800116E010E126E000E11EC27F02A0E3424AC
:102C68001F6E000E3520206E000E3620216E000EDD
:102C78003720226E2BC123F0000E39EC3FF02B0ECB
:102C880034241F6E000E3520206E000E3620216E73
:102C9800000E3720226E2CC123F02DC124F02EC146
:102CA80025F02FC126F0000E32EC3DF02F0E342413
:102CB8001F6E000E3520206E000E3620216E000E8D
:102CC8003720226E30C123F031C124F032C125F003
:102CD80033C126F0000E32EC3DF0330E34241F6E63
:102CE800000E3520206E000E3620216E000E372093
:102CF800226E34C123F035C124F0000E3CEC3EF0C6
:102D0800350E34241F6E000E3520206E000E36203E
:102D1800216E000E3720226E36C123F0000E39ECEA
:102D28003FF01200446E44503D6E3E6AFF0E3F6E07
:102D3800FF0E406E0001E351416E426A3F5041264A
:102D4800405042223D50415C4250800A436E3E5002
:102D5800800A4358D8B007D0030E186EE80E176ED5
:102D68007EEC3DF012004450360DF3CF3DF0F4CF29
:102D78003EF0100E3D26000E3E223DC045F03EC0FE
:102D880046F0000E46BEFF0E476E486E45C01CF06A
:102D980046C01DF047C01EF048C01FF0000E18ECDA
:102DA8003DF01CC001F11DC002F1020E4524106E59
:102DB800000E4620116E000E4720126E000E4820AD
:102DC800136E0D0E146E010E156E000EEBEC1AF05C
:102DD8000C0E4524106E000E4620116E000E472082
:102DE800126E000E4820136E030E146E010E156E3F
:102DF800000EEBEC1AF0160E4524106E000E46205D
:102E0800116E000E4720126E000E4820136E210E20
:102E1800146E010E156E000EEBEC1AF0200E452410
:102E2800106E000E4620116E000E4720126E000E26
:102E38004820136E170E146E010E156E000EEBEC83
:102E48001AF02A0E45241C6E000E46201D6E000E38
:102E580047201E6E000E48201F6E000E15EC3FF036
:102E680001012B6F2B0E45241C6E000E46201D6E93
:102E7800000E47201E6E000E48201F6E000EEAEC62
:102E880030F01CC02CF11DC02DF11EC02EF11FC04A
:102E98002FF12F0E45241C6E000E46201D6E000ECD
:102EA80047201E6E000E48201F6E000EEAEC30F020
:102EB8001CC030F11DC031F11EC032F11FC033F10A
:102EC800330E45241C6E000E46201D6E000E472052
:102ED8001E6E000E48201F6E000E18EC3DF01CC040
:102EE80034F11DC035F1350E45241C6E000E462008
:102EF8001D6E000E47201E6E000E48201F6E000E2D
:102F080015EC3FF00101366F1200030E0C6E000E37
:102F18000D6E000E0E6E030E0F6E0001835140EC15
:102F280020F0000E736E4A0E0D6E030E0E6E670EC5
:102F38000F6EFD0E106E71EC39F04A0E176E030E0F
:102F4800186EFA0E196EFE0E1A6ECBEC3EF04A0E93
:102F5800176E030E186ED90E196EFF0E1A6ECBEC93
:102F68003EF04A0E206E030E216E49EC2EF0010E43
:102F78000001836F640E096E000E0A6E000E0B6E60
:102F8800000E0C6E8CEC3AF0030E0C6E000E0D6EFB
:102F9800000E0E6E030E0F6E0001835140EC20F000
:102FA8000CC081F00DC082F082C080F00001812940
:102FB80003E18229D8B465D0732A4A0E0D6E030E38
:102FC8000E6E670E0F6EFD0E106E71EC39F083C039
:102FD80018F0196A4A0E1A6E030E1B6E000E1D6E4B
:102FE8000A0E1C6E1BEC28F04A0E176E030E186EA4
:102FF800F50E196EFF0E1A6ECBEC3EF04A0E176EE8
:10300800030E186E00018051020DEA0EF324D96EEA
:10301800010EF420DA6EDECF19F0DDCF1AF0CBEC1A
:103028003EF04A0E176E030E186E660E196EFD0EF0
:103038001A6ECBEC3EF0000E0D6E030E0E6E660E91
:103048000F6EFD0E106E71EC39F0410E0C6E000E15
:103058000D6E000E0E6E030E0F6E0001835140ECD4
:1030680020F04A0E176E030E186E000E196E030E2E
:103078001A6ECBEC3EF04A0E206E030E216E49EC20
:103088002EF00001832B0E0E836574D77350D8A4DD
:1030980007D04B0E206EFE0E216E49EC2EF012006A
:1030A80073C018F0196A4A0E1A6E030E1B6E000ED2
:1030B8001D6E0A0E1C6E1BEC28F04A0E176E030ECE
:1030C800186E7D0E196EFE0E1A6ECBEC3EF04A0E8F
:1030D800206E030E216E49EC2EF01200040E1F6EB6
:1030E8001FC01AF0D8901A321A28206E1F50010BF0
:1030F800216E1F50120DF350EC0F1E6E010E1E2490
:103108000D6E0E6A000E0E22AAEC3CF00DC01CF0EB
:103118000EC01DF02150070DF3CF22F01DC023F083
:103128001CC024F00A0E0C6E030E0D6E220E0E6EDD
:103138000F6A205040EC20F0070E1B6E170E1A6E17
:103148006A0EE82EFED71A2EFCD71B2EFAD700D00F
:103158002150070DF350020F226E030E1E24096E34
:103168000A6A000E0A22C7EC3CF0236E080E0C6EA9
:10317800020E0D6E220E0E6E0F6A205040EC20F0EB
:10318800070E1B6E170E1A6E6A0EE82EFED71A2E41
:10319800FCD71B2EFAD700D02150070DF350030F90
:1031A800226E040E1E24096E0A6A000E0A22C7EC5B
:1031B8003CF0236E080E0C6E020E0D6E220E0E6E83
:1031C8000F6A205040EC20F0070E1B6E170E1A6E87
:1031D8006A0EE82EFED71A2EFCD71B2EFAD700D07F
:1031E8002150070DF350040F226E050E1E24096EA0
:1031F8000A6A000E0A22C7EC3CF0236E080E0C6E19
:10320800020E0D6E220E0E6E0F6A205040EC20F05A
:10321800070E1B6E170E1A6E6A0EE82EFED71A2EB0
:10322800FCD71B2EFAD700D0100E1E240D6E0E6A86
:10323800000E0E22AAEC3CF00DC01CF00EC01DF0D2
:103248002150070DF350050F226E1DC023F01CC03E
:1032580024F00A0E0C6E030E0D6E220E0E6E0F6A0F
:10326800205040EC20F0070E1B6E170E1A6E6A0EE7
:10327800E82EFED71A2EFCD71B2EFAD700D0210431
:10328800D8A40AD0010E0C6E000E0D6E220E0E6E22
:103298000F6A205040EC20F01F2A0E0E1F6420D722
:1032A80012001A6E000E1B6E000E0101816F050ED2
:1032B800806F135005E1020E125CD8B0120001D0E5
:1032C8001200135003E11204D8A002D0080E01D056
:1032D800000E1B6E1AC01CF0D8901C36A00E1C12D3
:1032E8001C801B501C12C3EC3FF01CC017F0FE0ED4
:1032F800171617500B6E0C6A11EC40F011C00BF04A
:103308000C6A11EC40F010C00BF00C6A11EC40F0A4
:103318002EEC40F01CC00BF00C6A11EC40F0000ED3
:10332800196E79D013507BE1020E125CD8B077D0B9
:1033380010C017F0010E17267F0E1716D8A451D00B
:10334800000E0C6E000E0B6E1AEC39F00B5015C007
:10335800D9FF16C0DAFFDF6E35EC40F015C0D9FF93
:1033680016C0DAFFDF50D0EC3FF0340E176EF20EC5
:10337800E82EFED7172EFCD7010E1026000E1122BC
:1033880012221322135003E11204D8A002D0080E0F
:1033980001D0000E1B6E1AC01CF0D8901C36A00E6F
:1033A8001C121C801B501C12C3EC3FF01CC017F0F1
:1033B800FE0E171617500B6E0C6A11EC40F011C078
:1033C8000BF00C6A11EC40F010C00BF00C6A11EC19
:1033D80040F02EEC40F01CC00BF00C6A11EC40F0F1
:1033E80019D0000E0C6E010E0B6E1AEC39F00B5052
:1033F80015C0D9FF16C0DAFFDF6E15C0D9FF16C099
:10340800DAFFDF50D0EC3FF0010E1026000E11223B
:1034180012221322192A1450195CD8A083D7000E3F
:103428000C6E000E0B6E1AEC39F035EC40F0070EFE
:10343800176EC00EE82EFED7172EFCD712002C6E82
:10344800000E2D6E2D50110D000EF324156E040E76
:10345800F420166E2D505EEC2BF02D2A090E2D64EB
:10346800F1D7000E326EA00E286E020E296E2C5077
:10347800A00DF3CF2AF0F4CF2BF03250100DF350FB
:103488002A26F4502B2228502A2629502B222AC0DB
:103498002EF02BC02FF0000E2FBEFF0E306E316EB7
:1034A8002EC01FF02FC020F030C021F031C022F014
:1034B8003250110D010EF324D96E040EF420DA6E89
:1034C800DECF23F0DDCF24F0000E3CEC3EF0020E00
:1034D8002E241F6E000E2F20206E000E3020216E2D
:1034E800000E3120226E3250110D030EF324D96ED6
:1034F800040EF420DA6EDF50236E000E39EC3FF034
:10350800030E2E241F6E000E2F20206E000E30207A
:10351800216E000E3120226E3250110D040EF3245C
:10352800D96E040EF420DA6EDF50236E000E39ECEB
:103538003FF0040E2E241F6E000E2F20206E000E6A
:103548003020216E000E3120226E3250110D050EF2
:10355800F324D96E040EF420DA6EDF50236E000EC9
:1035680039EC3FF0050E2E240D6E000E2F200E6E46
:10357800000E30200F6E000E3120106E3250110DEB
:10358800060EF324116E040EF420126E000E11ECD8
:1035980027F00F0E2E241F6E000E2F20206E000E17
:1035A8003020216E000E3120226E3250110D0F0E88
:1035B800F324D96E040EF420DA6EDF50236E000E69
:1035C80039EC3FF0322A090E32644DD71200186EDA
:1035D800000E196E135005E1020E125CD8B01200ED
:1035E80001D01200135003E11204D8A002D0080E33
:1035F80001D0000E196E18C01AF0D8901A36A00E15
:103608001A121A8019501A12C3EC3FF01AC016F099
:10361800FE0E161616500B6E0C6A11EC40F011C017
:103628000BF00C6A11EC40F010C00BF00C6A11ECB6
:1036380040F02EEC40F01AC00BF00C6A11EC40F090
:10364800000E176E135079E1020E125CD8B075D0D7
:1036580010C016F0010E16267F0E1616D8A44CD0F0
:10366800000E0C6E000E0B6E1AEC39F00B5014C0E5
:10367800D9FF15C0DAFFDF6E35EC40F0340E166E58
:10368800F20EE82EFED7162EFCD7010E1026000EDD
:10369800112212221322144A152A135003E112048C
:1036A800D8A002D0080E01D0000E196E18C01AF06A
:1036B800D8901A36A00E1A121A8019501A12C3EC92
:1036C8003FF01AC016F0FE0E161616500B6E0C6A56
:1036D80011EC40F011C00BF00C6A11EC40F010C076
:1036E8000BF00C6A11EC40F02EEC40F01AC00BF015
:1036F8000C6A11EC40F01BD0000E0C6E010E0B6E24
:103708001AEC39F00B5014C0D9FF15C0DAFFDF6E80
:1037180014C0D9FF15C0DAFFDF50D8B40ED0144A50
:10372800152A010E1026000E112212221322172A22
:103738001704166E3F0E166485D7000E0C6E000E29
:103748000B6E1AEC39F035EC40F0070E166EC00E11
:10375800E82EFED7162EFCD71200000E136EB30EFD
:10376800126EE60E146E010E156E040E166E9AECAD
:1037780028F0E8C128F0296A2A6A2B6A2AC02BF0A7
:1037880029C02AF028C029F0286AE7C12CF02D6A40
:103798002E6A2F6A2DC02FF02CC02EF02D6A2C6AAD
:1037A800E6C130F0316A326A336A30C033F0326AC7
:1037B800316A306A2C503024346E2D503120356EE9
:1037C8002E503220366E2F503320376E2850342436
:1037D800386E29503520396E2A5036203A6E2B50D3
:1037E80037203B6E0101E95138243C6E000E392028
:1037F8003D6E000E3A203E6E000E3B203F6E3C5060
:103808003D103E103F10D8B412000001C9513C18B9
:1038180069E1CA513D1866E1CB513E1863E1CC51CC
:103828003F18D8A41200000E1B6EB30E1A6E000EBD
:103838001C6E000E1D6E000E1E6E000E1F6EDAEC62
:103848003AF0000E1D6EB20E1C6E27EC3FF01C0401
:103858001D10D8A41CD0000E746E000E0001EC6F71
:10386800DD69DE69000E1C6EB20E1B6E000E1E6E48
:10387800000E1D6E8CEC3FF0000E1C6E9A0E1B6E37
:10388800000E1E6E000E1D6E8CEC3FF027D0000E51
:103898001D6EB20E1C6E27EC3FF01C501D10D8A4F4
:1038A8001DD0010E746E010E0001EC6F000EDE6F6C
:1038B8000A0EDD6F000E1C6EB20E1B6E000E1E6E21
:1038C800010E1D6E8CEC3FF0000E1C6E9A0E1B6EE6
:1038D800000E1E6E010E1D6E8CEC3FF0FFEC3FF0EB
:1038E800B3EC3AF012005A0E0B6EA50E0A6E3CECC1
:1038F80040F0030ED0EC3FF0810ED0EC3FF0200EEC
:10390800D0EC3FF0070ED0EC3FF09C0E1D6ED70EAA
:10391800E82EFED71D2EFCD700F015EC3CF0000970
:10392800D8B416D0000E3B6E3B50060F1D6E1E6AB3
:10393800830E1D24D96E010E1E20DA6E3B501F0F18
:10394800E16EE26ADFCFE7FF3B2A090E3B64ECD762
:10395800290E096E1F50B0EC3DF02C0E096E205058
:10396800B0EC3DF02F0E096E2150B0EC3DF01BC0BD
:103978000DF00E6A670E0F6EFD0E106E71EC39F0C9
:103988001BC017F0186A2F0E196E1A6ACBEC3EF09E
:103998001BC017F0186AFC0E196EFF0E1A6ECBECDE
:1039A8003EF01BC017F0186A2C0E196E1A6ACBEC81
:1039B8003EF01BC017F0186AFC0E196EFF0E1A6E47
:1039C800CBEC3EF01BC017F0186A290E196E1A6A64
:1039D800CBEC3EF0320E096E2350B0EC3DF0350EC4
:1039E800096E2450B0EC3DF0380E096E2550B0EC4D
:1039F8003DF01CC00DF00E6A670E0F6EFD0E106EC6
:103A080071EC39F01CC017F0186A320E196E1A6A78
:103A1800CBEC3EF01CC017F0186AE60E196EFE0ECD
:103A28001A6ECBEC3EF01CC017F0186A350E196EF2
:103A38001A6ACBEC3EF01CC017F0186AE60E196E35
:103A4800FE0E1A6ECBEC3EF01CC017F0186A380E4A
:103A5800196E1A6ACBEC3EF0010E096E000E0A6E62
:103A6800000E0B6E000E0C6E00EC3BF01200000E08
:103A78001C6E020E1B6E000E1E6E000E1D6E8CEC70
:103A88003FF0000E1C6E030E1B6E000E1E6E000E25
:103A98001D6E8CEC3FF0000E1C6E040E1B6E000EAB
:103AA8001E6E000E1D6E8CEC3FF0000E1C6E050E97
:103AB8001B6E000E1E6E000E1D6E8CEC3FF000019A
:103AC800F299000E0A6E100E096EC7EC3CF0000168
:103AD800F26FF251D8B48BD0680E206EFD0E216EB5
:103AE80049EC2EF0C10E206EFD0E216E49EC2EF031
:103AF800000E9BEC39F0F2A113D0F291B40E206EB7
:103B0800FF0E216E49EC2EF0000E1C6E020E1B6E8D
:103B1800000E1E6E010E1D6E8CEC3FF0EDEC2AF0CF
:103B28000001F2A51DD0F2951E0E206EFF0E216E2B
:103B380049EC2EF0000E1C6E030E1B6E000E1E6E5E
:103B4800010E1D6E8CEC3FF056EC37F0100E096E2E
:103B5800270E0A6E000E0B6E000E0C6E8CEC3AF0FF
:103B68000001F2A71ED0F297F289C70E206EFF0E51
:103B7800216E49EC2EF0000E1C6E040E1B6E000E1A
:103B88001E6E010E1D6E8CEC3FF081EC1FF0100EC6
:103B9800096E270E0A6E000E0B6E000E0C6E8CEC72
:103BA8003AF00001F2A31DD0F2932D0E206EFF0E05
:103BB800216E49EC2EF0000E1C6E050E1B6E000ED9
:103BC8001E6E010E1D6E8CEC3FF07CEC2DF0100E7D
:103BD800096E270E0A6E000E0B6E000E0C6E8CEC32
:103BE8003AF0000E186E0F0E176E9CEC3FF0F2C004
:103BF800E4F012001C6E000E0101816F050E806F4B
:103C0800105005E1020E0F5CD8B0120001D012006E
:103C1800105003E10F04D8A002D0080E01D0000E06
:103C28001D6E1CC01EF0D8901E36A00E1E121D5010
:103C38001E12C3EC3FF01EC00BF00C6A11EC40F0F2
:103C48000EC00BF00C6A11EC40F00DC00BF00C6AC2
:103C580011EC40F0000E1B6E63D0105005E1020E0F
:103C68000F5CD8B0120001D012000DC014F0010E84
:103C780014267F0E1416D8A43FD012C0D9FF13C043
:103C8800DAFFDF50146E14500B6E0C6A11EC40F022
:103C980035EC40F0340E146EF20EE82EFED7142EDA
:103CA800FCD7010E0D26000E0E220F221022124AFA
:103CB800132A105003E10F04D8A002D0080E01D037
:103CC800000E1D6E1CC01EF0D8901E36A00E1E12CF
:103CD8001D501E12C3EC3FF01EC00BF00C6A11EC15
:103CE80040F00EC00BF00C6A11EC40F00DC00BF068
:103CF8000C6A11EC40F013D012C0D9FF13C0DAFFE0
:103D0800DF50146E14500B6E0C6A11EC40F0124A1E
:103D1800132A010E0D26000E0E220F2210221B2A36
:103D2800FF0E146EFF0E156E1150166E176A1450A2
:103D38001626155017221B50186E196A1650185C53
:103D48001950800A1A6E1750800A1A58D8A085D7B9
:103D580012C0D9FF13C0DAFFDF50146E14500B6E77
:103D68000C6A11EC40F035EC40F0340E146EF20E93
:103D7800E82EFED7142EFCD71200196E000E1A6E0C
:103D8800000E0101816F050E806F135005E1020ED0
:103D9800125CD8B0120001D01200135003E11204D3
:103DA800D8A002D0080E01D0000E1A6E19C01BF060
:103DB800D8901B36A00E1B121B801A501B12C3EC86
:103DC8003FF01BC016F0FE0E161616500B6E0C6A4E
:103DD80011EC40F011C00BF00C6A11EC40F010C06F
:103DE8000BF00C6A11EC40F02EEC40F01BC00BF00D
:103DF8000C6A11EC40F0000E186E6BD013506DE198
:103E0800020E125CD8B069D010C016F0010E16264A
:103E18007F0E1616D8A44AD01550D96EDA6A000E4D
:103E28000C6E000E0B6E1AEC39F00B50DF6E35EC91
:103E380040F0340E166EF20EE82EFED7162EFCD782
:103E4800010E1026000E112212221322152A1350D9
:103E580003E11204D8A002D0080E01D0000E1A6E99
:103E680019C01BF0D8901B36A00E1B121B801A50CD
:103E78001B12C3EC3FF01BC016F0FE0E16161650B0
:103E88000B6E0C6A11EC40F011C00BF00C6A11ECCF
:103E980040F010C00BF00C6A11EC40F02EEC40F032
:103EA8001BC00BF00C6A11EC40F012D01550D96E03
:103EB800DA6A000E0C6E010E0B6E1AEC39F00B501C
:103EC800DF6E152A010E1026000E1122122213226F
:103ED800182A1450185CD8A091D7000E0C6E000E4A
:103EE8000B6E1AEC39F035EC40F0070E166EC00E6A
:103EF800E82EFED7162EFCD71200000E1D6E040EFB
:103F08001C6E27EC3FF01C041D10D8A41FD0000124
:103F1800F2B71CD0F2A7B3EC3AF00001F287D75100
:103F2800DB5DDC51800A6E6ED851800A6E58D8B0BD
:103F380007D0010E6CEC3FF0010E9BEC39F012003B
:103F4800000E6CEC3FF0FEEC3CF01200000E1D6E13
:103F5800040E1C6E27EC3FF01C501D10D8A46CD02A
:103F68000001F2A769D0F297000E6CEC3FF0000E4A
:103F78001C6E060E1B6E000E1E6E000E1D6E8CEC67
:103F88003FF0420E43EC40F0000E1C6E160E1B6E06
:103F9800000E1E6E000E1D6E8CEC3FF0000E1D6EA6
:103FA800060E1C6E27EC3FF0F10E1C181D10D8A44D
:103FB80002D0010E01D0000E6E6E000E1D6E060EB0
:103FC8001C6E27EC3FF0F00E1C181D10D8A402D070
:103FD800010E01D0000E6E10E8B004D00400FCEC15
:103FE80032F0DCD7000E1D6E060E1C6E27EC3FF07B
:103FF800F00E1C181D10D8A40DD0000E0001EE6F95
:10400800000EEF6F000E9BEC39F031EC34F0B3EC9E
:104018003AF01200000E1D6E060E1C6E27EC3FF0E3
:10402800FA0E1C181D10D8A412003A0E186E980E1D
:10403800176E7EEC3DF01200000E1D6E040E1C6E15
:1040480027EC3FF01C041D10D8A412000001F2A7B1
:104058001200D751DB5DDC51800A6E6ED851800AA0
:104068006E58D8B005D0010E6CEC3FF07588120080
:10407800000E6CEC3FF067D7126E13681468000EE0
:10408800156E0F0E0C18D8B410D00D0E0C18D8B42D
:104098000CD0180E0C18D8B408D0160E0C18D8B4BA
:1040A80004D0410E0C18D8A40AD0010E156E20EECB
:1040B80005F00E50D9260F50DA22DF50186EAA0EDE
:1040C8000B6EBB0E0A6E3CEC40F0000ED0EC3FF0DD
:1040D8001250D0EC3FF00C50D0EC3FF00D50D0EC2B
:1040E8003FF0000E196E0AD019500E24D96E000E3A
:1040F8000F20DA6EDF50D0EC3FF0192A0D50195C12
:10410800D8A0F2D7D50EE82EFED700F07690000E94
:10411800176E000E166EE40E00D000D0E82EFCD705
:1041280000D000D076A034D0150E106EC60EE82E42
:10413800FED7102EFCD700D01550D8B403D018C025
:1041480088F103D0020E0101886F000E196E0FD09E
:10415800890E1924D96EDA6A010EDA2219500E2452
:10416800E16E000E0F20E26EDFCFE7FF192A010192
:104178008851195CD8A0ECD78A5189C110F0116A0E
:1041880010C011F0106A1010136E1150146E0AD07E
:10419800164A172A17BEBFD7900E165C010E17587D
:1041A800D8A0B9D776B01FD0020E0101886F8969EF
:1041B8008A69136814681550D8B415D018C088F1E6
:1041C800000E196E09D0890E1924D96EDA6A010E0B
:1041D800DA22FF0EDF6E192A195018BE04D0FF0A22
:1041E8001824D8B0F0D7769013C00CF014C00DF096
:1041F80012002D6E2D50010B296E29C026F02D506E
:104208000C0DF3CF22F0F4CF23F0E60E22242A6E11
:10421800000E23202B6E030E2D641200040E2D5E5B
:104228002D50120DF350340F2C6E2D50010B296EAA
:1042380029C026F02D500C0DF3CF22F0F4CF23F037
:10424800E60E22242A6E000E23202B6E2AC01BF0B5
:104258002BC01CF02CC009F00A6AC7EC3CF0226E97
:10426800010E22241D6E1E6A000E1E228CEC3FF0E9
:10427800020E2A241B6E000E2B201C6E010E2C240D
:104288000D6E0E6A000E0E22AAEC3CF00DC01DF059
:104298000EC01EF08CEC3FF0030E2A241B6E000E9D
:1042A8002B201C6E030E2C24096E0A6A000E0A22AB
:1042B800C7EC3CF0226E22501D6E1E6A8CEC3FF05B
:1042C800040E2A241B6E000E2B201C6E040E2C24B8
:1042D800096E0A6A000E0A22C7EC3CF0226E2250D0
:1042E8001D6E1E6A8CEC3FF0050E2A241B6E000E14
:1042F8002B201C6E050E2C24096E0A6A000E0A2259
:10430800C7EC3CF0226E22501D6E1E6A8CEC3FF00A
:10431800060E2C240D6E0E6A000E0E224A0E0F6E2B
:10432800030E106EE3EC3CF0060E2A241A6E000E03
:104338002B201B6E4A0E1C6E030E1D6EB8EC3EF051
:104348000B0E2A241B6E000E2B201C6E100E2C2424
:104358000D6E0E6A000E0E22AAEC3CF00DC01DF088
:104368000EC01EF08CEC3FF01200000E136E9B0E78
:10437800126EE60E146E010E156E040E166E9AEC91
:1043880028F0E8C124F0256A266A276A26C027F0A3
:1043980025C026F024C025F0246AE7C128F0296A40
:1043A8002A6A2B6A29C02BF028C02AF0296A286AB1
:1043B800E6C12CF02D6A2E6A2F6A2CC02FF02E6AC7
:1043C8002D6A2C6A28502C24306E29502D20316EED
:1043D8002A502E20326E2B502F20336E245030243A
:1043E800346E25503120356E26503220366E2750D7
:1043F8003320376E0101E9513424386E000E352020
:10440800396E000E36203A6E000E37203B6E38505B
:1044180039103A103B10D8B434D00001C9513818BB
:1044280030E1CA5139182DE1CB513A182AE1CC5163
:104438003B18D8A426D0750EDE6F300EDD6F010E46
:10444800EC6F000E1C6E9A0E1B6E000E1E6E010E97
:104458001D6E8CEC3FF0000E1C6E9B0E1B6E000E4A
:104468001E6E000E1D6E8CEC3FF0000E1C6E9C0E36
:104478001B6E000E1E6E000E1D6E8CEC3FF0B3EC32
:104488003AF00001EC05D8B4DEAF0ED0000EEC6FA8
:10449800000E1C6E9A0E1B6E000E1E6E000E1D6E18
:1044A8008CEC3FF04BEC3FF008EC40F05A0AD8A4F3
:1044B8001200750E0001DE6F300EDD6F000EE9ECA4
:1044C8003FF01200286E28500C0DF3CF22F0F4CFE5
:1044D80023F0E60E2224296E000E23202A6E28508F
:1044E800120DF350340F2B6E2850010B276E27C086
:1044F80024F029C01BF02AC01CF02BC009F00A6A5E
:10450800C7EC3CF0226E22501D6E1E6A8CEC3FF008
:10451800020E29241B6E000E2A201C6E010E2B246D
:104528000D6E0E6A000E0E22AAEC3CF00DC01DF0B6
:104538000EC01EF08CEC3FF0030E29241B6E000EFB
:104548002A201C6E030E2B24096E0A6A000E0A220A
:10455800C7EC3CF0226E22501D6E1E6A8CEC3FF0B8
:10456800040E29241B6E000E2A201C6E040E2B2418
:10457800096E0A6A000E0A22C7EC3CF0226E22502D
:104588001D6E1E6A8CEC3FF0050E29241B6E000E72
:104598002A201C6E050E2B24096E0A6A000E0A22B8
:1045A800C7EC3CF0226E22501D6E1E6A8CEC3FF068
:1045B800060E2B240D6E0E6A000E0E224A0E0F6E8A
:1045C800030E106EE3EC3CF0060E29241A6E000E62
:1045D8002A201B6E4A0E1C6E030E1D6EB8EC3EF0B0
:1045E8000B0E29241B6E000E2A201C6E100E2B2485
:1045F8000D6E0E6A000E0E22AAEC3CF00DC01DF0E6
:104608000EC01EF08CEC3FF01200116E1150D8A4B1
:104618000CAE1AD009C00DF00AC00EF00BC00FF096
:104628000CC010F00D1E0E1E0F1E101E0D2A000EBF
:104638000E220F2210220DC013F00EC014F00FC06E
:1046480015F010C016F008D009C013F00AC014F015
:104658000BC015F00CC016F009500A100B100C1006
:10466800D8A409D0000E096E000E0A6E000E0B6E5B
:10467800000E0C6E1200960E126E06D0122AD890FA
:104688001632153214321332000E13140D6E000E4A
:1046980014140E6E000E15140F6EFE0E1614106E06
:1046A8000D500E100F101010D8B40DD0E7D7122AE5
:1046B800010E1326000E142215221622D890163247
:1046C800153214321332000E13140D6E000E14142A
:1046D8000E6E000E15140F6EFF0E1614106E0D5090
:1046E8000E100F101010D8B407D0E1D71206D890CA
:1046F800133614361536163615BE03D0020E126060
:10470800F5D712A0159ED890123212C00DF00E6A7D
:104718000F6A106A0DC010F00F6A0E6A0D6A0D500C
:1047280013120E5014120F50151210501612115069
:10473800D8A40CAE01D0168E13C009F014C00AF02C
:1047480015C00BF016C00CF0120026EC3EF001016B
:10475800006F000E1C6E000E1D6E000E1E6E000E09
:104768001F6E000E18EC3DF01CC062F01DC063F017
:10477800624A632A100E625C270E6358D8A004D0E0
:10478800000E636E000E626E000E1F6E000E206E2D
:10479800000E216E000E226E62C023F063C024F06A
:1047A800000E3CEC3EF0580E1B6E4E0E1C6E77EC65
:1047B8001CF0000E0001E06F000EDF6F020E1C6E91
:1047C800000E1D6E000E1E6E000E1F6E000EEAEC2F
:1047D80030F01CC0C5F01DC0C6F01EC0C7F01FC019
:1047E800C8F062C001F163C002F1030E0D6E010E44
:1047F8000E6E580E0F6E106A71EC39F00D0E0D6EBC
:10480800010E0E6E4E0E0F6E106A71EC39F0170E17
:104818000D6E010E0E6E670E0F6EFD0E106E71ECB2
:1048280039F0210E0D6E010E0E6E670E0F6EFD0E25
:10483800106E71EC39F0000E0E6E090E0D6EAAECBA
:104848003CF00D5001012B6FC5C02CF1C6C02DF1F5
:10485800C7C02EF1C8C02FF1000E306F000E316FA7
:10486800000E326F000E336F000E356F000E346F7E
:104878003697369536933681005199EC15F0D2EC7F
:104888002FF012000C50D96EDA6A060ED926DF50C6
:104898000E6E0C50D96EDA6A070ED926DF500F6EED
:1048A800000E106E0C50D96EDA6A030ED926DF504E
:1048B800116E0C50D96EDA6A040ED926DF50126ECA
:1048C800000E136E0C50D96EDA6ADF50146E0C505D
:1048D800D96EDA6A010ED926DF50156E000E166EF3
:1048E8000D50D96EDA6ADF50176E0D50D96EDA6A3C
:1048F800010ED926DF50186E000E196E0D50D96EB4
:10490800DA6A030ED926DF501A6E0D50D96EDA6AAC
:10491800040ED926DF501B6E000E1C6E0D50D96E8A
:10492800DA6A060ED926DF501D6E0D50D96EDA6A86
:10493800070ED926DF501E6E000E1F6E5A0E0B6E24
:10494800A50E0A6E3CEC40F00A0ED0EC3FF0800E4B
:10495800D0EC3FF01F0ED0EC3FF05A0ED0EC3FF0F9
:104968000E0E096E03EC3FF0D0EC3FF0110E096E0D
:1049780003EC3FF0D0EC3FF0140E096E03EC3FF06F
:10498800D0EC3FF0010ED0EC3FF0170E096E03ECAF
:104998003FF0D0EC3FF01A0E096E03EC3FF0D0EC7C
:1049A8003FF01D0E096E03EC3FF0D0EC3FF0120013
:1049B800000E0E6EFA0E0D6EAAEC3CF00DC0CFF094
:1049C8000EC0D0F0000E1C6ED60E1B6ECFC01DF0B0
:1049D800D0C01EF08CEC3FF0320E0001CF19D01180
:1049E800D8A422D0F80E0101386F000E376F030EDD
:1049F8003A6FE00E396F000E3C6F1F0E3B6F3D693A
:104A08003E693F694069416942694369446945694A
:104A180046694769486949694A694B694C694D69FA
:104A28004E694F6950691200500ECF19D011D8A4A1
:104A380036D0000E0101386F000E376F390E3A6F0D
:104A4800E70E396F6B0E3C6F6D0E3B6F780E3E6F45
:104A5800000E3D6F9A0E406F230E3F6FF80E426FA7
:104A6800000E416FFB0E446FE00E436FFB0E466F66
:104A7800F70E456FD50E486F400E476F030E4A6F0D
:104A8800E00E496F070E4C6FE00E4B6F000E4E6F35
:104A98001F0E4D6FF80E506F1F0E4F6F1200010161
:104AA8003769386939693A693B693C693D693E69E2
:104AB8003F69406941694269436944694569466992
:104AC8004769486949694A694B694C694D694E6942
:104AD8004F69506912002E6E2E500C0DF3CF2CF03A
:104AE800F4CF2DF0E60E2C242F6E000E2D20306E04
:104AF8002E50120DF350340F316E31C022F0236A5C
:104B08002EC024F060EC38F0010E3124286E296A9A
:104B1800000E2922020E2F241C6E000E30201D6E5E
:104B280027EC3FF01CC02AF01DC02BF0A5EC3EF08E
:104B3800030E3124226E236A000E2322030E2F2433
:104B48001C6E000E30201D6E27EC3FF01C50246EAA
:104B580060EC38F0040E3124226E236A000E232202
:104B6800040E2F241C6E000E30201D6E27EC3FF023
:104B78001C50246E60EC38F0050E3124226E236A36
:104B8800000E2322050E2F241C6E000E30201D6EF1
:104B980027EC3FF01C50246E60EC38F0060E2F24F2
:104BA8001C6E000E30201D6E4A0E1E6E030E1F6E08
:104BB800A9EC3FF0060E3124286E296A000E29223E
:104BC8004A0E2A6E030E2B6ED5EC3BF0100E3124E4
:104BD800286E296A000E29220B0E2F241C6E000E47
:104BE80030201D6E27EC3FF01CC02AF01DC02BF0B2
:104BF800A5EC3EF0120022C024F023C025F0243A90
:104C0800253AF00E251624500F0B2512F00E241607
:104C1800000E2424266E010E2520276E22C015F0D2
:104C280023C016F0000E186E0A0E176EDEEC3EF06A
:104C3800A40E1524286E010E1620296E28C01BF01C
:104C480029C01CF026C00DF027C00EF0AAEC3CF0DD
:104C58000DC01DF00EC01EF08CEC3FF0010E282494
:104C68001B6E000E29201C6E020E2624096E000EF3
:104C780027200A6EC7EC3CF0246E24501D6E1E6A75
:104C88008CEC3FF0020E28241B6E000E29201C6EAF
:104C9800030E2624096E000E27200A6EC7EC3CF08E
:104CA800246E24501D6E1E6A8CEC3FF0030E2824DF
:104CB8001B6E000E29201C6E040E2624096E000EA1
:104CC80027200A6EC7EC3CF0246E24501D6E1E6A25
:104CD8008CEC3FF0050E26240D6E000E27200E6E7C
:104CE8004A0E0F6E030E106EE3EC3CF0000E03014B
:104CF800526F040E28241A6E000E29201B6E4A0ECD
:104D08001C6E030E1D6EB8EC3EF0120001018451BA
:104D180083C10BF00C6A0BC00CF00B6A0B26000E5B
:104D28000C2209C0D9FF0AC0DAFF0BC0DEFF0CC095
:104D3800DDFF20EE02F00950D9260A50DA2285C19B
:104D4800DFFF20EE03F00950D9260A50DA2286C187
:104D5800DFFF885187C10BF00C6A0BC00CF00B6A9F
:104D68000B26000E0C2220EE04F00950D9260A501A
:104D7800DA220BC0DEFF0CC0DDFF20EE06F0095082
:104D8800D9260A50DA2289C1DFFF000E0F6E1ED025
:104D98008A0E0F24D96EDA6A010EDA22DF500B6E02
:104DA8000C6A0F50020D09C00DF00AC00EF0F35046
:104DB8000D26F4500E22070E0D24D96E000E0E207B
:104DC800DA6E0BC0DEFF0CC0DDFF0F2A20EE02F00A
:104DD8000950D9260A50DA220F50DE5CD8B0D8D74D
:104DE80020EE25F00950D9260A50DA228AC1DFFFC1
:104DF80020EE26F00950D9260A50DA2201018B3913
:104E08000F0B0F0BDF6E20EE27F00950D9260A5042
:104E1800DA228B510F0BDF6E1200146E105005E171
:104E2800020E0F5CD8B0120001D01200105003E13E
:104E38000F04D8A002D0080E01D0000E156E14C0C1
:104E480016F0D8901636A00E161215501612C3EC8E
:104E58003FF016C00BF00C6A11EC40F00EC00BF0DE
:104E68000C6A11EC40F00DC00BF00C6A11EC40F02C
:104E780043D0105057E1020E0F5CD8B012000DC09D
:104E880013F0010E13267F0E1316D8A422D011C0DA
:104E9800D9FF12C0DAFFDF50136E13500B6E0C6A85
:104EA80011EC40F035EC40F0340E136EF20EE82EA3
:104EB800FED7132EFCD7010E0D26000E0E220F2250
:104EC8001022114A122A1050B6E10F04D8B0B3D7F5
:104ED800B4D711C0D9FF12C0DAFFDF50136E1350D8
:104EE8000B6E0C6A11EC40F0114A122A010E0D26C5
:104EF800000E0E220F22102211C0D9FF12C0DAFFB5
:104F0800DF50D8A4B6D7000E0C6E000E0B6E11EC55
:104F180040F035EC40F0340E136EF20EE82EFED75A
:104F2800132EFCD7120085C089F084C08AF083C094
:104F38008BF082C08CF0020E0C6E040E0D6E890E82
:104F48000E6E0F6AFF0E40EC20F0000E00018D6F10
:104F58005ED08D51020D000EF324D96E020EF4209E
:104F6800DA6EDE50DE10D8B450D08D51040D1E0E0E
:104F7800F324D96E020EF420DA6EDECF1BF0DECFFA
:104F88001CF0DECF1DF0DECF1EF08D51020D000E9D
:104F9800F324D96E020EF420DA6EDECF86F0DDCF70
:104FA80087F086C0D9FF87C0DAFFDECF09F0DDCFF2
:104FB8000AF0000E0ABEFF0E0B6E0C6E010E09EC15
:104FC80023F009C017F00AC018F00BC019F00CC084
:104FD8001AF0E1EC0DF017C062F018C063F019C0C8
:104FE80064F01AC065F031EC30F062C06CF063C058
:104FF8006DF05A0E00018D25D96EDA6A020EDA229A
:10500800DF50886F882990EC38F000018D2B7350A1
:10501800020D8D51866F876BF350865D8751800A2C
:10502800886FF450800A8859D8B0120092D7000EC1
:10503800246E000E236E000E206E18501910D8A48E
:1050480011D01AC0D9FF1BC0DAFF300EDF6E234A19
:10505800242A23501A24D96E24501B20DA6E000EFD
:10506800DF6E120019AE42D00A0E1C181D10D8A40B
:105078003DD0010E206E186C191ED8B0192A36D0F2
:1050880018C009F019C00AF01CC00BF01DC00CF0C4
:105098008FEC37F009C021F00AC022F022BE06D0FA
:1050A800225006E10A0E215CD8B002D0300E01D0A1
:1050B800570E21241E6E000E22201F6E23501A2424
:1050C800D96E24501B20DA6E1EC0DFFF234A242A23
:1050D80018C009F019C00AF01CC00BF01DC00CF074
:1050E80093EC35F009C018F00AC019F018501910DF
:1050F800D8A4C6D72050D8B40AD023501A24D96EC1
:1051080024501B20DA6E2D0EDF6E234A242A2350EA
:105118001A24D96E24501B20DA6E000EDF6E1AC0D6
:105128000DF01BC00EF0C3EC34F0120075B60DD0B4
:10513800020E186E4D0E176E740EE82EFED7172E3F
:10514800FCD7182EFAD700D008D03F0E176E550E90
:10515800E82EFED7172EFCD700F05A0E0B6EA50EC0
:105168000A6E3CEC40F0040ED0EC3FF0830ED0EC1D
:105178003FF012C00AF013C00BF03CEC40F0D8909E
:105188001630D0EC3FF0680E176EE40EE82EFED70E
:10519800172EFCD700D0000E1A6E000E196E24D000
:1051A800060E176E300EE82EFED7172EFCD700D04D
:1051B80076A018D07690000E1B6E0FD08A0E1B2496
:1051C800D96EDA6A010EDA221B501424E16E000E41
:1051D8001520E26EDFCFE7FF1B2A16501B5CD8B004
:1051E80009D0ECD7194A1A2A900E195C010E1A58E0
:1051F800D8A0D6D7040E166408D01B501424D96E34
:10520800000E1520DA6E000EDF6E010E096E000E1C
:105218000A6E000E0B6E000E0C6E00EC3BF01200D6
:10522800000E446E000E436E000E406E000E3F6E80
:1052380016C009F017C00AF018C00BF019C00CF01E
:105248001CC00DF01DC00EF0000E0EBEFF0E0F6E3E
:10525800106EC7EC37F009C041F00AC042F042BEF8
:1052680006D042500EE10A0E415CD8B00AD0435035
:105278001E0FD96EDA6A4150300FDF6E434A442A56
:1052880007D043501E0FD96EDA6A4150370FF5D751
:1052980016C009F017C00AF018C00BF019C00CF0BE
:1052A8001CC00DF01DC00EF0000E0EBEFF0E0F6EDE
:1052B800106E58EC36F009C016F00AC017F00BC093
:1052C80018F00CC019F01650171018101910D8A49F
:1052D800AFD74306D8A0440611D043501E0FD96E4D
:1052E800DA6A3F501A24E16E40501B20E26EDFCF8D
:1052F800E7FF4306D8A044063F4A402A44AEEDD70C
:105308003F501A24D96E40501B20DA6E000EDF6E13
:1053180012000001EC51D8B46FD0000E1D6ED20EF1
:105328001C6E27EC3FF01CC0D7F01DC0D8F0000E53
:105338001D6ED30E1C6E27EC3FF01CC0D5F01DC0AF
:10534800D6F0000E1D6ED40E1C6E27EC3FF01CC06C
:10535800D3F01DC0D4F0000E1D6ED50E1C6E27ECC8
:105368003FF01CC0D1F01DC0D2F0000E1D6ED60E4D
:105378001C6E27EC3FF01CC0CFF01DC0D0F0000E13
:10538800296E010E286ED7C02AF0D8C02BF0A5ECE4
:105398003EF0000E296E030E286ED5C02AF0D6C046
:1053A8002BF0A5EC3EF0000E296E050E286ED3C03A
:1053B8002AF0D4C02BF0A5EC3EF0000E296E070EA3
:1053C800286ED1C02AF0D2C02BF0A5EC3EF0000E1A
:1053D800296EFA0E286ECFC02AF0D0C02BF0A5ECAB
:1053E8003EF0010E21EC04F0500E43EC40F0B3EC1B
:1053F8003AF071EC2FF01200520E43EC40F04BECF7
:105408003FF012002F6E2F50120DF350340F306EF4
:1054180030C022F0236A2CC0D9FF2DC0DAFFDF503C
:10542800246E60EC38F0010E3024286E296A000ED4
:10543800292220EE01F02C50D9262D50DA22DECF79
:105448002AF0DDCF2BF0A5EC3EF0030E3024226EBF
:10545800236A000E232220EE03F02C50D9262D506B
:10546800DA22DF50246E60EC38F0040E3024226E0D
:10547800236A000E232220EE04F02C50D9262D504A
:10548800DA22DF50246E60EC38F0050E3024226EEC
:10549800236A000E232220EE05F02C50D9262D5029
:1054A800DA22DF50246E60EC38F0060E3024286EC5
:1054B800296A000E2922060E2C242A6E000E2D20A1
:1054C8002B6ED5EC3BF0100E3024286E296A000EA6
:1054D800292220EE0FF02C50D9262D50DA22DECFCB
:1054E8002AF0DDCF2BF0A5EC3EF01200376E37C066
:1054F80038F05AD03850110D000EF324D96E040E2E
:10550800F420DA6E38C0DFFF3850110D010EF32495
:10551800D96E040EF420DA6E000EDE6E000EDD6E1B
:105528003850110D030EF324D96E040EF420DA6EF0
:10553800000EDF6E3850110D040EF324D96E040EE0
:10554800F420DA6E000EDF6E3850110D050EF324CC
:10555800D96E040EF420DA6E000EDF6E3850110D8D
:10556800060EF3240D6E040EF4200E6E660E0F6EFA
:10557800FD0E106E71EC39F03850110D0F0EF3243A
:10558800D96E040EF420DA6E000EDE6E000EDD6EAB
:105598003850110D000EF3242C6E040EF4202D6EDD
:1055A800385006EC2AF0382A315037C032F0336AC6
:1055B8003226000E33223850346E356A3250345C4D
:1055C8003550800A366E3350800A3658D8B01200EB
:1055D80091D7000E1D6E020E1C6E27EC3FF01C04C6
:1055E8001D10D8A455D00001F2B152D0F281000E9E
:1055F8000C6E000E0D6E650E0E6E0F6AFF0E40ECFF
:1056080020F065EC3DF07CEC3EF0FF0AD8A40BD00E
:10561800F5EC3FF0A9EC23F026EC3EF0646E640450
:1056280023EC1AF012007CEC3EF00101006F002917
:10563800D8B41200005196EC16F0020E1C6E000E43
:105648001D6E000E1E6E000E1F6E000EEAEC30F08E
:105658001CC0C5F01DC0C6F01EC0C7F01FC0C8F0F2
:10566800060E1C6E000E1D6E000E1E6E000E1F6EC6
:10567800000E18EC3DF01CC0DFF01DC0E0F0C5C006
:1056880030F1C6C031F1C7C032F1C8C033F11200E1
:10569800000E1D6E020E1C6E27EC3FF01C501D10F4
:1056A800D8A412000001F2A112004DEC33F0000161
:1056B800F2911200176E1750120DF350340F186E36
:1056C80018C009F00A6AC7EC3CF015C0D9FF16C02B
:1056D800DAFFDF6E010E18240D6E0E6A000E0E2220
:1056E800AAEC3CF020EE01F01550D9261650DA222B
:1056F8000DC0DEFF0EC0DDFF20EE03F01550D926E9
:105708001650DA22030E1824096E0A6A000E0A22BD
:10571800C7EC3CF0DF6E20EE04F01550D926165089
:10572800DA22040E1824096E0A6A000E0A22C7EC4F
:105738003CF0DF6E20EE05F01550D9261650DA221F
:10574800050E1824096E0A6A000E0A22C7EC3CF0FE
:10575800DF6E060E18240D6E0E6A000E0E22060E5F
:1057680015240F6E000E1620106EE3EC3CF0100EA0
:1057780018240D6E0E6A000E0E22AAEC3CF020EEE4
:105788000FF01550D9261650DA220DC0DEFF0EC0D4
:10579800DDFF1200000E0101026F000E016F030E03
:1057A8000D6E010E0E6E660E0F6EFD0E106E71EC14
:1057B80039F00D0E0D6E010E0E6E660E0F6EFD0E9B
:1057C800106E71EC39F0170E0D6E010E0E6E660E2E
:1057D8000F6EFD0E106E71EC39F0210E0D6E010E7C
:1057E8000E6E660E0F6EFD0E106E71EC39F0000E27
:1057F80001012B6F000E2C6F000E2D6F000E2E6F07
:10580800000E2F6F000E306F000E316F000E326FDA
:10581800000E336F000E356F000E346F000E366FBA
:10582800000E386E04D0385099EC15F0382A000173
:10583800E351385CD8A0F7D7020E1F6E000E206E19
:10584800000E216E000E226E000E236E000E246ED6
:10585800000E256E000E266E000E32EC3DF0000E96
:105868000001C56F000EC66F000EC76F000EC86F2F
:105878001200640E096E000E0A6E000E0B6E000E0A
:105888000C6E8CEC3AF0D388D38AD38C9B8CEF0EB9
:10589800926E010E936EF00E946EE30E956E9668FE
:1058A800D59AD596D582D582D584F194F28AF2908C
:1058B800F2989E909F900B0ECF6EBA0ECE6ECD9240
:1058C800CD88CD8ACD8CCD869D80CD80F28CF28E10
:1058D800000E0101736F000E726F819E000E776FCC
:1058E800000E766F819C000E816F000E806F819A8A
:1058F800000E166EC20E176E010E186E000E196E8F
:1059080099EC36F020EC40F0A00E166E860E176E5D
:10591800010E186E000E196EEDEC38F0F40E096EDB
:10592800010E0A6E000E0B6E000E0C6E8CEC3AF037
:10593800E80E096E030E0A6E000E0B6E000E0C6E5A
:105948008CEC3AF0FCEC32F0F3D71B6E1B50100DC8
:10595800F3CF19F0F4CF1AF0000E19241C6E010EC3
:105968001A201D6E1CC00DF01DC00EF0AAEC3CF0F4
:1059780017C0D9FF18C0DAFF0DC0DEFF0EC0DDFF6B
:10598800020E1C24096E000E1D200A6EC7EC3CF0A6
:10599800196E1A6A20EE02F01750D9261850DA222A
:1059A80019C0DEFF1AC0DDFF030E1C24096E000EAD
:1059B8001D200A6EC7EC3CF0196E1A6A20EE04F03E
:1059C8001750D9261850DA2219C0DEFF1AC0DDFF99
:1059D80020EE06F01750D9261850DA22040E1C249F
:1059E800096E000E1D200A6EC7EC3CF0DF6E050E36
:1059F8001C240D6E000E1D200E6E4A0E0F6E030E37
:105A0800106EE3EC3CF0070E17240D6E000E182004
:105A18000E6E4A0E0F6E030E106E71EC39F0120006
:105A2800000E0914116E000E0A14126E800E0B146B
:105A3800136E7F0E0C14146E1150121013101410E4
:105A4800D8A408D0000E096E000E0A6E000E0B6E68
:105A5800000E0C6E000E0D14116E000E0E14126E58
:105A6800800E0F14136E7F0E1014146E1150121046
:105A780013101410D8A408D0000E0D6E000E0E6E70
:105A8800000E0F6E000E106E0CAE09D0096C0A1EC7
:105A9800D8B00A2A0B1ED8B00B2A800E0C5610AEAE
:105AA80009D00D6C0E1ED8B00E2A0F1ED8B00F2AC2
:105AB800800E1056000E091A000E0A1A000E0B1A54
:105AC800800E0C1A000E0D1A000E0E1A000E0F1A78
:105AD800800E101A0D50095C0E500A580F500B58C2
