:020000040000FA
:040000000EEF02F00D
:100018006E80D8CF04F0E8CF05F0E0CF06F0D9CF56
:1000280007F0DACF08F0F3CF09F0F4CF0AF09EAA70
:1000380020EF00F022EF00F0ACEF00F00001C7B1B4
:1000480028EF00F02AEF00F031EF00F0C781B40E7E
:100058008D6F010E8E6F58EF00F0000E0B6E0B5077
:100068002A0D000EF324D96E050EF420DA6EDF5047
:10007800D8A441EF00F043EF00F04FEF00F00B5031
:100088002A0D000EF32400018D6F050EF4208E6FEB
:10009800C78158EF00F00B2A050E0B6456EF00F0ED
:1000A80058EF00F033EF00F0010E0001906F900E52
:1000B8008F6F000E626E000E616EB8698CEF00F0F3
:1000C8009EAA69EF00F06BEF00F089EF00F08DC099
:1000D800D9FF8EC0DAFFAECFDFFF62BE7FEF00F040
:1000E800625007E1290E615CD8B07DEF00F07FEF28
:1000F80000F083EF00F0614A622A8D4B8E2B010ECF
:10010800906F900E8F6F8CEF00F08F07D8A090073C
:100118008F519011D8A493EF00F095EF00F064EFA1
:1001280000F0ABA29AEF00F09CEF00F0ACEF00F00B
:10013800AB98AB88AECF8FF0906BAECF8FF0906B53
:10014800AECF8FF0906B000E0101B46F0001C78332
:100158009EA0B1EF00F0B3EF00F0C5EF01F09E9064
:100168003C0ECF6EB40ECE6E010E0001B76FC4B157
:10017800C0EF00F0C2EF00F0C4EF00F0000EB76F60
:10018800000E626E010E616EDDEF00F0000E61245C
:10019800D96E020E6220DA6EDF50D8A4D6EF00F0D6
:1001A800D8EF00F0DBEF00F0000E0001B76F614AF6
:1001B800622A6A50016E026A6150015C0250800A2C
:1001C800036E6250800A0358D8B0EDEF00F0EFEFED
:1001D80000F0CAEF00F00001B705D8A4F6EF00F070
:1001E800F8EF00F01BEF01F004000001C491000ECD
:1001F800626E010E616E62BE0BEF01F0625009E1A2
:100208000F0E615CD8A00BEF01F00DEF01F00FEFBE
:1002180001F01BEF01F0000E6124D96E020E62207E
:10022800DA6E000EDF6E614A622AFFEF00F0F50E0B
:100238000001805D010E8159D8A025EF01F027EF5C
:1002480001F02AEF01F0819E2BEF01F0818EB15170
:10025800B211D8B432EF01F034EF01F03AEF01F007
:10026800320EB15F000EB25B3FEF01F0AFC0B1F0EC
:10027800B0C0B2F0C78D320EA327000EA423320EF1
:10028800B327000EB4236B50D8A44DEF01F04FEF05
:1002980001F05AEF01F0A2BF54EF01F056EF01F060
:1002A8005AEF01F0CE0EA127FF0EA223320E9F2790
:1002B800000EA023320E8027000E8123E80E805DF9
:1002C800030E8159D8A06BEF01F06DEF01F0C5EF77
:1002D80001F0C6A972EF01F074EF01F095EF01F09B
:1002E800C32B3B0EC3657BEF01F07DEF01F095EF6B
:1002F80001F0000EC36F6D2A3B0E6D6486EF01F0AE
:1003080088EF01F095EF01F0000E6D6E6C2A630E18
:100318006C6491EF01F093EF01F095EF01F0000E9E
:100328006C6E000E816F000E806F822B6950D8B4FE
:10033800A0EF01F0A2EF01F0A3EF01F069063B0E78
:100348008265A9EF01F0ABEF01F0C5EF01F0000EF7
:10035800826F832B3B0E8365B4EF01F0B6EF01F09B
:10036800C5EF01F0000E836F842B170E8465BFEF75
:1003780001F0C1EF01F0C5EF01F0000E846FC5EF89
:1003880001F0F2A2CAEF01F0CCEF01F0CDEF01F0DD
:10039800F292F2A4D2EF01F0D4EF01F0FEEF01F0F7
:1003A8000D0EE82EFED700F0000ED76EE10ED66EC9
:1003B800F2940001A951AA11D8B4E5EF01F0E7EFD2
:1003C80001F0EDEF01F0A907D8A0AA07818CEEEFA4
:1003D80001F0819CB551B611D8B4F5EF01F0F7EFF3
:1003E80001F0FDEF01F0B507D8A0B607818AFEEF4E
:1003F80001F0819A0AC0F4FF09C0F3FF08C0DAFFD0
:1004080007C0D9FF06C0E0FF05C0E8FF04C0D8FF59
:100418006E90100024EF36F0640E0C6E000E0D6E18
:10042800000E0E6E000E0F6E62EC3CF0D388D38A7D
:10043800D38C9B8CEF0E926E010E936EF00E946E21
:10044800E30E956E9668D59AD596D582D582D584D1
:10045800F194F28AF290F2989E909F900B0ECF6ED4
:10046800BA0ECE6ECD92CD88CD8ACD8CCD869D80AC
:10047800CD80F28CF28E000E0001A66F000EA56FE3
:10048800819E000EAA6F000EA96F819C000EB66FA8
:10049800000EB56F819A000E196EC20E1A6E010E0B
:1004A8001B6E000E1C6EA9EC37F0D5EC41F0A00EC7
:1004B800196E860E1A6E010E1B6E000E1C6E06EC6F
:1004C8003CF0F40E0C6E010E0D6E000E0E6E000E5A
:1004D8000F6E62EC3CF0000E116E220E106E77EC7F
:1004E8003FF010C0E4F011C0E5F00001E42906E196
:1004F800E529D8A482EF02F084EF02F098EF02F029
:10050800000E2C6E220E2B6E000E2E6E000E2D6E1F
:10051800FFEC40F0000E2C6EE80E2B6E000E2E6ED7
:10052800000E2D6EFFEC40F00001E44BE52B000EB1
:100538002C6E220E2B6EE4C02DF0E5C02EF0FFECE1
:1005480040F00001C599000E116EFA0E106E77EC9E
:100558003FF010C093F011C094F02C0E0C6E010EF9
:100568000D6E000E0E6E000E0F6E62EC3CF0BF0EAC
:10057800236EFC0E246E02EC2CF02C0E0C6E010E79
:100588000D6E000E0E6E000E0F6E62EC3CF0320E19
:10059800236EFE0E246E02EC2CF02C0E0C6E010E57
:1005A8000D6E000E0E6E000E0F6E62EC3CF0ED0E3E
:1005B800236EFC0E246E02EC2CF02C0E0C6E010E39
:1005C8000D6E000E0E6E000E0F6E62EC3CF0070E04
:1005D800206EC60E1F6E000E216E030E226EAAEC50
:1005E80041F06A0E106E010E116EEA0E126EFE0ECA
:1005F800136ED7EC3BF06A0E1A6E010E1B6E000EDE
:100608001C6E030E1D6EC6EC40F06A0E236E010EC2
:10061800246E02EC2CF02C0E0C6E010E0D6E000EEA
:100628000E6E000E0F6E62EC3CF062EC1CF0000ED9
:100638000D6E340E0C6E9BEC3EF0FF0AD8A427EF2B
:1006480003F029EF03F074EF03F00D0E236EFD0E97
:10065800246E02EC2CF00A0E346E000EFFEC2EF025
:1006680013EC3DF041EC3BF0FDEC39F0000E6B6E05
:10067800000E0001C16FCCEC41F0000E266E100E8A
:10068800256E000E276EC6EC38F0000E2C6E090E93
:100698002B6E000E2E6E0A0E2D6EFFEC40F0000E33
:1006A8002C6E0B0E2B6E400E2D6EE20E2E6E010E72
:1006B8002F6E000E306EDCEC3EF0000E27EC0AF0D8
:1006C800000E266E110E256E000E276EC6EC38F051
:1006D800000E266E120E256E000E276EC6EC38F040
:1006E80090EC31F0010E27EC0AF0000E116E0B0EA3
:1006F800106EE0EC3DF010C089F011C08AF012C015
:100708008BF013C08CF03CEC38F0B9EC32F01CECF8
:1007180040F0AF0E236EFE0E246E02EC2CF0000E9D
:100728000001E86F0E0EE8659CEF03F09EEF03F002
:10073800A0EF03F0A9EF03F004000001E8518EECEC
:1007480022F00001E82B96EF03F0000EE96F070E88
:10075800E965B1EF03F0B3EF03F0B5EF03F0BFEFD6
:1007680003F00400E9C026F0276A77EC2BF00001BB
:10077800E92BABEF03F0000E116E0B0E106EE0ECE0
:100788003DF010C089F011C08AF012C08BF013C080
:100798008CF03CEC38F091EC14F0B9EC32F01CEC35
:1007A80040F0F4EC31F011EC37F0000E0001F36F7B
:1007B800000EF26F000EF16F000EF06F000EC26FA8
:1007C800000EA46F000EA36F000EBD6F000E9E6F8B
:1007D800000E9D6F000E9C6F000E9B6F000E686EE2
:1007E800000E676E000E3EEC3DF0000E0001816FBA
:1007F800000E806F000E826F000EC36FC6C0B9F086
:10080800000E696EFFEC1FF0000E0001856F000EF0
:10081800866F000E876F000E886F22EC1FF0000EA7
:100828001C6E0F0E1B6E8DEC41F00001C4811AEC9A
:1008380033F00001C587E90EA35D030EA459D8A0C3
:1008480028EF04F02AEF04F045EF04F0000EA46F3F
:10085800000EA36FD2EC35F01DC0F2F01EC0F3F00D
:100868000001F051F21909E1F151F319D8B43FEF41
:1008780004F041EF04F045EF04F0F2C0F0F0F3C0EB
:10088800F1F0C597C587815107E1020E805DD8B0A8
:1008980050EF04F052EF04F05FEF04F0190EF21974
:1008A800F311D8B45AEF04F05CEF04F05FEF04F0F2
:1008B800000E3EEC3DF00001C6A965EF04F067EFBD
:1008C80004F069EF04F074EC3BF0F4EC31F011EC57
:1008D80037F00001C59755EC23F0DAEC20F008EC6E
:1008E80039F056EC1DF02DEC35F07AEC27F00001CC
:1008F800C587B951C619D8B484EF04F086EF04F05F
:100908008CEF04F007EC3EF003EC40F0C6C0B9F001
:100918000001C351D8B493EF04F095EF04F09EEFB3
:1009280004F01E0EC319D8A49CEF04F09EEF04F047
:10093800AAEF04F0C5A3A3EF04F0A5EF04F0ABEF12
:1009480004F0C593EAEC41F0ABEF04F0C58334EC56
:100958003CF00001C59791EC14F055EC17F000013C
:10096800C58782EF09F0000EEA6F090EEA65BFEF4E
:1009780004F0C1EF04F0C3EF04F002EF05F0070E36
:10098800EA251F6E206A000E2022ECEC40F01F04BE
:100998002010D8A4D2EF04F0D4EF04F0FEEF04F056
:1009A800070E0001EA251E6E1F6A000E1F22000EA8
:1009B800216E000E206E7CEC41F0EAC0BFF0050EFF
:1009C8000001BF61EAEF04F0ECEF04F0F6EF04F089
:1009D800130EBE6F000E1C6E1B0E1B6E8DEC41F0CD
:1009E800FEEF04F0150EBE6F000E1C6E1C0E1B6E83
:1009F8008DEC41F00001EA2BB9EF04F00AEC16F097
:100A0800BCEF09F0000E206E010E1F6EECEC40F0FA
:100A18001F042010D8A413EF05F015EF05F0BCEF64
:100A280009F0000E1F6E010E1E6E000E216E000EE4
:100A3800206E7CEC41F08CEC2DF0BCEF09F0C2513B
:100A4800D8A429EF05F02BEF05F030EF05F0010EE3
:100A58003EEC3DF00001C22B000E206E980E1F6E7A
:100A6800ECEC40F01F042010D8A43DEF05F03FEF58
:100A780005F04CEF05F0000E1F6E980E1E6E000E6E
:100A8800216E000E206E7CEC41F0010E3EEC3DF034
:100A9800000E206EAE0E1F6EECEC40F01F0420100E
:100AA800D8A459EF05F05BEF05F0BCEF09F0000E94
:100AB8001F6EAE0E1E6E000E216E000E206E7CECB8
:100AC80041F00DEC3BF0BCEF09F0000EC06F070ED3
:100AD800C06571EF05F073EF05F075EF05F0AAEF4B
:100AE80005F0200EC0251F6E206A000E2022ECECB7
:100AF80040F01F042010D8A484EF05F086EF05F01D
:100B0800A6EF05F0200E0001C0251E6E1F6A000E1C
:100B18001F22000E216E000E206E7CEC41F0BEC03C
:100B28001BF01C6A8DEC41F0C80E1A6E000E1B6E8D
:100B38000001C05157EC30F0010E266E0001BF5184
:100B4800ECEC2FF00001C02B6BEF05F0000E206ECF
:100B5800110E1F6EECEC40F01F042010D8A4B7EF64
:100B680005F0B9EF05F0C8EF05F0000E1F6E110E85
:100B78001E6E000E216E000E206E7CEC41F0BEC091
:100B88001BF01C6A8DEC41F0000E206E120E1F6ED9
:100B9800ECEC40F01F042010D8A4D5EF05F0D7EFF7
:100BA80005F0BCEF09F0000E1F6E120E1E6E000E4F
:100BB800216E000E206E7CEC41F0000E0001CE6F1D
:100BC800CF0E106E000E116E690E126EFD0E136EB2
:100BD800D7EC3BF0000E0001CD6F000ECC6F000E7D
:100BE800CB6F000ECA6F000EC96F000EC86F000EE3
:100BF800266EBF51ECEC2FF0BEC01BF01C6A8DECCA
:100C080041F0BCEF09F0000E206EAF0E1F6EECEC49
:100C180040F01F042010D8A414EF06F016EF06F0D9
:100C2800BCEF09F0000E1F6EAF0E1E6E000E216E97
:100C3800000E206E7CEC41F068EC3DF0BCEF09F052
:100C4800100E89195D6E2F0E8A195E6EBA0E8B19F9
:100C58005F6EE40E8C19606E5D1CDE6F5E1CDF6FCC
:100C68005F1CE06F601CE16FDEC019F0DFC01AF096
:100C7800E0C01BF0E1C01CF06A0E1D6E010E1E6E76
:100C8800000E206E100E1F6EAAEC28F0060E1E6EC7
:100C98007C0E1D6E6A0E1F6E010E206ED9EC40F0A0
:100CA800F40E0C6E010E0D6E000E0E6E000E0F6E21
:100CB80049EC39F0010E206E820E1F6EECEC40F00C
:100CC8001F042010D8A46BEF06F06DEF06F0BCEF00
:100CD80009F0010E1F6E820E1E6E000E216E000EB0
:100CE800206E7CEC41F031EC11F0BCEF09F0C587C7
:100CF800030EEF6F100EEE6FEFBF8CEF06F01D0EB8
:100D0800EE5D030EEF59D8A08CEF06F08EEF06F0DB
:100D180090EF06F046EF09F0EE51F00FBB6FEEC012
:100D28001FF0EFC020F0ECEC40F00E0E1F18201062
:100D3800D8A4A1EF06F0A3EF06F051EF08F00001E8
:100D4800C151D8B4AAEF06F0ACEF06F041EF08F0B5
:100D5800320E93199411D8A4B4EF06F0B6EF06F04A
:100D6800B9EF06F0BBC091F0926B500E9319941135
:100D7800D8A4C1EF06F0C3EF06F0CAEF06F086EC80
:100D880039F05D6E5D500001916F926B92BFD8EFA4
:100D980006F0925107E1080E915DD8B0D6EF06F043
:100DA800D8EF06F005EF08F0100EBB251E6E1F6A7F
:100DB800030E1F22010EBB25206E216A000E212280
:100DC8007CEC41F091C018F092C019F0000E1B6E37
:100DD8000A0E1A6E12EC41F0FD0E18241E6E060E55
:100DE80019201F6E010E91C05DF092C05EF05DC0CB
:100DF8005EF05D6A5D10206E5E50216E7CEC41F005
:100E080091C018F092C019F0000E1B6E0A0E1A6EEF
:100E180012EC41F0FB0E18241E6E060E19201F6EF0
:100E28000001BB51020D000EF324D96E010EF4200F
:100E3800DA6EDECF20F0DDCF21F07CEC41F0690ED8
:100E480000019125D96E020E9221DA6E91C0DFFF62
:100E5800780E9125D96E020E9221DA6EBB29DF6ECB
:100E6800870EBB25D96EDA6A020EDA22BB29DF6E3D
:100E7800BB51020D000EF324D96E010EF420DA6E78
:100E8800D8909135E16E9235E26E960EE126020E0B
:100E9800E222DECFE6FFDDCFE5FF0F0E5D6E020E2C
:100EA8005E6E1E0E5D26000E5E22D8909135D96EBC
:100EB8009235DA6ED890D936DA365D50D9265E503A
:100EC800DA22000EDE6E000EDE6E800EDE6E3F0E43
:100ED800DD6E020EBB6573EF07F075EF07F07DEF6F
:100EE80007F0010EBB25E26FE36B000EE32380EFF2
:100EF80007F0BBC0E2F0E36BE2C05DF0E3C05EF078
:100F0800D8905D365E36DE0E5F6E010E606E5D5007
:100F18005F265E506022D8909135D96E9235DA6E90
:100F28000F0ED926020EDA225FC0DEFF60C0DDFF99
:100F38000F0E5D6E020E5E6E1E0E5D26000E5E22A8
:100F4800D8909135D96E9235DA6ED890D936DA368E
:100F58005D50D9265E50DA22000EDE6E000EDE6E7F
:100F6800800EDE6E3F0EDD6EBB51D8A4BEEF07F0DB
:100F7800C0EF07F0DCEF07F00F0E5D6E020E5E6E3D
:100F88001E0E5D26000E5E22D8909135D96E9235E0
:100F9800DA6ED890D936DA365D50D9265E50DA2224
:100FA800550EDE6EC10EDE6EE80EDE6E3E0EDD6E96
:100FB800BB05D8A4E2EF07F0E4EF07F000EF08F074
:100FC8000F0E5D6E020E5E6E1E0E5D26000E5E2218
:100FD800D8909135D96E9235DA6ED890D936DA36FE
:100FE8005D50D9265E50DA22CD0EDE6ECC0EDE6E56
:100FF8004C0EDE6E3D0EDD6E020E27EC0AF041EF60
:1010080009F091C018F092C019F0000E1B6E0A0E7C
:101018001A6E12EC41F0FD0E18241E6E060E1920F1
:101028001F6E000191515E6E5D6A000E5D10206EAC
:101038000A0E5E10216E7CEC41F091C018F092C04F
:1010480019F0000E1B6E0A0E1A6E12EC41F0FB0E20
:1010580018241E6E060E19201F6EFF0E216E2068C2
:101068007CEC41F0EEC01EF0EFC01FF0FF0E216EC9
:1010780020687CEC41F041EF09F06BEC41F0EEC0E8
:101088001EF0EFC01FF0FF0E216E20687CEC41F0CF
:10109800520EFFEC41F041EF09F0EEC01FF0EFC037
:1010A80020F0ECEC40F0205009E10F0E1F5CD8A0B6
:1010B80060EF08F062EF08F041EF09F0EEC01FF0B2
:1010C800EFC020F0ECEC40F0205007E11F0E1F5C51
:1010D800D8B071EF08F073EF08F041EF09F00001A4
:1010E800C151D8B47AEF08F07CEF08F004EF09F0AA
:1010F800780E0C6E020E0D6EBB290E6E3BEC3FF0A7
:101108000001EB6F780EBB25D96EDA6A020EDA227F
:10111800DF505D6E5D04DD6FEEC01EF0EFC01FF0A6
:10112800FF0E216E20687CEC41F00001EB510A0DA6
:10113800F3CF5DF0F4CF5EF0FD0E5D241E6E060E5B
:101148005E201F6E0A0E216E000E206E7CEC41F0B0
:101158000001EB510A0DF3CF5DF0F4CF5EF0FB0E0A
:101168005D241E6E060E5E201F6EFF0E216E206827
:101178007CEC41F00001EB51020D0F0EF324D96E07
:10118800020EF420DA6E000EDE6E000EDD6E690EC1
:10119800EB25D96EDA6A020EDA220A0EDF6E780EB5
:1011A800EB25D96EDA6A020EDA22FF0EDF6E870EA1
:1011B800BB25D96EDA6A020EDA22FF0EDF6EEB511A
:1011C800020D960EF324D96E020EF420DA6EFF0E8D
:1011D800DE6EFF0EDD6EEB51040D2D0EF324D96E7D
:1011E800020EF420DA6E000EDE6E000EDE6E000EC9
:1011F800DE6E000EDD6E020E27EC0AF041EF09F0FC
:101208006BEC41F0520EFFEC41F0320E00019319E5
:101218009411D8A412EF09F014EF09F025EF09F0A2
:10122800EEC01EF0EFC01FF0780EBB25D96EDA6A4B
:10123800020EDA22DF505D6E5D50206E216A7CEC72
:1012480041F0500E000193199411D8A42EEF09F023
:1012580030EF09F041EF09F0EEC01EF0EFC01FF0CB
:10126800870EBB25D96EDA6A020EDA22DF505D6E70
:101278005D50206E216A7CEC41F00001EE4BEF2BB3
:1012880080EF06F0C597BCEF09F05AEC41F0000E6C
:101298000001C06F070EC06554EF09F056EF09F062
:1012A80058EF09F0BCEF09F0200EC0251F6E206A28
:1012B800000E2022ECEC40F01F042010D8A467EFA9
:1012C80009F069EF09F07AEF09F0200E0001C02556
:1012D8001E6E1F6A000E1F22000E216E000E206E69
:1012E8007CEC41F075EC36F0BCEF09F00001C02B46
:1012F8004EEF09F048EC0FF0BCEF09F0F2C05DF0DA
:10130800F3C05EF05E50000AD8B48DEF09F0BCEF70
:1013180009F05D50130AD8B4B7EF04F0060AD8B440
:10132800B7EF04F0020AD8B406EF05F00E0AD8B4F5
:1013380023EF05F0020AD8B469EF05F0070AD8B41C
:1013480069EF05F0010AD8B407EF06F0020AD8B42D
:1013580024EF06F03C0AD8B47BEF06F00C0AD8B4A8
:1013680049EF09F01E0AD8B47EEF09F0BCEF09F086
:101378000001C58D1CEF0AF0C59D090E5E6E1E0E9C
:101388005D6EE40EE82EFED75D2EFCD75E2EFAD7F2
:1013980000D0CD0E25EC41F0CD0E25EC41F0CD0E60
:1013A80025EC41F0CD0E25EC41F0CD0E25EC41F0B9
:1013B800000E0001E76F000EE66FE75109E1C80E65
:1013C800E65DD8A0EAEF09F0ECEF09F0EEEF09F0DE
:1013D80006EF0AF0C7A1F3EF09F0F5EF09F0F7EF10
:1013E80009F006EF0AF0010E0C6E000E0D6E000EED
:1013F8000E6E000E0F6E62EC3CF00001E64BE72B20
:10140800E1EF09F0C7A10BEF0AF00DEF0AF011EFB9
:101418000AF086EC2EF00001C58DC7A116EF0AF080
:1014280018EF0AF01CEF0AF00BEC2EF0BCEF09F0F5
:10143800C5BD21EF0AF023EF0AF0C0EF09F019EF5C
:1014480004F00EEF02F0376EDBEC26F019EF0DF02A
:10145800000E3F6E3F50020D960EF324D96E020E19
:10146800F420DA6EFF0EDE6EFF0EDD6E690E3F248D
:10147800D96EDA6A020EDA220A0EDF6E780E3F247F
:10148800D96EDA6A020EDA22FF0EDF6E870E3F246B
:10149800D96EDA6A020EDA22FF0EDF6E3F50020DB5
:1014A8000F0EF324D96E020EF420DA6E000EDE6EF3
:1014B800000EDD6E3F50040D2D0EF324D96E020E82
:1014C800F420DA6E000EDE6E000EDE6E000EDE6EAA
:1014D800000EDD6E130E3F24256E266A000E2622AE
:1014E800870E3F24D96EDA6A020EDA22DF50276EA1
:1014F800C6EC38F0EA0E3F24256E266A000E262236
:10150800780E3F24D96EDA6A020EDA22DF50276E8F
:10151800C6EC38F0240E3F24256E266A000E2622DB
:10152800690E3F24D96EDA6A020EDA22DF50276E7E
:10153800C6EC38F0100E3F241E6E1F6A030E1F22E1
:10154800FF0E216E20687CEC41F03F500A0DF3CF6E
:1015580031F0F4CF32F0FD0E31241E6E060E32202B
:101568001F6E0A0E216E000E206E7CEC41F03F507B
:101578000A0DF3CF31F0F4CF32F0FB0E31241E6E9A
:10158800060E32201F6EFF0E216E20687CEC41F0A3
:101598003F2A0C0E3F64D3EF0AF0D5EF0AF02EEF86
:1015A8000AF032EF0DF0000E116E130E106E870E5A
:1015B800126E020E136E0F0E146E59EC3FF0000EF1
:1015C800116EEA0E106E780E126E020E136E0F0E6A
:1015D800146E59EC3FF0000E116E240E106E690E59
:1015E800126E020E136E0F0E146E59EC3FF0000EC1
:1015F8003F6E870E3F24D96EDA6A020EDA22DF5078
:101608003A6E3A28D8B40BEF0BF00DEF0BF01AEF47
:101618000BF0100E3F241E6E1F6A030E1F223AC0E5
:1016280020F0216A7CEC41F025EF0BF0100E3F24EE
:101638001E6E1F6A030E1F22FF0E216E20687CECAF
:1016480041F03F2A0C0E3F642CEF0BF02EEF0BF00D
:10165800FDEF0AF0000E3F6E690E3F24D96EDA6A7C
:10166800020EDA22080EDF603CEF0BF03EEF0BF0C3
:1016780056EF0BF0780E3F24D96EDA6A020EDA22A2
:10168800DF50316E326AD89031363236FE0E312450
:10169800D96E000E3220DA6EDECF3CF0DDCF3DF0A1
:1016A80058EF0BF03C683D683F500A0DF3CF31F01E
:1016B800F4CF32F0FB0E31241E6E060E32201F6E60
:1016C8003CC020F03DC021F07CEC41F03F50020DC1
:1016D800960EF324D96E020EF420DA6E3CC0DEFFBB
:1016E8003DC0DDFF3F2A0C0E3F647DEF0BF07FEF1E
:1016F8000BF030EF0BF0000E3F6E690E3F24D96EF1
:10170800DA6A020EDA22DF503B6E080E3B608FEF7A
:101718000BF091EF0BF0ACEF0BF03F500A0DF3CF4D
:1017280031F0F4CF32F0FD0E31241E6E060E322059
:101738001F6E010E3BC033F0346A33C034F0336A95
:101748003310206E3450216E7CEC41F0BEEF0BF06C
:101758003F500A0DF3CF31F0F4CF32F0FD0E3124B3
:101768001E6E060E32201F6E0A0E216E000E206EAF
:101778007CEC41F03F2A0C0E3F64C5EF0BF0C7EF3D
:101788000BF081EF0BF0000E3E6E690E3E24D96E11
:10179800DA6A020EDA220A0EDE18D8B4D6EF0BF097
:1017A800D8EF0BF0B4EF0CF0FF0E316EFF0E326E77
:1017B800690E3E24D96EDA6A020EDA22DF50336EE1
:1017C800346A780E3324D96E020E3420DA6EDF5074
:1017D800356E366A315035263250362236BEFEEF27
:1017E8000BF0365009E1030E355CD8A0FEEF0BF084
:1017F80000EF0CF016EF0CF0690E3E24D96EDA6A91
:10180800020EDA22DF50316E326A780E3124D96E38
:10181800020E3220DA6EDF50336E3350386E396A7A
:101828002DEF0CF0690E3E24D96EDA6A020EDA2228
:10183800DF50316E326A780E3124D96E020E3220B2
:10184800DA6EDF50336EFF0E3324386E396AFF0EBE
:10185800392238C031F039C032F0D89031363236BA
:10186800DE0E336E010E346E315033263250342280
:10187800690E3E24D96EDA6A020EDA22DF50356E1E
:101888003550020D0F0EF324D96E020EF420DA6ED5
:1018980033C0DEFF34C0DDFF690E3E24D96EDA6A3C
:1018A800020EDA22DF50316E3150040D2D0EF32472
:1018B800D96E020EF420DA6E000EDE6E000EDE6EB9
:1018C800800EDE6E3F0EDD6E690E3E24D96EDA6A3A
:1018D800020EDA22DF50D8A474EF0CF076EF0CF089
:1018E8008EEF0CF0690E3E24D96EDA6A020EDA2207
:1018F800DF50316E3150040D2D0EF324D96E020ED7
:10190800F420DA6E550EDE6EC10EDE6EE80EDE6E67
:101918003E0EDD6E690E3E24D96EDA6A020EDA22B8
:10192800DE04D8A49AEF0CF09CEF0CF0B4EF0CF0A6
:10193800690E3E24D96EDA6A020EDA22DF50316E61
:101948003150040D2D0EF324D96E020EF420DA6EF8
:10195800CD0EDE6ECC0EDE6E4C0EDE6E3D0EDD6EF6
:101968003E2A070E3E64BBEF0CF0BDEF0CF0C9EF4A
:101978000BF032EF0DF0000E3F6E100E3F241F6E7D
:10198800206A030E2022ECEC40F0870E3F24D96E2B
:10199800DA6A020EDA221FC0DFFF3F500A0DF3CFCA
:1019A80031F0F4CF32F0FD0E31241F6E060E3220D6
:1019B800206EECEC40F020C01FF0206A690E3F2436
:1019C800D96EDA6A020EDA221FC0DFFF3F2A0D0E37
:1019D8003F64F1EF0CF0F3EF0CF0C1EF0CF0000EE8
:1019E8002C6E130E2B6E870E2D6E020E2E6E0F0EA2
:1019F8002F6E1CEC3FF0000E2C6EEA0E2B6E780E4C
:101A08002D6E020E2E6E0F0E2F6E1CEC3FF0000E88
:101A18002C6E240E2B6E690E2D6E020E2E6E0F0E7E
:101A28002F6E1CEC3FF032EF0DF03750316E326AFA
:101A38003250000AD8B423EF0DF032EF0DF03150D8
:101A4800000AD8B42CEF0AF0010AD8B4D7EF0AF08C
:101A5800030AD8B4BFEF0CF032EF0DF012001D509E
:101A6800800B266E1D501D242C6E1CAE3EEF0DF013
:101A780040EF0DF041EF0DF02C802C50D8B447EF1B
:101A88000DF049EF0DF05CEF0DF02C28D8A44FEFC6
:101A98000DF051EF0DF059EF0DF0000E1A6E000E1B
:101AA8001B6E000E1C6E000E1D6E1C8E64EF0DF07A
:101AB800000E1A6E000E1B6E000E1C6E000E1D6EC0
:101AC8002150800B261A215021242B6E20AE6FEF57
:101AD8000DF071EF0DF072EF0DF02B802B50D8B494
:101AE80078EF0DF07AEF0DF08DEF0DF02B28D8A4DC
:101AF80080EF0DF082EF0DF08AEF0DF0000E1E6EF4
:101B0800000E1F6E000E206E000E216E208E95EFC7
:101B18000DF0000E1E6E000E1F6E000E206E000EE1
:101B2800216E2B50D8B49BEF0DF09DEF0DF0A5EF73
:101B38000DF02C50D8A4A3EF0DF0A5EF0DF0AFEFEA
:101B48000DF0000E1A6E000E1B6E000E1C6E000EBD
:101B58001D6E47EF0FF020501A02F3CF31F0F4CF8B
:101B680032F03150276E286A296A2A6A32502D6E5F
:101B78002E6A2F6A306A1F501B02F3CF31F0F4CF60
:101B880032F031502726000E282229222A223250EC
:101B98002D26000E2E222F2230221E501C02F3CF9B
:101BA80031F0F4CF32F031502726000E28222922B6
:101BB8002A2232502D26000E2E222F22302229C012
:101BC8002AF028C029F027C028F0276A1E501B02D7
:101BD800F3CF31F0F4CF32F031502726325028229B
:101BE800000E2922000E2A221F501A02F3CF31F0CC
:101BF800F4CF32F03150272632502822000E292205
:101C0800000E2A2229C02AF028C029F027C028F06F
:101C1800276A1E501A02F3CF31F0F4CF32F0315058
:101C2800272632502822000E2922000E2A22205070
:101C38001B02F3CF31F0F4CF32F031502D26325061
:101C48002E22000E2F22000E30221F501C02F3CF2E
:101C580031F0F4CF32F031502D2632502E22000EC2
:101C68002F22000E302220501C02F3CF31F0F4CF87
:101C780032F03150226E3250236E246A256A24C015
:101C880025F023C024F022C023F0226A22502D26FA
:101C980023502E2224502F222550302227C022F0F4
:101CA80028C023F029C024F02AC025F0190E62EFBD
:101CB8000EF0D8902532243223322232E82E5DEFFE
:101CC8000EF022502D2623502E2224502F2225504C
:101CD800302229C02AF028C029F027C028F0276A16
:101CE8002B502CC022F0236A2226000E2322820EBB
:101CF8002224316EFF0E2320326E98EF0EF0D8901A
:101D08002D362E362F3630362AAE8DEF0EF08FEF69
:101D18000EF090EF0EF02D80D89027362836293611
:101D28002A363106D8A032062FAE9DEF0EF09FEF6F
:101D38000EF083EF0EF0000E2B6E2AAEA6EF0EF01B
:101D4800A8EF0EF0CCEF0EF0FF0E2714226EFF0E58
:101D58002814236EFF0E2914246E7F0E2A14256E74
:101D68002250231024102510D8B4BDEF0EF0BFEF79
:101D78000EF0C3EF0EF0010E2B6ECCEF0EF02DA07F
:101D8800C8EF0EF0CAEF0EF0CCEF0EF0BFEF0EF07A
:101D98002B50D8B4D2EF0EF0D4EF0EF0F8EF0EF0CF
:101DA800010E2D26000E2E222F22302230A0DFEF2A
:101DB8000EF0E1EF0EF0F8EF0EF02DC022F02EC07D
:101DC80023F02FC024F030C025F0253425322432EA
:101DD8002332223222C02DF023C02EF024C02FF04F
:101DE80025C030F0314A322A32BE03EF0FF03250AC
:101DF80008E13128D8A003EF0FF005EF0FF00FEF3F
:101E08000FF0000E2D6E000E2E6E800E2F6E7F0EC0
:101E1800306E3DEF0FF032BE1CEF0FF0325006E18E
:101E28003104D8B01AEF0FF01CEF0FF028EF0FF0C5
:101E3800000E2D6E000E2E6E000E2F6E000E306EF0
:101E4800000E266E3DEF0FF031C02CF0FF0E2D1660
:101E5800FF0E2E167F0E2F16000E30162CA037EF11
:101E68000FF039EF0FF03AEF0FF02F8ED8902C309B
:101E7800306E265030122DC01AF02EC01BF02FC025
:101E88001CF030C01DF01200010E206E860E1F6E71
:101E9800ECEC40F01F042010D8A455EF0FF057EFDA
:101EA8000FF0DEEF0FF0000E0001C96F000EC86FD3
:101EB800000ECB6F000ECA6F000ECD6F000ECC6FF8
:101EC800000ECE6FCF0E106E000E116E690E126EE0
:101ED800FD0E136ED7EC3BF0C80E2F6E000E306E61
:101EE8000001C05179EC33F0C0C026F0276A77ECC6
:101EF8002BF0010E1F6E9A0E1E6E000E216E000E44
:101F0800206E7CEC41F0010E1F6E9B0E1E6E000EC3
:101F1800216E000E206E7CEC41F0010E1F6E9C0EAF
:101F28001E6E000E216E000E206E7CEC41F0010E3C
:101F38001F6E9D0E1E6E000E216E000E206E7CEC34
:101F480041F0010E1E6E9E0E1D6E690E1F6EFD0E77
:101F5800206ED9EC40F05AEC41F0010E1F6E860E4F
:101F68001E6E000E216E000E206E7CEC41F0600E9D
:101F7800FFEC41F007EC3EF0070E1E6E760E1D6E6C
:101F8800FC0E1F6EFD0E206ED9EC40F0DC0E0C6EC0
:101F9800050E0D6E000E0E6E000E0F6EE7EC3CF097
:101FA800070E1E6E760E1D6E690E1F6EFD0E206EDC
:101FB800D9EC40F0010E206E870E1F6EECEC40F05D
:101FC8001F042010D8A4EBEF0FF0EDEF0FF055EF42
:101FD80010F0010E206E9A0E1F6EECEC40F01FC040
:101FE800C8F020C0C9F0010E206E9B0E1F6EECECED
:101FF80040F01FC0CAF020C0CBF0010E206E9C0E2E
:102008001F6EECEC40F01FC0CCF020C0CDF0010EEC
:10201800206E9D0E1F6EECEC40F01F500001CE6F3D
:10202800010E206E9E0E1F6ECF0E216E000E226EC8
:10203800AAEC41F0C80E2F6E000E306E0001C051A0
:1020480079EC33F05AEC41F0010E1F6E870E1E6ECC
:10205800000E216E000E206E7CEC41F0510EFFEC5C
:1020680041F007EC3EF0070E1E6E760E1D6EE00E78
:102078001F6EFD0E206ED9EC40F0DC0E0C6E050EC6
:102088000D6E000E0E6E000E0F6EE7EC3CF0070EA4
:102098001E6E760E1D6E690E1F6EFD0E206ED9EC3B
:1020A80040F0010E206E880E1F6EECEC40F01F040D
:1020B8002010D8A462EF10F064EF10F011EF11F0C7
:1020C800070E1E6E760E1D6EA60E1F6EFD0E206E7E
:1020D800D9EC40F0C80E1A6E000E1B6E0001C051FC
:1020E80057EC30F0070E1E6E760E1D6E880E1F6EB2
:1020F800FD0E206ED9EC40F0000E3D6EA6EF10F0FC
:102108003DC040F0C8C041F0C9C042F0CAC043F069
:10211800CCC044F0CEC045F0460E106E000E116ED5
:10212800CF0E126E000E136ED7EC3BF0000E506E01
:10213800010E4F6E400E2F6E000E306E3D5078EC43
:102148002FF03D2AFC0E366EFF0E376E6A50386E41
:10215800396AD890383639363650382637503922C9
:102168003D503A6E3B6A38503A5C3B50800A3C6EB0
:102178003950800A3C58D8A0C4EF10F0C6EF10F0D0
:1021880084EF10F0070E1E6E760E1D6E8B0E1F6EFE
:10219800FC0E206ED9EC40F06AEC1BF0070E1E6EA8
:1021A800760E1D6E2D0E1F6EFD0E206ED9EC40F0C2
:1021B800000E3E6E3E508EEC22F03E2A0E0E3E641D
:1021C800E8EF10F0EAEF10F0DEEF10F0000E3F6ECF
:1021D8003F5089EC25F03F2A090E3F64F6EF10F0D6
:1021E800F8EF10F0ECEF10F0010E1F6E880E1E6E67
:1021F800000E216E000E206E7CEC41F0600EFFECAC
:1022080041F007EC3EF0070E1E6E760E1D6E690E4D
:102218001F6EFD0E206ED9EC40F0010E206E890E67
:102228001F6EECEC40F01F042010D8A41EEF11F034
:1022380020EF11F030EF11F0010E1F6E890E1E6EA7
:10224800000E216E000E206E7CEC41F0000E1C6E1C
:102258002F0E1B6E8DEC41F01200010E206E7E0ECB
:102268001F6E63EC40F01FC033F020C034F021C073
:1022780035F022C036F087EC2CF0010E206E800E6F
:102288001F6E63EC40F01FC033F020C034F021C053
:1022980035F022C036F087EC2CF0010E166E7C0E5D
:1022A800156E590E176E000E186E040E196E15EC89
:1022B80028F05BC03DF03E6A3F6A406A3FC040F08C
:1022C8003EC03FF03DC03EF03D6A5AC041F0426A10
:1022D800436A446A42C044F041C043F0426A416ADA
:1022E80059C045F0466A476A486A45C048F0476A97
:1022F800466A456A41504524496E425046204A6E16
:10230800435047204B6E445048204C6E3D50492462
:102318004D6E3E504A204E6E3F504B204F6E4050FF
:102328004C20506E5C504D240001896F000E4E20E9
:102338008A6F000E4F208B6F000E50208C6F010E9D
:10234800166E7E0E156E590E176E000E186E040E60
:10235800196E15EC28F05BC03DF03E6A3F6A406A92
:102368003FC040F03EC03FF03DC03EF03D6A5AC01D
:1023780041F0426A436A446A42C044F041C043F0B3
:10238800426A416A59C045F0466A476A486A45C088
:1023980048F0476A466A456A41504524496E4250AA
:1023A80046204A6E435047204B6E445048204C6E9E
:1023B8003D5049244D6E3E504A204E6E3F504B20B2
:1023C8004F6E40504C20506E5C504D24556E000EA0
:1023D8004E20566E000E4F20576E000E5020586E3D
:1023E800010E166E800E156E590E176E000E186EC1
:1023F800040E196E15EC28F05BC03DF03E6A3F6A8A
:10240800406A3FC040F03EC03FF03DC03EF03D6AEC
:102418005AC041F0426A436A446A42C044F041C02B
:1024280043F0426A416A59C045F0466A476A486AB9
:1024380045C048F0476A466A456A41504524496E96
:10244800425046204A6E435047204B6E4450482025
:102458004C6E3D5049244D6E3E504A204E6E3F50C2
:102468004B204F6E40504C20506E5C504D24516EA6
:10247800000E4E20526E000E4F20536E000E50205C
:10248800546E000189518A118B118C11D8B44FEF09
:1024980012F051EF12F067EF12F055505610571026
:1024A8005810D8B45AEF12F05CEF12F067EF12F040
:1024B8005150521053105410D8A465EF12F067EF22
:1024C80012F06CEF12F0230EFFEC41F0E6EF12F081
:1024D800000E116E0B0E106EE0EC3DF000018951FC
:1024E80010180DE18A5111180AE18B51121807E1F1
:1024F8008C511318D8A483EF12F085EF12F0E3EF94
:1025080012F0515055180DE1525056180AE1535027
:10251800571807E154505818D8A495EF12F097EFC0
:1025280012F0DEEF12F0000E2C6E0B0E2B6E55C063
:102538002DF056C02EF057C02FF058C030F0DCEC0C
:102548003EF055C089F056C08AF057C08BF058C08D
:102558008CF0CCEC41F0010E1E6E7C0E1D6E000E50
:102568001F6E000E206E000E216E000E226EA6EC6D
:102578003BF0010E1E6E7E0E1D6E000E1F6E000ECD
:10258800206E000E216E000E226EA6EC3BF0010EAE
:102598001E6E800E1D6E000E1F6E000E206E000E49
:1025A800216E000E226EA6EC3BF0220EFFEC41F0ED
:1025B800E6EF12F0210EFFEC41F0E6EF12F0200EEC
:1025C800FFEC41F0120021C13FF022C13EF023C1CF
:1025D8003DF024C13CF042EF14F02051326E2151FD
:1025E800256E32C026F022C127F0C6EC38F0030E63
:1025F80035EC40F0DCEC41F090EF14F02051326EF5
:1026080021510C6E32C00DF09BEC3EF03A6E010E7B
:1026180035EC40F03A5025EC41F090EF14F02151A0
:1026280020C132F0336A32C033F0326A3210366E6B
:102638003350376E235122C132F0336A32C033F03F
:10264800326A3210346E3350356E36C02BF037C0D4
:102658002CF034C02DF035C02EF0FFEC40F0030E06
:1026680035EC40F0FEEF12F020C110F0116A77EC63
:102678003FF010C038F011C039F0020E35EC40F0D0
:1026880038C00DF039C00EF0E3EC41F090EF14F0D3
:1026980020C12BF02C6A210E2D6E010E2E6E2EEC11
:1026A8003EF0030E35EC40F0FEEF12F020C110F0C2
:1026B800116A6A0E126E010E136EFCEC3EF04A0EA1
:1026C80035EC40F06A0E0D6E010E0E6EF4EC37F02C
:1026D80090EF14F03CC022F03DC023F03EC024F03F
:1026E8003FC025F025C126F02051A0EC40F0030E94
:1026F80035EC40F0FEEF12F03CC026F03DC027F06C
:102708003EC028F03FC029F0205178EC40F03A6EE6
:10271800010E35EC40F03A5025EC41F090EF14F002
:102728003CC022F03DC023F03EC024F03FC025F05D
:10273800265125C132F0336A32C033F0326A321082
:10274800266E3350276E20514CEC40F0030E35ECCA
:1027580040F0FEEF12F03CC026F03DC027F03EC02E
:1027680028F03FC029F02051CCEC3FF026C038F0CB
:1027780027C039F0020E35EC40F044EF13F025C1C4
:102788003BF03CC012F03DC013F03EC014F03FC017
:1027980015F03BC016F0000E176E030E186E205190
:1027A8006DEC19F03B5035EC40F0000E0D6E030E49
:1027B8000E6E3BC00FF0B0EC3FF090EF14F03CC051
:1027C8000FF03DC010F03EC011F03FC012F025C11F
:1027D80013F0260E146E010E156E20516DEC1AF0D2
:1027E800030E35EC40F0FEEF12F03CC00FF03DC098
:1027F80010F03EC011F03FC012F0250E136E010E0E
:10280800146E20511BEC24F0030E35EC40F0FEEF63
:1028180012F03CC012F03DC013F03EC014F03FC0AF
:1028280015F06A0E166E010E176E205165EC18F041
:102838006A0E0C6E010E0D6E90EC3DF00C5035ECEE
:1028480040F066EF13F02151326E22512B6E32C0E8
:102858002CF02051BBEC3CF0030E35EC40F0FEEFC1
:1028680012F02051326E21511B6E32C01CF0E8EC80
:102878003FF0030E35EC40F0FEEF12F001011E515F
:10288800326E336A3350000AD8B44DEF14F090EF2B
:1028980014F03250080AD8B4F1EF12F0010AD8B493
:1028A80002EF13F0030AD8B413EF13F0010AD8B4F7
:1028B80038EF13F0070AD8B44CEF13F0010AD8B474
:1028C8005AEF13F01C0AD8B46EEF13F0030AD8B409
:1028D80080EF13F0010AD8B494EF13F0070AD8B4C4
:1028E800AFEF13F0010AD8B4F9EF13F0030AD8B424
:1028F8000DEF14F0010AD8B4E3EF13F00F0AD8B4BF
:10290800C3EF13F0010AD8B427EF14F0380AD8B48B
:1029180035EF14F090EF14F01200200E0C6E000E3C
:102928000D6E000E0E6E000E0F6EE7EC3CF0000E02
:10293800336ECFEF14F033C00CF00D6A000E0F6E3B
:10294800020E0E6E57EC32F00C282F6E3350010B2E
:10295800326E32C02AF01A0E0F6E010E106E2A0E59
:10296800116E000E126E2F50CDEC29F03350020D6F
:10297800DE0EF324D96E010EF420DA6E0FC0DEFFEE
:1029880010C0DDFF000E2F24D96EDA6A020EDA229B
:10299800010EDF6E332A6A50020D3350266E276A05
:1029A800F350265C2750800A286EF450800A285875
:1029B800D8A0E1EF14F0E3EF14F09FEF14F0320E1B
:1029C8000C6E000E0D6E000E0E6E000E0F6EE7EC14
:1029D8003CF00001C587000E336EF3EF15F0000ED2
:1029E8001F6E990E1E6E3350020DDE0EF324D96E43
:1029F800010EF420DA6EDECF20F0DDCF21F07CEC82
:102A080041F03350020DDE0EF324D96E010EF4208E
:102A1800DA6EDECF9BF0DDCF9CF0F2EF15F0000E02
:102A28001F6E970E1E6E3350020DDE0EF324D96E04
:102A3800010EF420DA6EDECF20F0DDCF21F07CEC41
:102A480041F03350020DDE0EF324D96E010EF4204E
:102A5800DA6EDECF9DF0DDCF9EF0F2EF15F0000EBE
:102A68001F6E960E1E6E3350020DDE0EF324D96EC5
:102A7800010EF420DA6EDECF20F0DDCF21F07CEC01
:102A880041F03350020DDE0EF324D96E010EF4200E
:102A9800DA6EDECF67F0DDCF68F0F2EF15F0335075
:102AA800FC0F326E32500C0DF3CF26F0F4CF27F026
:102AB800E60E26242D6E000E27202E6E900E322450
:102AC800306E316A010E3122010E2D241E6E000E69
:102AD8002E201F6E3250266E276AD890263627364B
:102AE800E60E2624D96E010E2720DA6EDECF20F0FE
:102AF800DDCF21F07CEC41F03250266E276AD89069
:102B080026362736E60E2624D96E010E2720DA6EE1
:102B1800010EDBAE99EF15F0700EDE5CFE0EDE588E
:102B2800D8B099EF15F09BEF15F0A7EF15F030C06E
:102B38001EF031C01FF0000E216E010E206E7CECDD
:102B480041F0F2EF15F03250266E276AD8902636FB
:102B58002736E60E2624D96E010E2720DA6EDE28E7
:102B680006E1DE28D8A4BBEF15F0BDEF15F0C9EFDC
:102B780015F030C01EF031C01FF0000E216E000E9F
:102B8800206E7CEC41F0F2EF15F030C01EF031C041
:102B98001FF0000E216E030E206E7CEC41F0F2EF68
:102BA80015F03350266E276A2750000AD8B4DFEF95
:102BB80015F053EF15F02650000AD8B4F3EF14F0CF
:102BC800010AD8B413EF15F0030AD8B433EF15F09F
:102BD800010AD8B4F2EF15F053EF15F0332A6A5012
:102BE800020D3350266E276AF350265C2750800A60
:102BF800286EF450800A2858D8A005EF16F007EF81
:102C080016F0D5EF15F00001C5971200000E206EE2
:102C1800A80E1F6EECEC40F01F042010D8A417EF8C
:102C280016F019EF16F043EF16F0000E1F6EA80EFF
:102C38001E6E000E216E000E206E7CEC41F000012D
:102C4800C151D8B42AEF16F02CEF16F03EEF16F06B
:102C5800000E4A6E4A508EEC22F04A2A0E0E4A6442
:102C680038EF16F03AEF16F02EEF16F007EC3EF0BC
:102C780043EF16F0520EFFEC41F06BEC41F0000E02
:102C8800206EA70E1F6EECEC40F01F042010D8A495
:102C980050EF16F052EF16F098EF16F0000E1F6E78
:102CA800A70E1E6E000E216E000E206E7CEC41F009
:102CB8000001C151D8B463EF16F065EF16F093EF39
:102CC80016F0660E216EFE0E226E070E246ED00ED2
:102CD800236E000E256E010E266ED9EC34F0000E20
:102CE8004B6E4B503DEC29F04B2A090E4B647FEF9D
:102CF80016F081EF16F075EF16F0960E216EFF0EA6
:102D0800226E070E246ED00E236E010E256E000E65
:102D1800266ED9EC34F007EC3EF098EF16F0520E20
:102D2800FFEC41F06BEC41F0000E206EA60E1F6E1A
:102D3800ECEC40F01F042010D8A4A5EF16F0A7EF84
:102D480016F0E1EF16F0000E1F6EA60E1E6E000EB6
:102D5800216E000E206E7CEC41F00001C151D8B408
:102D6800B8EF16F0BAEF16F0DCEF16F0C30E216ECE
:102D7800FE0E226E070E246ED00E236E000E256EF8
:102D8800010E266ED9EC34F06AEC1BF0960E216E1B
:102D9800FF0E226E070E246ED00E236E010E256ED6
:102DA800000E266ED9EC34F007EC3EF0E1EF16F099
:102DB800520EFFEC41F06BEC41F0000E206EA90EB4
:102DC8001F6EECEC40F01F042010D8A4EEEF16F0B4
:102DD800F0EF16F054EF17F0000E1F6EA90E1E6EDE
:102DE800000E216E000E206E7CEC41F00001C151F6
:102DF800D8B401EF17F003EF17F04FEF17F0A10E5B
:102E0800216EFF0E226E070E246ED00E236E000E6A
:102E1800256E010E266ED9EC34F0130E0001F2195E
:102E2800F311D8A41AEF17F01CEF17F01EEF17F0E4
:102E3800000E496E150EF219F311D8A426EF17F0FB
:102E480028EF17F02AEF17F0050E496E050E346EBD
:102E58004950FFEC2EF0000E4C6E4C508EEC22F0D8
:102E68004C2A0E0E4C643BEF17F03DEF17F031EF94
:102E780017F007EC3EF0C00E216EFF0E226E070E13
:102E8800246ED00E236E010E256E000E266ED9EC30
:102E980034F054EF17F0520EFFEC41F06BEC41F0B8
:102EA800120055EC3EF0170E236EFE0E246E02EC57
:102EB8002CF00E0E236EFF0E246E02EC2CF0000E8A
:102EC800206EAA0E1F6EECEC40F01F042010D8A450
:102ED80070EF17F072EF17F064EF18F0000E1F6E26
:102EE800AA0E1E6E000E216E000E206E7CEC41F0C4
:102EF800000E1C6E000E1B6E8DEC41F0000E116E64
:102F0800220E106E77EC3FF010C02CF011C02DF09F
:102F18002CC01BF02DC01CF0000E1D6E030E1E6E83
:102F2800000E206E0A0E1F6E35EC26F06A0E106E2B
:102F3800010E116E8B0E126EFF0E136ED7EC3BF066
:102F48006A0E1A6E010E1B6E000E1C6E030E1D6EAD
:102F5800C6EC40F06A0E236E010E246E02EC2CF0D3
:102F6800010E2B6E1DEF18F06A0E106E010E116E19
:102F7800E30E126EFF0E136ED7EC3BF02BC01BF066
:102F88001C6A000E1D6E030E1E6E000E206E0A0EC9
:102F98001F6E35EC26F06A0E1A6E010E1B6E000EBF
:102FA8001C6E030E1D6EC6EC40F0000E106E030E74
:102FB800116E920E126EFF0E136ED7EC3BF06A0E76
:102FC8001A6E010E1B6E000E1C6E030E1D6EC6ECF3
:102FD80040F0100E286E0B0E0F6E010E106E280EAC
:102FE800116E000E126E2B50CDEC29F00FC02CF094
:102FF80010C02DF02CC01BF02DC01CF0000E1D6E53
:10300800030E1E6E000E206E0A0E1F6E35EC26F0A3
:103018006A0E1A6E010E1B6E000E1C6E030E1D6EDC
:10302800C6EC40F06A0E236E010E246E02EC2CF002
:103038002B2A2B506A5CD8B024EF18F026EF18F032
:10304800B8EF17F0D70E236EFE0E246E02EC2CF0AC
:10305800000E116EE80E106E77EC3FF010C02CF0E9
:1030680011C02DF02CC01BF02DC01CF06A0E1D6E77
:10307800010E1E6E000E206E0A0E1F6E35EC26F035
:103088006A0E1A6E010E1B6EAC0E1C6EFF0E1D6EC4
:10309800C6EC40F06A0E236E010E246E02EC2CF092
:1030A800980E0C6E3A0E0D6E000E0E6E000E0F6E20
:1030B80062EC3CF0000E1C6E0F0E1B6E8DEC41F0A6
:1030C8001200216E000E226E155009E1020E145CEA
:1030D800D8A071EF18F073EF18F075EF18F06CEFD7
:1030E80019F0155008E11404D8A07DEF18F07FEF0F
:1030F80018F083EF18F0080E226E85EF18F0000E16
:10310800226E21C023F0D8902336A00E23122380EC
:1031180022502312C2EC41F023C018F0FE0E1816FC
:1031280018500D6E0E6AF5EC41F013C00DF00E6AE2
:10313800F5EC41F012C00DF00E6AF5EC41F008EC28
:1031480042F023C00DF00E6AF5EC41F0000E206E3F
:10315800155009E1020E145CD8A0B5EF18F0B7EFCE
:1031680018F0B9EF18F05DEF19F0010E1224186E7F
:10317800000E1320196E000E14201A6E000E152072
:103188001B6E7F0E18141C6E000E19141D6E000E97
:103198001A141E6E000E1B141F6E1C501D101E10DC
:1031A8001F10D8A4DAEF18F0DCEF18F030EF19F0A0
:1031B800000E0E6E000E0D6E78EC3EF00D5016C02F
:1031C800D9FF17C0DAFFDF6EFAEC41F0340E186E43
:1031D800F20EE82EFED7182EFCD7010E1226000E8E
:1031E800132214221522164A172A155008E114042E
:1031F800D8A001EF19F003EF19F007EF19F0080E46
:10320800226E09EF19F0000E226E21C023F0D8902B
:103218002336A00E2312238022502312C2EC41F041
:1032280023C018F0FE0E181618500D6E0E6AF5EC35
:1032380041F013C00DF00E6AF5EC41F012C00DF02C
:103248000E6AF5EC41F008EC42F023C00DF00E6A6E
:10325800F5EC41F052EF19F0000E0E6E010E0D6EF6
:1032680078EC3EF00D5016C0D9FF17C0DAFFDF6EBC
:1032780016C0D9FF17C0DAFFDF50D8A446EF19F0FF
:1032880048EF19F04AEF19F05DEF19F0164A172ABE
:10329800010E1226000E132214221522202A2004C1
:1032A800186E3F0E18645BEF19F05DEF19F0ACEF84
:1032B80018F0000E0E6E000E0D6E78EC3EF0FAEC73
:1032C80041F0070E186EC00EE82EFED7182EFCD758
:1032D8001200236E000E246E000E0001B66F050E5C
:1032E800B56F155009E1020E145CD8A07EEF19F0F5
:1032F80080EF19F082EF19F06CEF1AF0155008E121
:103308001404D8A08AEF19F08CEF19F090EF19F097
:10331800080E246E92EF19F0000E246E23C025F0DB
:10332800D8902536A00E2512258024502512C2ECEF
:1033380041F025C019F0FE0E191619500D6E0E6ACF
:10334800F5EC41F013C00DF00E6AF5EC41F012C037
:103358000DF00E6AF5EC41F008EC42F025C00DF0D6
:103368000E6AF5EC41F0000E226E54EF1AF015507B
:1033780009E1020E145CD8A0C4EF19F0C6EF19F0E9
:10338800C8EF19F05DEF1AF0010E1224196E000E45
:1033980013201A6E000E14201B6E000E15201C6ED2
:1033A8007F0E19141D6E000E1A141E6E000E1B14CB
:1033B8001F6E000E1C14206E1D501E101F102010B2
:1033C800D8A4E9EF19F0EBEF19F03FEF1AF0000E6F
:1033D8000E6E000E0D6E78EC3EF00D5017C0D9FF42
:1033E80018C0DAFFDF6EFAEC41F0340E196EF20EF7
:1033F800E82EFED7192EFCD7010E1226000E132236
:1034080014221522174A182A155008E11404D8A0C6
:1034180010EF1AF012EF1AF016EF1AF0080E246ED9
:1034280018EF1AF0000E246E23C025F0D890253628
:10343800A00E2512258024502512C2EC41F025C08B
:1034480019F0FE0E191619500D6E0E6AF5EC41F0C2
:1034580013C00DF00E6AF5EC41F012C00DF00E6AC3
:10346800F5EC41F008EC42F025C00DF00E6AF5ECE1
:1034780041F053EF1AF0000E0E6E010E0D6E78EC4F
:103488003EF00D5017C0D9FF18C0DAFFDF6E174A9B
:10349800182A010E1226000E132214221522222A9F
:1034A8001650225CD8A05BEF1AF05DEF1AF0BBEF64
:1034B80019F0000E0E6E000E0D6E78EC3EF0FAEC70
:1034C80041F0070E196EC00EE82EFED7192EFCD754
:1034D80012001F6E000E0001B66F050EB56F125078
:1034E80009E1020E115CD8A07CEF1AF07EEF1AF009
:1034F80080EF1AF069EF1BF0125008E11104D8A010
:1035080088EF1AF08AEF1AF08EEF1AF0080E206E84
:1035180090EF1AF0000E206E1FC021F0D8902136CF
:10352800A00E211220502112C2EC41F021C00DF052
:103538000E6AF5EC41F010C00DF00E6AF5EC41F0A2
:103548000FC00DF00E6AF5EC41F0000E1E6E38EF5C
:103558001BF0125009E1020E115CD8A0B6EF1AF068
:10356800B8EF1AF0BAEF1AF069EF1BF0010E0F244A
:10357800166E000E1020176E000E1120186E000E29
:103588001220196E7F0E16141A6E000E17141B6E79
:10359800000E18141C6E000E19141D6E1A501B1004
:1035A8001C101D10D8A4DBEF1AF0DDEF1AF024EF81
:1035B8001BF014C0D9FF15C0DAFFDF50166E165085
:1035C8000D6E0E6AF5EC41F0FAEC41F0340E166E11
:1035D800F20EE82EFED7162EFCD7010E0F26000E8F
:1035E800102211221222144A152A125008E111043D
:1035F800D8A001EF1BF003EF1BF007EF1BF0080E3C
:10360800206E09EF1BF0000E206E1FC021F0D8902D
:103618002136A00E211220502112C2EC41F021C007
:103628000DF00E6AF5EC41F010C00DF00E6AF5ECE5
:1036380041F00FC00DF00E6AF5EC41F037EF1BF0CA
:1036480014C0D9FF15C0DAFFDF50166E16500D6E84
:103658000E6AF5EC41F0144A152A010E0F26000EE9
:103668001022112212221E2AFF0E166EFF0E176E4E
:103678001350186E196A16501826175019221E5022
:103688001A6E1B6A18501A5C1B50800A1C6E19505F
:10369800800A1C58D8A053EF1BF055EF1BF0ADEF74
:1036A8001AF014C0D9FF15C0DAFFDF50166E165095
:1036B8000D6E0E6AF5EC41F0FAEC41F0340E166E20
:1036C800F20EE82EFED7162EFCD71200040E206E3E
:1036D80020C00CF00D6A000E0F6E020E0E6E57EC35
:1036E80032F00C28246E2050010B256E2050120D4C
:1036F800F350EC0F1F6E010E1F24106E116A000E9E
:10370800112277EC3FF010C01DF011C01EF02550BB
:10371800070DF3CF21F01EC022F01DC023F00A0EC2
:103728000F6E030E106E210E116E000E126E2450D5
:10373800CDEC29F0070E1C6E170E1B6E6A0EE82ED4
:10374800FED71B2EFCD71C2EFAD700D02550070D0C
:10375800F350020F216E030E1F240C6E0D6A000E2B
:103768000D229BEC3EF0226E080E0F6E020E106EBC
:10377800210E116E000E126E2450CDEC29F0070EAA
:103788001C6E170E1B6E6A0EE82EFED71B2EFCD77A
:103798001C2EFAD700D02550070DF350030F216EC9
:1037A800040E1F240C6E0D6A000E0D229BEC3EF0D9
:1037B800226E080E0F6E020E106E210E116E000E94
:1037C800126E2450CDEC29F0070E1C6E170E1B6EDE
:1037D8006A0EE82EFED71B2EFCD71C2EFAD700D077
:1037E8002550070DF350040F216E050E1F240C6E93
:1037F8000D6A000E0D229BEC3EF0226E080E0F6E35
:10380800020E106E210E116E000E126E2450CDECB9
:1038180029F0070E1C6E170E1B6E6A0EE82EFED7D7
:103828001B2EFCD71C2EFAD700D0100E1F24106EAA
:10383800116A000E112277EC3FF010C01DF011C084
:103848001EF02550070DF350050F216E1EC022F003
:103858001DC023F00A0E0F6E030E106E210E116E9E
:10386800000E126E2450CDEC29F0070E1C6E170EB8
:103878001B6E6A0EE82EFED71B2EFCD71C2EFAD71D
:1038880000D02504D8A44BEF1CF04DEF1CF058EFE6
:103898001CF0010E0F6E000E106E210E116E000E40
:1038A800126E2450CDEC29F0202A0E0E20645FEF12
:1038B8001CF061EF1CF06CEF1BF01200030E0F6E92
:1038C800000E106E000E116E030E126E2B50CDEC12
:1038D80029F0000E6A6E6A0E106E010E116E690EE6
:1038E800126EFD0E136ED7EC3BF06A0E1A6E010EC7
:1038F8001B6EFC0E1C6EFE0E1D6EC6EC40F06A0EB2
:103908001A6E010E1B6EEA0E1C6EFF0E1D6EC6ECC3
:1039180040F06A0E236E010E246E02EC2CF0010EAC
:103928002B6E640E0C6E000E0D6E000E0E6E000EE9
:103938000F6E62EC3CF01AEC33F0030E0F6E000EC3
:10394800106E000E116E030E126E2B50CDEC29F086
:103958000FC029F010C02AF02AC028F0292808E151
:103968002A28D8B4BAEF1CF0BCEF1CF01FEF1DF0EA
:103978006A2A6A0E106E010E116E690E126EFD0E25
:10398800136ED7EC3BF02BC01BF01C6A6A0E1D6E41
:10399800010E1E6E000E206E0A0E1F6E35EC26F00C
:1039A8006A0E1A6E010E1B6EF60E1C6EFF0E1D6E51
:1039B800C6EC40F06A0E1A6E010E1B6E2850020DFE
:1039C800DC0EF324D96E020EF420DA6EDECF1CF082
:1039D800DDCF1DF0C6EC40F06A0E1A6E010E1B6EAC
:1039E800680E1C6EFD0E1D6EC6EC40F0000E106ECB
:1039F800030E116E680E126EFD0E136ED7EC3BF0BF
:103A08002B0E0F6E000E106E000E116E030E126E4E
:103A18002B50CDEC29F06A0E1A6E010E1B6E000EAB
:103A28001C6E030E1D6EC6EC40F06A0E236E010E6E
:103A3800246E02EC2CF02B2A0E0E2B6426EF1DF0C0
:103A480028EF1DF095EF1CF06A50D8A42EEF1DF05A
:103A580030EF1DF038EF1DF04D0E236EFE0E246E74
:103A680002EC2CF055EF1DF06AC01BF01C6A6A0EC0
:103A78001D6E010E1E6E000E206E0A0E1F6E35ECB6
:103A880026F06A0E1A6E010E1B6E7F0E1C6EFE0E5D
:103A98001D6EC6EC40F06A0E236E010E246E02EC19
:103AA8002CF01200000E206E040E1F6EECEC40F09D
:103AB8001F042010D8A463EF1DF065EF1DF08CEFF4
:103AC8001DF00001C6B76BEF1DF06DEF1DF08CEF18
:103AD8001DF0C6876550675C6850800A316E665075
:103AE800800A3158D8B07BEF1DF07DEF1DF085EFCF
:103AF8001DF0010E38EC41F0010EA5EC3AF03BEF59
:103B08001EF0000E38EC41F0BCEC3EF03BEF1EF02E
:103B1800000E206E040E1F6EECEC40F01F502010BB
:103B2800D8A499EF1DF09BEF1DF009EF1EF00001DE
:103B3800C6A7A1EF1DF0A3EF1DF009EF1EF0C69771
:103B4800000E38EC41F0000E1F6E060E1E6E000EC1
:103B5800216E000E206E7CEC41F0420EFFEC41F02D
:103B6800000E1F6E160E1E6E000E216E000E206EC9
:103B78007CEC41F0000E336E000E326E010E0C6EBE
:103B8800000E0D6E000E0E6E000E0F6EE7EC3CF090
:103B9800000E206E060E1F6EECEC40F01F50201039
:103BA800D8B4D9EF1DF0DBEF1DF0DDEF1DF0EEEF1F
:103BB8001DF00400324A332A33BEECEF1DF0100E1C
:103BC800325C270E3358D8A0ECEF1DF0EEEF1DF055
:103BD800C2EF1DF0000E206E060E1F6EECEC40F0DA
:103BE800F10E1F182010D8A4FCEF1DF0FEEF1DF0F9
:103BF8003BEF1EF0000EA5EC3AF0000E6C6E000EC6
:103C08006D6E07EC3EF03BEF1EF0000E206E040ECA
:103C18001F6EECEC40F01F042010D8A416EF1EF025
:103C280018EF1EF03BEF1EF00001C6A71EEF1EF0B6
:103C380020EF1EF03BEF1EF06550675C6850800A6D
:103C4800316E6650800A3158D8B02DEF1EF02FEF34
:103C58001EF036EF1EF0010E38EC41F00001C58968
:103C68003BEF1EF0000E38EC41F088EF1DF012001B
:103C78005A0E0E6EA50E0D6EE3EC41F0030E25EC08
:103C880041F0810E25EC41F0200E25EC41F0070EA5
:103C980025EC41F08FEC3CF00009D8B456EF1EF04B
:103CA80058EF1EF075EF1EF0000E406E4050060FE4
:103CB800226E236AB40E2224D96E010E2320DA6EF6
:103CC800240E4024E16EE26A000EE222DFCFE7FF15
:103CD800402A090E406473EF1EF075EF1EF05AEF8C
:103CE8001EF02E0E0C6E000E0D6E245094EC3FF05C
:103CF800310E0C6E000E0D6E255094EC3FF0340E14
:103D08000C6E000E0D6E265094EC3FF01EC010F0A5
:103D18001FC011F0690E126EFD0E136ED7EC3BF04A
:103D28001EC01AF01FC01BF0340E1C6E000E1D6E54
:103D3800C6EC40F01EC01AF01FC01BF0FD0E1C6E32
:103D4800FF0E1D6EC6EC40F01EC01AF01FC01BF01F
:103D5800310E1C6E000E1D6EC6EC40F01EC01AF02F
:103D68001FC01BF0FD0E1C6EFF0E1D6EC6EC40F052
:103D78001EC01AF01FC01BF02E0E1C6E000E1D6E0A
:103D8800C6EC40F0370E0C6E000E0D6E285094EC09
:103D98003FF03A0E0C6E000E0D6E295094EC3FF079
:103DA8003D0E0C6E000E0D6E2A5094EC3FF020C0B4
:103DB80010F021C011F0690E126EFD0E136ED7ECD3
:103DC8003BF020C01AF021C01BF0370E1C6E000E0D
:103DD8001D6EC6EC40F020C01AF021C01BF0E80EA2
:103DE8001C6EFE0E1D6EC6EC40F020C01AF021C0FD
:103DF8001BF03A0E1C6E000E1D6EC6EC40F020C083
:103E08001AF021C01BF0E80E1C6EFE0E1D6EC6ECEB
:103E180040F020C01AF021C01BF03D0E1C6E000EB1
:103E28001D6EC6EC40F0010E0C6E000E0D6E000EFD
:103E38000E6E000E0F6EE7EC3CF01200000E1F6EC7
:103E4800020E1E6E000E216E000E206E7CEC41F0FC
:103E5800000E1F6E030E1E6E000E216E000E206EE9
:103E68007CEC41F0000E1F6E040E1E6E000E216EDB
:103E7800000E206E7CEC41F0000E1F6E050E1E6ECB
:103E8800000E216E000E206E7CEC41F00001C699F8
:103E9800000E0D6E100E0C6E9BEC3EF00001C66F0E
:103EA800C651D8B45AEF1FF05CEF1FF0FCEF1FF0BB
:103EB8006A0E236EFD0E246E02EC2CF0C30E236EE8
:103EC800FD0E246E02EC2CF0000EA5EC3AF0000179
:103ED800C6A171EF1FF073EF1FF086EF1FF0C691B8
:103EE800B60E236EFF0E246E02EC2CF0000E1F6E31
:103EF800020E1E6E000E216E010E206E7CEC41F04B
:103F080008EC39F00001C6A58CEF1FF08EEF1FF00A
:103F1800ABEF1FF0C695200E236EFF0E246E02EC49
:103F28002CF0000E1F6E030E1E6E000E216E010E89
:103F3800206E7CEC41F02DEC35F0100E0C6E270E47
:103F48000D6E000E0E6E000E0F6E62EC3CF000015E
:103F5800C6A7B1EF1FF0B3EF1FF0D1EF1FF0C69760
:103F6800C689C90E236EFF0E246E02EC2CF0000EDB
:103F78001F6E040E1E6E000E216E010E206E7CEC6C
:103F880041F056EC1DF0100E0C6E270E0D6E000E53
:103F98000E6E000E0F6E62EC3CF00001C6A3D7EF68
:103FA8001FF0D9EF1FF0F6EF1FF0C6932F0E236E08
:103FB800FF0E246E02EC2CF0000E1F6E050E1E6E16
:103FC800000E216E010E206E7CEC41F07AEC27F099
:103FD800100E0C6E270E0D6E000E0E6E000E0F6E7C
:103FE80062EC3CF0000E1C6E0F0E1B6E8DEC41F067
:103FF800C6C0B9F01200000E576E000E586E000EC3
:10400800596E000E5A6E000E1C6E230E1B6E8DEC40
:1040180041F007EC3EF0959C838C000E526E5AC01E
:1040280053F059C054F058C055F057C056F0140E0C
:104038000F6E050E106E520E116E000E126E010EEE
:10404800CDEC29F00FC044F010C045F0010E526EBF
:104058005AC053F059C054F058C055F057C056F0E4
:10406800140E0F6E050E106E520E116E000E126EAB
:10407800010ECDEC29F00FC046F010C047F0839C2C
:10408800020E426E4D0E416E740EE82EFED7412E82
:10409800FCD7422EFAD700D0550E1E6EC10E1F6EE9
:1040A800E80E206E3E0E216E44C00CF045C00DF0A7
:1040B800000E0DBEFF0E0E6E0F6E010EB4EC21F059
:1040C8000CC01AF00DC01BF00EC01CF00FC01DF084
:1040D80033EC0DF01AC033F01BC034F01CC035F0BF
:1040E8001DC036F087EC2CF033C03DF034C03EF0F4
:1040F800010E6EEC3AF0CD0E1E6ECC0E1F6E4C0EFD
:10410800206E3D0E216E20EE46F0DECF0CF0DDCFA6
:104118000DF0000E0DBEFF0E0E6E0F6E010EB4EC0C
:1041280021F00CC01AF00DC01BF00EC01CF00FC01F
:104138001DF033EC0DF01AC033F01BC034F01CC076
:1041480035F01DC036F087EC2CF033C03DF034C09C
:104158003EF0020E6EEC3AF0020E426E4D0E416ECB
:10416800740EE82EFED7412EFCD7422EFAD700D087
:10417800020E5726000E582259225A2204004428BB
:1041880008E14528D8B4CBEF20F0CDEF20F0D7EFE9
:1041980020F0462806E14728D8A4D5EF20F0D7EF2D
:1041A80020F00FEF20F007EC3EF01200000E166E24
:1041B800B30E156ED90E176E000E186E040E196E1A
:1041C80015EC28F0DBC02BF02C6A2D6A2E6A2DC066
:1041D8002EF02CC02DF02BC02CF02B6ADAC02FF05B
:1041E800306A316A326A30C032F02FC031F0306A3A
:1041F8002F6AD9C033F0346A356A366A33C036F06C
:10420800356A346A336A2F503324376E305034207D
:10421800386E31503520396E325036203A6E2B5078
:1042280037243B6E2C5038203C6E2D5039203D6E83
:104238002E503A203E6E0001DC513B243F6E000EAA
:104248003C20406E000E3D20416E000E3E20426E26
:104258003F50401041104210D8B435EF21F037EFED
:1042680021F0B3EF21F089513F180DE18A51401830
:104278000AE18B51411807E18C514218D8A447EF45
:1042880021F049EF21F0B3EF21F0000E1E6EB30EBE
:104298001D6E000E1F6E000E206E000E216E000EA9
:1042A800226EA6EC3BF0000E206EB20E1F6EECECF8
:1042B80040F01F042010D8A464EF21F066EF21F02D
:1042C80083EF21F0000E6B6E000E0001C16FA16933
:1042D800A269000E1F6EB20E1E6E000E216E000E39
:1042E800206E7CEC41F0000E1F6E9A0E1E6E000EC2
:1042F800216E000E206E7CEC41F0AFEF21F0000E35
:10430800206EB20E1F6EECEC40F01F502010D8A4A7
:1043180090EF21F092EF21F0AFEF21F0010E6B6EDC
:10432800010E0001C16F000EA26F0A0EA16F000EF0
:104338001F6EB20E1E6E000E216E010E206E7CECFA
:1043480041F0000E1F6E9A0E1E6E000E216E010EB9
:10435800206E7CEC41F0CCEC41F007EC3EF0120012
:10436800146E1450D8B4BBEF21F0BDEF21F0DFEF8D
:1043780021F00FBEC4EF21F0C2EF21F0DFEF21F0F2
:104388000CC010F00DC011F00EC012F00FC013F0E9
:10439800101E111E121E131E102A000E11221222A8
:1043A800132210C016F011C017F012C018F013C075
:1043B80019F0E7EF21F00CC016F00DC017F00EC091
:1043C80018F00FC019F00C500D100E100F10D8A4D3
:1043D800F0EF21F0F2EF21F0FCEF21F0000E0C6E6F
:1043E800000E0D6E000E0E6E000E0F6E8DEF22F099
:1043F800960E156E06EF22F0152AD890193218324B
:1044080017321632000E1614106E000E1714116EA5
:10441800000E1814126EFE0E1914136E105011109F
:1044280012101310D8A41BEF22F01DEF22F000EF9A
:1044380022F02BEF22F0152A010E1626000E172265
:1044480018221922D8901932183217321632000E53
:104458001614106E000E1714116E000E1814126E3A
:10446800FF0E1914136E1050111012101310D8A447
:1044780040EF22F042EF22F01FEF22F04AEF22F045
:104488001506D890163617361836193618BE4FEF57
:1044980022F051EF22F059EF22F0020E156057EF8B
:1044A80022F059EF22F044EF22F015B05EEF22F02F
:1044B80060EF22F061EF22F0189ED890153215C0F7
:1044C80010F0116A126A136A10C013F0126A116AA6
:1044D800106A105016121150171212501812135059
:1044E80019121450D8B47BEF22F07DEF22F085EF3B
:1044F80022F00FBE84EF22F082EF22F085EF22F047
:10450800198E16C00CF017C00DF018C00EF019C0A7
:104518000FF01200316E3150010B2D6E2DC02AF0B4
:1045280031C00CF00D6A000E0F6E020E0E6E57ECC5
:1045380032F0030E3164A3EF22F0A5EF22F054EF1E
:1045480023F0040E315E3150120DF350340F306EEB
:104558003150010B2D6E2DC02AF031C00CF00D6AC0
:10456800000E0F6E020E0E6E57EC32F031500C0D2D
:10457800F3CF26F0F4CF27F0E60E26242E6E000E99
:1045880027202F6E2EC01EF02FC01FF030C00CF059
:104598000D6A9BEC3EF0266E010E2624206E216AE1
:1045A800000E21227CEC41F0020E2E241E6E000E1D
:1045B8002F201F6E010E3024106E116A000E11227A
:1045C80077EC3FF010C020F011C021F07CEC41F0F6
:1045D800030E2E241E6E000E2F201F6E030E302495
:1045E8000C6E0D6A000E0D229BEC3EF0266E2650D6
:1045F800206E216A7CEC41F0040E2E241E6E000E03
:104608002F201F6E040E30240C6E0D6A000E0D2232
:104618009BEC3EF0266E2650206E216A7CEC41F021
:10462800050E2E241E6E000E2F201F6E050E302440
:104638000C6E0D6A000E0D229BEC3EF0266E265085
:10464800206E216A7CEC41F0060E3024106E116A4F
:10465800000E11226A0E126E010E136EFCEC3EF073
:10466800060E2E241D6E000E2F201E6E6A0E1F6E63
:10467800010E206ED9EC40F00B0E2E241E6E000E9B
:104688002F201F6E100E3024106E116A000E11229A
:1046980077EC3FF010C020F011C021F07CEC41F025
:1046A8001200000E166E9B0E156ED90E176E000EB8
:1046B800186E040E196E15EC28F0DBC028F0296A74
:1046C8002A6A2B6A2AC02BF029C02AF028C029F0B0
:1046D800286ADAC02CF02D6A2E6A2F6A2DC02FF0B6
:1046E8002CC02EF02D6A2C6AD9C030F0316A326A9B
:1046F800336A30C033F0326A316A306A2C50302461
:10470800346E2D503120356E2E503220366E2F509B
:104718003320376E28503424386E29503520396EAE
:104728002A5036203A6E2B5037203B6E0001DC5160
:1047380038243C6E000E39203D6E000E3A203E6E45
:10474800000E3B203F6E3C503D103E103F10D8B449
:10475800B0EF23F0B2EF23F0EAEF23F089513C18D1
:104768000DE18A513D180AE18B513E1807E18C5141
:104778003F18D8A4C2EF23F0C4EF23F0EAEF23F0E8
:10478800750EA26F300EA16F010EC16F000E1F6E65
:104798009A0E1E6E000E216E010E206E7CEC41F00A
:1047A800000E1F6E9B0E1E6E000E216E000E206EF8
:1047B8007CEC41F0000E1F6E9C0E1E6E000E216EEA
:1047C800000E206E7CEC41F007EC3EF00001C105C4
:1047D800D8A4F1EF23F0F3EF23F008EF24F0A2BF01
:1047E800FAEF23F0F8EF23F008EF24F0000EC16F82
:1047F800000E1F6E9A0E1E6E000E216E000E206EA9
:104808007CEC41F06BEC41F0B7EC41F05A0AD8A4CB
:1048180010EF24F012EF24F01AEF24F0750E0001C7
:10482800A26F300EA16F000E9CEC41F012001D6EBD
:10483800125009E1020E115CD8A025EF24F027EFF1
:1048480024F029EF24F0DAEF24F0125008E11104E3
:10485800D8A031EF24F033EF24F037EF24F0080E1E
:104868001E6E39EF24F0000E1E6E1DC01FF0D8908A
:104878001F36A00E1F121E501F12C2EC41F01FC09F
:104888000DF00E6AF5EC41F010C00DF00E6AF5EC73
:1048980041F00FC00DF00E6AF5EC41F0BFEF24F0C7
:1048A800125009E1020E115CD8A05DEF24F05FEF11
:1048B80024F061EF24F0DAEF24F0010E0F24156ED6
:1048C800000E1020166E000E1120176E000E12201A
:1048D800186E7F0E1514196E000E16141A6E000E3F
:1048E80017141B6E000E18141C6E19501A101B108A
:1048F8001C10D8A482EF24F084EF24F0ACEF24F04D
:1049080013C0D9FF14C0DAFFDF50156E15500D6EB5
:104918000E6AF5EC41F0FAEC41F0340E156EF20E29
:10492800E82EFED7152EFCD7010E0F26000E1022FA
:1049380011221222134A142A125008E11104D8A095
:10494800A8EF24F0AAEF24F037EF24F033EF24F097
:1049580013C0D9FF14C0DAFFDF50156E15500D6E65
:104968000E6AF5EC41F0134A142A010E0F26000EC8
:1049780010221122122213C0D9FF14C0DAFFDF500F
:10498800D8A4C9EF24F0CBEF24F054EF24F0000EA4
:104998000E6E000E0D6EF5EC41F0FAEC41F0340E9F
:1049A800156EF20EE82EFED7152EFCD7120020EE5B
:1049B80006F01050D9261150DA22DF50146E20EE7E
:1049C80007F01050D9261150DA22DF50156E000E6C
:1049D800166E20EE03F01050D9261150DA22DF505F
:1049E800176E20EE04F01050D9261150DA22DF504D
:1049F800186E000E196E10C0D9FF11C0DAFFDF5013
:104A08001A6E20EE01F01050D9261150DA22DF502C
:104A18001B6E000E1C6E12C0D9FF13C0DAFFDF50E8
:104A28001D6E20EE01F01250D9261350DA22DF5005
:104A38001E6E000E1F6E20EE03F01250D926135082
:104A4800DA22DF50206E20EE04F01250D9261350DF
:104A5800DA22DF50216E000E226E20EE06F0125090
:104A6800D9261350DA22DF50236E20EE07F01250B9
:104A7800D9261350DA22DF50246E000E256E5A0E06
:104A88000E6EA50E0D6EE3EC41F00A0E25EC41F01A
:104A9800800E25EC41F01F0E25EC41F05A0E25EC56
:104AA80041F0140E0C6E000E0D6E8CEC40F025ECEF
:104AB80041F0170E0C6E000E0D6E8CEC40F025ECDC
:104AC80041F01A0E0C6E000E0D6E8CEC40F025ECC9
:104AD80041F0010E25EC41F01D0E0C6E000E0D6E1E
:104AE8008CEC40F025EC41F0200E0C6E000E0D6EA3
:104AF8008CEC40F025EC41F0230E0C6E000E0D6E90
:104B08008CEC40F025EC41F012002C6E2C500C0D72
:104B1800F3CF26F0F4CF27F0E60E26242D6E000EF4
:104B280027202E6E2C50120DF350340F2F6E2C5060
:104B3800010B2B6E2CC00CF00D6A000E0F6E020ECE
:104B48000E6E57EC32F02BC028F02DC01EF02EC090
:104B58001FF02FC00CF00D6A9BEC3EF0266E26501D
:104B6800206E216A7CEC41F0020E2D241E6E000E90
:104B78002E201F6E010E2F24106E116A000E1122B6
:104B880077EC3FF010C020F011C021F07CEC41F030
:104B9800030E2D241E6E000E2E201F6E030E2F24D2
:104BA8000C6E0D6A000E0D229BEC3EF0266E265010
:104BB800206E216A7CEC41F0040E2D241E6E000E3E
:104BC8002E201F6E040E2F240C6E0D6A000E0D226F
:104BD8009BEC3EF0266E2650206E216A7CEC41F05C
:104BE800050E2D241E6E000E2E201F6E050E2F247E
:104BF8000C6E0D6A000E0D229BEC3EF0266E2650C0
:104C0800206E216A7CEC41F0060E2F24106E116A8A
:104C1800000E11226A0E126E010E136EFCEC3EF0AD
:104C2800060E2D241D6E000E2E201E6E6A0E1F6E9F
:104C3800010E206ED9EC40F00B0E2D241E6E000ED6
:104C48002E201F6E100E2F24106E116A000E1122D6
:104C580077EC3FF010C020F011C021F07CEC41F05F
:104C68001200000E276E000E266E000E236E1B50DB
:104C78001C10D8A442EF26F044EF26F056EF26F099
:104C88001DC0D9FF1EC0DAFF300EDF6E264A272A64
:104C980026501D24D96E27501E20DA6E000EDF6EB6
:104CA800DAEF26F01CBE5DEF26F05BEF26F0B1EFE1
:104CB80026F00A0E1F182010D8A465EF26F067EF1B
:104CC80026F0B1EF26F0010E236E1B6C1C1ED8B027
:104CD8001C2AB1EF26F01BC00CF01CC00DF01FC041
:104CE8000EF020C00FF0D3EC33F00CC024F00DC050
:104CF80025F025BE8BEF26F0255007E10A0E245C2F
:104D0800D8B089EF26F08BEF26F093EF26F0300E1F
:104D18002424216E000E2520226E99EF26F0570ECE
:104D28002424216E000E2520226E26501D24D96EC3
:104D380027501E20DA6E21C0DFFF264A272A1BC013
:104D48000CF01CC00DF01FC00EF020C00FF057EC87
:104D580032F00CC01BF00DC01CF01B501C10D8A466
:104D6800B8EF26F0BAEF26F06FEF26F02350D8B44C
:104D7800C0EF26F0C2EF26F0CCEF26F026501D2417
:104D8800D96E27501E20DA6E2D0EDF6E264A272A8E
:104D980026501D24D96E27501E20DA6E000EDF6EB5
:104DA8001DC010F01EC011F0C5EC36F01200000E48
:104DB800116EFA0E106E77EC3FF010C093F011C030
:104DC80094F0000E1F6ED60E1E6E93C020F094C095
:104DD80021F07CEC41F0320E000193199411D8A413
:104DE800F8EF26F0FAEF26F01DEF27F0F80E010194
:104DF800016F000E006F030E036FE00E026F000ECE
:104E0800056F1F0E046F06690769086909690A6951
:104E18000B690C690D690E690F69106911691269CE
:104E2800136914691569166917691869196979EF99
:104E380027F0500E93199411D8A425EF27F027EFE7
:104E480027F05EEF27F0000E0101016F000E006FE2
:104E5800390E036FE70E026F6B0E056F6D0E046F50
:104E6800780E076F000E066F9A0E096F230E086FF3
:104E7800F80E0B6F000E0A6FFB0E0D6FE00E0C6F35
:104E8800FB0E0F6FF70E0E6FD50E116F400E106FE1
:104E9800030E136FE00E126F070E156FE00E146FFE
:104EA800000E176F1F0E166FF80E196F1F0E186F72
:104EB80079EF27F001010069016902690369046952
:104EC800056906690769086909690A690B690C694E
:104ED8000D690E690F6910691169126913691469FE
:104EE800156916691769186919691200000E206E8C
:104EF800050E1F6EECEC40F01F042010D8A487EFBD
:104F080027F089EF27F0B3EF27F00001C6B38FEF42
:104F180027F091EF27F0B3EF27F06350675C6850F4
:104F2800800A266E6450800A2658D8B09EEF27F073
:104F3800A0EF27F0B3EF27F097519D5D9E51800AAF
:104F4800266E9851800A2658D8B0ADEF27F0AFEFFB
:104F580027F0B3EF27F0C683010ED9EC3AF0000E24
:104F6800206E050E1F6EECEC40F01F502010D8A4E8
:104F7800C0EF27F0C2EF27F0DBEF27F00001C6A350
:104F8800C8EF27F0CAEF27F0DBEF27F0000ED9ECC7
:104F98003AF00001C693070E1E6EB20E1D6E690E22
:104FA8001F6EFD0E206ED9EC40F014EF28F0000EB5
:104FB800206E050E1F6EECEC40F01F042010D8A4E4
:104FC800E8EF27F0EAEF27F014EF28F00001C6A376
:104FD800F0EF27F0F2EF27F014EF28F06750635C4A
:104FE8006450800A266E6850800A2658D8A0FFEFC1
:104FF80027F001EF28F010EF28F09D51975D9851A8
:10500800800A266E9E51800A2658D8B00EEF28F0E6
:1050180010EF28F014EF28F0C693000ED9EC3AF000
:1050280012000001C5B71BEF28F01DEF28F02BEF89
:1050380028F0020E1B6E4D0E1A6E740EE82EFED767
:105048001A2EFCD71B2EFAD700D033EF28F03F0ECC
:105058001A6E550EE82EFED71A2EFCD700F05A0EFF
:105068000E6EA50E0D6EE3EC41F0040E25EC41F03A
:10507800830E25EC41F015C00DF016C00EF0E3ECE0
:1050880041F0D890193025EC41F0850EE82EFED776
:1050980000F0000E1D6E000E1C6E84EF28F0060E48
:1050A8001A6E300EE82EFED71A2EFCD700D000015B
:1050B800C7A161EF28F063EF28F082EF28F0C791CD
:1050C800000E1E6E77EF28F0BB0E1E24D96EDA6A2A
:1050D800010EDA221E501724E16E000E1820E26E2F
:1050E800DFCFE7FF1E2A19501E5CD8A07EEF28F0FC
:1050F80080EF28F068EF28F08FEF28F01C4A1D2A6F
:10510800900E1C5C010E1D58D8A08DEF28F08FEF73
:1051180028F053EF28F0040E196495EF28F097EF64
:1051280028F09FEF28F01E501724D96E000E182083
:10513800DA6E000EDF6E010E0C6E000E0D6E000EA4
:105148000E6E000E0F6EE7EC3CF01200000E476E7C
:10515800000E466E000E436E000E426E19C00CF033
:105168001AC00DF01BC00EF01CC00FF01FC010F0CD
:1051780020C011F0000E11BEFF0E126E136E82ECED
:1051880038F00CC044F00DC045F045BED7EF28F00C
:10519800455007E10A0E445CD8B0D5EF28F0D7EFA8
:1051A80028F0E4EF28F0210E4624D96E000E47209F
:1051B800DA6E4450300FDF6E464A472AEFEF28F088
:1051C800210E4624D96E000E4720DA6E4450370F60
:1051D800DF6EE0EF28F019C00CF01AC00DF01BC00C
:1051E8000EF01CC00FF01FC010F020C011F0000E10
:1051F80011BEFF0E126E136E80EC35F00CC019F064
:105208000DC01AF00EC01BF00FC01CF019501A1078
:105218001B101C10D8A413EF29F015EF29F0B2EFDA
:1052280028F04606D8A047062DEF29F0210E46247F
:10523800D96E000E4720DA6E42501D24E16E4350AD
:105248001E20E26EDFCFE7FF4606D8A04706424A97
:10525800432A47BE34EF29F032EF29F01AEF29F03C
:1052680042501D24D96E43501E20DA6E000EDF6EA8
:105278001200316E31500C0DF3CF2FF0F4CF30F017
:10528800E60E2F24326E000E3020336E3150120D90
:10529800F350340F346E34C025F0266A31C027F03D
:1052A800C6EC38F0010E34242B6E2C6A000E2C222A
:1052B800020E32241F6E000E3320206EECEC40F0FC
:1052C8001FC02DF020C02EF0FFEC40F0030E342458
:1052D800256E266A000E2622030E32241F6E000E4B
:1052E8003320206EECEC40F01F50276EC6EC38F0EF
:1052F800040E3424256E266A000E2622040E32245B
:105308001F6E000E3320206EECEC40F01F50276E0D
:10531800C6EC38F0050E3424256E266A000E2622C7
:10532800050E32241F6E000E3320206EECEC40F088
:105338001F50276EC6EC38F0060E32241F6E000E82
:105348003320206E6A0E216E010E226EAAEC41F007
:10535800060E34242B6E2C6A000E2C226A0E2D6E3B
:10536800010E2E6E2EEC3EF0100E34242B6E2C6A9D
:10537800000E2C220B0E32241F6E000E3320206EDE
:10538800ECEC40F01FC02DF020C02EF0FFEC40F0F8
:105398001200156E16681768AA0E0E6EBB0E0D6EFB
:1053A800E3EC41F0000E25EC41F0155025EC41F0FE
:1053B8000F5025EC41F0105025EC41F0000E1A6E0C
:1053C800F0EF29F01A501124D96E000E1220DA6E6F
:1053D800DF5025EC41F01A2A10501A5CD8A0F7EFDC
:1053E80029F0F9EF29F0E6EF29F0D50EE82EFED7DF
:1053F80000F00001C791000E196E000E186EE40E41
:1054080000D000D0E82EFCD700D000D00001C7A102
:1054180010EF2AF012EF2AF048EF2AF0150E136E5B
:10542800C60EE82EFED7132EFCD700D00001C79178
:10543800B9C110F00101BB51BAC113F0146A13C00D
:1054480014F0136A1310166E1450176E000E1A6EAD
:105458003DEF2AF0BA0E1A24D96EDA6A010EDA2262
:105468001A501124E16E000E1220E26EDFCFE7FF22
:105478001A2A10501A5CD8A044EF2AF046EF2AF0F6
:105488002EEF2AF058EF2AF0184A192A19BE56EFBB
:105498002AF0900E185C010E1958D8A056EF2AF081
:1054A80058EF2AF003EF2AF016C00FF017C010F0DB
:1054B80012000101B551B4C10EF00F6A0EC00FF011
:1054C8000E6A0E26000E0F220CC0D9FF0DC0DAFF9F
:1054D8000EC0DEFF0FC0DDFF20EE02F00C50D92613
:1054E8000D50DA22B6C1DFFF20EE03F00C50D926AA
:1054F8000D50DA22B7C1DFFFB951B8C10EF00F6AFB
:105508000EC00FF00E6A0E26000E0F2220EE04F0D9
:105518000C50D9260D50DA220EC0DEFF0FC0DDFF79
:1055280020EE06F00C50D9260D50DA22BAC1DFFF62
:10553800000E126EBEEF2AF0BB0E1224D96EDA6A84
:10554800010EDA22DF500E6E0F6A1250020D0CC0E7
:1055580010F00DC011F0F3501026F4501122070E70
:105568001024D96E000E1120DA6E0EC0DEFF0FC0B7
:10557800DDFF122A20EE02F00C50D9260D50DA2257
:105588001250DE5CD8B0CBEF2AF0CDEF2AF0A0EFB6
:105598002AF020EE25F00C50D9260D50DA22BBC196
:1055A800DFFF20EE26F00C50D9260D50DA2201013B
:1055B800BC390F0B0F0BDF6E20EE27F00C50D926ED
:1055C8000D50DA22BC510F0BDF6E120044C048F0B8
:1055D80043C049F042C04AF041C04BF0020E0F6E82
:1055E800040E106E480E116E000E126EFF0ECDECFA
:1055F80029F0000E4C6E62EF2BF04C50020D0F0E8E
:10560800F324D96E020EF420DA6EDE50DE10D8B420
:1056180010EF2BF012EF2BF061EF2BF04C50040D34
:105628002D0EF324D96E020EF420DA6EDECF1EF0B2
:10563800DECF1FF0DECF20F0DECF21F04C50020D80
:105648000F0EF324D96E020EF420DA6EDECF45F089
:10565800DDCF46F045C0D9FF46C0DAFFDECF0CF0FB
:10566800DDCF0DF0000E0DBEFF0E0E6E0F6E010E9B
:10567800B4EC21F00CC01AF00DC01BF00EC01CF0E9
:105688000FC01DF033EC0DF01AC033F01BC034F01E
:105698001CC035F01DC036F087EC2CF033C03DF04F
:1056A80034C03EF0690E4C24D96EDA6A020EDA2252
:1056B800DF50476E47286EEC3AF04C2A6A50020DCC
:1056C8004C50456E466AF350455C4650800A476E1A
:1056D800F450800A4758D8A074EF2BF076EF2BF0DF
:1056E80001EF2BF0120026C028F027C029F0283A35
:1056F800293AF00E291628500F0B2912F00E2816F9
:10570800000E28242A6E010E29202B6E26C018F0C0
:1057180027C019F0000E1B6E0A0E1A6E12EC41F02B
:10572800A40E18242C6E010E19202D6E2CC01EF00C
:105738002DC01FF02AC010F02BC011F077EC3FF0FD
:1057480010C020F011C021F07CEC41F0010E2C2497
:105758001E6E000E2D201F6E020E2A240C6E000EE7
:105768002B200D6E9BEC3EF0286E2850206E216A8F
:105778007CEC41F0020E2C241E6E000E2D201F6EB4
:10578800030E2A240C6E000E2B200D6E9BEC3EF0AF
:10579800286E2850206E216A7CEC41F0030E2C24E0
:1057A8001E6E000E2D201F6E040E2A240C6E000E95
:1057B8002B200D6E9BEC3EF0286E2850206E216A3F
:1057C8007CEC41F0050E2A24106E000E2B20116E81
:1057D8006A0E126E010E136EFCEC3EF0000E010113
:1057E800726F040E2C241D6E000E2D201E6E6A0E84
:1057F8001F6E010E206ED9EC40F012000001C58723
:10580800320E93199411D8A40CEF2CF00EEF2CF053
:1058180013EF2CF0080E0301C66FDE0EC56F500E95
:10582800000193199411D8A41CEF2CF01EEF2CF052
:1058380023EF2CF0090E0301C66F740EC56F00012B
:10584800EC510301C55D0001ED510301C659D8A013
:1058580030EF2CF032EF2CF043EF2CF0ECC01DF0C1
:10586800EDC01EF023C01FF024C020F0D9EC40F09A
:105878001E0E0001EC27000EED2384EF2CF0070E1E
:10588800C46FD00EC36F6FEF2CF07A0E106E030E3C
:10589800116E690E126EFD0E136ED7EC3BF01E0EE4
:1058A8000301C3251F6E000EC421206E7A0E216EDF
:1058B800030E226EAAEC41F0C3C31DF0C4C31EF050
:1058C8007A0E1F6E030E206ED9EC40F01E0E0301F7
:1058D800C327000EC423C351C55DC451C659D8B0EF
:1058E80078EF2CF07AEF2CF049EF2CF0C5C31DF0BF
:1058F800C6C31EF023C01FF024C020F0D9EC40F02E
:105908000001C5971200353436343C6E3C50D8A49B
:1059180090EF2CF092EF2CF09CEF2CF0000E336EF1
:10592800000E346E000E356E000E366E09EF2DF047
:1059380033C037F034C038F035C039F036C03AF0EB
:10594800200EACEF2CF0D8903A3239323832373258
:10595800E82EA7EF2CF037503B6E358EFF0E33162E
:10596800FF0E3416FF0E3516000E3616960E3C5EE8
:105978003CBEC3EF2CF0C1EF2CF0D9EF2CF03C501B
:10598800800A970FD8B0CBEF2CF0CDEF2CF0CFEFEB
:105998002CF092EF2CF0D890363235323432333244
:1059A8003C3ECFEF2CF0F1EF2CF01F0E3C64DFEF04
:1059B8002CF0E1EF2CF0E9EF2CF092EF2CF0D890DE
:1059C80033363436353636363C063C50D8A4EFEFFD
:1059D8002CF0F1EF2CF0E3EF2CF03B50D8B4F7EFBC
:1059E8002CF0F9EF2CF001EF2DF0361E351E341E89
:1059F800336C000E34223522362233C033F034C0E3
:105A080034F035C035F036C036F012001A6E000199
:105A1800C5B711EF2DF013EF2DF021EF2DF0020E89
:105A2800196E4D0E186E740EE82EFED7182EFCD780
:105A3800192EFAD700D029EF2DF03F0E186E550E0B
:105A4800E82EFED7182EFCD700F05A0E0E6EA50EC3
:105A58000D6EE3EC41F01550020F25EC41F0810E7C
:105A680025EC41F01A5025EC41F0155025EC41F099
:105A780095988388000E1C6E000E1B6E75EF2DF036
:105A8800060E186E300EE82EFED7182EFCD700D062
:105A98000001C7A152EF2DF054EF2DF073EF2DF058
:105AA800C791000E1D6E68EF2DF0BA0E1D24D96E39
:105AB800DA6A010EDA221D501624E16E000E172054
:105AC800E26EDFCFE7FF1D2A15501D5CD8A06FEFEF
:105AD8002DF071EF2DF059EF2DF080EF2DF01B4ACE
