:020000040000FA
:04000000DEEF01F03E
:100018007780D8CF04F0E8CF05F0E0CF06F0D9CF4D
:1000280007F0DACF08F09EAA1CEF00F01EEF00F0F0
:100038007AEF00F0959C838C010E0101696F900E98
:10004800686F000E706E000E6F6E84697680870E82
:10005800666F010E676F5BEF00F09EAA36EF00F047
:1000680038EF00F058EF00F0839C838C66C1D9FF0D
:1000780067C1DAFFAECFDFFF70BE4EEF00F0705001
:1000880007E1330E6F5CD8B04CEF00F04EEF00F094
:1000980052EF00F06F4A702A664B672B010E696FAA
:1000A800900E686F5BEF00F06807D8A06907685189
:1000B8006911D8A462EF00F064EF00F031EF00F0AE
:1000C800839CABA26AEF00F06CEF00F07AEF00F0CF
:1000D800AB98AB88AECF68F1696BAECF68F1696B4E
:1000E800AECF68F1696B000E876F76829EA07FEFB6
:1000F80000F081EF00F099EF01F09E903C0ECF6E7A
:10010800B40ECE6E010E0001E56FF1B18EEF00F076
:1001180090EF00F092EF00F0000EE56F000E706EA9
:10012800010E6F6EABEF00F0510E6F24D96E010E09
:100138007020DA6EDF50D8A4A4EF00F0A6EF00F02C
:10014800A9EF00F0000E0001E56F6F4A702A7350A6
:10015800016E026A6F50015C0250800A036E705093
:10016800800A0358D8B0BBEF00F0BDEF00F098EF5D
:1001780000F00001E505D8A4C4EF00F0C6EF00F0D8
:10018800E9EF00F004000001F191000E706E010E1D
:100198006F6E70BED9EF00F0705009E10F0E6F5C02
:1001A800D8A0D9EF00F0DBEF00F0DDEF00F0E9EFC9
:1001B80000F0510E6F24D96E010E7020DA6E000E19
:1001C800DF6E6F4A702ACDEF00F0F50E0001C45DB6
:1001D800010EC559D8A0F3EF00F0F5EF00F0F8EFE5
:1001E80000F0819EF9EF00F0818E01017E517F11B0
:1001F800D8B401EF01F003EF01F009EF01F0320E7E
:100208007E5F000E7F5B0EEF01F0E3C07EF1E4C07D
:100218007FF1768C320E7227000E7323320E802700
:10022800000E81237450D8A41CEF01F01EEF01F0DA
:100238002AEF01F00001E0BF24EF01F026EF01F002
:100248002AEF01F0CE0EDF27FF0EE023320E010168
:100258007027000E7123320E0001C427000EC5233B
:10026800E80EC45D030EC559D8A03DEF01F03FEF7D
:1002780001F099EF01F0F2A944EF01F046EF01F027
:1002880067EF01F0F02B3B0EF0654DEF01F04FEFFB
:1002980001F067EF01F0000EF06FEF2B3B0EEF65FA
:1002A80058EF01F05AEF01F067EF01F0000EEF6F21
:1002B800EE2B630EEE6563EF01F065EF01F067EF7B
:1002C80001F0000EEE6F000EC56F000EC46FC62B56
:1002D8007150D8B472EF01F074EF01F075EF01F0CE
:1002E80071063B0EC6657BEF01F07DEF01F099EFDB
:1002F80001F0000EC66FC72BE14BE22B3B0EC76522
:1003080088EF01F08AEF01F099EF01F0000EC76F56
:10031800C82B170EC86593EF01F095EF01F099EF20
:1003280001F0000EC86F99EF01F0F2A29EEF01F004
:10033800A0EF01F0A1EF01F0F292F2A4A6EF01F014
:10034800A8EF01F0D2EF01F00D0EE82EFED700F075
:10035800000ED76EE10ED66EF29401017851791134
:10036800D8B4B9EF01F0BBEF01F0C1EF01F07807A5
:10037800D8A07907818CC2EF01F0819C825183114A
:10038800D8B4C9EF01F0CBEF01F0D1EF01F082074B
:10039800D8A08307818AD2EF01F0819A08C0DAFFDA
:1003A80007C0D9FF06C0E0FF05C0E8FF04C0D8FFBA
:1003B8007790100036EF47F0640E096E000E0A6E53
:1003C800000E0B6E000E0C6E58EC4CF0D388D38ADE
:1003D800D38C9B8CEF0E926E010E936EF00E946E82
:1003E800E30E956E9668D59AD596D582D582D58432
:1003F800F194F28AF290F2989E909F900B0ECF6E35
:10040800BA0ECE6ECD92CD88CD8ACD8CCD869D800C
:10041800CD80F28CF28E000E0101756F000E746FA4
:10042800819E000E796F000E786F819C000E836F9D
:10043800000E826F819A000E166EC20E176E010EA4
:10044800186E000E196E81EC47F0C0EC52F0A00E49
:10045800166E860E176E010E186E000E196E2AECB7
:100468004CF0F40E096E010E0A6E000E0B6E000EB3
:100478000C6E58EC4CF0000E0E6E220E0D6EDDEC7C
:100488004FF00DC0C9F20EC0CAF20201C92906E137
:10049800CA29D8A452EF02F054EF02F068EF02F034
:1004A800000E296E220E286E000E2B6E000E2A6E8C
:1004B8004DEC51F0000E296EE80E286E000E2B6EE2
:1004C800000E2A6E4DEC51F00201C94BCA2B000EEA
:1004D800296E220E286EC9C22AF0CAC22BF04DEC32
:1004E80051F07598000E0E6EFA0E0D6EDDEC4FF0A1
:1004F8000DC0D3F00EC0D4F02C0E096E010E0A6E9A
:10050800000E0B6E000E0C6E58EC4CF0BD0E206EFB
:10051800FC0E216EF6EC3BF02C0E096E010E0A6EF5
:10052800000E0B6E000E0C6E58EC4CF0300E206E68
:10053800FE0E216EF6EC3BF02C0E096E010E0A6ED3
:10054800000E0B6E000E0C6E58EC4CF0EB0E206E8D
:10055800FC0E216EF6EC3BF02C0E096E010E0A6EB5
:10056800000E0B6E000E0C6E58EC4CF0070E1D6E54
:10057800C60E1C6EA50E1E6E030E1F6E72EC52F098
:10058800500E0D6E020E0E6EE80E0F6EFE0E106E01
:10059800CCEC4BF0500E176E020E186EA50E196EAD
:1005A800030E1A6E86EC51F0500E206E020E216E6C
:1005B800F6EC3BF02C0E096E010E0A6E000E0B6E67
:1005C800000E0C6E58EC4CF07FEC26F0500E00013B
:1005D800D319D411D8A4F3EF02F0F5EF02F0F9EF34
:1005E80002F00C0EE66F05EF03F0320ED319D411AA
:1005F800D8A401EF03F003EF03F005EF03F0090EB1
:10060800E66F000E0A6E340E096E02EC4FF0FF0A18
:10061800D8A411EF03F013EF03F082EF03F00B0EF1
:10062800206EFD0E216EF6EC3BF00A0E316E000EC8
:10063800EBEC3CF0DDEC4CF068EC4BF05BEC4AF09A
:10064800000E746E000E0001EC6FB0EC52F0000E5C
:10065800236E100E226E000E246EE9EC48F0000E98
:10066800296E090E286E000E2B6E0A0E2A6E4DECAE
:1006780051F0000E296E0B0E286E400E2A6EE20E07
:100688002B6E010E2C6E000E2D6E23EC4FF0000E1B
:100698008AEC0DF0000E236E110E226E000E246EF1
:1006A800E9EC48F0000E236E120E226E000E246E46
:1006B800E9EC48F0DAEC3DF0000E206E000E216EF9
:1006C800000E226E000E236E000E256E000E246EA4
:1006D800000ED0EC50F0020E206E000E216E000EBF
:1006E800226E000E236E000E246E000E256E000E84
:1006F800266E000E276E000E85EC50F0DEEC40F002
:10070800010E8AEC0DF0000E0E6E0B0E0D6E26EC2F
:100718004EF00DC0CDF00EC0CEF00FC0CFF010C01F
:10072800D0F05FEC48F034EC43F0A0EC50F0020E4F
:10073800246E000E256E000E266E000E276E000E2B
:1007480095EC43F024C0C9F025C0CAF026C0CBF010
:1007580027C0CCF0AD0E206EFE0E216EF6EC3BF0FD
:10076800000E0201CB6F0E0ECB65BDEF03F0BFEF9D
:1007780003F0C1EF03F0CAEF03F004000201CB510C
:10078800B4EC2EF00201CB2BB7EF03F0000ECC6FC8
:10079800070ECC65D2EF03F0D4EF03F0D6EF03F0E9
:1007A800E0EF03F00400CCC223F0246AE6EC38F052
:1007B8000201CC2BCCEF03F0000E0E6E0B0E0D6E6B
:1007C80026EC4EF00DC0CDF00EC0CEF00FC0CFF02D
:1007D80010C0D0F05FEC48F0A5EC1EF034EC43F00C
:1007E800A0EC50F00DEC42F09BEC46F0000E00013E
:1007F800F66F000EF56F000E0101FB6F000EFA6F29
:10080800000E0001ED6F000E0101736F000E726F94
:10081800000E866F000E6F6F000E6E6F000E6D6F0C
:10082800000E6C6F000E0001DE6F000EDD6F000E13
:1008380033EC4DF0000E0001C56F000EC46F000EC2
:10084800C66F000EF06FF2C0E7F0000E716E43EC59
:1008580041F050EC2BF0000E196E0F0E186E37ECAD
:1008680052F0959A839A0001F1817586E90E01018B
:10087800725D030E7359D8A044EF04F046EF04F0FC
:1008880064EF04F0000E736F000E726F71EC39F0B4
:1008980012C0F5F013C0F6F00101FA510001F51984
:1008A8000BE10101FB510001F619D8B45EEF04F029
:1008B80060EF04F064EF04F0F5C0FAF1F6C0FBF164
:1008C80075967586050E0001C6616DEF04F06FEF31
:1008D80004F07CEF04F0190EF519F611D8B477EF8F
:1008E80004F079EF04F07CEF04F0000E33EC4DF0E7
:1008F8000001F2A982EF04F084EF04F086EF04F01F
:1009080033EC3FF00DEC42F09BEC46F075967BEC37
:100918002FF02DEC2CF0A7EC36F082EC23F0AAECAB
:1009280033F0A6EC45F075860001E751F219D8B40A
:10093800A0EF04F0A2EF04F0AEEF04F04DEC4EF09F
:10094800000E236E100E226EF2C024F0E9EC48F07F
:10095800F2C0E7F0FBEC4BF07596A5EC1EF067ECE7
:1009680021F0758601EF0AF0000E0201CE6F090E24
:10097800CE65C1EF04F0C3EF04F0C5EF04F004EF57
:1009880005F0070ECE251C6E1D6A000E1D223AECDE
:1009980051F01C041D10D8A4D4EF04F0D6EF04F0D5
:1009A80000EF05F0070E0201CE251B6E1C6A000E33
:1009B8001C22000E1E6E000E1D6E26EC52F0CEC2DA
:1009C800EAF0050E0001EA61ECEF04F0EEEF04F046
:1009D800F8EF04F0130EE96F000E196E1B0E186E77
:1009E80037EC52F000EF05F0150EE96F000E196EA6
:1009F8001C0E186E37EC52F00201CE2BBBEF04F040
:100A08001CEC20F03CEF0AF0000E1D6E010E1C6E6F
:100A18003AEC51F01C041D10D8A415EF05F017EF9F
:100A280005F03CEF0AF0000E1C6E010E1B6E000E66
:100A38001E6E000E1D6E26EC52F0FAEC3AF03CEFFA
:100A48000AF0ED51D8A42BEF05F02DEF05F032EFA9
:100A580005F0010E33EC4DF00001ED2B000E1D6E7C
:100A6800980E1C6E3AEC51F01C041D10D8A43FEFF0
:100A780005F041EF05F04EEF05F0000E1C6E980EE4
:100A88001B6E000E1E6E000E1D6E26EC52F0010E3F
:100A980033EC4DF0000E1D6EAE0E1C6E3AEC51F0AC
:100AA8001C041D10D8A45BEF05F05DEF05F03CEFCA
:100AB8000AF0000E1C6EAE0E1B6E000E1E6E000EAF
:100AC8001D6E26EC52F0CCEC4AF03CEF0AF0000E1A
:100AD800EB6F070EEB6573EF05F075EF05F077EF39
:100AE80005F0ACEF05F0200EEB251C6E1D6A000E1C
:100AF8001D223AEC51F01C041D10D8A486EF05F015
:100B080088EF05F0A8EF05F0200E0001EB251B6E1D
:100B18001C6A000E1C22000E1E6E000E1D6E26ECB6
:100B280052F0E9C018F0196A37EC52F0D90E176E76
:100B3800010E186E0001EB510BEC40F0010E236E14
:100B48000001EA51A0EC3FF00001EB2B6DEF05F03E
:100B5800000E1D6E110E1C6E3AEC51F01C041D1097
:100B6800D8A4B9EF05F0BBEF05F0CAEF05F0000E09
:100B78001C6E110E1B6E000E1E6E000E1D6E26ECF6
:100B880052F0E9C018F0196A37EC52F0000E1D6EE9
:100B9800120E1C6E3AEC51F01C041D10D8A4D7EFAD
:100BA80005F0D9EF05F03CEF0AF0000E1C6E120EAE
:100BB8001B6E000E1E6E000E1D6E26EC52F0000E0F
:100BC8000101DF6FE00E0D6E010E0E6E660E0F6EE8
:100BD800FD0E106ECCEC4BF0000E0101DE6F000E26
:100BE800DD6F000EDC6F000EDB6F000EDA6F000E9B
:100BF800D96F000E236E0001EA51A0EC3FF0E9C066
:100C080018F0196A37EC52F03CEF0AF0000E0201B6
:100C1800CD6F4DEF06F0CD511E0DF3CFC0F0F4CFE0
:100C2800C1F0170E0001C0251C6E100EC1211D6EEB
:100C38003AEC51F01C041D10D8A425EF06F027EF5C
:100C480006F04BEF06F00201CD511E0DF3CFC0F0B8
:100C5800F4CFC1F0170E0001C0251B6E100EC12184
:100C68001C6E000E1E6E000E1D6E26EC52F0020168
:100C7800CD5178EC27F0000E196E230E186E37EC64
:100C880052F046EC52F0F6EC12F058EF06F0020182
:100C9800CD2B0001E6510201CD5DD8A056EF06F03C
:100CA80058EF06F00FEF06F0000E1D6E300E1C6EAA
:100CB8003AEC51F01C041D10D8A465EF06F067EF5C
:100CC80006F073EF06F0000E1C6E300E1B6E000E61
:100CD8001E6E000E1D6E26EC52F0DAEC3DF043EC71
:100CE80041F0000E1D6EAF0E1C6E3AEC51F01C0464
:100CF8001D10D8A482EF06F084EF06F03CEF0AF04E
:100D0800000E1C6EAF0E1B6E000E1E6E000E1D6ECA
:100D180026EC52F086EC4DF03CEF0AF0100ECD199F
:100D2800C06F2F0ECE19C16FBA0ECF19C26FE40E65
:100D3800D019C36FC01D0201C36F0001C11D02019C
:100D4800C46F0001C21D0201C56F0001C31D02016D
:100D5800C66FC3C216F0C4C217F0C5C218F0C6C227
:100D680019F0500E1A6E020E1B6E000E1D6E100E3C
:100D78001C6E81EC35F0060E1B6E7C0E1A6E500E42
:100D88001C6E020E1D6E73EC51F0F40E096E010E0E
:100D98000A6E000E0B6E000E0C6E6CEC49F0010E24
:100DA8001D6E820E1C6E3AEC51F01C041D10D8A466
:100DB800E0EF06F0E2EF06F03CEF0AF0010E1C6EE1
:100DC800820E1B6E000E1E6E000E1D6E26EC52F07B
:100DD800EEEC1CF03CEF0AF07586030EF46F100E73
:100DE800F36FF4BF01EF07F01D0EF35D030EF45926
:100DF800D8A001EF07F003EF07F005EF07F0C5EF04
:100E080009F0F351F00FE86FF3C01CF0F4C01DF0C7
:100E18003AEC51F00E0E1C181D10D8A416EF07F06E
:100E280018EF07F0CAEF08F00001EC51D8B41FEF33
:100E380007F021EF07F0BAEF08F0320ED319D411FA
:100E4800D8A429EF07F02BEF07F02EEF07F0E8C042
:100E5800D1F0D26B500ED319D411D8A436EF07F0C5
:100E680038EF07F03FEF07F0A9EC49F00001C06F39
:100E7800C051D16FD26BD2BF4DEF07F0D25107E10D
:100E8800080ED15DD8B04BEF07F04DEF07F07EEFBD
:100E980008F0100EE8251B6E1C6A030E1C22010EBA
:100EA800E8251D6E1E6A000E1E2226EC52F0D1C0E7
:100EB80015F0D2C016F0000E186E0A0E176E99ECD7
:100EC80051F0FD0E15241B6E060E16201C6E010E29
:100ED800D1C0C0F0D2C0C1F0C0C0C1F00001C06B29
:100EE800C0111D6EC1511E6E26EC52F0D1C015F016
:100EF800D2C016F0000E186E0A0E176E99EC51F05B
:100F0800FB0E15241B6E060E16201C6E0001E85100
:100F1800020D370EF324D96E010EF420DA6EDECFFF
:100F28001DF0DDCF1EF026EC52F05A0E0001D1253F
:100F3800D96E030ED221DA6ED1C0DFFF690ED1253A
:100F4800D96E030ED221DA6EE829DF6E780EE82515
:100F5800D96EDA6A030EDA22E829DF6EE851020D4B
:100F6800370EF324D96E010EF420DA6ED890D135FD
:100F7800E16ED235E26E870EE126030EE222DECF65
:100F8800E6FFDDCFE5FF000EC06F030EC16F1E0E3A
:100F9800C027000EC123D890D135D96ED235DA6E6C
:100FA800D890D936DA36C051D926C151DA22000E86
:100FB800DE6E000EDE6E800EDE6E3F0EDD6E020E01
:100FC800E865E9EF07F0EBEF07F0F4EF07F0010E43
:100FD800E8250201C76FC86B000EC823F8EF07F0B9
:100FE800E8C0C7F20201C86BC7C2C0F0C8C2C1F0EE
:100FF800D8900001C037C137BB0EC26F010EC36F56
:10100800C051C227C151C323D890D135D96ED2352A
:10101800DA6E000ED926030EDA22C2C0DEFFC3C084
:10102800DDFF000EC06F030EC16F1E0EC027000E3D
:10103800C123D890D135D96ED235DA6ED890D93649
:10104800DA36C051D926C151DA22000EDE6E000E02
:10105800DE6E800EDE6E3F0EDD6EE851D8A437EFEF
:1010680008F039EF08F055EF08F0000EC06F030ED6
:10107800C16F1E0EC027000EC123D890D135D96E7E
:10108800D235DA6ED890D936DA36C051D926C15160
:10109800DA22550EDE6EC10EDE6EE80EDE6E3E0EF4
:1010A800DD6EE805D8A45BEF08F05DEF08F079EF96
:1010B80008F0000EC06F030EC16F1E0EC027000E91
:1010C800C123D890D135D96ED235DA6ED890D936B9
:1010D800DA36C051D926C151DA22CD0EDE6ECC0ED9
:1010E800DE6E4C0EDE6E3D0EDD6E020E8AEC0DF0ED
:1010F800C0EF09F0D1C015F0D2C016F0000E186E7E
:101108000A0E176E99EC51F0FD0E15241B6E060E93
:1011180016201C6E0001D151C16FC06B000EC011AA
:101128001D6E0A0EC1111E6E26EC52F0D1C015F0CC
:10113800D2C016F0000E186E0A0E176E99EC51F018
:10114800FB0E15241B6E060E16201C6EFF0E1E6E5F
:101158001D6826EC52F0F3C01BF0F4C01CF0FF0E23
:101168001E6E1D6826EC52F0C0EF09F015EC52F027
:10117800F3C01BF0F4C01CF0FF0E1E6E1D6826ECB9
:1011880052F0520ED5EC52F0C0EF09F0F3C01CF04B
:10119800F4C01DF03AEC51F01D5009E10F0E1C5C33
:1011A800D8A0D9EF08F0DBEF08F0C0EF09F0F3C0E2
:1011B8001CF0F4C01DF03AEC51F01D5007E11F0E71
:1011C8001C5CD8B0EAEF08F0ECEF08F0C0EF09F0CB
:1011D8000001EC51D8B4F3EF08F0F5EF08F083EF15
:1011E80009F0690E096E030E0A6EE8290B6EA1EC70
:1011F8004FF00201CF6F690E0001E825D96EDA6A57
:10120800030EDA22DF50C06FC0050201C26FF3C0BF
:101218001BF0F4C01CF0FF0E1E6E1D6826EC52F089
:101228000201CF510A0DF3CFC0F0F4CFC1F0FD0E8B
:101238000001C0251B6E060EC1211C6E0A0E1E6E13
:10124800000E1D6E26EC52F00201CF510A0DF3CFAD
:10125800C0F0F4CFC1F0FB0E0001C0251B6E060ED6
:10126800C1211C6EFF0E1E6E1D6826EC52F0020195
:10127800CF51020D000EF324D96E030EF420DA6E5E
:10128800000EDE6E000EDD6E5A0ECF25D96EDA6ABC
:10129800030EDA220A0EDF6E690ECF25D96EDA6ADE
:1012A800030EDA22FF0EDF6E780E0001E825D96EF4
:1012B800DA6A030EDA22FF0EDF6E0201CF51020D49
:1012C800870EF324D96E030EF420DA6EFF0EDE6E5D
:1012D800FF0EDD6ECF51040D1E0EF324D96E030EE2
:1012E800F420DA6E000EDE6E000EDE6E000EDE6E8C
:1012F800000EDD6E020E8AEC0DF0C0EF09F015EC61
:1013080052F0520ED5EC52F0320E0001D319D4111E
:10131800D8A491EF09F093EF09F0A4EF09F0F3C016
:101328001BF0F4C01CF0690EE825D96EDA6A030ECA
:10133800DA22DF50C06FC0511D6E1E6A26EC52F0D3
:10134800500E0001D319D411D8A4ADEF09F0AFEFB6
:1013580009F0C0EF09F0F3C01BF0F4C01CF0780EE0
:10136800E825D96EDA6A030EDA22DF50C06FC05161
:101378001D6E1E6A26EC52F00001F34BF42BF5EFBC
:1013880006F075963CEF0AF0E2EC51F0000E000111
:10139800EB6F070EEB65D3EF09F0D5EF09F0D7EF48
:1013A80009F03CEF0AF0200EEB251C6E1D6A000EBA
:1013B8001D223AEC51F01C041D10D8A4E6EF09F0E8
:1013C800E8EF09F0F9EF09F0200E0001EB251B6E9C
:1013D8001C6A000E1C22000E1E6E000E1D6E26ECEE
:1013E80052F04BEC46F03CEF0AF00001EB2BCDEF4E
:1013F80009F061EC17F03CEF0AF0F5C0C0F0F6C058
:10140800C1F00001C151000AD8B40DEF0AF03CEF59
:101418000AF0C051130AD8B4B8EF04F0060AD8B4D9
:10142800B8EF04F0020AD8B408EF05F00E0AD8B4F1
:1014380025EF05F0020AD8B46BEF05F0070AD8B417
:101448006BEF05F0010AD8B40AEF06F0020AD8B427
:1014580092EF06F03C0AD8B4F0EF06F00C0AD8B4C4
:10146800C8EF09F01E0AD8B4FDEF09F03CEF0AF006
:1014780070EC42F037EF04F0DEEF01F006C2ACF09A
:1014880007C2BAF008C2B9F009C2B8F00AC2B7F088
:1014980003EF0DF00651456E0751226E45C023F04B
:1014A80008C224F0E9EC48F0030EB9EC50F0C7ECA0
:1014B80052F0DAEC52F089EF0DF00651456E075103
:1014C800096E45C00AF002EC4FF00001AD6F010E45
:1014D800B9EC50F00001AD51ACEC51F089EF0DF0D2
:1014E800075106C245F0466A45C046F0456A4510B0
:1014F8000001AA6F4650AB6F0201095108C245F0BE
:10150800466A45C046F0456A45100001A86F465036
:10151800A96FAAC028F0ABC029F0A8C02AF0A9C0BA
:101528002BF04DEC51F0030EB9EC50F05BEF0AF0E4
:101538000651456E07510D6E45C00EF0DDEC4FF0BB
:101548000DC0B0F00EC0B1F0020EB9EC50F0B0C052
:101558000AF0B1C00BF0CEEC52F089EF0DF0065155
:10156800456E0751286E45C029F0080E2A6E020EF6
:101578002B6E74EC4EF0030EB9EC50F0C7EC52F041
:1015880089EF0DF00651456E07510D6E45C00EF0FE
:10159800500E0F6E020E106E43EC4FF04A0EB9EC6F
:1015A80050F0500E0A6E020E0B6E17EC48F089EFE1
:1015B8000DF0B7C020F0B8C021F0B9C022F0BAC011
:1015C80023F00BC224F0065160EC51F0030EB9EC85
:1015D80050F0C2EF0AF0B7C024F0B8C025F0B9C087
:1015E80026F0BAC027F0065126EC51F00001AD6F85
:1015F800010EB9EC50F00001AD51ACEC51F089EF9F
:101608000DF0B7C020F0B8C021F0B9C022F0BAC0C0
:1016180023F00C510BC245F0466A45C046F0456AB6
:101628004510246E4650256E0651D0EC50F0030E3E
:10163800B9EC50F0C2EF0AF0B7C024F0B8C025F0FA
:10164800B9C026F0BAC027F0065132EC50F024C0D9
:10165800B0F025C0B1F0020EB9EC50F0ABEF0AF0D3
:10166800B7C024F0B8C025F0B9C026F0BAC027F03A
:10167800065195EC43F024C0B2F025C0B3F026C063
:10168800B4F027C0B5F0040EB9EC50F00001B55124
:10169800ACEC51F00001B451ACEC51F00001B35185
:1016A800ACEC51F00001B251ACEC51F089EF0DF007
:1016B8000BC2AEF0B7C010F0B8C011F0B9C012F04C
:1016C800BAC013F0AEC014F0A50E156E030E166E58
:1016D8000001AC5182EC24F00001AE51B9EC50F09D
:1016E800A50E0A6E030E0B6EAEC00CF016EC50F091
:1016F80089EF0DF0B7C00DF0B8C00EF0B9C00FF00B
:10170800BAC010F00BC211F00C0E126E020E136E5E
:10171800065182EC25F0030EB9EC50F0C2EF0AF046
:10172800B7C00DF0B8C00EF0B9C00FF0BAC010F0D5
:101738000B0E116E020E126E065142EC30F0030EC3
:10174800B9EC50F0C2EF0AF0B7C010F0B8C011F011
:10175800B9C012F0BAC013F0500E146E020E156E16
:1017680006517AEC22F0500E096E020E0A6EFEEC5B
:101778004DF00950B9EC50F0D5EF0AF00751456E1D
:101788000851296E45C02AF0065185EC4CF0030E2D
:10179800B9EC50F0C2EF0AF0020EB9EC50F00001BB
:1017A800EE51ACEC51F00001EF51ACEC51F089EF87
:1017B8000DF0800E1B6E000E1C6E8A0E1D6E000E44
:1017C8001E6E62EC2AF0090EB9EC50F002010651C7
:1017D800D8A4F1EF0BF0F3EF0BF0FBEF0BF0800E5A
:1017E8000A6E000E0B6E17EC48F089EF0DF08A0EAA
:1017F8000A6E000E0B6E17EC48F089EF0DF0000E24
:101808000001B66F070EB6650CEF0CF00EEF0CF08A
:1018180010EF0CF021EF0CF0060EB625D96EDA6A3F
:10182800020EDA22940EB625E16EE26A000EE2227A
:10183800DFCFE7FFB62B06EF0CF0000E9C6F000E13
:10184800B66F070EB6652BEF0CF02DEF0CF02FEFEF
:101858000CF040EF0CF00E0EB625D96EDA6A020EC7
:10186800DA229E0EB625E16EE26A000EE222DFCF92
:10187800E7FFB62B25EF0CF0000EA66F940E0D6E49
:10188800000E0E6E9E0E0F6E000E106E02EC31F002
:1018980089EF0DF00651456E07511A6E45C01BF0D1
:1018A8000951486E476A0851496E4A6A47504910BB
:1018B8001C6E48504A101D6ED1EC51F0030EB9EC65
:1018C80050F0C2EF0AF0838A0651466E456A075106
:1018D80045241C6E000E46201D6EE7EC50F01CC01F
:1018E800B0F01DC0B1F0839A838A500E096E020EC3
:1018F8000A6EFEEC4DF00950B9EC50F0B0C00AF099
:10190800B1C00BF0CEEC52F0839A89EF0DF006517E
:10191800456E0751186E45C019F06AEC50F0030E79
:10192800B9EC50F0C2EF0AF00651456E0751186E37
:1019380045C019F037EC52F0030EB9EC50F0C2EF85
:101948000AF00651D5EC52F0030EB9EC50F0C2EF94
:101958000AF00651040FB4EC2EF0030EB9EC50F067
:10196800C2EF0AF00A0E316E000EEBEC3CF0000EEE
:101978000001AF6F0E0EAF65C4EF0CF0C6EF0CF0B0
:10198800C8EF0CF0CFEF0CF0AF51B4EC2EF0000123
:10199800AF2BBEEF0CF0030EB9EC50F0C2EF0AF01B
:1019A8006AEC29F0030EB9EC50F0C2EF0AF00651C8
:1019B800456E07511A6E45C01BF0080E1C6E020ECC
:1019C8001D6E73EC51F0030EB9EC50F0C2EF0AF043
:1019D8000651456E07511C6E45C01DF0500E1E6E17
:1019E800020E1F6E72EC52F0500E096E020E0A6E55
:1019F800FEEC4DF00950B9EC50F0D5EF0AF00201B9
:101A08000451456E466A4650000AD8B40EEF0DF0F0
:101A180089EF0DF04550080AD8B44EEF0AF0010AD4
:101A2800D8B461EF0AF0030AD8B474EF0AF0010AD7
:101A3800D8B49CEF0AF0070AD8B4B3EF0AF0010A49
:101A4800D8B4C6EF0AF01C0AD8B4DDEF0AF0030ACE
:101A5800D8B4EFEF0AF0010AD8B405EF0BF0070A83
:101A6800D8B420EF0BF0010AD8B494EF0BF0030AB6
:101A7800D8B4A8EF0BF0010AD8B47EEF0BF00F0A28
:101A8800D8B45CEF0BF0010AD8B4C2EF0BF0390AF6
:101A9800D8B44EEF0CF0010AD8B467EF0CF0030A83
:101AA800D8B4DBEF0CF0010AD8B4ECEF0CF0070A5D
:101AB800D8B48BEF0CF0010AD8B498EF0CF0030AF5
:101AC800D8B4A5EF0CF00B0AD8B4D0EF0BF0030A8A
:101AD800D8B4DDEF0BF0010AD8B403EF0CF06D0AAF
:101AE800D8B4ADEF0CF0010AD8B4B6EF0CF0070A81
:101AF800D8B4D4EF0CF0010AD8B434EF0BF0030AD1
:101B0800D8B489EF0DF089EF0DF01200346E4BEC6C
:101B180034F07CEF10F0000E3C6E3C50020D870E46
:101B2800F324D96E030EF420DA6EFF0EDE6EFF0E7C
:101B3800DD6E5A0E3C24D96EDA6A030EDA220A0EDA
:101B4800DF6E690E3C24D96EDA6A030EDA22FF0EC4
:101B5800DF6E780E3C24D96EDA6A030EDA22FF0EA5
:101B6800DF6E3C50020D000EF324D96E030EF420F4
:101B7800DA6E000EDE6E000EDD6E3C50040D1E0E99
:101B8800F324D96E030EF420DA6E000EDE6E000E1A
:101B9800DE6E000EDE6E000EDD6E130E3C24226E2D
:101BA800236A000E2322780E3C24D96EDA6A030ECB
:101BB800DA22DF50246EE9EC48F0EA0E3C24226E6B
:101BC800236A000E2322690E3C24D96EDA6A030EBA
:101BD800DA22DF50246EE9EC48F0240E3C24226E11
:101BE800236A000E23225A0E3C24D96EDA6A030EA9
:101BF800DA22DF50246EE9EC48F0100E3C241B6E0C
:101C08001C6A030E1C22FF0E1E6E1D6826EC52F085
:101C18003C500A0DF3CF2EF0F4CF2FF0FD0E2E24FA
:101C28001B6E060E2F201C6E0A0E1E6E000E1D6EF9
:101C380026EC52F03C500A0DF3CF2EF0F4CF2FF0E3
:101C4800FB0E2E241B6E060E2F201C6EFF0E1E6E22
:101C58001D6826EC52F03C2A0C0E3C6436EF0EF060
:101C680038EF0EF091EF0DF095EF10F0000E0E6EBC
:101C7800130E0D6E780E0F6E030E106E0F0E116E92
:101C8800BFEC4FF0000E0E6EEA0E0D6E690E0F6E71
:101C9800030E106E0F0E116EBFEC4FF0000E0E6E9D
:101CA800240E0D6E5A0E0F6E030E106E0F0E116E6F
:101CB800BFEC4FF0000E3C6E780E3C24D96EDA6A09
:101CC800030EDA22DF50376E3728D8B46EEF0EF0E5
:101CD80070EF0EF07DEF0EF0100E3C241B6E1C6AA8
:101CE800030E1C2237C01DF01E6A26EC52F088EF46
:101CF8000EF0100E3C241B6E1C6A030E1C22FF0EF5
:101D08001E6E1D6826EC52F03C2A0C0E3C648FEFC8
:101D18000EF091EF0EF060EF0EF0000E3C6E5A0ED2
:101D28003C24D96EDA6A030EDA22080EDF609FEFD0
:101D38000EF0A1EF0EF0B9EF0EF0690E3C24D96E4B
:101D4800DA6A030EDA22DF502E6E2F6AD8902E360A
:101D58002F36350E2E24D96E010E2F20DA6EDECFE7
:101D680039F0DDCF3AF0BBEF0EF039683A683C50F5
:101D78000A0DF3CF2EF0F4CF2FF0FB0E2E241B6E9E
:101D8800060E2F201C6E39C01DF03AC01EF026EC3E
:101D980052F03C50020D870EF324D96E030EF42046
:101DA800DA6E39C0DEFF3AC0DDFF3C2A0C0E3C6417
:101DB800E0EF0EF0E2EF0EF093EF0EF0000E3C6E47
:101DC8005A0E3C24D96EDA6A030EDA22DF50386ED6
:101DD800080E3860F2EF0EF0F4EF0EF00FEF0FF090
:101DE8003C500A0DF3CF2EF0F4CF2FF0FD0E2E2429
:101DF8001B6E060E2F201C6E010E38C030F0316AA3
:101E080030C031F0306A30101D6E31501E6E26EC35
:101E180052F021EF0FF03C500A0DF3CF2EF0F4CF23
:101E28002FF0FD0E2E241B6E060E2F201C6E0A0EA0
:101E38001E6E000E1D6E26EC52F03C2A0C0E3C6401
:101E480028EF0FF02AEF0FF0E4EF0EF0000E3B6ED4
:101E58005A0E3B24D96EDA6A030EDA220A0EDE180D
:101E6800D8B439EF0FF03BEF0FF017EF10F0FF0E7B
:101E78002E6EFF0E2F6E5A0E3B24D96EDA6A030EB1
:101E8800DA22DF50306E316A690E3024D96E030EC3
:101E98003120DA6EDF50326E336A2E5032262F50E0
:101EA800332233BE61EF0FF0335009E1030E325C89
:101EB800D8A061EF0FF063EF0FF079EF0FF05A0E33
:101EC8003B24D96EDA6A030EDA22DF502E6E2F6AAF
:101ED800690E2E24D96E030E2F20DA6EDF50306E75
:101EE8003050356E366A90EF0FF05A0E3B24D96E9B
:101EF800DA6A030EDA22DF502E6E2F6A690E2E245C
:101F0800D96E030E2F20DA6EDF50306EFF0E3024AC
:101F1800356E366AFF0E362235C02EF036C02FF0E9
:101F2800D8902E362F36BB0E306E010E316E2E50E5
:101F380030262F5031225A0E3B24D96EDA6A030E0E
:101F4800DA22DF50326E3250020D000EF324D96EC1
:101F5800030EF420DA6E30C0DEFF31C0DDFF5A0E0A
:101F68003B24D96EDA6A030EDA22DF502E6E2E5029
:101F7800040D1E0EF324D96E030EF420DA6E000E43
:101F8800DE6E000EDE6E800EDE6E3F0EDD6E5A0EC9
:101F98003B24D96EDA6A030EDA22DF50D8A4D7EFD1
:101FA8000FF0D9EF0FF0F1EF0FF05A0E3B24D96E76
:101FB800DA6A030EDA22DF502E6E2E50040D1E0E42
:101FC800F324D96E030EF420DA6E550EDE6EC10EC0
:101FD800DE6EE80EDE6E3E0EDD6E5A0E3B24D96EC6
:101FE800DA6A030EDA22DE04D8A4FDEF0FF0FFEF61
:101FF8000FF017EF10F05A0E3B24D96EDA6A030E71
:10200800DA22DF502E6E2E50040D1E0EF324D96EE8
:10201800030EF420DA6ECD0EDE6ECC0EDE6E4C0EA4
:10202800DE6E3D0EDD6E3B2A070E3B641EEF10F0A0
:1020380020EF10F02CEF0FF095EF10F0000E3C6E33
:10204800100E3C241C6E1D6A030E1D223AEC51F042
:10205800780E3C24D96EDA6A030EDA221CC0DFFF40
:102068003C500A0DF3CF2EF0F4CF2FF0FD0E2E24A6
:102078001C6E060E2F201D6E3AEC51F01DC01CF090
:102088001D6A5A0E3C24D96EDA6A030EDA221CC085
:10209800DFFF3C2A0D0E3C6454EF10F056EF10F0B1
:1020A80024EF10F0000E296E130E286E780E2A6E9B
:1020B800030E2B6E0F0E2C6E63EC4FF0000E296E84
:1020C800EA0E286E690E2A6E030E2B6E0F0E2C6E0A
:1020D80063EC4FF0000E296E240E286E5A0E2A6EFD
:1020E800030E2B6E0F0E2C6E63EC4FF095EF10F075
:1020F80034502E6E2F6A2F50000AD8B486EF10F095
:1021080095EF10F02E50000AD8B48FEF0DF0010AA9
:10211800D8B43AEF0EF0030AD8B422EF10F095EFD6
:1021280010F012003350800B3C6E335033243E6E57
:1021380032AEA1EF10F0A3EF10F0A4EF10F03E8044
:102148003E50D8B4AAEF10F0ACEF10F0C1EF10F089
:102158003E28D8A4B2EF10F0B4EF10F0BCEF10F0A6
:10216800000E306E000E316E000E326E000E336EB1
:10217800328E000E336EC9EF10F0000E306E000E76
:10218800316E000E326E000E336E3750800B3D6E8E
:102198003C503D18D8B4D3EF10F0D5EF10F0D6EF7F
:1021A80010F03C8C375037243D6E36AEDEEF10F021
:1021B800E0EF10F0E1EF10F03D803D50D8B4E7EFCC
:1021C80010F0E9EF10F0FEEF10F03D28D8A4EFEF83
:1021D80010F0F1EF10F0F9EF10F0000E346E000E71
:1021E800356E000E366E000E376E368E000E376E68
:1021F80006EF11F0000E346E000E356E000E366ECE
:10220800000E376E3E503D5CD8B00DEF11F00FEF69
:1022180011F036EF11F03CAC14EF11F016EF11F09D
:1022280018EF11F0800E3C1A3EC03FF03DC03EF062
:102238003FC03DF030C03FF034C030F03FC034F014
:1022480031C03FF035C031F03FC035F032C03FF00B
:1022580036C032F03FC036F033C03FF037C033F0FD
:102268003FC037F0000E3F6E3E503DC038F0396A2F
:10227800385E000E395A39BE4BEF11F0395009E17A
:102288001A0E385CD8A04BEF11F04DEF11F084EF27
:1022980011F03050311032103310D8A456EF11F02D
:1022A80059EF11F0010E5AEF11F0000E3F6E000EBB
:1022B800306E000E316E000E326E000E336E3DC071
:1022C8003EF08DEF11F03FA06CEF11F06EEF11F0C2
:1022D80074EF11F0D8903F3001093F6E76EF11F09E
:1022E800D8903F3230A07BEF11F07DEF11F07EEFF8
:1022F80011F03F8E333433323232313230323E2AAB
:102308003D503E5CD8A08BEF11F08DEF11F067EFD8
:1023180011F03CBC92EF11F094EF11F0D4EF11F0F2
:102328003E50D8A49AEF11F09CEF11F0A6EF11F0EF
:10233800000E306E000E316E000E326E000E336EDF
:10234800F5EF12F034503026355031223650322213
:102358003750332233A0B3EF11F0B5EF11F061EF2E
:1023680012F03FA0BAEF11F0BCEF11F0C2EF11F07C
:10237800D8903F3001093F6EC4EF11F0D8903F323A
:1023880030A0C9EF11F0CBEF11F0CCEF11F03F8E78
:10239800333433323232313230323E2A61EF12F086
:1023A8003450305C35503158365032583350800AEA
:1023B800386E3750800A3858D8B0E5EF11F0E7EF9B
:1023C80011F012EF12F03050345C386E315035583D
:1023D800396E325036583A6E335037583B6EFF0ECE
:1023E8003824306EFF0E3920316EFF0E3A20326EDF
:1023F800FF0E3B20336E800E3C1A3F6C3F50D8A432
:1024080008EF12F00AEF12F01AEF12F0010E302660
:10241800000E3122322233221AEF12F03450305E8D
:102428003550315A3650325A3750335A30503110AD
:1024380032103310D8A423EF12F025EF12F05AEF20
:1024480012F03F50D8A42BEF12F02DEF12F05AEFF4
:1024580012F0000E306E000E316E000E326E000E5D
:10246800336EF5EF12F0D8903036313632363336D7
:102478003FAE41EF12F043EF12F044EF12F030801C
:102488003FA049EF12F04BEF12F04FEF12F0D88057
:102498003F3651EF12F0D8903F363E50D8B457EF40
:1024A80012F059EF12F05AEF12F03E0632AE5FEF1B
:1024B80012F061EF12F037EF12F0000E3D6E3FAEF2
:1024C80068EF12F06AEF12F082EF12F03FC038F0B6
:1024D8007F0E3816D8B473EF12F075EF12F079EF5B
:1024E80012F0010E3D6E82EF12F030A07EEF12F076
:1024F80080EF12F082EF12F075EF12F03D50D8B471
:1025080088EF12F08AEF12F0B5EF12F0010E3026C4
:10251800000E31223222332233A095EF12F097EFCA
:1025280012F0B5EF12F030C038F031C039F032C0D7
:102538003AF033C03BF03B343B323A32393238322E
:1025480038C030F039C031F03AC032F03BC033F017
:102558003E28D8B4B2EF12F0B4EF12F0B5EF12F093
:102568003E2A3E28D8B4BBEF12F0BDEF12F0C5EFFB
:1025780012F03E50D8A4C3EF12F0C5EF12F0D7EF17
:1025880012F0000E306E000E316E000E326E000E2C
:10259800336E3E50D8A4D3EF12F0D5EF12F0D7EF38
:1025A80012F0000E3C6E3EA0DCEF12F0DEEF12F0EF
:1025B800E1EF12F0328EE2EF12F0329ED8903E3008
:1025C800336E3CAEEAEF12F0ECEF12F0EDEF12F0E2
:1025D800338E30C030F031C031F032C032F033C009
:1025E80033F01200500E0001D319D411D8A4FFEF14
:1025F80012F001EF13F00BEF13F0000EAB6F800E2B
:10260800AC6F0D0EAD6F440EAE6F1DEF13F0320EB2
:10261800D319D411D8A413EF13F015EF13F01DEF4D
:1026280013F0000EAB6F800EAC6FA00EAD6F430EB3
:10263800AE6F000E196E230E186E37EC52F04DEC8B
:102648004EF02CC1BBF02DC1BCF02EC1BDF02FC186
:10265800BEF0000E0001B66F000EB76F000EB86F27
:10266800000EB96F030E0001836F080E826F770E9C
:10267800E82EFED7822FFCD7832FFAD7000E000151
:10268800BA6F86EF13F0030EBA19D8A44EEF13F001
:1026980050EF13F052EF13F084EF13F0BAC009F0C3
:1026A8000A6A000E0C6E020E0B6ED2EC42F009287C
:1026B8000001AF6FBA51010BB06FB0C0B1F0BEC02E
:1026C800B2F0BDC0B3F0BCC0B4F0BBC0B5F0140EDE
:1026D8000C6E050E0D6EB10E0E6E000E0F6EAF5124
:1026E80014EC36F00001BA51020D860EF324D96EAF
:1026F800000EF420DA6E0CC0DEFF0DC0DDFF040012
:102708000001BA2B7350020DBA51826F836BF350DC
:10271800825D8351800A846FF450800A8459D8A05E
:1027280098EF13F09AEF13F047EF13F0030E000140
:10273800836F080E826F770EE82EFED7822FFCD7A4
:10274800832FFAD7000E0001BF6F70EF14F0550EFB
:102758001B6EC10E1C6EE80E1D6E3E0E1E6EBF5126
:10276800020D860EF324D96E000EF420DA6EDECF49
:1027780009F0DDCF0AF0000E0ABEFF0E0B6E0C6EDC
:10278800010E08EC2DF009C017F00AC018F00BC0B4
:1027980019F00CC01AF04CEC15F017C062F018C014
:1027A80063F019C064F01AC065F0F5EC39F062C046
:1027B8006CF063C06DF00001BF29E6EC49F06EEFE4
:1027C80014F0CD0E1B6ECC0E1C6E4C0E1D6E3D0E05
:1027D8001E6EBF51020D860EF324D96E000EF42032
:1027E800DA6EDECF09F0DDCF0AF0000E0ABEFF0E6A
:1027F8000B6E0C6E010E08EC2DF009C017F00AC024
:1028080018F00BC019F00CC01AF04CEC15F017C0FA
:1028180062F018C063F019C064F01AC065F0F5ECF6
:1028280039F062C06CF063C06DF00001BF29E6ECBE
:1028380049F06EEF14F0000E1B6E000E1C6E800E39
:102848001D6E3F0E1E6EBF51020D860EF324D96E0B
:10285800000EF420DA6EDECF09F0DDCF0AF0000EAC
:102868000ABEFF0E0B6E0C6E010E08EC2DF009C0AF
:1028780017F00AC018F00BC019F00CC01AF04CEC95
:1028880015F017C062F018C063F019C064F01AC0E0
:1028980065F0F5EC39F062C06CF063C06DF00001D2
:1028A800BF29E6EC49F06EEF14F0BF51826F836BDD
:1028B8008351000AD8B463EF14F01FEF14F082516B
:1028C800000AD8B4ABEF13F0010AD8B4E5EF13F05F
:1028D8001FEF14F00001BF2B7350020DBF51826F20
:1028E800836BF350825D8351800A846FF450800AB1
:1028F8008459D8A082EF14F084EF14F059EF14F043
:10290800000E1B6E000E1C6E000E1D6E400E1E6E1D
:1029180001012C51305D096E2D5131590A6E2E512D
:1029280032590B6E2F5133590C6E000E08EC2DF0F6
:1029380009C017F00AC018F00BC019F00CC01AF043
:1029480021EC1BF017C0A7F018C0A8F019C0A9F017
:102958001AC0AAF0B6C030F0B7C031F0B8C032F033
:10296800B9C033F0ABC01BF0ACC01CF0ADC01DF05B
:10297800AEC01EF0A7C017F0A8C018F0A9C019F083
:10298800AAC01AF021EC1BF017C034F018C035F0BB
:1029980019C036F01AC037F096EC10F030C0B6F017
:1029A80031C0B7F032C0B8F033C0B9F0B6C048F0A3
:1029B800B7C049F0B8C04AF0B9C04BF04AEC19F0BA
:1029C80048C062F049C063F04AC064F04BC065F08B
:1029D800F5EC39F062C0A3F063C0A4F064C0A5F0C0
:1029E80065C0A6F0D8900001A335826FA435836F27
:1029F800A535846FA635856F01012C51000182250C
:102A0800BB6F01012D5100018321BC6F01012E51C3
:102A180000018421BD6F01012F5100018521BE6F86
:102A2800959C838C71EC39F0230E12181310D8B4CE
:102A380020EF15F022EF15F033EF15F0839C959EEB
:102A4800838E060E0001826F300EE82EFED7822F8D
:102A5800FCD700F0839E46EC52F04BEF15F0839CB8
:102A6800010130510001BB5D010131510001BC5928
:102A7800010132510001BD59010133510001BE5914
:102A8800D8A049EF15F04BEF15F036EF13F0120010
:102A98001A50800B236E1A501A24296E19AE57EF5C
:102AA80015F059EF15F05AEF15F029802950D8B4D0
:102AB80060EF15F062EF15F075EF15F02928D8A42E
:102AC80068EF15F06AEF15F072EF15F0000E176E4B
:102AD800000E186E000E196E000E1A6E198E7DEF1C
:102AE80015F0000E176E000E186E000E196E000E0F
:102AF8001A6E1E50800B231A1E501E24246E1DAE03
:102B080088EF15F08AEF15F08BEF15F0248024502C
:102B1800D8B491EF15F093EF15F0A6EF15F024282F
:102B2800D8A499EF15F09BEF15F0A3EF15F0000E60
:102B38001B6E000E1C6E000E1D6E000E1E6E1D8E8E
:102B4800AEEF15F0000E1B6E000E1C6E000E1D6E13
:102B5800000E1E6E2450D8B4B4EF15F0B6EF15F081
:102B6800BEEF15F02950D8A4BCEF15F0BEEF15F054
:102B7800C8EF15F0000E176E000E186E000E196ED5
:102B8800000E1A6E60EF17F01D501702F3CF2EF0EB
:102B9800F4CF2FF02E50256E266A276A286A2F5008
:102BA8002A6E2B6A2C6A2D6A1C501802F3CF2EF05D
:102BB800F4CF2FF02E502526000E26222722282279
:102BC8002F502A26000E2B222C222D221B501902B0
:102BD800F3CF2EF0F4CF2FF02E502526000E26220C
:102BE800272228222F502A26000E2B222C222D2283
:102BF80027C028F026C027F025C026F0256A1B50DC
:102C08001802F3CF2EF0F4CF2FF02E5025262F5098
:102C18002622000E2722000E28221C501702F3CF6E
:102C28002EF0F4CF2FF02E5025262F502622000EFE
:102C38002722000E282227C028F026C027F025C00A
:102C480026F0256A1B501702F3CF2EF0F4CF2FF091
:102C58002E5025262F502622000E2722000E28222D
:102C68001D501802F3CF2EF0F4CF2FF02E502A2645
:102C78002F502B22000E2C22000E2D221C50190240
:102C8800F3CF2EF0F4CF2FF02E502A262F502B22E0
:102C9800000E2C22000E2D221D501902F3CF2EF00B
:102CA800F4CF2FF02E501F6E2F50206E216A226A0B
:102CB80021C022F020C021F01FC020F01F6A1F5041
:102CC8002A2620502B2221502C2222502D2225C08A
:102CD8001FF026C020F027C021F028C022F0190ECE
:102CE8007BEF16F0D8902232213220321F32E82EA4
:102CF80076EF16F01F502A2620502B2221502C2226
:102D080022502D2227C028F026C027F025C026F003
:102D1800256A245029C01FF0206A1F26000E202291
:102D2800820E1F242E6EFF0E20202F6EB1EF16F09C
:102D3800D8902A362B362C362D3628AEA6EF16F02C
:102D4800A8EF16F0A9EF16F02A80D8902536263677
:102D5800273628362E06D8A02F062CAEB6EF16F04A
:102D6800B8EF16F09CEF16F0000E246E28AEBFEFF9
:102D780016F0C1EF16F0E5EF16F0FF0E25141F6EE2
:102D8800FF0E2614206EFF0E2714216E7F0E2814C6
:102D9800226E1F50201021102210D8B4D6EF16F042
:102DA800D8EF16F0DCEF16F0010E246EE5EF16F002
:102DB8002AA0E1EF16F0E3EF16F0E5EF16F0D8EFF2
:102DC80016F02450D8B4EBEF16F0EDEF16F011EF33
:102DD80017F0010E2A26000E2B222C222D222DA0C0
:102DE800F8EF16F0FAEF16F011EF17F02AC01FF0FF
:102DF8002BC020F02CC021F02DC022F0223422322A
:102E0800213220321F321FC02AF020C02BF021C0EF
:102E18002CF022C02DF02E4A2F2A2FBE1CEF17F0BF
:102E28002F5008E12E28D8A01CEF17F01EEF17F03E
:102E380028EF17F0000E2A6E000E2B6E800E2C6EF7
:102E48007F0E2D6E56EF17F02FBE35EF17F02F506F
:102E580006E12E04D8B033EF17F035EF17F041EF45
:102E680017F0000E2A6E000E2B6E000E2C6E000E50
:102E78002D6E000E236E56EF17F02EC029F0FF0EB0
:102E88002A16FF0E2B167F0E2C16000E2D1629A0C3
:102E980050EF17F052EF17F053EF17F02C8ED89031
:102EA80029302D6E23502D122AC017F02BC018F090
:102EB8002CC019F02DC01AF01200010E1D6E860EDE
:102EC8001C6E3AEC51F01C041D10D8A46EEF17F0DC
:102ED80070EF17F0F7EF17F0000E0101DA6F000E30
:102EE800D96F000EDC6F000EDB6F000EDE6F000E78
:102EF800DD6F000EDF6FE00E0D6E010E0E6E660EBA
:102F08000F6EFD0E106ECCEC4BF0D90E2C6E010E30
:102F18002D6E0001EB51F2EC43F0EBC023F0246A74
:102F2800E6EC38F0010E1C6E9A0E1B6E000E1E6E3B
:102F3800000E1D6E26EC52F0010E1C6E9B0E1B6ED1
:102F4800000E1E6E000E1D6E26EC52F0010E1C6E59
:102F58009C0E1B6E000E1E6E000E1D6E26EC52F0AF
:102F6800010E1C6E9D0E1B6E000E1E6E000E1D6E59
:102F780026EC52F0010E1B6E9E0E1A6E670E1C6E2A
:102F8800FD0E1D6E73EC51F0E2EC51F0010E1C6E5B
:102F9800860E1B6E000E1E6E000E1D6E26EC52F085
:102FA800600ED5EC52F04DEC4EF0070E1B6E760E0F
:102FB8001A6EFA0E1C6EFD0E1D6E73EC51F0DC0ECF
:102FC800096E050E0A6E000E0B6E000E0C6EB1EC4B
:102FD8004CF0070E1B6E760E1A6E670E1C6EFD0EF9
:102FE8001D6E73EC51F0010E1D6E870E1C6E3AECCF
:102FF80051F01C041D10D8A404EF18F006EF18F0C7
:103008006EEF18F0010E1D6E9A0E1C6E3AEC51F020
:103018001CC0D9F11DC0DAF1010E1D6E9B0E1C6E8D
:103028003AEC51F01CC0DBF11DC0DCF1010E1D6E45
:103038009C0E1C6E3AEC51F01CC0DDF11DC0DEF197
:10304800010E1D6E9D0E1C6E3AEC51F01C500101D4
:10305800DF6F010E1D6E9E0E1C6EE00E1E6E010EC1
:103068001F6E72EC52F0D90E2C6E010E2D6E0001FF
:10307800EB51F2EC43F0E2EC51F0010E1C6E870EBE
:103088001B6E000E1E6E000E1D6E26EC52F0500ECA
:10309800D5EC52F04DEC4EF0070E1B6E760E1A6E04
:1030A800DE0E1C6EFD0E1D6E73EC51F0DC0E096E0B
:1030B800050E0A6E000E0B6E000E0C6EB1EC4CF095
:1030C800070E1B6E760E1A6E670E1C6EFD0E1D6EB9
:1030D80073EC51F0010E1D6E880E1C6E3AEC51F027
:1030E8001C041D10D8A47BEF18F07DEF18F02AEF10
:1030F80019F0070E1B6E760E1A6EA40E1C6EFD0ECE
:103108001D6E73EC51F0D90E176E010E186E00018A
:10311800EB510BEC40F0070E1B6E760E1A6E860E06
:103128001C6EFD0E1D6E73EC51F0000E3A6EBFEF73
:1031380018F03AC03DF0D9C13EF0DAC13FF0DBC12A
:1031480040F0DDC141F0DFC142F0430E0D6E000ECC
:103158000E6EE00E0F6E010E106ECCEC4BF0000EF2
:103168004D6E010E4C6E3D0E2C6E000E2D6E3A50BB
:103178004FEC3EF03A2AFC0E336EFF0E346E73505D
:10318800356E366AD8903536363633503526345053
:1031980036223A50376E386A3550375C3850800AD4
:1031A800396E3650800A3958D8A0DDEF18F0DFEFB5
:1031B80018F09DEF18F0070E1B6E760E1A6E890E2A
:1031C8001C6EFC0E1D6E73EC51F06AEC29F0070EB4
:1031D8001B6E760E1A6E2B0E1C6EFD0E1D6E73EC9A
:1031E80051F0000E3B6E3B50B4EC2EF03B2A0E0E15
:1031F8003B6401EF19F003EF19F0F7EF18F0000E38
:103208003C6E3C50B0EC31F03C2A090E3C640FEFA8
:1032180019F011EF19F005EF19F0010E1C6E880E68
:103228001B6E000E1E6E000E1D6E26EC52F0600E18
:10323800D5EC52F04DEC4EF0070E1B6E760E1A6E62
:10324800670E1C6EFD0E1D6E73EC51F0010E1D6EA7
:10325800890E1C6E3AEC51F01C041D10D8A437EFEF
:1032680019F039EF19F049EF19F0010E1C6E890EAB
:103278001B6E000E1E6E000E1D6E26EC52F0000E28
:10328800196E2F0E186E37EC52F0120060C15AF00A
:1032980061C15BF062C15CF063C15DF048C05AF087
:1032A80049C05BF04AC05CF04BC05DF05AC04CF0BE
:1032B8005BC04DF05CC04EF05DC04FF0180E6AEF79
:1032C80019F0D8904F324E324D324C32E82E65EF1D
:1032D80019F04C50546E556A55BE7CEF19F0555094
:1032E80009E1960E545CD8A07CEF19F07EEF19F036
:1032F80088EF19F048C048F049C049F04AC04AF080
:103308004BC04BF020EF1BF05AC04CF05BC04DF0A7
:103318005CC04EF05DC04FF0200E98EF19F0D890C9
:103328004F324E324D324C32E82E93EF19F04C505A
:103338004D104E104F10D8B4A4EF19F0A6EF19F0A5
:10334800B8EF19F048C009F049C00AF04AC00BF0BC
:103358004BC00CF0FAEC4FF009C048F00AC049F035
:103368000BC04AF00CC04BF055BEC6EF19F05550D3
:1033780007E17E0E545CD8B0C4EF19F0C6EF19F01F
:10338800E2EF19F05AC017F05BC018F05CC019F0F2
:103398005DC01AF0000E1B6E000E1C6E000E1D6E36
:1033A800000E1E6E4CEC15F017C048F018C049F01E
:1033B80019C04AF01AC04BF020EF1BF0000E346E13
:1033C800000E356E000E366E4B0E376E48C030F06C
:1033D80049C031F04AC032F04BC033F096EC10F0DF
:1033E80030C056F031C057F032C058F033C059F0F1
:1033F800000E346E000E356E000E366ECB0E376E34
:1034080056C030F057C031F058C032F059C033F0D0
:1034180096EC10F030C050F031C051F032C052F08C
:1034280033C053F050C040F051C041F052C042F098
:1034380053C043F048C044F049C045F04AC046F084
:103448004BC047F0BEEC4EF040C05EF041C05FF0AC
:1034580042C060F043C061F0000E096E000E0A6EB3
:10346800000E0B6E3F0E0C6E5EC00DF05FC00EF0CE
:1034780060C00FF061C010F078EC3AF0D8B047EFB8
:103488001AF049EF1AF07FEF1AF048C034F049C03B
:1034980035F04AC036F04BC037F05EC030F05FC040
:1034A80031F060C032F061C033F096EC10F030C0FB
:1034B80056F031C057F032C058F033C059F056C0FA
:1034C80030F057C031F058C032F059C033F0000E18
:1034D800346E000E356E800E366EBF0E376E96EC6B
:1034E80010F030C05EF031C05FF032C060F033C021
:1034F80061F0E8EF1AF0000E096E000E0A6E000E79
:103508000B6EBF0E0C6E5EC00DF05FC00EF060C09B
:103518000FF061C010F078EC3AF0D8A096EF1AF0EE
:1035280098EF1AF0CEEF1AF048C034F049C035F0E1
:103538004AC036F04BC037F05EC030F05FC031F0A3
:1035480060C032F061C033F096EC10F030C056F035
:1035580031C057F032C058F033C059F056C030F07F
:1035680057C031F058C032F059C033F0000E346EF5
:10357800000E356E800E366E3F0E376E96EC10F0EC
:1035880030C05EF031C05FF032C060F033C061F02F
:10359800E8EF1AF05EC030F05FC031F060C032F082
:1035A80061C033F048C034F049C035F04AC036F045
:1035B8004BC037F096EC10F030C05EF031C05FF0D1
:1035C80032C060F033C061F05AC04CF05BC04DF0BF
:1035D8005CC04EF05DC04FF0200EF8EF1AF0D890A6
:1035E8004F324E324D324C32E82EF3EF1AF04C5037
:1035F8004D104E104F10D8B404EF1BF006EF1BF01F
:1036080018EF1BF05EC009F05FC00AF060C00BF055
:1036180061C00CF0FAEC4FF009C05EF00AC05FF030
:103628000BC060F00CC061F05EC048F05FC049F0AC
:1036380060C04AF061C04BF012001A50800B276E30
:103648001A501A242E6E19AE2CEF1BF02EEF1BF019
:103658002FEF1BF02E802E50D8B435EF1BF037EF2C
:103668001BF04CEF1BF02E28D8A43DEF1BF03FEFCA
:103678001BF047EF1BF0000E176E000E186E000EC1
:10368800196E000E1A6E198E000E1A6E54EF1BF08A
:10369800000E176E000E186E000E196E000E1A6ED0
:1036A8001E50800B271A1E501E242F6E1DAE5FEF72
:1036B8001BF061EF1BF062EF1BF02F802F50D8B486
:1036C80068EF1BF06AEF1BF07FEF1BF02F28D8A4E0
:1036D80070EF1BF072EF1BF07AEF1BF0000E1B6E01
:1036E800000E1C6E000E1D6E000E1E6E1D8E000E4E
:1036F8001E6E87EF1BF0000E1B6E000E1C6E000E78
:103708001D6E000E1E6E1B501C101D101E10D8A41E
:1037180090EF1BF092EF1BF0AAEF1BF0000E176E54
:10372800000E186E000E196E000E1A6E800E191219
:103738007F0E1A1227501A1217C017F018C018F067
:1037480019C019F01AC01AF0EDEF1CF02E50D8A4C9
:10375800B0EF1BF0B2EF1BF0BCEF1BF0000E176EC2
:10376800000E186E000E196E000E1A6EEDEF1CF0AA
:103778002F502EC01FF0206A1F5E000E205A7F0EA9
:103788001F24286E000E2020296E17C023F018C0B1
:1037980024F019C025F01AC026F0000E176E000E8E
:1037A800186E000E196E000E1A6E000E2A6E000EAC
:1037B8002B6E000E2C6E000E2D6E000E2F6E1DEF60
:1037C8001CF02F50D8B4EBEF1BF0EDEF1BF004EF1B
:1037D8001CF0D8902336243625362636D89017364E
:1037E800183619361A362DAEFCEF1BF0FEEF1BF01B
:1037F800FFEF1BF01780D8902A362B362C362D3643
:103808001B50235C1C5024581D5025581E50265808
:10381800D8A011EF1CF013EF1CF01CEF1CF02D8C3E
:103828001B50235E1C50245A1D50255A1E50265AE0
:103838002F2A190E2F6423EF1CF025EF1CF0E5EF5B
:103848001BF02350241025102610D8B42EEF1CF09E
:1038580030EF1CF048EF1CF02A8048EF1CF0D8909D
:103868001736183619361A362DAE3DEF1CF03FEFD5
:103878001CF040EF1CF01780D8902A362B362C36D7
:103888002D362806D8A0290619AE4DEF1CF04FEFAB
:103898001CF033EF1CF0000E2F6E2DAE56EF1CF00F
:1038A80058EF1CF07CEF1CF0FF0E2A141F6EFF0E61
:1038B8002B14206EFF0E2C14216E7F0E2D14226EF9
:1038C8001F50201021102210D8B46DEF1CF06FEF9C
:1038D8001CF073EF1CF0010E2F6E7CEF1CF017A08C
:1038E80078EF1CF07AEF1CF07CEF1CF06FEF1CF007
:1038F8002F50D8B482EF1CF084EF1CF0A8EF1CF016
:10390800010E1726000E182219221A221AA08FEF6C
:103918001CF091EF1CF0A8EF1CF017C01FF018C0A6
:1039280020F019C021F01AC022F0223422322132AC
:1039380020321F321FC017F020C018F021C019F024
:1039480022C01AF0284A292A29BEB3EF1CF02950B0
:1039580008E12828D8A0B3EF1CF0B5EF1CF0C0EFA1
:103968001CF0000E296E2868000E176E000E186EE7
:10397800000E196E000E1A6E29BECDEF1CF02950EC
:1039880006E12804D8B0CBEF1CF0CDEF1CF0DBEF3C
:103998001CF0000E296E000E286E000E176E000E29
:1039A800186E000E196E000E1A6E000E276E28C0D3
:1039B8002EF02EA0E2EF1CF0E4EF1CF0E7EF1CF075
:1039C800198EE8EF1CF0199ED8902E301A6E9EEFD3
:1039D8001BF01200010E1D6E7E0E1C6EFDEC50F0E9
:1039E8001CC062F01DC063F01EC064F01FC065F00B
:1039F800F5EC39F0010E1D6E800E1C6EFDEC50F0DA
:103A08001CC062F01DC063F01EC064F01FC065F0EA
:103A1800F5EC39F0010E136E7C0E126E9C0E146ECE
:103A2800000E156E040E166EEAEC34F09EC080F09F
:103A38000001816B826B836B82C083F081C082F04E
:103A480080C081F0806B9DC084F0856B866B876B2E
:103A580085C087F084C086F0856B846B9CC088F035
:103A6800896B8A6B8B6B88C08BF08A6B896B886BD0
:103A7800845188258C6F855189218D6F86518A21C3
:103A88008E6F87518B218F6F80518C25906F81515C
:103A98008D21916F82518E21926F83518F21936F67
:103AA8009F519025CD6F000E9121CE6F000E92216F
:103AB800CF6F000E9321D06F010E136E7E0E126E23
:103AC8009C0E146E000E156E040E166EEAEC34F0A1
:103AD8009EC080F00001816B826B836B82C083F093
:103AE80081C082F080C081F0806B9DC084F0856BBE
:103AF800866B876B85C087F084C086F0856B846B86
:103B08009CC088F0896B8A6B8B6B88C08BF08A6B42
:103B1800896B886B845188258C6F855189218D6FBD
:103B280086518A218E6F87518B218F6F80518C250A
:103B3800906F81518D21916F82518E21926F8351A7
:103B48008F21936F9F519025986F000E9121996F47
:103B5800000E92219A6F000E93219B6F010E136E37
:103B6800800E126E9C0E146E000E156E040E166EEC
:103B7800EAEC34F09EC080F00001816B826B836BAD
:103B880082C083F081C082F080C081F0806B9DC0CC
:103B980084F0856B866B876B85C087F084C086F060
:103BA800856B846B9CC088F0896B8A6B8B6B88C033
:103BB8008BF08A6B896B886B845188258C6F855153
:103BC80089218D6F86518A218E6F87518B218F6F46
:103BD80080518C25906F81518D21916F82518E215A
:103BE800926F83518F21936F9F519025946F000E90
:103BF8009121956F000E9221966F000E9321976F79
:103C0800CD51CE11CF11D011D8B40DEF1EF00FEF5A
:103C18001EF025EF1EF0985199119A119B11D8B4F6
:103C280018EF1EF01AEF1EF025EF1EF094519511B3
:103C380096119711D8A423EF1EF025EF1EF02AEF56
:103C48001EF0230ED5EC52F0A4EF1EF0000E0E6EFF
:103C58000B0E0D6E26EC4EF00001CD510D180DE146
:103C6800CE510E180AE1CF510F1807E1D0511018A4
:103C7800D8A441EF1EF043EF1EF0A1EF1EF09451BF
:103C880098190DE1955199190AE196519A1907E188
:103C980097519B19D8A453EF1EF055EF1EF09CEFD7
:103CA8001EF0000E296E0B0E286E98C02AF099C0DF
:103CB8002BF09AC02CF09BC02DF023EC4FF098C04D
:103CC800CDF099C0CEF09AC0CFF09BC0D0F0B0EC48
:103CD80052F0010E1B6E7C0E1A6E000E1C6E000E4A
:103CE8001D6E000E1E6E000E1F6E9BEC4BF0010E3B
:103CF8001B6E7E0E1A6E000E1C6E000E1D6E000EE0
:103D08001E6E000E1F6E9BEC4BF0010E1B6E800E9C
:103D18001A6E000E1C6E000E1D6E000E1E6E000E3A
:103D28001F6E9BEC4BF0220ED5EC52F0A4EF1EF068
:103D3800210ED5EC52F0A4EF1EF0200ED5EC52F077
:103D48001200200E096E000E0A6E000E0B6E000E99
:103D58000C6EB1EC4CF0000E306EE3EF1EF030C08C
:103D680009F00A6A000E0C6E020E0B6ED2EC42F0DD
:103D780009282C6E3050010B2F6E2FC027F01A0E19
:103D88000C6E010E0D6E270E0E6E000E0F6E2C506F
:103D980014EC36F03050020DBB0EF324D96E010E30
:103DA800F420DA6E0CC0DEFF0DC0DDFF510E2C24AE
:103DB800D96EDA6A010EDA22010EDF6E302A7350EC
:103DC800020D3050236E246AF350235C2450800A7D
:103DD800256EF450800A2558D8A0F5EF1EF0F7EFAD
:103DE8001EF0B3EF1EF0320E096E000E0A6E000EC2
:103DF8000B6E000E0C6EB1EC4CF07586000E306E3A
:103E080006EF20F0000E1C6E990E1B6E3050020D4E
:103E1800BB0EF324D96E010EF420DA6EDECF1DF04E
:103E2800DDCF1EF026EC52F03050020DBB0EF3240D
:103E3800D96E010EF420DA6EDECF6CF1DDCF6DF1B4
:103E480005EF20F0000E1C6E970E1B6E3050020D11
:103E5800BB0EF324D96E010EF420DA6EDECF1DF00E
:103E6800DDCF1EF026EC52F03050020DBB0EF324CD
:103E7800D96E010EF420DA6EDECF6EF1DDCF6FF170
:103E880005EF20F0000E1C6E960E1B6E3050020DD2
:103E9800BB0EF324D96E010EF420DA6EDECF1DF0CE
:103EA800DDCF1EF026EC52F03050020DBB0EF3248D
:103EB800D96E010EF420DA6EDECFDDF0DDCFDEF054
:103EC80005EF20F03050FC0F2F6E2F500C0DF3CF64
:103ED80023F0F4CF24F0E60E23242A6E000E2420CB
:103EE8002B6E900E2F242D6E2E6A010E2E22010E9F
:103EF8002A241B6E000E2B201C6E2F50236E246A62
:103F0800D89023362436C30E2324D96E010E2420DC
:103F1800DA6EDECF1DF0DDCF1EF026EC52F02F500A
:103F2800236E246AD89023362436C30E2324D96EF0
:103F3800010E2420DA6E010EDBAEACEF1FF0700E1E
:103F4800DE5CFE0EDE58D8B0ACEF1FF0AEEF1FF00F
:103F5800BAEF1FF02DC01BF02EC01CF0000E1E6E15
:103F6800010E1D6E26EC52F005EF20F02F50236E47
:103F7800246AD89023362436C30E2324D96E010E22
:103F88002420DA6EDE2806E1DE28D8A4CEEF1FF062
:103F9800D0EF1FF0DCEF1FF02DC01BF02EC01CF07F
:103FA800000E1E6E000E1D6E26EC52F005EF20F07E
:103FB8002DC01BF02EC01CF0000E1E6E030E1D6ED1
:103FC80026EC52F005EF20F03050236E246A24507E
:103FD800000AD8B4F2EF1FF066EF1FF02350000A72
:103FE800D8B406EF1FF0010AD8B426EF1FF0030A71
:103FF800D8B446EF1FF0010AD8B405EF20F066EFF9
:104008001FF0302A7350020D3050236E246AF3508B
:10401800235C2450800A256EF450800A2558D8A0C5
:1040280018EF20F01AEF20F0E8EF1FF07596120055
:10403800000E1D6EA80E1C6E3AEC51F01C041D10EB
:10404800D8A429EF20F02BEF20F055EF20F0000E38
:104058001C6EA80E1B6E000E1E6E000E1D6E26EC4A
:1040680052F00001EC51D8B43CEF20F03EEF20F0C4
:1040780050EF20F0000E476E4750B4EC2EF0472A60
:104088000E0E47644AEF20F04CEF20F040EF20F08E
:104098004DEC4EF055EF20F0520ED5EC52F015ECE9
:1040A80052F0000E1D6EA70E1C6E3AEC51F01C0467
:1040B8001D10D8A462EF20F064EF20F0AAEF20F0E2
:1040C800000E1C6EA70E1B6E000E1E6E000E1D6EDF
:1040D80026EC52F00001EC51D8B475EF20F077EFE0
:1040E80020F0A5EF20F0640E1E6EFE0E1F6E070E68
:1040F800216ED00E206E000E226E010E236E52EC41
:1041080045F0000E486E485039EC37F0482A090E41
:10411800486491EF20F093EF20F087EF20F0940EA1
:104128001E6EFF0E1F6E070E216ED00E206E010E42
:10413800226E000E236E52EC45F04DEC4EF0AAEFC5
:1041480020F0520ED5EC52F015EC52F0000E1D6E18
:10415800A60E1C6E3AEC51F01C041D10D8A4B7EF43
:1041680020F0B9EF20F0F3EF20F0000E1C6EA60E41
:104178001B6E000E1E6E000E1D6E26EC52F0000126
:10418800EC51D8B4CAEF20F0CCEF20F0EEEF20F0DD
:10419800C10E1E6EFE0E1F6E070E216ED00E206E13
:1041A800000E226E010E236E52EC45F06AEC29F0E7
:1041B800940E1E6EFF0E1F6E070E216ED00E206E1F
:1041C800010E226E000E236E52EC45F04DEC4EF0BF
:1041D800F3EF20F0520ED5EC52F015EC52F0000E31
:1041E8001D6EA90E1C6E3AEC51F01C041D10D8A4CB
:1041F80000EF21F002EF21F066EF21F0000E1C6EB7
:10420800A90E1B6E000E1E6E000E1D6E26EC52F0DF
:104218000001EC51D8B413EF21F015EF21F061EF54
:1042280021F09F0E1E6EFF0E1F6E070E216ED00E20
:10423800206E000E226E010E236E52EC45F0130E16
:104248000001F519F611D8A42CEF21F02EEF21F07A
:1042580030EF21F0000E466E150EF519F611D8A4B0
:1042680038EF21F03AEF21F03CEF21F0050E466ED1
:10427800050E316E4650EBEC3CF0000E496E49508D
:10428800B4EC2EF0492A0E0E49644DEF21F04FEFA1
:1042980021F043EF21F04DEC4EF0BE0E1E6EFF0EE6
:1042A8001F6E070E216ED00E206E010E226E000EBC
:1042B800236E52EC45F066EF21F0520ED5EC52F029
:1042C80015EC52F012009BEC4EF0150E206EFE0E0F
:1042D800216EF6EC3BF00C0E206EFF0E216EF6EC14
:1042E8003BF0000E1D6EAA0E1C6E3AEC51F01C0439
:1042F8001D10D8A482EF21F084EF21F079EF22F08D
:10430800000E1C6EAA0E1B6E000E1E6E000E1D6E99
:1043180026EC52F0000E196E000E186E37EC52F0B3
:10432800000E0E6E220E0D6EDDEC4FF00DC084F007
:104338000EC085F084C018F085C019F0A50E1A6E5D
:10434800030E1B6E000E1D6E0A0E1C6E04EC33F07D
:10435800500E0D6E020E0E6E890E0F6EFF0E106E51
:10436800CCEC4BF0500E176E020E186EA50E196E9F
:10437800030E1A6E86EC51F0500E206E020E216E5E
:10438800F6EC3BF0010E0001836F32EF22F0500E85
:104398000D6E020E0E6EE90E0F6EFF0E106ECCEC57
:1043A8004BF083C018F0196AA50E1A6E030E1B6E27
:1043B800000E1D6E0A0E1C6E04EC33F0500E176EC4
:1043C800020E186EA50E196E030E1A6E86EC51F0C9
:1043D800A50E0D6E030E0E6E900E0F6EFF0E106E74
:1043E800CCEC4BF0500E176E020E186EA50E196E1F
:1043F800030E1A6E86EC51F0100E0001806F0B0E42
:104408000C6E010E0D6E800E0E6E000E0F6E835137
:1044180014EC36F00CC084F00DC085F084C018F0A0
:1044280085C019F0A50E1A6E030E1B6E000E1D6EC8
:104438000A0E1C6E04EC33F0500E176E020E186E46
:10444800A50E196E030E1A6E86EC51F0500E206EF2
:10445800020E216EF6EC3BF00001832B8351735C56
:10446800D8B039EF22F03BEF22F0CBEF21F0D50E98
:10447800206EFE0E216EF6EC3BF0000E0E6EE80E7E
:104488000D6EDDEC4FF00DC084F00EC085F084C0D9
:1044980018F085C019F0500E1A6E020E1B6E000E31
:1044A8001D6E0A0E1C6E04EC33F0500E176E020ED1
:1044B800186EAA0E196EFF0E1A6E86EC51F0500E89
:1044C800206E020E216EF6EC3BF0980E096E3A0E45
:1044D8000A6E000E0B6E000E0C6E58EC4CF0000EBF
:1044E800196E0F0E186E37EC52F012001F6E000E88
:1044F800206E135009E1020E125CD8A086EF22F05C
:1045080088EF22F08AEF22F081EF23F0135008E1C0
:104518001204D8A092EF22F094EF22F098EF22F044
:10452800080E206E9AEF22F0000E206E1FC021F0B8
:10453800D8902136A00E2112218020502112BFECE4
:1045480051F021C016F0FE0E161616500B6E0C6AAE
:104558007FEC52F011C00BF00C6A7FEC52F010C0E7
:104568000BF00C6A7FEC52F099EC52F021C00BF082
:104578000C6A7FEC52F0000E1E6E135009E1020E19
:10458800125CD8A0CAEF22F0CCEF22F0CEEF22F0D6
:1045980072EF23F0010E1024166E000E1120176E14
:1045A800000E1220186E000E1320196E7F0E1614BE
:1045B8001A6E000E17141B6E000E18141C6E000ED7
:1045C80019141D6E1A501B101C101D10D8A4EFEFE3
:1045D80022F0F1EF22F045EF23F0000E0C6E000EF2
:1045E8000B6E2BEC49F00B5014C0D9FF15C0DAFF45
:1045F800DF6E8CEC52F0340E166EF20EE82EFED7FB
:10460800162EFCD7010E1026000E1122122213229C
:10461800144A152A135008E11204D8A016EF23F003
:1046280018EF23F01CEF23F0080E206E1EEF23F086
:10463800000E206E1FC021F0D8902136A00E211246
:10464800218020502112BFEC51F021C016F0FE0E3F
:10465800161616500B6E0C6A7FEC52F011C00BF058
:104668000C6A7FEC52F010C00BF00C6A7FEC52F031
:1046780099EC52F021C00BF00C6A7FEC52F067EF16
:1046880023F0000E0C6E010E0B6E2BEC49F00B5054
:1046980014C0D9FF15C0DAFFDF6E14C0D9FF15C0EA
:1046A800DAFFDF50D8A45BEF23F05DEF23F05FEF74
:1046B80023F072EF23F0144A152A010E1026000E7B
:1046C8001122122213221E2A1E04166E3F0E166491
:1046D80070EF23F072EF23F0C1EF22F0000E0C6EA2
:1046E800000E0B6E2BEC49F08CEC52F0070E166E98
:1046F800C00EE82EFED7162EFCD71200000E1D6E37
:10470800040E1C6E3AEC51F01C041D10D8A48FEF57
:1047180023F091EF23F0C2EF23F00001F2B797EFF7
:1047280023F099EF23F0C2EF23F0F2B79EEF23F0C6
:10473800A0EF23F0A2EF23F04DEC4EF00001F2873A
:10474800DB51DD5DDE51800A6E6EDC51800A6E58E9
:10475800D8B0B1EF23F0B3EF23F0BBEF23F0010E95
:10476800F3EC51F0010E00EC4BF081EF24F0000E59
:10477800F3EC51F082EC4FF081EF24F0000E1D6E47
:10478800040E1C6E3AEC51F01C501D10D8A4CFEF4B
:1047980023F0D1EF23F050EF24F00001F2A7D7EF78
:1047A80023F0D9EF23F050EF24F0F297000EF3EC4A
:1047B80051F0000E1C6E060E1B6E000E1E6E000ED3
:1047C8001D6E26EC52F0420ED5EC52F0000E1C6E17
:1047D800160E1B6E000E1E6E000E1D6E26EC52F09D
:1047E800000E1D6E060E1C6E3AEC51F0F10E1C18F0
:1047F8001D10D8B402EF24F005EF24F0010E06EFE7
:1048080024F0000E6E6E000E1D6E060E1C6E3AEC45
:1048180051F0F00E1C181D10D8B415EF24F018EF45
:1048280024F0010E19EF24F0000E6E10E8A01FEF1F
:1048380024F021EF24F023EF24F028EF24F00400E3
:1048480070EC42F0F4EF23F0000E1D6E060E1C6EA5
:104858003AEC51F0F00E1C181D10D8A436EF24F0D5
:1048680038EF24F048EF24F0000E00EC4BF0000E77
:104878000001EE6F000EEF6F4DEC4EF04DEC4EF078
:104888004DEC4EF081EF24F03A0E196E980E186E2A
:104898006AEC50F081EF24F0000E1D6E040E1C6EC1
:1048A8003AEC51F01C041D10D8A45DEF24F05FEF22
:1048B80024F081EF24F00001F2A765EF24F067EF00
:1048C80024F081EF24F0DB51DD5DDE51800A6E6E4D
:1048D800DC51800A6E58D8B074EF24F076EF24F0DB
:1048E8007CEF24F0010EF3EC51F0758881EF24F091
:1048F800000EF3EC51F0BEEF23F01200216E000E13
:10490800226E000E0101836F050E826F135009E1BC
:10491800020E125CD8A093EF24F095EF24F097EFE5
:1049280024F081EF25F0135008E11204D8A09FEF7E
:1049380024F0A1EF24F0A5EF24F0080E226EA7EFD3
:1049480024F0000E226E21C023F0D8902336A00E4A
:104958002312238022502312BFEC51F023C017F0FA
:10496800FE0E171617500B6E0C6A7FEC52F011C032
:104978000BF00C6A7FEC52F010C00BF00C6A7FEC65
:1049880052F099EC52F023C00BF00C6A7FEC52F015
:10499800000E206E69EF25F0135009E1020E125C3B
:1049A800D8A0D9EF24F0DBEF24F0DDEF24F072EF8C
:1049B80025F0010E1024176E000E1120186E000E3F
:1049C8001220196E000E13201A6E7F0E17141B6E1C
:1049D800000E18141C6E000E19141D6E000E1A1409
:1049E8001E6E1B501C101D101E10D8A4FEEF24F0C4
:1049F80000EF25F054EF25F0000E0C6E000E0B6E44
:104A08002BEC49F00B5015C0D9FF16C0DAFFDF6E4A
:104A18008CEC52F0340E176EF20EE82EFED7172EDD
:104A2800FCD7010E1026000E112212221322154A5D
:104A3800162A135008E11204D8A025EF25F027EF15
:104A480025F02BEF25F0080E226E2DEF25F0000E35
:104A5800226E21C023F0D8902336A00E2312238083
:104A680022502312BFEC51F023C017F0FE0E171688
:104A780017500B6E0C6A7FEC52F011C00BF00C6AE9
:104A88007FEC52F010C00BF00C6A7FEC52F099ECFE
:104A980052F023C00BF00C6A7FEC52F068EF25F05F
:104AA800000E0C6E010E0B6E2BEC49F00B5015C06E
:104AB800D9FF16C0DAFFDF6E154A162A010E102636
:104AC800000E112212221322202A1450205CD8A092
:104AD80070EF25F072EF25F0D0EF24F0000E0C6E89
:104AE800000E0B6E2BEC49F08CEC52F0070E176E93
:104AF800C00EE82EFED7172EFCD712001D6E000E32
:104B08000101836F050E826F105009E1020E0F5CE0
:104B1800D8A091EF25F093EF25F095EF25F07EEFE3
:104B280026F0105008E10F04D8A09DEF25F09FEF64
:104B380025F0A3EF25F0080E1E6EA5EF25F0000E58
:104B48001E6E1DC01FF0D8901F36A00E1F121E50DB
:104B58001F12BFEC51F01FC00BF00C6A7FEC52F033
:104B68000EC00BF00C6A7FEC52F00DC00BF00C6A13
:104B78007FEC52F0000E1C6E4DEF26F0105009E14C
:104B8800020E0F5CD8A0CBEF25F0CDEF25F0CFEFCC
:104B980025F07EEF26F0010E0D24146E000E0E2077
:104BA800156E000E0F20166E000E1020176E7F0E69
:104BB8001414186E000E1514196E000E16141A6EC1
:104BC800000E17141B6E185019101A101B10D8A4B9
:104BD800F0EF25F0F2EF25F039EF26F012C0D9FFFB
:104BE80013C0DAFFDF50146E14500B6E0C6A7FECA2
:104BF80052F08CEC52F0340E146EF20EE82EFED702
:104C0800142EFCD7010E0D26000E0E220F221022A4
:104C1800124A132A105008E10F04D8A016EF26F004
:104C280018EF26F01CEF26F0080E1E6E1EEF26F079
:104C3800000E1E6E1DC01FF0D8901F36A00E1F124A
:104C48001E501F12BFEC51F01FC00BF00C6A7FEC16
:104C580052F00EC00BF00C6A7FEC52F00DC00BF056
:104C68000C6A7FEC52F04CEF26F012C0D9FF13C04B
:104C7800DAFFDF50146E14500B6E0C6A7FEC52F0A2
:104C8800124A132A010E0D26000E0E220F221022A0
:104C98001C2AFF0E146EFF0E156E1150166E176A41
:104CA80014501626155017221C50186E196A1650E3
:104CB800185C1950800A1A6E1750800A1A58D8A022
:104CC80068EF26F06AEF26F0C2EF25F012C0D9FF90
:104CD80013C0DAFFDF50146E14500B6E0C6A7FECB1
:104CE80052F08CEC52F0340E146EF20EE82EFED711
:104CF800142EFCD71200030E0C6E000E0D6EA50EBE
:104D08000E6E030E0F6E0001835114EC36F0000E88
:104D1800736E500E0D6E020E0E6E670E0F6EFD0E48
:104D2800106ECCEC4BF0500E176E020E186EFA0E89
:104D3800196EFE0E1A6E86EC51F0500E176E020EAA
:104D4800186ED90E196EFF0E1A6E86EC51F0500EC1
:104D5800206E020E216EF6EC3BF0010E0001836F0F
:104D6800640E096E000E0A6E000E0B6E000E0C6EBD
:104D780058EC4CF0030E0C6E000E0D6EA50E0E6E68
:104D8800030E0F6E0001835114EC36F00CC081F055
:104D98000DC082F082C080F00001812908E18229DB
:104DA800D8B4D9EF26F0DBEF26F040EF27F0732ACE
:104DB800500E0D6E020E0E6E670E0F6EFD0E106E0B
:104DC800CCEC4BF083C018F0196A500E1A6E020E24
:104DD8001B6E000E1D6E0A0E1C6E04EC33F0500E96
:104DE800176E020E186EF50E196EFF0E1A6E86EC0F
:104DF80051F0500E176E020E186E00018051020D10
:104E0800EE0EF324D96E010EF420DA6EDECF19F01F
:104E1800DDCF1AF086EC51F0500E176E020E186EA8
:104E2800660E196EFD0E1A6E86EC51F0A50E0D6E0B
:104E3800030E0E6E660E0F6EFD0E106ECCEC4BF070
:104E4800410E0C6E000E0D6EA50E0E6E030E0F6E4B
:104E58000001835114EC36F0500E176E020E186ED6
:104E6800A50E196E030E1A6E86EC51F0500E206EC8
:104E7800020E216EF6EC3BF00001832B0E0E8365CB
:104E880048EF27F04AEF27F0B4EF26F07350D8A484
:104E980050EF27F052EF27F05AEF27F04B0E206E15
:104EA800FE0E216EF6EC3BF077EF27F073C018F09A
:104EB800196A500E1A6E020E1B6E000E1D6E0A0E37
:104EC8001C6E04EC33F0500E176E020E186E7D0E39
:104ED800196EFE0E1A6E86EC51F0500E206E020E00
:104EE800216EF6EC3BF012004C6E4C50456E466A53
:104EF800FF0E476EFF0E486E0001E651496E4A6A82
:104F08004750492648504A224550495C4A50800A31
:104F18004B6E4650800A4B58D8B095EF27F097EF64
:104F280027F09FEF27F0030E196EE80E186E6AEC53
:104F380050F070EF28F04C50360DF3CF45F0F4CF19
:104F480046F0100E4526000E462245C04DF046C0DC
:104F58004EF0000E4EBEFF0E4F6E506E4DC024F048
:104F68004EC025F04FC026F050C027F0000E32EC9E
:104F780050F024C001F125C002F1020E4D24106E3C
:104F8800000E4E20116E000E4F20126E000E5020A3
:104F9800136E0D0E146E010E156E000E7AEC22F0D3
:104FA8000C0E4D24106E000E4E20116E000E4F2078
:104FB800126E000E5020136E030E146E010E156E45
:104FC800000E7AEC22F0160E4D24106E000E4E20C4
:104FD800116E000E4F20126E000E5020136E210E1F
:104FE800146E010E156E000E7AEC22F0200E4D2480
:104FF800106E000E4E20116E000E4F20126E000E25
:105008005020136E170E146E010E156E000E7AECFA
:1050180022F02A0E4D24246E000E4E20256E000E1E
:105028004F20266E000E5020276E000E26EC51F001
:1050380001012B6F2B0E4D24246E000E4E20256E81
:10504800000E4F20266E000E5020276E000E95ECA5
:1050580043F024C02CF125C02DF126C02EF127C025
:105068002FF12F0E4D24246E000E4E20256E000EBB
:105078004F20266E000E5020276E000E95EC43F050
:1050880024C030F125C031F126C032F127C033F1F8
:10509800330E4D24246E000E4E20256E000E4F2038
:1050A800266E000E5020276E000E32EC50F024C001
:1050B80034F125C035F1350E4D24246E000E4E20F6
:1050C800256E000E4F20266E000E5020276E000E13
:1050D80026EC51F00101366F1200346E34502D6EFB
:1050E8002E6AFF0E2F6EFF0E306E0001E651316EF4
:1050F800326A2F503126305032222D50315C3250D6
:10510800800A336E2E50800A3358D8B08EEF28F0BC
:1051180090EF28F098EF28F0030E196EE80E186E3D
:105128006AEC50F069EF29F03450360DF3CF2DF0CA
:10513800F4CF2EF0100E2D26000E2E222DC035F0A5
:105148002EC036F0000E36BEFF0E376E386E35C0F4
:1051580020F036C021F037C022F038C023F001C15A
:1051680024F002C125F0000ED0EC50F0020E3524D8
:105178000D6E000E36200E6E000E37200F6E000EDC
:105188003820106E0D0E116E010E126E000E42ECDC
:1051980030F00C0E35240D6E000E36200E6E000E0B
:1051A80037200F6E000E3820106E030E116E010EA0
:1051B800126E000E42EC30F0160E35240D6E000E05
:1051C80036200E6E000E37200F6E000E3820106E3F
:1051D800210E116E010E126E000E42EC30F0200E00
:1051E80035240D6E000E36200E6E000E37200F6E21
:1051F800000E3820106E170E116E010E126E000E82
:1052080042EC30F02A0E3524206E000E3620216E36
:10521800000E3720226E000E3820236E2BC124F09A
:10522800000E60EC51F02B0E3524206E000E362057
:10523800216E000E3720226E000E3820236E2CC1FE
:1052480024F02DC125F02EC126F02FC127F0000E25
:1052580085EC50F02F0E3524206E000E3620216E7E
:10526800000E3720226E000E3820236E30C124F045
:1052780031C125F032C126F033C127F0000E85EC8C
:1052880050F0330E3524206E000E3620216E000EAD
:105298003720226E000E3820236E34C124F035C129
:1052A80025F0000ED0EC50F0350E3524206E000E9F
:1052B8003620216E000E3720226E000E3820236E15
:1052C80036C124F0000E60EC51F01200040E1E6E80
:1052D8001EC009F00A6A000E0C6E020E0B6ED2ECAC
:1052E80042F009281F6E1E50010B206E1E50120D31
:1052F800F350EC0F1D6E010E1D240D6E0E6A000E8C
:105308000E22DDEC4FF00DC01BF00EC01CF020503B
:10531800070DF3CF21F01CC022F01BC023F00A0EAA
:105328000C6E030E0D6E210E0E6E000E0F6E1F50CA
:1053380014EC36F0070E1A6E170E196E6A0EE82E68
:10534800FED7192EFCD71A2EFAD700D02050070DF9
:10535800F350020F216E030E1D24096E0A6A000E17
:105368000A2202EC4FF0226E080E0C6E020E0D6E31
:10537800210E0E6E000E0F6E1F5014EC36F0070E45
:105388001A6E170E196E6A0EE82EFED7192EFCD764
:105398001A2EFAD700D02050070DF350030F216EB4
:1053A800040E1D24096E0A6A000E0A2202EC4FF050
:1053B800226E080E0C6E020E0D6E210E0E6E000E81
:1053C8000F6E1F5014EC36F0070E1A6E170E196E7A
:1053D8006A0EE82EFED7192EFCD71A2EFAD700D05F
:1053E8002050070DF350040F216E050E1D24096E81
:1053F8000A6A000E0A2202EC4FF0226E080E0C6EAA
:10540800020E0D6E210E0E6E000E0F6E1F5014EC64
:1054180036F0070E1A6E170E196E6A0EE82EFED7B2
:10542800192EFCD71A2EFAD700D0100E1D240D6E97
:105438000E6A000E0E22DDEC4FF00DC01BF00EC000
:105448001CF02050070DF350050F216E1CC022F0F0
:105458001BC023F00A0E0C6E030E0D6E210E0E6E8D
:10546800000E0F6E1F5014EC36F0070E1A6E170E52
:10547800196E6A0EE82EFED7192EFCD71A2EFAD707
:1054880000D02004D8A44BEF2AF04DEF2AF058EFB3
:105498002AF0010E0C6E000E0D6E210E0E6E000E1F
:1054A8000F6E1F5014EC36F01E2A0E0E1E645FEFAE
:1054B8002AF061EF2AF06CEF29F012005A0E0B6EF9
:1054C800A50E0A6ECEEC52F0030EACEC51F0810E34
:1054D800ACEC51F0200EACEC51F0070EACEC51F0F6
:1054E8009C0E1F6ED70EE82EFED71F2EFCD700F09D
:1054F80008EC4DF00009D8B484EF2AF086EF2AF0C2
:10550800A3EF2AF0000E3D6E3D50060F1F6E206A75
:10551800870E1F24D96E010E2020DA6E210E3D243D
:10552800E16EE26A000EE222DFCFE7FF3D2A090EB4
:105538003D64A1EF2AF0A3EF2AF088EF2AF02B0EA2
:10554800096E000E0A6E21504EEC50F02E0E096EB8
:10555800000E0A6E22504EEC50F0310E096E000E0D
:105568000A6E23504EEC50F01BC00DF01CC00EF01C
:10557800670E0F6EFD0E106ECCEC4BF01BC017F0D3
:105588001CC018F0310E196E000E1A6E86EC51F020
:105598001BC017F01CC018F0FC0E196EFF0E1A6E17
:1055A80086EC51F01BC017F01CC018F02E0E196EB7
:1055B800000E1A6E86EC51F01BC017F01CC018F0D4
:1055C800FC0E196EFF0E1A6E86EC51F01BC017F018
:1055D8001CC018F02B0E196E000E1A6E86EC51F0D6
:1055E800340E096E000E0A6E25504EEC50F0370E40
:1055F800096E000E0A6E26504EEC50F03A0E096EF7
:10560800000E0A6E27504EEC50F01DC00DF01EC063
:105618000EF0670E0F6EFD0E106ECCEC4BF01DC039
:1056280017F01EC018F0340E196E000E1A6E86ECB4
:1056380051F01DC017F01EC018F0E60E196EFE0ED0
:105648001A6E86EC51F01DC017F01EC018F0370E08
:10565800196E000E1A6E86EC51F01DC017F01EC0B0
:1056680018F0E60E196EFE0E1A6E86EC51F01DC08B
:1056780017F01EC018F03A0E196E000E1A6E86EC5E
:1056880051F0010E096E000E0A6E000E0B6E000E30
:105698000C6EB1EC4CF01200000E1C6E020E1B6E6C
:1056A800000E1E6E000E1D6E26EC52F0000E1C6ED3
:1056B800030E1B6E000E1E6E000E1D6E26EC52F0C1
:1056C800000E1C6E040E1B6E000E1E6E000E1D6E6C
:1056D80026EC52F0000E1C6E050E1B6E000E1E6EA0
:1056E800000E1D6E26EC52F00001F299000E0A6EB3
:1056F800100E096E02EC4FF00001F26FF251D8B4AF
:1057080088EF2BF08AEF2BF02AEF2CF0680E206E32
:10571800FD0E216EF6EC3BF0C10E206EFD0E216EE3
:10572800F6EC3BF0000E00EC4BF00001F2A19FEF0D
:105738002BF0A1EF2BF0B4EF2BF0F291B40E206E0A
:10574800FF0E216EF6EC3BF0000E1C6E020E1B6E77
:10575800000E1E6E010E1D6E26EC52F0A7EC36F000
:105768000001F2A5BAEF2BF0BCEF2BF0D9EF2BF02C
:10577800F2951E0E206EFF0E216EF6EC3BF0000E29
:105788001C6E030E1B6E000E1E6E010E1D6E26ECA7
:1057980052F0A6EC45F0100E096E270E0A6E000EA8
:1057A8000B6E000E0C6E58EC4CF00001F2A7DFEF08
:1057B8002BF0E1EF2BF0FFEF2BF0F297F289C70EF9
:1057C800206EFF0E216EF6EC3BF0000E1C6E040EF0
:1057D8001B6E000E1E6E010E1D6E26EC52F082EC42
:1057E80023F0100E096E270E0A6E000E0B6E000EC7
:1057F8000C6E58EC4CF00001F2A305EF2CF007EF0B
:105808002CF024EF2CF0F2932D0E206EFF0E216E5B
:10581800F6EC3BF0000E1C6E050E1B6E000E1E6EA5
:10582800010E1D6E26EC52F0AAEC33F0100E096E34
:10583800270E0A6E000E0B6E000E0C6E58EC4CF024
:10584800000E196E0F0E186E37EC52F0F2C0E7F02A
:105858001200000E136EB30E126EEA0E146E010ED5
:10586800156E040E166EEAEC34F0ECC128F0296AC5
:105878002A6A2B6A2AC02BF029C02AF028C029F0EE
:10588800286AEBC12CF02D6A2E6A2F6A2DC02FF0E2
:105898002CC02EF02D6A2C6AEAC130F0316A326AC7
:1058A800336A30C033F0326A316A306A2C5030249F
:1058B800346E2D503120356E2E503220366E2F50DA
:1058C8003320376E28503424386E29503520396EED
:1058D8002A5036203A6E2B5037203B6E0101ED518D
:1058E80038243C6E000E39203D6E000E3A203E6E84
:1058F800000E3B203F6E3C503D103E103F10D8B488
:1059080088EF2CF08AEF2CF007EF2DF00001CD5135
:105918003C180DE1CE513D180AE1CF513E1807E180
:10592800D0513F18D8A49BEF2CF09DEF2CF007EF37
:105938002DF0000E1B6EB30E1A6E000E1C6E000EBC
:105948001D6E000E1E6E000E1F6E9BEC4BF0000EBF
:105958001D6EB20E1C6E3AEC51F01C041D10D8A43A
:10596800B8EF2CF0BAEF2CF0D7EF2CF0000E746ED5
:10597800000E0001EC6FDF69E069000E1C6EB20ECC
:105988001B6E000E1E6E000E1D6E26EC52F0000EF1
:105998001C6E9A0E1B6E000E1E6E000E1D6E26ECFF
:1059A80052F003EF2DF0000E1D6EB20E1C6E3AEC95
:1059B80051F01C501D10D8A4E4EF2CF0E6EF2CF0A9
:1059C80003EF2DF0010E746E010E0001EC6F000E56
:1059D800E06F0A0EDF6F000E1C6EB20E1B6E000E1B
:1059E8001E6E010E1D6E26EC52F0000E1C6E9A0EF5
:1059F8001B6E000E1E6E010E1D6E26EC52F0B0ECF2
:105A080052F04DEC4EF01200116E1150D8B40FEF59
:105A18002DF011EF2DF033EF2DF00CBE18EF2DF017
:105A280016EF2DF033EF2DF009C00DF00AC00EF07F
:105A38000BC00FF00CC010F00D1E0E1E0F1E101E16
:105A48000D2A000E0E220F2210220DC013F00EC0D8
:105A580014F00FC015F010C016F03BEF2DF009C080
:105A680013F00AC014F00BC015F00CC016F0095062
:105A78000A100B100C10D8A444EF2DF046EF2DF0AF
:105A880050EF2DF0000E096E000E0A6E000E0B6E20
:105A9800000E0C6EE1EF2DF0960E126E5AEF2DF0FF
:105AA800122AD8901632153214321332000E1314FB
:105AB8000D6E000E14140E6E000E15140F6EFE0EF1
:105AC8001614106E0D500E100F101010D8A46FEF92
:105AD8002DF071EF2DF054EF2DF07FEF2DF0122AFD
