:020000040000FA
:04000000DEEF01F03E
:100018007780D8CF04F0E8CF05F0E0CF06F0D9CF4D
:1000280007F0DACF08F09EAA1CEF00F01EEF00F0F0
:100038007AEF00F0959C838C010E0101696F900E98
:10004800686F000E706E000E6F6E84697680860E83
:10005800666F010E676F5BEF00F09EAA36EF00F047
:1000680038EF00F058EF00F0839C838C66C1D9FF0D
:1000780067C1DAFFAECFDFFF70BE4EEF00F0705001
:1000880007E1290E6F5CD8B04CEF00F04EEF00F09E
:1000980052EF00F06F4A702A664B672B010E696FAA
:1000A800900E686F5BEF00F06807D8A06907685189
:1000B8006911D8A462EF00F064EF00F031EF00F0AE
:1000C800839CABA26AEF00F06CEF00F07AEF00F0CF
:1000D800AB98AB88AECF68F1696BAECF68F1696B4E
:1000E800AECF68F1696B000E866F76829EA07FEFB7
:1000F80000F081EF00F099EF01F09E903C0ECF6E7A
:10010800B40ECE6E010E0001E56FF2B18EEF00F075
:1001180090EF00F092EF00F0000EE56F000E706EA9
:10012800010E6F6EABEF00F0510E6F24D96E010E09
:100138007020DA6EDF50D8A4A4EF00F0A6EF00F02C
:10014800A9EF00F0000E0001E56F6F4A702A7350A6
:10015800016E026A6F50015C0250800A036E705093
:10016800800A0358D8B0BBEF00F0BDEF00F098EF5D
:1001780000F00001E505D8A4C4EF00F0C6EF00F0D8
:10018800E9EF00F004000001F291000E706E010E1C
:100198006F6E70BED9EF00F0705009E10F0E6F5C02
:1001A800D8A0D9EF00F0DBEF00F0DDEF00F0E9EFC9
:1001B80000F0510E6F24D96E010E7020DA6E000E19
:1001C800DF6E6F4A702ACDEF00F0F50E0001C45DB6
:1001D800010EC559D8A0F3EF00F0F5EF00F0F8EFE5
:1001E80000F0819EF9EF00F0818E01017E517F11B0
:1001F800D8B401EF01F003EF01F009EF01F0320E7E
:100208007E5F000E7F5B0EEF01F0E3C07EF1E4C07D
:100218007FF1768C320E7227000E7323320E802700
:10022800000E81237450D8A41CEF01F01EEF01F0DA
:100238002AEF01F00001E0BF24EF01F026EF01F002
:100248002AEF01F0CE0EDF27FF0EE023320E010168
:100258007027000E7123320E0001C427000EC5233B
:10026800E80EC45D030EC559D8A03DEF01F03FEF7D
:1002780001F099EF01F0F3A944EF01F046EF01F026
:1002880067EF01F0F12B3B0EF1654DEF01F04FEFF9
:1002980001F067EF01F0000EF16FF02B3B0EF065F7
:1002A80058EF01F05AEF01F067EF01F0000EF06F20
:1002B800EF2B630EEF6563EF01F065EF01F067EF79
:1002C80001F0000EEF6F000EC56F000EC46FC62B55
:1002D8007150D8B472EF01F074EF01F075EF01F0CE
:1002E80071063B0EC6657BEF01F07DEF01F099EFDB
:1002F80001F0000EC66FC72BE14BE22B3B0EC76522
:1003080088EF01F08AEF01F099EF01F0000EC76F56
:10031800C82B170EC86593EF01F095EF01F099EF20
:1003280001F0000EC86F99EF01F0F2A29EEF01F004
:10033800A0EF01F0A1EF01F0F292F2A4A6EF01F014
:10034800A8EF01F0D2EF01F00D0EE82EFED700F075
:10035800000ED76EE10ED66EF29401017851791134
:10036800D8B4B9EF01F0BBEF01F0C1EF01F07807A5
:10037800D8A07907818CC2EF01F0819C825183114A
:10038800D8B4C9EF01F0CBEF01F0D1EF01F082074B
:10039800D8A08307818AD2EF01F0819A08C0DAFFDA
:1003A80007C0D9FF06C0E0FF05C0E8FF04C0D8FFBA
:1003B8007790100006EF46F0640E096E000E0A6E84
:1003C800000E0B6E000E0C6E57EC4BF0D388D38AE0
:1003D800D38C9B8CEF0E926E010E936EF00E946E82
:1003E800E30E956E9668D59AD596D582D582D58432
:1003F800F194F28AF290F2989E909F900B0ECF6E35
:10040800BA0ECE6ECD92CD88CD8ACD8CCD869D800C
:10041800CD80F28CF28E000E0101756F000E746FA4
:10042800819E000E796F000E786F819C000E836F9D
:10043800000E826F819A000E166EC20E176E010EA4
:10044800186E000E196E51EC46F0BFEC51F0A00E7C
:10045800166E860E176E010E186E000E196E29ECB8
:100468004BF0F40E096E010E0A6E000E0B6E000EB4
:100478000C6E57EC4BF0000E0E6E220E0D6EDCEC7F
:100488004EF00DC0F8F10EC0F9F10101F82906E1AE
:10049800F929D8A452EF02F054EF02F068EF02F005
:1004A800000E296E220E286E000E2B6E000E2A6E8C
:1004B8004CEC50F0000E296EE80E286E000E2B6EE4
:1004C800000E2A6E4CEC50F00101F84BF92B000E8F
:1004D800296E220E286EF8C12AF0F9C12BF04CECD7
:1004E80050F07598000E0E6EFA0E0D6EDCEC4EF0A4
:1004F8000DC0D3F00EC0D4F02C0E096E010E0A6E9A
:10050800000E0B6E000E0C6E57EC4BF0830E206E37
:10051800FC0E216E36EC3BF02C0E096E010E0A6EB5
:10052800000E0B6E000E0C6E57EC4BF0120E206E88
:10053800FE0E216E36EC3BF02C0E096E010E0A6E93
:10054800000E0B6E000E0C6E57EC4BF0B10E206EC9
:10055800FC0E216E36EC3BF02C0E096E010E0A6E75
:10056800000E0B6E000E0C6E57EC4BF0070E1D6E56
:10057800C60E1C6EA50E1E6E030E1F6E71EC51F09A
:10058800500E0D6E020E0E6ECA0E0F6EFE0E106E1F
:10059800CBEC4AF0500E176E020E186EA50E196EAF
:1005A800030E1A6E85EC50F0500E206E020E216E6E
:1005B80036EC3BF02C0E096E010E0A6E000E0B6E27
:1005C800000E0C6E57EC4BF0A0EC26F0500E00011C
:1005D800D319D411D8A4F3EF02F0F5EF02F0F9EF34
:1005E80002F00C0EE66F05EF03F0320ED319D411AA
:1005F800D8A401EF03F003EF03F005EF03F0090EB1
:10060800E66F000E0A6E340E096E01EC4EF0FF0A1A
:10061800D8A411EF03F013EF03F082EF03F0D10E2B
:10062800206EFC0E216E36EC3BF00A0E316E000E89
:100638002BEC3CF0DCEC4BF038EC4AF02BEC49F0BE
:10064800000E746E000E0001ED6FAFEC51F0000E5D
:10065800236E100E226E000E246EB9EC47F0000EC9
:10066800296E090E286E000E2B6E0A0E2A6E4CECAF
:1006780050F0000E296E0B0E286E400E2A6EE20E08
:100688002B6E010E2C6E000E2D6E22EC4EF0000E1D
:10069800ABEC0DF0000E236E110E226E000E246ED0
:1006A800B9EC47F0000E236E120E226E000E246E77
:1006B800B9EC47F01AEC3DF0000E206E000E216EEA
:1006C800000E226E000E236E000E256E000E246EA4
:1006D800000ECFEC4FF0020E206E000E216E000EC1
:1006E800226E000E236E000E246E000E256E000E84
:1006F800266E000E276E000E84EC4FF0AEEC3FF035
:10070800010EABEC0DF0000E0E6E0B0E0D6E25EC0F
:100718004DF00DC0CDF00EC0CEF00FC0CFF010C020
:10072800D0F02FEC47F004EC42F09FEC4FF0020EB3
:10073800246E000E256E000E266E000E276E000E2B
:1007480065EC42F024C0C9F025C0CAF026C0CBF041
:1007580027C0CCF0C00E206EFD0E216E36EC3BF0AB
:100768009CEC4AF00009D8B4BCEF03F0BEEF03F0EC
:10077800C6EF03F01F0E206EFF0E216E36EC3BF025
:1007880000EF04F0000E206EFF0E216E36EC3BF0F9
:10079800030E196EE80E186E69EC4FF0290E000171
:1007A800C16F960EC06F7F0EE82EFED7C02FFCD704
:1007B800C12FFAD7030E196EE80E186E69EC4FF0C8
:1007C800290E0001C16F960EC06F7F0EE82EFED76E
:1007D800C02FFCD7C12FFAD7030E196EE80E186E7A
:1007E80069EC4FF0D00E096E070E0A6E000E0B6E04
:1007F800000E0C6E57EC4BF08F0E206EFE0E216E25
:1008080036EC3BF0000E0101FA6F0E0EFA650FEFA1
:1008180004F011EF04F013EF04F01CEF04F00400EF
:100828000101FA5103EC2EF00101FA2B09EF04F053
:10083800000EFB6F070EFB6524EF04F026EF04F0B3
:1008480028EF04F032EF04F00400FBC123F0246A1F
:100858009CEC37F00101FB2B1EEF04F0000E0E6E2E
:100868000B0E0D6E25EC4DF00DC0CDF00EC0CEF088
:100878000FC0CFF010C0D0F02FEC47F0C6EC1EF040
:1008880004EC42F09FEC4FF0DDEC40F06BEC45F0EF
:10089800000E0001F76F000EF66F000E0101F06FF9
:1008A800000EEF6F000E0001EE6F000E0101736F76
:1008B800000E726F000E0001E96F000E01016F6FEC
:1008C800000E6E6F000E6D6F000E6C6F000E000153
:1008D800DE6F000EDD6F000E32EC4CF0000E0001F2
:1008E800C56F000EC46F000EC66F000EF16FF3C027
:1008F800E7F0000E716E13EC40F071EC2BF0000E77
:10090800196E0F0E186E36EC51F0959A839A000105
:10091800F2817586E90E0101725D030E7359D8A044
:1009280098EF04F09AEF04F0B8EF04F0000E736F3C
:10093800000E726FB1EC38F012C0F6F013C0F7F089
:100948000101EF510001F6190BE10101F05100011D
:10095800F719D8B4B2EF04F0B4EF04F0B8EF04F02C
:10096800F6C0EFF1F7C0F0F175967586050E000137
:10097800C661C1EF04F0C3EF04F0D0EF04F0190E24
:10098800F619F711D8B4CBEF04F0CDEF04F0D0EF9F
:1009980004F0000E32EC4CF00001F3A9D6EF04F09D
:1009A800D8EF04F0DAEF04F003EC3EF0DDEC40F0B1
:1009B8006BEC45F07596CAEC2EF04EEC2CF010EC72
:1009C80037F0A3EC23F0F9EC32F076EC44F07586BE
:1009D8000001E751F319D8B4F4EF04F0F6EF04F08E
:1009E80002EF05F04CEC4DF0000E236E100E226E57
:1009F800F3C024F0B9EC47F0F3C0E7F0FAEC4AF0A2
:100A08007596C6EC1EF088EC21F0758655EF0AF055
:100A1800000E0101FD6F090EFD6515EF05F017EFDA
:100A280005F019EF05F058EF05F0070EFD251C6ECF
:100A38001D6A000E1D2239EC50F01C041D10D8A4AC
:100A480028EF05F02AEF05F054EF05F0070E010135
:100A5800FD251B6E1C6A000E1C22000E1E6E000E69
:100A68001D6E25EC51F0FDC1EBF0050E0001EB61A8
:100A780040EF05F042EF05F04CEF05F0130EEA6F7A
:100A8800000E196E1B0E186E36EC51F054EF05F07F
:100A9800150EEA6F000E196E1C0E186E36EC51F02A
:100AA8000101FD2B0FEF05F03DEC20F090EF0AF06F
:100AB800000E1D6E010E1C6E39EC50F01C041D104A
:100AC800D8A469EF05F06BEF05F090EF0AF0000E7F
:100AD8001C6E010E1B6E000E1E6E000E1D6E25ECA8
:100AE80051F03AEC3AF090EF0AF0EE51D8A47FEFCB
:100AF80005F081EF05F086EF05F0010E32EC4CF0C1
:100B08000001EE2B000E1D6E980E1C6E39EC50F095
:100B18001C041D10D8A493EF05F095EF05F0A2EF83
:100B280005F0000E1C6E980E1B6E000E1E6E000E59
:100B38001D6E25EC51F0010E32EC4CF0000E1D6ECE
:100B4800AE0E1C6E39EC50F01C041D10D8A4AFEF8B
:100B580005F0B1EF05F090EF0AF0000E1C6EAE0E36
:100B68001B6E000E1E6E000E1D6E25EC51F09CECE7
:100B780049F090EF0AF0000EEC6F070EEC65C7EF36
:100B880005F0C9EF05F0CBEF05F000EF06F0200EF9
:100B9800EC251C6E1D6A000E1D2239EC50F01C0459
:100BA8001D10D8A4DAEF05F0DCEF05F0FCEF05F036
:100BB800200E0001EC251B6E1C6A000E1C22000E84
:100BC8001E6E000E1D6E25EC51F0EAC018F0196A71
:100BD80036EC51F0CE0E176E010E186E0001EC5176
:100BE800DBEC3EF0010E236E0001EB5170EC3EF0A1
:100BF8000001EC2BC1EF05F0000E1D6E110E1C6EEE
:100C080039EC50F01C041D10D8A40DEF06F00FEFBE
:100C180006F01EEF06F0000E1C6E110E1B6E000E85
:100C28001E6E000E1D6E25EC51F0EAC018F0196A10
:100C380036EC51F0000E1D6E120E1C6E39EC50F0A1
:100C48001C041D10D8A42BEF06F02DEF06F090EF32
:100C58000AF0000E1C6E120E1B6E000E1E6E000EA9
:100C68001D6E25EC51F0000E0101D46FD50E0D6EEE
:100C7800010E0E6E2C0E0F6EFD0E106ECBEC4AF0B0
:100C8800000E0101D36F000ED26F000ED16F000E5F
:100C9800D06F000ECF6F000ECE6F000E236E0001D6
:100CA800EB5170EC3EF0EAC018F0196A36EC51F0DE
:100CB80090EF0AF0000E0101FC6FA1EF06F0FC5165
:100CC8001E0DF3CFC0F0F4CFC1F0170E0001C02500
:100CD8001C6E100EC1211D6E39EC50F01C041D1045
:100CE800D8A479EF06F07BEF06F09FEF06F001013C
:100CF800FC511E0DF3CFC0F0F4CFC1F0170E000168
:100D0800C0251B6E100EC1211C6E000E1E6E000E3B
:100D18001D6E25EC51F00101FC5199EC27F0000EF5
:100D2800196E230E186E36EC51F045EC51F017ECA5
:100D380013F0ACEF06F00101FC2B0001E6510101B4
:100D4800FC5DD8A0AAEF06F0ACEF06F063EF06F062
:100D5800000E1D6E300E1C6E39EC50F01C041D1078
:100D6800D8A4B9EF06F0BBEF06F0C7EF06F0000E07
:100D78001C6E300E1B6E000E1E6E000E1D6E25ECD6
:100D880051F01AEC3DF013EC40F0000E1D6EAF0E62
:100D98001C6E39EC50F01C041D10D8A4D6EF06F0D8
:100DA800D8EF06F090EF0AF0000E1C6EAF0E1B6E27
:100DB800000E1E6E000E1D6E25EC51F085EC4CF0F9
:100DC80090EF0AF0100ECD19C06F2F0ECE19C16F1B
:100DD800BA0ECF19C26FE40ED019C36FC01D01013E
:100DE800F26F0001C11D0101F36F0001C21D010175
:100DF800F46F0001C31D0101F56FF2C116F0F3C1D4
:100E080017F0F4C118F0F5C119F0500E1A6E020E61
:100E18001B6E000E1D6E100E1C6ED0EC34F0060E0C
:100E28001B6E7C0E1A6E500E1C6E020E1D6E72EC3E
:100E380050F0F40E096E010E0A6E000E0B6E000ED5
:100E48000C6E3CEC48F0010E1D6E820E1C6E39ECE7
:100E580050F01C041D10D8A434EF07F036EF07F04B
:100E680090EF0AF0010E1C6E820E1B6E000E1E6EB5
:100E7800000E1D6E25EC51F00FEC1DF090EF0AF0FE
:100E88007586030EF56F100EF46FF5BF55EF07F07A
:100E98001D0EF45D030EF559D8A055EF07F057EF76
:100EA80007F059EF07F019EF0AF0F451F00FE86F67
:100EB800F4C01CF0F5C01DF039EC50F00E0E1C18F3
:100EC8001D10D8A46AEF07F06CEF07F01EEF09F0C9
:100ED8000001ED51D8B473EF07F075EF07F00EEF8E
:100EE80009F0320ED319D411D8A47DEF07F07FEFA3
:100EF80007F082EF07F0E8C0D1F0D26B500ED3199B
:100F0800D411D8A48AEF07F08CEF07F093EF07F01D
:100F180079EC48F00001C06FC051D16FD26BD2BFDD
:100F2800A1EF07F0D25107E1080ED15DD8B09FEFCD
:100F380007F0A1EF07F0D2EF08F0100EE8251B6EBE
:100F48001C6A030E1C22010EE8251D6E1E6A000E87
:100F58001E2225EC51F0D1C015F0D2C016F0000EBB
:100F6800186E0A0E176E98EC50F0FD0E15241B6EC5
:100F7800060E16201C6E010ED1C0C0F0D2C0C1F002
:100F8800C0C0C1F00001C06BC0111D6EC1511E6E02
:100F980025EC51F0D1C015F0D2C016F0000E186E35
:100FA8000A0E176E98EC50F0FB0E15241B6E060EF9
:100FB80016201C6E0001E851020D370EF324D96E7D
:100FC800010EF420DA6EDECF1DF0DDCF1EF025EC29
:100FD80051F05A0E0001D125D96E030ED221DA6ED6
:100FE800D1C0DFFF690ED125D96E030ED221DA6E8A
:100FF800E829DF6E780EE825D96EDA6A030EDA2260
:10100800E829DF6EE851020D370EF324D96E010E80
:10101800F420DA6ED890D135E16ED235E26E870EC3
:10102800E126030EE222DECFE6FFDDCFE5FF000E6C
:10103800C06F030EC16F1E0EC027000EC123D890CB
:10104800D135D96ED235DA6ED890D936DA36C05164
:10105800D926C151DA22000EDE6E000EDE6E800E39
:10106800DE6E3F0EDD6E020EE8653DEF08F03FEFE5
:1010780008F048EF08F0010EE8250101F66FF76B5C
:10108800000EF7234CEF08F0E8C0F6F10101F76B0A
:10109800F6C1C0F0F7C1C1F0D8900001C037C13720
:1010A800B00EC26F010EC36FC051C227C151C32316
:1010B800D890D135D96ED235DA6E000ED926030E06
:1010C800DA22C2C0DEFFC3C0DDFF000EC06F030E10
:1010D800C16F1E0EC027000EC123D890D135D96E1E
:1010E800D235DA6ED890D936DA36C051D926C15100
:1010F800DA22000EDE6E000EDE6E800EDE6E3F0E11
:10110800DD6EE851D8A48BEF08F08DEF08F0A9EF59
:1011180008F0000EC06F030EC16F1E0EC027000E30
:10112800C123D890D135D96ED235DA6ED890D93658
:10113800DA36C051D926C151DA22550EDE6EC10EFB
:10114800DE6EE80EDE6E3E0EDD6EE805D8A4AFEF6B
:1011580008F0B1EF08F0CDEF08F0000EC06F030EF5
:10116800C16F1E0EC027000EC123D890D135D96E8D
:10117800D235DA6ED890D936DA36C051D926C1516F
:10118800DA22CD0EDE6ECC0EDE6E4C0EDE6E3D0E1D
:10119800DD6E020EABEC0DF014EF0AF0D1C015F0C5
:1011A800D2C016F0000E186E0A0E176E98EC50F0AA
:1011B800FD0E15241B6E060E16201C6E0001D15163
:1011C800C16FC06B000EC0111D6E0A0EC1111E6EDC
:1011D80025EC51F0D1C015F0D2C016F0000E186EF3
:1011E8000A0E176E98EC50F0FB0E15241B6E060EB7
:1011F80016201C6EFF0E1E6E1D6825EC51F0F4C003
:101208001BF0F5C01CF0FF0E1E6E1D6825EC51F09A
:1012180014EF0AF014EC51F0F4C01BF0F5C01CF008
:10122800FF0E1E6E1D6825EC51F0520ED4EC51F0E5
:1012380014EF0AF0F4C01CF0F5C01DF039EC50F0C2
:101248001D5009E10F0E1C5CD8A02DEF09F02FEFFF
:1012580009F014EF0AF0F4C01CF0F5C01DF039ECE9
:1012680050F01D5007E11F0E1C5CD8B03EEF09F08E
:1012780040EF09F014EF0AF00001ED51D8B447EF40
:1012880009F049EF09F0D7EF09F0690E096E030E6E
:101298000A6EE8290B6EA0EC4EF00101FE6F690E94
:1012A8000001E825D96EDA6A030EDA22DF50C06F32
:1012B800C0050101F16FF4C01BF0F5C01CF0FF0E72
:1012C8001E6E1D6825EC51F00101FE510A0DF3CF89
:1012D800C0F0F4CFC1F0FD0E0001C0251B6E060E54
:1012E800C1211C6E0A0E1E6E000E1D6E25EC51F0FB
:1012F8000101FE510A0DF3CFC0F0F4CFC1F0FB0E8F
:101308000001C0251B6E060EC1211C6EFF0E1E6E4D
:101318001D6825EC51F00101FE51020D000EF32469
:10132800D96E030EF420DA6E000EDE6E000EDD6E4E
:101338005A0EFE25D96EDA6A030EDA220A0EDF6E1D
:10134800690EFE25D96EDA6A030EDA22FF0EDF6E09
:10135800780E0001E825D96EDA6A030EDA22FF0E4C
:10136800DF6E0101FE51020D870EF324D96E030EC4
:10137800F420DA6EFF0EDE6EFF0EDD6EFE51040DF8
:101388001E0EF324D96E030EF420DA6E000EDE6E04
:10139800000EDE6E000EDE6E000EDD6E020EABEC91
:1013A8000DF014EF0AF014EC51F0520ED4EC51F099
:1013B800320E0001D319D411D8A4E5EF09F0E7EFF4
:1013C80009F0F8EF09F0F4C01BF0F5C01CF0690E45
:1013D800E825D96EDA6A030EDA22DF50C06FC051F1
:1013E8001D6E1E6A25EC51F0500E0001D319D41160
:1013F800D8A401EF0AF003EF0AF014EF0AF0F4C0E2
:101408001BF0F5C01CF0780EE825D96EDA6A030ED9
:10141800DA22DF50C06FC0511D6E1E6A25EC51F0F4
:101428000001F44BF52B49EF07F0759690EF0AF0A1
:10143800E1EC50F0000E0001EC6F070EEC6527EFB1
:101448000AF029EF0AF02BEF0AF090EF0AF0200ECD
:10145800EC251C6E1D6A000E1D2239EC50F01C0490
:101468001D10D8A43AEF0AF03CEF0AF04DEF0AF04D
:10147800200E0001EC251B6E1C6A000E1C22000EBB
:101488001E6E000E1D6E25EC51F01BEC45F090EF22
:101498000AF00001EC2B21EF0AF082EC17F090EF34
:1014A8000AF0F6C0C0F0F7C0C1F00001C151000A4F
:1014B800D8B461EF0AF090EF0AF0C051130AD8B41B
:1014C8000CEF05F0060AD8B40CEF05F0020AD8B400
:1014D8005CEF05F00E0AD8B479EF05F0020AD8B42B
:1014E800BFEF05F0070AD8B4BFEF05F0010AD8B47A
:1014F8005EEF06F0020AD8B4E6EF06F03C0AD8B46C
:1015080044EF07F00C0AD8B41CEF0AF01E0AD8B44E
:1015180051EF0AF090EF0AF040EC41F08BEF04F045
:10152800DEEF01F007C2B5F008C2B4F009C2B3F0AB
:101538000AC2B2F02CEF0DF006513E6E0751226E32
:101548003EC023F008C224F0B9EC47F0030EB8EC13
:101558004FF0C6EC51F0D9EC51F0AAEF0DF006515E
:101568003E6E0751096E3EC00AF001EC4EF00001D4
:10157800AC6F010EB8EC4FF00001AC51ABEC50F081
:10158800AAEF0DF0075106C23EF03F6A3EC03FF099
:101598003E6A3E100001AA6F3F50AB6F020109512D
:1015A80008C23EF03F6A3EC03FF03E6A3E1000016E
:1015B800A86F3F50A96FAAC028F0ABC029F0A8C0F7
:1015C8002AF0A9C02BF04CEC50F0030EB8EC4FF009
:1015D800ADEF0AF006513E6E07510D6E3EC00EF09B
:1015E800DCEC4EF00DC0AFF00EC0B0F0020EB8EC5F
:1015F8004FF0AFC00AF0B0C00BF0CDEC51F0AAEF3D
:101608000DF006513E6E0751286E3EC029F0080EB7
:101618002A6E020E2B6E73EC4DF0030EB8EC4FF0F1
:10162800C6EC51F0AAEF0DF006513E6E07510D6E53
:101638003EC00EF0500E0F6E020E106E42EC4EF0D1
:101648004A0EB8EC4FF0500E0A6E020E0B6EE7EC25
:1016580046F0AAEF0DF0B2C020F0B3C021F0B4C03C
:1016680022F0B5C023F00BC224F006515FEC50F015
:10167800030EB8EC4FF014EF0BF0B2C024F0B3C077
:1016880025F0B4C026F0B5C027F0065125EC50F07F
:101698000001AC6F010EB8EC4FF00001AC51ABEC9F
:1016A80050F0AAEF0DF0B2C020F0B3C021F0B4C0E2
:1016B80022F0B5C023F00C510BC23EF03F6A3EC089
:1016C8003FF03E6A3E10246E3F50256E0651CFEC27
:1016D8004FF0030EB8EC4FF014EF0BF0B2C024F04B
:1016E800B3C025F0B4C026F0B5C027F0065131ECE0
:1016F8004FF024C0AFF025C0B0F0020EB8EC4FF0A8
:10170800FDEF0AF00BC2ADF0B2C010F0B3C011F09B
:10171800B4C012F0B5C013F0ADC014F0A50E156E2C
:10172800030E166E0651A3EC24F00001AD51B8EC7F
:101738004FF0A50E0A6E030E0B6EADC00CF015EC43
:101748004FF0AAEF0DF0B2C00DF0B3C00EF0B4C068
:101758000FF0B5C010F00BC211F00C0E126E020E95
:10176800136E0651A3EC25F0030EB8EC4FF014EFFE
:101778000BF0B2C00DF0B3C00EF0B4C00FF0B5C09E
:1017880010F00B0E116E020E126E065191EC2FF036
:10179800030EB8EC4FF014EF0BF0B2C010F0B3C06A
:1017A80011F0B4C012F0B5C013F0500E146E020E52
:1017B800156E06519BEC22F0500E096E020E0A6E51
:1017C800FDEC4CF00950B8EC4FF027EF0BF0075147
:1017D8003E6E0851296E3EC02AF0065184EC4BF04B
:1017E800030EB8EC4FF014EF0BF0020EB8EC4FF00C
:1017F8000001EF51ABEC50F00001F051ABEC50F0B0
:10180800AAEF0DF0800E1B6E000E1C6E8A0E1D6E68
:10181800000E1E6E83EC2AF0090EB8EC4FF00201A0
:101828000651D8A41AEF0CF01CEF0CF024EF0CF0C2
:10183800800E0A6E000E0B6EE7EC46F0AAEF0DF074
:101848008A0E0A6E000E0B6EE7EC46F0AAEF0DF05A
:10185800000E0001B16F070EB16535EF0CF037EFE0
:101868000CF039EF0CF04AEF0CF0060EB125D96EEA
:10187800DA6A020EDA22940EB125E16EE26A000EEF
:10188800E222DFCFE7FFB12B2FEF0CF0000E9C6FA9
:10189800000EB16F070EB16554EF0CF056EF0CF067
:1018A80058EF0CF069EF0CF00E0EB125D96EDA6A1C
:1018B800020EDA229E0EB125E16EE26A000EE222E5
:1018C800DFCFE7FFB12B4EEF0CF0000EA66F940EA2
:1018D8000D6E000E0E6E9E0E0F6E000E106E51EC09
:1018E80030F0AAEF0DF006513E6E07511A6E3EC059
:1018F8001BF00951416E406A0851426E436A4050DC
:1019080042101C6E415043101D6ED0EC50F0030E77
:10191800B8EC4FF014EF0BF0838A06513F6E3E6A25
:1019280007513E241C6E000E3F201D6EE6EC4FF062
:101938001CC0AFF01DC0B0F0839A838A500E096EA8
:10194800020E0A6EFDEC4CF00950B8EC4FF0AFC037
:101958000AF0B0C00BF0CDEC51F0839AAAEF0DF06D
:1019680006513E6E0751186E3EC019F069EC4FF0F3
:10197800030EB8EC4FF014EF0BF006513E6E075112
:10198800186E3EC019F036EC51F0030EB8EC4FF06B
:1019980014EF0BF00651D4EC51F0030EB8EC4FF0F5
:1019A80014EF0BF00651040F03EC2EF0030EB8EC05
:1019B8004FF014EF0BF00A0E316E000E2BEC3CF0DA
:1019C800000E0001AE6F0E0EAE65EDEF0CF0EFEFFE
:1019D8000CF0F1EF0CF0F8EF0CF0AE5103EC2EF038
:1019E8000001AE2BE7EF0CF0030EB8EC4FF014EF4C
:1019F8000BF08BEC29F0030EB8EC4FF014EF0BF062
:101A080006513E6E07511A6E3EC01BF0080E1C6E42
:101A1800020E1D6E72EC50F0030EB8EC4FF014EF8E
:101A28000BF006513E6E07511C6E3EC01DF0500E65
:101A38001E6E020E1F6E71EC51F0500E096E020EF2
:101A48000A6EFDEC4CF00950B8EC4FF027EF0BF0A4
:101A5800020104513E6E3F6A3F50000AD8B437EF86
:101A68000DF0AAEF0DF03E50080AD8B4A0EF0AF026
:101A7800010AD8B4B3EF0AF0030AD8B4C6EF0AF0E3
:101A8800010AD8B4EEEF0AF0070AD8B405EF0BF054
:101A9800010AD8B418EF0BF01C0AD8B42FEF0BF0DA
:101AA800030AD8B441EF0BF0010AD8B457EF0BF092
:101AB800070AD8B472EF0BF0010AD8B4BDEF0BF0E7
:101AC800030AD8B4D1EF0BF0010AD8B4A7EF0BF092
:101AD8000F0AD8B486EF0BF0010AD8B4EBEF0BF07D
:101AE800390AD8B477EF0CF0010AD8B490EF0CF0AB
:101AF800030AD8B404EF0DF0010AD8B415EF0DF0BD
:101B0800070AD8B4B4EF0CF0010AD8B4C1EF0CF04E
:101B1800030AD8B4CEEF0CF00B0AD8B4F9EF0BF0E7
:101B2800030AD8B406EF0CF0010AD8B42CEF0CF075
:101B38006D0AD8B4D6EF0CF0010AD8B4DFEF0CF078
:101B4800070AD8B4FDEF0CF0AAEF0DF01200346EBE
:101B58009AEC33F09DEF10F0000E3C6E3C50020DF5
:101B6800870EF324D96E030EF420DA6EFF0EDE6EB4
:101B7800FF0EDD6E5A0E3C24D96EDA6A030EDA22A5
:101B88000A0EDF6E690E3C24D96EDA6A030EDA2279
:101B9800FF0EDF6E780E3C24D96EDA6A030EDA2265
:101BA800FF0EDF6E3C50020D000EF324D96E030EBB
:101BB800F420DA6E000EDE6E000EDD6E3C50040D71
:101BC8001E0EF324D96E030EF420DA6E000EDE6EBC
:101BD800000EDE6E000EDE6E000EDD6E130E3C246F
:101BE800226E236A000E2322780E3C24D96EDA6A0C
:101BF800030EDA22DF50246EB9EC47F0EA0E3C24DB
:101C0800226E236A000E2322690E3C24D96EDA6AFA
:101C1800030EDA22DF50246EB9EC47F0240E3C2480
:101C2800226E236A000E23225A0E3C24D96EDA6AE9
:101C3800030EDA22DF50246EB9EC47F0100E3C2474
:101C48001B6E1C6A030E1C22FF0E1E6E1D6825ECFF
:101C580051F03C500A0DF3CF2EF0F4CF2FF0FD0ECB
:101C68002E241B6E060E2F201C6E0A0E1E6E000EF2
:101C78001D6E25EC51F03C500A0DF3CF2EF0F4CF39
:101C88002FF0FB0E2E241B6E060E2F201C6EFF0E4F
:101C98001E6E1D6825EC51F03C2A0C0E3C6457EF73
:101CA8000EF059EF0EF0B2EF0DF0B6EF10F0000E97
:101CB8000E6E130E0D6E780E0F6E030E106E0F0E55
:101CC800116EBEEC4EF0000E0E6EEA0E0D6E690E31
:101CD8000F6E030E106E0F0E116EBEEC4EF0000E5E
:101CE8000E6E240E0D6E5A0E0F6E030E106E0F0E32
:101CF800116EBEEC4EF0000E3C6E780E3C24D96E90
:101D0800DA6A030EDA22DF50376E3728D8B48FEF3D
:101D18000EF091EF0EF09EEF0EF0100E3C241B6EAD
:101D28001C6A030E1C2237C01DF01E6A25EC51F0F8
:101D3800A9EF0EF0100E3C241B6E1C6A030E1C2229
:101D4800FF0E1E6E1D6825EC51F03C2A0C0E3C64FB
:101D5800B0EF0EF0B2EF0EF081EF0EF0000E3C6E19
:101D68005A0E3C24D96EDA6A030EDA22080EDF60B6
:101D7800C0EF0EF0C2EF0EF0DAEF0EF0690E3C2461
:101D8800D96EDA6A030EDA22DF502E6E2F6AD890E7
:101D98002E362F36350E2E24D96E010E2F20DA6EF0
:101DA800DECF39F0DDCF3AF0DCEF0EF039683A6873
:101DB8003C500A0DF3CF2EF0F4CF2FF0FB0E2E245B
:101DC8001B6E060E2F201C6E39C01DF03AC01EF087
:101DD80025EC51F03C50020D870EF324D96E030E0A
:101DE800F420DA6E39C0DEFF3AC0DDFF3C2A0C0E63
:101DF8003C6401EF0FF003EF0FF0B4EF0EF0000EAC
:101E08003C6E5A0E3C24D96EDA6A030EDA22DF5091
:101E1800386E080E386013EF0FF015EF0FF030EF43
:101E28000FF03C500A0DF3CF2EF0F4CF2FF0FD0E3B
:101E38002E241B6E060E2F201C6E010E38C030F0AB
:101E4800316A30C031F0306A30101D6E31501E6E6C
:101E580025EC51F042EF0FF03C500A0DF3CF2EF075
:101E6800F4CF2FF0FD0E2E241B6E060E2F201C6EB5
:101E78000A0E1E6E000E1D6E25EC51F03C2A0C0E4B
:101E88003C6449EF0FF04BEF0FF005EF0FF0000E39
:101E98003B6E5A0E3B24D96EDA6A030EDA220A0E1A
:101EA800DE18D8B45AEF0FF05CEF0FF038EF10F0EF
:101EB800FF0E2E6EFF0E2F6E5A0E3B24D96EDA6A75
:101EC800030EDA22DF50306E316A690E3024D96E83
:101ED800030E3120DA6EDF50326E336A2E5032260E
:101EE8002F50332233BE82EF0FF0335009E1030E37
:101EF800325CD8A082EF0FF084EF0FF09AEF0FF06A
:101F08005A0E3B24D96EDA6A030EDA22DF502E6E9F
:101F18002F6A690E2E24D96E030E2F20DA6EDF5039
:101F2800306E3050356E366AB1EF0FF05A0E3B24E2
:101F3800D96EDA6A030EDA22DF502E6E2F6A690E26
:101F48002E24D96E030E2F20DA6EDF50306EFF0E6E
:101F58003024356E366AFF0E362235C02EF036C074
:101F68002FF0D8902E362F36B00E306E010E316E0F
:101F78002E5030262F5031225A0E3B24D96EDA6A61
:101F8800030EDA22DF50326E3250020D000EF324B7
:101F9800D96E030EF420DA6E30C0DEFF31C0DDFFEB
:101FA8005A0E3B24D96EDA6A030EDA22DF502E6EFF
:101FB8002E50040D1E0EF324D96E030EF420DA6E93
:101FC800000EDE6E000EDE6E800EDE6E3F0EDD6EE3
:101FD8005A0E3B24D96EDA6A030EDA22DF50D8A4EF
:101FE800F8EF0FF0FAEF0FF012EF10F05A0E3B2453
:101FF800D96EDA6A030EDA22DF502E6E2E50040DE7
:102008001E0EF324D96E030EF420DA6E550EDE6E22
:10201800C10EDE6EE80EDE6E3E0EDD6E5A0E3B24FD
:10202800D96EDA6A030EDA22DE04D8A41EEF10F0A5
:1020380020EF10F038EF10F05A0E3B24D96EDA6A10
:10204800030EDA22DF502E6E2E50040D1E0EF324DE
:10205800D96E030EF420DA6ECD0EDE6ECC0EDE6E77
:102068004C0EDE6E3D0EDD6E3B2A070E3B643FEFE5
:1020780010F041EF10F04DEF0FF0B6EF10F0000E3A
:102088003C6E100E3C241C6E1D6A030E1D2239EC9A
:1020980050F0780E3C24D96EDA6A030EDA221CC09E
:1020A800DFFF3C500A0DF3CF2EF0F4CF2FF0FD0EDA
:1020B8002E241C6E060E2F201D6E39EC50F01DC00C
:1020C8001CF01D6A5A0E3C24D96EDA6A030EDA2215
:1020D8001CC0DFFF3C2A0D0E3C6475EF10F077EF53
:1020E80010F045EF10F0000E296E130E286E780ED2
:1020F8002A6E030E2B6E0F0E2C6E62EC4EF0000E45
:10210800296EEA0E286E690E2A6E030E2B6E0F0ECC
:102118002C6E62EC4EF0000E296E240E286E5A0EBC
:102128002A6E030E2B6E0F0E2C6E62EC4EF0B6EF7D
:1021380010F034502E6E2F6A2F50000AD8B4A7EF33
:1021480010F0B6EF10F02E50000AD8B4B0EF0DF032
:10215800010AD8B45BEF0EF0030AD8B443EF10F0CD
:10216800B6EF10F012003350800B3C6E335033241E
:102178003E6E32AEC2EF10F0C4EF10F0C5EF10F0B3
:102188003E803E50D8B4CBEF10F0CDEF10F0E2EF28
:1021980010F03E28D8A4D3EF10F0D5EF10F0DDEF03
:1021A80010F0000E306E000E316E000E326E000E12
:1021B800336E328E000E336EEAEF10F0000E306E82
:1021C800000E316E000E326E000E336E3750800BEB
:1021D8003D6E3C503D18D8B4F4EF10F0F6EF10F017
:1021E800F7EF10F03C8C375037243D6E36AEFFEFDA
:1021F80010F001EF11F002EF11F03D803D50D8B41E
:1022080008EF11F00AEF11F01FEF11F03D28D8A4E4
:1022180010EF11F012EF11F01AEF11F0000E346EFA
:10222800000E356E000E366E000E376E368E000EBE
:10223800376E27EF11F0000E346E000E356E000E6B
:10224800366E000E376E3E503D5CD8B02EEF11F062
:1022580030EF11F057EF11F03CAC35EF11F037EFDC
:1022680011F039EF11F0800E3C1A3EC03FF03DC02E
:102278003EF03FC03DF030C03FF034C030F03FC0CA
:1022880034F031C03FF035C031F03FC035F032C0D6
:102298003FF036C032F03FC036F033C03FF037C0B1
:1022A80033F03FC037F0000E3F6E3E503DC038F06F
:1022B800396A385E000E395A39BE6CEF11F0395060
:1022C80009E11A0E385CD8A06CEF11F06EEF11F02E
:1022D800A5EF11F03050311032103310D8A477EF39
:1022E80011F07AEF11F0010E7BEF11F0000E3F6E46
:1022F800000E306E000E316E000E326E000E336E20
:102308003DC03EF0AEEF11F03FA08DEF11F08FEF22
:1023180011F095EF11F0D8903F3001093F6E97EF1B
:1023280011F0D8903F3230A09CEF11F09EEF11F0E1
:102338009FEF11F03F8E3334333232323132303244
:102348003E2A3D503E5CD8A0ACEF11F0AEEF11F044
:1023580088EF11F03CBCB3EF11F0B5EF11F0F5EFD9
:1023680011F03E50D8A4BBEF11F0BDEF11F0C7EF4C
:1023780011F0000E306E000E316E000E326E000E3F
:10238800336E16EF13F03450302635503122365064
:1023980032223750332233A0D4EF11F0D6EF11F0A8
:1023A80082EF12F03FA0DBEF11F0DDEF11F0E3EF69
:1023B80011F0D8903F3001093F6EE5EF11F0D89049
:1023C8003F3230A0EAEF11F0ECEF11F0EDEF11F031
:1023D8003F8E333433323232313230323E2A82EF5A
:1023E80012F03450305C3550315836503258335032
:1023F800800A386E3750800A3858D8B006EF12F085
:1024080008EF12F033EF12F03050345C386E315070
:102418003558396E325036583A6E335037583B6E0D
:10242800FF0E3824306EFF0E3920316EFF0E3A2031
:10243800326EFF0E3B20336E800E3C1A3F6C3F50CD
:10244800D8A429EF12F02BEF12F03BEF12F0010E97
:102458003026000E3122322233223BEF12F0345064
:10246800305E3550315A3650325A3750335A305020
:10247800311032103310D8A444EF12F046EF12F0A6
:102488007BEF12F03F50D8A44CEF12F04EEF12F051
:102498007BEF12F0000E306E000E316E000E326EC1
:1024A800000E336E16EF13F0D890303631363236D0
:1024B80033363FAE62EF12F064EF12F065EF12F0C0
:1024C80030803FA06AEF12F06CEF12F070EF12F05C
:1024D800D8803F3672EF12F0D8903F363E50D8B4CD
:1024E80078EF12F07AEF12F07BEF12F03E0632AE80
:1024F80080EF12F082EF12F058EF12F0000E3D6EEE
:102508003FAE89EF12F08BEF12F0A3EF12F03FC04D
:1025180038F07F0E3816D8B494EF12F096EF12F018
:102528009AEF12F0010E3D6EA3EF12F030A09FEF6C
:1025380012F0A1EF12F0A3EF12F096EF12F03D5057
:10254800D8B4A9EF12F0ABEF12F0D6EF12F0010EEB
:102558003026000E31223222332233A0B6EF12F099
:10256800B8EF12F0D6EF12F030C038F031C039F0C1
:1025780032C03AF033C03BF03B343B323A32393266
:10258800383238C030F039C031F03AC032F03BC090
:1025980033F03E28D8B4D3EF12F0D5EF12F0D6EFCF
:1025A80012F03E2A3E28D8B4DCEF12F0DEEF12F02B
:1025B800E6EF12F03E50D8A4E4EF12F0E6EF12F086
:1025C800F8EF12F0000E306E000E316E000E326E13
:1025D800000E336E3E50D8A4F4EF12F0F6EF12F06E
:1025E800F8EF12F0000E3C6E3EA0FDEF12F0FFEF88
:1025F80012F002EF13F0328E03EF13F0329ED890F0
:102608003E30336E3CAE0BEF13F00DEF13F00EEFD0
:1026180013F0338E30C030F031C031F032C032F0B8
:1026280033C033F01200500E0001D319D411D8A4CE
:1026380020EF13F022EF13F02CEF13F0000EAB6F26
:10264800800EAC6F0D0EAD6F440EAE6F3EEF13F003
:10265800320ED319D411D8A434EF13F036EF13F097
:102668003EEF13F0000EAB6F800EAC6FA00EAD6F97
:10267800430EAE6F000E196E230E186E36EC51F035
:102688004CEC4DF02CC1BBF02DC1BCF02EC1BDF0FF
:102698002FC1BEF0000E0001B66F000EB76F000E1E
:1026A800B86F000EB96F030E0001836F080E826FBA
:1026B800770EE82EFED7822FFCD7832FFAD7000E8D
:1026C8000001BA6FA7EF13F0030EBA19D8A46FEF81
:1026D80013F071EF13F073EF13F0A5EF13F0BAC016
:1026E80009F00A6A000E0C6E020E0B6EA2EC41F0A5
:1026F80009280001AF6FBA51010BB06FB0C0B1F03B
:10270800BEC0B2F0BDC0B3F0BCC0B4F0BBC0B5F041
:10271800140E0C6E050E0D6EB10E0E6E000E0F6EC1
:10272800AF5127EC38F00001BA51020D860EF324A0
:10273800D96E000EF420DA6E0CC0DEFF0DC0DDFF8E
:1027480004000001BA2B7350020DBA51826F836BDB
:10275800F350825D8351800A846FF450800A845953
:10276800D8A0B9EF13F0BBEF13F068EF13F0030E26
:102778000001836F080E826F770EE82EFED7822F36
:10278800FCD7832FFAD7000E0001BF6F91EF14F02A
:10279800550E1B6EC10E1C6EE80E1D6E3E0E1E6E93
:1027A800BF51020D860EF324D96E000EF420DA6EA6
:1027B800DECF09F0DDCF0AF0000E0ABEFF0E0B6E69
:1027C8000C6E010E29EC2DF009C017F00AC018F0A4
:1027D8000BC019F00CC01AF06DEC15F017C062F0C0
:1027E80018C063F019C064F01AC065F035EC39F010
:1027F80062C06CF063C06DF00001BF29B6EC48F010
:102808008FEF14F0CD0E1B6ECC0E1C6E4C0E1D6E91
:102818003D0E1E6EBF51020D860EF324D96E000EBA
:10282800F420DA6EDECF09F0DDCF0AF0000E0ABE22
:10283800FF0E0B6E0C6E010E29EC2DF009C017F07F
:102848000AC018F00BC019F00CC01AF06DEC15F0A6
:1028580017C062F018C063F019C064F01AC065F0C0
:1028680035EC39F062C06CF063C06DF00001BF292F
:10287800B6EC48F08FEF14F0000E1B6E000E1C6EC5
:10288800800E1D6E3F0E1E6EBF51020D860EF32484
:10289800D96E000EF420DA6EDECF09F0DDCF0AF033
:1028A800000E0ABEFF0E0B6E0C6E010E29EC2DF009
:1028B80009C017F00AC018F00BC019F00CC01AF0C4
:1028C8006DEC15F017C062F018C063F019C064F021
:1028D8001AC065F035EC39F062C06CF063C06DF079
:1028E8000001BF29B6EC48F08FEF14F0BF51826F9A
:1028F800836B8351000AD8B484EF14F040EF14F0CE
:102908008251000AD8B4CCEF13F0010AD8B406EF0C
:1029180014F040EF14F00001BF2B7350020DBF51AB
:10292800826F836BF350825D8351800A846FF45009
:10293800800A8459D8A0A3EF14F0A5EF14F07AEF19
:1029480014F0000E1B6E000E1C6E000E1D6E400E65
:102958001E6E01012C51305D096E2D5131590A6EE0
:102968002E5132590B6E2F5133590C6E000E29EC33
:102978002DF009C017F00AC018F00BC019F00CC0F0
:102988001AF042EC1BF017C0A7F018C0A8F019C045
:10299800A9F01AC0AAF0B6C030F0B7C031F0B8C07C
:1029A80032F0B9C033F0ABC01BF0ACC01CF0ADC006
:1029B8001DF0AEC01EF0A7C017F0A8C018F0A9C03F
:1029C80019F0AAC01AF042EC1BF017C034F018C076
:1029D80035F019C036F01AC037F0B7EC10F030C037
:1029E800B6F031C0B7F032C0B8F033C0B9F0B6C0F5
:1029F80048F0B7C049F0B8C04AF0B9C04BF06BEC2A
:102A080019F048C062F049C063F04AC064F04BC096
:102A180065F035EC39F062C0A3F063C0A4F064C07F
:102A2800A5F065C0A6F0D8900001A335826FA43543
:102A3800836FA535846FA635856F01012C51000180
:102A48008225BB6F01012D5100018321BC6F01015B
:102A58002E5100018421BD6F01012F5100018521F4
:102A6800BE6F959C838CB1EC38F0230E12181310AE
:102A7800D8B441EF15F043EF15F054EF15F0839CEF
:102A8800959E838E060E0001826F300EE82EFED7CB
:102A9800822FFCD700F0839E45EC51F06CEF15F0C7
:102AA800839C010130510001BB5D010131510001DE
:102AB800BC59010132510001BD59010133510001D6
:102AC800BE59D8A06AEF15F06CEF15F057EF13F068
:102AD80012001A50800B236E1A501A24296E19AE50
:102AE80078EF15F07AEF15F07BEF15F02980295073
:102AF800D8B481EF15F083EF15F096EF15F029287B
:102B0800D8A489EF15F08BEF15F093EF15F0000EB0
:102B1800176E000E186E000E196E000E1A6E198EC2
:102B28009EEF15F0000E176E000E186E000E196E4F
:102B3800000E1A6E1E50800B231A1E501E24246E7F
:102B48001DAEA9EF15F0ABEF15F0ACEF15F0248032
:102B58002450D8B4B2EF15F0B4EF15F0C7EF15F064
:102B68002428D8A4BAEF15F0BCEF15F0C4EF15F07F
:102B7800000E1B6E000E1C6E000E1D6E000E1E6EEB
:102B88001D8ECFEF15F0000E1B6E000E1C6E000E92
:102B98001D6E000E1E6E2450D8B4D5EF15F0D7EF79
:102BA80015F0DFEF15F02950D8A4DDEF15F0DFEFB1
:102BB80015F0E9EF15F0000E176E000E186E000EF6
:102BC800196E000E1A6E81EF17F01D501702F3CF21
:102BD8002EF0F4CF2FF02E50256E266A276A286A29
:102BE8002F502A6E2B6A2C6A2D6A1C501802F3CFBC
:102BF8002EF0F4CF2FF02E502526000E2622272265
:102C080028222F502A26000E2B222C222D221B5040
:102C18001902F3CF2EF0F4CF2FF02E502526000EF8
:102C28002622272228222F502A26000E2B222C2249
:102C38002D2227C028F026C027F025C026F0256AB7
:102C48001B501802F3CF2EF0F4CF2FF02E5025266C
:102C58002F502622000E2722000E28221C50170271
:102C6800F3CF2EF0F4CF2FF02E5025262F5026220A
:102C7800000E2722000E282227C028F026C027F0A1
:102C880025C026F0256A1B501702F3CF2EF0F4CF8B
:102C98002FF02E5025262F502622000E2722000E18
:102CA80028221D501802F3CF2EF0F4CF2FF02E500B
:102CB8002A262F502B22000E2C22000E2D221C50CB
:102CC8001902F3CF2EF0F4CF2FF02E502A262F50D2
:102CD8002B22000E2C22000E2D221D501902F3CF9C
:102CE8002EF0F4CF2FF02E501F6E2F50206E216A39
:102CF800226A21C022F020C021F01FC020F01F6AE4
:102D08001F502A2620502B2221502C2222502D22BF
:102D180025C01FF026C020F027C021F028C022F0CF
:102D2800190E9CEF16F0D8902232213220321F3231
:102D3800E82E97EF16F01F502A2620502B222150FC
:102D48002C2222502D2227C028F026C027F025C08B
:102D580026F0256A245029C01FF0206A1F26000E7D
:102D68002022820E1F242E6EFF0E20202F6ED2EFFF
:102D780016F0D8902A362B362C362D3628AEC7EFCB
:102D880016F0C9EF16F0CAEF16F02A80D89025364B
:102D98002636273628362E06D8A02F062CAED7EF93
:102DA80016F0D9EF16F0BDEF16F0000E246E28AE1F
:102DB800E0EF16F0E2EF16F006EF17F0FF0E25141D
:102DC8001F6EFF0E2614206EFF0E2714216E7F0E35
:102DD8002814226E1F50201021102210D8B4F7EFAB
:102DE80016F0F9EF16F0FDEF16F0010E246E06EF5F
:102DF80017F02AA002EF17F004EF17F006EF17F00C
:102E0800F9EF16F02450D8B40CEF17F00EEF17F0C6
:102E180032EF17F0010E2A26000E2B222C222D222B
:102E28002DA019EF17F01BEF17F032EF17F02AC09B
:102E38001FF02BC020F02CC021F02DC022F022342E
:102E48002232213220321F321FC02AF020C02BF03C
:102E580021C02CF022C02DF02E4A2F2A2FBE3DEF84
:102E680017F02F5008E12E28D8A03DEF17F03FEFBC
:102E780017F049EF17F0000E2A6E000E2B6E800E29
:102E88002C6E7F0E2D6E77EF17F02FBE56EF17F0D2
:102E98002F5006E12E04D8B054EF17F056EF17F074
:102EA80062EF17F0000E2A6E000E2B6E000E2C6ECD
:102EB800000E2D6E000E236E77EF17F02EC029F04E
:102EC800FF0E2A16FF0E2B167F0E2C16000E2D163F
:102ED80029A071EF17F073EF17F074EF17F02C8E2D
:102EE800D89029302D6E23502D122AC017F02BC0F0
:102EF80018F02CC019F02DC01AF01200010E1D6E2A
:102F0800860E1C6E39EC50F01C041D10D8A48FEFEF
:102F180017F091EF17F018EF18F0000E0101CF6FBE
:102F2800000ECE6F000ED16F000ED06F000ED36F63
:102F3800000ED26F000ED46FD50E0D6E010E0E6E00
:102F48002C0E0F6EFD0E106ECBEC4AF0CE0E2C6ED2
:102F5800010E2D6E0001EC51C2EC42F0ECC023F0E2
:102F6800246A9CEC37F0010E1C6E9A0E1B6E000E44
:102F78001E6E000E1D6E25EC51F0010E1C6E9B0E90
:102F88001B6E000E1E6E000E1D6E25EC51F0010E1C
:102F98001C6E9C0E1B6E000E1E6E000E1D6E25EC28
:102FA80051F0010E1C6E9D0E1B6E000E1E6E000E63
:102FB8001D6E25EC51F0010E1B6E9E0E1A6E2D0E25
:102FC8001C6EFD0E1D6E72EC50F0E1EC50F0010E1F
:102FD8001C6E860E1B6E000E1E6E000E1D6E25ECFE
:102FE80051F0600ED4EC51F04CEC4DF0070E1B6E16
:102FF800760E1A6EDC0E1C6EFD0E1D6E72EC50F015
:10300800DC0E096E050E0A6E000E0B6E000E0C6EBD
:10301800B0EC4BF0070E1B6E760E1A6E2D0E1C6E62
:10302800FD0E1D6E72EC50F0010E1D6E870E1C6EAB
:1030380039EC50F01C041D10D8A425EF18F027EF28
:1030480018F08FEF18F0010E1D6E9A0E1C6E39ECF9
:1030580050F01CC0CEF11DC0CFF1010E1D6E9B0EAD
:103068001C6E39EC50F01CC0D0F11DC0D1F1010E1E
:103078001D6E9C0E1C6E39EC50F01CC0D2F11DC0A8
:10308800D3F1010E1D6E9D0E1C6E39EC50F01C50D4
:103098000101D46F010E1D6E9E0E1C6ED50E1E6EA4
:1030A800010E1F6E71EC51F0CE0E2C6E010E2D6EBE
:1030B8000001EC51C2EC42F0E1EC50F0010E1C6E44
:1030C800870E1B6E000E1E6E000E1D6E25EC51F055
:1030D800500ED4EC51F04CEC4DF0070E1B6E760EF2
:1030E8001A6EA40E1C6EFD0E1D6E72EC50F0DC0EF6
:1030F800096E050E0A6E000E0B6E000E0C6EB0EC1B
:103108004BF0070E1B6E760E1A6E2D0E1C6EFD0E02
:103118001D6E72EC50F0010E1D6E880E1C6E39EC9F
:1031280050F01C041D10D8A49CEF18F09EEF18F066
:103138004BEF19F0070E1B6E760E1A6E6A0E1C6E98
:10314800FD0E1D6E72EC50F0CE0E176E010E186E4D
:103158000001EC51DBEC3EF0070E1B6E760E1A6E8A
:103168004C0E1C6EFD0E1D6E72EC50F0000E3A6E89
:10317800E0EF18F03AC03DF0CEC13EF0CFC13FF0CD
:10318800D0C140F0D2C141F0D4C142F0430E0D6E1F
:10319800000E0E6ED50E0F6E010E106ECBEC4AF0BF
:1031A800000E4D6E010E4C6E3D0E2C6E000E2D6EF7
:1031B8003A508FEC3DF03A2AFC0E336EFF0E346E17
:1031C8007350356E366AD8903536363633503526D4
:1031D800345036223A50376E386A3550375C38509A
:1031E800800A396E3650800A3958D8A0FEEF18F098
:1031F80000EF19F0BEEF18F0070E1B6E760E1A6E70
:103208004F0E1C6EFC0E1D6E72EC50F08BEC29F00C
:10321800070E1B6E760E1A6EF10E1C6EFC0E1D6EDE
:1032280072EC50F0000E3B6E3B5003EC2EF03B2A44
:103238000E0E3B6422EF19F024EF19F018EF19F085
:10324800000E3C6E3C50FFEC30F03C2A090E3C640A
:1032580030EF19F032EF19F026EF19F0010E1C6E5D
:10326800880E1B6E000E1E6E000E1D6E25EC51F0B2
:10327800600ED4EC51F04CEC4DF0070E1B6E760E40
:103288001A6E2D0E1C6EFD0E1D6E72EC50F0010EA6
:103298001D6E890E1C6E39EC50F01C041D10D8A44C
:1032A80058EF19F05AEF19F06AEF19F0010E1C6E79
:1032B800890E1B6E000E1E6E000E1D6E25EC51F061
:1032C800000E196E2F0E186E36EC51F0120060C108
:1032D8005AF061C15BF062C15CF063C15DF048C047
:1032E8005AF049C05BF04AC05CF04BC05DF05AC070
:1032F8004CF05BC04DF05CC04EF05DC04FF0180E56
:103308008BEF19F0D8904F324E324D324C32E82EB6
:1033180086EF19F04C50546E556A55BE9DEF19F062
:10332800555009E1960E545CD8A09DEF19F09FEF17
:1033380019F0A9EF19F048C048F049C049F04AC04F
:103348004AF04BC04BF041EF1BF05AC04CF05BC049
:103358004DF05CC04EF05DC04FF0200EB9EF19F093
:10336800D8904F324E324D324C32E82EB4EF19F02D
:103378004C504D104E104F10D8B4C5EF19F0C7EF90
:1033880019F0D9EF19F048C009F049C00AF04AC04D
:103398000BF04BC00CF0F9EC4EF009C048F00AC035
:1033A80049F00BC04AF00CC04BF055BEE7EF19F0DE
:1033B800555007E17E0E545CD8B0E5EF19F0E7EF01
:1033C80019F003EF1AF05AC017F05BC018F05CC090
:1033D80019F05DC01AF0000E1B6E000E1C6E000E78
:1033E8001D6E000E1E6E6DEC15F017C048F018C06B
:1033F80049F019C04AF01AC04BF041EF1BF0000E1B
:10340800346E000E356E000E366E4B0E376E48C0A9
:1034180030F049C031F04AC032F04BC033F0B7EC5D
:1034280010F030C056F031C057F032C058F033C0F9
:1034380059F0000E346E000E356E000E366ECB0E4F
:10344800376E56C030F057C031F058C032F059C00E
:1034580033F0B7EC10F030C050F031C051F032C04A
:1034680052F033C053F050C040F051C041F052C048
:1034780042F053C043F048C044F049C045F04AC048
:1034880046F04BC047F0BDEC4DF040C05EF041C087
:103498005FF042C060F043C061F0000E096E000E9C
:1034A8000A6E000E0B6E3F0E0C6E5EC00DF05FC014
:1034B8000EF060C00FF061C010F0B8EC39F0D8B071
:1034C80068EF1AF06AEF1AF0A0EF1AF048C034F06B
:1034D80049C035F04AC036F04BC037F05EC030F016
:1034E8005FC031F060C032F061C033F0B7EC10F06B
:1034F80030C056F031C057F032C058F033C059F0E0
:1035080056C030F057C031F058C032F059C033F0CF
:10351800000E346E000E356E800E366EBF0E376E9E
:10352800B7EC10F030C05EF031C05FF032C060F030
:1035380033C061F009EF1BF0000E096E000E0A6E31
:10354800000E0B6EBF0E0C6E5EC00DF05FC00EF06D
:1035580060C00FF061C010F0B8EC39F0D8A0B7EF38
:103568001AF0B9EF1AF0EFEF1AF048C034F049C07A
:1035780035F04AC036F04BC037F05EC030F05FC05F
:1035880031F060C032F061C033F0B7EC10F030C0F9
:1035980056F031C057F032C058F033C059F056C019
:1035A80030F057C031F058C032F059C033F0000E37
:1035B800346E000E356E800E366E3F0E376EB7ECE9
:1035C80010F030C05EF031C05FF032C060F033C040
:1035D80061F009EF1BF05EC030F05FC031F060C0F1
:1035E80032F061C033F048C034F049C035F04AC009
:1035F80036F04BC037F0B7EC10F030C05EF031C099
:103608005FF032C060F033C061F05AC04CF05BC06C
:103618004DF05CC04EF05DC04FF0200E19EF1BF06E
:10362800D8904F324E324D324C32E82E14EF1BF008
:103638004C504D104E104F10D8B425EF1BF027EF0B
:103648001BF039EF1BF05EC009F05FC00AF060C0E4
:103658000BF061C00CF0F9EC4EF009C05EF00AC046
:103668005FF00BC060F00CC061F05EC048F05FC056
:1036780049F060C04AF061C04BF012001A50800B4C
:10368800276E1A501A242E6E19AE4DEF1BF04FEF0D
:103698001BF050EF1BF02E802E50D8B456EF1BF0C5
:1036A80058EF1BF06DEF1BF02E28D8A45EEF1BF02F
:1036B80060EF1BF068EF1BF0000E176E000E186E1F
:1036C800000E196E000E1A6E198E000E1A6E75EF26
:1036D8001BF0000E176E000E186E000E196E000E0D
:1036E8001A6E1E50800B271A1E501E242F6E1DAEF8
:1036F80080EF1BF082EF1BF083EF1BF02F802F5021
:10370800D8B489EF1BF08BEF1BF0A0EF1BF02F282C
:10371800D8A491EF1BF093EF1BF09BEF1BF0000E6A
:103728001B6E000E1C6E000E1D6E000E1E6E1D8E92
:10373800000E1E6EA8EF1BF0000E1B6E000E1C6E16
:10374800000E1D6E000E1E6E1B501C101D101E104C
:10375800D8A4B1EF1BF0B3EF1BF0CBEF1BF0000EBA
:10376800176E000E186E000E196E000E1A6E800E7F
:1037780019127F0E1A1227501A1217C017F018C004
:1037880018F019C019F01AC01AF00EEF1DF02E50DB
:10379800D8A4D1EF1BF0D3EF1BF0DDEF1BF0000E28
:1037A800176E000E186E000E196E000E1A6E0EEFD0
:1037B8001DF02F502EC01FF0206A1F5E000E205AE9
:1037C8007F0E1F24286E000E2020296E17C023F0BC
:1037D80018C024F019C025F01AC026F0000E176E84
:1037E800000E186E000E196E000E1A6E000E2A6E6C
:1037F800000E2B6E000E2C6E000E2D6E000E2F6E1E
:103808003EEF1CF02F50D8B40CEF1CF00EEF1CF05C
:1038180025EF1CF0D8902336243625362636D89046
:103828001736183619361A362DAE1DEF1CF01FEF55
:103838001CF020EF1CF01780D8902A362B362C3637
:103848002D361B50235C1C5024581D5025581E50E3
:103858002658D8A032EF1CF034EF1CF03DEF1CF0D6
:103868002D8C1B50235E1C50245A1D50255A1E5067
:10387800265A2F2A190E2F6444EF1CF046EF1CF02D
:1038880006EF1CF02350241025102610D8B44FEF53
:103898001CF051EF1CF069EF1CF02A8069EF1CF056
:1038A800D8901736183619361A362DAE5EEF1CF03A
:1038B80060EF1CF061EF1CF01780D8902A362B3689
:1038C8002C362D362806D8A0290619AE6EEF1CF026
:1038D80070EF1CF054EF1CF0000E2F6E2DAE77EF3A
:1038E8001CF079EF1CF09DEF1CF0FF0E2A141F6EE0
:1038F800FF0E2B14206EFF0E2C14216E7F0E2D143C
:10390800226E1F50201021102210D8B48EEF1CF008
:1039180090EF1CF094EF1CF0010E2F6E9DEF1CF041
:1039280017A099EF1CF09BEF1CF09DEF1CF090EF97
:103938001CF02F50D8B4A3EF1CF0A5EF1CF0C9EF72
:103948001CF0010E1726000E182219221A221AA09E
:10395800B0EF1CF0B2EF1CF0C9EF1CF017C01FF05D
:1039680018C020F019C021F01AC022F022342232E7
:10397800213220321F321FC017F020C018F021C09A
:1039880019F022C01AF0284A292A29BED4EF1CF0BF
:10399800295008E12828D8A0D4EF1CF0D6EF1CF055
:1039A800E1EF1CF0000E296E2868000E176E000E5D
:1039B800186E000E196E000E1A6E29BEEEEF1CF07E
:1039C800295006E12804D8B0ECEF1CF0EEEF1CF00B
:1039D800FCEF1CF0000E296E000E286E000E176E0C
:1039E800000E186E000E196E000E1A6E000E276E6D
:1039F80028C02EF02EA003EF1DF005EF1DF008EFF4
:103A08001DF0198E09EF1DF0199ED8902E301A6EF0
:103A1800BFEF1BF01200010E1D6E7E0E1C6EFCEC3B
:103A28004FF01CC062F01DC063F01EC064F01FC0E0
:103A380065F035EC39F0010E1D6E800E1C6EFCEC45
:103A48004FF01CC062F01DC063F01EC064F01FC0C0
:103A580065F035EC39F0010E136E7C0E126E9C0E7B
:103A6800146E000E156E040E166E39EC34F09EC0FE
:103A780080F00001816B826B836B82C083F081C010
:103A880082F080C081F0806B9DC084F0856B866B6E
:103A9800876B85C087F084C086F0856B846B9CC07B
:103AA80088F0896B8A6B8B6B88C08BF08A6B896B0B
:103AB800886B845188258C6F855189218D6F86513B
:103AC8008A218E6F87518B218F6F80518C25906F43
:103AD80081518D21916F82518E21926F83518F2157
:103AE800936F9F519025CD6F000E9121CE6F000EE0
:103AF8009221CF6F000E9321D06F010E136E7E0EB0
:103B0800126E9C0E146E000E156E040E166E39ECB5
:103B180034F09EC080F00001816B826B836B82C0A1
:103B280083F081C082F080C081F0806B9DC084F0FA
:103B3800856B866B876B85C087F084C086F0856B44
:103B4800846B9CC088F0896B8A6B8B6B88C08BF008
:103B58008A6B896B886B845188258C6F8551892184
:103B68008D6F86518A218E6F87518B218F6F80517F
:103B78008C25906F81518D21916F82518E21926F8A
:103B880083518F21936F9F519025986F000E91213B
:103B9800996F000E92219A6F000E93219B6F010E70
:103BA800136E800E126E9C0E146E000E156E040EAF
:103BB800166E39EC34F09EC080F00001816B826B88
:103BC800836B82C083F081C082F080C081F0806BFB
:103BD8009DC084F0856B866B876B85C087F084C039
:103BE80086F0856B846B9CC088F0896B8A6B8B6BC5
:103BF80088C08BF08A6B896B886B845188258C6FA1
:103C0800855189218D6F86518A218E6F87518B212D
:103C18008F6F80518C25906F81518D21916F8251CA
:103C28008E21926F83518F21936F9F519025946FAE
:103C3800000E9121956F000E9221966F000E932130
:103C4800976FCD51CE11CF11D011D8B42EEF1EF0F1
:103C580030EF1EF046EF1EF0985199119A119B1102
:103C6800D8B439EF1EF03BEF1EF046EF1EF094512A
:103C7800951196119711D8A444EF1EF046EF1EF047
:103C88004BEF1EF0230ED4EC51F0C5EF1EF0000EE2
:103C98000E6E0B0E0D6E25EC4DF00001CD510D187A
:103CA8000DE1CE510E180AE1CF510F1807E1D0519E
:103CB8001018D8A462EF1EF064EF1EF0C2EF1EF0D9
:103CC800945198190DE1955199190AE196519A194B
:103CD80007E197519B19D8A474EF1EF076EF1EF0F8
:103CE800BDEF1EF0000E296E0B0E286E98C02AF04C
:103CF80099C02BF09AC02CF09BC02DF022EC4EF00E
:103D080098C0CDF099C0CEF09AC0CFF09BC0D0F04B
:103D1800AFEC51F0010E1B6E7C0E1A6E000E1C6E7D
:103D2800000E1D6E000E1E6E000E1F6E6BEC4AF02C
:103D3800010E1B6E7E0E1A6E000E1C6E000E1D6E9E
:103D4800000E1E6E000E1F6E6BEC4AF0010E1B6E0D
:103D5800800E1A6E000E1C6E000E1D6E000E1E6E7A
:103D6800000E1F6E6BEC4AF0220ED4EC51F0C5EF3A
:103D78001EF0210ED4EC51F0C5EF1EF0200ED4EC4D
:103D880051F01200200E096E000E0A6E000E0B6E26
:103D9800000E0C6EB0EC4BF0000E306E04EF1FF00E
:103DA80030C009F00A6A000E0C6E020E0B6EA2EC0F
:103DB80041F009282C6E3050010B2F6E2FC027F0D0
:103DC8001A0E0C6E010E0D6E270E0E6E000E0F6E83
:103DD8002C5027EC38F03050020DB00EF324D96E79
:103DE800010EF420DA6E0CC0DEFF0DC0DDFF510EAF
:103DF8002C24D96EDA6A010EDA22010EDF6E302A1F
:103E08007350020D3050236E246AF350235C245003
:103E1800800A256EF450800A2558D8A016EF1FF0A6
:103E280018EF1FF0D4EF1EF0320E096E000E0A6E66
:103E3800000E0B6E000E0C6EB0EC4BF07586000E8B
:103E4800306E27EF20F0000E1C6E990E1B6E30505E
:103E5800020DB00EF324D96E010EF420DA6EDECF17
:103E68001DF0DDCF1EF025EC51F03050020DB00EE4
:103E7800F324D96E010EF420DA6EDECF6CF1DDCFBB
:103E88006DF126EF20F0000E1C6E970E1B6E305061
:103E9800020DB00EF324D96E010EF420DA6EDECFD7
:103EA8001DF0DDCF1EF025EC51F03050020DB00EA4
:103EB800F324D96E010EF420DA6EDECF6EF1DDCF79
:103EC8006FF126EF20F0000E1C6E960E1B6E305020
:103ED800020DB00EF324D96E010EF420DA6EDECF97
:103EE8001DF0DDCF1EF025EC51F03050020DB00E64
:103EF800F324D96E010EF420DA6EDECFDDF0DDCFCB
:103F0800DEF026EF20F03050FC0F2F6E2F500C0DF6
:103F1800F3CF23F0F4CF24F0E60E23242A6E000E0C
:103F280024202B6E900E2F242D6E2E6A010E2E2229
:103F3800010E2A241B6E000E2B201C6E2F50236EA0
:103F4800246AD89023362436B80E2324D96E010E5D
:103F58002420DA6EDECF1DF0DDCF1EF025EC51F007
:103F68002F50236E246AD89023362436B80E232483
:103F7800D96E010E2420DA6E010EDBAECDEF1FF0F4
:103F8800700EDE5CFE0EDE58D8B0CDEF1FF0CFEF1E
:103F98001FF0DBEF1FF02DC01BF02EC01CF0000E31
:103FA8001E6E010E1D6E25EC51F026EF20F02F50ED
:103FB800236E246AD89023362436B80E2324D96E6B
:103FC800010E2420DA6EDE2806E1DE28D8A4EFEF01
:103FD8001FF0F1EF1FF0FDEF1FF02DC01BF02EC0FA
:103FE8001CF0000E1E6E000E1D6E25EC51F026EF23
:103FF80020F02DC01BF02EC01CF0000E1E6E030E0C
:104008001D6E25EC51F026EF20F03050236E246A07
:104018002450000AD8B413EF20F087EF1FF0235084
:10402800000AD8B427EF1FF0010AD8B447EF1FF0F1
:10403800030AD8B467EF1FF0010AD8B426EF20F0BE
:1040480087EF1FF0302A7350020D3050236E246A18
:10405800F350235C2450800A256EF450800A2558BA
:10406800D8A039EF20F03BEF20F009EF20F075964B
:104078001200000E1D6EA80E1C6E39EC50F01C04C8
:104088001D10D8A44AEF20F04CEF20F076EF20F076
:10409800000E1C6EA80E1B6E000E1E6E000E1D6E0E
:1040A80025EC51F00001ED51D8B45DEF20F05FEF41
:1040B80020F071EF20F0000E476E475003EC2EF011
:1040C800472A0E0E47646BEF20F06DEF20F061EF8A
:1040D80020F04CEC4DF076EF20F0520ED4EC51F07D
:1040E80014EC51F0000E1D6EA70E1C6E39EC50F04A
:1040F8001C041D10D8A483EF20F085EF20F0CBEF2F
:1041080020F0000E1C6EA70E1B6E000E1E6E000E19
:104118001D6E25EC51F00001ED51D8B496EF20F05A
:1041280098EF20F0C6EF20F0460E1E6EFE0E1F6EB2
:10413800070E216ED00E206E000E226E010E236E29
:1041480022EC44F0000E486E485063EC35F0482AE3
:10415800090E4864B2EF20F0B4EF20F0A8EF20F089
:10416800940E1E6EFF0E1F6E070E216ED00E206E6F
:10417800010E226E000E236E22EC44F04CEC4DF042
:10418800CBEF20F0520ED4EC51F014EC51F0000EAD
:104198001D6EA60E1C6E39EC50F01C041D10D8A420
:1041A800D8EF20F0DAEF20F014EF21F0000E1C6EAB
:1041B800A60E1B6E000E1E6E000E1D6E25EC51F035
:1041C8000001ED51D8B4EBEF20F0EDEF20F00FEF48
:1041D80021F0A30E1E6EFE0E1F6E070E216ED00E6E
:1041E800206E000E226E010E236E22EC44F08BEC42
:1041F80029F0940E1E6EFF0E1F6E070E216ED00E54
:10420800206E010E226E000E236E22EC44F04CEC60
:104218004DF014EF21F0520ED4EC51F014EC51F0A3
:10422800000E1D6EA90E1C6E39EC50F01C041D10FA
:10423800D8A421EF21F023EF21F087EF21F0000E21
:104248001C6EA90E1B6E000E1E6E000E1D6E25EC58
:1042580051F00001ED51D8B434EF21F036EF21F0E0
:1042680082EF21F09F0E1E6EFF0E1F6E070E216E4D
:10427800D00E206E000E226E010E236E22EC44F04A
:10428800130E0001F619F711D8A44DEF21F04FEFE6
:1042980021F051EF21F0000E466E150EF619F711B8
:1042A800D8A459EF21F05BEF21F05DEF21F0050E66
:1042B800466E050E316E46502BEC3CF0000E496EF2
:1042C800495003EC2EF0492A0E0E49646EEF21F096
:1042D80070EF21F064EF21F04CEC4DF0BE0E1E6E35
:1042E800FF0E1F6E070E216ED00E206E010E226E7D
:1042F800000E236E22EC44F087EF21F0520ED4EC2E
:1043080051F014EC51F012009AEC4DF0F70E206EBB
:10431800FD0E216E36EC3BF0EE0E206EFE0E216E89
:1043280036EC3BF0000E1D6EAA0E1C6E39EC50F0F8
:104338001C041D10D8A4A3EF21F0A5EF21F09AEFDB
:1043480022F0000E1C6EAA0E1B6E000E1E6E000ED2
:104358001D6E25EC51F0000E196E000E186E36EC2D
:1043680051F0000E0E6E220E0D6EDCEC4EF00DC0FC
:1043780084F00EC085F084C018F085C019F0A50E31
:104388001A6E030E1B6E000E1D6E0A0E1C6E53EC89
:1043980032F0500E0D6E020E0E6E890E0F6EFF0E6D
:1043A800106ECBEC4AF0500E176E020E186EA50E6A
:1043B800196E030E1A6E85EC50F0500E206E020E28
:1043C800216E36EC3BF0010E0001836F53EF22F0B3
:1043D800500E0D6E020E0E6EE90E0F6EFF0E106E71
:1043E800CBEC4AF083C018F0196AA50E1A6E030EBA
:1043F8001B6E000E1D6E0A0E1C6E53EC32F0500E32
:10440800176E020E186EA50E196E030E1A6E85EC45
:1044180050F0A50E0D6E030E0E6E900E0F6EFF0E71
:10442800106ECBEC4AF0500E176E020E186EA50EE9
:10443800196E030E1A6E85EC50F0100E0001806F95
:104448000B0E0C6E010E0D6E800E0E6E000E0F6EB2
:10445800835127EC38F00CC084F00DC085F084C07F
:1044680018F085C019F0A50E1A6E030E1B6E000E0B
:104478001D6E0A0E1C6E53EC32F0500E176E020EB3
:10448800186EA50E196E030E1A6E85EC50F0500EBC
:10449800206E020E216E36EC3BF00001832B835117
:1044A800735CD8B05AEF22F05CEF22F0ECEF21F009
:1044B800B70E206EFE0E216E36EC3BF0000E0E6E2F
:1044C800E80E0D6EDCEC4EF00DC084F00EC085F0E9
:1044D80084C018F085C019F0500E1A6E020E1B6EBB
:1044E800000E1D6E0A0E1C6E53EC32F0500E176E45
:1044F800020E186EAA0E196EFF0E1A6E85EC50F099
:10450800500E206E020E216E36EC3BF0980E096EAE
:104518003A0E0A6E000E0B6E000E0C6E57EC4BF046
:10452800000E196E0F0E186E36EC51F012001F6E49
:10453800000E206E135009E1020E125CD8A0A7EFFE
:1045480022F0A9EF22F0ABEF22F0A2EF23F01350F4
:1045580008E11204D8A0B3EF22F0B5EF22F0B9EFCA
:1045680022F0080E206EBBEF22F0000E206E1FC056
:1045780021F0D8902136A00E21122180205021123E
:10458800BEEC50F021C016F0FE0E161616500B6E3B
:104598000C6A7EEC51F011C00BF00C6A7EEC51F005
:1045A80010C00BF00C6A7EEC51F098EC51F021C071
:1045B8000BF00C6A7EEC51F0000E1E6E135009E1F0
:1045C800020E125CD8A0EBEF22F0EDEF22F0EFEF35
:1045D80022F093EF23F0010E1024166E000E112026
:1045E800176E000E1220186E000E1320196E7F0E23
:1045F80016141A6E000E17141B6E000E18141C6E7B
:10460800000E19141D6E1A501B101C101D10D8A472
:1046180010EF23F012EF23F066EF23F0000E0C6E7C
:10462800000E0B6EFBEC47F00B5014C0D9FF15C001
:10463800DAFFDF6E8BEC51F0340E166EF20EE82EB8
:10464800FED7162EFCD7010E1026000E11221222BC
:104658001322144A152A135008E11204D8A037EF80
:1046680023F039EF23F03DEF23F0080E206E3FEFE3
:1046780023F0000E206E1FC021F0D8902136A00E26
:104688002112218020502112BEEC50F021C016F0DA
:10469800FE0E161616500B6E0C6A7EEC51F011C009
:1046A8000BF00C6A7EEC51F010C00BF00C6A7EEC3B
:1046B80051F098EC51F021C00BF00C6A7EEC51F0EF
:1046C80088EF23F0000E0C6E010E0B6EFBEC47F02A
:1046D8000B5014C0D9FF15C0DAFFDF6E14C0D9FF24
:1046E80015C0DAFFDF50D8A47CEF23F07EEF23F06B
:1046F80080EF23F093EF23F0144A152A010E1026B9
:10470800000E1122122213221E2A1E04166E3F0EBC
:10471800166491EF23F093EF23F0E2EF22F0000EFE
:104728000C6E000E0B6EFBEC47F08BEC51F0070E95
:10473800166EC00EE82EFED7162EFCD71200000EFD
:104748001D6E040E1C6E39EC50F01C041D10D8A40C
:10475800B0EF23F0B2EF23F0E3EF23F00001F3B75B
:10476800B8EF23F0BAEF23F0E3EF23F0F3B7BFEF8E
:1047780023F0C1EF23F0C3EF23F04CEC4DF0000120
:10478800F387DB51DD5DDE51800A6E6EDC51800AF5
:104798006E58D8B0D2EF23F0D4EF23F0DCEF23F03B
:1047A800010EF2EC50F0010ED0EC49F0A2EF24F02B
:1047B800000EF2EC50F081EC4EF0A2EF24F0000E67
:1047C8001D6E040E1C6E39EC50F01C501D10D8A440
:1047D800F0EF23F0F2EF23F071EF24F00001F3A7DC
:1047E800F8EF23F0FAEF23F071EF24F0F397000EBF
:1047F800F2EC50F0000E1C6E060E1B6E000E1E6EC4
:10480800000E1D6E25EC51F0420ED4EC51F0000E56
:104818001C6E160E1B6E000E1E6E000E1D6E25EC15
:1048280051F0000E1D6E060E1C6E39EC50F0F10EA4
:104838001C181D10D8B423EF24F026EF24F0010E25
:1048480027EF24F0000E6E6E000E1D6E060E1C6E15
:1048580039EC50F0F00E1C181D10D8B436EF24F0C7
:1048680039EF24F0010E3AEF24F0000E6E10E8A0A4
:1048780040EF24F042EF24F044EF24F049EF24F015
:10488800040040EC41F015EF24F0000E1D6E060EFA
:104898001C6E39EC50F0F00E1C181D10D8A457EF00
:1048A80024F059EF24F069EF24F0000ED0EC49F021
:1048B800000E0001EF6F000EF06F4CEC4DF04CEC69
:1048C8004DF04CEC4DF0A2EF24F03A0E196E980E14
:1048D800186E69EC4FF0A2EF24F0000E1D6E040E66
:1048E8001C6E39EC50F01C041D10D8A47EEF24F087
:1048F80080EF24F0A2EF24F00001F3A786EF24F064
:1049080088EF24F0A2EF24F0DB51DD5DDE51800A50
:104918006E6EDC51800A6E58D8B095EF24F097EF90
:1049280024F09DEF24F0010EF2EC50F07588A2EF10
:1049380024F0000EF2EC50F0DFEF23F01200216EAD
:10494800000E226E000E0101836F050E826F135058
:1049580009E1020E125CD8A0B4EF24F0B6EF24F0FF
:10496800B8EF24F0A2EF25F0135008E11204D8A004
:10497800C0EF24F0C2EF24F0C6EF24F0080E226E38
:10498800C8EF24F0000E226E21C023F0D890233601
:10499800A00E2312238022502312BEEC50F023C015
:1049A80017F0FE0E171617500B6E0C6A7EEC51F0BE
:1049B80011C00BF00C6A7EEC51F010C00BF00C6AC1
:1049C8007EEC51F098EC51F023C00BF00C6A7EECB1
:1049D80051F0000E206E8AEF25F0135009E1020E07
:1049E800125CD8A0FAEF24F0FCEF24F0FEEF24F0DC
:1049F80093EF25F0010E1024176E000E1120186E8B
:104A0800000E1220196E000E13201A6E7F0E171456
:104A18001B6E000E18141C6E000E19141D6E000E6D
:104A28001A141E6E1B501C101D101E10D8A41FEF48
:104A380025F021EF25F075EF25F0000E0C6E000E25
:104A48000B6EFBEC47F00B5015C0D9FF16C0DAFF10
:104A5800DF6E8BEC51F0340E176EF20EE82EFED797
:104A6800172EFCD7010E1026000E11221222132237
:104A7800154A162A135008E11204D8A046EF25F06B
:104A880048EF25F04CEF25F0080E226E4EEF25F08A
:104A9800000E226E21C023F0D8902336A00E2312D8
:104AA800238022502312BEEC50F023C017F0FE0ED4
:104AB800171617500B6E0C6A7EEC51F011C00BF0F4
:104AC8000C6A7EEC51F010C00BF00C6A7EEC51F0D1
:104AD80098EC51F023C00BF00C6A7EEC51F089EF92
:104AE80025F0000E0C6E010E0B6EFBEC47F00B5020
:104AF80015C0D9FF16C0DAFFDF6E154A162A010E57
:104B08001026000E112212221322202A1450205C93
:104B1800D8A091EF25F093EF25F0F1EF24F0000EE7
:104B28000C6E000E0B6EFBEC47F08BEC51F0070E91
:104B3800176EC00EE82EFED7172EFCD712001D6E7A
:104B4800000E0101836F050E826F105009E1020EFD
:104B58000F5CD8A0B2EF25F0B4EF25F0B6EF25F042
:104B68009FEF26F0105008E10F04D8A0BEEF25F003
:104B7800C0EF25F0C4EF25F0080E1E6EC6EF25F035
:104B8800000E1E6E1DC01FF0D8901F36A00E1F12FB
:104B98001E501F12BEEC50F01FC00BF00C6A7EECCA
:104BA80051F00EC00BF00C6A7EEC51F00DC00BF00A
:104BB8000C6A7EEC51F0000E1C6E6EEF26F0105061
:104BC80009E1020E0F5CD8A0ECEF25F0EEEF25F01E
:104BD800F0EF25F09FEF26F0010E0D24146E000E65
:104BE8000E20156E000E0F20166E000E1020176E88
:104BF8007F0E1414186E000E1514196E000E16147C
:104C08001A6E000E17141B6E185019101A101B106C
:104C1800D8A411EF26F013EF26F05AEF26F012C0B1
:104C2800D9FF13C0DAFFDF50146E14500B6E0C6AF4
:104C38007EEC51F08BEC51F0340E146EF20EE82E2F
:104C4800FED7142EFCD7010E0D26000E0E220F22C1
:104C58001022124A132A105008E10F04D8A037EF87
:104C680026F039EF26F03DEF26F0080E1E6E3FEFD6
:104C780026F0000E1E6E1DC01FF0D8901F36A00E25
:104C88001F121E501F12BEEC50F01FC00BF00C6A12
:104C98007EEC51F00EC00BF00C6A7EEC51F00DC0AA
:104CA8000BF00C6A7EEC51F06DEF26F012C0D9FFC4
:104CB80013C0DAFFDF50146E14500B6E0C6A7EECD2
:104CC80051F0124A132A010E0D26000E0E220F2251
:104CD80010221C2AFF0E146EFF0E156E1150166E50
:104CE800176A14501626155017221C50186E196A88
:104CF8001650185C1950800A1A6E1750800A1A58F4
:104D0800D8A089EF26F08BEF26F0E3EF25F012C04C
:104D1800D9FF13C0DAFFDF50146E14500B6E0C6A03
:104D28007EEC51F08BEC51F0340E146EF20EE82E3E
:104D3800FED7142EFCD71200030E0C6E000E0D6E5B
:104D4800A50E0E6E030E0F6E0001835127EC38F08E
:104D5800000E736E500E0D6E020E0E6E2D0E0F6E3F
:104D6800FD0E106ECBEC4AF0500E176E020E186E48
:104D7800DC0E196EFE0E1A6E85EC50F0500E176E92
:104D8800020E186ED90E196EFF0E1A6E85EC50F0D1
:104D9800500E206E020E216E36EC3BF0010E000123
:104DA800836F640E096E000E0A6E000E0B6E000E05
:104DB8000C6E57EC4BF0030E0C6E000E0D6EA50E2C
:104DC8000E6E030E0F6E0001835127EC38F00CC0F5
:104DD80081F00DC082F082C080F00001812908E1D5
:104DE8008229D8B4FAEF26F0FCEF26F061EF27F01D
:104DF800732A500E0D6E020E0E6E2D0E0F6EFD0EE6
:104E0800106ECBEC4AF083C018F0196A500E1A6E77
:104E1800020E1B6E000E1D6E0A0E1C6E53EC32F055
:104E2800500E176E020E186EF50E196EFF0E1A6EE2
:104E380085EC50F0500E176E020E186E000180516E
:104E4800020DE30EF324D96E010EF420DA6EDECFE4
:104E580019F0DDCF1AF085EC50F0500E176E020EE7
:104E6800186E2C0E196EFD0E1A6E85EC50F0A50EFC
:104E78000D6E030E0E6E2C0E0F6EFD0E106ECBEC2B
:104E88004AF0410E0C6E000E0D6EA50E0E6E030E4E
:104E98000F6E0001835127EC38F0500E176E020E8A
:104EA800186EA50E196E030E1A6E85EC50F0500E92
:104EB800206E020E216E36EC3BF00001832B0E0EA5
:104EC800836569EF27F06BEF27F0D5EF26F0735075
:104ED800D8A471EF27F073EF27F07BEF27F02D0EA2
:104EE800206EFE0E216E36EC3BF098EF27F073C073
:104EF80018F0196A500E1A6E020E1B6E000E1D6E07
:104F08000A0E1C6E53EC32F0500E176E020E186E1D
:104F18005F0E196EFE0E1A6E85EC50F0500E206E64
:104F2800020E216E36EC3BF012004C6E4C50456E72
:104F3800466AFF0E476EFF0E486E0001E651496E45
:104F48004A6A4750492648504A224550495C4A50C7
:104F5800800A4B6E4650800A4B58D8B0B6EF27F0FF
:104F6800B8EF27F0C0EF27F0030E196EE80E186EA1
:104F780069EC4FF091EF28F04C50360DF3CF45F027
:104F8800F4CF46F0100E4526000E462245C04DF0DF
:104F980046C04EF0000E4EBEFF0E4F6E506E4DC016
:104FA80024F04EC025F04FC026F050C027F0000E68
:104FB80031EC4FF024C001F125C002F1020E4D245E
:104FC800106E000E4E20116E000E4F20126E000E55
:104FD8005020136E0D0E146E010E156E000E9BEC14
:104FE80022F00C0E4D24106E000E4E20116E000E95
:104FF8004F20126E000E5020136E030E146E010E19
:10500800156E000E9BEC22F0160E4D24106E000E4D
:105018004E20116E000E4F20126E000E5020136E9F
:10502800210E146E010E156E000E9BEC22F0200E60
:105038004D24106E000E4E20116E000E4F20126E81
:10504800000E5020136E170E146E010E156E000E12
:105058009BEC22F02A0E4D24246E000E4E20256E65
:10506800000E4F20266E000E5020276E000E25ECF5
:1050780050F001012B6F2B0E4D24246E000E4E2094
:10508800256E000E4F20266E000E5020276E000E53
:1050980065EC42F024C02CF125C02DF126C02EF17C
:1050A80027C02FF12F0E4D24246E000E4E20256EA2
:1050B800000E4F20266E000E5020276E000E65EC65
:1050C80042F024C030F125C031F126C032F127C0AA
:1050D80033F1330E4D24246E000E4E20256E000E43
:1050E8004F20266E000E5020276E000E31EC4FF038
:1050F80024C034F125C035F1350E4D24246E000E40
:105108004E20256E000E4F20266E000E5020276E72
:10511800000E25EC50F00101366F1200346E345049
:105128002D6E2E6AFF0E2F6EFF0E306E0001E651B7
:10513800316E326A2F503126305032222D50315C78
:105148003250800A336E2E50800A3358D8B0AFEFF1
:1051580028F0B1EF28F0B9EF28F0030E196EE80E29
:10516800186E69EC4FF08AEF29F03450360DF3CF02
:105178002DF0F4CF2EF0100E2D26000E2E222DC06D
:1051880035F02EC036F0000E36BEFF0E376E386E84
:1051980035C020F036C021F037C022F038C023F0E7
:1051A80001C124F002C125F0000ECFEC4FF0020E31
:1051B80035240D6E000E36200E6E000E37200F6E51
:1051C800000E3820106E0D0E116E010E126E000EBC
:1051D80091EC2FF00C0E35240D6E000E36200E6E5D
:1051E800000E37200F6E000E3820106E030E116E61
:1051F800010E126E000E91EC2FF0160E35240D6E76
:10520800000E36200E6E000E37200F6E000E38206E
:10521800106E210E116E010E126E000E91EC2FF021
:10522800200E35240D6E000E36200E6E000E37202F
:105238000F6E000E3820106E170E116E010E126ED2
:10524800000E91EC2FF02A0E3524206E000E362029
:10525800216E000E3720226E000E3820236E2BC1DF
:1052680024F0000E5FEC50F02B0E3524206E000E5B
:105278003620216E000E3720226E000E3820236E55
:105288002CC124F02DC125F02EC126F02FC127F006
:10529800000E84EC4FF02F0E3524206E000E3620C1
:1052A800216E000E3720226E000E3820236E30C18A
:1052B80024F031C125F032C126F033C127F0000EA9
:1052C80084EC4FF0330E3524206E000E3620216E0C
:1052D800000E3720226E000E3820236E34C124F0D1
:1052E80035C125F0000ECFEC4FF0350E3524206E79
:1052F800000E3620216E000E3720226E000E382058
:10530800236E36C124F0000E5FEC50F01200040E3C
:105318001D6E1DC009F00A6A000E0C6E020E0B6E9F
:10532800A2EC41F00928216E1D50010B226E1D5080
:10533800120DF350EC0F1C6E010E1C240D6E0E6A3C
:10534800000E0E22DCEC4EF00DC01AF00EC01BF061
:105358002250070DF3CF1EF01BC01FF01AC020F01B
:105368000A0E0C6E030E0D6E1E0E0E6E000E0F6EE4
:10537800215027EC38F0070E196E170E186E6A0EBA
:10538800E82EFED7182EFCD7192EFAD700D02250B7
:10539800070DF350020F1E6E030E1C24096E0A6AD5
:1053A800000E0A2201EC4EF01F6E080E0C6E020E63
:1053B8000D6E1E0E0E6E000E0F6E215027EC38F08B
:1053C800070E196E170E186E6A0EE82EFED7182EE5
:1053D800FCD7192EFAD700D02250070DF350030F2F
:1053E8001E6E040E1C24096E0A6A000E0A2201ECC5
:1053F8004EF01F6E080E0C6E020E0D6E1E0E0E6E17
:10540800000E0F6E215027EC38F0070E196E170E9C
:10541800186E6A0EE82EFED7182EFCD7192EFAD76A
:1054280000D02250070DF350040F1E6E050E1C24E9
:10543800096E0A6A000E0A2201EC4EF01F6E080E71
:105448000C6E020E0D6E1E0E0E6E000E0F6E2150AB
:1054580027EC38F0070E196E170E186E6A0EE82E34
:10546800FED7182EFCD7192EFAD700D0100E1C2400
:105478000D6E0E6A000E0E22DCEC4EF00DC01AF016
:105488000EC01BF02250070DF350050F1E6E1BC0F7
:105498001FF01AC020F00A0E0C6E030E0D6E1E0EC1
:1054A8000E6E000E0F6E215027EC38F0070E196EA5
:1054B800170E186E6A0EE82EFED7182EFCD7192E76
:1054C800FAD700D02204D8A46CEF2AF06EEF2AF0A5
:1054D80079EF2AF0010E0C6E000E0D6E1E0E0E6E88
:1054E800000E0F6E215027EC38F01D2A0E0E1D6499
:1054F80080EF2AF082EF2AF08DEF29F012005A0E81
:105508000B6EA50E0A6ECDEC51F0030EABEC50F00D
:10551800810EABEC50F0200EABEC50F0070EABEC6C
:1055280050F09C0E1F6ED70EE82EFED71F2EFCD70C
:1055380000F007EC4CF00009D8B4A5EF2AF0A7EF6B
:105548002AF0C4EF2AF0000E3D6E3D50060F1F6E84
:10555800206A860E1F24D96E010E2020DA6E210ED5
:105568003D24E16EE26A000EE222DFCFE7FF3D2A2A
:10557800090E3D64C2EF2AF0C4EF2AF0A9EF2AF021
:105588002B0E096E000E0A6E21504DEC4FF02E0EB8
:10559800096E000E0A6E22504DEC4FF0310E096E66
:1055A800000E0A6E23504DEC4FF01BC00DF01CC0CE
:1055B8000EF02D0E0F6EFD0E106ECBEC4AF01BC0D8
:1055C80017F01CC018F0310E196E000E1A6E85EC1B
:1055D80050F01BC017F01CC018F0FC0E196EFF0E1F
:1055E8001A6E85EC50F01BC017F01CC018F02E0E78
:1055F800196E000E1A6E85EC50F01BC017F01CC017
:1056080018F0FC0E196EFF0E1A6E85EC50F01BC0D8
:1056180017F01CC018F02B0E196E000E1A6E85ECD0
:1056280050F0340E096E000E0A6E25504DEC4FF006
:10563800370E096E000E0A6E26504DEC4FF03A0EEA
:10564800096E000E0A6E27504DEC4FF01DC00DF08C
:105658001EC00EF02D0E0F6EFD0E106ECBEC4AF034
:105668001DC017F01EC018F0340E196E000E1A6E09
:1056780085EC50F01DC017F01EC018F0C80E196E4A
:10568800FE0E1A6E85EC50F01DC017F01EC018F003
:10569800370E196E000E1A6E85EC50F01DC017F00B
:1056A8001EC018F0C80E196EFE0E1A6E85EC50F06A
:1056B8001DC017F01EC018F03A0E196E000E1A6EB3
:1056C80085EC50F0010E096E000E0A6E000E0B6E8E
:1056D800000E0C6EB0EC4BF01200000E1C6E020EA9
:1056E8001B6E000E1E6E000E1D6E25EC51F0000E96
:1056F8001C6E030E1B6E000E1E6E000E1D6E25EC3A
:1057080051F0000E1C6E040E1B6E000E1E6E000E75
:105718001D6E25EC51F0000E1C6E050E1B6E000E62
:105728001E6E000E1D6E25EC51F00001F399000E5F
:105738000A6E100E096E01EC4EF00001F36FF35182
:10574800D8B4A9EF2BF0ABEF2BF04BEF2CF02E0ECB
:10575800206EFD0E216E36EC3BF0870E206EFD0E9E
:10576800216E36EC3BF0000ED0EC49F00001F3A1BD
:10577800C0EF2BF0C2EF2BF0D5EF2BF0F391B40E66
:10578800206EFF0E216E36EC3BF0000E1C6E020EF2
:105798001B6E000E1E6E010E1D6E25EC51F010ECF6
:1057A80037F00001F3A5DBEF2BF0DDEF2BF0FAEF7C
:1057B8002BF0F395100E206EFF0E216E36EC3BF0A9
:1057C800000E1C6E030E1B6E000E1E6E010E1D6E6B
:1057D80025EC51F076EC44F0100E096E270E0A6E97
:1057E800000E0B6E000E0C6E57EC4BF00001F3A789
:1057F80000EF2CF002EF2CF020EF2CF0F397F38958
:10580800C70E206EFF0E216E36EC3BF0000E1C6EAC
:10581800040E1B6E000E1E6E010E1D6E25EC51F05F
:10582800A3EC23F0100E096E270E0A6E000E0B6E05
:10583800000E0C6E57EC4BF00001F3A326EF2CF092
:1058480028EF2CF045EF2CF0F3932D0E206EFF0E71
:10585800216E36EC3BF0000E1C6E050E1B6E000E22
:105868001E6E010E1D6E25EC51F0F9EC32F0100E93
:10587800096E270E0A6E000E0B6E000E0C6E57ECAA
:105888004BF0000E196E0F0E186E36EC51F0F3C087
:10589800E7F01200000E136EB30E126EDF0E146ED8
:1058A800010E156E040E166E39EC34F0E1C128F0C5
:1058B800296A2A6A2B6A2AC02BF029C02AF028C034
:1058C80029F0286AE0C12CF02D6A2E6A2F6A2DC0B3
:1058D8002FF02CC02EF02D6A2C6ADFC130F0316A0F
:1058E800326A336A30C033F0326A316A306A2C5017
:1058F8003024346E2D503120356E2E503220366EC5
:105908002F503320376E28503424386E29503520D4
:10591800396E2A5036203A6E2B5037203B6E0101E3
:10592800E25138243C6E000E39203D6E000E3A20BC
:105938003E6E000E3B203F6E3C503D103E103F1027
:10594800D8B4A9EF2CF0ABEF2CF028EF2DF0000124
:10595800CD513C180DE1CE513D180AE1CF513E180A
:1059680007E1D0513F18D8A4BCEF2CF0BEEF2CF0C3
:1059780028EF2DF0000E1B6EB30E1A6E000E1C6E73
:10598800000E1D6E000E1E6E000E1F6E6BEC4AF0B0
:10599800000E1D6EB20E1C6E39EC50F01C041D106A
:1059A800D8A4D9EF2CF0DBEF2CF0F8EF2CF0000E98
:1059B800746E000E0001ED6FDF69E069000E1C6E69
:1059C800B20E1B6E000E1E6E000E1D6E25EC51F001
:1059D800000E1C6E9A0E1B6E000E1E6E000E1D6EC3
:1059E80025EC51F024EF2DF0000E1D6EB20E1C6E4A
:1059F80039EC50F01C501D10D8A405EF2DF007EF1E
:105A08002DF024EF2DF0010E746E010E0001ED6FE4
:105A1800000EE06F0A0EDF6F000E1C6EB20E1B6EDA
:105A2800000E1E6E010E1D6E25EC51F0000E1C6E50
:105A38009A0E1B6E000E1E6E010E1D6E25EC51F0A7
:105A4800AFEC51F04CEC4DF01200116E1150D8B47F
:105A580030EF2DF032EF2DF054EF2DF00CBE39EF72
:105A68002DF037EF2DF054EF2DF009C00DF00AC0DE
:105A78000EF00BC00FF00CC010F00D1E0E1E0F1E06
:105A8800101E0D2A000E0E220F2210220DC013F038
:105A98000EC014F00FC015F010C016F05CEF2DF01A
:105AA80009C013F00AC014F00BC015F00CC016F0B2
:105AB80009500A100B100C10D8A465EF2DF067EFF1
:105AC8002DF071EF2DF0000E096E000E0A6E000E1B
:105AD8000B6E000E0C6E02EF2EF0960E126E7BEF20
