:020000040000FA
:0400000014EF02F007
:100018006E80D8CF04F0E8CF05F0E0CF06F0D9CF56
:1000280007F0DACF08F0F3CF09F0F4CF0AF09EAA70
:1000380020EF00F022EF00F0B1EF00F095988388F0
:100048000001C1B12AEF00F02CEF00F033EF00F00F
:10005800C1819A0E896F020E8A6F5AEF00F0000E66
:100068000B6E0B504A0DF40EF324D96E040EF420D7
:10007800DA6EDF50D8A443EF00F045EF00F051EFFF
:1000880000F00B504A0DF40EF3240001896F040EA2
:10009800F4208A6FC1815AEF00F00B2A050E0B6419
:1000A80058EF00F05AEF00F035EF00F0010E0001B4
:1000B8008C6F900E8B6F000E626E000E616EB269CF
:1000C80090EF00F09EAA6BEF00F06DEF00F08DEF5F
:1000D80000F08398838889C0D9FF8AC0DAFFAECF41
:1000E800DFFF62BE83EF00F0625007E1490E615CFA
:1000F800D8B081EF00F083EF00F087EF00F0614A9D
:10010800622A894B8A2B010E8C6F900E8B6F90EFB1
:1001180000F08B07D8A08C078B518C11D8A497EFCF
:1001280000F099EF00F066EF00F08398ABA29FEF24
:1001380000F0A1EF00F0B1EF00F0AB98AB88AECFC4
:100148008BF08C6BAECF8BF08C6BAECF8BF08C6B57
:10015800000E02019A6F0001C1839EA0B6EF00F065
:10016800B8EF00F0CAEF01F09E903C0ECF6EB40ECF
:10017800CE6E010E0001B16FBEB1C5EF00F0C7EF42
:1001880000F0C9EF00F0000EB16F000E626E010EB4
:10019800616EE2EF00F09E0E6124D96E010E6220BE
:1001A800DA6EDF50D8A4DBEF00F0DDEF00F0E0EF0F
:1001B80000F0000E0001B16F614A622A6A50016EB8
:1001C800026A6150015C0250800A036E6250800A24
:1001D8000358D8B0F2EF00F0F4EF00F0CFEF00F0E2
:1001E8000001B105D8A4FBEF00F0FDEF00F020EF0F
:1001F80001F004000001BE91000E626E010E616EF6
:1002080062BE10EF01F0625009E10F0E615CD8A0E8
:1002180010EF01F012EF01F014EF01F020EF01F000
:100228009E0E6124D96E010E6220DA6E000EDF6E1A
:10023800614A622A04EF01F0F50E0001805D010EAB
:100248008159D8A02AEF01F02CEF01F02FEF01F02F
:10025800819E30EF01F0818EAB51AC11D8B437EFED
:1002680001F039EF01F03FEF01F0320EAB5F000E05
:10027800AC5B44EF01F0A9C0ABF0AAC0ACF0C18DF3
:10028800320E9F27000EA023320EAD27000EAE239C
:100298006B50D8A452EF01F054EF01F05FEF01F07A
:1002A8009EBF59EF01F05BEF01F05FEF01F0CE0E5A
:1002B8009D27FF0E9E23320E9B27000E9C23320E95
:1002C8008027000E8123E80E805D030E8159D8A097
:1002D80070EF01F072EF01F0CAEF01F0C0A977EFFB
:1002E80001F079EF01F09AEF01F0BD2B3B0EBD65EF
:1002F80080EF01F082EF01F09AEF01F0000EBD6F80
:100308006D2A3B0E6D648BEF01F08DEF01F09AEFD3
:1003180001F0000E6D6E6C2A630E6C6496EF01F0AE
:1003280098EF01F09AEF01F0000E6C6E000E816FED
:10033800000E806F822B6950D8B4A5EF01F0A7EFAB
:1003480001F0A8EF01F069063B0E8265AEEF01F0FF
:10035800B0EF01F0CAEF01F0000E826F832B3B0E65
:100368008365B9EF01F0BBEF01F0CAEF01F0000EB1
:10037800836F842B170E8465C4EF01F0C6EF01F07C
:10038800CAEF01F0000E846FCAEF01F0F2A2CFEFBE
:1003980001F0D1EF01F0D2EF01F0F292F2A4D7EF21
:1003A80001F0D9EF01F004EF02F00D0EE82EFED7B0
:1003B80000F0000ED76EE10ED66EF2940101B15135
:1003C800B211D8B4EAEF01F0ECEF01F0F2EF01F06E
:1003D800B107D8A0B207818CF3EF01F0819C00012E
:1003E800AF51B011D8B4FBEF01F0FDEF01F003EF0E
:1003F80002F0AF07D8A0B007818A04EF02F0819A13
:100408000AC0F4FF09C0F3FF08C0DAFF07C0D9FF2C
:1004180006C0E0FF05C0E8FF04C0D8FF6E901000DA
:1004280022EF34F0640E0C6E000E0D6E000E0E6E90
:10043800000E0F6EDEEC3BF0D388D38AD38C9B8CF6
:10044800EF0E926E010E936EF00E946EE30E956EA3
:100458009668D59AD596D582D582D584F194F28AB4
:10046800F290F2989E909F900B0ECF6EBA0ECE6EC1
:10047800CD92CD88CD8ACD8CCD869D80CD80F28CD5
:10048800F28E000E0001A26F000EA16F819E000E79
:100498000101B26F000EB16F819C000E0001B06FB8
:1004A800000EAF6F819A000E196EC20E1A6E010E01
:1004B8001B6E000E1C6EAAEC36F022EC41F0A00E6A
:1004C800196E860E1A6E010E1B6E000E1C6E82ECE3
:1004D8003BF0F40E0C6E010E0D6E000E0E6E000E4B
:1004E8000F6EDEEC3BF0000E116E220E106E36EC35
:1004F8003FF010C0DEF011C0DFF00001DE2906E198
:10050800DF29D8A48AEF02F08CEF02F0A0EF02F006
:10051800000E2C6E220E2B6E000E2E6E000E2D6E0F
:100528004CEC40F0000E2C6EE80E2B6E000E2E6E7A
:10053800000E2D6E4CEC40F00001DE4BDF2B000E60
:100548002C6E220E2B6EDEC02DF0DFC02EF04CEC90
:1005580040F00001BF99000E116EFA0E106E36ECD5
:100568003FF010C08FF011C090F02C0E0C6E010EF1
:100578000D6E000E0E6E000E0F6EDEEC3BF0990E47
:10058800236EFC0E246EDEEC2AF02C0E0C6E010E8F
:100598000D6E000E0E6E000E0F6EDEEC3BF00C0EB4
:1005A800236EFE0E246EDEEC2AF02C0E0C6E010E6D
:1005B8000D6E000E0E6E000E0F6EDEEC3BF0C70ED9
:1005C800236EFC0E246EDEEC2AF02C0E0C6E010E4F
:1005D8000D6E000E0E6E000E0F6EDEEC3BF0070E79
:1005E800206EC60E1F6EAA0E216E040E226EF7EC48
:1005F80040F0500E106E020E116ED90E126EFE0EE5
:10060800136E53EC3BF0500E1A6E020E1B6EAA0EC0
:100618001C6E040E1D6E13EC40F0500E236E020E7D
:10062800246EDEEC2AF02C0E0C6E010E0D6E000E00
:100638000E6E000E0F6EDEEC3BF08BEC1DF0000E24
:100648000D6E340E0C6EEBEC3DF0FF0AD8A42FEFC4
:1006580003F031EF03F07CEF03F0E70E236EFC0E9E
:10066800246EDEEC2AF00A0E346E000E63EC2DF0D8
:1006780063EC3CF0BDEC3AF079EC39F0000E6B6EAF
:10068800000E0001BB6F19EC41F0000E266E100E33
:10069800256E000E276EC7EC37F0000E2C6E090E83
:1006A8002B6E000E2E6E0A0E2D6E4CEC40F0000ED6
:1006B8002C6E0B0E2B6E400E2D6EE20E2E6E010E62
:1006C8002F6E000E306E2CEC3EF0000E50EC0AF04F
:1006D800000E266E110E256E000E276EC7EC37F041
:1006E800000E266E120E256E000E276EC7EC37F030
:1006F8007DEC30F0010E50EC0AF0000E116E0B0E7E
:10070800106E30EC3DF010C085F011C086F012C0BC
:1007180087F013C088F03DEC37F0A6EC31F069ECB7
:100728003FF09E0E236EFE0E246EDEEC2AF0000EC5
:100738000001E26F0E0EE265A4EF03F0A6EF03F0EE
:10074800A8EF03F0B1EF03F004000001E251FFEC61
:1007580021F00001E22B9EEF03F0000EE36F070E7D
:10076800E365B9EF03F0BBEF03F0BDEF03F0C7EFAC
:1007780003F00400E3C025F0266A53EC2AF00001D8
:10078800E32BB3EF03F0000E116E0B0E106E30EC7E
:100798003DF010C085F011C086F012C087F013C07C
:1007A80088F03DEC37F0A5EC14F0A6EC31F069ECDC
:1007B8003FF0E1EC30F05EEC36F0000E0001ED6F3A
:1007C800000EEC6F000EEB6F000EEA6F000EBC6FB0
:1007D800000EA06F000E9F6F000EB76F000E9A6F8D
:1007E800000E996F000E986F000E976F000E686EDE
:1007F800000E676E000E8EEC3CF0000E0001816F5B
:10080800000E806F000E826F000EBD6FC0C0B3F087
:10081800000E696E000E0101AD6F000EAE6F000E86
:10082800AF6F000EB06F5FEC17F0000E1C6E0F0E6E
:100838001B6EDAEC40F00001BE8107EC32F0E90EE5
:1008480000019F5D030EA059D8A02DEF04F02FEFF3
:1008580004F04AEF04F0000EA06F000E9F6F70ECDA
:1008680035F01DC0ECF01EC0EDF00001EA51EC19A6
:1008780009E1EB51ED19D8B444EF04F046EF04F068
:100888004AEF04F0ECC0EAF0EDC0EBF0815107E16B
:10089800020E805DD8B053EF04F055EF04F062EF1C
:1008A80004F0190EEC19ED11D8B45DEF04F05FEF08
:1008B80004F062EF04F0000E8EEC3CF00001C0A9D9
:1008C80068EF04F06AEF04F06CEF04F0F0EC3AF033
:1008D800E1EC30F05EEC36F0C6EC22F04BEC20F0A8
:1008E80009EC38F0020E5E6E4D0E5D6E740EE82E49
:1008F800FED75D2EFCD75E2EFAD700D07FEC1EF017
:10090800020E5E6E4D0E5D6E740EE82EFED75D2EE5
:10091800FCD75E2EFAD700D0CBEC34F0020E5E6E18
:100928004D0E5D6E740EE82EFED75D2EFCD75E2E42
:10093800FAD700D0EBEC26F0020E5E6E4D0E5D6E1F
:10094800740EE82EFED75D2EFCD75E2EFAD700D0A7
:100958000001B351C019D8B4B4EF04F0B6EF04F0F5
:10096800BCEF04F057EC3DF050EC3FF0C0C0B3F0E2
:100978000001BD51D8B4C3EF04F0C5EF04F0CEEFC9
:1009880004F01E0EBD19D8A4CCEF04F0CEEF04F08D
:10099800DAEF04F0BFA3D3EF04F0D5EF04F0DBEFF8
:1009A80004F0BF9337EC41F0DBEF04F0BF83B0EC09
:1009B8003BF0A5EC14F088EC18F0B3EF09F0000E4A
:1009C8000001E46F090EE465ECEF04F0EEEF04F0CB
:1009D800F0EF04F02FEF05F0070EE4251F6E206AF4
:1009E800000E202239EC40F01F042010D8A4FFEF9D
:1009F80004F001EF05F02BEF05F0070E0001E425E8
:100A08001D6E1E6A000E1E22000E206E000E1F6E46
:100A1800C9EC40F0E4C0B9F0050E0001B96117EF68
:100A280005F019EF05F023EF05F0130EB86F000E6F
:100A38001C6E1B0E1B6EDAEC40F02BEF05F0150E4A
:100A4800B86F000E1C6E1C0E1B6EDAEC40F0000135
:100A5800E42BE6EF04F014EC16F0EDEF09F0000ECD
:100A6800206E010E1F6E39EC40F01F042010D8A430
:100A780040EF05F042EF05F0EDEF09F0000E1E6EB5
:100A8800010E1D6E000E206E000E1F6EC9EC40F0A8
:100A980069EC2CF0EDEF09F00001BC51D8A457EF38
:100AA80005F059EF05F05EEF05F0010E8EEC3CF015
:100AB8000001BC2B000E206E980E1F6E39EC40F022
:100AC8001F042010D8A46BEF05F06DEF05F07AEF46
:100AD80005F0000E1E6E980E1D6E000E206E000EA4
:100AE8001F6EC9EC40F0010E8EEC3CF0000E206E3B
:100AF800AE0E1F6E39EC40F01F042010D8A487EF0B
:100B080005F089EF05F0EDEF09F0000E1E6EAE0E50
:100B18001D6E000E206E000E1F6EC9EC40F089ECB1
:100B28003AF0EDEF09F0000E0001BA6F070EBA6552
:100B3800A0EF05F0A2EF05F0A4EF05F0D9EF05F05E
:100B4800200EBA251F6E206A000E202239EC40F0D4
:100B58001F042010D8A4B3EF05F0B5EF05F0D5EFCA
:100B680005F0200E0001BA251D6E1E6A000E1E2219
:100B7800000E206E000E1F6EC9EC40F0B8C01BF0CE
:100B88001C6ADAEC40F0C20E1A6E000E1B6E0001F1
:100B9800BA51AAEC2FF0010E256E0001B9513FECB5
:100BA8002FF00001BA2B9AEF05F0000E206E110EFF
:100BB8001F6E39EC40F01F042010D8A4E6EF05F0B2
:100BC800E8EF05F0F7EF05F0000E1E6E110E1D6E32
:100BD800000E206E000E1F6EC9EC40F0B8C01BF06E
:100BE8001C6ADAEC40F0000E206E120E1F6E39EC13
:100BF80040F01F042010D8A404EF06F006EF06F01A
:100C0800EDEF09F0000E1E6E120E1D6E000E206E26
:100C1800000E1F6EC9EC40F0000E0001C86FC90E2F
:100C2800106E000E116E430E126EFD0E136E53EC15
:100C38003BF0000E0001C76F000EC66F000EC56FB7
:100C4800000EC46F000EC36F000EC26F000E256E3B
:100C5800B9513FEC2FF0B8C01BF01C6ADAEC40F039
:100C6800EDEF09F0000E206EAF0E1F6E39EC40F06C
:100C78001F042010D8A443EF06F045EF06F0EDEF6F
:100C880009F0000E1E6EAF0E1D6E000E206E000ED7
:100C98001F6EC9EC40F0B8EC3CF0EDEF09F0100E17
:100CA800000185195D6E2F0E86195E6EBA0E8719C2
:100CB8005F6EE40E8819606E5D1CD86F5E1CD96F7C
:100CC8005F1CDA6F601CDB6FD8C019F0D9C01AF04E
:100CD800DAC01BF0DBC01CF0500E1D6E020E1E6E3B
:100CE800000E206E100E1F6E86EC27F0060E1E6E8C
:100CF8007C0E1D6E500E1F6E020E206E26EC40F00C
:100D0800F40E0C6E010E0D6E000E0E6E000E0F6EC0
:100D18008BEC38F0010E206E820E1F6E39EC40F01D
:100D28001F042010D8A49BEF06F09DEF06F0EDEF0E
:100D380009F0010E1E6E820E1D6E000E206E000E52
:100D48001F6EC9EC40F05AEC11F0EDEF09F000010C
:100D5800BF87030EE96F100EE86FE9BFBDEF06F01D
:100D68001D0EE85D030EE959D8A0BDEF06F0BFEFF0
:100D780006F0C1EF06F077EF09F0E851F00FB56F14
:100D8800E8C01FF0E9C020F039EC40F00E0E1F1843
:100D98002010D8A4D2EF06F0D4EF06F082EF08F0C6
:100DA8000001BB51D8B4DBEF06F0DDEF06F072EFBF
:100DB80008F0320E8F199011D8A4E5EF06F0E7EF8E
:100DC80006F0EAEF06F0B5C08DF08E6B500E8F1965
:100DD8009011D8A4F2EF06F0F4EF06F0FBEF06F05E
:100DE800C8EC38F05D6E5D5000018D6F8E6B8EBF64
:100DF80009EF07F08E5107E1080E8D5DD8B007EFB7
:100E080007F009EF07F036EF08F0100EB5251D6E54
:100E18001E6A030E1E22010EB5251F6E206A000EE3
:100E28002022C9EC40F08DC015F08EC016F0000EDF
:100E3800186E0A0E176E5FEC40F0FD0E15241D6E3D
:100E4800060E16201E6E010E8DC05DF08EC05EF07F
:100E58005DC05EF05D6A5D101F6E5E50206EC9EC6D
:100E680040F08DC015F08EC016F0000E186E0A0EF8
:100E7800176E5FEC40F0FB0E15241D6E060E162053
:100E88001E6E0001B551020D840EF324D96E010EB9
:100E9800F420DA6EDECF1FF0DDCF20F0C9EC40F091
:100EA8005A0E00018D25D96E030E8E21DA6E8DC083
:100EB800DFFF690E8D25D96E030E8E21DA6EB529F6
:100EC800DF6E780EB525D96EDA6A030EDA22B529F7
:100ED800DF6EB551020D840EF324D96E010EF42095
:100EE800DA6ED8908D35E16E8E35E26E870EE1268A
:100EF800030EE222DECFE6FFDDCFE5FF000E5D6EDA
:100F0800030E5E6E1E0E5D26000E5E22D8908D3595
:100F1800D96E8E35DA6ED890D936DA365D50D92644
:100F28005E50DA22000EDE6E000EDE6E800EDE6E81
:100F38003F0EDD6E020EB565A4EF07F0A6EF07F0D1
:100F4800AEEF07F0010EB525DC6FDD6B000EDD237B
:100F5800B1EF07F0B5C0DCF0DD6BDCC05DF0DDC0E3
:100F68005EF0D8905D365E36B30E5F6E010E606E31
:100F78005D505F265E506022D8908D35D96E8E35D3
:100F8800DA6E000ED926030EDA225FC0DEFF60C0DB
:100F9800DDFF000E5D6E030E5E6E1E0E5D26000EFA
:100FA8005E22D8908D35D96E8E35DA6ED890D936C6
:100FB800DA365D50D9265E50DA22000EDE6E000E5B
:100FC800DE6E800EDE6E3F0EDD6EB551D8A4EFEFFB
:100FD80007F0F1EF07F00DEF08F0000E5D6E030E5D
:100FE8005E6E1E0E5D26000E5E22D8908D35D96E7F
:100FF8008E35DA6ED890D936DA365D50D9265E50FD
:10100800DA22550EDE6EC10EDE6EE80EDE6E3E0E84
:10101800DD6EB505D8A413EF08F015EF08F031EF31
:1010280008F0000E5D6E030E5E6E1E0E5D26000E4D
:101038005E22D8908D35D96E8E35DA6ED890D93635
:10104800DA365D50D9265E50DA22CD0EDE6ECC0E31
:10105800DE6E4C0EDE6E3D0EDD6E020E50EC0AF0BA
:1010680072EF09F08DC015F08EC016F0000E186EE4
:101078000A0E176E5FEC40F0FD0E15241D6E060E6D
:1010880016201E6E00018D515E6E5D6A000E5D10A9
:101098001F6E0A0E5E10206EC9EC40F08DC015F070
:1010A8008EC016F0000E186E0A0E176E5FEC40F038
:1010B800FB0E15241D6E060E16201E6EFF0E206EEA
:1010C8001F68C9EC40F0E8C01DF0E9C01EF0FF0E33
:1010D800206E1F68C9EC40F072EF09F0B8EC40F0E0
:1010E800E8C01DF0E9C01EF0FF0E206E1F68C9ECB5
:1010F80040F0520E4CEC41F072EF09F0E8C01FF0DE
:10110800E9C020F039EC40F0205009E10F0E1F5CD7
:10111800D8A091EF08F093EF08F072EF09F0E8C05B
:101128001FF0E9C020F039EC40F0205007E11F0E15
:101138001F5CD8B0A2EF08F0A4EF08F072EF09F036
:101148000001BB51D8B4ABEF08F0ADEF08F035EFB4
:1011580009F0690E0C6E030E0D6EB5290E6E8BEC40
:101168003EF00001E56F690EB525D96EDA6A030E07
:10117800DA22DF505D6E5D04D76FE8C01DF0E9C06C
:101188001EF0FF0E206E1F68C9EC40F00001E5510B
:101198000A0DF3CF5DF0F4CF5EF0FD0E5D241D6EF9
:1011A800060E5E201E6E0A0E206E000E1F6EC9EC23
:1011B80040F00001E5510A0DF3CF5DF0F4CF5EF089
:1011C800FB0E5D241D6E060E5E201E6EFF0E206E49
:1011D8001F68C9EC40F00001E551020D000EF32430
:1011E800D96E030EF420DA6E000EDE6E000EDD6E90
:1011F8005A0EE525D96EDA6A030EDA220A0EDF6E78
:10120800690EE525D96EDA6A030EDA22FF0EDF6E63
:10121800780EB525D96EDA6A030EDA22FF0EDF6E74
:10122800E551020D870EF324D96E030EF420DA6E11
:10123800FF0EDE6EFF0EDD6EE551040D1E0EF3246B
:10124800D96E030EF420DA6E000EDE6E000EDE6E2E
:10125800000EDE6E000EDD6E020E50EC0AF072EF2C
:1012680009F0B8EC40F0520E4CEC41F0320E00019F
:101278008F199011D8A443EF09F045EF09F056EF04
:1012880009F0E8C01DF0E9C01EF0690EB525D96E59
:10129800DA6A030EDA22DF505D6E5D501F6E206A37
:1012A800C9EC40F0500E00018F199011D8A45FEFDF
:1012B80009F061EF09F072EF09F0E8C01DF0E9C02C
:1012C8001EF0780EB525D96EDA6A030EDA22DF50E1
:1012D8005D6E5D501F6E206AC9EC40F00001E84B5E
:1012E800E92BB1EF06F0BF97EDEF09F0A7EC40F05E
:1012F800000E0001BA6F070EBA6585EF09F087EF97
:1013080009F089EF09F0EDEF09F0200EBA251F6EFC
:10131800206A000E202239EC40F01F042010D8A4C7
:1013280098EF09F09AEF09F0ABEF09F0200E0001F1
:10133800BA251D6E1E6A000E1E22000E206E000EBB
:101348001F6EC9EC40F0C2EC35F0EDEF09F000017A
:10135800BA2B7FEF09F071EC0FF0EDEF09F0ECC05C
:101368005DF0EDC05EF05E50000AD8B4BEEF09F043
:10137800EDEF09F05D50130AD8B4E3EF04F0060A64
:10138800D8B4E3EF04F0020AD8B433EF05F00E0A3C
:10139800D8B450EF05F0020AD8B497EF05F0070A61
:1013A800D8B497EF05F0010AD8B436EF06F0020A70
:1013B800D8B453EF06F03C0AD8B4ABEF06F00C0AE9
:1013C800D8B47AEF09F01E0AD8B4AFEF09F0EDEF00
:1013D80009F0030E5E6E080E5D6E770EE82EFED7DE
:1013E8005D2EFCD75E2EFAD700F0CD0E72EC40F0E1
:1013F800CD0E72EC40F0CD0E72EC40F0CD0E72ECDA
:1014080040F0CD0E72EC40F0000E0001E16F000ECE
:10141800E06FF40EE05D010EE159D8A016EF0AF076
:1014280018EF0AF01AEF0AF039EF0AF0C1A11FEF1E
:101438000AF021EF0AF023EF0AF039EF0AF00B0E59
:101448005D6E620EE82EFED75D2EFCD700D000013F
:10145800E04BE12BF40EE05D010EE159D8A037EF27
:101468000AF039EF0AF01AEF0AF0C1A13EEF0AF0CC
:1014780040EF0AF042EF0AF054EC2EF00001C1A14F
:1014880048EF0AF04AEF0AF01FEF04F0E8EC2CF0FE
:101498001FEF04F014EF02F0376E4CEC26F042EF29
:1014A8000DF0000E3F6E3F50020D870EF324D96EEB
:1014B800030EF420DA6EFF0EDE6EFF0EDD6E5A0E9E
:1014C8003F24D96EDA6A030EDA220A0EDF6E690E3D
:1014D8003F24D96EDA6A030EDA22FF0EDF6E780E29
:1014E8003F24D96EDA6A030EDA22FF0EDF6E3F5010
:1014F800020D000EF324D96E030EF420DA6E000EEE
:10150800DE6E000EDD6E3F50040D1E0EF324D96E04
:10151800030EF420DA6E000EDE6E000EDE6E000E94
:10152800DE6E000EDD6E130E3F24256E266A000E59
:101538002622780E3F24D96EDA6A030EDA22DF50AB
:10154800276EC7EC37F0EA0E3F24256E266A000E98
:101558002622690E3F24D96EDA6A030EDA22DF509A
:10156800276EC7EC37F0240E3F24256E266A000E3E
:1015780026225A0E3F24D96EDA6A030EDA22DF5089
:10158800276EC7EC37F0100E3F241D6E1E6A030E3F
:101598001E22FF0E206E1F68C9EC40F03F500A0D56
:1015A800F3CF31F0F4CF32F0FD0E31241D6E060E6C
:1015B80032201E6E0A0E206E000E1F6EC9EC40F01F
:1015C8003F500A0DF3CF31F0F4CF32F0FB0E312447
:1015D8001D6E060E32201E6EFF0E206E1F68C9ECAF
:1015E80040F03F2A0C0E3F64FCEF0AF0FEEF0AF0D1
:1015F80057EF0AF05BEF0DF0000E116E130E106E30
:10160800780E126E030E136E0F0E146EA9EC3EF0D8
:10161800000E116EEA0E106E690E126E030E136E36
:101628000F0E146EA9EC3EF0000E116E240E106E13
:101638005A0E126E030E136E0F0E146EA9EC3EF0C6
:10164800000E3F6E780E3F24D96EDA6A030EDA2256
:10165800DF503A6E3A28D8B434EF0BF036EF0BF07F
:1016680043EF0BF0100E3F241D6E1E6A030E1E2260
:101678003AC01FF0206AC9EC40F04EEF0BF0100E94
:101688003F241D6E1E6A030E1E22FF0E206E1F6869
:10169800C9EC40F03F2A0C0E3F6455EF0BF057EFB2
:1016A8000BF026EF0BF0000E3F6E5A0E3F24D96E5A
:1016B800DA6A030EDA22080EDF6065EF0BF067EFD7
:1016C8000BF07FEF0BF0690E3F24D96EDA6A030E38
:1016D800DA22DF50316E326AD89031363236820ED5
:1016E8003124D96E010E3220DA6EDECF3CF0DDCF28
:1016F8003DF081EF0BF03C683D683F500A0DF3CF99
:1017080031F0F4CF32F0FB0E31241D6E060E32207C
:101718001E6E3CC01FF03DC020F0C9EC40F03F50A9
:10172800020D870EF324D96E030EF420DA6E3CC046
:10173800DEFF3DC0DDFF3F2A0C0E3F64A6EF0BF035
:10174800A8EF0BF059EF0BF0000E3F6E5A0E3F2436
:10175800D96EDA6A030EDA22DF503B6E080E3B6060
:10176800B8EF0BF0BAEF0BF0D5EF0BF03F500A0DC6
:10177800F3CF31F0F4CF32F0FD0E31241D6E060E9A
:1017880032201E6E010E3BC033F0346A33C034F091
:10179800336A33101F6E3450206EC9EC40F0E7EF07
:1017A8000BF03F500A0DF3CF31F0F4CF32F0FD0EBD
:1017B80031241D6E060E32201E6E0A0E206E000E9B
:1017C8001F6EC9EC40F03F2A0C0E3F64EEEF0BF0A1
:1017D800F0EF0BF0AAEF0BF0000E3E6E5A0E3E240F
:1017E800D96EDA6A030EDA220A0EDE18D8B4FFEFD1
:1017F8000BF001EF0CF0DDEF0CF0FF0E316EFF0E79
:10180800326E5A0E3E24D96EDA6A030EDA22DF509F
:10181800336E346A690E3324D96E030E3420DA6EBF
:10182800DF50356E366A315035263250362236BE94
:1018380027EF0CF0365009E1030E355CD8A027EFEE
:101848000CF029EF0CF03FEF0CF05A0E3E24D96E45
:10185800DA6A030EDA22DF50316E326A690E3124F9
:10186800D96E030E3220DA6EDF50336E3350386E85
:10187800396A56EF0CF05A0E3E24D96EDA6A030E16
:10188800DA22DF50316E326A690E3124D96E030EC6
:101898003220DA6EDF50336EFF0E3324386E396A29
:1018A800FF0E392238C031F039C032F0D8903136C5
:1018B8003236B30E336E010E346E31503326325049
:1018C80034225A0E3E24D96EDA6A030EDA22DF5029
:1018D800356E3550020D000EF324D96E030EF42038
:1018E800DA6E33C0DEFF34C0DDFF5A0E3E24D96EF7
:1018F800DA6A030EDA22DF50316E3150040D1E0E03
:10190800F324D96E030EF420DA6E000EDE6E000E9C
:10191800DE6E800EDE6E3F0EDD6E5A0E3E24D96EF0
:10192800DA6A030EDA22DF50D8A49DEF0CF09FEF9D
:101938000CF0B7EF0CF05A0E3E24D96EDA6A030E9B
:10194800DA22DF50316E3150040D1E0EF324D96EA9
:10195800030EF420DA6E550EDE6EC10EDE6EE80E52
:10196800DE6E3E0EDD6E5A0E3E24D96EDA6A030E26
:10197800DA22DE04D8A4C3EF0CF0C5EF0CF0DDEFDB
:101988000CF05A0E3E24D96EDA6A030EDA22DF50C2
:10199800316E3150040D1E0EF324D96E030EF4205F
:1019A800DA6ECD0EDE6ECC0EDE6E4C0EDE6E3D0EA9
:1019B800DD6E3E2A070E3E64E4EF0CF0E6EF0CF015
:1019C800F2EF0BF05BEF0DF0000E3F6E100E3F24B0
:1019D8001F6E206A030E202239EC40F0780E3F2457
:1019E800D96EDA6A030EDA221FC0DFFF3F500A0DF4
:1019F800F3CF31F0F4CF32F0FD0E31241F6E060E16
:101A08003220206E39EC40F020C01FF0206A5A0EB8
:101A18003F24D96EDA6A030EDA221FC0DFFF3F2A9D
:101A28000D0E3F641AEF0DF01CEF0DF0EAEF0CF00D
:101A3800000E2C6E130E2B6E780E2D6E030E2E6E6E
:101A48000F0E2F6E6CEC3EF0000E2C6EEA0E2B6E15
:101A5800690E2D6E030E2E6E0F0E2F6E6CEC3EF07F
:101A6800000E2C6E240E2B6E5A0E2D6E030E2E6E4B
:101A78000F0E2F6E6CEC3EF05BEF0DF03750316EB1
:101A8800326A3250000AD8B44CEF0DF05BEF0DF01B
:101A98003150000AD8B455EF0AF0010AD8B400EF63
:101AA8000BF0030AD8B4E8EF0CF05BEF0DF012006E
:101AB8001D50800B266E1D501D242C6E1CAE67EF2A
:101AC8000DF069EF0DF06AEF0DF02C802C50D8B4B2
:101AD80070EF0DF072EF0DF085EF0DF02C28D8A403
:101AE80078EF0DF07AEF0DF082EF0DF0000E1A6E20
:101AF800000E1B6E000E1C6E000E1D6E1C8E8DEFF0
:101B08000DF0000E1A6E000E1B6E000E1C6E000EFD
:101B18001D6E2150800B261A215021242B6E20AED9
:101B280098EF0DF09AEF0DF09BEF0DF02B802B50F6
:101B3800D8B4A1EF0DF0A3EF0DF0B6EF0DF02B2800
:101B4800D8A4A9EF0DF0ABEF0DF0B3EF0DF0000E38
:101B58001E6E000E1F6E000E206E000E216E208E6F
:101B6800BEEF0DF0000E1E6E000E1F6E000E206EF2
:101B7800000E216E2B50D8B4C4EF0DF0C6EF0DF057
:101B8800CEEF0DF02C50D8A4CCEF0DF0CEEF0DF029
:101B9800D8EF0DF0000E1A6E000E1B6E000E1C6EB4
:101BA800000E1D6E70EF0FF020501A02F3CF31F0C7
:101BB800F4CF32F03150276E286A296A2A6A3250E7
:101BC8002D6E2E6A2F6A306A1F501B02F3CF31F038
:101BD800F4CF32F031502726000E282229222A225B
:101BE80032502D26000E2E222F2230221E501C028B
:101BF800F3CF31F0F4CF32F031502726000E2822EF
:101C080029222A2232502D26000E2E222F2230225F
:101C180029C02AF028C029F027C028F0276A1E50BA
:101C28001B02F3CF31F0F4CF32F031502726325077
:101C38002822000E2922000E2A221F501A02F3CF52
:101C480031F0F4CF32F03150272632502822000EDE
:101C58002922000E2A2229C02AF028C029F027C0EC
:101C680028F0276A1E501A02F3CF31F0F4CF32F071
:101C78003150272632502822000E2922000E2A220F
:101C880020501B02F3CF31F0F4CF32F031502D2623
:101C980032502E22000E2F22000E30221F501C021E
:101CA800F3CF31F0F4CF32F031502D2632502E22BE
:101CB800000E2F22000E302220501C02F3CF31F0EC
:101CC800F4CF32F03150226E3250236E246A256AE6
:101CD80024C025F023C024F022C023F0226A225019
:101CE8002D2623502E2224502F222550302227C063
:101CF80022F028C023F029C024F02AC025F0190EAC
:101D08008BEF0EF0D8902532243223322232E82E7F
:101D180086EF0EF022502D2623502E2224502F22FB
:101D28002550302229C02AF028C029F027C028F0E1
:101D3800276A2B502CC022F0236A2226000E232269
:101D4800820E2224316EFF0E2320326EC1EF0EF078
:101D5800D8902D362E362F3630362AAEB6EF0EF006
:101D6800B8EF0EF0B9EF0EF02D80D8902736283650
:101D780029362A363106D8A032062FAEC6EF0EF025
:101D8800C8EF0EF0ACEF0EF0000E2B6E2AAECFEFC0
:101D98000EF0D1EF0EF0F5EF0EF0FF0E2714226EC5
:101DA800FF0E2814236EFF0E2914246E7F0E2A14AA
:101DB800256E2250231024102510D8B4E6EF0EF01B
:101DC800E8EF0EF0ECEF0EF0010E2B6EF5EF0EF0D3
:101DD8002DA0F1EF0EF0F3EF0EF0F5EF0EF0E8EFB7
:101DE8000EF02B50D8B4FBEF0EF0FDEF0EF021EF04
:101DF8000FF0010E2D26000E2E222F22302230A0A9
:101E080008EF0FF00AEF0FF021EF0FF02DC022F0CE
:101E18002EC023F02FC024F030C025F02534253201
:101E280024322332223222C02DF023C02EF024C0C7
:101E38002FF025C030F0314A322A32BE2CEF0FF095
:101E4800325008E13128D8A02CEF0FF02EEF0FF018
:101E580038EF0FF0000E2D6E000E2E6E800E2F6ED6
:101E68007F0E306E66EF0FF032BE45EF0FF0325046
:101E780006E13104D8B043EF0FF045EF0FF051EF12
:101E88000FF0000E2D6E000E2E6E000E2F6E000E3F
:101E9800306E000E266E66EF0FF031C02CF0FF0E8C
:101EA8002D16FF0E2E167F0E2F16000E30162CA0A4
:101EB80060EF0FF062EF0FF063EF0FF02F8ED89006
:101EC8002C30306E265030122DC01AF02EC01BF068
:101ED8002FC01CF030C01DF01200010E206E860EBF
:101EE8001F6E39EC40F01F042010D8A47EEF0FF0CD
:101EF80080EF0FF007EF10F0000E0001C36F000E27
:101F0800C26F000EC56F000EC46F000EC76F000EC3
:101F1800C66F000EC86FC90E106E000E116E430E0C
:101F2800126EFD0E136E53EC3BF0C20E2F6E000EB8
:101F3800306E0001BA51C2EC32F0BAC025F0266A00
:101F480053EC2AF0010E1E6E9A0E1D6E000E206EC6
:101F5800000E1F6EC9EC40F0010E1E6E9B0E1D6E2A
:101F6800000E206E000E1F6EC9EC40F0010E1E6EB2
:101F78009C0E1D6E000E206E000E1F6EC9EC40F008
:101F8800010E1E6E9D0E1D6E000E206E000E1F6E41
:101F9800C9EC40F0010E1E6E9E0E1D6E430E1F6EA4
:101FA800FD0E206E26EC40F0A7EC40F0010E1E6EF0
:101FB800860E1D6E000E206E000E1F6EC9EC40F0DE
:101FC800600E4CEC41F057EC3DF0070E1E6E760E9D
:101FD8001D6ED60E1F6EFD0E206E26EC40F0DC0E38
:101FE8000C6E050E0D6E000E0E6E000E0F6E37ECA9
:101FF8003CF0070E1E6E760E1D6E430E1F6EFD0E14
:10200800206E26EC40F0010E206E870E1F6E39EC14
:1020180040F01F042010D8A414EF10F016EF10F0B1
:102028007EEF10F0010E206E9A0E1F6E39EC40F014
:102038001FC0C2F020C0C3F0010E206E9B0E1F6EA1
:1020480039EC40F01FC0C4F020C0C5F0010E206E6E
:102058009C0E1F6E39EC40F01FC0C6F020C0C7F0C0
:10206800010E206E9D0E1F6E39EC40F01F500001CE
:10207800C86F010E206E9E0E1F6EC90E216E000ED7
:10208800226EF7EC40F0C20E2F6E000E306E00018B
:10209800BA51C2EC32F0A7EC40F0010E1E6E870E6A
:1020A8001D6E000E206E000E1F6EC9EC40F0510E22
:1020B8004CEC41F057EC3DF0070E1E6E760E1D6E8F
:1020C800BA0E1F6EFD0E206E26EC40F0DC0E0C6E74
:1020D800050E0D6E000E0E6E000E0F6E37EC3CF006
:1020E800070E1E6E760E1D6E430E1F6EFD0E206EC1
:1020F80026EC40F0010E206E880E1F6E39EC40F081
:102108001F042010D8A48BEF10F08DEF10F03AEFD9
:1021180011F0070E1E6E760E1D6E800E1F6EFD0EE0
:10212800206E26EC40F0C20E1A6E000E1B6E0001E7
:10213800BA51AAEC2FF0070E1E6E760E1D6E620EB7
:102148001F6EFD0E206E26EC40F0000E3D6ECFEFA8
:1021580010F03DC040F0C2C041F0C3C042F0C4C05E
:1021680043F0C6C044F0C8C045F0460E106E000EDD
:10217800116EC90E126E000E136E53EC3BF0000E7A
:10218800506E010E4F6E400E2F6E000E306E3D5099
:10219800CBEC2EF03D2AFC0E366EFF0E376E6A50E1
:1021A800386E396AD890383639363650382637502E
:1021B80039223D503A6E3B6A38503A5C3B50800AAF
:1021C8003C6E3950800A3C58D8A0EDEF10F0EFEF84
:1021D80010F0ADEF10F0070E1E6E760E1D6E650E38
:1021E8001F6EFC0E206E26EC40F093EC1CF0070EE0
:1021F8001E6E760E1D6E070E1F6EFD0E206E26ECEF
:1022080040F0000E3E6E3E50FFEC21F03E2A0E0ECE
:102218003E6411EF11F013EF11F007EF11F0000E0B
:102228003F6E3F50FAEC24F03F2A090E3F641FEF3F
:1022380011F021EF11F015EF11F0010E1E6E880E4E
:102248001D6E000E206E000E1F6EC9EC40F0600E71
:102258004CEC41F057EC3DF0070E1E6E760E1D6EED
:10226800430E1F6EFD0E206E26EC40F0010E206E10
:10227800890E1F6E39EC40F01F042010D8A447EFD8
:1022880011F049EF11F059EF11F0010E1E6E890E91
:102298001D6E000E206E000E1F6EC9EC40F0000E81
:1022A8001C6E2F0E1B6EDAEC40F01200010E206E31
:1022B8007E0E1F6EB1EC3FF01FC033F020C034F02B
:1022C80021C035F022C036F0E6EC2BF0010E206E6E
:1022D800800E1F6EB1EC3FF01FC033F020C034F009
:1022E80021C035F022C036F0E6EC2BF0010E166E58
:1022F8007C0E156E590E176E000E186E040E196EB0
:1023080063EC2BF05BC03DF03E6A3F6A406A3FC019
:1023180040F03EC03FF03DC03EF03D6A5AC041F03B
:10232800426A436A446A42C044F041C043F0426A88
:10233800416A59C045F0466A476A486A45C048F04C
:10234800476A466A456A41504524496E42504620CC
:102358004A6E435047204B6E445048204C6E3D50C7
:1023680049244D6E3E504A204E6E3F504B204F6ED2
:1023780040504C20506E5C504D240001856F000E7B
:102388004E20866F000E4F20876F000E5020886FFA
:10239800010E166E7E0E156E590E176E000E186E13
:1023A800040E196E63EC2BF05BC03DF03E6A3F6A89
:1023B800406A3FC040F03EC03FF03DC03EF03D6A3D
:1023C8005AC041F0426A436A446A42C044F041C07C
:1023D80043F0426A416A59C045F0466A476A486A0A
:1023E80045C048F0476A466A456A41504524496EE7
:1023F800425046204A6E435047204B6E4450482076
:102408004C6E3D5049244D6E3E504A204E6E3F5012
:102418004B204F6E40504C20506E5C504D24556EF2
:10242800000E4E20566E000E4F20576E000E5020A4
:10243800586E010E166E800E156E590E176E000E30
:10244800186E040E196E63EC2BF05BC03DF03E6A0B
:102458003F6A406A3FC040F03EC03FF03DC03EF09A
:102468003D6A5AC041F0426A436A446A42C044F035
:1024780041C043F0426A416A59C045F0466A476A1A
:10248800486A45C048F0476A466A456A415045244B
:10249800496E425046204A6E435047204B6E445086
:1024A80048204C6E3D5049244D6E3E504A204E6E99
:1024B8003F504B204F6E40504C20506E5C504D2486
:1024C800516E000E4E20526E000E4F20536E000EBD
:1024D8005020546E00018551861187118811D8B497
:1024E80078EF12F07AEF12F090EF12F05550561084
:1024F80057105810D8B483EF12F085EF12F090EF10
:1025080012F05150521053105410D8A48EEF12F0FC
:1025180090EF12F095EF12F0230E4CEC41F00FEF14
:1025280013F0000E116E0B0E106E30EC3DF0000132
:10253800855110180DE1865111180AE187511218BA
:1025480007E188511318D8A4ACEF12F0AEEF12F0DF
:102558000CEF13F0515055180DE1525056180AE17E
:102568005350571807E154505818D8A4BEEF12F02A
:10257800C0EF12F007EF13F0000E2C6E0B0E2B6E4F
:1025880055C02DF056C02EF057C02FF058C030F06F
:102598002CEC3EF055C085F056C086F057C087F049
:1025A80058C088F019EC41F0010E1E6E7C0E1D6EAD
:1025B800000E1F6E000E206E000E216E000E226EA1
:1025C80022EC3BF0010E1E6E7E0E1D6E000E1F6E7D
:1025D800000E206E000E216E000E226E22EC3BF0E3
:1025E800010E1E6E800E1D6E000E1F6E000E206EF8
:1025F800000E216E000E226E22EC3BF0220E4CECF7
:1026080041F00FEF13F0210E4CEC41F00FEF13F0F7
:10261800200E4CEC41F0120007C23DF008C23CF01D
:1026280009C23BF00AC23AF056EF14F006C225F090
:10263800266A07C227F0C7EC37F0030E9AEC3FF082
:1026480029EC41F0A4EF14F006C20CF00D6AEBEC93
:102658003DF0386E010E9AEC3FF0385072EC40F0C5
:10266800A4EF14F006C233F0085107C22FF0306A05
:102678002FC030F02F6A2F10316E3050326E33C0B9
:102688002BF02C6A31C02DF032C02EF04CEC40F00B
:10269800030E9AEC3FF024EF13F006C210F0116A13
:1026A80036EC3FF010C036F011C037F0020E9AEC4D
:1026B8003FF036C00DF037C00EF030EC41F0A4EF1B
:1026C80014F006C22BF02C6A070E2D6E020E2E6E29
:1026D8007EEC3DF0030E9AEC3FF024EF13F006C2B7
:1026E80010F0116A500E126E020E136E4CEC3EF092
:1026F8004A0E9AEC3FF0500E0D6E020E0E6EF5EC7F
:1027080036F0A4EF14F03AC022F03BC023F03CC0EE
:1027180024F03DC025F00B0E266E020E276E0651E2
:10272800EDEC3FF0030E9AEC3FF024EF13F03AC0C3
:1027380026F03BC027F03CC028F03DC029F00651E8
:1027480082EC3FF0386E010E9AEC3FF0385072EC94
:1027580040F0A4EF14F00BC234F00CC235F03AC0CC
:1027680022F03BC023F03CC024F03DC025F0340EDD
:10277800266E000E276E0651DAEC3FF0030E9AEC37
:102788003FF024EF13F03AC026F03BC027F03CC0DE
:1027980028F03DC029F00651FFEC3EF026C036F087
:1027A80027C037F0020E9AEC3FF05DEF13F00BC232
:1027B80039F03AC012F03BC013F03CC014F03DC0F1
:1027C80015F039C016F0AA0E176E040E186E0651D1
:1027D800A0EC1AF039509AEC3FF0AA0E0D6E040ED8
:1027E8000E6E39C00FF0E3EC3EF0A4EF14F03AC0DF
:1027F8000FF03BC010F03CC011F03DC012F00BC20E
:1028080013F00C0E146E020E156E06519BEC1BF0A5
:10281800030E9AEC3FF024EF13F03AC00FF03BC0E0
:1028280010F03CC011F03DC012F00B0E136E020EFA
:10283800146E06518CEC23F0030E9AEC3FF024EF53
:1028480013F03AC012F03BC013F03CC014F03DC086
:1028580015F0500E166E020E176E065198EC19F010
:10286800500E0C6E020E0D6EE0EC3CF00C509AEC23
:102878003FF07FEF13F007C222F006514AEC38F020
:10288800030E9AEC3FF024EF13F006512F6E075118
:102898001B6E2FC01CF01BEC3FF0030E9AEC3FF0B0
:1028A80024EF13F0020104512F6E306A3050000AF1
:1028B800D8B461EF14F0A4EF14F02F50080AD8B47C
:1028C8001AEF13F0010AD8B428EF13F0030AD8B4AA
:1028D80036EF13F0010AD8B451EF13F0070AD8B451
:1028E80065EF13F0010AD8B473EF13F01C0AD8B4DB
:1028F80087EF13F0030AD8B49BEF13F0010AD8B49A
:10290800AFEF13F0070AD8B4C7EF13F0010AD8B431
:1029180011EF14F0030AD8B425EF14F0010AD8B463
:10292800FBEF13F00F0AD8B4DBEF13F0010AD8B4A9
:102938003FEF14F0380AD8B449EF14F0A4EF14F0BC
:102948001200000E326ED9EF14F032C00CF00D6A8E
:10295800000E0F6E020E0E6E44EC31F00C282E6E37
:102968003250010B316E31C029F01A0E0F6E010E74
:10297800106E290E116E000E126E2E50A9EC28F062
:102988003250020DB30EF324D96E010EF420DA6E24
:102998000FC0DEFF10C0DDFF9E0E2E24D96EDA6A4E
:1029A800010EDA22010EDF6E322A6A50020D325011
:1029B800256E266AF350255C2650800A276EF4504F
:1029C800800A2758D8A0EBEF14F0EDEF14F0A9EF28
:1029D80014F0320E0C6E000E0D6E000E0E6E000E10
:1029E8000F6E37EC3CF00001BF87000E326EFDEF32
:1029F80015F0000E1E6E990E1D6E3250020DB30EAC
:102A0800F324D96E010EF420DA6EDECF1FF0DDCF8D
:102A180020F0C9EC40F03250020DB30EF324D96E09
:102A2800010EF420DA6EDECF97F0DDCF98F0FCEFE0
:102A380015F0000E1E6E970E1D6E3250020DB30E6D
:102A4800F324D96E010EF420DA6EDECF1FF0DDCF4D
:102A580020F0C9EC40F03250020DB30EF324D96EC9
:102A6800010EF420DA6EDECF99F0DDCF9AF0FCEF9C
:102A780015F0000E1E6E960E1D6E3250020DB30E2E
:102A8800F324D96E010EF420DA6EDECF1FF0DDCF0D
:102A980020F0C9EC40F03250020DB30EF324D96E89
:102AA800010EF420DA6EDECF67F0DDCF68F0FCEFC0
:102AB80015F03250FC0F316E31500C0DF3CF25F06C
:102AC800F4CF26F0E60E25242C6E000E26202D6E5F
:102AD800900E31242F6E306A010E3022010E2C2404
:102AE8001D6E000E2D201E6E3150256E266AD89060
:102AF80025362636BB0E2524D96E010E2620DA6E21
:102B0800DECF1FF0DDCF20F0C9EC40F03150256E4C
:102B1800266AD89025362636BB0E2524D96E010E96
:102B28002620DA6E010EDBAEA3EF15F0700EDE5C28
:102B3800FE0EDE58D8B0A3EF15F0A5EF15F0B1EFF3
:102B480015F02FC01DF030C01EF0000E206E010ED3
:102B58001F6EC9EC40F0FCEF15F03150256E266A67
:102B6800D89025362636BB0E2524D96E010E262090
:102B7800DA6EDE2806E1DE28D8A4C5EF15F0C7EF27
:102B880015F0D3EF15F02FC01DF030C01EF0000E69
:102B9800206E000E1F6EC9EC40F0FCEF15F02FC040
:102BA8001DF030C01EF0000E206E030E1F6EC9EC23
:102BB80040F0FCEF15F03250256E266A2650000AC8
:102BC800D8B4E9EF15F05DEF15F02550000AD8B438
:102BD800FDEF14F0010AD8B41DEF15F0030AD8B4BC
:102BE8003DEF15F0010AD8B4FCEF15F05DEF15F0D4
:102BF800322A6A50020D3250256E266AF350255C3F
:102C08002650800A276EF450800A2758D8A00FEF64
:102C180016F011EF16F0DFEF15F00001BF97120064
:102C2800000E206EA80E1F6E39EC40F01F04201015
:102C3800D8A421EF16F023EF16F04DEF16F0000E92
:102C48001E6EA80E1D6E000E206E000E1F6EC9ECC3
:102C580040F00001BB51D8B434EF16F036EF16F04F
:102C680048EF16F0000E4A6E4A50FFEC21F04A2A4F
:102C78000E0E4A6442EF16F044EF16F038EF16F0E5
:102C880057EC3DF04DEF16F0520E4CEC41F0B8EC1D
:102C980040F0000E206EA70E1F6E39EC40F01F04A6
:102CA8002010D8A45AEF16F05CEF16F0A2EF16F039
:102CB800000E1E6EA70E1D6E000E206E000E1F6EFB
:102CC800C9EC40F00001BB51D8B46DEF16F06FEFBE
:102CD80016F09DEF16F0400E216EFE0E226E070EC6
:102CE800246ED00E236E000E256E010E266E77EC34
:102CF80034F0000E4B6E4B5019EC28F04B2A090E9D
:102D08004B6489EF16F08BEF16F07FEF16F0960EF6
:102D1800216EFF0E226E070E246ED00E236E010E5A
:102D2800256E000E266E77EC34F057EC3DF0A2EFDE
:102D380016F0520E4CEC41F0B8EC40F0000E206E4C
:102D4800A60E1F6E39EC40F01F042010D8A4AFEF78
:102D580016F0B1EF16F0EBEF16F0000E1E6EA60E91
:102D68001D6E000E206E000E1F6EC9EC40F00001B3
:102D7800BB51D8B4C2EF16F0C4EF16F0E6EF16F068
:102D8800B20E216EFE0E226E070E246ED00E236E3A
:102D9800000E256E010E266E77EC34F093EC1CF0D5
:102DA800960E216EFF0E226E070E246ED00E236E35
:102DB800010E256E000E266E77EC34F057EC3DF0D0
:102DC800EBEF16F0520E4CEC41F0B8EC40F0000E70
:102DD800206EA90E1F6E39EC40F01F042010D8A4F5
:102DE800F8EF16F0FAEF16F05EEF17F0000E1E6E11
:102DF800A90E1D6E000E206E000E1F6EC9EC40F06D
:102E08000001BB51D8B40BEF17F00DEF17F059EFD5
:102E180017F0A10E216EFF0E226E070E246ED00E43
:102E2800236E000E256E010E266E77EC34F0130E1D
:102E38000001EC19ED11D8A424EF17F026EF17F0D4
:102E480028EF17F0000E496E150EEC19ED11D8A4F5
:102E580030EF17F032EF17F034EF17F0050E496E28
:102E6800050E346E495063EC2DF0000E4C6E4C503C
:102E7800FFEC21F04C2A0E0E4C6445EF17F047EF9B
:102E880017F03BEF17F057EC3DF0C00E216EFF0E28
:102E9800226E070E246ED00E236E010E256E000ED4
:102EA800266E77EC34F05EEF17F0520E4CEC41F0E2
:102EB800B8EC40F01200000E1E6E020E1D6E000EE1
:102EC800206E000E1F6EC9EC40F0000E1E6E030E41
:102ED8001D6E000E206E000E1F6EC9EC40F0000E35
:102EE8001E6E040E1D6E000E206E000E1F6EC9ECC5
:102EF80040F0000E1E6E050E1D6E000E206E000EB8
:102F08001F6EC9EC40F00001C099000E0D6E100E46
:102F18000C6EEBEC3DF00001C06FC051D8B497EFD8
:102F280017F099EF17F085EF18F0440E236EFD0E99
:102F3800246EDEEC2AF09D0E236EFD0E246EDEEC70
:102F48002AF0000E21EC3AF00001C0A1AEEF17F014
:102F5800B0EF17F00FEF18F0C091B60E236EFF0E0A
:102F6800246EDEEC2AF0000E1E6E020E1D6E000EA0
:102F7800206E010E1F6EC9EC40F009EC38F0000E0F
:102F88001C6E230E1B6EDAEC40F0000E486E000E2D
:102F9800496E000E4A6E000E4B6E000E436E4BC01B
:102FA80044F04AC045F049C046F048C047F0140E06
:102FB8000F6E050E106E430E116E000E126E010E8E
:102FC800A9EC28F00FC041F010C042F0320E0C6E90
:102FD800000E0D6E000E0E6E000E0F6EDEEC3BF056
:102FE80041C03DF042C03EF0010EEAEC39F0020E5D
:102FF8004826000E49224A224B224B504A100BE128
:10300800580E485C020E4958D8A00DEF18F00FEF83
:1030180018F0D1EF17F00001C0A515EF18F017EF61
:1030280018F034EF18F0C095200E236EFF0E246EB2
:10303800DEEC2AF0000E1E6E030E1D6E000E206ED2
:10304800010E1F6EC9EC40F0CBEC34F0100E0C6E84
:10305800270E0D6E000E0E6E000E0F6EDEEC3BF0AE
:103068000001C0A73AEF18F03CEF18F05AEF18F03B
:10307800C097C089C90E236EFF0E246EDEEC2AF0BD
:10308800000E1E6E040E1D6E000E206E010E1F6EC9
:10309800C9EC40F07FEC1EF0100E0C6E270E0D6E82
:1030A800000E0E6E000E0F6EDEEC3BF00001C0A3AA
:1030B80060EF18F062EF18F07FEF18F0C0932F0E52
:1030C800236EFF0E246EDEEC2AF0000E1E6E050E37
:1030D8001D6E000E206E010E1F6EC9EC40F0EBEC69
:1030E80026F0100E0C6E270E0D6E000E0E6E000EE2
:1030F8000F6EDEEC3BF0000E1C6E0F0E1B6EDAEC52
:1031080040F0C0C0B3F01200A5EC3DF0F10E236E04
:10311800FD0E246EDEEC2AF0FD0E236EFE0E246EEC
:10312800DEEC2AF0000E206EAA0E1F6E39EC40F07D
:103138001F042010D8A4A3EF18F0A5EF18F097EFFC
:1031480019F0000E1E6EAA0E1D6E000E206E000EE7
:103158001F6EC9EC40F0000E1C6E000E1B6EDAEC00
:1031680040F0000E116E220E106E36EC3FF010C0CB
:103178002CF011C02DF02CC01BF02DC01CF0AA0E95
:103188001D6E040E1E6E000E206E0A0E1F6EA6EC3B
:1031980025F0500E106E020E116E8B0E126EFF0E81
:1031A800136E53EC3BF0500E1A6E020E1B6EAA0EF5
:1031B8001C6E040E1D6E13EC40F0500E236E020EB2
:1031C800246EDEEC2AF0010E2B6E50EF19F0500E33
:1031D800106E020E116EE30E126EFF0E136E53EC9C
:1031E8003BF02BC01BF01C6AAA0E1D6E040E1E6E4F
:1031F800000E206E0A0E1F6EA6EC25F0500E1A6EF9
:10320800020E1B6EAA0E1C6E040E1D6E13EC40F00F
:10321800AA0E106E040E116E920E126EFF0E136E31
:1032280053EC3BF0500E1A6E020E1B6EAA0E1C6E6B
:10323800040E1D6E13EC40F0100E286E0B0E0F6E70
:10324800010E106E280E116E000E126E2B50A9EC96
:1032580028F00FC02CF010C02DF02CC01BF02DC092
:103268001CF0AA0E1D6E040E1E6E000E206E0A0EB5
:103278001F6EA6EC25F0500E1A6E020E1B6EAA0EDB
:103288001C6E040E1D6E13EC40F0500E236E020EE1
:10329800246EDEEC2AF02B2A2B506A5CD8B057EF4C
:1032A80019F059EF19F0EBEF18F0C60E236EFE0E69
:1032B800246EDEEC2AF0000E116EE80E106E36EC6D
:1032C8003FF010C02CF011C02DF02CC01BF02DC009
:1032D8001CF0500E1D6E020E1E6E000E206E0A0EA1
:1032E8001F6EA6EC25F0500E1A6E020E1B6EAC0E69
:1032F8001C6EFF0E1D6E13EC40F0500E236E020E76
:10330800246EDEEC2AF0980E0C6E3A0E0D6E000E4E
:103318000E6E000E0F6EDEEC3BF0000E1C6E0F0EF4
:103328001B6EDAEC40F01200216E000E226E155072
:1033380009E1020E145CD8A0A4EF19F0A6EF19F069
:10334800A8EF19F09FEF1AF0155008E11404D8A05F
:10335800B0EF19F0B2EF19F0B6EF19F0080E226EBF
:10336800B8EF19F0000E226E21C023F0D890233652
:10337800A00E23122380225023120FEC41F023C009
:1033880018F0FE0E181618500D6E0E6A42EC41F039
:1033980013C00DF00E6A42EC41F012C00DF00E6A37
:1033A80042EC41F055EC41F023C00DF00E6A42ECBE
:1033B80041F0000E206E155009E1020E145CD8A0F1
:1033C800E8EF19F0EAEF19F0ECEF19F090EF1AF0C6
:1033D800010E1224186E000E1320196E000E142010
:1033E8001A6E000E15201B6E7F0E18141C6E000E30
:1033F80019141D6E000E1A141E6E000E1B141F6E7B
:103408001C501D101E101F10D8A40DEF1AF00FEF3E
:103418001AF063EF1AF0000E0E6E000E0D6EC8EC77
:103428003DF00D5016C0D9FF17C0DAFFDF6E47EC2C
:1034380041F0340E186EF20EE82EFED7182EFCD787
:10344800010E1226000E132214221522164A172ADC
:10345800155008E11404D8A034EF1AF036EF1AF02A
:103468003AEF1AF0080E226E3CEF1AF0000E226EA8
:1034780021C023F0D8902336A00E23122380225097
:1034880023120FEC41F023C018F0FE0E1816185046
:103498000D6E0E6A42EC41F013C00DF00E6A42EC5C
:1034A80041F012C00DF00E6A42EC41F055EC41F0CB
:1034B80023C00DF00E6A42EC41F085EF1AF0000EC1
:1034C8000E6E010E0D6EC8EC3DF00D5016C0D9FF02
:1034D80017C0DAFFDF6E16C0D9FF17C0DAFFDF505A
:1034E800D8A479EF1AF07BEF1AF07DEF1AF090EF7D
:1034F8001AF0164A172A010E1226000E1322142259
:103508001522202A2004186E3F0E18648EEF1AF038
:1035180090EF1AF0DFEF19F0000E0E6E000E0D6E30
:10352800C8EC3DF047EC41F0070E186EC00EE82ECF
:10353800FED7182EFCD71200236E000E246E1550ED
:1035480009E1020E145CD8A0ACEF1AF0AEEF1AF045
:10355800B0EF1AF09AEF1BF0155008E11404D8A048
:10356800B8EF1AF0BAEF1AF0BEEF1AF0080E246E90
:10357800C0EF1AF0000E246E23C025F0D89025362F
:10358800A00E25122580245025120FEC41F025C0ED
:1035980019F0FE0E191619500D6E0E6A42EC41F024
:1035A80013C00DF00E6A42EC41F012C00DF00E6A25
:1035B80042EC41F055EC41F025C00DF00E6A42ECAA
:1035C80041F0000E226E82EF1BF0155009E1020E49
:1035D800145CD8A0F2EF1AF0F4EF1AF0F6EF1AF034
:1035E8008BEF1BF0010E1224196E000E13201A6EB9
:1035F800000E14201B6E000E15201C6E7F0E191471
:103608001D6E000E1A141E6E000E1B141F6E000E87
:103618001C14206E1D501E101F102010D8A417EF68
:103628001BF019EF1BF06DEF1BF0000E0E6E000E75
:103638000D6EC8EC3DF00D5017C0D9FF18C0DAFF69
:10364800DF6E47EC41F0340E196EF20EE82EFED70D
:10365800192EFCD7010E1226000E13221422152251
:10366800174A182A155008E11404D8A03EEF1BF099
:1036780040EF1BF044EF1BF0080E246E46EF1BF0E2
:10368800000E246E23C025F0D8902536A00E2512F2
:103698002580245025120FEC41F025C019F0FE0EAC
:1036A800191619500D6E0E6A42EC41F013C00DF058
:1036B8000E6A42EC41F012C00DF00E6A42EC41F085
:1036C80055EC41F025C00DF00E6A42EC41F081EF57
:1036D8001BF0000E0E6E010E0D6EC8EC3DF00D5085
:1036E80017C0D9FF18C0DAFFDF6E174A182A010E73
:1036F8001226000E132214221522222A1650225CAA
:10370800D8A089EF1BF08BEF1BF0E9EF1AF0000E41
:103718000E6E000E0D6EC8EC3DF047EC41F0070E42
:10372800196EC00EE82EFED7192EFCD712001F6E98
:10373800125009E1020E115CD8A0A5EF1BF0A7EF0B
:103748001BF0A9EF1BF092EF1CF0125008E11104D6
:10375800D8A0B1EF1BF0B3EF1BF0B7EF1BF0080ECA
:10376800206EB9EF1BF0000E206E1FC021F0D8901C
:103778002136A00E2112205021120FEC41F021C059
:103788000DF00E6A42EC41F010C00DF00E6A42ECEA
:1037980041F00FC00DF00E6A42EC41F0000E1E6EB3
:1037A80061EF1CF0125009E1020E115CD8A0DFEFA6
:1037B8001BF0E1EF1BF0E3EF1BF092EF1CF0010EA2
:1037C8000F24166E000E1020176E000E1120186EB2
:1037D800000E1220196E7F0E16141A6E000E1714A2
:1037E8001B6E000E18141C6E000E19141D6E1A5054
:1037F8001B101C101D10D8A404EF1CF006EF1CF0C1
:103808004DEF1CF014C0D9FF15C0DAFFDF50166E5B
:1038180016500D6E0E6A42EC41F047EC41F0340E42
:10382800166EF20EE82EFED7162EFCD7010E0F26C6
:10383800000E102211221222144A152A125008E1F1
:103848001104D8A02AEF1CF02CEF1CF030EF1CF06C
:10385800080E206E32EF1CF0000E206E1FC021F003
:10386800D8902136A00E2112205021120FEC41F0E1
:1038780021C00DF00E6A42EC41F010C00DF00E6A46
:1038880042EC41F00FC00DF00E6A42EC41F060EFDF
:103898001CF014C0D9FF15C0DAFFDF50166E1650A1
:1038A8000D6E0E6A42EC41F0144A152A010E0F26DD
:1038B800000E1022112212221E2AFF0E166EFF0E73
:1038C800176E1350186E196A1650182617501922B9
:1038D8001E501A6E1B6A18501A5C1B50800A1C6E08
:1038E8001950800A1C58D8A07CEF1CF07EEF1CF001
:1038F800D6EF1BF014C0D9FF15C0DAFFDF50166EE3
:1039080016500D6E0E6A42EC41F047EC41F0070E7E
:10391800166EC00EE82EFED7162EFCD71200040E27
:10392800206E20C00CF00D6A000E0F6E020E0E6E97
:1039380044EC31F00C28246E2050010B256E2050E9
:10394800120DF350EC0F1F6E010E1F24106E116A3A
:10395800000E112236EC3FF010C01DF011C01EF011
:103968002550070DF3CF21F01EC022F01DC023F013
:103978000A0E0F6E030E106E210E116E000E126EDF
:103988002450A9EC28F0070E1C6E170E1B6E6A0E49
:10399800E82EFED71B2EFCD71C2EFAD700D02550B8
:1039A800070DF350020F216E030E1F240C6E0D6AD3
:1039B800000E0D22EBEC3DF0226E080E0F6E020E8B
:1039C800106E210E116E000E126E2450A9EC28F014
:1039D800070E1C6E170E1B6E6A0EE82EFED71B2EE6
:1039E800FCD71C2EFAD700D02550070DF350030F33
:1039F800216E040E1F240C6E0D6A000E0D22EBECD6
:103A08003DF0226E080E0F6E020E106E210E116E22
:103A1800000E126E2450A9EC28F0070E1C6E170E2B
:103A28001B6E6A0EE82EFED71B2EFCD71C2EFAD76B
:103A380000D02550070DF350040F216E050E1F24EA
:103A48000C6E0D6A000E0D22EBEC3DF0226E080E96
:103A58000F6E020E106E210E116E000E126E2450A3
:103A6800A9EC28F0070E1C6E170E1B6E6A0EE82EC6
:103A7800FED71B2EFCD71C2EFAD700D0100E1F2401
:103A8800106E116A000E112236EC3FF010C01DF0C6
:103A980011C01EF02550070DF350050F216E1EC0F2
:103AA80022F01DC023F00A0E0F6E030E106E210EB9
:103AB800116E000E126E2450A9EC28F0070E1C6E31
:103AC800170E1B6E6A0EE82EFED71B2EFCD71C2E77
:103AD800FAD700D02504D8A474EF1DF076EF1DF0B6
:103AE80081EF1DF0010E0F6E000E106E210E116E8B
:103AF800000E126E2450A9EC28F0202A0E0E206425
:103B080088EF1DF08AEF1DF095EF1CF01200030EF0
:103B18000F6E000E106EAA0E116E040E126E2B5050
:103B2800A9EC28F0000E6A6E500E106E020E116E8F
:103B3800430E126EFD0E136E53EC3BF0500E1A6ED0
:103B4800020E1B6EEB0E1C6EFE0E1D6E13EC40F08B
:103B5800500E1A6E020E1B6EEA0E1C6EFF0E1D6EC4
:103B680013EC40F0500E236E020E246EDEEC2AF0A9
:103B7800010E2B6E640E0C6E000E0D6E000E0E6E96
:103B8800000E0F6EDEEC3BF007EC32F0030E0F6E0A
:103B9800000E106EAA0E116E040E126E2B50A9ECB8
:103BA80028F00FC029F010C02AF02AC028F02928D0
:103BB80008E12A28D8B4E3EF1DF0E5EF1DF048EF3F
:103BC8001EF06A2A500E106E020E116E430E126E0F
:103BD800FD0E136E53EC3BF02BC01BF01C6A500E0D
:103BE8001D6E020E1E6E000E206E0A0E1F6EA6ECD3
:103BF80025F0500E1A6E020E1B6EF60E1C6EFF0E8E
:103C08001D6E13EC40F0500E1A6E020E1B6E2850FB
:103C1800020DD10EF324D96E010EF420DA6EDECF38
:103C28001CF0DDCF1DF013EC40F0500E1A6E020EA2
:103C38001B6E420E1C6EFD0E1D6E13EC40F0AA0E9C
:103C4800106E040E116E420E126EFD0E136E53ECC2
:103C58003BF02B0E0F6E000E106EAA0E116E040EA6
:103C6800126E2B50A9EC28F0500E1A6E020E1B6E25
:103C7800AA0E1C6E040E1D6E13EC40F0500E236E3F
:103C8800020E246EDEEC2AF02B2A0E0E2B644FEF68
:103C98001EF051EF1EF0BEEF1DF06A50D8A457EF8A
:103CA8001EF059EF1EF061EF1EF0270E236EFE0E78
:103CB800246EDEEC2AF07EEF1EF06AC01BF01C6A50
:103CC800500E1D6E020E1E6E000E206E0A0E1F6E26
:103CD800A6EC25F0500E1A6E020E1B6E590E1C6EC5
:103CE800FE0E1D6E13EC40F0500E236E020E246E75
:103CF800DEEC2AF01200000E206E040E1F6E39EC66
:103D080040F01F042010D8A48CEF1EF08EEF1EF098
:103D1800B5EF1EF00001C0B794EF1EF096EF1EF04D
:103D2800B5EF1EF0C0876550675C6850800A316E39
:103D38006650800A3158D8B0A4EF1EF0A6EF1EF0E6
:103D4800AEEF1EF0010E85EC40F0010E21EC3AF0CA
:103D580064EF1FF0000E85EC40F00CEC3EF064EFD1
:103D68001FF0000E206E040E1F6E39EC40F01F503D
:103D78002010D8A4C2EF1EF0C4EF1EF032EF1FF0DF
:103D88000001C0A7CAEF1EF0CCEF1EF032EF1FF003
:103D9800C097000E85EC40F0000E1E6E060E1D6EDC
:103DA800000E206E000E1F6EC9EC40F0420E4CEC67
:103DB80041F0000E1E6E160E1D6E000E206E000ED7
:103DC8001F6EC9EC40F0000E336E000E326E010E0D
:103DD8000C6E000E0D6E000E0E6E000E0F6E37ECA0
:103DE8003CF0000E206E060E1F6E39EC40F01F509E
:103DF8002010D8B402EF1FF004EF1FF006EF1FF0F9
:103E080017EF1FF00400324A332A33BE15EF1FF0B4
:103E1800100E325C270E3358D8A015EF1FF017EF9D
:103E28001FF0EBEF1EF0000E206E060E1F6E39EC31
:103E380040F0F10E1F182010D8A425EF1FF027EF2F
:103E48001FF064EF1FF0000E21EC3AF0000E6C6ECC
:103E5800000E6D6E57EC3DF064EF1FF0000E206E03
:103E6800040E1F6E39EC40F01F042010D8A43FEF59
:103E78001FF041EF1FF064EF1FF00001C0A747EFEC
:103E88001FF049EF1FF064EF1FF06550675C685042
:103E9800800A316E6650800A3158D8B056EF1FF04C
:103EA80058EF1FF05FEF1FF0010E85EC40F00001A6
:103EB800BF8964EF1FF0000E85EC40F0B1EF1EF0F3
:103EC80012005A0E0E6EA50E0D6E30EC41F0030E68
:103ED80072EC40F0810E72EC40F0200E72EC40F073
:103EE800070E72EC40F00BEC3CF00009D8B47FEF01
:103EF8001FF081EF1FF09EEF1FF0000E406E405044
:103F0800060F226E236A9A0E2224D96E020E2320EF
:103F1800DA6E240E4024E16EE26A000EE222DFCF60
:103F2800E7FF402A090E40649CEF1FF09EEF1FF048
:103F380083EF1FF02E0E0C6E000E0D6E2450C7EC92
:103F48003EF0310E0C6E000E0D6E2550C7EC3EF0A3
:103F5800340E0C6E000E0D6E2650C7EC3EF01EC0DF
:103F680010F01FC011F0430E126EFD0E136E53ECCD
:103F78003BF01EC01AF01FC01BF0340E1C6E000E62
:103F88001D6E13EC40F01EC01AF01FC01BF0FD0E92
:103F98001C6EFF0E1D6E13EC40F01EC01AF01FC001
:103FA8001BF0310E1C6E000E1D6E13EC40F01EC08F
:103FB8001AF01FC01BF0FD0E1C6EFF0E1D6E13ECD9
:103FC80040F01EC01AF01FC01BF02E0E1C6E000E13
:103FD8001D6E13EC40F0370E0C6E000E0D6E28505F
:103FE800C7EC3EF03A0E0C6E000E0D6E2950C7EC71
:103FF8003EF03D0E0C6E000E0D6E2A50C7EC3EF0E2
:1040080020C010F021C011F0430E126EFD0E136E89
:1040180053EC3BF020C01AF021C01BF0370E1C6E89
:10402800000E1D6E13EC40F020C01AF021C01BF0EA
:10403800D70E1C6EFE0E1D6E13EC40F020C01AF059
:1040480021C01BF03A0E1C6E000E1D6E13EC40F0E2
:1040580020C01AF021C01BF0D70E1C6EFE0E1D6E7C
:1040680013EC40F020C01AF021C01BF03D0E1C6E6E
:10407800000E1D6E13EC40F0010E0C6E000E0D6E5E
:10408800000E0E6E000E0F6E37EC3CF01200000EA4
:10409800166EB30E156ED30E176E000E186E040E44
:1040A800196E63EC2BF0D5C02BF02C6A2D6A2E6AA2
:1040B8002DC02EF02CC02DF02BC02CF02B6AD4C0B4
:1040C8002FF0306A316A326A30C032F02FC031F0D6
:1040D800306A2F6AD3C033F0346A356A366A33C01F
:1040E80036F0356A346A336A2F503324376E3050CD
:1040F8003420386E31503520396E325036203A6EC1
:104108002B5037243B6E2C5038203C6E2D503920D4
:104118003D6E2E503A203E6E0001D6513B243F6E34
:10412800000E3C20406E000E3D20416E000E3E20E9
:10413800426E3F50401041104210D8B4A6EF20F014
:10414800A8EF20F024EF21F085513F180DE18651AA
:1041580040180AE18751411807E188514218D8A44C
:10416800B8EF20F0BAEF20F024EF21F0000E1E6E19
:10417800B30E1D6E000E1F6E000E206E000E216E17
:10418800000E226E22EC3BF0000E206EB20E1F6E67
:1041980039EC40F01F042010D8A4D5EF20F0D7EF59
:1041A80020F0F4EF20F0000E6B6E000E0001BB6FE4
:1041B8009D699E69000E1E6EB20E1D6E000E206E69
:1041C800000E1F6EC9EC40F0000E1E6E9A0E1D6E9A
:1041D800000E206E000E1F6EC9EC40F020EF21F09B
:1041E800000E206EB20E1F6E39EC40F01F502010EA
:1041F800D8A401EF21F003EF21F020EF21F0010E08
:104208006B6E010E0001BB6F000E9E6F0A0E9D6F54
:10421800000E1E6EB20E1D6E000E206E010E1F6E79
:10422800C9EC40F0000E1E6E9A0E1D6E000E206E38
:10423800010E1F6EC9EC40F019EC41F057EC3DF04F
:104248001200146E1450D8B42CEF21F02EEF21F088
:1042580050EF21F00FBE35EF21F033EF21F050EF92
:1042680021F00CC010F00DC011F00EC012F00FC0FC
:1042780013F0101E111E121E131E102A000E1122FA
:104288001222132210C016F011C017F012C018F035
:1042980013C019F058EF21F00CC016F00DC017F03C
:1042A8000EC018F00FC019F00C500D100E100F10A2
:1042B800D8A461EF21F063EF21F06DEF21F0000E3B
:1042C8000C6E000E0D6E000E0E6E000E0F6EFEEFE1
:1042D80021F0960E156E77EF21F0152AD890193235
:1042E800183217321632000E1614106E000E1714FC
:1042F800116E000E1814126EFE0E1914136E105063
:10430800111012101310D8A48CEF21F08EEF21F0A9
:1043180071EF21F09CEF21F0152A010E1626000EF0
:10432800172218221922D890193218321732163249
:10433800000E1614106E000E1714116E000E1814CD
:10434800126EFF0E1914136E105011101210131064
:10435800D8A4B1EF21F0B3EF21F090EF21F0BBEF3B
:1043680021F01506D890163617361836193618BEA5
:10437800C0EF21F0C2EF21F0CAEF21F0020E156064
:10438800C8EF21F0CAEF21F0B5EF21F015B0CFEF5B
:1043980021F0D1EF21F0D2EF21F0189ED8901532FC
:1043A80015C010F0116A126A136A10C013F0126A6D
:1043B800116A106A10501612115017121250181262
:1043C800135019121450D8B4ECEF21F0EEEF21F08D
:1043D800F6EF21F00FBEF5EF21F0F3EF21F0F6EF45
:1043E80021F0198E16C00CF017C00DF018C00EF091
:1043F80019C00FF01200306E3050010B2C6E2CC01B
:1044080029F030C00CF00D6A000E0F6E020E0E6E11
:1044180044EC31F0030E306414EF22F016EF22F072
:10442800C5EF22F0040E305E3050120DF350340FF9
:104438002F6E3050010B2C6E2CC029F030C00CF0C0
:104448000D6A000E0F6E020E0E6E44EC31F0305005
:104458000C0DF3CF25F0F4CF26F0E60E25242D6EB3
:10446800000E26202E6E2DC01DF02EC01EF02FC06F
:104478000CF00D6AEBEC3DF0256E010E25241F6E45
:10448800206A000E2022C9EC40F0020E2D241D6E79
:10449800000E2E201E6E010E2F24106E116A000EC3
:1044A800112236EC3FF010C01FF011C020F0C9EC0B
:1044B80040F0030E2D241D6E000E2E201E6E030EDE
:1044C8002F240C6E0D6A000E0D22EBEC3DF0256ECC
:1044D80025501F6E206AC9EC40F0040E2D241D6E75
:1044E800000E2E201E6E040E2F240C6E0D6A000E78
:1044F8000D22EBEC3DF0256E25501F6E206AC9ECAD
:1045080040F0050E2D241D6E000E2E201E6E050E89
:104518002F240C6E0D6A000E0D22EBEC3DF0256E7B
:1045280025501F6E206AC9EC40F0060E2F24106E2D
:10453800116A000E1122500E126E020E136E4CEC10
:104548003EF0060E2D241D6E000E2E201E6E500EFF
:104558001F6E020E206E26EC40F00B0E2D241D6EF1
:10456800000E2E201E6E100E2F24106E116A000EE3
:10457800112236EC3FF010C01FF011C020F0C9EC3A
:1045880040F01200000E166E9B0E156ED30E176EBD
:10459800000E186E040E196E63EC2BF0D5C028F0CF
:1045A800296A2A6A2B6A2AC02BF029C02AF028C057
:1045B80029F0286AD4C02CF02D6A2E6A2F6A2DC0E3
:1045C8002FF02CC02EF02D6A2C6AD3C030F0316A3F
:1045D800326A336A30C033F0326A316A306A2C503A
:1045E8003024346E2D503120356E2E503220366EE8
:1045F8002F503320376E28503424386E29503520F8
:10460800396E2A5036203A6E2B5037203B6E000107
:10461800D65138243C6E000E39203D6E000E3A20EB
:104628003E6E000E3B203F6E3C503D103E103F104A
:10463800D8B421EF23F023EF23F05BEF23F085516B
:104648003C180DE186513D180AE187513E1807E1F3
:1046580088513F18D8A433EF23F035EF23F05BEFF0
:1046680023F0750E9E6F300E9D6F010EBB6F000E0E
:104678001E6E9A0E1D6E000E206E010E1F6EC9EC86
:1046880040F0000E1E6E9B0E1D6E000E206E000E7A
:104698001F6EC9EC40F0000E1E6E9C0E1D6E000EC3
:1046A800206E000E1F6EC9EC40F057EC3DF0000183
:1046B800BB05D8A462EF23F064EF23F079EF23F071
:1046C8009EBF6BEF23F069EF23F079EF23F0000E24
:1046D800BB6F000E1E6E9A0E1D6E000E206E000E31
:1046E8001F6EC9EC40F0B8EC40F004EC41F05A0AF7
:1046F800D8A481EF23F083EF23F08BEF23F0750E1E
:1047080000019E6F300E9D6F000EE9EC40F0120024
:104718001D6E125009E1020E115CD8A096EF23F02D
:1047280098EF23F09AEF23F04BEF24F0125008E1B2
:104738001104D8A0A2EF23F0A4EF23F0A8EF23F0F0
:10474800080E1E6EAAEF23F0000E1E6E1DC01FF08D
:10475800D8901F36A00E1F121E501F120FEC41F0EA
:104768001FC00DF00E6A42EC41F010C00DF00E6A49
:1047780042EC41F00FC00DF00E6A42EC41F030EF10
:1047880024F0125009E1020E115CD8A0CEEF23F0FC
:10479800D0EF23F0D2EF23F04BEF24F0010E0F24DB
:1047A800156E000E1020166E000E1120176E000EEA
:1047B8001220186E7F0E1514196E000E16141A6E3C
:1047C800000E17141B6E000E18141C6E19501A10C8
:1047D8001B101C10D8A4F3EF23F0F5EF23F01DEF06
:1047E80024F013C0D9FF14C0DAFFDF50156E15503E
:1047F8000D6E0E6A42EC41F047EC41F0340E156E36
:10480800F20EE82EFED7152EFCD7010E0F26000E4D
:10481800102211221222134A142A125008E11104FC
:10482800D8A019EF24F01BEF24F0A8EF23F0A4EF91
:1048380023F013C0D9FF14C0DAFFDF50156E1550EE
:104848000D6E0E6A42EC41F0134A142A010E0F262F
:10485800000E10221122122213C0D9FF14C0DAFF51
:10486800DF50D8A43AEF24F03CEF24F0C5EF23F052
:10487800000E0E6E000E0D6E42EC41F047EC41F05A
:10488800070E156EC00EE82EFED7152EFCD71200A7
:1048980020EE06F01050D9261150DA22DF50146E9F
:1048A80020EE07F01050D9261150DA22DF50156E8D
:1048B800000E166E20EE03F01050D9261150DA22A1
:1048C800DF50176E20EE04F01050D9261150DA226E
:1048D800DF50186E000E196E10C0D9FF11C0DAFF34
:1048E800DF501A6E20EE01F01050D9261150DA224E
:1048F800DF501B6E000E1C6E12C0D9FF13C0DAFF0A
:10490800DF501D6E20EE01F01250D9261350DA2226
:10491800DF501E6E000E1F6E20EE03F01250D926D7
:104928001350DA22DF50206E20EE04F01250D92600
:104938001350DA22DF50216E000E226E20EE06F0B0
:104948001250D9261350DA22DF50236E20EE07F0DA
:104958001250D9261350DA22DF50246E000E256E2D
:104968005A0E0E6EA50E0D6E30EC41F00A0E72EC6A
:1049780040F0800E72EC40F01F0E72EC40F05A0EC0
:1049880072EC40F0140E0C6E000E0D6EC6EC3FF08B
:1049980072EC40F0170E0C6E000E0D6EC6EC3FF078
:1049A80072EC40F01A0E0C6E000E0D6EC6EC3FF065
:1049B80072EC40F0010E72EC40F01D0E0C6E000E11
:1049C8000D6EC6EC3FF072EC40F0200E0C6E000E3F
:1049D8000D6EC6EC3FF072EC40F0230E0C6E000E2C
:1049E8000D6EC6EC3FF072EC40F012002B6E2B50AF
:1049F8000C0DF3CF25F0F4CF26F0E60E25242C6E0F
:104A0800000E26202D6E2B50120DF350340F2E6EF3
:104A18002B50010B2A6E2BC00CF00D6A000E0F6E86
:104A2800020E0E6E44EC31F02AC027F02CC01DF0A7
:104A38002DC01EF02EC00CF00D6AEBEC3DF0256E7B
:104A480025501F6E206AC9EC40F0020E2C241D6E02
:104A5800000E2D201E6E010E2E24106E116A000EFF
:104A6800112236EC3FF010C01FF011C020F0C9EC45
:104A780040F0030E2C241D6E000E2D201E6E030E1A
:104A88002E240C6E0D6A000E0D22EBEC3DF0256E07
:104A980025501F6E206AC9EC40F0040E2C241D6EB0
:104AA800000E2D201E6E040E2E240C6E0D6A000EB4
:104AB8000D22EBEC3DF0256E25501F6E206AC9ECE7
:104AC80040F0050E2C241D6E000E2D201E6E050EC6
:104AD8002E240C6E0D6A000E0D22EBEC3DF0256EB7
:104AE80025501F6E206AC9EC40F0060E2E24106E69
:104AF800116A000E1122500E126E020E136E4CEC4B
:104B08003EF0060E2C241D6E000E2D201E6E500E3B
:104B18001F6E020E206E26EC40F00B0E2C241D6E2C
:104B2800000E2D201E6E100E2E24106E116A000E1F
:104B3800112236EC3FF010C01FF011C020F0C9EC74
:104B480040F01200000E276E000E266E000E236E37
:104B58001B501C10D8A4B3EF25F0B5EF25F0C7EF14
:104B680025F01DC0D9FF1EC0DAFF300EDF6E264AC1
:104B7800272A26501D24D96E27501E20DA6E000ED3
:104B8800DF6E4BEF26F01CBECEEF25F0CCEF25F004
:104B980022EF26F00A0E1F182010D8A4D6EF25F011
:104BA800D8EF25F022EF26F0010E236E1B6C1C1E99
:104BB800D8B01C2A22EF26F01BC00CF01CC00DF048
:104BC8001FC00EF020C00FF01CEC33F00CC024F016
:104BD8000DC025F025BEFCEF25F0255007E10A0E93
:104BE800245CD8B0FAEF25F0FCEF25F004EF26F0AE
:104BF800300E2424216E000E2520226E0AEF26F0A6
:104C0800570E2424216E000E2520226E26501D24C6
:104C1800D96E27501E20DA6E21C0DFFF264A272AC8
:104C28001BC00CF01CC00DF01FC00EF020C00FF010
:104C380044EC31F00CC01BF00DC01CF01B501C10D4
:104C4800D8A429EF26F02BEF26F0E0EF25F023502B
:104C5800D8B431EF26F033EF26F03DEF26F026509A
:104C68001D24D96E27501E20DA6E2D0EDF6E264ABF
:104C7800272A26501D24D96E27501E20DA6E000ED2
:104C8800DF6E1DC010F01EC011F012EC36F01200DD
:104C9800000E116EFA0E106E36EC3FF010C08FF059
:104CA80011C090F0000E1E6ED60E1D6E8FC01FF044
:104CB80090C020F0C9EC40F0320E00018F1990111D
:104CC800D8A469EF26F06BEF26F08EEF26F0F80EE9
:104CD8000101856F000E846F030E876FE00E866FEB
:104CE800000E896F1F0E886F8A698B698C698D69C0
:104CF8008E698F69906991699269936994699569D8
:104D080096699769986999699A699B699C699D6987
:104D1800EAEF26F0500E8F199011D8A496EF26F0DE
:104D280098EF26F0CFEF26F0000E0101856F000EF8
:104D3800846F390E876FE70E866F6B0E896F6D0E65
:104D4800886F780E8B6F000E8A6F9A0E8D6F230E08
:104D58008C6FF80E8F6F000E8E6FFB0E916FE00E4A
:104D6800906FFB0E936FF70E926FD50E956F400EF6
:104D7800946F030E976FE00E966F070E996FE00E13
:104D8800986F000E9B6F1F0E9A6FF80E9D6F1F0E87
:104D98009C6FEAEF26F00101846985698669876955
:104DA800886989698A698B698C698D698E698F6957
:104DB8009069916992699369946995699669976907
:104DC800986999699A699B699C699D691200000EA6
:104DD800206E050E1F6E39EC40F01F042010D8A479
:104DE800F8EF26F0FAEF26F024EF27F00001C0B321
:104DF80000EF27F002EF27F024EF27F06350675CFD
:104E08006850800A266E6450800A2658D8B00FEF82
:104E180027F011EF27F024EF27F09351995D9A516D
:104E2800800A266E9451800A2658D8B01EEF27F0C3
:104E380020EF27F024EF27F0C083010E55EC3AF05D
:104E4800000E206E050E1F6E39EC40F01F5020102A
:104E5800D8A431EF27F033EF27F04CEF27F000010B
:104E6800C0A339EF27F03BEF27F04CEF27F0000EF7
:104E780055EC3AF00001C093070E1E6EB20E1D6E7F
:104E8800430E1F6EFD0E206E26EC40F085EF27F0D6
:104E9800000E206E050E1F6E39EC40F01F04201026
:104EA800D8A459EF27F05BEF27F085EF27F0000132
:104EB800C0A361EF27F063EF27F085EF27F0675075
:104EC800635C6450800A266E6850800A2658D8A011
:104ED80070EF27F072EF27F081EF27F09951935D7B
:104EE8009451800A266E9A51800A2658D8B07FEFCE
:104EF80027F081EF27F085EF27F0C093000E55ECDF
:104F08003AF01200000E476E000E466E000E436E19
:104F1800000E426E19C00CF01AC00DF01BC00EF046
:104F28001CC00FF01FC010F020C011F0000E11BE01
:104F3800FF0E126E136E83EC37F00CC044F00DC0F8
:104F480045F045BEB3EF27F0455007E10A0E445C33
:104F5800D8B0B1EF27F0B3EF27F0C0EF27F0210E5C
:104F68004624D96E000E4720DA6E4450300FDF6EAB
:104F7800464A472ACBEF27F0210E4624D96E000E69
:104F88004720DA6E4450370FDF6EBCEF27F019C0A8
:104F98000CF01AC00DF01BC00EF01CC00FF01FC0A3
:104FA80010F020C011F0000E11BEFF0E126E136E2D
:104FB8001EEC35F00CC019F00DC01AF00EC01BF035
:104FC8000FC01CF019501A101B101C10D8A4EFEFBA
:104FD80027F0F1EF27F08EEF27F04606D8A0470616
:104FE80009EF28F0210E4624D96E000E4720DA6E0C
:104FF80042501D24E16E43501E20E26EDFCFE7FFD2
:105008004606D8A04706424A432A47BE10EF28F072
:105018000EEF28F0F6EF27F042501D24D96E4350CA
:105028001E20DA6E000EDF6E1200316E31500C0D4C
:10503800F3CF2FF0F4CF30F0E60E2F24326E000EAF
:105048003020336E3150120DF350340F346E34C0AB
:1050580025F0266A31C027F0C7EC37F0010E34245A
:105068002B6E2C6A000E2C22020E32241F6E000EAC
:105078003320206E39EC40F01FC02DF020C02EF0F8
:105088004CEC40F0030E3424256E266A000E2622CE
:10509800030E32241F6E000E3320206E39EC40F0D0
:1050A8001F50276EC7EC37F0040E3424256E266A8D
:1050B800000E2622040E32241F6E000E3320206EAE
:1050C80039EC40F01F50276EC7EC37F0050E34243A
:1050D800256E266A000E2622050E32241F6E000E4B
:1050E8003320206E39EC40F01F50276EC7EC37F0A4
:1050F800060E32241F6E000E3320206E500E216ED5
:10510800020E226EF7EC40F0060E34242B6E2C6A49
:10511800000E2C22500E2D6E020E2E6E7EEC3DF0EF
:10512800100E34242B6E2C6A000E2C220B0E322407
:105138001F6E000E3320206E39EC40F01FC02DF09A
:1051480020C02EF04CEC40F01200156E166817685F
:10515800AA0E0E6EBB0E0D6E30EC41F0000E72EC16
:1051680040F0155072EC40F00F5072EC40F01050C7
:1051780072EC40F0000E1A6ECCEF28F01A50112491
:10518800D96E000E1220DA6EDF5072EC40F01A2A47
:1051980010501A5CD8A0D3EF28F0D5EF28F0C2EF52
:1051A80028F0D50EE82EFED700F00001C191000EC0
:1051B800196E000E186EE40E00D000D0E82EFCD751
:1051C80000D000D00001C1A1ECEF28F0EEEF28F0EC
:1051D80024EF29F0150E136EC60EE82EFED7132EF7
:1051E800FCD700D00001C1919FC210F00201A1516B
:1051F800A0C213F0146A13C014F0136A1310166EC9
:105208001450176E000E1A6E19EF29F0A00E1A240A
:10521800D96EDA6A020EDA221A501124E16E000EF3
:105228001220E26EDFCFE7FF1A2A10501A5CD8A0CE
:1052380020EF29F022EF29F00AEF29F034EF29F0C6
:10524800184A192A19BE32EF29F0900E185C010E7F
:105258001958D8A032EF29F034EF29F0DFEF28F001
:1052680016C00FF017C010F0120002019B519AC22D
:105278000EF00F6A0EC00FF00E6A0E26000E0F22F7
:105288000CC0D9FF0DC0DAFF0EC0DEFF0FC0DDFF76
:1052980020EE02F00C50D9260D50DA229CC2DFFF16
:1052A80020EE03F00C50D9260D50DA229DC2DFFF04
:1052B8009F519EC20EF00F6A0EC00FF00E6A0E26A6
:1052C800000E0F2220EE04F00C50D9260D50DA22E1
:1052D8000EC0DEFF0FC0DDFF20EE06F00C50D92611
:1052E8000D50DA22A0C2DFFF000E126E9AEF29F0ED
:1052F800A10E1224D96EDA6A020EDA22DF500E6E7F
:105308000F6A1250020D0CC010F00DC011F0F350CE
:105318001026F4501122070E1024D96E000E112009
:10532800DA6E0EC0DEFF0FC0DDFF122A20EE02F09B
:105338000C50D9260D50DA221250DE5CD8B0A7EFF7
:1053480029F0A9EF29F07CEF29F020EE25F00C5088
:10535800D9260D50DA22A1C2DFFF20EE26F00C502C
:10536800D9260D50DA220201A2390F0B0F0BDF6E7E
:1053780020EE27F00C50D9260D50DA22A2510F0B3F
:10538800DF6E120044C048F043C049F042C04AF002
:1053980041C04BF0020E0F6E040E106E480E116ED7
:1053A800000E126EFF0EA9EC28F0000E4C6E3EEFB8
:1053B8002AF04C50020D000EF324D96E030EF4208F
:1053C800DA6EDE50DE10D8B4ECEF29F0EEEF29F0FB
:1053D8003DEF2AF04C50040D1E0EF324D96E030E37
:1053E800F420DA6EDECF1EF0DECF1FF0DECF20F025
:1053F800DECF21F04C50020D000EF324D96E030EBF
:10540800F420DA6EDECF45F0DDCF46F045C0D9FF97
:1054180046C0DAFFDECF0CF0DDCF0DF0000E0DBE7A
:10542800FF0E0E6E0F6E010E25EC21F00CC01AF067
:105438000DC01BF00EC01CF00FC01DF05CEC0DF091
:105448001AC033F01BC034F01CC035F01DC036F054
:10545800E6EC2BF033C03DF034C03EF05A0E4C243D
:10546800D96EDA6A030EDA22DF50476E4728EAEC73
:1054780039F04C2A6A50020D4C50456E466AF3507A
:10548800455C4650800A476EF450800A4758D8A0B9
:1054980050EF2AF052EF2AF0DDEF29F0120025C074
:1054A80027F026C028F0273A283AF00E2816275069
:1054B8000F0B2812F00E2716000E2724296E010E56
:1054C80028202A6E25C015F026C016F0000E186E8A
:1054D8000A0E176E5FEC40F0A40E15242B6E010E19
:1054E80016202C6E2BC01DF02CC01EF029C010F009
:1054F8002AC011F036EC3FF010C01FF011C020F0A8
:10550800C9EC40F0010E2B241D6E000E2C201E6EDF
:10551800020E29240C6E000E2A200D6EEBEC3DF0D5
:10552800276E27501F6E206AC9EC40F0020E2B240C
:105538001D6E000E2C201E6E030E29240C6E000E0C
:105548002A200D6EEBEC3DF0276E27501F6E206A67
:10555800C9EC40F0030E2B241D6E000E2C201E6E8D
:10556800040E29240C6E000E2A200D6EEBEC3DF083
:10557800276E27501F6E206AC9EC40F0050E2924BB
:10558800106E000E2A20116E500E126E020E136E4F
:105598004CEC3EF0000E0201586F040E2B241D6ED9
:1055A800000E2C201E6E500E1F6E020E206E26EC72
:1055B80040F012000001BF87320E8F199011D8A455
:1055C800E8EF2AF0EAEF2AF0EFEF2AF0080E0101DF
:1055D8004C6FDE0E4B6F500E00018F199011D8A43E
:1055E800F8EF2AF0FAEF2AF0FFEF2AF0090E01018E
:1055F8004C6F740E4B6F0001E65101014B5D0001C9
:10560800E75101014C59D8A00CEF2BF00EEF2BF00D
:105618001FEF2BF0E6C01DF0E7C01EF023C01FF0FF
:1056280024C020F026EC40F01E0E0001E627000EF4
:10563800E72360EF2BF0070E4A6FD00E496F4BEF50
:105648002BF0000E106E010E116E430E126EFD0E41
:10565800136E53EC3BF01E0E010149251F6E000E20
:105668004A21206E000E216E010E226EF7EC40F0EA
:1056780049C11DF04AC11EF0000E1F6E010E206EBA
:1056880026EC40F01E0E01014927000E4A2349511D
:105698004B5D4A514C59D8B054EF2BF056EF2BF0D4
:1056A80025EF2BF04BC11DF04CC11EF023C01FF09D
:1056B80024C020F026EC40F00001BF971200020E33
:1056C8001B6E4D0E1A6E740EE82EFED71A2EFCD7DE
:1056D8001B2EFAD700D05A0E0E6EA50E0D6E30ECAA
:1056E80041F0040E72EC40F0830E72EC40F015C0ED
:1056F8000DF016C00EF030EC41F0D890193072EC75
:1057080040F0850EE82EFED700F0000E1D6E000E4C
:105718001C6EC0EF2BF0060E1A6E300EE82EFED768
:105728001A2EFCD700D00001C1A19DEF2BF09FEFEE
:105738002BF0BEEF2BF0C191000E1E6EB3EF2BF0D5
:10574800A10E1E24D96EDA6A020EDA221E50172420
:10575800E16E000E1820E26EDFCFE7FF1E2A195017
:105768001E5CD8A0BAEF2BF0BCEF2BF0A4EF2BF007
:10577800CBEF2BF01C4A1D2A900E1C5C010E1D5805
:10578800D8A0C9EF2BF0CBEF2BF08FEF2BF0040E46
:105798001964D1EF2BF0D3EF2BF0DBEF2BF01E5079
:1057A8001724D96E000E1820DA6E000EDF6E010E77
:1057B8000C6E000E0D6E000E0E6E000E0F6E37ECA6
:1057C8003CF01200353436343C6E3C50D8A4EFEF30
:1057D8002BF0F1EF2BF0FBEF2BF0000E336E000EE9
:1057E800346E000E356E000E366E68EF2CF033C046
:1057F80037F034C038F035C039F036C03AF0200EF2
:105808000BEF2CF0D8903A32393238323732E82E52
:1058180006EF2CF037503B6E358EFF0E3316FF0E19
:105828003416FF0E3516000E3616960E3C5E3CBE3C
:1058380022EF2CF020EF2CF038EF2CF03C50800AAF
:10584800970FD8B02AEF2CF02CEF2CF02EEF2CF07D
:10585800F1EF2BF0D89036323532343233323C3EC9
:105868002EEF2CF050EF2CF01F0E3C643EEF2CF086
:1058780040EF2CF048EF2CF0F1EF2BF0D8903336B6
:105888003436353636363C063C50D8A44EEF2CF02C
:1058980050EF2CF042EF2CF03B50D8B456EF2CF0E0
:1058A80058EF2CF060EF2CF0361E351E341E336C8A
:1058B800000E34223522362233C033F034C034F09F
:1058C80035C035F036C036F012000001BB51D8B4EF
:1058D80070EF2CF072EF2CF0E2EF2CF0000E206E3F
:1058E800D20E1F6E39EC40F01FC065F020C066F084
:1058F800000E206ED30E1F6E39EC40F01FC095F0DD
:1059080020C096F0000E206ED40E1F6E39EC40F0C9
:105918001FC063F020C064F0000E206ED50E1F6E0D
:1059280039EC40F01FC093F020C094F0000E206EB8
:10593800D60E1F6E39EC40F01FC08FF020C090F0DB
:10594800000E2C6E010E2B6E65C02DF066C02EF079
:105958004CEC40F0000E2C6E030E2B6E95C02DF013
:1059680096C02EF04CEC40F0000E2C6E050E2B6EFF
:1059780063C02DF064C02EF04CEC40F0000E2C6E8D
:10598800070E2B6E93C02DF094C02EF04CEC40F017
:10599800000E2C6EFA0E2B6E8FC02DF090C02EF0DC
:1059A8004CEC40F0010E50EC0AF0510E4CEC41F07A
:1059B80057EC3DF0A6EC31F0E7EF2CF0520E4CEC32
:1059C80041F0B8EC40F01200D50E0C6E030E0D6ECF
:1059D80039EC29F0A50E0301D51907E15A0ED6199D
:1059E800D8A4F9EF2CF0FBEF2CF062EF2DF00001BA
:1059F800C191150E0301FA19D8A405EF2DF007EF90
:105A08002DF009EF2DF0B2EC39F0190E0301FA1957
:105A1800D8A411EF2DF013EF2DF015EF2DF014ECA5
:105A280016F0230E0301FA19D8A41DEF2DF01FEF6D
:105A38002DF021EF2DF069EC2CF0250E0301FA1959
:105A4800D8A429EF2DF02BEF2DF02DEF2DF089ECB8
:105A58003AF0290E0301FA19D8A435EF2DF037EFE3
:105A68002DF039EF2DF0B8EC3CF0310E0301FA19A6
:105A7800D8A441EF2DF043EF2DF045EF2DF05AEC6F
:105A880011F0470E0301FA19D8A44DEF2DF04FEF8E
:105A98002DF051EF2DF0C2EC35F0490E0301FA1943
:105AA800D8A459EF2DF05BEF2DF05DEF2DF071ECE0
:105AB8000FF0000E0301D66F000ED56F12003A6E7C
:105AC8003AC03BF0C2EF2DF03B50110D000EF3240D
:105AD800D96E040EF420DA6E3BC0DFFF3B50110D87
